{
	"15ArrayReplaceFromEnd.sol": {
		"ArrayReplaceFromEnd": {
			"abi": [
				{
					"inputs": [
						{
							"internalType": "uint256",
							"name": "",
							"type": "uint256"
						}
					],
					"name": "arr",
					"outputs": [
						{
							"internalType": "uint256",
							"name": "",
							"type": "uint256"
						}
					],
					"stateMutability": "view",
					"type": "function"
				},
				{
					"inputs": [
						{
							"internalType": "uint256",
							"name": "index",
							"type": "uint256"
						}
					],
					"name": "remove",
					"outputs": [],
					"stateMutability": "nonpayable",
					"type": "function"
				},
				{
					"inputs": [],
					"name": "test",
					"outputs": [],
					"stateMutability": "nonpayable",
					"type": "function"
				}
			],
			"devdoc": {
				"kind": "dev",
				"methods": {},
				"version": 1
			},
			"evm": {
				"assembly": "    /* \"15ArrayReplaceFromEnd.sol\":58:833  contract ArrayReplaceFromEnd{... */\n  mstore(0x40, 0x80)\n  callvalue\n  dup1\n  iszero\n  tag_1\n  jumpi\n  0x00\n  dup1\n  revert\ntag_1:\n  pop\n  dataSize(sub_0)\n  dup1\n  dataOffset(sub_0)\n  0x00\n  codecopy\n  0x00\n  return\nstop\n\nsub_0: assembly {\n        /* \"15ArrayReplaceFromEnd.sol\":58:833  contract ArrayReplaceFromEnd{... */\n      mstore(0x40, 0x80)\n      callvalue\n      dup1\n      iszero\n      tag_1\n      jumpi\n      0x00\n      dup1\n      revert\n    tag_1:\n      pop\n      jumpi(tag_2, lt(calldatasize, 0x04))\n      shr(0xe0, calldataload(0x00))\n      dup1\n      0x4cc82215\n      eq\n      tag_3\n      jumpi\n      dup1\n      0x71e5ee5f\n      eq\n      tag_4\n      jumpi\n      dup1\n      0xf8a8fd6d\n      eq\n      tag_5\n      jumpi\n    tag_2:\n      0x00\n      dup1\n      revert\n        /* \"15ArrayReplaceFromEnd.sol\":278:477  function remove(uint256 index) public {... */\n    tag_3:\n      tag_6\n      0x04\n      dup1\n      calldatasize\n      sub\n      dup2\n      add\n      swap1\n      tag_7\n      swap2\n      swap1\n      tag_8\n      jump\t// in\n    tag_7:\n      tag_9\n      jump\t// in\n    tag_6:\n      stop\n        /* \"15ArrayReplaceFromEnd.sol\":92:112  uint256[] public arr */\n    tag_4:\n      tag_10\n      0x04\n      dup1\n      calldatasize\n      sub\n      dup2\n      add\n      swap1\n      tag_11\n      swap2\n      swap1\n      tag_8\n      jump\t// in\n    tag_11:\n      tag_12\n      jump\t// in\n    tag_10:\n      mload(0x40)\n      tag_13\n      swap2\n      swap1\n      tag_14\n      jump\t// in\n    tag_13:\n      mload(0x40)\n      dup1\n      swap2\n      sub\n      swap1\n      return\n        /* \"15ArrayReplaceFromEnd.sol\":483:831  function test() public {... */\n    tag_5:\n      tag_15\n      tag_16\n      jump\t// in\n    tag_15:\n      stop\n        /* \"15ArrayReplaceFromEnd.sol\":278:477  function remove(uint256 index) public {... */\n    tag_9:\n        /* \"15ArrayReplaceFromEnd.sol\":397:400  arr */\n      0x00\n        /* \"15ArrayReplaceFromEnd.sol\":414:415  1 */\n      0x01\n        /* \"15ArrayReplaceFromEnd.sol\":401:404  arr */\n      0x00\n        /* \"15ArrayReplaceFromEnd.sol\":401:411  arr.length */\n      dup1\n      sload\n      swap1\n      pop\n        /* \"15ArrayReplaceFromEnd.sol\":401:415  arr.length - 1 */\n      tag_18\n      swap2\n      swap1\n      tag_19\n      jump\t// in\n    tag_18:\n        /* \"15ArrayReplaceFromEnd.sol\":397:416  arr[arr.length - 1] */\n      dup2\n      sload\n      dup2\n      lt\n      tag_20\n      jumpi\n      tag_21\n      tag_22\n      jump\t// in\n    tag_21:\n    tag_20:\n      swap1\n      0x00\n      mstore\n      keccak256(0x00, 0x20)\n      add\n      sload\n        /* \"15ArrayReplaceFromEnd.sol\":384:387  arr */\n      0x00\n        /* \"15ArrayReplaceFromEnd.sol\":388:393  index */\n      dup3\n        /* \"15ArrayReplaceFromEnd.sol\":384:394  arr[index] */\n      dup2\n      sload\n      dup2\n      lt\n      tag_24\n      jumpi\n      tag_25\n      tag_22\n      jump\t// in\n    tag_25:\n    tag_24:\n      swap1\n      0x00\n      mstore\n      keccak256(0x00, 0x20)\n      add\n        /* \"15ArrayReplaceFromEnd.sol\":384:416  arr[index] = arr[arr.length - 1] */\n      dup2\n      swap1\n      sstore\n      pop\n        /* \"15ArrayReplaceFromEnd.sol\":461:464  arr */\n      0x00\n        /* \"15ArrayReplaceFromEnd.sol\":461:470  arr.pop() */\n      dup1\n      sload\n      dup1\n      tag_27\n      jumpi\n      tag_28\n      tag_29\n      jump\t// in\n    tag_28:\n    tag_27:\n      0x01\n      swap1\n      sub\n      dup2\n      dup2\n      swap1\n      0x00\n      mstore\n      keccak256(0x00, 0x20)\n      add\n      0x00\n      swap1\n      sstore\n      swap1\n      sstore\n        /* \"15ArrayReplaceFromEnd.sol\":278:477  function remove(uint256 index) public {... */\n      pop\n      jump\t// out\n        /* \"15ArrayReplaceFromEnd.sol\":92:112  uint256[] public arr */\n    tag_12:\n      0x00\n      dup2\n      dup2\n      sload\n      dup2\n      lt\n      tag_31\n      jumpi\n      0x00\n      dup1\n      revert\n    tag_31:\n      swap1\n      0x00\n      mstore\n      keccak256(0x00, 0x20)\n      add\n      0x00\n      swap2\n      pop\n      swap1\n      pop\n      sload\n      dup2\n      jump\t// out\n        /* \"15ArrayReplaceFromEnd.sol\":483:831  function test() public {... */\n    tag_16:\n        /* \"15ArrayReplaceFromEnd.sol\":516:534  arr = [1, 2, 3, 4] */\n      mload(0x40)\n      dup1\n      0x80\n      add\n      0x40\n      mstore\n      dup1\n        /* \"15ArrayReplaceFromEnd.sol\":523:524  1 */\n      0x01\n        /* \"15ArrayReplaceFromEnd.sol\":516:534  arr = [1, 2, 3, 4] */\n      0xff\n      and\n      dup2\n      mstore\n      0x20\n      add\n        /* \"15ArrayReplaceFromEnd.sol\":526:527  2 */\n      0x02\n        /* \"15ArrayReplaceFromEnd.sol\":516:534  arr = [1, 2, 3, 4] */\n      0xff\n      and\n      dup2\n      mstore\n      0x20\n      add\n        /* \"15ArrayReplaceFromEnd.sol\":529:530  3 */\n      0x03\n        /* \"15ArrayReplaceFromEnd.sol\":516:534  arr = [1, 2, 3, 4] */\n      0xff\n      and\n      dup2\n      mstore\n      0x20\n      add\n        /* \"15ArrayReplaceFromEnd.sol\":532:533  4 */\n      0x04\n        /* \"15ArrayReplaceFromEnd.sol\":516:534  arr = [1, 2, 3, 4] */\n      0xff\n      and\n      dup2\n      mstore\n      pop\n        /* \"15ArrayReplaceFromEnd.sol\":516:519  arr */\n      0x00\n        /* \"15ArrayReplaceFromEnd.sol\":516:534  arr = [1, 2, 3, 4] */\n      swap1\n      0x04\n      tag_34\n      swap3\n      swap2\n      swap1\n      tag_35\n      jump\t// in\n    tag_34:\n      pop\n        /* \"15ArrayReplaceFromEnd.sol\":545:554  remove(1) */\n      tag_36\n        /* \"15ArrayReplaceFromEnd.sol\":552:553  1 */\n      0x01\n        /* \"15ArrayReplaceFromEnd.sol\":545:551  remove */\n      tag_9\n        /* \"15ArrayReplaceFromEnd.sol\":545:554  remove(1) */\n      jump\t// in\n    tag_36:\n        /* \"15ArrayReplaceFromEnd.sol\":606:607  3 */\n      0x03\n        /* \"15ArrayReplaceFromEnd.sol\":592:595  arr */\n      0x00\n        /* \"15ArrayReplaceFromEnd.sol\":592:602  arr.length */\n      dup1\n      sload\n      swap1\n      pop\n        /* \"15ArrayReplaceFromEnd.sol\":592:607  arr.length == 3 */\n      eq\n        /* \"15ArrayReplaceFromEnd.sol\":585:608  assert(arr.length == 3) */\n      tag_37\n      jumpi\n      tag_38\n      tag_39\n      jump\t// in\n    tag_38:\n    tag_37:\n        /* \"15ArrayReplaceFromEnd.sol\":635:636  1 */\n      0x01\n        /* \"15ArrayReplaceFromEnd.sol\":625:628  arr */\n      0x00\n        /* \"15ArrayReplaceFromEnd.sol\":629:630  0 */\n      dup1\n        /* \"15ArrayReplaceFromEnd.sol\":625:631  arr[0] */\n      dup2\n      sload\n      dup2\n      lt\n      tag_40\n      jumpi\n      tag_41\n      tag_22\n      jump\t// in\n    tag_41:\n    tag_40:\n      swap1\n      0x00\n      mstore\n      keccak256(0x00, 0x20)\n      add\n      sload\n        /* \"15ArrayReplaceFromEnd.sol\":625:636  arr[0] == 1 */\n      eq\n        /* \"15ArrayReplaceFromEnd.sol\":618:637  assert(arr[0] == 1) */\n      tag_43\n      jumpi\n      tag_44\n      tag_39\n      jump\t// in\n    tag_44:\n    tag_43:\n        /* \"15ArrayReplaceFromEnd.sol\":664:665  4 */\n      0x04\n        /* \"15ArrayReplaceFromEnd.sol\":654:657  arr */\n      0x00\n        /* \"15ArrayReplaceFromEnd.sol\":658:659  1 */\n      0x01\n        /* \"15ArrayReplaceFromEnd.sol\":654:660  arr[1] */\n      dup2\n      sload\n      dup2\n      lt\n      tag_45\n      jumpi\n      tag_46\n      tag_22\n      jump\t// in\n    tag_46:\n    tag_45:\n      swap1\n      0x00\n      mstore\n      keccak256(0x00, 0x20)\n      add\n      sload\n        /* \"15ArrayReplaceFromEnd.sol\":654:665  arr[1] == 4 */\n      eq\n        /* \"15ArrayReplaceFromEnd.sol\":647:666  assert(arr[1] == 4) */\n      tag_48\n      jumpi\n      tag_49\n      tag_39\n      jump\t// in\n    tag_49:\n    tag_48:\n        /* \"15ArrayReplaceFromEnd.sol\":693:694  3 */\n      0x03\n        /* \"15ArrayReplaceFromEnd.sol\":683:686  arr */\n      0x00\n        /* \"15ArrayReplaceFromEnd.sol\":687:688  2 */\n      0x02\n        /* \"15ArrayReplaceFromEnd.sol\":683:689  arr[2] */\n      dup2\n      sload\n      dup2\n      lt\n      tag_50\n      jumpi\n      tag_51\n      tag_22\n      jump\t// in\n    tag_51:\n    tag_50:\n      swap1\n      0x00\n      mstore\n      keccak256(0x00, 0x20)\n      add\n      sload\n        /* \"15ArrayReplaceFromEnd.sol\":683:694  arr[2] == 3 */\n      eq\n        /* \"15ArrayReplaceFromEnd.sol\":676:695  assert(arr[2] == 3) */\n      tag_53\n      jumpi\n      tag_54\n      tag_39\n      jump\t// in\n    tag_54:\n    tag_53:\n        /* \"15ArrayReplaceFromEnd.sol\":706:715  remove(2) */\n      tag_55\n        /* \"15ArrayReplaceFromEnd.sol\":713:714  2 */\n      0x02\n        /* \"15ArrayReplaceFromEnd.sol\":706:712  remove */\n      tag_9\n        /* \"15ArrayReplaceFromEnd.sol\":706:715  remove(2) */\n      jump\t// in\n    tag_55:\n        /* \"15ArrayReplaceFromEnd.sol\":764:765  2 */\n      0x02\n        /* \"15ArrayReplaceFromEnd.sol\":750:753  arr */\n      0x00\n        /* \"15ArrayReplaceFromEnd.sol\":750:760  arr.length */\n      dup1\n      sload\n      swap1\n      pop\n        /* \"15ArrayReplaceFromEnd.sol\":750:765  arr.length == 2 */\n      eq\n        /* \"15ArrayReplaceFromEnd.sol\":743:766  assert(arr.length == 2) */\n      tag_56\n      jumpi\n      tag_57\n      tag_39\n      jump\t// in\n    tag_57:\n    tag_56:\n        /* \"15ArrayReplaceFromEnd.sol\":793:794  1 */\n      0x01\n        /* \"15ArrayReplaceFromEnd.sol\":783:786  arr */\n      0x00\n        /* \"15ArrayReplaceFromEnd.sol\":787:788  0 */\n      dup1\n        /* \"15ArrayReplaceFromEnd.sol\":783:789  arr[0] */\n      dup2\n      sload\n      dup2\n      lt\n      tag_58\n      jumpi\n      tag_59\n      tag_22\n      jump\t// in\n    tag_59:\n    tag_58:\n      swap1\n      0x00\n      mstore\n      keccak256(0x00, 0x20)\n      add\n      sload\n        /* \"15ArrayReplaceFromEnd.sol\":783:794  arr[0] == 1 */\n      eq\n        /* \"15ArrayReplaceFromEnd.sol\":776:795  assert(arr[0] == 1) */\n      tag_61\n      jumpi\n      tag_62\n      tag_39\n      jump\t// in\n    tag_62:\n    tag_61:\n        /* \"15ArrayReplaceFromEnd.sol\":822:823  4 */\n      0x04\n        /* \"15ArrayReplaceFromEnd.sol\":812:815  arr */\n      0x00\n        /* \"15ArrayReplaceFromEnd.sol\":816:817  1 */\n      0x01\n        /* \"15ArrayReplaceFromEnd.sol\":812:818  arr[1] */\n      dup2\n      sload\n      dup2\n      lt\n      tag_63\n      jumpi\n      tag_64\n      tag_22\n      jump\t// in\n    tag_64:\n    tag_63:\n      swap1\n      0x00\n      mstore\n      keccak256(0x00, 0x20)\n      add\n      sload\n        /* \"15ArrayReplaceFromEnd.sol\":812:823  arr[1] == 4 */\n      eq\n        /* \"15ArrayReplaceFromEnd.sol\":805:824  assert(arr[1] == 4) */\n      tag_66\n      jumpi\n      tag_67\n      tag_39\n      jump\t// in\n    tag_67:\n    tag_66:\n        /* \"15ArrayReplaceFromEnd.sol\":483:831  function test() public {... */\n      jump\t// out\n    tag_35:\n      dup3\n      dup1\n      sload\n      dup3\n      dup3\n      sstore\n      swap1\n      0x00\n      mstore\n      keccak256(0x00, 0x20)\n      swap1\n      dup2\n      add\n      swap3\n      dup3\n      iszero\n      tag_68\n      jumpi\n      swap2\n      0x20\n      mul\n      dup3\n      add\n    tag_69:\n      dup3\n      dup2\n      gt\n      iszero\n      tag_70\n      jumpi\n      dup3\n      mload\n      dup3\n      swap1\n      0xff\n      and\n      swap1\n      sstore\n      swap2\n      0x20\n      add\n      swap2\n      swap1\n      0x01\n      add\n      swap1\n      jump(tag_69)\n    tag_70:\n    tag_68:\n      pop\n      swap1\n      pop\n      tag_71\n      swap2\n      swap1\n      tag_72\n      jump\t// in\n    tag_71:\n      pop\n      swap1\n      jump\t// out\n    tag_72:\n    tag_73:\n      dup1\n      dup3\n      gt\n      iszero\n      tag_74\n      jumpi\n      0x00\n      dup2\n      0x00\n      swap1\n      sstore\n      pop\n      0x01\n      add\n      jump(tag_73)\n    tag_74:\n      pop\n      swap1\n      jump\t// out\n        /* \"#utility.yul\":88:205   */\n    tag_76:\n        /* \"#utility.yul\":197:198   */\n      0x00\n        /* \"#utility.yul\":194:195   */\n      dup1\n        /* \"#utility.yul\":187:199   */\n      revert\n        /* \"#utility.yul\":334:411   */\n    tag_78:\n        /* \"#utility.yul\":371:378   */\n      0x00\n        /* \"#utility.yul\":400:405   */\n      dup2\n        /* \"#utility.yul\":389:405   */\n      swap1\n      pop\n        /* \"#utility.yul\":334:411   */\n      swap2\n      swap1\n      pop\n      jump\t// out\n        /* \"#utility.yul\":417:539   */\n    tag_79:\n        /* \"#utility.yul\":490:514   */\n      tag_89\n        /* \"#utility.yul\":508:513   */\n      dup2\n        /* \"#utility.yul\":490:514   */\n      tag_78\n      jump\t// in\n    tag_89:\n        /* \"#utility.yul\":483:488   */\n      dup2\n        /* \"#utility.yul\":480:515   */\n      eq\n        /* \"#utility.yul\":470:533   */\n      tag_90\n      jumpi\n        /* \"#utility.yul\":529:530   */\n      0x00\n        /* \"#utility.yul\":526:527   */\n      dup1\n        /* \"#utility.yul\":519:531   */\n      revert\n        /* \"#utility.yul\":470:533   */\n    tag_90:\n        /* \"#utility.yul\":417:539   */\n      pop\n      jump\t// out\n        /* \"#utility.yul\":545:684   */\n    tag_80:\n        /* \"#utility.yul\":591:596   */\n      0x00\n        /* \"#utility.yul\":629:635   */\n      dup2\n        /* \"#utility.yul\":616:636   */\n      calldataload\n        /* \"#utility.yul\":607:636   */\n      swap1\n      pop\n        /* \"#utility.yul\":645:678   */\n      tag_92\n        /* \"#utility.yul\":672:677   */\n      dup2\n        /* \"#utility.yul\":645:678   */\n      tag_79\n      jump\t// in\n    tag_92:\n        /* \"#utility.yul\":545:684   */\n      swap3\n      swap2\n      pop\n      pop\n      jump\t// out\n        /* \"#utility.yul\":690:1019   */\n    tag_8:\n        /* \"#utility.yul\":749:755   */\n      0x00\n        /* \"#utility.yul\":798:800   */\n      0x20\n        /* \"#utility.yul\":786:795   */\n      dup3\n        /* \"#utility.yul\":777:784   */\n      dup5\n        /* \"#utility.yul\":773:796   */\n      sub\n        /* \"#utility.yul\":769:801   */\n      slt\n        /* \"#utility.yul\":766:885   */\n      iszero\n      tag_94\n      jumpi\n        /* \"#utility.yul\":804:883   */\n      tag_95\n      tag_76\n      jump\t// in\n    tag_95:\n        /* \"#utility.yul\":766:885   */\n    tag_94:\n        /* \"#utility.yul\":924:925   */\n      0x00\n        /* \"#utility.yul\":949:1002   */\n      tag_96\n        /* \"#utility.yul\":994:1001   */\n      dup5\n        /* \"#utility.yul\":985:991   */\n      dup3\n        /* \"#utility.yul\":974:983   */\n      dup6\n        /* \"#utility.yul\":970:992   */\n      add\n        /* \"#utility.yul\":949:1002   */\n      tag_80\n      jump\t// in\n    tag_96:\n        /* \"#utility.yul\":939:1002   */\n      swap2\n      pop\n        /* \"#utility.yul\":895:1012   */\n      pop\n        /* \"#utility.yul\":690:1019   */\n      swap3\n      swap2\n      pop\n      pop\n      jump\t// out\n        /* \"#utility.yul\":1025:1143   */\n    tag_81:\n        /* \"#utility.yul\":1112:1136   */\n      tag_98\n        /* \"#utility.yul\":1130:1135   */\n      dup2\n        /* \"#utility.yul\":1112:1136   */\n      tag_78\n      jump\t// in\n    tag_98:\n        /* \"#utility.yul\":1107:1110   */\n      dup3\n        /* \"#utility.yul\":1100:1137   */\n      mstore\n        /* \"#utility.yul\":1025:1143   */\n      pop\n      pop\n      jump\t// out\n        /* \"#utility.yul\":1149:1371   */\n    tag_14:\n        /* \"#utility.yul\":1242:1246   */\n      0x00\n        /* \"#utility.yul\":1280:1282   */\n      0x20\n        /* \"#utility.yul\":1269:1278   */\n      dup3\n        /* \"#utility.yul\":1265:1283   */\n      add\n        /* \"#utility.yul\":1257:1283   */\n      swap1\n      pop\n        /* \"#utility.yul\":1293:1364   */\n      tag_100\n        /* \"#utility.yul\":1361:1362   */\n      0x00\n        /* \"#utility.yul\":1350:1359   */\n      dup4\n        /* \"#utility.yul\":1346:1363   */\n      add\n        /* \"#utility.yul\":1337:1343   */\n      dup5\n        /* \"#utility.yul\":1293:1364   */\n      tag_81\n      jump\t// in\n    tag_100:\n        /* \"#utility.yul\":1149:1371   */\n      swap3\n      swap2\n      pop\n      pop\n      jump\t// out\n        /* \"#utility.yul\":1377:1557   */\n    tag_82:\n        /* \"#utility.yul\":1425:1502   */\n      0x4e487b7100000000000000000000000000000000000000000000000000000000\n        /* \"#utility.yul\":1422:1423   */\n      0x00\n        /* \"#utility.yul\":1415:1503   */\n      mstore\n        /* \"#utility.yul\":1522:1526   */\n      0x11\n        /* \"#utility.yul\":1519:1520   */\n      0x04\n        /* \"#utility.yul\":1512:1527   */\n      mstore\n        /* \"#utility.yul\":1546:1550   */\n      0x24\n        /* \"#utility.yul\":1543:1544   */\n      0x00\n        /* \"#utility.yul\":1536:1551   */\n      revert\n        /* \"#utility.yul\":1563:1757   */\n    tag_19:\n        /* \"#utility.yul\":1603:1607   */\n      0x00\n        /* \"#utility.yul\":1623:1643   */\n      tag_103\n        /* \"#utility.yul\":1641:1642   */\n      dup3\n        /* \"#utility.yul\":1623:1643   */\n      tag_78\n      jump\t// in\n    tag_103:\n        /* \"#utility.yul\":1618:1643   */\n      swap2\n      pop\n        /* \"#utility.yul\":1657:1677   */\n      tag_104\n        /* \"#utility.yul\":1675:1676   */\n      dup4\n        /* \"#utility.yul\":1657:1677   */\n      tag_78\n      jump\t// in\n    tag_104:\n        /* \"#utility.yul\":1652:1677   */\n      swap3\n      pop\n        /* \"#utility.yul\":1701:1702   */\n      dup3\n        /* \"#utility.yul\":1698:1699   */\n      dup3\n        /* \"#utility.yul\":1694:1703   */\n      sub\n        /* \"#utility.yul\":1686:1703   */\n      swap1\n      pop\n        /* \"#utility.yul\":1725:1726   */\n      dup2\n        /* \"#utility.yul\":1719:1723   */\n      dup2\n        /* \"#utility.yul\":1716:1727   */\n      gt\n        /* \"#utility.yul\":1713:1750   */\n      iszero\n      tag_105\n      jumpi\n        /* \"#utility.yul\":1730:1748   */\n      tag_106\n      tag_82\n      jump\t// in\n    tag_106:\n        /* \"#utility.yul\":1713:1750   */\n    tag_105:\n        /* \"#utility.yul\":1563:1757   */\n      swap3\n      swap2\n      pop\n      pop\n      jump\t// out\n        /* \"#utility.yul\":1763:1943   */\n    tag_22:\n        /* \"#utility.yul\":1811:1888   */\n      0x4e487b7100000000000000000000000000000000000000000000000000000000\n        /* \"#utility.yul\":1808:1809   */\n      0x00\n        /* \"#utility.yul\":1801:1889   */\n      mstore\n        /* \"#utility.yul\":1908:1912   */\n      0x32\n        /* \"#utility.yul\":1905:1906   */\n      0x04\n        /* \"#utility.yul\":1898:1913   */\n      mstore\n        /* \"#utility.yul\":1932:1936   */\n      0x24\n        /* \"#utility.yul\":1929:1930   */\n      0x00\n        /* \"#utility.yul\":1922:1937   */\n      revert\n        /* \"#utility.yul\":1949:2129   */\n    tag_29:\n        /* \"#utility.yul\":1997:2074   */\n      0x4e487b7100000000000000000000000000000000000000000000000000000000\n        /* \"#utility.yul\":1994:1995   */\n      0x00\n        /* \"#utility.yul\":1987:2075   */\n      mstore\n        /* \"#utility.yul\":2094:2098   */\n      0x31\n        /* \"#utility.yul\":2091:2092   */\n      0x04\n        /* \"#utility.yul\":2084:2099   */\n      mstore\n        /* \"#utility.yul\":2118:2122   */\n      0x24\n        /* \"#utility.yul\":2115:2116   */\n      0x00\n        /* \"#utility.yul\":2108:2123   */\n      revert\n        /* \"#utility.yul\":2135:2315   */\n    tag_39:\n        /* \"#utility.yul\":2183:2260   */\n      0x4e487b7100000000000000000000000000000000000000000000000000000000\n        /* \"#utility.yul\":2180:2181   */\n      0x00\n        /* \"#utility.yul\":2173:2261   */\n      mstore\n        /* \"#utility.yul\":2280:2284   */\n      0x01\n        /* \"#utility.yul\":2277:2278   */\n      0x04\n        /* \"#utility.yul\":2270:2285   */\n      mstore\n        /* \"#utility.yul\":2304:2308   */\n      0x24\n        /* \"#utility.yul\":2301:2302   */\n      0x00\n        /* \"#utility.yul\":2294:2309   */\n      revert\n\n    auxdata: 0xa26469706673582212208e51fc172f9ca0a05a975b2a3ec141ba5be6f7d8dda4aa5af672fa601ddaf7db64736f6c63430008190033\n}\n",
				"bytecode": {
					"linkReferences": {},
					"object": "6080604052348015600e575f80fd5b5061049c8061001c5f395ff3fe608060405234801561000f575f80fd5b506004361061003f575f3560e01c80634cc822151461004357806371e5ee5f1461005f578063f8a8fd6d1461008f575b5f80fd5b61005d6004803603810190610058919061032c565b610099565b005b6100796004803603810190610074919061032c565b61010b565b6040516100869190610366565b60405180910390f35b61009761012a565b005b5f60015f805490506100ab91906103ac565b815481106100bc576100bb6103df565b5b905f5260205f2001545f82815481106100d8576100d76103df565b5b905f5260205f2001819055505f8054806100f5576100f461040c565b5b600190038181905f5260205f20015f9055905550565b5f8181548110610119575f80fd5b905f5260205f20015f915090505481565b6040518060800160405280600160ff168152602001600260ff168152602001600360ff168152602001600460ff168152505f90600461016a92919061028a565b506101756001610099565b60035f805490501461018a57610189610439565b5b60015f808154811061019f5761019e6103df565b5b905f5260205f200154146101b6576101b5610439565b5b60045f6001815481106101cc576101cb6103df565b5b905f5260205f200154146101e3576101e2610439565b5b60035f6002815481106101f9576101f86103df565b5b905f5260205f200154146102105761020f610439565b5b61021a6002610099565b60025f805490501461022f5761022e610439565b5b60015f8081548110610244576102436103df565b5b905f5260205f2001541461025b5761025a610439565b5b60045f600181548110610271576102706103df565b5b905f5260205f2001541461028857610287610439565b5b565b828054828255905f5260205f209081019282156102c9579160200282015b828111156102c8578251829060ff169055916020019190600101906102a8565b5b5090506102d691906102da565b5090565b5b808211156102f1575f815f9055506001016102db565b5090565b5f80fd5b5f819050919050565b61030b816102f9565b8114610315575f80fd5b50565b5f8135905061032681610302565b92915050565b5f60208284031215610341576103406102f5565b5b5f61034e84828501610318565b91505092915050565b610360816102f9565b82525050565b5f6020820190506103795f830184610357565b92915050565b7f4e487b71000000000000000000000000000000000000000000000000000000005f52601160045260245ffd5b5f6103b6826102f9565b91506103c1836102f9565b92508282039050818111156103d9576103d861037f565b5b92915050565b7f4e487b71000000000000000000000000000000000000000000000000000000005f52603260045260245ffd5b7f4e487b71000000000000000000000000000000000000000000000000000000005f52603160045260245ffd5b7f4e487b71000000000000000000000000000000000000000000000000000000005f52600160045260245ffdfea26469706673582212208e51fc172f9ca0a05a975b2a3ec141ba5be6f7d8dda4aa5af672fa601ddaf7db64736f6c63430008190033",
					"opcodes": "PUSH1 0x80 PUSH1 0x40 MSTORE CALLVALUE DUP1 ISZERO PUSH1 0xE JUMPI PUSH0 DUP1 REVERT JUMPDEST POP PUSH2 0x49C DUP1 PUSH2 0x1C PUSH0 CODECOPY PUSH0 RETURN INVALID PUSH1 0x80 PUSH1 0x40 MSTORE CALLVALUE DUP1 ISZERO PUSH2 0xF JUMPI PUSH0 DUP1 REVERT JUMPDEST POP PUSH1 0x4 CALLDATASIZE LT PUSH2 0x3F JUMPI PUSH0 CALLDATALOAD PUSH1 0xE0 SHR DUP1 PUSH4 0x4CC82215 EQ PUSH2 0x43 JUMPI DUP1 PUSH4 0x71E5EE5F EQ PUSH2 0x5F JUMPI DUP1 PUSH4 0xF8A8FD6D EQ PUSH2 0x8F JUMPI JUMPDEST PUSH0 DUP1 REVERT JUMPDEST PUSH2 0x5D PUSH1 0x4 DUP1 CALLDATASIZE SUB DUP2 ADD SWAP1 PUSH2 0x58 SWAP2 SWAP1 PUSH2 0x32C JUMP JUMPDEST PUSH2 0x99 JUMP JUMPDEST STOP JUMPDEST PUSH2 0x79 PUSH1 0x4 DUP1 CALLDATASIZE SUB DUP2 ADD SWAP1 PUSH2 0x74 SWAP2 SWAP1 PUSH2 0x32C JUMP JUMPDEST PUSH2 0x10B JUMP JUMPDEST PUSH1 0x40 MLOAD PUSH2 0x86 SWAP2 SWAP1 PUSH2 0x366 JUMP JUMPDEST PUSH1 0x40 MLOAD DUP1 SWAP2 SUB SWAP1 RETURN JUMPDEST PUSH2 0x97 PUSH2 0x12A JUMP JUMPDEST STOP JUMPDEST PUSH0 PUSH1 0x1 PUSH0 DUP1 SLOAD SWAP1 POP PUSH2 0xAB SWAP2 SWAP1 PUSH2 0x3AC JUMP JUMPDEST DUP2 SLOAD DUP2 LT PUSH2 0xBC JUMPI PUSH2 0xBB PUSH2 0x3DF JUMP JUMPDEST JUMPDEST SWAP1 PUSH0 MSTORE PUSH1 0x20 PUSH0 KECCAK256 ADD SLOAD PUSH0 DUP3 DUP2 SLOAD DUP2 LT PUSH2 0xD8 JUMPI PUSH2 0xD7 PUSH2 0x3DF JUMP JUMPDEST JUMPDEST SWAP1 PUSH0 MSTORE PUSH1 0x20 PUSH0 KECCAK256 ADD DUP2 SWAP1 SSTORE POP PUSH0 DUP1 SLOAD DUP1 PUSH2 0xF5 JUMPI PUSH2 0xF4 PUSH2 0x40C JUMP JUMPDEST JUMPDEST PUSH1 0x1 SWAP1 SUB DUP2 DUP2 SWAP1 PUSH0 MSTORE PUSH1 0x20 PUSH0 KECCAK256 ADD PUSH0 SWAP1 SSTORE SWAP1 SSTORE POP JUMP JUMPDEST PUSH0 DUP2 DUP2 SLOAD DUP2 LT PUSH2 0x119 JUMPI PUSH0 DUP1 REVERT JUMPDEST SWAP1 PUSH0 MSTORE PUSH1 0x20 PUSH0 KECCAK256 ADD PUSH0 SWAP2 POP SWAP1 POP SLOAD DUP2 JUMP JUMPDEST PUSH1 0x40 MLOAD DUP1 PUSH1 0x80 ADD PUSH1 0x40 MSTORE DUP1 PUSH1 0x1 PUSH1 0xFF AND DUP2 MSTORE PUSH1 0x20 ADD PUSH1 0x2 PUSH1 0xFF AND DUP2 MSTORE PUSH1 0x20 ADD PUSH1 0x3 PUSH1 0xFF AND DUP2 MSTORE PUSH1 0x20 ADD PUSH1 0x4 PUSH1 0xFF AND DUP2 MSTORE POP PUSH0 SWAP1 PUSH1 0x4 PUSH2 0x16A SWAP3 SWAP2 SWAP1 PUSH2 0x28A JUMP JUMPDEST POP PUSH2 0x175 PUSH1 0x1 PUSH2 0x99 JUMP JUMPDEST PUSH1 0x3 PUSH0 DUP1 SLOAD SWAP1 POP EQ PUSH2 0x18A JUMPI PUSH2 0x189 PUSH2 0x439 JUMP JUMPDEST JUMPDEST PUSH1 0x1 PUSH0 DUP1 DUP2 SLOAD DUP2 LT PUSH2 0x19F JUMPI PUSH2 0x19E PUSH2 0x3DF JUMP JUMPDEST JUMPDEST SWAP1 PUSH0 MSTORE PUSH1 0x20 PUSH0 KECCAK256 ADD SLOAD EQ PUSH2 0x1B6 JUMPI PUSH2 0x1B5 PUSH2 0x439 JUMP JUMPDEST JUMPDEST PUSH1 0x4 PUSH0 PUSH1 0x1 DUP2 SLOAD DUP2 LT PUSH2 0x1CC JUMPI PUSH2 0x1CB PUSH2 0x3DF JUMP JUMPDEST JUMPDEST SWAP1 PUSH0 MSTORE PUSH1 0x20 PUSH0 KECCAK256 ADD SLOAD EQ PUSH2 0x1E3 JUMPI PUSH2 0x1E2 PUSH2 0x439 JUMP JUMPDEST JUMPDEST PUSH1 0x3 PUSH0 PUSH1 0x2 DUP2 SLOAD DUP2 LT PUSH2 0x1F9 JUMPI PUSH2 0x1F8 PUSH2 0x3DF JUMP JUMPDEST JUMPDEST SWAP1 PUSH0 MSTORE PUSH1 0x20 PUSH0 KECCAK256 ADD SLOAD EQ PUSH2 0x210 JUMPI PUSH2 0x20F PUSH2 0x439 JUMP JUMPDEST JUMPDEST PUSH2 0x21A PUSH1 0x2 PUSH2 0x99 JUMP JUMPDEST PUSH1 0x2 PUSH0 DUP1 SLOAD SWAP1 POP EQ PUSH2 0x22F JUMPI PUSH2 0x22E PUSH2 0x439 JUMP JUMPDEST JUMPDEST PUSH1 0x1 PUSH0 DUP1 DUP2 SLOAD DUP2 LT PUSH2 0x244 JUMPI PUSH2 0x243 PUSH2 0x3DF JUMP JUMPDEST JUMPDEST SWAP1 PUSH0 MSTORE PUSH1 0x20 PUSH0 KECCAK256 ADD SLOAD EQ PUSH2 0x25B JUMPI PUSH2 0x25A PUSH2 0x439 JUMP JUMPDEST JUMPDEST PUSH1 0x4 PUSH0 PUSH1 0x1 DUP2 SLOAD DUP2 LT PUSH2 0x271 JUMPI PUSH2 0x270 PUSH2 0x3DF JUMP JUMPDEST JUMPDEST SWAP1 PUSH0 MSTORE PUSH1 0x20 PUSH0 KECCAK256 ADD SLOAD EQ PUSH2 0x288 JUMPI PUSH2 0x287 PUSH2 0x439 JUMP JUMPDEST JUMPDEST JUMP JUMPDEST DUP3 DUP1 SLOAD DUP3 DUP3 SSTORE SWAP1 PUSH0 MSTORE PUSH1 0x20 PUSH0 KECCAK256 SWAP1 DUP2 ADD SWAP3 DUP3 ISZERO PUSH2 0x2C9 JUMPI SWAP2 PUSH1 0x20 MUL DUP3 ADD JUMPDEST DUP3 DUP2 GT ISZERO PUSH2 0x2C8 JUMPI DUP3 MLOAD DUP3 SWAP1 PUSH1 0xFF AND SWAP1 SSTORE SWAP2 PUSH1 0x20 ADD SWAP2 SWAP1 PUSH1 0x1 ADD SWAP1 PUSH2 0x2A8 JUMP JUMPDEST JUMPDEST POP SWAP1 POP PUSH2 0x2D6 SWAP2 SWAP1 PUSH2 0x2DA JUMP JUMPDEST POP SWAP1 JUMP JUMPDEST JUMPDEST DUP1 DUP3 GT ISZERO PUSH2 0x2F1 JUMPI PUSH0 DUP2 PUSH0 SWAP1 SSTORE POP PUSH1 0x1 ADD PUSH2 0x2DB JUMP JUMPDEST POP SWAP1 JUMP JUMPDEST PUSH0 DUP1 REVERT JUMPDEST PUSH0 DUP2 SWAP1 POP SWAP2 SWAP1 POP JUMP JUMPDEST PUSH2 0x30B DUP2 PUSH2 0x2F9 JUMP JUMPDEST DUP2 EQ PUSH2 0x315 JUMPI PUSH0 DUP1 REVERT JUMPDEST POP JUMP JUMPDEST PUSH0 DUP2 CALLDATALOAD SWAP1 POP PUSH2 0x326 DUP2 PUSH2 0x302 JUMP JUMPDEST SWAP3 SWAP2 POP POP JUMP JUMPDEST PUSH0 PUSH1 0x20 DUP3 DUP5 SUB SLT ISZERO PUSH2 0x341 JUMPI PUSH2 0x340 PUSH2 0x2F5 JUMP JUMPDEST JUMPDEST PUSH0 PUSH2 0x34E DUP5 DUP3 DUP6 ADD PUSH2 0x318 JUMP JUMPDEST SWAP2 POP POP SWAP3 SWAP2 POP POP JUMP JUMPDEST PUSH2 0x360 DUP2 PUSH2 0x2F9 JUMP JUMPDEST DUP3 MSTORE POP POP JUMP JUMPDEST PUSH0 PUSH1 0x20 DUP3 ADD SWAP1 POP PUSH2 0x379 PUSH0 DUP4 ADD DUP5 PUSH2 0x357 JUMP JUMPDEST SWAP3 SWAP2 POP POP JUMP JUMPDEST PUSH32 0x4E487B7100000000000000000000000000000000000000000000000000000000 PUSH0 MSTORE PUSH1 0x11 PUSH1 0x4 MSTORE PUSH1 0x24 PUSH0 REVERT JUMPDEST PUSH0 PUSH2 0x3B6 DUP3 PUSH2 0x2F9 JUMP JUMPDEST SWAP2 POP PUSH2 0x3C1 DUP4 PUSH2 0x2F9 JUMP JUMPDEST SWAP3 POP DUP3 DUP3 SUB SWAP1 POP DUP2 DUP2 GT ISZERO PUSH2 0x3D9 JUMPI PUSH2 0x3D8 PUSH2 0x37F JUMP JUMPDEST JUMPDEST SWAP3 SWAP2 POP POP JUMP JUMPDEST PUSH32 0x4E487B7100000000000000000000000000000000000000000000000000000000 PUSH0 MSTORE PUSH1 0x32 PUSH1 0x4 MSTORE PUSH1 0x24 PUSH0 REVERT JUMPDEST PUSH32 0x4E487B7100000000000000000000000000000000000000000000000000000000 PUSH0 MSTORE PUSH1 0x31 PUSH1 0x4 MSTORE PUSH1 0x24 PUSH0 REVERT JUMPDEST PUSH32 0x4E487B7100000000000000000000000000000000000000000000000000000000 PUSH0 MSTORE PUSH1 0x1 PUSH1 0x4 MSTORE PUSH1 0x24 PUSH0 REVERT INVALID LOG2 PUSH5 0x6970667358 0x22 SLT KECCAK256 DUP15 MLOAD 0xFC OR 0x2F SWAP13 LOG0 LOG0 GAS SWAP8 JUMPDEST 0x2A RETURNDATACOPY 0xC1 COINBASE 0xBA JUMPDEST 0xE6 0xF7 0xD8 0xDD LOG4 0xAA GAS 0xF6 PUSH19 0xFA601DDAF7DB64736F6C634300081900330000 "
				},
				"gasEstimates": {
					"creation": {
						"codeDepositCost": "236000",
						"executionCost": "273",
						"totalCost": "236273"
					},
					"external": {
						"arr(uint256)": "infinite",
						"remove(uint256)": "infinite",
						"test()": "infinite"
					}
				},
				"methodIdentifiers": {
					"arr(uint256)": "71e5ee5f",
					"remove(uint256)": "4cc82215",
					"test()": "f8a8fd6d"
				}
			},
			"storageLayout": {
				"storage": [
					{
						"astId": 4,
						"contract": "15ArrayReplaceFromEnd.sol:ArrayReplaceFromEnd",
						"label": "arr",
						"offset": 0,
						"slot": "0",
						"type": "t_array(t_uint256)dyn_storage"
					}
				],
				"types": {
					"t_array(t_uint256)dyn_storage": {
						"base": "t_uint256",
						"encoding": "dynamic_array",
						"label": "uint256[]",
						"numberOfBytes": "32"
					},
					"t_uint256": {
						"encoding": "inplace",
						"label": "uint256",
						"numberOfBytes": "32"
					}
				}
			},
			"userdoc": {
				"kind": "user",
				"methods": {},
				"version": 1
			}
		}
	}
}