{
	"L2/Task2/MultisigWallet.sol": {
		"MultisigWallet": {
			"abi": [
				{
					"inputs": [
						{
							"internalType": "address[]",
							"name": "_owners",
							"type": "address[]"
						},
						{
							"internalType": "uint256",
							"name": "_threshold",
							"type": "uint256"
						}
					],
					"stateMutability": "nonpayable",
					"type": "constructor"
				},
				{
					"inputs": [
						{
							"internalType": "bytes32",
							"name": "dataHash",
							"type": "bytes32"
						},
						{
							"internalType": "bytes",
							"name": "signatures",
							"type": "bytes"
						}
					],
					"name": "checkSignatures",
					"outputs": [],
					"stateMutability": "view",
					"type": "function"
				},
				{
					"inputs": [
						{
							"internalType": "address",
							"name": "to",
							"type": "address"
						},
						{
							"internalType": "uint256",
							"name": "value",
							"type": "uint256"
						},
						{
							"internalType": "bytes",
							"name": "data",
							"type": "bytes"
						},
						{
							"internalType": "uint256",
							"name": "_nonce",
							"type": "uint256"
						},
						{
							"internalType": "uint256",
							"name": "chainid",
							"type": "uint256"
						}
					],
					"name": "encodeTransactionData",
					"outputs": [
						{
							"internalType": "bytes32",
							"name": "",
							"type": "bytes32"
						}
					],
					"stateMutability": "pure",
					"type": "function"
				},
				{
					"inputs": [
						{
							"internalType": "address",
							"name": "",
							"type": "address"
						}
					],
					"name": "isOwner",
					"outputs": [
						{
							"internalType": "bool",
							"name": "",
							"type": "bool"
						}
					],
					"stateMutability": "view",
					"type": "function"
				},
				{
					"inputs": [],
					"name": "nonce",
					"outputs": [
						{
							"internalType": "uint256",
							"name": "",
							"type": "uint256"
						}
					],
					"stateMutability": "view",
					"type": "function"
				},
				{
					"inputs": [],
					"name": "ownerCount",
					"outputs": [
						{
							"internalType": "uint256",
							"name": "",
							"type": "uint256"
						}
					],
					"stateMutability": "view",
					"type": "function"
				},
				{
					"inputs": [
						{
							"internalType": "uint256",
							"name": "",
							"type": "uint256"
						}
					],
					"name": "owners",
					"outputs": [
						{
							"internalType": "address",
							"name": "",
							"type": "address"
						}
					],
					"stateMutability": "view",
					"type": "function"
				},
				{
					"inputs": [],
					"name": "threshold",
					"outputs": [
						{
							"internalType": "uint256",
							"name": "",
							"type": "uint256"
						}
					],
					"stateMutability": "view",
					"type": "function"
				}
			],
			"devdoc": {
				"kind": "dev",
				"methods": {
					"checkSignatures(bytes32,bytes)": {
						"details": "检查签名和交易数据是否对应。如果是无效签名，交易会revert",
						"params": {
							"dataHash": "交易数据哈希",
							"signatures": "几个多签签名打包在一起"
						}
					},
					"encodeTransactionData(address,uint256,bytes,uint256,uint256)": {
						"details": "编码交易数据",
						"params": {
							"_nonce": "交易的nonce.",
							"chainid": "链id",
							"data": "calldata",
							"to": "目标合约地址",
							"value": "msg.value，支付的以太坊"
						},
						"returns": {
							"_0": "交易哈希bytes."
						}
					}
				},
				"version": 1
			},
			"evm": {
				"assembly": "    /* \"L2/Task2/MultisigWallet.sol\":58:4141  contract MultisigWallet{... */\n  mstore(0x40, 0x80)\n    /* \"L2/Task2/MultisigWallet.sol\":602:720  constructor(        ... */\n  callvalue\n  dup1\n  iszero\n  tag_1\n  jumpi\n  0x00\n  dup1\n  revert\ntag_1:\n  pop\n  mload(0x40)\n  sub(codesize, bytecodeSize)\n  dup1\n  bytecodeSize\n  dup4\n  codecopy\n  dup2\n  dup2\n  add\n  0x40\n  mstore\n  dup2\n  add\n  swap1\n  tag_2\n  swap2\n  swap1\n  tag_3\n  jump\t// in\ntag_2:\n    /* \"L2/Task2/MultisigWallet.sol\":684:717  _setupOwners(_owners, _threshold) */\n  tag_6\n    /* \"L2/Task2/MultisigWallet.sol\":697:704  _owners */\n  dup3\n    /* \"L2/Task2/MultisigWallet.sol\":706:716  _threshold */\n  dup3\n    /* \"L2/Task2/MultisigWallet.sol\":684:696  _setupOwners */\n  shl(0x20, tag_7)\n    /* \"L2/Task2/MultisigWallet.sol\":684:717  _setupOwners(_owners, _threshold) */\n  0x20\n  shr\n  jump\t// in\ntag_6:\n    /* \"L2/Task2/MultisigWallet.sol\":602:720  constructor(        ... */\n  pop\n  pop\n    /* \"L2/Task2/MultisigWallet.sol\":58:4141  contract MultisigWallet{... */\n  jump(tag_8)\n    /* \"L2/Task2/MultisigWallet.sol\":905:1611  function _setupOwners(address[] memory _owners, uint256 _threshold) internal {... */\ntag_7:\n    /* \"L2/Task2/MultisigWallet.sol\":1044:1045  0 */\n  0x00\n    /* \"L2/Task2/MultisigWallet.sol\":1031:1040  threshold */\n  sload(0x03)\n    /* \"L2/Task2/MultisigWallet.sol\":1031:1045  threshold == 0 */\n  eq\n    /* \"L2/Task2/MultisigWallet.sol\":1023:1056  require(threshold == 0, \"DQ5000\") */\n  tag_10\n  jumpi\n  mload(0x40)\n  0x08c379a000000000000000000000000000000000000000000000000000000000\n  dup2\n  mstore\n  0x04\n  add\n  tag_11\n  swap1\n  tag_12\n  jump\t// in\ntag_11:\n  mload(0x40)\n  dup1\n  swap2\n  sub\n  swap1\n  revert\ntag_10:\n    /* \"L2/Task2/MultisigWallet.sol\":1130:1137  _owners */\n  dup2\n    /* \"L2/Task2/MultisigWallet.sol\":1130:1144  _owners.length */\n  mload\n    /* \"L2/Task2/MultisigWallet.sol\":1116:1126  _threshold */\n  dup2\n    /* \"L2/Task2/MultisigWallet.sol\":1116:1144  _threshold <= _owners.length */\n  gt\n  iszero\n    /* \"L2/Task2/MultisigWallet.sol\":1108:1155  require(_threshold <= _owners.length, \"DQ5001\") */\n  tag_13\n  jumpi\n  mload(0x40)\n  0x08c379a000000000000000000000000000000000000000000000000000000000\n  dup2\n  mstore\n  0x04\n  add\n  tag_14\n  swap1\n  tag_15\n  jump\t// in\ntag_14:\n  mload(0x40)\n  dup1\n  swap2\n  sub\n  swap1\n  revert\ntag_13:\n    /* \"L2/Task2/MultisigWallet.sol\":1219:1220  1 */\n  0x01\n    /* \"L2/Task2/MultisigWallet.sol\":1205:1215  _threshold */\n  dup2\n    /* \"L2/Task2/MultisigWallet.sol\":1205:1220  _threshold >= 1 */\n  lt\n  iszero\n    /* \"L2/Task2/MultisigWallet.sol\":1197:1231  require(_threshold >= 1, \"DQ5002\") */\n  tag_16\n  jumpi\n  mload(0x40)\n  0x08c379a000000000000000000000000000000000000000000000000000000000\n  dup2\n  mstore\n  0x04\n  add\n  tag_17\n  swap1\n  tag_18\n  jump\t// in\ntag_17:\n  mload(0x40)\n  dup1\n  swap2\n  sub\n  swap1\n  revert\ntag_16:\n    /* \"L2/Task2/MultisigWallet.sol\":1243:1252  uint256 i */\n  0x00\n    /* \"L2/Task2/MultisigWallet.sol\":1238:1548  for (uint256 i = 0; i < _owners.length; i++) {... */\ntag_19:\n    /* \"L2/Task2/MultisigWallet.sol\":1262:1269  _owners */\n  dup3\n    /* \"L2/Task2/MultisigWallet.sol\":1262:1276  _owners.length */\n  mload\n    /* \"L2/Task2/MultisigWallet.sol\":1258:1259  i */\n  dup2\n    /* \"L2/Task2/MultisigWallet.sol\":1258:1276  i < _owners.length */\n  lt\n    /* \"L2/Task2/MultisigWallet.sol\":1238:1548  for (uint256 i = 0; i < _owners.length; i++) {... */\n  iszero\n  tag_20\n  jumpi\n    /* \"L2/Task2/MultisigWallet.sol\":1293:1306  address owner */\n  0x00\n    /* \"L2/Task2/MultisigWallet.sol\":1309:1316  _owners */\n  dup4\n    /* \"L2/Task2/MultisigWallet.sol\":1317:1318  i */\n  dup3\n    /* \"L2/Task2/MultisigWallet.sol\":1309:1319  _owners[i] */\n  dup2\n  mload\n  dup2\n  lt\n  tag_22\n  jumpi\n  tag_23\n  tag_24\n  jump\t// in\ntag_23:\ntag_22:\n  0x20\n  mul\n  0x20\n  add\n  add\n  mload\n    /* \"L2/Task2/MultisigWallet.sol\":1293:1319  address owner = _owners[i] */\n  swap1\n  pop\n    /* \"L2/Task2/MultisigWallet.sol\":1424:1425  0 */\n  0x00\n    /* \"L2/Task2/MultisigWallet.sol\":1407:1426  owner != address(0) */\n  0xffffffffffffffffffffffffffffffffffffffff\n  and\n    /* \"L2/Task2/MultisigWallet.sol\":1407:1412  owner */\n  dup2\n    /* \"L2/Task2/MultisigWallet.sol\":1407:1426  owner != address(0) */\n  0xffffffffffffffffffffffffffffffffffffffff\n  and\n  eq\n  iszero\n    /* \"L2/Task2/MultisigWallet.sol\":1407:1452  owner != address(0) && owner != address(this) */\n  dup1\n  iszero\n  tag_25\n  jumpi\n  pop\n    /* \"L2/Task2/MultisigWallet.sol\":1447:1451  this */\n  address\n    /* \"L2/Task2/MultisigWallet.sol\":1430:1452  owner != address(this) */\n  0xffffffffffffffffffffffffffffffffffffffff\n  and\n    /* \"L2/Task2/MultisigWallet.sol\":1430:1435  owner */\n  dup2\n    /* \"L2/Task2/MultisigWallet.sol\":1430:1452  owner != address(this) */\n  0xffffffffffffffffffffffffffffffffffffffff\n  and\n  eq\n  iszero\n    /* \"L2/Task2/MultisigWallet.sol\":1407:1452  owner != address(0) && owner != address(this) */\ntag_25:\n    /* \"L2/Task2/MultisigWallet.sol\":1407:1471  owner != address(0) && owner != address(this) && !isOwner[owner] */\n  dup1\n  iszero\n  tag_26\n  jumpi\n  pop\n    /* \"L2/Task2/MultisigWallet.sol\":1457:1464  isOwner */\n  0x01\n    /* \"L2/Task2/MultisigWallet.sol\":1457:1471  isOwner[owner] */\n  0x00\n    /* \"L2/Task2/MultisigWallet.sol\":1465:1470  owner */\n  dup3\n    /* \"L2/Task2/MultisigWallet.sol\":1457:1471  isOwner[owner] */\n  0xffffffffffffffffffffffffffffffffffffffff\n  and\n  0xffffffffffffffffffffffffffffffffffffffff\n  and\n  dup2\n  mstore\n  0x20\n  add\n  swap1\n  dup2\n  mstore\n  0x20\n  add\n  0x00\n  keccak256\n  0x00\n  swap1\n  sload\n  swap1\n  0x0100\n  exp\n  swap1\n  div\n  0xff\n  and\n    /* \"L2/Task2/MultisigWallet.sol\":1456:1471  !isOwner[owner] */\n  iszero\n    /* \"L2/Task2/MultisigWallet.sol\":1407:1471  owner != address(0) && owner != address(this) && !isOwner[owner] */\ntag_26:\n    /* \"L2/Task2/MultisigWallet.sol\":1399:1482  require(owner != address(0) && owner != address(this) && !isOwner[owner], \"DQ5003\") */\n  tag_27\n  jumpi\n  mload(0x40)\n  0x08c379a000000000000000000000000000000000000000000000000000000000\n  dup2\n  mstore\n  0x04\n  add\n  tag_28\n  swap1\n  tag_29\n  jump\t// in\ntag_28:\n  mload(0x40)\n  dup1\n  swap2\n  sub\n  swap1\n  revert\ntag_27:\n    /* \"L2/Task2/MultisigWallet.sol\":1492:1498  owners */\n  0x00\n    /* \"L2/Task2/MultisigWallet.sol\":1504:1509  owner */\n  dup2\n    /* \"L2/Task2/MultisigWallet.sol\":1492:1510  owners.push(owner) */\n  swap1\n  dup1\n  0x01\n  dup2\n  sload\n  add\n  dup1\n  dup3\n  sstore\n  dup1\n  swap2\n  pop\n  pop\n  0x01\n  swap1\n  sub\n  swap1\n  0x00\n  mstore\n  keccak256(0x00, 0x20)\n  add\n  0x00\n  swap1\n  swap2\n  swap1\n  swap2\n  swap1\n  swap2\n  0x0100\n  exp\n  dup2\n  sload\n  dup2\n  0xffffffffffffffffffffffffffffffffffffffff\n  mul\n  not\n  and\n  swap1\n  dup4\n  0xffffffffffffffffffffffffffffffffffffffff\n  and\n  mul\n  or\n  swap1\n  sstore\n  pop\n    /* \"L2/Task2/MultisigWallet.sol\":1537:1541  true */\n  0x01\n    /* \"L2/Task2/MultisigWallet.sol\":1520:1527  isOwner */\n  dup1\n    /* \"L2/Task2/MultisigWallet.sol\":1520:1534  isOwner[owner] */\n  0x00\n    /* \"L2/Task2/MultisigWallet.sol\":1528:1533  owner */\n  dup4\n    /* \"L2/Task2/MultisigWallet.sol\":1520:1534  isOwner[owner] */\n  0xffffffffffffffffffffffffffffffffffffffff\n  and\n  0xffffffffffffffffffffffffffffffffffffffff\n  and\n  dup2\n  mstore\n  0x20\n  add\n  swap1\n  dup2\n  mstore\n  0x20\n  add\n  0x00\n  keccak256\n  0x00\n    /* \"L2/Task2/MultisigWallet.sol\":1520:1541  isOwner[owner] = true */\n  0x0100\n  exp\n  dup2\n  sload\n  dup2\n  0xff\n  mul\n  not\n  and\n  swap1\n  dup4\n  iszero\n  iszero\n  mul\n  or\n  swap1\n  sstore\n  pop\n    /* \"L2/Task2/MultisigWallet.sol\":1283:1548  {... */\n  pop\n    /* \"L2/Task2/MultisigWallet.sol\":1278:1281  i++ */\n  dup1\n  dup1\n  0x01\n  add\n  swap2\n  pop\n  pop\n    /* \"L2/Task2/MultisigWallet.sol\":1238:1548  for (uint256 i = 0; i < _owners.length; i++) {... */\n  jump(tag_19)\ntag_20:\n  pop\n    /* \"L2/Task2/MultisigWallet.sol\":1566:1573  _owners */\n  dup2\n    /* \"L2/Task2/MultisigWallet.sol\":1566:1580  _owners.length */\n  mload\n    /* \"L2/Task2/MultisigWallet.sol\":1553:1563  ownerCount */\n  0x02\n    /* \"L2/Task2/MultisigWallet.sol\":1553:1580  ownerCount = _owners.length */\n  dup2\n  swap1\n  sstore\n  pop\n    /* \"L2/Task2/MultisigWallet.sol\":1598:1608  _threshold */\n  dup1\n    /* \"L2/Task2/MultisigWallet.sol\":1586:1595  threshold */\n  0x03\n    /* \"L2/Task2/MultisigWallet.sol\":1586:1608  threshold = _threshold */\n  dup2\n  swap1\n  sstore\n  pop\n    /* \"L2/Task2/MultisigWallet.sol\":905:1611  function _setupOwners(address[] memory _owners, uint256 _threshold) internal {... */\n  pop\n  pop\n  jump\t// out\n    /* \"#utility.yul\":7:82   */\ntag_31:\n    /* \"#utility.yul\":40:46   */\n  0x00\n    /* \"#utility.yul\":73:75   */\n  0x40\n    /* \"#utility.yul\":67:76   */\n  mload\n    /* \"#utility.yul\":57:76   */\n  swap1\n  pop\n    /* \"#utility.yul\":7:82   */\n  swap1\n  jump\t// out\n    /* \"#utility.yul\":88:205   */\ntag_32:\n    /* \"#utility.yul\":197:198   */\n  0x00\n    /* \"#utility.yul\":194:195   */\n  dup1\n    /* \"#utility.yul\":187:199   */\n  revert\n    /* \"#utility.yul\":211:328   */\ntag_33:\n    /* \"#utility.yul\":320:321   */\n  0x00\n    /* \"#utility.yul\":317:318   */\n  dup1\n    /* \"#utility.yul\":310:322   */\n  revert\n    /* \"#utility.yul\":334:451   */\ntag_34:\n    /* \"#utility.yul\":443:444   */\n  0x00\n    /* \"#utility.yul\":440:441   */\n  dup1\n    /* \"#utility.yul\":433:445   */\n  revert\n    /* \"#utility.yul\":457:559   */\ntag_35:\n    /* \"#utility.yul\":498:504   */\n  0x00\n    /* \"#utility.yul\":549:551   */\n  0x1f\n    /* \"#utility.yul\":545:552   */\n  not\n    /* \"#utility.yul\":540:542   */\n  0x1f\n    /* \"#utility.yul\":533:538   */\n  dup4\n    /* \"#utility.yul\":529:543   */\n  add\n    /* \"#utility.yul\":525:553   */\n  and\n    /* \"#utility.yul\":515:553   */\n  swap1\n  pop\n    /* \"#utility.yul\":457:559   */\n  swap2\n  swap1\n  pop\n  jump\t// out\n    /* \"#utility.yul\":565:745   */\ntag_36:\n    /* \"#utility.yul\":613:690   */\n  0x4e487b7100000000000000000000000000000000000000000000000000000000\n    /* \"#utility.yul\":610:611   */\n  0x00\n    /* \"#utility.yul\":603:691   */\n  mstore\n    /* \"#utility.yul\":710:714   */\n  0x41\n    /* \"#utility.yul\":707:708   */\n  0x04\n    /* \"#utility.yul\":700:715   */\n  mstore\n    /* \"#utility.yul\":734:738   */\n  0x24\n    /* \"#utility.yul\":731:732   */\n  0x00\n    /* \"#utility.yul\":724:739   */\n  revert\n    /* \"#utility.yul\":751:1032   */\ntag_37:\n    /* \"#utility.yul\":834:861   */\n  tag_67\n    /* \"#utility.yul\":856:860   */\n  dup3\n    /* \"#utility.yul\":834:861   */\n  tag_35\n  jump\t// in\ntag_67:\n    /* \"#utility.yul\":826:832   */\n  dup2\n    /* \"#utility.yul\":822:862   */\n  add\n    /* \"#utility.yul\":964:970   */\n  dup2\n    /* \"#utility.yul\":952:962   */\n  dup2\n    /* \"#utility.yul\":949:971   */\n  lt\n    /* \"#utility.yul\":928:946   */\n  0xffffffffffffffff\n    /* \"#utility.yul\":916:926   */\n  dup3\n    /* \"#utility.yul\":913:947   */\n  gt\n    /* \"#utility.yul\":910:972   */\n  or\n    /* \"#utility.yul\":907:995   */\n  iszero\n  tag_68\n  jumpi\n    /* \"#utility.yul\":975:993   */\n  tag_69\n  tag_36\n  jump\t// in\ntag_69:\n    /* \"#utility.yul\":907:995   */\ntag_68:\n    /* \"#utility.yul\":1015:1025   */\n  dup1\n    /* \"#utility.yul\":1011:1013   */\n  0x40\n    /* \"#utility.yul\":1004:1026   */\n  mstore\n    /* \"#utility.yul\":794:1032   */\n  pop\n    /* \"#utility.yul\":751:1032   */\n  pop\n  pop\n  jump\t// out\n    /* \"#utility.yul\":1038:1167   */\ntag_38:\n    /* \"#utility.yul\":1072:1078   */\n  0x00\n    /* \"#utility.yul\":1099:1119   */\n  tag_71\n  tag_31\n  jump\t// in\ntag_71:\n    /* \"#utility.yul\":1089:1119   */\n  swap1\n  pop\n    /* \"#utility.yul\":1128:1161   */\n  tag_72\n    /* \"#utility.yul\":1156:1160   */\n  dup3\n    /* \"#utility.yul\":1148:1154   */\n  dup3\n    /* \"#utility.yul\":1128:1161   */\n  tag_37\n  jump\t// in\ntag_72:\n    /* \"#utility.yul\":1038:1167   */\n  swap2\n  swap1\n  pop\n  jump\t// out\n    /* \"#utility.yul\":1173:1484   */\ntag_39:\n    /* \"#utility.yul\":1250:1254   */\n  0x00\n    /* \"#utility.yul\":1340:1358   */\n  0xffffffffffffffff\n    /* \"#utility.yul\":1332:1338   */\n  dup3\n    /* \"#utility.yul\":1329:1359   */\n  gt\n    /* \"#utility.yul\":1326:1382   */\n  iszero\n  tag_74\n  jumpi\n    /* \"#utility.yul\":1362:1380   */\n  tag_75\n  tag_36\n  jump\t// in\ntag_75:\n    /* \"#utility.yul\":1326:1382   */\ntag_74:\n    /* \"#utility.yul\":1412:1416   */\n  0x20\n    /* \"#utility.yul\":1404:1410   */\n  dup3\n    /* \"#utility.yul\":1400:1417   */\n  mul\n    /* \"#utility.yul\":1392:1417   */\n  swap1\n  pop\n    /* \"#utility.yul\":1472:1476   */\n  0x20\n    /* \"#utility.yul\":1466:1470   */\n  dup2\n    /* \"#utility.yul\":1462:1477   */\n  add\n    /* \"#utility.yul\":1454:1477   */\n  swap1\n  pop\n    /* \"#utility.yul\":1173:1484   */\n  swap2\n  swap1\n  pop\n  jump\t// out\n    /* \"#utility.yul\":1490:1607   */\ntag_40:\n    /* \"#utility.yul\":1599:1600   */\n  0x00\n    /* \"#utility.yul\":1596:1597   */\n  dup1\n    /* \"#utility.yul\":1589:1601   */\n  revert\n    /* \"#utility.yul\":1613:1739   */\ntag_41:\n    /* \"#utility.yul\":1650:1657   */\n  0x00\n    /* \"#utility.yul\":1690:1732   */\n  0xffffffffffffffffffffffffffffffffffffffff\n    /* \"#utility.yul\":1683:1688   */\n  dup3\n    /* \"#utility.yul\":1679:1733   */\n  and\n    /* \"#utility.yul\":1668:1733   */\n  swap1\n  pop\n    /* \"#utility.yul\":1613:1739   */\n  swap2\n  swap1\n  pop\n  jump\t// out\n    /* \"#utility.yul\":1745:1841   */\ntag_42:\n    /* \"#utility.yul\":1782:1789   */\n  0x00\n    /* \"#utility.yul\":1811:1835   */\n  tag_79\n    /* \"#utility.yul\":1829:1834   */\n  dup3\n    /* \"#utility.yul\":1811:1835   */\n  tag_41\n  jump\t// in\ntag_79:\n    /* \"#utility.yul\":1800:1835   */\n  swap1\n  pop\n    /* \"#utility.yul\":1745:1841   */\n  swap2\n  swap1\n  pop\n  jump\t// out\n    /* \"#utility.yul\":1847:1969   */\ntag_43:\n    /* \"#utility.yul\":1920:1944   */\n  tag_81\n    /* \"#utility.yul\":1938:1943   */\n  dup2\n    /* \"#utility.yul\":1920:1944   */\n  tag_42\n  jump\t// in\ntag_81:\n    /* \"#utility.yul\":1913:1918   */\n  dup2\n    /* \"#utility.yul\":1910:1945   */\n  eq\n    /* \"#utility.yul\":1900:1963   */\n  tag_82\n  jumpi\n    /* \"#utility.yul\":1959:1960   */\n  0x00\n    /* \"#utility.yul\":1956:1957   */\n  dup1\n    /* \"#utility.yul\":1949:1961   */\n  revert\n    /* \"#utility.yul\":1900:1963   */\ntag_82:\n    /* \"#utility.yul\":1847:1969   */\n  pop\n  jump\t// out\n    /* \"#utility.yul\":1975:2118   */\ntag_44:\n    /* \"#utility.yul\":2032:2037   */\n  0x00\n    /* \"#utility.yul\":2063:2069   */\n  dup2\n    /* \"#utility.yul\":2057:2070   */\n  mload\n    /* \"#utility.yul\":2048:2070   */\n  swap1\n  pop\n    /* \"#utility.yul\":2079:2112   */\n  tag_84\n    /* \"#utility.yul\":2106:2111   */\n  dup2\n    /* \"#utility.yul\":2079:2112   */\n  tag_43\n  jump\t// in\ntag_84:\n    /* \"#utility.yul\":1975:2118   */\n  swap3\n  swap2\n  pop\n  pop\n  jump\t// out\n    /* \"#utility.yul\":2141:2873   */\ntag_45:\n    /* \"#utility.yul\":2248:2253   */\n  0x00\n    /* \"#utility.yul\":2273:2354   */\n  tag_86\n    /* \"#utility.yul\":2289:2353   */\n  tag_87\n    /* \"#utility.yul\":2346:2352   */\n  dup5\n    /* \"#utility.yul\":2289:2353   */\n  tag_39\n  jump\t// in\ntag_87:\n    /* \"#utility.yul\":2273:2354   */\n  tag_38\n  jump\t// in\ntag_86:\n    /* \"#utility.yul\":2264:2354   */\n  swap1\n  pop\n    /* \"#utility.yul\":2374:2379   */\n  dup1\n    /* \"#utility.yul\":2403:2409   */\n  dup4\n    /* \"#utility.yul\":2396:2401   */\n  dup3\n    /* \"#utility.yul\":2389:2410   */\n  mstore\n    /* \"#utility.yul\":2437:2441   */\n  0x20\n    /* \"#utility.yul\":2430:2435   */\n  dup3\n    /* \"#utility.yul\":2426:2442   */\n  add\n    /* \"#utility.yul\":2419:2442   */\n  swap1\n  pop\n    /* \"#utility.yul\":2490:2494   */\n  0x20\n    /* \"#utility.yul\":2482:2488   */\n  dup5\n    /* \"#utility.yul\":2478:2495   */\n  mul\n    /* \"#utility.yul\":2470:2476   */\n  dup4\n    /* \"#utility.yul\":2466:2496   */\n  add\n    /* \"#utility.yul\":2519:2522   */\n  dup6\n    /* \"#utility.yul\":2511:2517   */\n  dup2\n    /* \"#utility.yul\":2508:2523   */\n  gt\n    /* \"#utility.yul\":2505:2627   */\n  iszero\n  tag_88\n  jumpi\n    /* \"#utility.yul\":2538:2617   */\n  tag_89\n  tag_40\n  jump\t// in\ntag_89:\n    /* \"#utility.yul\":2505:2627   */\ntag_88:\n    /* \"#utility.yul\":2653:2659   */\n  dup4\n    /* \"#utility.yul\":2636:2867   */\ntag_90:\n    /* \"#utility.yul\":2670:2676   */\n  dup2\n    /* \"#utility.yul\":2665:2668   */\n  dup2\n    /* \"#utility.yul\":2662:2677   */\n  lt\n    /* \"#utility.yul\":2636:2867   */\n  iszero\n  tag_92\n  jumpi\n    /* \"#utility.yul\":2745:2748   */\n  dup1\n    /* \"#utility.yul\":2774:2822   */\n  tag_93\n    /* \"#utility.yul\":2818:2821   */\n  dup9\n    /* \"#utility.yul\":2806:2816   */\n  dup3\n    /* \"#utility.yul\":2774:2822   */\n  tag_44\n  jump\t// in\ntag_93:\n    /* \"#utility.yul\":2769:2772   */\n  dup5\n    /* \"#utility.yul\":2762:2823   */\n  mstore\n    /* \"#utility.yul\":2852:2856   */\n  0x20\n    /* \"#utility.yul\":2847:2850   */\n  dup5\n    /* \"#utility.yul\":2843:2857   */\n  add\n    /* \"#utility.yul\":2836:2857   */\n  swap4\n  pop\n    /* \"#utility.yul\":2712:2867   */\n  pop\n    /* \"#utility.yul\":2696:2700   */\n  0x20\n    /* \"#utility.yul\":2691:2694   */\n  dup2\n    /* \"#utility.yul\":2687:2701   */\n  add\n    /* \"#utility.yul\":2680:2701   */\n  swap1\n  pop\n    /* \"#utility.yul\":2636:2867   */\n  jump(tag_90)\ntag_92:\n    /* \"#utility.yul\":2640:2661   */\n  pop\n    /* \"#utility.yul\":2254:2873   */\n  pop\n  pop\n    /* \"#utility.yul\":2141:2873   */\n  swap4\n  swap3\n  pop\n  pop\n  pop\n  jump\t// out\n    /* \"#utility.yul\":2896:3281   */\ntag_46:\n    /* \"#utility.yul\":2978:2983   */\n  0x00\n    /* \"#utility.yul\":3027:3030   */\n  dup3\n    /* \"#utility.yul\":3020:3024   */\n  0x1f\n    /* \"#utility.yul\":3012:3018   */\n  dup4\n    /* \"#utility.yul\":3008:3025   */\n  add\n    /* \"#utility.yul\":3004:3031   */\n  slt\n    /* \"#utility.yul\":2994:3116   */\n  tag_95\n  jumpi\n    /* \"#utility.yul\":3035:3114   */\n  tag_96\n  tag_34\n  jump\t// in\ntag_96:\n    /* \"#utility.yul\":2994:3116   */\ntag_95:\n    /* \"#utility.yul\":3145:3151   */\n  dup2\n    /* \"#utility.yul\":3139:3152   */\n  mload\n    /* \"#utility.yul\":3170:3275   */\n  tag_97\n    /* \"#utility.yul\":3271:3274   */\n  dup5\n    /* \"#utility.yul\":3263:3269   */\n  dup3\n    /* \"#utility.yul\":3256:3260   */\n  0x20\n    /* \"#utility.yul\":3248:3254   */\n  dup7\n    /* \"#utility.yul\":3244:3261   */\n  add\n    /* \"#utility.yul\":3170:3275   */\n  tag_45\n  jump\t// in\ntag_97:\n    /* \"#utility.yul\":3161:3275   */\n  swap2\n  pop\n    /* \"#utility.yul\":2984:3281   */\n  pop\n    /* \"#utility.yul\":2896:3281   */\n  swap3\n  swap2\n  pop\n  pop\n  jump\t// out\n    /* \"#utility.yul\":3287:3364   */\ntag_47:\n    /* \"#utility.yul\":3324:3331   */\n  0x00\n    /* \"#utility.yul\":3353:3358   */\n  dup2\n    /* \"#utility.yul\":3342:3358   */\n  swap1\n  pop\n    /* \"#utility.yul\":3287:3364   */\n  swap2\n  swap1\n  pop\n  jump\t// out\n    /* \"#utility.yul\":3370:3492   */\ntag_48:\n    /* \"#utility.yul\":3443:3467   */\n  tag_100\n    /* \"#utility.yul\":3461:3466   */\n  dup2\n    /* \"#utility.yul\":3443:3467   */\n  tag_47\n  jump\t// in\ntag_100:\n    /* \"#utility.yul\":3436:3441   */\n  dup2\n    /* \"#utility.yul\":3433:3468   */\n  eq\n    /* \"#utility.yul\":3423:3486   */\n  tag_101\n  jumpi\n    /* \"#utility.yul\":3482:3483   */\n  0x00\n    /* \"#utility.yul\":3479:3480   */\n  dup1\n    /* \"#utility.yul\":3472:3484   */\n  revert\n    /* \"#utility.yul\":3423:3486   */\ntag_101:\n    /* \"#utility.yul\":3370:3492   */\n  pop\n  jump\t// out\n    /* \"#utility.yul\":3498:3641   */\ntag_49:\n    /* \"#utility.yul\":3555:3560   */\n  0x00\n    /* \"#utility.yul\":3586:3592   */\n  dup2\n    /* \"#utility.yul\":3580:3593   */\n  mload\n    /* \"#utility.yul\":3571:3593   */\n  swap1\n  pop\n    /* \"#utility.yul\":3602:3635   */\n  tag_103\n    /* \"#utility.yul\":3629:3634   */\n  dup2\n    /* \"#utility.yul\":3602:3635   */\n  tag_48\n  jump\t// in\ntag_103:\n    /* \"#utility.yul\":3498:3641   */\n  swap3\n  swap2\n  pop\n  pop\n  jump\t// out\n    /* \"#utility.yul\":3647:4357   */\ntag_3:\n    /* \"#utility.yul\":3751:3757   */\n  0x00\n    /* \"#utility.yul\":3759:3765   */\n  dup1\n    /* \"#utility.yul\":3808:3810   */\n  0x40\n    /* \"#utility.yul\":3796:3805   */\n  dup4\n    /* \"#utility.yul\":3787:3794   */\n  dup6\n    /* \"#utility.yul\":3783:3806   */\n  sub\n    /* \"#utility.yul\":3779:3811   */\n  slt\n    /* \"#utility.yul\":3776:3895   */\n  iszero\n  tag_105\n  jumpi\n    /* \"#utility.yul\":3814:3893   */\n  tag_106\n  tag_32\n  jump\t// in\ntag_106:\n    /* \"#utility.yul\":3776:3895   */\ntag_105:\n    /* \"#utility.yul\":3955:3956   */\n  0x00\n    /* \"#utility.yul\":3944:3953   */\n  dup4\n    /* \"#utility.yul\":3940:3957   */\n  add\n    /* \"#utility.yul\":3934:3958   */\n  mload\n    /* \"#utility.yul\":3985:4003   */\n  0xffffffffffffffff\n    /* \"#utility.yul\":3977:3983   */\n  dup2\n    /* \"#utility.yul\":3974:4004   */\n  gt\n    /* \"#utility.yul\":3971:4088   */\n  iszero\n  tag_107\n  jumpi\n    /* \"#utility.yul\":4007:4086   */\n  tag_108\n  tag_33\n  jump\t// in\ntag_108:\n    /* \"#utility.yul\":3971:4088   */\ntag_107:\n    /* \"#utility.yul\":4112:4201   */\n  tag_109\n    /* \"#utility.yul\":4193:4200   */\n  dup6\n    /* \"#utility.yul\":4184:4190   */\n  dup3\n    /* \"#utility.yul\":4173:4182   */\n  dup7\n    /* \"#utility.yul\":4169:4191   */\n  add\n    /* \"#utility.yul\":4112:4201   */\n  tag_46\n  jump\t// in\ntag_109:\n    /* \"#utility.yul\":4102:4201   */\n  swap3\n  pop\n    /* \"#utility.yul\":3905:4211   */\n  pop\n    /* \"#utility.yul\":4250:4252   */\n  0x20\n    /* \"#utility.yul\":4276:4340   */\n  tag_110\n    /* \"#utility.yul\":4332:4339   */\n  dup6\n    /* \"#utility.yul\":4323:4329   */\n  dup3\n    /* \"#utility.yul\":4312:4321   */\n  dup7\n    /* \"#utility.yul\":4308:4330   */\n  add\n    /* \"#utility.yul\":4276:4340   */\n  tag_49\n  jump\t// in\ntag_110:\n    /* \"#utility.yul\":4266:4340   */\n  swap2\n  pop\n    /* \"#utility.yul\":4221:4350   */\n  pop\n    /* \"#utility.yul\":3647:4357   */\n  swap3\n  pop\n  swap3\n  swap1\n  pop\n  jump\t// out\n    /* \"#utility.yul\":4363:4532   */\ntag_50:\n    /* \"#utility.yul\":4447:4458   */\n  0x00\n    /* \"#utility.yul\":4481:4487   */\n  dup3\n    /* \"#utility.yul\":4476:4479   */\n  dup3\n    /* \"#utility.yul\":4469:4488   */\n  mstore\n    /* \"#utility.yul\":4521:4525   */\n  0x20\n    /* \"#utility.yul\":4516:4519   */\n  dup3\n    /* \"#utility.yul\":4512:4526   */\n  add\n    /* \"#utility.yul\":4497:4526   */\n  swap1\n  pop\n    /* \"#utility.yul\":4363:4532   */\n  swap3\n  swap2\n  pop\n  pop\n  jump\t// out\n    /* \"#utility.yul\":4538:4694   */\ntag_51:\n    /* \"#utility.yul\":4678:4686   */\n  0x4451353030300000000000000000000000000000000000000000000000000000\n    /* \"#utility.yul\":4674:4675   */\n  0x00\n    /* \"#utility.yul\":4666:4672   */\n  dup3\n    /* \"#utility.yul\":4662:4676   */\n  add\n    /* \"#utility.yul\":4655:4687   */\n  mstore\n    /* \"#utility.yul\":4538:4694   */\n  pop\n  jump\t// out\n    /* \"#utility.yul\":4700:5065   */\ntag_52:\n    /* \"#utility.yul\":4842:4845   */\n  0x00\n    /* \"#utility.yul\":4863:4929   */\n  tag_114\n    /* \"#utility.yul\":4927:4928   */\n  0x06\n    /* \"#utility.yul\":4922:4925   */\n  dup4\n    /* \"#utility.yul\":4863:4929   */\n  tag_50\n  jump\t// in\ntag_114:\n    /* \"#utility.yul\":4856:4929   */\n  swap2\n  pop\n    /* \"#utility.yul\":4938:5031   */\n  tag_115\n    /* \"#utility.yul\":5027:5030   */\n  dup3\n    /* \"#utility.yul\":4938:5031   */\n  tag_51\n  jump\t// in\ntag_115:\n    /* \"#utility.yul\":5056:5058   */\n  0x20\n    /* \"#utility.yul\":5051:5054   */\n  dup3\n    /* \"#utility.yul\":5047:5059   */\n  add\n    /* \"#utility.yul\":5040:5059   */\n  swap1\n  pop\n    /* \"#utility.yul\":4700:5065   */\n  swap2\n  swap1\n  pop\n  jump\t// out\n    /* \"#utility.yul\":5071:5490   */\ntag_12:\n    /* \"#utility.yul\":5237:5241   */\n  0x00\n    /* \"#utility.yul\":5275:5277   */\n  0x20\n    /* \"#utility.yul\":5264:5273   */\n  dup3\n    /* \"#utility.yul\":5260:5278   */\n  add\n    /* \"#utility.yul\":5252:5278   */\n  swap1\n  pop\n    /* \"#utility.yul\":5324:5333   */\n  dup2\n    /* \"#utility.yul\":5318:5322   */\n  dup2\n    /* \"#utility.yul\":5314:5334   */\n  sub\n    /* \"#utility.yul\":5310:5311   */\n  0x00\n    /* \"#utility.yul\":5299:5308   */\n  dup4\n    /* \"#utility.yul\":5295:5312   */\n  add\n    /* \"#utility.yul\":5288:5335   */\n  mstore\n    /* \"#utility.yul\":5352:5483   */\n  tag_117\n    /* \"#utility.yul\":5478:5482   */\n  dup2\n    /* \"#utility.yul\":5352:5483   */\n  tag_52\n  jump\t// in\ntag_117:\n    /* \"#utility.yul\":5344:5483   */\n  swap1\n  pop\n    /* \"#utility.yul\":5071:5490   */\n  swap2\n  swap1\n  pop\n  jump\t// out\n    /* \"#utility.yul\":5496:5652   */\ntag_53:\n    /* \"#utility.yul\":5636:5644   */\n  0x4451353030310000000000000000000000000000000000000000000000000000\n    /* \"#utility.yul\":5632:5633   */\n  0x00\n    /* \"#utility.yul\":5624:5630   */\n  dup3\n    /* \"#utility.yul\":5620:5634   */\n  add\n    /* \"#utility.yul\":5613:5645   */\n  mstore\n    /* \"#utility.yul\":5496:5652   */\n  pop\n  jump\t// out\n    /* \"#utility.yul\":5658:6023   */\ntag_54:\n    /* \"#utility.yul\":5800:5803   */\n  0x00\n    /* \"#utility.yul\":5821:5887   */\n  tag_120\n    /* \"#utility.yul\":5885:5886   */\n  0x06\n    /* \"#utility.yul\":5880:5883   */\n  dup4\n    /* \"#utility.yul\":5821:5887   */\n  tag_50\n  jump\t// in\ntag_120:\n    /* \"#utility.yul\":5814:5887   */\n  swap2\n  pop\n    /* \"#utility.yul\":5896:5989   */\n  tag_121\n    /* \"#utility.yul\":5985:5988   */\n  dup3\n    /* \"#utility.yul\":5896:5989   */\n  tag_53\n  jump\t// in\ntag_121:\n    /* \"#utility.yul\":6014:6016   */\n  0x20\n    /* \"#utility.yul\":6009:6012   */\n  dup3\n    /* \"#utility.yul\":6005:6017   */\n  add\n    /* \"#utility.yul\":5998:6017   */\n  swap1\n  pop\n    /* \"#utility.yul\":5658:6023   */\n  swap2\n  swap1\n  pop\n  jump\t// out\n    /* \"#utility.yul\":6029:6448   */\ntag_15:\n    /* \"#utility.yul\":6195:6199   */\n  0x00\n    /* \"#utility.yul\":6233:6235   */\n  0x20\n    /* \"#utility.yul\":6222:6231   */\n  dup3\n    /* \"#utility.yul\":6218:6236   */\n  add\n    /* \"#utility.yul\":6210:6236   */\n  swap1\n  pop\n    /* \"#utility.yul\":6282:6291   */\n  dup2\n    /* \"#utility.yul\":6276:6280   */\n  dup2\n    /* \"#utility.yul\":6272:6292   */\n  sub\n    /* \"#utility.yul\":6268:6269   */\n  0x00\n    /* \"#utility.yul\":6257:6266   */\n  dup4\n    /* \"#utility.yul\":6253:6270   */\n  add\n    /* \"#utility.yul\":6246:6293   */\n  mstore\n    /* \"#utility.yul\":6310:6441   */\n  tag_123\n    /* \"#utility.yul\":6436:6440   */\n  dup2\n    /* \"#utility.yul\":6310:6441   */\n  tag_54\n  jump\t// in\ntag_123:\n    /* \"#utility.yul\":6302:6441   */\n  swap1\n  pop\n    /* \"#utility.yul\":6029:6448   */\n  swap2\n  swap1\n  pop\n  jump\t// out\n    /* \"#utility.yul\":6454:6610   */\ntag_55:\n    /* \"#utility.yul\":6594:6602   */\n  0x4451353030320000000000000000000000000000000000000000000000000000\n    /* \"#utility.yul\":6590:6591   */\n  0x00\n    /* \"#utility.yul\":6582:6588   */\n  dup3\n    /* \"#utility.yul\":6578:6592   */\n  add\n    /* \"#utility.yul\":6571:6603   */\n  mstore\n    /* \"#utility.yul\":6454:6610   */\n  pop\n  jump\t// out\n    /* \"#utility.yul\":6616:6981   */\ntag_56:\n    /* \"#utility.yul\":6758:6761   */\n  0x00\n    /* \"#utility.yul\":6779:6845   */\n  tag_126\n    /* \"#utility.yul\":6843:6844   */\n  0x06\n    /* \"#utility.yul\":6838:6841   */\n  dup4\n    /* \"#utility.yul\":6779:6845   */\n  tag_50\n  jump\t// in\ntag_126:\n    /* \"#utility.yul\":6772:6845   */\n  swap2\n  pop\n    /* \"#utility.yul\":6854:6947   */\n  tag_127\n    /* \"#utility.yul\":6943:6946   */\n  dup3\n    /* \"#utility.yul\":6854:6947   */\n  tag_55\n  jump\t// in\ntag_127:\n    /* \"#utility.yul\":6972:6974   */\n  0x20\n    /* \"#utility.yul\":6967:6970   */\n  dup3\n    /* \"#utility.yul\":6963:6975   */\n  add\n    /* \"#utility.yul\":6956:6975   */\n  swap1\n  pop\n    /* \"#utility.yul\":6616:6981   */\n  swap2\n  swap1\n  pop\n  jump\t// out\n    /* \"#utility.yul\":6987:7406   */\ntag_18:\n    /* \"#utility.yul\":7153:7157   */\n  0x00\n    /* \"#utility.yul\":7191:7193   */\n  0x20\n    /* \"#utility.yul\":7180:7189   */\n  dup3\n    /* \"#utility.yul\":7176:7194   */\n  add\n    /* \"#utility.yul\":7168:7194   */\n  swap1\n  pop\n    /* \"#utility.yul\":7240:7249   */\n  dup2\n    /* \"#utility.yul\":7234:7238   */\n  dup2\n    /* \"#utility.yul\":7230:7250   */\n  sub\n    /* \"#utility.yul\":7226:7227   */\n  0x00\n    /* \"#utility.yul\":7215:7224   */\n  dup4\n    /* \"#utility.yul\":7211:7228   */\n  add\n    /* \"#utility.yul\":7204:7251   */\n  mstore\n    /* \"#utility.yul\":7268:7399   */\n  tag_129\n    /* \"#utility.yul\":7394:7398   */\n  dup2\n    /* \"#utility.yul\":7268:7399   */\n  tag_56\n  jump\t// in\ntag_129:\n    /* \"#utility.yul\":7260:7399   */\n  swap1\n  pop\n    /* \"#utility.yul\":6987:7406   */\n  swap2\n  swap1\n  pop\n  jump\t// out\n    /* \"#utility.yul\":7412:7592   */\ntag_24:\n    /* \"#utility.yul\":7460:7537   */\n  0x4e487b7100000000000000000000000000000000000000000000000000000000\n    /* \"#utility.yul\":7457:7458   */\n  0x00\n    /* \"#utility.yul\":7450:7538   */\n  mstore\n    /* \"#utility.yul\":7557:7561   */\n  0x32\n    /* \"#utility.yul\":7554:7555   */\n  0x04\n    /* \"#utility.yul\":7547:7562   */\n  mstore\n    /* \"#utility.yul\":7581:7585   */\n  0x24\n    /* \"#utility.yul\":7578:7579   */\n  0x00\n    /* \"#utility.yul\":7571:7586   */\n  revert\n    /* \"#utility.yul\":7598:7754   */\ntag_57:\n    /* \"#utility.yul\":7738:7746   */\n  0x4451353030330000000000000000000000000000000000000000000000000000\n    /* \"#utility.yul\":7734:7735   */\n  0x00\n    /* \"#utility.yul\":7726:7732   */\n  dup3\n    /* \"#utility.yul\":7722:7736   */\n  add\n    /* \"#utility.yul\":7715:7747   */\n  mstore\n    /* \"#utility.yul\":7598:7754   */\n  pop\n  jump\t// out\n    /* \"#utility.yul\":7760:8125   */\ntag_58:\n    /* \"#utility.yul\":7902:7905   */\n  0x00\n    /* \"#utility.yul\":7923:7989   */\n  tag_133\n    /* \"#utility.yul\":7987:7988   */\n  0x06\n    /* \"#utility.yul\":7982:7985   */\n  dup4\n    /* \"#utility.yul\":7923:7989   */\n  tag_50\n  jump\t// in\ntag_133:\n    /* \"#utility.yul\":7916:7989   */\n  swap2\n  pop\n    /* \"#utility.yul\":7998:8091   */\n  tag_134\n    /* \"#utility.yul\":8087:8090   */\n  dup3\n    /* \"#utility.yul\":7998:8091   */\n  tag_57\n  jump\t// in\ntag_134:\n    /* \"#utility.yul\":8116:8118   */\n  0x20\n    /* \"#utility.yul\":8111:8114   */\n  dup3\n    /* \"#utility.yul\":8107:8119   */\n  add\n    /* \"#utility.yul\":8100:8119   */\n  swap1\n  pop\n    /* \"#utility.yul\":7760:8125   */\n  swap2\n  swap1\n  pop\n  jump\t// out\n    /* \"#utility.yul\":8131:8550   */\ntag_29:\n    /* \"#utility.yul\":8297:8301   */\n  0x00\n    /* \"#utility.yul\":8335:8337   */\n  0x20\n    /* \"#utility.yul\":8324:8333   */\n  dup3\n    /* \"#utility.yul\":8320:8338   */\n  add\n    /* \"#utility.yul\":8312:8338   */\n  swap1\n  pop\n    /* \"#utility.yul\":8384:8393   */\n  dup2\n    /* \"#utility.yul\":8378:8382   */\n  dup2\n    /* \"#utility.yul\":8374:8394   */\n  sub\n    /* \"#utility.yul\":8370:8371   */\n  0x00\n    /* \"#utility.yul\":8359:8368   */\n  dup4\n    /* \"#utility.yul\":8355:8372   */\n  add\n    /* \"#utility.yul\":8348:8395   */\n  mstore\n    /* \"#utility.yul\":8412:8543   */\n  tag_136\n    /* \"#utility.yul\":8538:8542   */\n  dup2\n    /* \"#utility.yul\":8412:8543   */\n  tag_58\n  jump\t// in\ntag_136:\n    /* \"#utility.yul\":8404:8543   */\n  swap1\n  pop\n    /* \"#utility.yul\":8131:8550   */\n  swap2\n  swap1\n  pop\n  jump\t// out\n    /* \"L2/Task2/MultisigWallet.sol\":58:4141  contract MultisigWallet{... */\ntag_8:\n  dataSize(sub_0)\n  dup1\n  dataOffset(sub_0)\n  0x00\n  codecopy\n  0x00\n  return\nstop\n\nsub_0: assembly {\n        /* \"L2/Task2/MultisigWallet.sol\":58:4141  contract MultisigWallet{... */\n      mstore(0x40, 0x80)\n      callvalue\n      dup1\n      iszero\n      tag_1\n      jumpi\n      0x00\n      dup1\n      revert\n    tag_1:\n      pop\n      jumpi(tag_2, lt(calldatasize, 0x04))\n      shr(0xe0, calldataload(0x00))\n      dup1\n      0x42cde4e8\n      gt\n      tag_10\n      jumpi\n      dup1\n      0x42cde4e8\n      eq\n      tag_6\n      jumpi\n      dup1\n      0xa67dd509\n      eq\n      tag_7\n      jumpi\n      dup1\n      0xaffed0e0\n      eq\n      tag_8\n      jumpi\n      dup1\n      0xed516d51\n      eq\n      tag_9\n      jumpi\n      jump(tag_2)\n    tag_10:\n      dup1\n      0x025e7c27\n      eq\n      tag_3\n      jumpi\n      dup1\n      0x0db02622\n      eq\n      tag_4\n      jumpi\n      dup1\n      0x2f54bf6e\n      eq\n      tag_5\n      jumpi\n    tag_2:\n      0x00\n      dup1\n      revert\n        /* \"L2/Task2/MultisigWallet.sol\":89:112  address[] public owners */\n    tag_3:\n      tag_11\n      0x04\n      dup1\n      calldatasize\n      sub\n      dup2\n      add\n      swap1\n      tag_12\n      swap2\n      swap1\n      tag_13\n      jump\t// in\n    tag_12:\n      tag_14\n      jump\t// in\n    tag_11:\n      mload(0x40)\n      tag_15\n      swap2\n      swap1\n      tag_16\n      jump\t// in\n    tag_15:\n      mload(0x40)\n      dup1\n      swap2\n      sub\n      swap1\n      return\n        /* \"L2/Task2/MultisigWallet.sol\":255:280  uint256 public ownerCount */\n    tag_4:\n      tag_17\n      tag_18\n      jump\t// in\n    tag_17:\n      mload(0x40)\n      tag_19\n      swap2\n      swap1\n      tag_20\n      jump\t// in\n    tag_19:\n      mload(0x40)\n      dup1\n      swap2\n      sub\n      swap1\n      return\n        /* \"L2/Task2/MultisigWallet.sol\":162:201  mapping(address => bool) public isOwner */\n    tag_5:\n      tag_21\n      0x04\n      dup1\n      calldatasize\n      sub\n      dup2\n      add\n      swap1\n      tag_22\n      swap2\n      swap1\n      tag_23\n      jump\t// in\n    tag_22:\n      tag_24\n      jump\t// in\n    tag_21:\n      mload(0x40)\n      tag_25\n      swap2\n      swap1\n      tag_26\n      jump\t// in\n    tag_25:\n      mload(0x40)\n      dup1\n      swap2\n      sub\n      swap1\n      return\n        /* \"L2/Task2/MultisigWallet.sol\":327:351  uint256 public threshold */\n    tag_6:\n      tag_27\n      tag_28\n      jump\t// in\n    tag_27:\n      mload(0x40)\n      tag_29\n      swap2\n      swap1\n      tag_20\n      jump\t// in\n    tag_29:\n      mload(0x40)\n      dup1\n      swap2\n      sub\n      swap1\n      return\n        /* \"L2/Task2/MultisigWallet.sol\":3730:4135  function encodeTransactionData(... */\n    tag_7:\n      tag_30\n      0x04\n      dup1\n      calldatasize\n      sub\n      dup2\n      add\n      swap1\n      tag_31\n      swap2\n      swap1\n      tag_32\n      jump\t// in\n    tag_31:\n      tag_33\n      jump\t// in\n    tag_30:\n      mload(0x40)\n      tag_34\n      swap2\n      swap1\n      tag_35\n      jump\t// in\n    tag_34:\n      mload(0x40)\n      dup1\n      swap2\n      sub\n      swap1\n      return\n        /* \"L2/Task2/MultisigWallet.sol\":451:471  uint256 public nonce */\n    tag_8:\n      tag_36\n      tag_37\n      jump\t// in\n    tag_36:\n      mload(0x40)\n      tag_38\n      swap2\n      swap1\n      tag_20\n      jump\t// in\n    tag_38:\n      mload(0x40)\n      dup1\n      swap2\n      sub\n      swap1\n      return\n        /* \"L2/Task2/MultisigWallet.sol\":1804:2901  function checkSignatures(... */\n    tag_9:\n      tag_39\n      0x04\n      dup1\n      calldatasize\n      sub\n      dup2\n      add\n      swap1\n      tag_40\n      swap2\n      swap1\n      tag_41\n      jump\t// in\n    tag_40:\n      tag_42\n      jump\t// in\n    tag_39:\n      stop\n        /* \"L2/Task2/MultisigWallet.sol\":89:112  address[] public owners */\n    tag_14:\n      0x00\n      dup2\n      dup2\n      sload\n      dup2\n      lt\n      tag_43\n      jumpi\n      0x00\n      dup1\n      revert\n    tag_43:\n      swap1\n      0x00\n      mstore\n      keccak256(0x00, 0x20)\n      add\n      0x00\n      swap2\n      pop\n      sload\n      swap1\n      0x0100\n      exp\n      swap1\n      div\n      0xffffffffffffffffffffffffffffffffffffffff\n      and\n      dup2\n      jump\t// out\n        /* \"L2/Task2/MultisigWallet.sol\":255:280  uint256 public ownerCount */\n    tag_18:\n      sload(0x02)\n      dup2\n      jump\t// out\n        /* \"L2/Task2/MultisigWallet.sol\":162:201  mapping(address => bool) public isOwner */\n    tag_24:\n      mstore(0x20, 0x01)\n      dup1\n      0x00\n      mstore\n      keccak256(0x00, 0x40)\n      0x00\n      swap2\n      pop\n      sload\n      swap1\n      0x0100\n      exp\n      swap1\n      div\n      0xff\n      and\n      dup2\n      jump\t// out\n        /* \"L2/Task2/MultisigWallet.sol\":327:351  uint256 public threshold */\n    tag_28:\n      sload(0x03)\n      dup2\n      jump\t// out\n        /* \"L2/Task2/MultisigWallet.sol\":3730:4135  function encodeTransactionData(... */\n    tag_33:\n        /* \"L2/Task2/MultisigWallet.sol\":3883:3890  bytes32 */\n      0x00\n        /* \"L2/Task2/MultisigWallet.sol\":3898:3916  bytes32 safeTxHash */\n      dup1\n        /* \"L2/Task2/MultisigWallet.sol\":3978:3980  to */\n      dup7\n        /* \"L2/Task2/MultisigWallet.sol\":3998:4003  value */\n      dup7\n        /* \"L2/Task2/MultisigWallet.sol\":4031:4035  data */\n      dup7\n        /* \"L2/Task2/MultisigWallet.sol\":4021:4036  keccak256(data) */\n      dup1\n      mload\n      swap1\n      0x20\n      add\n      keccak256\n        /* \"L2/Task2/MultisigWallet.sol\":4054:4060  _nonce */\n      dup7\n        /* \"L2/Task2/MultisigWallet.sol\":4078:4085  chainid */\n      dup7\n        /* \"L2/Task2/MultisigWallet.sol\":3950:4099  abi.encode(... */\n      add(0x20, mload(0x40))\n      tag_46\n      swap6\n      swap5\n      swap4\n      swap3\n      swap2\n      swap1\n      tag_47\n      jump\t// in\n    tag_46:\n      mload(0x40)\n      0x20\n      dup2\n      dup4\n      sub\n      sub\n      dup2\n      mstore\n      swap1\n      0x40\n      mstore\n        /* \"L2/Task2/MultisigWallet.sol\":3927:4109  keccak256(... */\n      dup1\n      mload\n      swap1\n      0x20\n      add\n      keccak256\n        /* \"L2/Task2/MultisigWallet.sol\":3898:4109  bytes32 safeTxHash =... */\n      swap1\n      pop\n        /* \"L2/Task2/MultisigWallet.sol\":4122:4132  safeTxHash */\n      dup1\n        /* \"L2/Task2/MultisigWallet.sol\":4115:4132  return safeTxHash */\n      swap2\n      pop\n      pop\n        /* \"L2/Task2/MultisigWallet.sol\":3730:4135  function encodeTransactionData(... */\n      swap6\n      swap5\n      pop\n      pop\n      pop\n      pop\n      pop\n      jump\t// out\n        /* \"L2/Task2/MultisigWallet.sol\":451:471  uint256 public nonce */\n    tag_37:\n      sload(0x04)\n      dup2\n      jump\t// out\n        /* \"L2/Task2/MultisigWallet.sol\":1804:2901  function checkSignatures(... */\n    tag_42:\n        /* \"L2/Task2/MultisigWallet.sol\":1932:1950  uint256 _threshold */\n      0x00\n        /* \"L2/Task2/MultisigWallet.sol\":1953:1962  threshold */\n      sload(0x03)\n        /* \"L2/Task2/MultisigWallet.sol\":1932:1962  uint256 _threshold = threshold */\n      swap1\n      pop\n        /* \"L2/Task2/MultisigWallet.sol\":1989:1990  0 */\n      0x00\n        /* \"L2/Task2/MultisigWallet.sol\":1976:1986  _threshold */\n      dup2\n        /* \"L2/Task2/MultisigWallet.sol\":1976:1990  _threshold > 0 */\n      gt\n        /* \"L2/Task2/MultisigWallet.sol\":1968:2001  require(_threshold > 0, \"DQ5005\") */\n      tag_49\n      jumpi\n      mload(0x40)\n      0x08c379a000000000000000000000000000000000000000000000000000000000\n      dup2\n      mstore\n      0x04\n      add\n      tag_50\n      swap1\n      tag_51\n      jump\t// in\n    tag_50:\n      mload(0x40)\n      dup1\n      swap2\n      sub\n      swap1\n      revert\n    tag_49:\n        /* \"L2/Task2/MultisigWallet.sol\":2085:2087  65 */\n      0x41\n        /* \"L2/Task2/MultisigWallet.sol\":2072:2082  _threshold */\n      dup2\n        /* \"L2/Task2/MultisigWallet.sol\":2072:2087  _threshold * 65 */\n      tag_52\n      swap2\n      swap1\n      tag_53\n      jump\t// in\n    tag_52:\n        /* \"L2/Task2/MultisigWallet.sol\":2051:2061  signatures */\n      dup3\n        /* \"L2/Task2/MultisigWallet.sol\":2051:2068  signatures.length */\n      mload\n        /* \"L2/Task2/MultisigWallet.sol\":2051:2087  signatures.length >= _threshold * 65 */\n      lt\n      iszero\n        /* \"L2/Task2/MultisigWallet.sol\":2043:2098  require(signatures.length >= _threshold * 65, \"DQ5006\") */\n      tag_54\n      jumpi\n      mload(0x40)\n      0x08c379a000000000000000000000000000000000000000000000000000000000\n      dup2\n      mstore\n      0x04\n      add\n      tag_55\n      swap1\n      tag_56\n      jump\t// in\n    tag_55:\n      mload(0x40)\n      dup1\n      swap2\n      sub\n      swap1\n      revert\n    tag_54:\n        /* \"L2/Task2/MultisigWallet.sol\":2406:2423  address lastOwner */\n      0x00\n        /* \"L2/Task2/MultisigWallet.sol\":2443:2463  address currentOwner */\n      dup1\n        /* \"L2/Task2/MultisigWallet.sol\":2469:2476  uint8 v */\n      dup1\n        /* \"L2/Task2/MultisigWallet.sol\":2482:2491  bytes32 r */\n      0x00\n        /* \"L2/Task2/MultisigWallet.sol\":2497:2506  bytes32 s */\n      dup1\n        /* \"L2/Task2/MultisigWallet.sol\":2512:2521  uint256 i */\n      0x00\n        /* \"L2/Task2/MultisigWallet.sol\":2527:2899  for (i = 0; i < _threshold; i++) {... */\n    tag_57:\n        /* \"L2/Task2/MultisigWallet.sol\":2543:2553  _threshold */\n      dup7\n        /* \"L2/Task2/MultisigWallet.sol\":2539:2540  i */\n      dup2\n        /* \"L2/Task2/MultisigWallet.sol\":2539:2553  i < _threshold */\n      lt\n        /* \"L2/Task2/MultisigWallet.sol\":2527:2899  for (i = 0; i < _threshold; i++) {... */\n      iszero\n      tag_58\n      jumpi\n        /* \"L2/Task2/MultisigWallet.sol\":2582:2611  signatureSplit(signatures, i) */\n      tag_60\n        /* \"L2/Task2/MultisigWallet.sol\":2597:2607  signatures */\n      dup9\n        /* \"L2/Task2/MultisigWallet.sol\":2609:2610  i */\n      dup3\n        /* \"L2/Task2/MultisigWallet.sol\":2582:2596  signatureSplit */\n      tag_61\n        /* \"L2/Task2/MultisigWallet.sol\":2582:2611  signatureSplit(signatures, i) */\n      jump\t// in\n    tag_60:\n        /* \"L2/Task2/MultisigWallet.sol\":2570:2611  (v, r, s) = signatureSplit(signatures, i) */\n      dup1\n      swap5\n      pop\n      dup2\n      swap6\n      pop\n      dup3\n      swap7\n      pop\n      pop\n      pop\n      pop\n        /* \"L2/Task2/MultisigWallet.sol\":2687:2780  ecrecover(keccak256(abi.encodePacked(\"\\x19Ethereum Signed Message:\\n32\", dataHash)), v, r, s) */\n      0x01\n        /* \"L2/Task2/MultisigWallet.sol\":2760:2768  dataHash */\n      dup10\n        /* \"L2/Task2/MultisigWallet.sol\":2707:2769  abi.encodePacked(\"\\x19Ethereum Signed Message:\\n32\", dataHash) */\n      add(0x20, mload(0x40))\n      tag_62\n      swap2\n      swap1\n      tag_63\n      jump\t// in\n    tag_62:\n      mload(0x40)\n      0x20\n      dup2\n      dup4\n      sub\n      sub\n      dup2\n      mstore\n      swap1\n      0x40\n      mstore\n        /* \"L2/Task2/MultisigWallet.sol\":2697:2770  keccak256(abi.encodePacked(\"\\x19Ethereum Signed Message:\\n32\", dataHash)) */\n      dup1\n      mload\n      swap1\n      0x20\n      add\n      keccak256\n        /* \"L2/Task2/MultisigWallet.sol\":2772:2773  v */\n      dup6\n        /* \"L2/Task2/MultisigWallet.sol\":2775:2776  r */\n      dup6\n        /* \"L2/Task2/MultisigWallet.sol\":2778:2779  s */\n      dup6\n        /* \"L2/Task2/MultisigWallet.sol\":2687:2780  ecrecover(keccak256(abi.encodePacked(\"\\x19Ethereum Signed Message:\\n32\", dataHash)), v, r, s) */\n      mload(0x40)\n      0x00\n      dup2\n      mstore\n      0x20\n      add\n      0x40\n      mstore\n      mload(0x40)\n      tag_64\n      swap5\n      swap4\n      swap3\n      swap2\n      swap1\n      tag_65\n      jump\t// in\n    tag_64:\n      0x20\n      mload(0x40)\n      0x20\n      dup2\n      sub\n      swap1\n      dup1\n      dup5\n      sub\n      swap1\n      dup6\n      gas\n      staticcall\n      iszero\n      dup1\n      iszero\n      tag_67\n      jumpi\n      returndatasize\n      0x00\n      dup1\n      returndatacopy\n      revert(0x00, returndatasize)\n    tag_67:\n      pop\n      pop\n      pop\n      mload(sub(mload(0x40), 0x20))\n        /* \"L2/Task2/MultisigWallet.sol\":2672:2780  currentOwner = ecrecover(keccak256(abi.encodePacked(\"\\x19Ethereum Signed Message:\\n32\", dataHash)), v, r, s) */\n      swap5\n      pop\n        /* \"L2/Task2/MultisigWallet.sol\":2813:2822  lastOwner */\n      dup6\n        /* \"L2/Task2/MultisigWallet.sol\":2798:2822  currentOwner > lastOwner */\n      0xffffffffffffffffffffffffffffffffffffffff\n      and\n        /* \"L2/Task2/MultisigWallet.sol\":2798:2810  currentOwner */\n      dup6\n        /* \"L2/Task2/MultisigWallet.sol\":2798:2822  currentOwner > lastOwner */\n      0xffffffffffffffffffffffffffffffffffffffff\n      and\n      gt\n        /* \"L2/Task2/MultisigWallet.sol\":2798:2847  currentOwner > lastOwner && isOwner[currentOwner] */\n      dup1\n      iszero\n      tag_68\n      jumpi\n      pop\n        /* \"L2/Task2/MultisigWallet.sol\":2826:2833  isOwner */\n      0x01\n        /* \"L2/Task2/MultisigWallet.sol\":2826:2847  isOwner[currentOwner] */\n      0x00\n        /* \"L2/Task2/MultisigWallet.sol\":2834:2846  currentOwner */\n      dup7\n        /* \"L2/Task2/MultisigWallet.sol\":2826:2847  isOwner[currentOwner] */\n      0xffffffffffffffffffffffffffffffffffffffff\n      and\n      0xffffffffffffffffffffffffffffffffffffffff\n      and\n      dup2\n      mstore\n      0x20\n      add\n      swap1\n      dup2\n      mstore\n      0x20\n      add\n      0x00\n      keccak256\n      0x00\n      swap1\n      sload\n      swap1\n      0x0100\n      exp\n      swap1\n      div\n      0xff\n      and\n        /* \"L2/Task2/MultisigWallet.sol\":2798:2847  currentOwner > lastOwner && isOwner[currentOwner] */\n    tag_68:\n        /* \"L2/Task2/MultisigWallet.sol\":2790:2858  require(currentOwner > lastOwner && isOwner[currentOwner], \"DQ5007\") */\n      tag_69\n      jumpi\n      mload(0x40)\n      0x08c379a000000000000000000000000000000000000000000000000000000000\n      dup2\n      mstore\n      0x04\n      add\n      tag_70\n      swap1\n      tag_71\n      jump\t// in\n    tag_70:\n      mload(0x40)\n      dup1\n      swap2\n      sub\n      swap1\n      revert\n    tag_69:\n        /* \"L2/Task2/MultisigWallet.sol\":2880:2892  currentOwner */\n      dup5\n        /* \"L2/Task2/MultisigWallet.sol\":2868:2892  lastOwner = currentOwner */\n      swap6\n      pop\n        /* \"L2/Task2/MultisigWallet.sol\":2555:2558  i++ */\n      dup1\n      dup1\n      0x01\n      add\n      swap2\n      pop\n      pop\n        /* \"L2/Task2/MultisigWallet.sol\":2527:2899  for (i = 0; i < _threshold; i++) {... */\n      jump(tag_57)\n    tag_58:\n        /* \"L2/Task2/MultisigWallet.sol\":1894:2901  {... */\n      pop\n      pop\n      pop\n      pop\n      pop\n      pop\n      pop\n        /* \"L2/Task2/MultisigWallet.sol\":1804:2901  function checkSignatures(... */\n      pop\n      pop\n      jump\t// out\n        /* \"L2/Task2/MultisigWallet.sol\":3028:3504  function signatureSplit(bytes memory signatures, uint256 pos)... */\n    tag_61:\n        /* \"L2/Task2/MultisigWallet.sol\":3134:3141  uint8 v */\n      0x00\n        /* \"L2/Task2/MultisigWallet.sol\":3151:3160  bytes32 r */\n      dup1\n        /* \"L2/Task2/MultisigWallet.sol\":3170:3179  bytes32 s */\n      0x00\n        /* \"L2/Task2/MultisigWallet.sol\":3298:3301  pos */\n      dup4\n        /* \"L2/Task2/MultisigWallet.sol\":3292:3296  0x41 */\n      0x41\n        /* \"L2/Task2/MultisigWallet.sol\":3288:3302  mul(0x41, pos) */\n      mul\n        /* \"L2/Task2/MultisigWallet.sol\":3356:3360  0x20 */\n      0x20\n        /* \"L2/Task2/MultisigWallet.sol\":3342:3354  signaturePos */\n      dup2\n        /* \"L2/Task2/MultisigWallet.sol\":3338:3361  add(signaturePos, 0x20) */\n      add\n        /* \"L2/Task2/MultisigWallet.sol\":3326:3336  signatures */\n      dup7\n        /* \"L2/Task2/MultisigWallet.sol\":3322:3362  add(signatures, add(signaturePos, 0x20)) */\n      add\n        /* \"L2/Task2/MultisigWallet.sol\":3316:3363  mload(add(signatures, add(signaturePos, 0x20))) */\n      mload\n        /* \"L2/Task2/MultisigWallet.sol\":3311:3363  r := mload(add(signatures, add(signaturePos, 0x20))) */\n      swap3\n      pop\n        /* \"L2/Task2/MultisigWallet.sol\":3417:3421  0x40 */\n      0x40\n        /* \"L2/Task2/MultisigWallet.sol\":3403:3415  signaturePos */\n      dup2\n        /* \"L2/Task2/MultisigWallet.sol\":3399:3422  add(signaturePos, 0x40) */\n      add\n        /* \"L2/Task2/MultisigWallet.sol\":3387:3397  signatures */\n      dup7\n        /* \"L2/Task2/MultisigWallet.sol\":3383:3423  add(signatures, add(signaturePos, 0x40)) */\n      add\n        /* \"L2/Task2/MultisigWallet.sol\":3377:3424  mload(add(signatures, add(signaturePos, 0x40))) */\n      mload\n        /* \"L2/Task2/MultisigWallet.sol\":3372:3424  s := mload(add(signatures, add(signaturePos, 0x40))) */\n      swap2\n      pop\n        /* \"L2/Task2/MultisigWallet.sol\":3491:3495  0xff */\n      0xff\n        /* \"L2/Task2/MultisigWallet.sol\":3482:3486  0x41 */\n      0x41\n        /* \"L2/Task2/MultisigWallet.sol\":3468:3480  signaturePos */\n      dup3\n        /* \"L2/Task2/MultisigWallet.sol\":3464:3487  add(signaturePos, 0x41) */\n      add\n        /* \"L2/Task2/MultisigWallet.sol\":3452:3462  signatures */\n      dup8\n        /* \"L2/Task2/MultisigWallet.sol\":3448:3488  add(signatures, add(signaturePos, 0x41)) */\n      add\n        /* \"L2/Task2/MultisigWallet.sol\":3442:3489  mload(add(signatures, add(signaturePos, 0x41))) */\n      mload\n        /* \"L2/Task2/MultisigWallet.sol\":3438:3496  and(mload(add(signatures, add(signaturePos, 0x41))), 0xff) */\n      and\n        /* \"L2/Task2/MultisigWallet.sol\":3433:3496  v := and(mload(add(signatures, add(signaturePos, 0x41))), 0xff) */\n      swap4\n      pop\n        /* \"L2/Task2/MultisigWallet.sol\":3258:3502  {... */\n      pop\n        /* \"L2/Task2/MultisigWallet.sol\":3028:3504  function signatureSplit(bytes memory signatures, uint256 pos)... */\n      swap3\n      pop\n      swap3\n      pop\n      swap3\n      jump\t// out\n        /* \"#utility.yul\":7:82   */\n    tag_73:\n        /* \"#utility.yul\":40:46   */\n      0x00\n        /* \"#utility.yul\":73:75   */\n      0x40\n        /* \"#utility.yul\":67:76   */\n      mload\n        /* \"#utility.yul\":57:76   */\n      swap1\n      pop\n        /* \"#utility.yul\":7:82   */\n      swap1\n      jump\t// out\n        /* \"#utility.yul\":88:205   */\n    tag_74:\n        /* \"#utility.yul\":197:198   */\n      0x00\n        /* \"#utility.yul\":194:195   */\n      dup1\n        /* \"#utility.yul\":187:199   */\n      revert\n        /* \"#utility.yul\":211:328   */\n    tag_75:\n        /* \"#utility.yul\":320:321   */\n      0x00\n        /* \"#utility.yul\":317:318   */\n      dup1\n        /* \"#utility.yul\":310:322   */\n      revert\n        /* \"#utility.yul\":334:411   */\n    tag_76:\n        /* \"#utility.yul\":371:378   */\n      0x00\n        /* \"#utility.yul\":400:405   */\n      dup2\n        /* \"#utility.yul\":389:405   */\n      swap1\n      pop\n        /* \"#utility.yul\":334:411   */\n      swap2\n      swap1\n      pop\n      jump\t// out\n        /* \"#utility.yul\":417:539   */\n    tag_77:\n        /* \"#utility.yul\":490:514   */\n      tag_122\n        /* \"#utility.yul\":508:513   */\n      dup2\n        /* \"#utility.yul\":490:514   */\n      tag_76\n      jump\t// in\n    tag_122:\n        /* \"#utility.yul\":483:488   */\n      dup2\n        /* \"#utility.yul\":480:515   */\n      eq\n        /* \"#utility.yul\":470:533   */\n      tag_123\n      jumpi\n        /* \"#utility.yul\":529:530   */\n      0x00\n        /* \"#utility.yul\":526:527   */\n      dup1\n        /* \"#utility.yul\":519:531   */\n      revert\n        /* \"#utility.yul\":470:533   */\n    tag_123:\n        /* \"#utility.yul\":417:539   */\n      pop\n      jump\t// out\n        /* \"#utility.yul\":545:684   */\n    tag_78:\n        /* \"#utility.yul\":591:596   */\n      0x00\n        /* \"#utility.yul\":629:635   */\n      dup2\n        /* \"#utility.yul\":616:636   */\n      calldataload\n        /* \"#utility.yul\":607:636   */\n      swap1\n      pop\n        /* \"#utility.yul\":645:678   */\n      tag_125\n        /* \"#utility.yul\":672:677   */\n      dup2\n        /* \"#utility.yul\":645:678   */\n      tag_77\n      jump\t// in\n    tag_125:\n        /* \"#utility.yul\":545:684   */\n      swap3\n      swap2\n      pop\n      pop\n      jump\t// out\n        /* \"#utility.yul\":690:1019   */\n    tag_13:\n        /* \"#utility.yul\":749:755   */\n      0x00\n        /* \"#utility.yul\":798:800   */\n      0x20\n        /* \"#utility.yul\":786:795   */\n      dup3\n        /* \"#utility.yul\":777:784   */\n      dup5\n        /* \"#utility.yul\":773:796   */\n      sub\n        /* \"#utility.yul\":769:801   */\n      slt\n        /* \"#utility.yul\":766:885   */\n      iszero\n      tag_127\n      jumpi\n        /* \"#utility.yul\":804:883   */\n      tag_128\n      tag_74\n      jump\t// in\n    tag_128:\n        /* \"#utility.yul\":766:885   */\n    tag_127:\n        /* \"#utility.yul\":924:925   */\n      0x00\n        /* \"#utility.yul\":949:1002   */\n      tag_129\n        /* \"#utility.yul\":994:1001   */\n      dup5\n        /* \"#utility.yul\":985:991   */\n      dup3\n        /* \"#utility.yul\":974:983   */\n      dup6\n        /* \"#utility.yul\":970:992   */\n      add\n        /* \"#utility.yul\":949:1002   */\n      tag_78\n      jump\t// in\n    tag_129:\n        /* \"#utility.yul\":939:1002   */\n      swap2\n      pop\n        /* \"#utility.yul\":895:1012   */\n      pop\n        /* \"#utility.yul\":690:1019   */\n      swap3\n      swap2\n      pop\n      pop\n      jump\t// out\n        /* \"#utility.yul\":1025:1151   */\n    tag_79:\n        /* \"#utility.yul\":1062:1069   */\n      0x00\n        /* \"#utility.yul\":1102:1144   */\n      0xffffffffffffffffffffffffffffffffffffffff\n        /* \"#utility.yul\":1095:1100   */\n      dup3\n        /* \"#utility.yul\":1091:1145   */\n      and\n        /* \"#utility.yul\":1080:1145   */\n      swap1\n      pop\n        /* \"#utility.yul\":1025:1151   */\n      swap2\n      swap1\n      pop\n      jump\t// out\n        /* \"#utility.yul\":1157:1253   */\n    tag_80:\n        /* \"#utility.yul\":1194:1201   */\n      0x00\n        /* \"#utility.yul\":1223:1247   */\n      tag_132\n        /* \"#utility.yul\":1241:1246   */\n      dup3\n        /* \"#utility.yul\":1223:1247   */\n      tag_79\n      jump\t// in\n    tag_132:\n        /* \"#utility.yul\":1212:1247   */\n      swap1\n      pop\n        /* \"#utility.yul\":1157:1253   */\n      swap2\n      swap1\n      pop\n      jump\t// out\n        /* \"#utility.yul\":1259:1377   */\n    tag_81:\n        /* \"#utility.yul\":1346:1370   */\n      tag_134\n        /* \"#utility.yul\":1364:1369   */\n      dup2\n        /* \"#utility.yul\":1346:1370   */\n      tag_80\n      jump\t// in\n    tag_134:\n        /* \"#utility.yul\":1341:1344   */\n      dup3\n        /* \"#utility.yul\":1334:1371   */\n      mstore\n        /* \"#utility.yul\":1259:1377   */\n      pop\n      pop\n      jump\t// out\n        /* \"#utility.yul\":1383:1605   */\n    tag_16:\n        /* \"#utility.yul\":1476:1480   */\n      0x00\n        /* \"#utility.yul\":1514:1516   */\n      0x20\n        /* \"#utility.yul\":1503:1512   */\n      dup3\n        /* \"#utility.yul\":1499:1517   */\n      add\n        /* \"#utility.yul\":1491:1517   */\n      swap1\n      pop\n        /* \"#utility.yul\":1527:1598   */\n      tag_136\n        /* \"#utility.yul\":1595:1596   */\n      0x00\n        /* \"#utility.yul\":1584:1593   */\n      dup4\n        /* \"#utility.yul\":1580:1597   */\n      add\n        /* \"#utility.yul\":1571:1577   */\n      dup5\n        /* \"#utility.yul\":1527:1598   */\n      tag_81\n      jump\t// in\n    tag_136:\n        /* \"#utility.yul\":1383:1605   */\n      swap3\n      swap2\n      pop\n      pop\n      jump\t// out\n        /* \"#utility.yul\":1611:1729   */\n    tag_82:\n        /* \"#utility.yul\":1698:1722   */\n      tag_138\n        /* \"#utility.yul\":1716:1721   */\n      dup2\n        /* \"#utility.yul\":1698:1722   */\n      tag_76\n      jump\t// in\n    tag_138:\n        /* \"#utility.yul\":1693:1696   */\n      dup3\n        /* \"#utility.yul\":1686:1723   */\n      mstore\n        /* \"#utility.yul\":1611:1729   */\n      pop\n      pop\n      jump\t// out\n        /* \"#utility.yul\":1735:1957   */\n    tag_20:\n        /* \"#utility.yul\":1828:1832   */\n      0x00\n        /* \"#utility.yul\":1866:1868   */\n      0x20\n        /* \"#utility.yul\":1855:1864   */\n      dup3\n        /* \"#utility.yul\":1851:1869   */\n      add\n        /* \"#utility.yul\":1843:1869   */\n      swap1\n      pop\n        /* \"#utility.yul\":1879:1950   */\n      tag_140\n        /* \"#utility.yul\":1947:1948   */\n      0x00\n        /* \"#utility.yul\":1936:1945   */\n      dup4\n        /* \"#utility.yul\":1932:1949   */\n      add\n        /* \"#utility.yul\":1923:1929   */\n      dup5\n        /* \"#utility.yul\":1879:1950   */\n      tag_82\n      jump\t// in\n    tag_140:\n        /* \"#utility.yul\":1735:1957   */\n      swap3\n      swap2\n      pop\n      pop\n      jump\t// out\n        /* \"#utility.yul\":1963:2085   */\n    tag_83:\n        /* \"#utility.yul\":2036:2060   */\n      tag_142\n        /* \"#utility.yul\":2054:2059   */\n      dup2\n        /* \"#utility.yul\":2036:2060   */\n      tag_80\n      jump\t// in\n    tag_142:\n        /* \"#utility.yul\":2029:2034   */\n      dup2\n        /* \"#utility.yul\":2026:2061   */\n      eq\n        /* \"#utility.yul\":2016:2079   */\n      tag_143\n      jumpi\n        /* \"#utility.yul\":2075:2076   */\n      0x00\n        /* \"#utility.yul\":2072:2073   */\n      dup1\n        /* \"#utility.yul\":2065:2077   */\n      revert\n        /* \"#utility.yul\":2016:2079   */\n    tag_143:\n        /* \"#utility.yul\":1963:2085   */\n      pop\n      jump\t// out\n        /* \"#utility.yul\":2091:2230   */\n    tag_84:\n        /* \"#utility.yul\":2137:2142   */\n      0x00\n        /* \"#utility.yul\":2175:2181   */\n      dup2\n        /* \"#utility.yul\":2162:2182   */\n      calldataload\n        /* \"#utility.yul\":2153:2182   */\n      swap1\n      pop\n        /* \"#utility.yul\":2191:2224   */\n      tag_145\n        /* \"#utility.yul\":2218:2223   */\n      dup2\n        /* \"#utility.yul\":2191:2224   */\n      tag_83\n      jump\t// in\n    tag_145:\n        /* \"#utility.yul\":2091:2230   */\n      swap3\n      swap2\n      pop\n      pop\n      jump\t// out\n        /* \"#utility.yul\":2236:2565   */\n    tag_23:\n        /* \"#utility.yul\":2295:2301   */\n      0x00\n        /* \"#utility.yul\":2344:2346   */\n      0x20\n        /* \"#utility.yul\":2332:2341   */\n      dup3\n        /* \"#utility.yul\":2323:2330   */\n      dup5\n        /* \"#utility.yul\":2319:2342   */\n      sub\n        /* \"#utility.yul\":2315:2347   */\n      slt\n        /* \"#utility.yul\":2312:2431   */\n      iszero\n      tag_147\n      jumpi\n        /* \"#utility.yul\":2350:2429   */\n      tag_148\n      tag_74\n      jump\t// in\n    tag_148:\n        /* \"#utility.yul\":2312:2431   */\n    tag_147:\n        /* \"#utility.yul\":2470:2471   */\n      0x00\n        /* \"#utility.yul\":2495:2548   */\n      tag_149\n        /* \"#utility.yul\":2540:2547   */\n      dup5\n        /* \"#utility.yul\":2531:2537   */\n      dup3\n        /* \"#utility.yul\":2520:2529   */\n      dup6\n        /* \"#utility.yul\":2516:2538   */\n      add\n        /* \"#utility.yul\":2495:2548   */\n      tag_84\n      jump\t// in\n    tag_149:\n        /* \"#utility.yul\":2485:2548   */\n      swap2\n      pop\n        /* \"#utility.yul\":2441:2558   */\n      pop\n        /* \"#utility.yul\":2236:2565   */\n      swap3\n      swap2\n      pop\n      pop\n      jump\t// out\n        /* \"#utility.yul\":2571:2661   */\n    tag_85:\n        /* \"#utility.yul\":2605:2612   */\n      0x00\n        /* \"#utility.yul\":2648:2653   */\n      dup2\n        /* \"#utility.yul\":2641:2654   */\n      iszero\n        /* \"#utility.yul\":2634:2655   */\n      iszero\n        /* \"#utility.yul\":2623:2655   */\n      swap1\n      pop\n        /* \"#utility.yul\":2571:2661   */\n      swap2\n      swap1\n      pop\n      jump\t// out\n        /* \"#utility.yul\":2667:2776   */\n    tag_86:\n        /* \"#utility.yul\":2748:2769   */\n      tag_152\n        /* \"#utility.yul\":2763:2768   */\n      dup2\n        /* \"#utility.yul\":2748:2769   */\n      tag_85\n      jump\t// in\n    tag_152:\n        /* \"#utility.yul\":2743:2746   */\n      dup3\n        /* \"#utility.yul\":2736:2770   */\n      mstore\n        /* \"#utility.yul\":2667:2776   */\n      pop\n      pop\n      jump\t// out\n        /* \"#utility.yul\":2782:2992   */\n    tag_26:\n        /* \"#utility.yul\":2869:2873   */\n      0x00\n        /* \"#utility.yul\":2907:2909   */\n      0x20\n        /* \"#utility.yul\":2896:2905   */\n      dup3\n        /* \"#utility.yul\":2892:2910   */\n      add\n        /* \"#utility.yul\":2884:2910   */\n      swap1\n      pop\n        /* \"#utility.yul\":2920:2985   */\n      tag_154\n        /* \"#utility.yul\":2982:2983   */\n      0x00\n        /* \"#utility.yul\":2971:2980   */\n      dup4\n        /* \"#utility.yul\":2967:2984   */\n      add\n        /* \"#utility.yul\":2958:2964   */\n      dup5\n        /* \"#utility.yul\":2920:2985   */\n      tag_86\n      jump\t// in\n    tag_154:\n        /* \"#utility.yul\":2782:2992   */\n      swap3\n      swap2\n      pop\n      pop\n      jump\t// out\n        /* \"#utility.yul\":2998:3115   */\n    tag_87:\n        /* \"#utility.yul\":3107:3108   */\n      0x00\n        /* \"#utility.yul\":3104:3105   */\n      dup1\n        /* \"#utility.yul\":3097:3109   */\n      revert\n        /* \"#utility.yul\":3121:3238   */\n    tag_88:\n        /* \"#utility.yul\":3230:3231   */\n      0x00\n        /* \"#utility.yul\":3227:3228   */\n      dup1\n        /* \"#utility.yul\":3220:3232   */\n      revert\n        /* \"#utility.yul\":3244:3346   */\n    tag_89:\n        /* \"#utility.yul\":3285:3291   */\n      0x00\n        /* \"#utility.yul\":3336:3338   */\n      0x1f\n        /* \"#utility.yul\":3332:3339   */\n      not\n        /* \"#utility.yul\":3327:3329   */\n      0x1f\n        /* \"#utility.yul\":3320:3325   */\n      dup4\n        /* \"#utility.yul\":3316:3330   */\n      add\n        /* \"#utility.yul\":3312:3340   */\n      and\n        /* \"#utility.yul\":3302:3340   */\n      swap1\n      pop\n        /* \"#utility.yul\":3244:3346   */\n      swap2\n      swap1\n      pop\n      jump\t// out\n        /* \"#utility.yul\":3352:3532   */\n    tag_90:\n        /* \"#utility.yul\":3400:3477   */\n      0x4e487b7100000000000000000000000000000000000000000000000000000000\n        /* \"#utility.yul\":3397:3398   */\n      0x00\n        /* \"#utility.yul\":3390:3478   */\n      mstore\n        /* \"#utility.yul\":3497:3501   */\n      0x41\n        /* \"#utility.yul\":3494:3495   */\n      0x04\n        /* \"#utility.yul\":3487:3502   */\n      mstore\n        /* \"#utility.yul\":3521:3525   */\n      0x24\n        /* \"#utility.yul\":3518:3519   */\n      0x00\n        /* \"#utility.yul\":3511:3526   */\n      revert\n        /* \"#utility.yul\":3538:3819   */\n    tag_91:\n        /* \"#utility.yul\":3621:3648   */\n      tag_160\n        /* \"#utility.yul\":3643:3647   */\n      dup3\n        /* \"#utility.yul\":3621:3648   */\n      tag_89\n      jump\t// in\n    tag_160:\n        /* \"#utility.yul\":3613:3619   */\n      dup2\n        /* \"#utility.yul\":3609:3649   */\n      add\n        /* \"#utility.yul\":3751:3757   */\n      dup2\n        /* \"#utility.yul\":3739:3749   */\n      dup2\n        /* \"#utility.yul\":3736:3758   */\n      lt\n        /* \"#utility.yul\":3715:3733   */\n      0xffffffffffffffff\n        /* \"#utility.yul\":3703:3713   */\n      dup3\n        /* \"#utility.yul\":3700:3734   */\n      gt\n        /* \"#utility.yul\":3697:3759   */\n      or\n        /* \"#utility.yul\":3694:3782   */\n      iszero\n      tag_161\n      jumpi\n        /* \"#utility.yul\":3762:3780   */\n      tag_162\n      tag_90\n      jump\t// in\n    tag_162:\n        /* \"#utility.yul\":3694:3782   */\n    tag_161:\n        /* \"#utility.yul\":3802:3812   */\n      dup1\n        /* \"#utility.yul\":3798:3800   */\n      0x40\n        /* \"#utility.yul\":3791:3813   */\n      mstore\n        /* \"#utility.yul\":3581:3819   */\n      pop\n        /* \"#utility.yul\":3538:3819   */\n      pop\n      pop\n      jump\t// out\n        /* \"#utility.yul\":3825:3954   */\n    tag_92:\n        /* \"#utility.yul\":3859:3865   */\n      0x00\n        /* \"#utility.yul\":3886:3906   */\n      tag_164\n      tag_73\n      jump\t// in\n    tag_164:\n        /* \"#utility.yul\":3876:3906   */\n      swap1\n      pop\n        /* \"#utility.yul\":3915:3948   */\n      tag_165\n        /* \"#utility.yul\":3943:3947   */\n      dup3\n        /* \"#utility.yul\":3935:3941   */\n      dup3\n        /* \"#utility.yul\":3915:3948   */\n      tag_91\n      jump\t// in\n    tag_165:\n        /* \"#utility.yul\":3825:3954   */\n      swap2\n      swap1\n      pop\n      jump\t// out\n        /* \"#utility.yul\":3960:4267   */\n    tag_93:\n        /* \"#utility.yul\":4021:4025   */\n      0x00\n        /* \"#utility.yul\":4111:4129   */\n      0xffffffffffffffff\n        /* \"#utility.yul\":4103:4109   */\n      dup3\n        /* \"#utility.yul\":4100:4130   */\n      gt\n        /* \"#utility.yul\":4097:4153   */\n      iszero\n      tag_167\n      jumpi\n        /* \"#utility.yul\":4133:4151   */\n      tag_168\n      tag_90\n      jump\t// in\n    tag_168:\n        /* \"#utility.yul\":4097:4153   */\n    tag_167:\n        /* \"#utility.yul\":4171:4200   */\n      tag_169\n        /* \"#utility.yul\":4193:4199   */\n      dup3\n        /* \"#utility.yul\":4171:4200   */\n      tag_89\n      jump\t// in\n    tag_169:\n        /* \"#utility.yul\":4163:4200   */\n      swap1\n      pop\n        /* \"#utility.yul\":4255:4259   */\n      0x20\n        /* \"#utility.yul\":4249:4253   */\n      dup2\n        /* \"#utility.yul\":4245:4260   */\n      add\n        /* \"#utility.yul\":4237:4260   */\n      swap1\n      pop\n        /* \"#utility.yul\":3960:4267   */\n      swap2\n      swap1\n      pop\n      jump\t// out\n        /* \"#utility.yul\":4273:4421   */\n    tag_94:\n        /* \"#utility.yul\":4371:4377   */\n      dup3\n        /* \"#utility.yul\":4366:4369   */\n      dup2\n        /* \"#utility.yul\":4361:4364   */\n      dup4\n        /* \"#utility.yul\":4348:4378   */\n      calldatacopy\n        /* \"#utility.yul\":4412:4413   */\n      0x00\n        /* \"#utility.yul\":4403:4409   */\n      dup4\n        /* \"#utility.yul\":4398:4401   */\n      dup4\n        /* \"#utility.yul\":4394:4410   */\n      add\n        /* \"#utility.yul\":4387:4414   */\n      mstore\n        /* \"#utility.yul\":4273:4421   */\n      pop\n      pop\n      pop\n      jump\t// out\n        /* \"#utility.yul\":4427:4850   */\n    tag_95:\n        /* \"#utility.yul\":4504:4509   */\n      0x00\n        /* \"#utility.yul\":4529:4594   */\n      tag_172\n        /* \"#utility.yul\":4545:4593   */\n      tag_173\n        /* \"#utility.yul\":4586:4592   */\n      dup5\n        /* \"#utility.yul\":4545:4593   */\n      tag_93\n      jump\t// in\n    tag_173:\n        /* \"#utility.yul\":4529:4594   */\n      tag_92\n      jump\t// in\n    tag_172:\n        /* \"#utility.yul\":4520:4594   */\n      swap1\n      pop\n        /* \"#utility.yul\":4617:4623   */\n      dup3\n        /* \"#utility.yul\":4610:4615   */\n      dup2\n        /* \"#utility.yul\":4603:4624   */\n      mstore\n        /* \"#utility.yul\":4655:4659   */\n      0x20\n        /* \"#utility.yul\":4648:4653   */\n      dup2\n        /* \"#utility.yul\":4644:4660   */\n      add\n        /* \"#utility.yul\":4693:4696   */\n      dup5\n        /* \"#utility.yul\":4684:4690   */\n      dup5\n        /* \"#utility.yul\":4679:4682   */\n      dup5\n        /* \"#utility.yul\":4675:4691   */\n      add\n        /* \"#utility.yul\":4672:4697   */\n      gt\n        /* \"#utility.yul\":4669:4781   */\n      iszero\n      tag_174\n      jumpi\n        /* \"#utility.yul\":4700:4779   */\n      tag_175\n      tag_88\n      jump\t// in\n    tag_175:\n        /* \"#utility.yul\":4669:4781   */\n    tag_174:\n        /* \"#utility.yul\":4790:4844   */\n      tag_176\n        /* \"#utility.yul\":4837:4843   */\n      dup5\n        /* \"#utility.yul\":4832:4835   */\n      dup3\n        /* \"#utility.yul\":4827:4830   */\n      dup6\n        /* \"#utility.yul\":4790:4844   */\n      tag_94\n      jump\t// in\n    tag_176:\n        /* \"#utility.yul\":4510:4850   */\n      pop\n        /* \"#utility.yul\":4427:4850   */\n      swap4\n      swap3\n      pop\n      pop\n      pop\n      jump\t// out\n        /* \"#utility.yul\":4869:5207   */\n    tag_96:\n        /* \"#utility.yul\":4924:4929   */\n      0x00\n        /* \"#utility.yul\":4973:4976   */\n      dup3\n        /* \"#utility.yul\":4966:4970   */\n      0x1f\n        /* \"#utility.yul\":4958:4964   */\n      dup4\n        /* \"#utility.yul\":4954:4971   */\n      add\n        /* \"#utility.yul\":4950:4977   */\n      slt\n        /* \"#utility.yul\":4940:5062   */\n      tag_178\n      jumpi\n        /* \"#utility.yul\":4981:5060   */\n      tag_179\n      tag_87\n      jump\t// in\n    tag_179:\n        /* \"#utility.yul\":4940:5062   */\n    tag_178:\n        /* \"#utility.yul\":5098:5104   */\n      dup2\n        /* \"#utility.yul\":5085:5105   */\n      calldataload\n        /* \"#utility.yul\":5123:5201   */\n      tag_180\n        /* \"#utility.yul\":5197:5200   */\n      dup5\n        /* \"#utility.yul\":5189:5195   */\n      dup3\n        /* \"#utility.yul\":5182:5186   */\n      0x20\n        /* \"#utility.yul\":5174:5180   */\n      dup7\n        /* \"#utility.yul\":5170:5187   */\n      add\n        /* \"#utility.yul\":5123:5201   */\n      tag_95\n      jump\t// in\n    tag_180:\n        /* \"#utility.yul\":5114:5201   */\n      swap2\n      pop\n        /* \"#utility.yul\":4930:5207   */\n      pop\n        /* \"#utility.yul\":4869:5207   */\n      swap3\n      swap2\n      pop\n      pop\n      jump\t// out\n        /* \"#utility.yul\":5213:6302   */\n    tag_32:\n        /* \"#utility.yul\":5317:5323   */\n      0x00\n        /* \"#utility.yul\":5325:5331   */\n      dup1\n        /* \"#utility.yul\":5333:5339   */\n      0x00\n        /* \"#utility.yul\":5341:5347   */\n      dup1\n        /* \"#utility.yul\":5349:5355   */\n      0x00\n        /* \"#utility.yul\":5398:5401   */\n      0xa0\n        /* \"#utility.yul\":5386:5395   */\n      dup7\n        /* \"#utility.yul\":5377:5384   */\n      dup9\n        /* \"#utility.yul\":5373:5396   */\n      sub\n        /* \"#utility.yul\":5369:5402   */\n      slt\n        /* \"#utility.yul\":5366:5486   */\n      iszero\n      tag_182\n      jumpi\n        /* \"#utility.yul\":5405:5484   */\n      tag_183\n      tag_74\n      jump\t// in\n    tag_183:\n        /* \"#utility.yul\":5366:5486   */\n    tag_182:\n        /* \"#utility.yul\":5525:5526   */\n      0x00\n        /* \"#utility.yul\":5550:5603   */\n      tag_184\n        /* \"#utility.yul\":5595:5602   */\n      dup9\n        /* \"#utility.yul\":5586:5592   */\n      dup3\n        /* \"#utility.yul\":5575:5584   */\n      dup10\n        /* \"#utility.yul\":5571:5593   */\n      add\n        /* \"#utility.yul\":5550:5603   */\n      tag_84\n      jump\t// in\n    tag_184:\n        /* \"#utility.yul\":5540:5603   */\n      swap6\n      pop\n        /* \"#utility.yul\":5496:5613   */\n      pop\n        /* \"#utility.yul\":5652:5654   */\n      0x20\n        /* \"#utility.yul\":5678:5731   */\n      tag_185\n        /* \"#utility.yul\":5723:5730   */\n      dup9\n        /* \"#utility.yul\":5714:5720   */\n      dup3\n        /* \"#utility.yul\":5703:5712   */\n      dup10\n        /* \"#utility.yul\":5699:5721   */\n      add\n        /* \"#utility.yul\":5678:5731   */\n      tag_78\n      jump\t// in\n    tag_185:\n        /* \"#utility.yul\":5668:5731   */\n      swap5\n      pop\n        /* \"#utility.yul\":5623:5741   */\n      pop\n        /* \"#utility.yul\":5808:5810   */\n      0x40\n        /* \"#utility.yul\":5797:5806   */\n      dup7\n        /* \"#utility.yul\":5793:5811   */\n      add\n        /* \"#utility.yul\":5780:5812   */\n      calldataload\n        /* \"#utility.yul\":5839:5857   */\n      0xffffffffffffffff\n        /* \"#utility.yul\":5831:5837   */\n      dup2\n        /* \"#utility.yul\":5828:5858   */\n      gt\n        /* \"#utility.yul\":5825:5942   */\n      iszero\n      tag_186\n      jumpi\n        /* \"#utility.yul\":5861:5940   */\n      tag_187\n      tag_75\n      jump\t// in\n    tag_187:\n        /* \"#utility.yul\":5825:5942   */\n    tag_186:\n        /* \"#utility.yul\":5966:6028   */\n      tag_188\n        /* \"#utility.yul\":6020:6027   */\n      dup9\n        /* \"#utility.yul\":6011:6017   */\n      dup3\n        /* \"#utility.yul\":6000:6009   */\n      dup10\n        /* \"#utility.yul\":5996:6018   */\n      add\n        /* \"#utility.yul\":5966:6028   */\n      tag_96\n      jump\t// in\n    tag_188:\n        /* \"#utility.yul\":5956:6028   */\n      swap4\n      pop\n        /* \"#utility.yul\":5751:6038   */\n      pop\n        /* \"#utility.yul\":6077:6079   */\n      0x60\n        /* \"#utility.yul\":6103:6156   */\n      tag_189\n        /* \"#utility.yul\":6148:6155   */\n      dup9\n        /* \"#utility.yul\":6139:6145   */\n      dup3\n        /* \"#utility.yul\":6128:6137   */\n      dup10\n        /* \"#utility.yul\":6124:6146   */\n      add\n        /* \"#utility.yul\":6103:6156   */\n      tag_78\n      jump\t// in\n    tag_189:\n        /* \"#utility.yul\":6093:6156   */\n      swap3\n      pop\n        /* \"#utility.yul\":6048:6166   */\n      pop\n        /* \"#utility.yul\":6205:6208   */\n      0x80\n        /* \"#utility.yul\":6232:6285   */\n      tag_190\n        /* \"#utility.yul\":6277:6284   */\n      dup9\n        /* \"#utility.yul\":6268:6274   */\n      dup3\n        /* \"#utility.yul\":6257:6266   */\n      dup10\n        /* \"#utility.yul\":6253:6275   */\n      add\n        /* \"#utility.yul\":6232:6285   */\n      tag_78\n      jump\t// in\n    tag_190:\n        /* \"#utility.yul\":6222:6285   */\n      swap2\n      pop\n        /* \"#utility.yul\":6176:6295   */\n      pop\n        /* \"#utility.yul\":5213:6302   */\n      swap3\n      swap6\n      pop\n      swap3\n      swap6\n      swap1\n      swap4\n      pop\n      jump\t// out\n        /* \"#utility.yul\":6308:6385   */\n    tag_97:\n        /* \"#utility.yul\":6345:6352   */\n      0x00\n        /* \"#utility.yul\":6374:6379   */\n      dup2\n        /* \"#utility.yul\":6363:6379   */\n      swap1\n      pop\n        /* \"#utility.yul\":6308:6385   */\n      swap2\n      swap1\n      pop\n      jump\t// out\n        /* \"#utility.yul\":6391:6509   */\n    tag_98:\n        /* \"#utility.yul\":6478:6502   */\n      tag_193\n        /* \"#utility.yul\":6496:6501   */\n      dup2\n        /* \"#utility.yul\":6478:6502   */\n      tag_97\n      jump\t// in\n    tag_193:\n        /* \"#utility.yul\":6473:6476   */\n      dup3\n        /* \"#utility.yul\":6466:6503   */\n      mstore\n        /* \"#utility.yul\":6391:6509   */\n      pop\n      pop\n      jump\t// out\n        /* \"#utility.yul\":6515:6737   */\n    tag_35:\n        /* \"#utility.yul\":6608:6612   */\n      0x00\n        /* \"#utility.yul\":6646:6648   */\n      0x20\n        /* \"#utility.yul\":6635:6644   */\n      dup3\n        /* \"#utility.yul\":6631:6649   */\n      add\n        /* \"#utility.yul\":6623:6649   */\n      swap1\n      pop\n        /* \"#utility.yul\":6659:6730   */\n      tag_195\n        /* \"#utility.yul\":6727:6728   */\n      0x00\n        /* \"#utility.yul\":6716:6725   */\n      dup4\n        /* \"#utility.yul\":6712:6729   */\n      add\n        /* \"#utility.yul\":6703:6709   */\n      dup5\n        /* \"#utility.yul\":6659:6730   */\n      tag_98\n      jump\t// in\n    tag_195:\n        /* \"#utility.yul\":6515:6737   */\n      swap3\n      swap2\n      pop\n      pop\n      jump\t// out\n        /* \"#utility.yul\":6743:6865   */\n    tag_99:\n        /* \"#utility.yul\":6816:6840   */\n      tag_197\n        /* \"#utility.yul\":6834:6839   */\n      dup2\n        /* \"#utility.yul\":6816:6840   */\n      tag_97\n      jump\t// in\n    tag_197:\n        /* \"#utility.yul\":6809:6814   */\n      dup2\n        /* \"#utility.yul\":6806:6841   */\n      eq\n        /* \"#utility.yul\":6796:6859   */\n      tag_198\n      jumpi\n        /* \"#utility.yul\":6855:6856   */\n      0x00\n        /* \"#utility.yul\":6852:6853   */\n      dup1\n        /* \"#utility.yul\":6845:6857   */\n      revert\n        /* \"#utility.yul\":6796:6859   */\n    tag_198:\n        /* \"#utility.yul\":6743:6865   */\n      pop\n      jump\t// out\n        /* \"#utility.yul\":6871:7010   */\n    tag_100:\n        /* \"#utility.yul\":6917:6922   */\n      0x00\n        /* \"#utility.yul\":6955:6961   */\n      dup2\n        /* \"#utility.yul\":6942:6962   */\n      calldataload\n        /* \"#utility.yul\":6933:6962   */\n      swap1\n      pop\n        /* \"#utility.yul\":6971:7004   */\n      tag_200\n        /* \"#utility.yul\":6998:7003   */\n      dup2\n        /* \"#utility.yul\":6971:7004   */\n      tag_99\n      jump\t// in\n    tag_200:\n        /* \"#utility.yul\":6871:7010   */\n      swap3\n      swap2\n      pop\n      pop\n      jump\t// out\n        /* \"#utility.yul\":7016:7668   */\n    tag_41:\n        /* \"#utility.yul\":7093:7099   */\n      0x00\n        /* \"#utility.yul\":7101:7107   */\n      dup1\n        /* \"#utility.yul\":7150:7152   */\n      0x40\n        /* \"#utility.yul\":7138:7147   */\n      dup4\n        /* \"#utility.yul\":7129:7136   */\n      dup6\n        /* \"#utility.yul\":7125:7148   */\n      sub\n        /* \"#utility.yul\":7121:7153   */\n      slt\n        /* \"#utility.yul\":7118:7237   */\n      iszero\n      tag_202\n      jumpi\n        /* \"#utility.yul\":7156:7235   */\n      tag_203\n      tag_74\n      jump\t// in\n    tag_203:\n        /* \"#utility.yul\":7118:7237   */\n    tag_202:\n        /* \"#utility.yul\":7276:7277   */\n      0x00\n        /* \"#utility.yul\":7301:7354   */\n      tag_204\n        /* \"#utility.yul\":7346:7353   */\n      dup6\n        /* \"#utility.yul\":7337:7343   */\n      dup3\n        /* \"#utility.yul\":7326:7335   */\n      dup7\n        /* \"#utility.yul\":7322:7344   */\n      add\n        /* \"#utility.yul\":7301:7354   */\n      tag_100\n      jump\t// in\n    tag_204:\n        /* \"#utility.yul\":7291:7354   */\n      swap3\n      pop\n        /* \"#utility.yul\":7247:7364   */\n      pop\n        /* \"#utility.yul\":7431:7433   */\n      0x20\n        /* \"#utility.yul\":7420:7429   */\n      dup4\n        /* \"#utility.yul\":7416:7434   */\n      add\n        /* \"#utility.yul\":7403:7435   */\n      calldataload\n        /* \"#utility.yul\":7462:7480   */\n      0xffffffffffffffff\n        /* \"#utility.yul\":7454:7460   */\n      dup2\n        /* \"#utility.yul\":7451:7481   */\n      gt\n        /* \"#utility.yul\":7448:7565   */\n      iszero\n      tag_205\n      jumpi\n        /* \"#utility.yul\":7484:7563   */\n      tag_206\n      tag_75\n      jump\t// in\n    tag_206:\n        /* \"#utility.yul\":7448:7565   */\n    tag_205:\n        /* \"#utility.yul\":7589:7651   */\n      tag_207\n        /* \"#utility.yul\":7643:7650   */\n      dup6\n        /* \"#utility.yul\":7634:7640   */\n      dup3\n        /* \"#utility.yul\":7623:7632   */\n      dup7\n        /* \"#utility.yul\":7619:7641   */\n      add\n        /* \"#utility.yul\":7589:7651   */\n      tag_96\n      jump\t// in\n    tag_207:\n        /* \"#utility.yul\":7579:7651   */\n      swap2\n      pop\n        /* \"#utility.yul\":7374:7661   */\n      pop\n        /* \"#utility.yul\":7016:7668   */\n      swap3\n      pop\n      swap3\n      swap1\n      pop\n      jump\t// out\n        /* \"#utility.yul\":7674:8338   */\n    tag_47:\n        /* \"#utility.yul\":7879:7883   */\n      0x00\n        /* \"#utility.yul\":7917:7920   */\n      0xa0\n        /* \"#utility.yul\":7906:7915   */\n      dup3\n        /* \"#utility.yul\":7902:7921   */\n      add\n        /* \"#utility.yul\":7894:7921   */\n      swap1\n      pop\n        /* \"#utility.yul\":7931:8002   */\n      tag_209\n        /* \"#utility.yul\":7999:8000   */\n      0x00\n        /* \"#utility.yul\":7988:7997   */\n      dup4\n        /* \"#utility.yul\":7984:8001   */\n      add\n        /* \"#utility.yul\":7975:7981   */\n      dup9\n        /* \"#utility.yul\":7931:8002   */\n      tag_81\n      jump\t// in\n    tag_209:\n        /* \"#utility.yul\":8012:8084   */\n      tag_210\n        /* \"#utility.yul\":8080:8082   */\n      0x20\n        /* \"#utility.yul\":8069:8078   */\n      dup4\n        /* \"#utility.yul\":8065:8083   */\n      add\n        /* \"#utility.yul\":8056:8062   */\n      dup8\n        /* \"#utility.yul\":8012:8084   */\n      tag_82\n      jump\t// in\n    tag_210:\n        /* \"#utility.yul\":8094:8166   */\n      tag_211\n        /* \"#utility.yul\":8162:8164   */\n      0x40\n        /* \"#utility.yul\":8151:8160   */\n      dup4\n        /* \"#utility.yul\":8147:8165   */\n      add\n        /* \"#utility.yul\":8138:8144   */\n      dup7\n        /* \"#utility.yul\":8094:8166   */\n      tag_98\n      jump\t// in\n    tag_211:\n        /* \"#utility.yul\":8176:8248   */\n      tag_212\n        /* \"#utility.yul\":8244:8246   */\n      0x60\n        /* \"#utility.yul\":8233:8242   */\n      dup4\n        /* \"#utility.yul\":8229:8247   */\n      add\n        /* \"#utility.yul\":8220:8226   */\n      dup6\n        /* \"#utility.yul\":8176:8248   */\n      tag_82\n      jump\t// in\n    tag_212:\n        /* \"#utility.yul\":8258:8331   */\n      tag_213\n        /* \"#utility.yul\":8326:8329   */\n      0x80\n        /* \"#utility.yul\":8315:8324   */\n      dup4\n        /* \"#utility.yul\":8311:8330   */\n      add\n        /* \"#utility.yul\":8302:8308   */\n      dup5\n        /* \"#utility.yul\":8258:8331   */\n      tag_82\n      jump\t// in\n    tag_213:\n        /* \"#utility.yul\":7674:8338   */\n      swap7\n      swap6\n      pop\n      pop\n      pop\n      pop\n      pop\n      pop\n      jump\t// out\n        /* \"#utility.yul\":8344:8513   */\n    tag_101:\n        /* \"#utility.yul\":8428:8439   */\n      0x00\n        /* \"#utility.yul\":8462:8468   */\n      dup3\n        /* \"#utility.yul\":8457:8460   */\n      dup3\n        /* \"#utility.yul\":8450:8469   */\n      mstore\n        /* \"#utility.yul\":8502:8506   */\n      0x20\n        /* \"#utility.yul\":8497:8500   */\n      dup3\n        /* \"#utility.yul\":8493:8507   */\n      add\n        /* \"#utility.yul\":8478:8507   */\n      swap1\n      pop\n        /* \"#utility.yul\":8344:8513   */\n      swap3\n      swap2\n      pop\n      pop\n      jump\t// out\n        /* \"#utility.yul\":8519:8675   */\n    tag_102:\n        /* \"#utility.yul\":8659:8667   */\n      0x4451353030350000000000000000000000000000000000000000000000000000\n        /* \"#utility.yul\":8655:8656   */\n      0x00\n        /* \"#utility.yul\":8647:8653   */\n      dup3\n        /* \"#utility.yul\":8643:8657   */\n      add\n        /* \"#utility.yul\":8636:8668   */\n      mstore\n        /* \"#utility.yul\":8519:8675   */\n      pop\n      jump\t// out\n        /* \"#utility.yul\":8681:9046   */\n    tag_103:\n        /* \"#utility.yul\":8823:8826   */\n      0x00\n        /* \"#utility.yul\":8844:8910   */\n      tag_217\n        /* \"#utility.yul\":8908:8909   */\n      0x06\n        /* \"#utility.yul\":8903:8906   */\n      dup4\n        /* \"#utility.yul\":8844:8910   */\n      tag_101\n      jump\t// in\n    tag_217:\n        /* \"#utility.yul\":8837:8910   */\n      swap2\n      pop\n        /* \"#utility.yul\":8919:9012   */\n      tag_218\n        /* \"#utility.yul\":9008:9011   */\n      dup3\n        /* \"#utility.yul\":8919:9012   */\n      tag_102\n      jump\t// in\n    tag_218:\n        /* \"#utility.yul\":9037:9039   */\n      0x20\n        /* \"#utility.yul\":9032:9035   */\n      dup3\n        /* \"#utility.yul\":9028:9040   */\n      add\n        /* \"#utility.yul\":9021:9040   */\n      swap1\n      pop\n        /* \"#utility.yul\":8681:9046   */\n      swap2\n      swap1\n      pop\n      jump\t// out\n        /* \"#utility.yul\":9052:9471   */\n    tag_51:\n        /* \"#utility.yul\":9218:9222   */\n      0x00\n        /* \"#utility.yul\":9256:9258   */\n      0x20\n        /* \"#utility.yul\":9245:9254   */\n      dup3\n        /* \"#utility.yul\":9241:9259   */\n      add\n        /* \"#utility.yul\":9233:9259   */\n      swap1\n      pop\n        /* \"#utility.yul\":9305:9314   */\n      dup2\n        /* \"#utility.yul\":9299:9303   */\n      dup2\n        /* \"#utility.yul\":9295:9315   */\n      sub\n        /* \"#utility.yul\":9291:9292   */\n      0x00\n        /* \"#utility.yul\":9280:9289   */\n      dup4\n        /* \"#utility.yul\":9276:9293   */\n      add\n        /* \"#utility.yul\":9269:9316   */\n      mstore\n        /* \"#utility.yul\":9333:9464   */\n      tag_220\n        /* \"#utility.yul\":9459:9463   */\n      dup2\n        /* \"#utility.yul\":9333:9464   */\n      tag_103\n      jump\t// in\n    tag_220:\n        /* \"#utility.yul\":9325:9464   */\n      swap1\n      pop\n        /* \"#utility.yul\":9052:9471   */\n      swap2\n      swap1\n      pop\n      jump\t// out\n        /* \"#utility.yul\":9477:9657   */\n    tag_104:\n        /* \"#utility.yul\":9525:9602   */\n      0x4e487b7100000000000000000000000000000000000000000000000000000000\n        /* \"#utility.yul\":9522:9523   */\n      0x00\n        /* \"#utility.yul\":9515:9603   */\n      mstore\n        /* \"#utility.yul\":9622:9626   */\n      0x11\n        /* \"#utility.yul\":9619:9620   */\n      0x04\n        /* \"#utility.yul\":9612:9627   */\n      mstore\n        /* \"#utility.yul\":9646:9650   */\n      0x24\n        /* \"#utility.yul\":9643:9644   */\n      0x00\n        /* \"#utility.yul\":9636:9651   */\n      revert\n        /* \"#utility.yul\":9663:10073   */\n    tag_53:\n        /* \"#utility.yul\":9703:9710   */\n      0x00\n        /* \"#utility.yul\":9726:9746   */\n      tag_223\n        /* \"#utility.yul\":9744:9745   */\n      dup3\n        /* \"#utility.yul\":9726:9746   */\n      tag_76\n      jump\t// in\n    tag_223:\n        /* \"#utility.yul\":9721:9746   */\n      swap2\n      pop\n        /* \"#utility.yul\":9760:9780   */\n      tag_224\n        /* \"#utility.yul\":9778:9779   */\n      dup4\n        /* \"#utility.yul\":9760:9780   */\n      tag_76\n      jump\t// in\n    tag_224:\n        /* \"#utility.yul\":9755:9780   */\n      swap3\n      pop\n        /* \"#utility.yul\":9815:9816   */\n      dup3\n        /* \"#utility.yul\":9812:9813   */\n      dup3\n        /* \"#utility.yul\":9808:9817   */\n      mul\n        /* \"#utility.yul\":9837:9867   */\n      tag_225\n        /* \"#utility.yul\":9855:9866   */\n      dup2\n        /* \"#utility.yul\":9837:9867   */\n      tag_76\n      jump\t// in\n    tag_225:\n        /* \"#utility.yul\":9826:9867   */\n      swap2\n      pop\n        /* \"#utility.yul\":10016:10017   */\n      dup3\n        /* \"#utility.yul\":10007:10014   */\n      dup3\n        /* \"#utility.yul\":10003:10018   */\n      div\n        /* \"#utility.yul\":10000:10001   */\n      dup5\n        /* \"#utility.yul\":9997:10019   */\n      eq\n        /* \"#utility.yul\":9977:9978   */\n      dup4\n        /* \"#utility.yul\":9970:9979   */\n      iszero\n        /* \"#utility.yul\":9950:10033   */\n      or\n        /* \"#utility.yul\":9927:10066   */\n      tag_226\n      jumpi\n        /* \"#utility.yul\":10046:10064   */\n      tag_227\n      tag_104\n      jump\t// in\n    tag_227:\n        /* \"#utility.yul\":9927:10066   */\n    tag_226:\n        /* \"#utility.yul\":9711:10073   */\n      pop\n        /* \"#utility.yul\":9663:10073   */\n      swap3\n      swap2\n      pop\n      pop\n      jump\t// out\n        /* \"#utility.yul\":10079:10235   */\n    tag_105:\n        /* \"#utility.yul\":10219:10227   */\n      0x4451353030360000000000000000000000000000000000000000000000000000\n        /* \"#utility.yul\":10215:10216   */\n      0x00\n        /* \"#utility.yul\":10207:10213   */\n      dup3\n        /* \"#utility.yul\":10203:10217   */\n      add\n        /* \"#utility.yul\":10196:10228   */\n      mstore\n        /* \"#utility.yul\":10079:10235   */\n      pop\n      jump\t// out\n        /* \"#utility.yul\":10241:10606   */\n    tag_106:\n        /* \"#utility.yul\":10383:10386   */\n      0x00\n        /* \"#utility.yul\":10404:10470   */\n      tag_230\n        /* \"#utility.yul\":10468:10469   */\n      0x06\n        /* \"#utility.yul\":10463:10466   */\n      dup4\n        /* \"#utility.yul\":10404:10470   */\n      tag_101\n      jump\t// in\n    tag_230:\n        /* \"#utility.yul\":10397:10470   */\n      swap2\n      pop\n        /* \"#utility.yul\":10479:10572   */\n      tag_231\n        /* \"#utility.yul\":10568:10571   */\n      dup3\n        /* \"#utility.yul\":10479:10572   */\n      tag_105\n      jump\t// in\n    tag_231:\n        /* \"#utility.yul\":10597:10599   */\n      0x20\n        /* \"#utility.yul\":10592:10595   */\n      dup3\n        /* \"#utility.yul\":10588:10600   */\n      add\n        /* \"#utility.yul\":10581:10600   */\n      swap1\n      pop\n        /* \"#utility.yul\":10241:10606   */\n      swap2\n      swap1\n      pop\n      jump\t// out\n        /* \"#utility.yul\":10612:11031   */\n    tag_56:\n        /* \"#utility.yul\":10778:10782   */\n      0x00\n        /* \"#utility.yul\":10816:10818   */\n      0x20\n        /* \"#utility.yul\":10805:10814   */\n      dup3\n        /* \"#utility.yul\":10801:10819   */\n      add\n        /* \"#utility.yul\":10793:10819   */\n      swap1\n      pop\n        /* \"#utility.yul\":10865:10874   */\n      dup2\n        /* \"#utility.yul\":10859:10863   */\n      dup2\n        /* \"#utility.yul\":10855:10875   */\n      sub\n        /* \"#utility.yul\":10851:10852   */\n      0x00\n        /* \"#utility.yul\":10840:10849   */\n      dup4\n        /* \"#utility.yul\":10836:10853   */\n      add\n        /* \"#utility.yul\":10829:10876   */\n      mstore\n        /* \"#utility.yul\":10893:11024   */\n      tag_233\n        /* \"#utility.yul\":11019:11023   */\n      dup2\n        /* \"#utility.yul\":10893:11024   */\n      tag_106\n      jump\t// in\n    tag_233:\n        /* \"#utility.yul\":10885:11024   */\n      swap1\n      pop\n        /* \"#utility.yul\":10612:11031   */\n      swap2\n      swap1\n      pop\n      jump\t// out\n        /* \"#utility.yul\":11037:11185   */\n    tag_107:\n        /* \"#utility.yul\":11139:11150   */\n      0x00\n        /* \"#utility.yul\":11176:11179   */\n      dup2\n        /* \"#utility.yul\":11161:11179   */\n      swap1\n      pop\n        /* \"#utility.yul\":11037:11185   */\n      swap3\n      swap2\n      pop\n      pop\n      jump\t// out\n        /* \"#utility.yul\":11191:11405   */\n    tag_108:\n        /* \"#utility.yul\":11331:11397   */\n      0x19457468657265756d205369676e6564204d6573736167653a0a333200000000\n        /* \"#utility.yul\":11327:11328   */\n      0x00\n        /* \"#utility.yul\":11319:11325   */\n      dup3\n        /* \"#utility.yul\":11315:11329   */\n      add\n        /* \"#utility.yul\":11308:11398   */\n      mstore\n        /* \"#utility.yul\":11191:11405   */\n      pop\n      jump\t// out\n        /* \"#utility.yul\":11411:11813   */\n    tag_109:\n        /* \"#utility.yul\":11571:11574   */\n      0x00\n        /* \"#utility.yul\":11592:11677   */\n      tag_237\n        /* \"#utility.yul\":11674:11676   */\n      0x1c\n        /* \"#utility.yul\":11669:11672   */\n      dup4\n        /* \"#utility.yul\":11592:11677   */\n      tag_107\n      jump\t// in\n    tag_237:\n        /* \"#utility.yul\":11585:11677   */\n      swap2\n      pop\n        /* \"#utility.yul\":11686:11779   */\n      tag_238\n        /* \"#utility.yul\":11775:11778   */\n      dup3\n        /* \"#utility.yul\":11686:11779   */\n      tag_108\n      jump\t// in\n    tag_238:\n        /* \"#utility.yul\":11804:11806   */\n      0x1c\n        /* \"#utility.yul\":11799:11802   */\n      dup3\n        /* \"#utility.yul\":11795:11807   */\n      add\n        /* \"#utility.yul\":11788:11807   */\n      swap1\n      pop\n        /* \"#utility.yul\":11411:11813   */\n      swap2\n      swap1\n      pop\n      jump\t// out\n        /* \"#utility.yul\":11819:11898   */\n    tag_110:\n        /* \"#utility.yul\":11858:11865   */\n      0x00\n        /* \"#utility.yul\":11887:11892   */\n      dup2\n        /* \"#utility.yul\":11876:11892   */\n      swap1\n      pop\n        /* \"#utility.yul\":11819:11898   */\n      swap2\n      swap1\n      pop\n      jump\t// out\n        /* \"#utility.yul\":11904:12061   */\n    tag_111:\n        /* \"#utility.yul\":12009:12054   */\n      tag_241\n        /* \"#utility.yul\":12029:12053   */\n      tag_242\n        /* \"#utility.yul\":12047:12052   */\n      dup3\n        /* \"#utility.yul\":12029:12053   */\n      tag_97\n      jump\t// in\n    tag_242:\n        /* \"#utility.yul\":12009:12054   */\n      tag_110\n      jump\t// in\n    tag_241:\n        /* \"#utility.yul\":12004:12007   */\n      dup3\n        /* \"#utility.yul\":11997:12055   */\n      mstore\n        /* \"#utility.yul\":11904:12061   */\n      pop\n      pop\n      jump\t// out\n        /* \"#utility.yul\":12067:12589   */\n    tag_63:\n        /* \"#utility.yul\":12280:12283   */\n      0x00\n        /* \"#utility.yul\":12302:12450   */\n      tag_244\n        /* \"#utility.yul\":12446:12449   */\n      dup3\n        /* \"#utility.yul\":12302:12450   */\n      tag_109\n      jump\t// in\n    tag_244:\n        /* \"#utility.yul\":12295:12450   */\n      swap2\n      pop\n        /* \"#utility.yul\":12460:12535   */\n      tag_245\n        /* \"#utility.yul\":12531:12534   */\n      dup3\n        /* \"#utility.yul\":12522:12528   */\n      dup5\n        /* \"#utility.yul\":12460:12535   */\n      tag_111\n      jump\t// in\n    tag_245:\n        /* \"#utility.yul\":12560:12562   */\n      0x20\n        /* \"#utility.yul\":12555:12558   */\n      dup3\n        /* \"#utility.yul\":12551:12563   */\n      add\n        /* \"#utility.yul\":12544:12563   */\n      swap2\n      pop\n        /* \"#utility.yul\":12580:12583   */\n      dup2\n        /* \"#utility.yul\":12573:12583   */\n      swap1\n      pop\n        /* \"#utility.yul\":12067:12589   */\n      swap3\n      swap2\n      pop\n      pop\n      jump\t// out\n        /* \"#utility.yul\":12595:12681   */\n    tag_112:\n        /* \"#utility.yul\":12630:12637   */\n      0x00\n        /* \"#utility.yul\":12670:12674   */\n      0xff\n        /* \"#utility.yul\":12663:12668   */\n      dup3\n        /* \"#utility.yul\":12659:12675   */\n      and\n        /* \"#utility.yul\":12648:12675   */\n      swap1\n      pop\n        /* \"#utility.yul\":12595:12681   */\n      swap2\n      swap1\n      pop\n      jump\t// out\n        /* \"#utility.yul\":12687:12799   */\n    tag_113:\n        /* \"#utility.yul\":12770:12792   */\n      tag_248\n        /* \"#utility.yul\":12786:12791   */\n      dup2\n        /* \"#utility.yul\":12770:12792   */\n      tag_112\n      jump\t// in\n    tag_248:\n        /* \"#utility.yul\":12765:12768   */\n      dup3\n        /* \"#utility.yul\":12758:12793   */\n      mstore\n        /* \"#utility.yul\":12687:12799   */\n      pop\n      pop\n      jump\t// out\n        /* \"#utility.yul\":12805:13350   */\n    tag_65:\n        /* \"#utility.yul\":12978:12982   */\n      0x00\n        /* \"#utility.yul\":13016:13019   */\n      0x80\n        /* \"#utility.yul\":13005:13014   */\n      dup3\n        /* \"#utility.yul\":13001:13020   */\n      add\n        /* \"#utility.yul\":12993:13020   */\n      swap1\n      pop\n        /* \"#utility.yul\":13030:13101   */\n      tag_250\n        /* \"#utility.yul\":13098:13099   */\n      0x00\n        /* \"#utility.yul\":13087:13096   */\n      dup4\n        /* \"#utility.yul\":13083:13100   */\n      add\n        /* \"#utility.yul\":13074:13080   */\n      dup8\n        /* \"#utility.yul\":13030:13101   */\n      tag_98\n      jump\t// in\n    tag_250:\n        /* \"#utility.yul\":13111:13179   */\n      tag_251\n        /* \"#utility.yul\":13175:13177   */\n      0x20\n        /* \"#utility.yul\":13164:13173   */\n      dup4\n        /* \"#utility.yul\":13160:13178   */\n      add\n        /* \"#utility.yul\":13151:13157   */\n      dup7\n        /* \"#utility.yul\":13111:13179   */\n      tag_113\n      jump\t// in\n    tag_251:\n        /* \"#utility.yul\":13189:13261   */\n      tag_252\n        /* \"#utility.yul\":13257:13259   */\n      0x40\n        /* \"#utility.yul\":13246:13255   */\n      dup4\n        /* \"#utility.yul\":13242:13260   */\n      add\n        /* \"#utility.yul\":13233:13239   */\n      dup6\n        /* \"#utility.yul\":13189:13261   */\n      tag_98\n      jump\t// in\n    tag_252:\n        /* \"#utility.yul\":13271:13343   */\n      tag_253\n        /* \"#utility.yul\":13339:13341   */\n      0x60\n        /* \"#utility.yul\":13328:13337   */\n      dup4\n        /* \"#utility.yul\":13324:13342   */\n      add\n        /* \"#utility.yul\":13315:13321   */\n      dup5\n        /* \"#utility.yul\":13271:13343   */\n      tag_98\n      jump\t// in\n    tag_253:\n        /* \"#utility.yul\":12805:13350   */\n      swap6\n      swap5\n      pop\n      pop\n      pop\n      pop\n      pop\n      jump\t// out\n        /* \"#utility.yul\":13356:13512   */\n    tag_114:\n        /* \"#utility.yul\":13496:13504   */\n      0x4451353030370000000000000000000000000000000000000000000000000000\n        /* \"#utility.yul\":13492:13493   */\n      0x00\n        /* \"#utility.yul\":13484:13490   */\n      dup3\n        /* \"#utility.yul\":13480:13494   */\n      add\n        /* \"#utility.yul\":13473:13505   */\n      mstore\n        /* \"#utility.yul\":13356:13512   */\n      pop\n      jump\t// out\n        /* \"#utility.yul\":13518:13883   */\n    tag_115:\n        /* \"#utility.yul\":13660:13663   */\n      0x00\n        /* \"#utility.yul\":13681:13747   */\n      tag_256\n        /* \"#utility.yul\":13745:13746   */\n      0x06\n        /* \"#utility.yul\":13740:13743   */\n      dup4\n        /* \"#utility.yul\":13681:13747   */\n      tag_101\n      jump\t// in\n    tag_256:\n        /* \"#utility.yul\":13674:13747   */\n      swap2\n      pop\n        /* \"#utility.yul\":13756:13849   */\n      tag_257\n        /* \"#utility.yul\":13845:13848   */\n      dup3\n        /* \"#utility.yul\":13756:13849   */\n      tag_114\n      jump\t// in\n    tag_257:\n        /* \"#utility.yul\":13874:13876   */\n      0x20\n        /* \"#utility.yul\":13869:13872   */\n      dup3\n        /* \"#utility.yul\":13865:13877   */\n      add\n        /* \"#utility.yul\":13858:13877   */\n      swap1\n      pop\n        /* \"#utility.yul\":13518:13883   */\n      swap2\n      swap1\n      pop\n      jump\t// out\n        /* \"#utility.yul\":13889:14308   */\n    tag_71:\n        /* \"#utility.yul\":14055:14059   */\n      0x00\n        /* \"#utility.yul\":14093:14095   */\n      0x20\n        /* \"#utility.yul\":14082:14091   */\n      dup3\n        /* \"#utility.yul\":14078:14096   */\n      add\n        /* \"#utility.yul\":14070:14096   */\n      swap1\n      pop\n        /* \"#utility.yul\":14142:14151   */\n      dup2\n        /* \"#utility.yul\":14136:14140   */\n      dup2\n        /* \"#utility.yul\":14132:14152   */\n      sub\n        /* \"#utility.yul\":14128:14129   */\n      0x00\n        /* \"#utility.yul\":14117:14126   */\n      dup4\n        /* \"#utility.yul\":14113:14130   */\n      add\n        /* \"#utility.yul\":14106:14153   */\n      mstore\n        /* \"#utility.yul\":14170:14301   */\n      tag_259\n        /* \"#utility.yul\":14296:14300   */\n      dup2\n        /* \"#utility.yul\":14170:14301   */\n      tag_115\n      jump\t// in\n    tag_259:\n        /* \"#utility.yul\":14162:14301   */\n      swap1\n      pop\n        /* \"#utility.yul\":13889:14308   */\n      swap2\n      swap1\n      pop\n      jump\t// out\n\n    auxdata: 0xa264697066735822122062a0bb1ab0a2412c0daad8a27ba3bba1fa6952fb7c9f365c368082195040c94364736f6c63430008190033\n}\n",
				"bytecode": {
					"linkReferences": {},
					"object": "608060405234801561000f575f80fd5b506040516112db3803806112db833981810160405281019061003191906104fa565b610041828261004860201b60201c565b5050610731565b5f6003541461008c576040517f08c379a0000000000000000000000000000000000000000000000000000000008152600401610083906105ae565b60405180910390fd5b81518111156100d0576040517f08c379a00000000000000000000000000000000000000000000000000000000081526004016100c790610616565b60405180910390fd5b6001811015610114576040517f08c379a000000000000000000000000000000000000000000000000000000000815260040161010b9061067e565b60405180910390fd5b5f5b82518110156102f8575f8382815181106101335761013261069c565b5b602002602001015190505f73ffffffffffffffffffffffffffffffffffffffff168173ffffffffffffffffffffffffffffffffffffffff16141580156101a557503073ffffffffffffffffffffffffffffffffffffffff168173ffffffffffffffffffffffffffffffffffffffff1614155b80156101f8575060015f8273ffffffffffffffffffffffffffffffffffffffff1673ffffffffffffffffffffffffffffffffffffffff1681526020019081526020015f205f9054906101000a900460ff16155b610237576040517f08c379a000000000000000000000000000000000000000000000000000000000815260040161022e90610713565b60405180910390fd5b5f81908060018154018082558091505060019003905f5260205f20015f9091909190916101000a81548173ffffffffffffffffffffffffffffffffffffffff021916908373ffffffffffffffffffffffffffffffffffffffff1602179055506001805f8373ffffffffffffffffffffffffffffffffffffffff1673ffffffffffffffffffffffffffffffffffffffff1681526020019081526020015f205f6101000a81548160ff021916908315150217905550508080600101915050610116565b508151600281905550806003819055505050565b5f604051905090565b5f80fd5b5f80fd5b5f80fd5b5f601f19601f8301169050919050565b7f4e487b71000000000000000000000000000000000000000000000000000000005f52604160045260245ffd5b61036782610321565b810181811067ffffffffffffffff8211171561038657610385610331565b5b80604052505050565b5f61039861030c565b90506103a4828261035e565b919050565b5f67ffffffffffffffff8211156103c3576103c2610331565b5b602082029050602081019050919050565b5f80fd5b5f73ffffffffffffffffffffffffffffffffffffffff82169050919050565b5f610401826103d8565b9050919050565b610411816103f7565b811461041b575f80fd5b50565b5f8151905061042c81610408565b92915050565b5f61044461043f846103a9565b61038f565b90508083825260208201905060208402830185811115610467576104666103d4565b5b835b81811015610490578061047c888261041e565b845260208401935050602081019050610469565b5050509392505050565b5f82601f8301126104ae576104ad61031d565b5b81516104be848260208601610432565b91505092915050565b5f819050919050565b6104d9816104c7565b81146104e3575f80fd5b50565b5f815190506104f4816104d0565b92915050565b5f80604083850312156105105761050f610315565b5b5f83015167ffffffffffffffff81111561052d5761052c610319565b5b6105398582860161049a565b925050602061054a858286016104e6565b9150509250929050565b5f82825260208201905092915050565b7f44513530303000000000000000000000000000000000000000000000000000005f82015250565b5f610598600683610554565b91506105a382610564565b602082019050919050565b5f6020820190508181035f8301526105c58161058c565b9050919050565b7f44513530303100000000000000000000000000000000000000000000000000005f82015250565b5f610600600683610554565b915061060b826105cc565b602082019050919050565b5f6020820190508181035f83015261062d816105f4565b9050919050565b7f44513530303200000000000000000000000000000000000000000000000000005f82015250565b5f610668600683610554565b915061067382610634565b602082019050919050565b5f6020820190508181035f8301526106958161065c565b9050919050565b7f4e487b71000000000000000000000000000000000000000000000000000000005f52603260045260245ffd5b7f44513530303300000000000000000000000000000000000000000000000000005f82015250565b5f6106fd600683610554565b9150610708826106c9565b602082019050919050565b5f6020820190508181035f83015261072a816106f1565b9050919050565b610b9d8061073e5f395ff3fe608060405234801561000f575f80fd5b506004361061007b575f3560e01c806342cde4e81161005957806342cde4e8146100fd578063a67dd5091461011b578063affed0e01461014b578063ed516d51146101695761007b565b8063025e7c271461007f5780630db02622146100af5780632f54bf6e146100cd575b5f80fd5b610099600480360381019061009491906104b2565b610185565b6040516100a6919061051c565b60405180910390f35b6100b76101bf565b6040516100c49190610544565b60405180910390f35b6100e760048036038101906100e29190610587565b6101c5565b6040516100f491906105cc565b60405180910390f35b6101056101e2565b6040516101129190610544565b60405180910390f35b61013560048036038101906101309190610721565b6101e8565b60405161014291906107cc565b60405180910390f35b61015361022f565b6040516101609190610544565b60405180910390f35b610183600480360381019061017e919061080f565b610235565b005b5f8181548110610193575f80fd5b905f5260205f20015f915054906101000a900473ffffffffffffffffffffffffffffffffffffffff1681565b60025481565b6001602052805f5260405f205f915054906101000a900460ff1681565b60035481565b5f8086868680519060200120868660405160200161020a959493929190610869565b6040516020818303038152906040528051906020012090508091505095945050505050565b60045481565b5f60035490505f811161027d576040517f08c379a000000000000000000000000000000000000000000000000000000000815260040161027490610914565b60405180910390fd5b60418161028a919061095f565b825110156102cd576040517f08c379a00000000000000000000000000000000000000000000000000000000081526004016102c4906109ea565b60405180910390fd5b5f80805f805f5b86811015610436576102e68882610441565b8094508195508296505050506001896040516020016103059190610a7c565b604051602081830303815290604052805190602001208585856040515f815260200160405260405161033a9493929190610abc565b6020604051602081039080840390855afa15801561035a573d5f803e3d5ffd5b5050506020604051035194508573ffffffffffffffffffffffffffffffffffffffff168573ffffffffffffffffffffffffffffffffffffffff161180156103e7575060015f8673ffffffffffffffffffffffffffffffffffffffff1673ffffffffffffffffffffffffffffffffffffffff1681526020019081526020015f205f9054906101000a900460ff165b610426576040517f08c379a000000000000000000000000000000000000000000000000000000000815260040161041d90610b49565b60405180910390fd5b84955080806001019150506102d4565b505050505050505050565b5f805f8360410260208101860151925060408101860151915060ff60418201870151169350509250925092565b5f604051905090565b5f80fd5b5f80fd5b5f819050919050565b6104918161047f565b811461049b575f80fd5b50565b5f813590506104ac81610488565b92915050565b5f602082840312156104c7576104c6610477565b5b5f6104d48482850161049e565b91505092915050565b5f73ffffffffffffffffffffffffffffffffffffffff82169050919050565b5f610506826104dd565b9050919050565b610516816104fc565b82525050565b5f60208201905061052f5f83018461050d565b92915050565b61053e8161047f565b82525050565b5f6020820190506105575f830184610535565b92915050565b610566816104fc565b8114610570575f80fd5b50565b5f813590506105818161055d565b92915050565b5f6020828403121561059c5761059b610477565b5b5f6105a984828501610573565b91505092915050565b5f8115159050919050565b6105c6816105b2565b82525050565b5f6020820190506105df5f8301846105bd565b92915050565b5f80fd5b5f80fd5b5f601f19601f8301169050919050565b7f4e487b71000000000000000000000000000000000000000000000000000000005f52604160045260245ffd5b610633826105ed565b810181811067ffffffffffffffff82111715610652576106516105fd565b5b80604052505050565b5f61066461046e565b9050610670828261062a565b919050565b5f67ffffffffffffffff82111561068f5761068e6105fd565b5b610698826105ed565b9050602081019050919050565b828183375f83830152505050565b5f6106c56106c084610675565b61065b565b9050828152602081018484840111156106e1576106e06105e9565b5b6106ec8482856106a5565b509392505050565b5f82601f830112610708576107076105e5565b5b81356107188482602086016106b3565b91505092915050565b5f805f805f60a0868803121561073a57610739610477565b5b5f61074788828901610573565b95505060206107588882890161049e565b945050604086013567ffffffffffffffff8111156107795761077861047b565b5b610785888289016106f4565b93505060606107968882890161049e565b92505060806107a78882890161049e565b9150509295509295909350565b5f819050919050565b6107c6816107b4565b82525050565b5f6020820190506107df5f8301846107bd565b92915050565b6107ee816107b4565b81146107f8575f80fd5b50565b5f81359050610809816107e5565b92915050565b5f806040838503121561082557610824610477565b5b5f610832858286016107fb565b925050602083013567ffffffffffffffff8111156108535761085261047b565b5b61085f858286016106f4565b9150509250929050565b5f60a08201905061087c5f83018861050d565b6108896020830187610535565b61089660408301866107bd565b6108a36060830185610535565b6108b06080830184610535565b9695505050505050565b5f82825260208201905092915050565b7f44513530303500000000000000000000000000000000000000000000000000005f82015250565b5f6108fe6006836108ba565b9150610909826108ca565b602082019050919050565b5f6020820190508181035f83015261092b816108f2565b9050919050565b7f4e487b71000000000000000000000000000000000000000000000000000000005f52601160045260245ffd5b5f6109698261047f565b91506109748361047f565b92508282026109828161047f565b9150828204841483151761099957610998610932565b5b5092915050565b7f44513530303600000000000000000000000000000000000000000000000000005f82015250565b5f6109d46006836108ba565b91506109df826109a0565b602082019050919050565b5f6020820190508181035f830152610a01816109c8565b9050919050565b5f81905092915050565b7f19457468657265756d205369676e6564204d6573736167653a0a3332000000005f82015250565b5f610a46601c83610a08565b9150610a5182610a12565b601c82019050919050565b5f819050919050565b610a76610a71826107b4565b610a5c565b82525050565b5f610a8682610a3a565b9150610a928284610a65565b60208201915081905092915050565b5f60ff82169050919050565b610ab681610aa1565b82525050565b5f608082019050610acf5f8301876107bd565b610adc6020830186610aad565b610ae960408301856107bd565b610af660608301846107bd565b95945050505050565b7f44513530303700000000000000000000000000000000000000000000000000005f82015250565b5f610b336006836108ba565b9150610b3e82610aff565b602082019050919050565b5f6020820190508181035f830152610b6081610b27565b905091905056fea264697066735822122062a0bb1ab0a2412c0daad8a27ba3bba1fa6952fb7c9f365c368082195040c94364736f6c63430008190033",
					"opcodes": "PUSH1 0x80 PUSH1 0x40 MSTORE CALLVALUE DUP1 ISZERO PUSH2 0xF JUMPI PUSH0 DUP1 REVERT JUMPDEST POP PUSH1 0x40 MLOAD PUSH2 0x12DB CODESIZE SUB DUP1 PUSH2 0x12DB DUP4 CODECOPY DUP2 DUP2 ADD PUSH1 0x40 MSTORE DUP2 ADD SWAP1 PUSH2 0x31 SWAP2 SWAP1 PUSH2 0x4FA JUMP JUMPDEST PUSH2 0x41 DUP3 DUP3 PUSH2 0x48 PUSH1 0x20 SHL PUSH1 0x20 SHR JUMP JUMPDEST POP POP PUSH2 0x731 JUMP JUMPDEST PUSH0 PUSH1 0x3 SLOAD EQ PUSH2 0x8C JUMPI PUSH1 0x40 MLOAD PUSH32 0x8C379A000000000000000000000000000000000000000000000000000000000 DUP2 MSTORE PUSH1 0x4 ADD PUSH2 0x83 SWAP1 PUSH2 0x5AE JUMP JUMPDEST PUSH1 0x40 MLOAD DUP1 SWAP2 SUB SWAP1 REVERT JUMPDEST DUP2 MLOAD DUP2 GT ISZERO PUSH2 0xD0 JUMPI PUSH1 0x40 MLOAD PUSH32 0x8C379A000000000000000000000000000000000000000000000000000000000 DUP2 MSTORE PUSH1 0x4 ADD PUSH2 0xC7 SWAP1 PUSH2 0x616 JUMP JUMPDEST PUSH1 0x40 MLOAD DUP1 SWAP2 SUB SWAP1 REVERT JUMPDEST PUSH1 0x1 DUP2 LT ISZERO PUSH2 0x114 JUMPI PUSH1 0x40 MLOAD PUSH32 0x8C379A000000000000000000000000000000000000000000000000000000000 DUP2 MSTORE PUSH1 0x4 ADD PUSH2 0x10B SWAP1 PUSH2 0x67E JUMP JUMPDEST PUSH1 0x40 MLOAD DUP1 SWAP2 SUB SWAP1 REVERT JUMPDEST PUSH0 JUMPDEST DUP3 MLOAD DUP2 LT ISZERO PUSH2 0x2F8 JUMPI PUSH0 DUP4 DUP3 DUP2 MLOAD DUP2 LT PUSH2 0x133 JUMPI PUSH2 0x132 PUSH2 0x69C JUMP JUMPDEST JUMPDEST PUSH1 0x20 MUL PUSH1 0x20 ADD ADD MLOAD SWAP1 POP PUSH0 PUSH20 0xFFFFFFFFFFFFFFFFFFFFFFFFFFFFFFFFFFFFFFFF AND DUP2 PUSH20 0xFFFFFFFFFFFFFFFFFFFFFFFFFFFFFFFFFFFFFFFF AND EQ ISZERO DUP1 ISZERO PUSH2 0x1A5 JUMPI POP ADDRESS PUSH20 0xFFFFFFFFFFFFFFFFFFFFFFFFFFFFFFFFFFFFFFFF AND DUP2 PUSH20 0xFFFFFFFFFFFFFFFFFFFFFFFFFFFFFFFFFFFFFFFF AND EQ ISZERO JUMPDEST DUP1 ISZERO PUSH2 0x1F8 JUMPI POP PUSH1 0x1 PUSH0 DUP3 PUSH20 0xFFFFFFFFFFFFFFFFFFFFFFFFFFFFFFFFFFFFFFFF AND PUSH20 0xFFFFFFFFFFFFFFFFFFFFFFFFFFFFFFFFFFFFFFFF AND DUP2 MSTORE PUSH1 0x20 ADD SWAP1 DUP2 MSTORE PUSH1 0x20 ADD PUSH0 KECCAK256 PUSH0 SWAP1 SLOAD SWAP1 PUSH2 0x100 EXP SWAP1 DIV PUSH1 0xFF AND ISZERO JUMPDEST PUSH2 0x237 JUMPI PUSH1 0x40 MLOAD PUSH32 0x8C379A000000000000000000000000000000000000000000000000000000000 DUP2 MSTORE PUSH1 0x4 ADD PUSH2 0x22E SWAP1 PUSH2 0x713 JUMP JUMPDEST PUSH1 0x40 MLOAD DUP1 SWAP2 SUB SWAP1 REVERT JUMPDEST PUSH0 DUP2 SWAP1 DUP1 PUSH1 0x1 DUP2 SLOAD ADD DUP1 DUP3 SSTORE DUP1 SWAP2 POP POP PUSH1 0x1 SWAP1 SUB SWAP1 PUSH0 MSTORE PUSH1 0x20 PUSH0 KECCAK256 ADD PUSH0 SWAP1 SWAP2 SWAP1 SWAP2 SWAP1 SWAP2 PUSH2 0x100 EXP DUP2 SLOAD DUP2 PUSH20 0xFFFFFFFFFFFFFFFFFFFFFFFFFFFFFFFFFFFFFFFF MUL NOT AND SWAP1 DUP4 PUSH20 0xFFFFFFFFFFFFFFFFFFFFFFFFFFFFFFFFFFFFFFFF AND MUL OR SWAP1 SSTORE POP PUSH1 0x1 DUP1 PUSH0 DUP4 PUSH20 0xFFFFFFFFFFFFFFFFFFFFFFFFFFFFFFFFFFFFFFFF AND PUSH20 0xFFFFFFFFFFFFFFFFFFFFFFFFFFFFFFFFFFFFFFFF AND DUP2 MSTORE PUSH1 0x20 ADD SWAP1 DUP2 MSTORE PUSH1 0x20 ADD PUSH0 KECCAK256 PUSH0 PUSH2 0x100 EXP DUP2 SLOAD DUP2 PUSH1 0xFF MUL NOT AND SWAP1 DUP4 ISZERO ISZERO MUL OR SWAP1 SSTORE POP POP DUP1 DUP1 PUSH1 0x1 ADD SWAP2 POP POP PUSH2 0x116 JUMP JUMPDEST POP DUP2 MLOAD PUSH1 0x2 DUP2 SWAP1 SSTORE POP DUP1 PUSH1 0x3 DUP2 SWAP1 SSTORE POP POP POP JUMP JUMPDEST PUSH0 PUSH1 0x40 MLOAD SWAP1 POP SWAP1 JUMP JUMPDEST PUSH0 DUP1 REVERT JUMPDEST PUSH0 DUP1 REVERT JUMPDEST PUSH0 DUP1 REVERT JUMPDEST PUSH0 PUSH1 0x1F NOT PUSH1 0x1F DUP4 ADD AND SWAP1 POP SWAP2 SWAP1 POP JUMP JUMPDEST PUSH32 0x4E487B7100000000000000000000000000000000000000000000000000000000 PUSH0 MSTORE PUSH1 0x41 PUSH1 0x4 MSTORE PUSH1 0x24 PUSH0 REVERT JUMPDEST PUSH2 0x367 DUP3 PUSH2 0x321 JUMP JUMPDEST DUP2 ADD DUP2 DUP2 LT PUSH8 0xFFFFFFFFFFFFFFFF DUP3 GT OR ISZERO PUSH2 0x386 JUMPI PUSH2 0x385 PUSH2 0x331 JUMP JUMPDEST JUMPDEST DUP1 PUSH1 0x40 MSTORE POP POP POP JUMP JUMPDEST PUSH0 PUSH2 0x398 PUSH2 0x30C JUMP JUMPDEST SWAP1 POP PUSH2 0x3A4 DUP3 DUP3 PUSH2 0x35E JUMP JUMPDEST SWAP2 SWAP1 POP JUMP JUMPDEST PUSH0 PUSH8 0xFFFFFFFFFFFFFFFF DUP3 GT ISZERO PUSH2 0x3C3 JUMPI PUSH2 0x3C2 PUSH2 0x331 JUMP JUMPDEST JUMPDEST PUSH1 0x20 DUP3 MUL SWAP1 POP PUSH1 0x20 DUP2 ADD SWAP1 POP SWAP2 SWAP1 POP JUMP JUMPDEST PUSH0 DUP1 REVERT JUMPDEST PUSH0 PUSH20 0xFFFFFFFFFFFFFFFFFFFFFFFFFFFFFFFFFFFFFFFF DUP3 AND SWAP1 POP SWAP2 SWAP1 POP JUMP JUMPDEST PUSH0 PUSH2 0x401 DUP3 PUSH2 0x3D8 JUMP JUMPDEST SWAP1 POP SWAP2 SWAP1 POP JUMP JUMPDEST PUSH2 0x411 DUP2 PUSH2 0x3F7 JUMP JUMPDEST DUP2 EQ PUSH2 0x41B JUMPI PUSH0 DUP1 REVERT JUMPDEST POP JUMP JUMPDEST PUSH0 DUP2 MLOAD SWAP1 POP PUSH2 0x42C DUP2 PUSH2 0x408 JUMP JUMPDEST SWAP3 SWAP2 POP POP JUMP JUMPDEST PUSH0 PUSH2 0x444 PUSH2 0x43F DUP5 PUSH2 0x3A9 JUMP JUMPDEST PUSH2 0x38F JUMP JUMPDEST SWAP1 POP DUP1 DUP4 DUP3 MSTORE PUSH1 0x20 DUP3 ADD SWAP1 POP PUSH1 0x20 DUP5 MUL DUP4 ADD DUP6 DUP2 GT ISZERO PUSH2 0x467 JUMPI PUSH2 0x466 PUSH2 0x3D4 JUMP JUMPDEST JUMPDEST DUP4 JUMPDEST DUP2 DUP2 LT ISZERO PUSH2 0x490 JUMPI DUP1 PUSH2 0x47C DUP9 DUP3 PUSH2 0x41E JUMP JUMPDEST DUP5 MSTORE PUSH1 0x20 DUP5 ADD SWAP4 POP POP PUSH1 0x20 DUP2 ADD SWAP1 POP PUSH2 0x469 JUMP JUMPDEST POP POP POP SWAP4 SWAP3 POP POP POP JUMP JUMPDEST PUSH0 DUP3 PUSH1 0x1F DUP4 ADD SLT PUSH2 0x4AE JUMPI PUSH2 0x4AD PUSH2 0x31D JUMP JUMPDEST JUMPDEST DUP2 MLOAD PUSH2 0x4BE DUP5 DUP3 PUSH1 0x20 DUP7 ADD PUSH2 0x432 JUMP JUMPDEST SWAP2 POP POP SWAP3 SWAP2 POP POP JUMP JUMPDEST PUSH0 DUP2 SWAP1 POP SWAP2 SWAP1 POP JUMP JUMPDEST PUSH2 0x4D9 DUP2 PUSH2 0x4C7 JUMP JUMPDEST DUP2 EQ PUSH2 0x4E3 JUMPI PUSH0 DUP1 REVERT JUMPDEST POP JUMP JUMPDEST PUSH0 DUP2 MLOAD SWAP1 POP PUSH2 0x4F4 DUP2 PUSH2 0x4D0 JUMP JUMPDEST SWAP3 SWAP2 POP POP JUMP JUMPDEST PUSH0 DUP1 PUSH1 0x40 DUP4 DUP6 SUB SLT ISZERO PUSH2 0x510 JUMPI PUSH2 0x50F PUSH2 0x315 JUMP JUMPDEST JUMPDEST PUSH0 DUP4 ADD MLOAD PUSH8 0xFFFFFFFFFFFFFFFF DUP2 GT ISZERO PUSH2 0x52D JUMPI PUSH2 0x52C PUSH2 0x319 JUMP JUMPDEST JUMPDEST PUSH2 0x539 DUP6 DUP3 DUP7 ADD PUSH2 0x49A JUMP JUMPDEST SWAP3 POP POP PUSH1 0x20 PUSH2 0x54A DUP6 DUP3 DUP7 ADD PUSH2 0x4E6 JUMP JUMPDEST SWAP2 POP POP SWAP3 POP SWAP3 SWAP1 POP JUMP JUMPDEST PUSH0 DUP3 DUP3 MSTORE PUSH1 0x20 DUP3 ADD SWAP1 POP SWAP3 SWAP2 POP POP JUMP JUMPDEST PUSH32 0x4451353030300000000000000000000000000000000000000000000000000000 PUSH0 DUP3 ADD MSTORE POP JUMP JUMPDEST PUSH0 PUSH2 0x598 PUSH1 0x6 DUP4 PUSH2 0x554 JUMP JUMPDEST SWAP2 POP PUSH2 0x5A3 DUP3 PUSH2 0x564 JUMP JUMPDEST PUSH1 0x20 DUP3 ADD SWAP1 POP SWAP2 SWAP1 POP JUMP JUMPDEST PUSH0 PUSH1 0x20 DUP3 ADD SWAP1 POP DUP2 DUP2 SUB PUSH0 DUP4 ADD MSTORE PUSH2 0x5C5 DUP2 PUSH2 0x58C JUMP JUMPDEST SWAP1 POP SWAP2 SWAP1 POP JUMP JUMPDEST PUSH32 0x4451353030310000000000000000000000000000000000000000000000000000 PUSH0 DUP3 ADD MSTORE POP JUMP JUMPDEST PUSH0 PUSH2 0x600 PUSH1 0x6 DUP4 PUSH2 0x554 JUMP JUMPDEST SWAP2 POP PUSH2 0x60B DUP3 PUSH2 0x5CC JUMP JUMPDEST PUSH1 0x20 DUP3 ADD SWAP1 POP SWAP2 SWAP1 POP JUMP JUMPDEST PUSH0 PUSH1 0x20 DUP3 ADD SWAP1 POP DUP2 DUP2 SUB PUSH0 DUP4 ADD MSTORE PUSH2 0x62D DUP2 PUSH2 0x5F4 JUMP JUMPDEST SWAP1 POP SWAP2 SWAP1 POP JUMP JUMPDEST PUSH32 0x4451353030320000000000000000000000000000000000000000000000000000 PUSH0 DUP3 ADD MSTORE POP JUMP JUMPDEST PUSH0 PUSH2 0x668 PUSH1 0x6 DUP4 PUSH2 0x554 JUMP JUMPDEST SWAP2 POP PUSH2 0x673 DUP3 PUSH2 0x634 JUMP JUMPDEST PUSH1 0x20 DUP3 ADD SWAP1 POP SWAP2 SWAP1 POP JUMP JUMPDEST PUSH0 PUSH1 0x20 DUP3 ADD SWAP1 POP DUP2 DUP2 SUB PUSH0 DUP4 ADD MSTORE PUSH2 0x695 DUP2 PUSH2 0x65C JUMP JUMPDEST SWAP1 POP SWAP2 SWAP1 POP JUMP JUMPDEST PUSH32 0x4E487B7100000000000000000000000000000000000000000000000000000000 PUSH0 MSTORE PUSH1 0x32 PUSH1 0x4 MSTORE PUSH1 0x24 PUSH0 REVERT JUMPDEST PUSH32 0x4451353030330000000000000000000000000000000000000000000000000000 PUSH0 DUP3 ADD MSTORE POP JUMP JUMPDEST PUSH0 PUSH2 0x6FD PUSH1 0x6 DUP4 PUSH2 0x554 JUMP JUMPDEST SWAP2 POP PUSH2 0x708 DUP3 PUSH2 0x6C9 JUMP JUMPDEST PUSH1 0x20 DUP3 ADD SWAP1 POP SWAP2 SWAP1 POP JUMP JUMPDEST PUSH0 PUSH1 0x20 DUP3 ADD SWAP1 POP DUP2 DUP2 SUB PUSH0 DUP4 ADD MSTORE PUSH2 0x72A DUP2 PUSH2 0x6F1 JUMP JUMPDEST SWAP1 POP SWAP2 SWAP1 POP JUMP JUMPDEST PUSH2 0xB9D DUP1 PUSH2 0x73E PUSH0 CODECOPY PUSH0 RETURN INVALID PUSH1 0x80 PUSH1 0x40 MSTORE CALLVALUE DUP1 ISZERO PUSH2 0xF JUMPI PUSH0 DUP1 REVERT JUMPDEST POP PUSH1 0x4 CALLDATASIZE LT PUSH2 0x7B JUMPI PUSH0 CALLDATALOAD PUSH1 0xE0 SHR DUP1 PUSH4 0x42CDE4E8 GT PUSH2 0x59 JUMPI DUP1 PUSH4 0x42CDE4E8 EQ PUSH2 0xFD JUMPI DUP1 PUSH4 0xA67DD509 EQ PUSH2 0x11B JUMPI DUP1 PUSH4 0xAFFED0E0 EQ PUSH2 0x14B JUMPI DUP1 PUSH4 0xED516D51 EQ PUSH2 0x169 JUMPI PUSH2 0x7B JUMP JUMPDEST DUP1 PUSH4 0x25E7C27 EQ PUSH2 0x7F JUMPI DUP1 PUSH4 0xDB02622 EQ PUSH2 0xAF JUMPI DUP1 PUSH4 0x2F54BF6E EQ PUSH2 0xCD JUMPI JUMPDEST PUSH0 DUP1 REVERT JUMPDEST PUSH2 0x99 PUSH1 0x4 DUP1 CALLDATASIZE SUB DUP2 ADD SWAP1 PUSH2 0x94 SWAP2 SWAP1 PUSH2 0x4B2 JUMP JUMPDEST PUSH2 0x185 JUMP JUMPDEST PUSH1 0x40 MLOAD PUSH2 0xA6 SWAP2 SWAP1 PUSH2 0x51C JUMP JUMPDEST PUSH1 0x40 MLOAD DUP1 SWAP2 SUB SWAP1 RETURN JUMPDEST PUSH2 0xB7 PUSH2 0x1BF JUMP JUMPDEST PUSH1 0x40 MLOAD PUSH2 0xC4 SWAP2 SWAP1 PUSH2 0x544 JUMP JUMPDEST PUSH1 0x40 MLOAD DUP1 SWAP2 SUB SWAP1 RETURN JUMPDEST PUSH2 0xE7 PUSH1 0x4 DUP1 CALLDATASIZE SUB DUP2 ADD SWAP1 PUSH2 0xE2 SWAP2 SWAP1 PUSH2 0x587 JUMP JUMPDEST PUSH2 0x1C5 JUMP JUMPDEST PUSH1 0x40 MLOAD PUSH2 0xF4 SWAP2 SWAP1 PUSH2 0x5CC JUMP JUMPDEST PUSH1 0x40 MLOAD DUP1 SWAP2 SUB SWAP1 RETURN JUMPDEST PUSH2 0x105 PUSH2 0x1E2 JUMP JUMPDEST PUSH1 0x40 MLOAD PUSH2 0x112 SWAP2 SWAP1 PUSH2 0x544 JUMP JUMPDEST PUSH1 0x40 MLOAD DUP1 SWAP2 SUB SWAP1 RETURN JUMPDEST PUSH2 0x135 PUSH1 0x4 DUP1 CALLDATASIZE SUB DUP2 ADD SWAP1 PUSH2 0x130 SWAP2 SWAP1 PUSH2 0x721 JUMP JUMPDEST PUSH2 0x1E8 JUMP JUMPDEST PUSH1 0x40 MLOAD PUSH2 0x142 SWAP2 SWAP1 PUSH2 0x7CC JUMP JUMPDEST PUSH1 0x40 MLOAD DUP1 SWAP2 SUB SWAP1 RETURN JUMPDEST PUSH2 0x153 PUSH2 0x22F JUMP JUMPDEST PUSH1 0x40 MLOAD PUSH2 0x160 SWAP2 SWAP1 PUSH2 0x544 JUMP JUMPDEST PUSH1 0x40 MLOAD DUP1 SWAP2 SUB SWAP1 RETURN JUMPDEST PUSH2 0x183 PUSH1 0x4 DUP1 CALLDATASIZE SUB DUP2 ADD SWAP1 PUSH2 0x17E SWAP2 SWAP1 PUSH2 0x80F JUMP JUMPDEST PUSH2 0x235 JUMP JUMPDEST STOP JUMPDEST PUSH0 DUP2 DUP2 SLOAD DUP2 LT PUSH2 0x193 JUMPI PUSH0 DUP1 REVERT JUMPDEST SWAP1 PUSH0 MSTORE PUSH1 0x20 PUSH0 KECCAK256 ADD PUSH0 SWAP2 POP SLOAD SWAP1 PUSH2 0x100 EXP SWAP1 DIV PUSH20 0xFFFFFFFFFFFFFFFFFFFFFFFFFFFFFFFFFFFFFFFF AND DUP2 JUMP JUMPDEST PUSH1 0x2 SLOAD DUP2 JUMP JUMPDEST PUSH1 0x1 PUSH1 0x20 MSTORE DUP1 PUSH0 MSTORE PUSH1 0x40 PUSH0 KECCAK256 PUSH0 SWAP2 POP SLOAD SWAP1 PUSH2 0x100 EXP SWAP1 DIV PUSH1 0xFF AND DUP2 JUMP JUMPDEST PUSH1 0x3 SLOAD DUP2 JUMP JUMPDEST PUSH0 DUP1 DUP7 DUP7 DUP7 DUP1 MLOAD SWAP1 PUSH1 0x20 ADD KECCAK256 DUP7 DUP7 PUSH1 0x40 MLOAD PUSH1 0x20 ADD PUSH2 0x20A SWAP6 SWAP5 SWAP4 SWAP3 SWAP2 SWAP1 PUSH2 0x869 JUMP JUMPDEST PUSH1 0x40 MLOAD PUSH1 0x20 DUP2 DUP4 SUB SUB DUP2 MSTORE SWAP1 PUSH1 0x40 MSTORE DUP1 MLOAD SWAP1 PUSH1 0x20 ADD KECCAK256 SWAP1 POP DUP1 SWAP2 POP POP SWAP6 SWAP5 POP POP POP POP POP JUMP JUMPDEST PUSH1 0x4 SLOAD DUP2 JUMP JUMPDEST PUSH0 PUSH1 0x3 SLOAD SWAP1 POP PUSH0 DUP2 GT PUSH2 0x27D JUMPI PUSH1 0x40 MLOAD PUSH32 0x8C379A000000000000000000000000000000000000000000000000000000000 DUP2 MSTORE PUSH1 0x4 ADD PUSH2 0x274 SWAP1 PUSH2 0x914 JUMP JUMPDEST PUSH1 0x40 MLOAD DUP1 SWAP2 SUB SWAP1 REVERT JUMPDEST PUSH1 0x41 DUP2 PUSH2 0x28A SWAP2 SWAP1 PUSH2 0x95F JUMP JUMPDEST DUP3 MLOAD LT ISZERO PUSH2 0x2CD JUMPI PUSH1 0x40 MLOAD PUSH32 0x8C379A000000000000000000000000000000000000000000000000000000000 DUP2 MSTORE PUSH1 0x4 ADD PUSH2 0x2C4 SWAP1 PUSH2 0x9EA JUMP JUMPDEST PUSH1 0x40 MLOAD DUP1 SWAP2 SUB SWAP1 REVERT JUMPDEST PUSH0 DUP1 DUP1 PUSH0 DUP1 PUSH0 JUMPDEST DUP7 DUP2 LT ISZERO PUSH2 0x436 JUMPI PUSH2 0x2E6 DUP9 DUP3 PUSH2 0x441 JUMP JUMPDEST DUP1 SWAP5 POP DUP2 SWAP6 POP DUP3 SWAP7 POP POP POP POP PUSH1 0x1 DUP10 PUSH1 0x40 MLOAD PUSH1 0x20 ADD PUSH2 0x305 SWAP2 SWAP1 PUSH2 0xA7C JUMP JUMPDEST PUSH1 0x40 MLOAD PUSH1 0x20 DUP2 DUP4 SUB SUB DUP2 MSTORE SWAP1 PUSH1 0x40 MSTORE DUP1 MLOAD SWAP1 PUSH1 0x20 ADD KECCAK256 DUP6 DUP6 DUP6 PUSH1 0x40 MLOAD PUSH0 DUP2 MSTORE PUSH1 0x20 ADD PUSH1 0x40 MSTORE PUSH1 0x40 MLOAD PUSH2 0x33A SWAP5 SWAP4 SWAP3 SWAP2 SWAP1 PUSH2 0xABC JUMP JUMPDEST PUSH1 0x20 PUSH1 0x40 MLOAD PUSH1 0x20 DUP2 SUB SWAP1 DUP1 DUP5 SUB SWAP1 DUP6 GAS STATICCALL ISZERO DUP1 ISZERO PUSH2 0x35A JUMPI RETURNDATASIZE PUSH0 DUP1 RETURNDATACOPY RETURNDATASIZE PUSH0 REVERT JUMPDEST POP POP POP PUSH1 0x20 PUSH1 0x40 MLOAD SUB MLOAD SWAP5 POP DUP6 PUSH20 0xFFFFFFFFFFFFFFFFFFFFFFFFFFFFFFFFFFFFFFFF AND DUP6 PUSH20 0xFFFFFFFFFFFFFFFFFFFFFFFFFFFFFFFFFFFFFFFF AND GT DUP1 ISZERO PUSH2 0x3E7 JUMPI POP PUSH1 0x1 PUSH0 DUP7 PUSH20 0xFFFFFFFFFFFFFFFFFFFFFFFFFFFFFFFFFFFFFFFF AND PUSH20 0xFFFFFFFFFFFFFFFFFFFFFFFFFFFFFFFFFFFFFFFF AND DUP2 MSTORE PUSH1 0x20 ADD SWAP1 DUP2 MSTORE PUSH1 0x20 ADD PUSH0 KECCAK256 PUSH0 SWAP1 SLOAD SWAP1 PUSH2 0x100 EXP SWAP1 DIV PUSH1 0xFF AND JUMPDEST PUSH2 0x426 JUMPI PUSH1 0x40 MLOAD PUSH32 0x8C379A000000000000000000000000000000000000000000000000000000000 DUP2 MSTORE PUSH1 0x4 ADD PUSH2 0x41D SWAP1 PUSH2 0xB49 JUMP JUMPDEST PUSH1 0x40 MLOAD DUP1 SWAP2 SUB SWAP1 REVERT JUMPDEST DUP5 SWAP6 POP DUP1 DUP1 PUSH1 0x1 ADD SWAP2 POP POP PUSH2 0x2D4 JUMP JUMPDEST POP POP POP POP POP POP POP POP POP JUMP JUMPDEST PUSH0 DUP1 PUSH0 DUP4 PUSH1 0x41 MUL PUSH1 0x20 DUP2 ADD DUP7 ADD MLOAD SWAP3 POP PUSH1 0x40 DUP2 ADD DUP7 ADD MLOAD SWAP2 POP PUSH1 0xFF PUSH1 0x41 DUP3 ADD DUP8 ADD MLOAD AND SWAP4 POP POP SWAP3 POP SWAP3 POP SWAP3 JUMP JUMPDEST PUSH0 PUSH1 0x40 MLOAD SWAP1 POP SWAP1 JUMP JUMPDEST PUSH0 DUP1 REVERT JUMPDEST PUSH0 DUP1 REVERT JUMPDEST PUSH0 DUP2 SWAP1 POP SWAP2 SWAP1 POP JUMP JUMPDEST PUSH2 0x491 DUP2 PUSH2 0x47F JUMP JUMPDEST DUP2 EQ PUSH2 0x49B JUMPI PUSH0 DUP1 REVERT JUMPDEST POP JUMP JUMPDEST PUSH0 DUP2 CALLDATALOAD SWAP1 POP PUSH2 0x4AC DUP2 PUSH2 0x488 JUMP JUMPDEST SWAP3 SWAP2 POP POP JUMP JUMPDEST PUSH0 PUSH1 0x20 DUP3 DUP5 SUB SLT ISZERO PUSH2 0x4C7 JUMPI PUSH2 0x4C6 PUSH2 0x477 JUMP JUMPDEST JUMPDEST PUSH0 PUSH2 0x4D4 DUP5 DUP3 DUP6 ADD PUSH2 0x49E JUMP JUMPDEST SWAP2 POP POP SWAP3 SWAP2 POP POP JUMP JUMPDEST PUSH0 PUSH20 0xFFFFFFFFFFFFFFFFFFFFFFFFFFFFFFFFFFFFFFFF DUP3 AND SWAP1 POP SWAP2 SWAP1 POP JUMP JUMPDEST PUSH0 PUSH2 0x506 DUP3 PUSH2 0x4DD JUMP JUMPDEST SWAP1 POP SWAP2 SWAP1 POP JUMP JUMPDEST PUSH2 0x516 DUP2 PUSH2 0x4FC JUMP JUMPDEST DUP3 MSTORE POP POP JUMP JUMPDEST PUSH0 PUSH1 0x20 DUP3 ADD SWAP1 POP PUSH2 0x52F PUSH0 DUP4 ADD DUP5 PUSH2 0x50D JUMP JUMPDEST SWAP3 SWAP2 POP POP JUMP JUMPDEST PUSH2 0x53E DUP2 PUSH2 0x47F JUMP JUMPDEST DUP3 MSTORE POP POP JUMP JUMPDEST PUSH0 PUSH1 0x20 DUP3 ADD SWAP1 POP PUSH2 0x557 PUSH0 DUP4 ADD DUP5 PUSH2 0x535 JUMP JUMPDEST SWAP3 SWAP2 POP POP JUMP JUMPDEST PUSH2 0x566 DUP2 PUSH2 0x4FC JUMP JUMPDEST DUP2 EQ PUSH2 0x570 JUMPI PUSH0 DUP1 REVERT JUMPDEST POP JUMP JUMPDEST PUSH0 DUP2 CALLDATALOAD SWAP1 POP PUSH2 0x581 DUP2 PUSH2 0x55D JUMP JUMPDEST SWAP3 SWAP2 POP POP JUMP JUMPDEST PUSH0 PUSH1 0x20 DUP3 DUP5 SUB SLT ISZERO PUSH2 0x59C JUMPI PUSH2 0x59B PUSH2 0x477 JUMP JUMPDEST JUMPDEST PUSH0 PUSH2 0x5A9 DUP5 DUP3 DUP6 ADD PUSH2 0x573 JUMP JUMPDEST SWAP2 POP POP SWAP3 SWAP2 POP POP JUMP JUMPDEST PUSH0 DUP2 ISZERO ISZERO SWAP1 POP SWAP2 SWAP1 POP JUMP JUMPDEST PUSH2 0x5C6 DUP2 PUSH2 0x5B2 JUMP JUMPDEST DUP3 MSTORE POP POP JUMP JUMPDEST PUSH0 PUSH1 0x20 DUP3 ADD SWAP1 POP PUSH2 0x5DF PUSH0 DUP4 ADD DUP5 PUSH2 0x5BD JUMP JUMPDEST SWAP3 SWAP2 POP POP JUMP JUMPDEST PUSH0 DUP1 REVERT JUMPDEST PUSH0 DUP1 REVERT JUMPDEST PUSH0 PUSH1 0x1F NOT PUSH1 0x1F DUP4 ADD AND SWAP1 POP SWAP2 SWAP1 POP JUMP JUMPDEST PUSH32 0x4E487B7100000000000000000000000000000000000000000000000000000000 PUSH0 MSTORE PUSH1 0x41 PUSH1 0x4 MSTORE PUSH1 0x24 PUSH0 REVERT JUMPDEST PUSH2 0x633 DUP3 PUSH2 0x5ED JUMP JUMPDEST DUP2 ADD DUP2 DUP2 LT PUSH8 0xFFFFFFFFFFFFFFFF DUP3 GT OR ISZERO PUSH2 0x652 JUMPI PUSH2 0x651 PUSH2 0x5FD JUMP JUMPDEST JUMPDEST DUP1 PUSH1 0x40 MSTORE POP POP POP JUMP JUMPDEST PUSH0 PUSH2 0x664 PUSH2 0x46E JUMP JUMPDEST SWAP1 POP PUSH2 0x670 DUP3 DUP3 PUSH2 0x62A JUMP JUMPDEST SWAP2 SWAP1 POP JUMP JUMPDEST PUSH0 PUSH8 0xFFFFFFFFFFFFFFFF DUP3 GT ISZERO PUSH2 0x68F JUMPI PUSH2 0x68E PUSH2 0x5FD JUMP JUMPDEST JUMPDEST PUSH2 0x698 DUP3 PUSH2 0x5ED JUMP JUMPDEST SWAP1 POP PUSH1 0x20 DUP2 ADD SWAP1 POP SWAP2 SWAP1 POP JUMP JUMPDEST DUP3 DUP2 DUP4 CALLDATACOPY PUSH0 DUP4 DUP4 ADD MSTORE POP POP POP JUMP JUMPDEST PUSH0 PUSH2 0x6C5 PUSH2 0x6C0 DUP5 PUSH2 0x675 JUMP JUMPDEST PUSH2 0x65B JUMP JUMPDEST SWAP1 POP DUP3 DUP2 MSTORE PUSH1 0x20 DUP2 ADD DUP5 DUP5 DUP5 ADD GT ISZERO PUSH2 0x6E1 JUMPI PUSH2 0x6E0 PUSH2 0x5E9 JUMP JUMPDEST JUMPDEST PUSH2 0x6EC DUP5 DUP3 DUP6 PUSH2 0x6A5 JUMP JUMPDEST POP SWAP4 SWAP3 POP POP POP JUMP JUMPDEST PUSH0 DUP3 PUSH1 0x1F DUP4 ADD SLT PUSH2 0x708 JUMPI PUSH2 0x707 PUSH2 0x5E5 JUMP JUMPDEST JUMPDEST DUP2 CALLDATALOAD PUSH2 0x718 DUP5 DUP3 PUSH1 0x20 DUP7 ADD PUSH2 0x6B3 JUMP JUMPDEST SWAP2 POP POP SWAP3 SWAP2 POP POP JUMP JUMPDEST PUSH0 DUP1 PUSH0 DUP1 PUSH0 PUSH1 0xA0 DUP7 DUP9 SUB SLT ISZERO PUSH2 0x73A JUMPI PUSH2 0x739 PUSH2 0x477 JUMP JUMPDEST JUMPDEST PUSH0 PUSH2 0x747 DUP9 DUP3 DUP10 ADD PUSH2 0x573 JUMP JUMPDEST SWAP6 POP POP PUSH1 0x20 PUSH2 0x758 DUP9 DUP3 DUP10 ADD PUSH2 0x49E JUMP JUMPDEST SWAP5 POP POP PUSH1 0x40 DUP7 ADD CALLDATALOAD PUSH8 0xFFFFFFFFFFFFFFFF DUP2 GT ISZERO PUSH2 0x779 JUMPI PUSH2 0x778 PUSH2 0x47B JUMP JUMPDEST JUMPDEST PUSH2 0x785 DUP9 DUP3 DUP10 ADD PUSH2 0x6F4 JUMP JUMPDEST SWAP4 POP POP PUSH1 0x60 PUSH2 0x796 DUP9 DUP3 DUP10 ADD PUSH2 0x49E JUMP JUMPDEST SWAP3 POP POP PUSH1 0x80 PUSH2 0x7A7 DUP9 DUP3 DUP10 ADD PUSH2 0x49E JUMP JUMPDEST SWAP2 POP POP SWAP3 SWAP6 POP SWAP3 SWAP6 SWAP1 SWAP4 POP JUMP JUMPDEST PUSH0 DUP2 SWAP1 POP SWAP2 SWAP1 POP JUMP JUMPDEST PUSH2 0x7C6 DUP2 PUSH2 0x7B4 JUMP JUMPDEST DUP3 MSTORE POP POP JUMP JUMPDEST PUSH0 PUSH1 0x20 DUP3 ADD SWAP1 POP PUSH2 0x7DF PUSH0 DUP4 ADD DUP5 PUSH2 0x7BD JUMP JUMPDEST SWAP3 SWAP2 POP POP JUMP JUMPDEST PUSH2 0x7EE DUP2 PUSH2 0x7B4 JUMP JUMPDEST DUP2 EQ PUSH2 0x7F8 JUMPI PUSH0 DUP1 REVERT JUMPDEST POP JUMP JUMPDEST PUSH0 DUP2 CALLDATALOAD SWAP1 POP PUSH2 0x809 DUP2 PUSH2 0x7E5 JUMP JUMPDEST SWAP3 SWAP2 POP POP JUMP JUMPDEST PUSH0 DUP1 PUSH1 0x40 DUP4 DUP6 SUB SLT ISZERO PUSH2 0x825 JUMPI PUSH2 0x824 PUSH2 0x477 JUMP JUMPDEST JUMPDEST PUSH0 PUSH2 0x832 DUP6 DUP3 DUP7 ADD PUSH2 0x7FB JUMP JUMPDEST SWAP3 POP POP PUSH1 0x20 DUP4 ADD CALLDATALOAD PUSH8 0xFFFFFFFFFFFFFFFF DUP2 GT ISZERO PUSH2 0x853 JUMPI PUSH2 0x852 PUSH2 0x47B JUMP JUMPDEST JUMPDEST PUSH2 0x85F DUP6 DUP3 DUP7 ADD PUSH2 0x6F4 JUMP JUMPDEST SWAP2 POP POP SWAP3 POP SWAP3 SWAP1 POP JUMP JUMPDEST PUSH0 PUSH1 0xA0 DUP3 ADD SWAP1 POP PUSH2 0x87C PUSH0 DUP4 ADD DUP9 PUSH2 0x50D JUMP JUMPDEST PUSH2 0x889 PUSH1 0x20 DUP4 ADD DUP8 PUSH2 0x535 JUMP JUMPDEST PUSH2 0x896 PUSH1 0x40 DUP4 ADD DUP7 PUSH2 0x7BD JUMP JUMPDEST PUSH2 0x8A3 PUSH1 0x60 DUP4 ADD DUP6 PUSH2 0x535 JUMP JUMPDEST PUSH2 0x8B0 PUSH1 0x80 DUP4 ADD DUP5 PUSH2 0x535 JUMP JUMPDEST SWAP7 SWAP6 POP POP POP POP POP POP JUMP JUMPDEST PUSH0 DUP3 DUP3 MSTORE PUSH1 0x20 DUP3 ADD SWAP1 POP SWAP3 SWAP2 POP POP JUMP JUMPDEST PUSH32 0x4451353030350000000000000000000000000000000000000000000000000000 PUSH0 DUP3 ADD MSTORE POP JUMP JUMPDEST PUSH0 PUSH2 0x8FE PUSH1 0x6 DUP4 PUSH2 0x8BA JUMP JUMPDEST SWAP2 POP PUSH2 0x909 DUP3 PUSH2 0x8CA JUMP JUMPDEST PUSH1 0x20 DUP3 ADD SWAP1 POP SWAP2 SWAP1 POP JUMP JUMPDEST PUSH0 PUSH1 0x20 DUP3 ADD SWAP1 POP DUP2 DUP2 SUB PUSH0 DUP4 ADD MSTORE PUSH2 0x92B DUP2 PUSH2 0x8F2 JUMP JUMPDEST SWAP1 POP SWAP2 SWAP1 POP JUMP JUMPDEST PUSH32 0x4E487B7100000000000000000000000000000000000000000000000000000000 PUSH0 MSTORE PUSH1 0x11 PUSH1 0x4 MSTORE PUSH1 0x24 PUSH0 REVERT JUMPDEST PUSH0 PUSH2 0x969 DUP3 PUSH2 0x47F JUMP JUMPDEST SWAP2 POP PUSH2 0x974 DUP4 PUSH2 0x47F JUMP JUMPDEST SWAP3 POP DUP3 DUP3 MUL PUSH2 0x982 DUP2 PUSH2 0x47F JUMP JUMPDEST SWAP2 POP DUP3 DUP3 DIV DUP5 EQ DUP4 ISZERO OR PUSH2 0x999 JUMPI PUSH2 0x998 PUSH2 0x932 JUMP JUMPDEST JUMPDEST POP SWAP3 SWAP2 POP POP JUMP JUMPDEST PUSH32 0x4451353030360000000000000000000000000000000000000000000000000000 PUSH0 DUP3 ADD MSTORE POP JUMP JUMPDEST PUSH0 PUSH2 0x9D4 PUSH1 0x6 DUP4 PUSH2 0x8BA JUMP JUMPDEST SWAP2 POP PUSH2 0x9DF DUP3 PUSH2 0x9A0 JUMP JUMPDEST PUSH1 0x20 DUP3 ADD SWAP1 POP SWAP2 SWAP1 POP JUMP JUMPDEST PUSH0 PUSH1 0x20 DUP3 ADD SWAP1 POP DUP2 DUP2 SUB PUSH0 DUP4 ADD MSTORE PUSH2 0xA01 DUP2 PUSH2 0x9C8 JUMP JUMPDEST SWAP1 POP SWAP2 SWAP1 POP JUMP JUMPDEST PUSH0 DUP2 SWAP1 POP SWAP3 SWAP2 POP POP JUMP JUMPDEST PUSH32 0x19457468657265756D205369676E6564204D6573736167653A0A333200000000 PUSH0 DUP3 ADD MSTORE POP JUMP JUMPDEST PUSH0 PUSH2 0xA46 PUSH1 0x1C DUP4 PUSH2 0xA08 JUMP JUMPDEST SWAP2 POP PUSH2 0xA51 DUP3 PUSH2 0xA12 JUMP JUMPDEST PUSH1 0x1C DUP3 ADD SWAP1 POP SWAP2 SWAP1 POP JUMP JUMPDEST PUSH0 DUP2 SWAP1 POP SWAP2 SWAP1 POP JUMP JUMPDEST PUSH2 0xA76 PUSH2 0xA71 DUP3 PUSH2 0x7B4 JUMP JUMPDEST PUSH2 0xA5C JUMP JUMPDEST DUP3 MSTORE POP POP JUMP JUMPDEST PUSH0 PUSH2 0xA86 DUP3 PUSH2 0xA3A JUMP JUMPDEST SWAP2 POP PUSH2 0xA92 DUP3 DUP5 PUSH2 0xA65 JUMP JUMPDEST PUSH1 0x20 DUP3 ADD SWAP2 POP DUP2 SWAP1 POP SWAP3 SWAP2 POP POP JUMP JUMPDEST PUSH0 PUSH1 0xFF DUP3 AND SWAP1 POP SWAP2 SWAP1 POP JUMP JUMPDEST PUSH2 0xAB6 DUP2 PUSH2 0xAA1 JUMP JUMPDEST DUP3 MSTORE POP POP JUMP JUMPDEST PUSH0 PUSH1 0x80 DUP3 ADD SWAP1 POP PUSH2 0xACF PUSH0 DUP4 ADD DUP8 PUSH2 0x7BD JUMP JUMPDEST PUSH2 0xADC PUSH1 0x20 DUP4 ADD DUP7 PUSH2 0xAAD JUMP JUMPDEST PUSH2 0xAE9 PUSH1 0x40 DUP4 ADD DUP6 PUSH2 0x7BD JUMP JUMPDEST PUSH2 0xAF6 PUSH1 0x60 DUP4 ADD DUP5 PUSH2 0x7BD JUMP JUMPDEST SWAP6 SWAP5 POP POP POP POP POP JUMP JUMPDEST PUSH32 0x4451353030370000000000000000000000000000000000000000000000000000 PUSH0 DUP3 ADD MSTORE POP JUMP JUMPDEST PUSH0 PUSH2 0xB33 PUSH1 0x6 DUP4 PUSH2 0x8BA JUMP JUMPDEST SWAP2 POP PUSH2 0xB3E DUP3 PUSH2 0xAFF JUMP JUMPDEST PUSH1 0x20 DUP3 ADD SWAP1 POP SWAP2 SWAP1 POP JUMP JUMPDEST PUSH0 PUSH1 0x20 DUP3 ADD SWAP1 POP DUP2 DUP2 SUB PUSH0 DUP4 ADD MSTORE PUSH2 0xB60 DUP2 PUSH2 0xB27 JUMP JUMPDEST SWAP1 POP SWAP2 SWAP1 POP JUMP INVALID LOG2 PUSH5 0x6970667358 0x22 SLT KECCAK256 PUSH3 0xA0BB1A 0xB0 LOG2 COINBASE 0x2C 0xD 0xAA 0xD8 LOG2 PUSH28 0xA3BBA1FA6952FB7C9F365C368082195040C94364736F6C6343000819 STOP CALLER "
				},
				"gasEstimates": {
					"creation": {
						"codeDepositCost": "594600",
						"executionCost": "infinite",
						"totalCost": "infinite"
					},
					"external": {
						"checkSignatures(bytes32,bytes)": "infinite",
						"encodeTransactionData(address,uint256,bytes,uint256,uint256)": "infinite",
						"isOwner(address)": "2878",
						"nonce()": "2469",
						"ownerCount()": "2448",
						"owners(uint256)": "4944",
						"threshold()": "2425"
					},
					"internal": {
						"_setupOwners(address[] memory,uint256)": "infinite",
						"signatureSplit(bytes memory,uint256)": "infinite"
					}
				},
				"methodIdentifiers": {
					"checkSignatures(bytes32,bytes)": "ed516d51",
					"encodeTransactionData(address,uint256,bytes,uint256,uint256)": "a67dd509",
					"isOwner(address)": "2f54bf6e",
					"nonce()": "affed0e0",
					"ownerCount()": "0db02622",
					"owners(uint256)": "025e7c27",
					"threshold()": "42cde4e8"
				}
			},
			"storageLayout": {
				"storage": [
					{
						"astId": 4,
						"contract": "L2/Task2/MultisigWallet.sol:MultisigWallet",
						"label": "owners",
						"offset": 0,
						"slot": "0",
						"type": "t_array(t_address)dyn_storage"
					},
					{
						"astId": 8,
						"contract": "L2/Task2/MultisigWallet.sol:MultisigWallet",
						"label": "isOwner",
						"offset": 0,
						"slot": "1",
						"type": "t_mapping(t_address,t_bool)"
					},
					{
						"astId": 10,
						"contract": "L2/Task2/MultisigWallet.sol:MultisigWallet",
						"label": "ownerCount",
						"offset": 0,
						"slot": "2",
						"type": "t_uint256"
					},
					{
						"astId": 12,
						"contract": "L2/Task2/MultisigWallet.sol:MultisigWallet",
						"label": "threshold",
						"offset": 0,
						"slot": "3",
						"type": "t_uint256"
					},
					{
						"astId": 14,
						"contract": "L2/Task2/MultisigWallet.sol:MultisigWallet",
						"label": "nonce",
						"offset": 0,
						"slot": "4",
						"type": "t_uint256"
					}
				],
				"types": {
					"t_address": {
						"encoding": "inplace",
						"label": "address",
						"numberOfBytes": "20"
					},
					"t_array(t_address)dyn_storage": {
						"base": "t_address",
						"encoding": "dynamic_array",
						"label": "address[]",
						"numberOfBytes": "32"
					},
					"t_bool": {
						"encoding": "inplace",
						"label": "bool",
						"numberOfBytes": "1"
					},
					"t_mapping(t_address,t_bool)": {
						"encoding": "mapping",
						"key": "t_address",
						"label": "mapping(address => bool)",
						"numberOfBytes": "32",
						"value": "t_bool"
					},
					"t_uint256": {
						"encoding": "inplace",
						"label": "uint256",
						"numberOfBytes": "32"
					}
				}
			},
			"userdoc": {
				"kind": "user",
				"methods": {},
				"version": 1
			}
		}
	}
}