{
	"data": {
		"bytecode": {
			"linkReferences": {},
			"object": "60a06040523073ffffffffffffffffffffffffffffffffffffffff1660809073ffffffffffffffffffffffffffffffffffffffff168152503480156041575f80fd5b50608051615ec96100685f395f8181613568015281816135bd01526138470152615ec95ff3fe608060405260043610610292575f3560e01c806375b238fc11610159578063b9d49c2a116100c0578063e2bbb15811610079578063e2bbb15814610962578063f35e4a6e1461098a578063f5485d32146109b2578063fad07ece146109da578063fe31311214610a02578063ff42335714610a4457610292565b8063b9d49c2a14610882578063bed66c08146108ac578063c713aa94146108d4578063d547741f146108fc578063d86c044414610924578063de065caa1461094c57610292565b8063a6707ee411610112578063a6707ee4146107a8578063a72d5bf4146107b2578063ab5e124a146107dc578063ad3cb1cc14610806578063b6d9d91914610830578063b908afa81461085857610292565b806375b238fc1461069e5780638dbb1e3a146106c85780638ff095f91461070457806391d148541461071a5780639e2c8a5b14610756578063a217fddf1461077e57610292565b8063386be144116101fd57806351eb05a6116101b657806351eb05a6146105e057806352d1902d146106085780635bb6d007146106325780635c975abb146106485780636155e3de14610672578063630b5ba11461068857610292565b8063386be144146104d05780633b82783e146104fa57806341721ab71461053657806348cd4cb1146105725780634ec81af11461059c5780634f1ef286146105c457610292565b80632e1a7d4d1161024f5780632e1a7d4d146103c85780632f2ff15d146103f05780632f3ffb9f1461041857806336568abe1461044257806337849b3c1461046a578063379607f5146104a857610292565b806301ffc9a71461029657806302559004146102d2578063081e3eda146102fc578063083c6323146103265780631154823414610350578063248a9ca31461038c575b5f80fd5b3480156102a1575f80fd5b506102bc60048036038101906102b7919061435d565b610a81565b6040516102c991906143a2565b60405180910390f35b3480156102dd575f80fd5b506102e6610afa565b6040516102f391906143d3565b60405180910390f35b348015610307575f80fd5b50610310610b00565b60405161031d91906143d3565b60405180910390f35b348015610331575f80fd5b5061033a610b0c565b60405161034791906143d3565b60405180910390f35b34801561035b575f80fd5b5061037660048036038101906103719190614470565b610b12565b60405161038391906143d3565b60405180910390f35b348015610397575f80fd5b506103b260048036038101906103ad91906144e1565b610bb3565b6040516103bf919061451b565b60405180910390f35b3480156103d3575f80fd5b506103ee60048036038101906103e99190614534565b610bdd565b005b3480156103fb575f80fd5b506104166004803603810190610411919061455f565b610f6c565b005b348015610423575f80fd5b5061042c610f8e565b60405161043991906143a2565b60405180910390f35b34801561044d575f80fd5b506104686004803603810190610463919061455f565b610fa0565b005b348015610475575f80fd5b50610490600480360381019061048b9190614470565b61101b565b60405161049f9392919061459d565b60405180910390f35b3480156104b3575f80fd5b506104ce60048036038101906104c99190614534565b61104c565b005b3480156104db575f80fd5b506104e461124e565b6040516104f191906143d3565b60405180910390f35b348015610505575f80fd5b50610520600480360381019061051b9190614470565b611254565b60405161052d91906143d3565b60405180910390f35b348015610541575f80fd5b5061055c600480360381019061055791906145d2565b6112b1565b60405161056991906143d3565b60405180910390f35b34801561057d575f80fd5b50610586611442565b60405161059391906143d3565b60405180910390f35b3480156105a7575f80fd5b506105c260048036038101906105bd919061465d565b611447565b005b6105de60048036038101906105d991906147fd565b6116a0565b005b3480156105eb575f80fd5b5061060660048036038101906106019190614534565b6116bf565b005b348015610613575f80fd5b5061061c611988565b604051610629919061451b565b60405180910390f35b34801561063d575f80fd5b506106466119b9565b005b348015610653575f80fd5b5061065c611a79565b60405161066991906143a2565b60405180910390f35b34801561067d575f80fd5b50610686611a9b565b005b348015610693575f80fd5b5061069c611b5d565b005b3480156106a9575f80fd5b506106b2611b8a565b6040516106bf919061451b565b60405180910390f35b3480156106d3575f80fd5b506106ee60048036038101906106e99190614857565b611bae565b6040516106fb91906143d3565b60405180910390f35b34801561070f575f80fd5b50610718611cc3565b005b348015610725575f80fd5b50610740600480360381019061073b919061455f565b611d87565b60405161074d91906143a2565b60405180910390f35b348015610761575f80fd5b5061077c60048036038101906107779190614857565b611df8565b005b348015610789575f80fd5b506107926120cf565b60405161079f919061451b565b60405180910390f35b6107b06120d5565b005b3480156107bd575f80fd5b506107c66121e9565b6040516107d391906148f0565b60405180910390f35b3480156107e7575f80fd5b506107f061220f565b6040516107fd91906143a2565b60405180910390f35b348015610811575f80fd5b5061081a612222565b6040516108279190614969565b60405180910390f35b34801561083b575f80fd5b50610856600480360381019061085191906149b3565b61225b565b005b348015610863575f80fd5b5061086c61257f565b604051610879919061451b565b60405180910390f35b34801561088d575f80fd5b506108966125a3565b6040516108a391906143d3565b60405180910390f35b3480156108b7575f80fd5b506108d260048036038101906108cd9190614534565b6125a7565b005b3480156108df575f80fd5b506108fa60048036038101906108f59190614534565b61264b565b005b348015610907575f80fd5b50610922600480360381019061091d919061455f565b6126f1565b005b34801561092f575f80fd5b5061094a60048036038101906109459190614a2a565b612713565b005b348015610957575f80fd5b5061096061280b565b005b34801561096d575f80fd5b5061098860048036038101906109839190614857565b6128cd565b005b348015610995575f80fd5b506109b060048036038101906109ab9190614534565b612a30565b005b3480156109bd575f80fd5b506109d860048036038101906109d39190614a7a565b612ad6565b005b3480156109e5575f80fd5b50610a0060048036038101906109fb9190614aa5565b612baa565b005b348015610a0d575f80fd5b50610a286004803603810190610a239190614534565b612d19565b604051610a3b9796959493929190614b04565b60405180910390f35b348015610a4f575f80fd5b50610a6a6004803603810190610a659190614470565b612d85565b604051610a78929190614b71565b60405180910390f35b5f7f7965db0b000000000000000000000000000000000000000000000000000000007bffffffffffffffffffffffffffffffffffffffffffffffffffffffff1916827bffffffffffffffffffffffffffffffffffffffffffffffffffffffff19161480610af35750610af282612ed7565b5b9050919050565b60045481565b5f600580549050905090565b60015481565b5f826005805490508110610b5b576040517f08c379a0000000000000000000000000000000000000000000000000000000008152600401610b5290614be2565b60405180910390fd5b60065f8581526020019081526020015f205f8473ffffffffffffffffffffffffffffffffffffffff1673ffffffffffffffffffffffffffffffffffffffff1681526020019081526020015f205f015491505092915050565b5f80610bbd612f40565b9050805f015f8481526020019081526020015f2060010154915050919050565b610be5612f67565b806005805490508110610c2d576040517f08c379a0000000000000000000000000000000000000000000000000000000008152600401610c2490614be2565b60405180910390fd5b60035f9054906101000a900460ff1615610c7c576040517f08c379a0000000000000000000000000000000000000000000000000000000008152600401610c7390614c4a565b60405180910390fd5b5f60058381548110610c9157610c90614c68565b5b905f5260205f20906007020190505f60065f8581526020019081526020015f205f3373ffffffffffffffffffffffffffffffffffffffff1673ffffffffffffffffffffffffffffffffffffffff1681526020019081526020015f2090505f805f5b8360030180549050811015610d7a5743846003018281548110610d1857610d17614c68565b5b905f5260205f2090600202016001015411610d7a57836003018181548110610d4357610d42614c68565b5b905f5260205f2090600202015f015483610d5d9190614cc2565b92508180610d6a90614cf5565b9250508080600101915050610cf2565b505f5b818460030180549050610d909190614d3c565b811015610e0857836003018282610da79190614cc2565b81548110610db857610db7614c68565b5b905f5260205f209060020201846003018281548110610dda57610dd9614c68565b5b905f5260205f2090600202015f820154815f0155600182015481600101559050508080600101915050610d7d565b505f5b81811015610e585783600301805480610e2757610e26614d6f565b5b600190038181905f5260205f2090600202015f8082015f9055600182015f9055505090558080600101915050610e0b565b505f821115610f14575f73ffffffffffffffffffffffffffffffffffffffff16845f015f9054906101000a900473ffffffffffffffffffffffffffffffffffffffff1673ffffffffffffffffffffffffffffffffffffffff1603610ec557610ec03383612fa8565b610f13565b610f123383865f015f9054906101000a900473ffffffffffffffffffffffffffffffffffffffff1673ffffffffffffffffffffffffffffffffffffffff166130b59092919063ffffffff16565b5b5b43863373ffffffffffffffffffffffffffffffffffffffff167f02f25270a4d87bea75db541cdfe559334a275b4a233520ed6c0a2429667cca9485604051610f5c91906143d3565b60405180910390a4505050505050565b610f7582610bb3565b610f7e81613134565b610f888383613148565b50505050565b60035f9054906101000a900460ff1681565b610fa8613240565b73ffffffffffffffffffffffffffffffffffffffff168173ffffffffffffffffffffffffffffffffffffffff161461100c576040517f6697b23200000000000000000000000000000000000000000000000000000000815260040160405180910390fd5b6110168282613247565b505050565b6006602052815f5260405f20602052805f5260405f205f9150915050805f0154908060010154908060020154905083565b611054612f67565b80600580549050811061109c576040517f08c379a000000000000000000000000000000000000000000000000000000000815260040161109390614be2565b60405180910390fd5b600360019054906101000a900460ff16156110ec576040517f08c379a00000000000000000000000000000000000000000000000000000000081526004016110e390614de6565b60405180910390fd5b5f6005838154811061110157611100614c68565b5b905f5260205f20906007020190505f60065f8581526020019081526020015f205f3373ffffffffffffffffffffffffffffffffffffffff1673ffffffffffffffffffffffffffffffffffffffff1681526020019081526020015f209050611167846116bf565b5f81600201548260010154670de0b6b3a76400008560030154855f015461118e9190614e04565b6111989190614e72565b6111a29190614d3c565b6111ac9190614cc2565b90505f8111156111ca575f82600201819055506111c9338261333f565b5b670de0b6b3a76400008360030154835f01546111e69190614e04565b6111f09190614e72565b8260010181905550843373ffffffffffffffffffffffffffffffffffffffff167f34fcbac0073d7c3d388e51312faf357774904998eeb8fca628b9e6f65ee1cbf78360405161123f91906143d3565b60405180910390a35050505050565b60025481565b5f82600580549050811061129d576040517f08c379a000000000000000000000000000000000000000000000000000000000815260040161129490614be2565b60405180910390fd5b6112a88484436112b1565b91505092915050565b5f8360058054905081106112fa576040517f08c379a00000000000000000000000000000000000000000000000000000000081526004016112f190614be2565b60405180910390fd5b5f6005868154811061130f5761130e614c68565b5b905f5260205f20906007020190505f60065f8881526020019081526020015f205f8773ffffffffffffffffffffffffffffffffffffffff1673ffffffffffffffffffffffffffffffffffffffff1681526020019081526020015f2090505f826003015490505f8360040154905083600201548711801561138f57505f8114155b156113f4575f6113a3856002015489611bae565b90505f6004548660010154836113b99190614e04565b6113c39190614e72565b905082670de0b6b3a7640000826113da9190614e04565b6113e49190614e72565b846113ef9190614cc2565b935050505b82600201548360010154670de0b6b3a764000084865f01546114169190614e04565b6114209190614e72565b61142a9190614d3c565b6114349190614cc2565b955050505050509392505050565b5f5481565b5f61145061352b565b90505f815f0160089054906101000a900460ff161590505f825f015f9054906101000a900467ffffffffffffffff1690505f808267ffffffffffffffff161480156114985750825b90505f60018367ffffffffffffffff161480156114cb57505f3073ffffffffffffffffffffffffffffffffffffffff163b145b9050811580156114d9575080155b15611510576040517ff92ee8a900000000000000000000000000000000000000000000000000000000815260040160405180910390fd5b6001855f015f6101000a81548167ffffffffffffffff021916908367ffffffffffffffff160217905550831561155d576001855f0160086101000a81548160ff0219169083151502179055505b86881115801561156c57505f86115b6115ab576040517f08c379a00000000000000000000000000000000000000000000000000000000081526004016115a290614eec565b60405180910390fd5b6115b3613552565b6115bb61355c565b6115c75f801b33613148565b506115f27fcab03bc4dbcc648cd59d6bbe9f848d1e9092f914016aa290ee92e18700d1e6f933613148565b5061161d7f589d473ba17c0f47d494622893831497bad25919b9afb8e33e9521b8963fccde33613148565b5061162789612ad6565b875f8190555086600181905550856002819055508315611695575f855f0160086101000a81548160ff0219169083151502179055507fc7f505b2f371ae2175ee4913f4499e1f2633a7b5936321eed1cdaeb6115181d2600160405161168c9190614f56565b60405180910390a15b505050505050505050565b6116a8613566565b6116b18261364c565b6116bb828261367a565b5050565b806005805490508110611707576040517f08c379a00000000000000000000000000000000000000000000000000000000081526004016116fe90614be2565b60405180910390fd5b5f6005838154811061171c5761171b614c68565b5b905f5260205f20906007020190508060020154431161173b5750611984565b5f806117618360010154611753856002015443611bae565b61379890919063ffffffff16565b91509150816117a5576040517f08c379a000000000000000000000000000000000000000000000000000000000815260040161179c90614fb9565b60405180910390fd5b6117ba600454826137e690919063ffffffff16565b809250819350505081611802576040517f08c379a00000000000000000000000000000000000000000000000000000000081526004016117f990615047565b60405180910390fd5b5f836004015490505f811115611939575f8061182f670de0b6b3a76400008561379890919063ffffffff16565b9150915081611873576040517f08c379a000000000000000000000000000000000000000000000000000000000815260040161186a906150af565b60405180910390fd5b61188683826137e690919063ffffffff16565b8092508193505050816118ce576040517f08c379a00000000000000000000000000000000000000000000000000000000081526004016118c590615117565b60405180910390fd5b5f806118e783896003015461381990919063ffffffff16565b915091508161192b576040517f08c379a00000000000000000000000000000000000000000000000000000000081526004016119229061517f565b60405180910390fd5b808860030181905550505050505b4384600201819055508360020154867ff5d2d72d9b25d6853afd7d0554a113b705234b6a68bb36b7f1436629946324118460405161197791906143d3565b60405180910390a3505050505b5050565b5f611991613845565b7f360894a13ba1a3210667c828492db98dca3e2076cc3735a920a3ca505d382bbc5f1b905090565b7f589d473ba17c0f47d494622893831497bad25919b9afb8e33e9521b8963fccde6119e381613134565b60035f9054906101000a900460ff16611a31576040517f08c379a0000000000000000000000000000000000000000000000000000000008152600401611a289061520d565b60405180910390fd5b5f60035f6101000a81548160ff0219169083151502179055507f1c84bcaead48b692cc46b9b12e9a068951a59c99a2e2bf10b00b60b403cf12e260405160405180910390a150565b5f80611a836138cc565b9050805f015f9054906101000a900460ff1691505090565b7f589d473ba17c0f47d494622893831497bad25919b9afb8e33e9521b8963fccde611ac581613134565b60035f9054906101000a900460ff1615611b14576040517f08c379a0000000000000000000000000000000000000000000000000000000008152600401611b0b90615275565b60405180910390fd5b600160035f6101000a81548160ff0219169083151502179055507f8099f593a6aaecd68b6494933cd71f703376ac3975be83692e1b7d800abf683760405160405180910390a150565b5f60058054905090505f5b81811015611b8657611b79816116bf565b8080600101915050611b68565b5050565b7f589d473ba17c0f47d494622893831497bad25919b9afb8e33e9521b8963fccde81565b5f81831115611bf2576040517f08c379a0000000000000000000000000000000000000000000000000000000008152600401611be9906152dd565b60405180910390fd5b5f54831015611c00575f5492505b600154821115611c105760015491505b81831115611c53576040517f08c379a0000000000000000000000000000000000000000000000000000000008152600401611c4a9061536b565b60405180910390fd5b5f611c746002548585611c669190614d3c565b61379890919063ffffffff16565b809350819250505080611cbc576040517f08c379a0000000000000000000000000000000000000000000000000000000008152600401611cb3906153d3565b60405180910390fd5b5092915050565b7f589d473ba17c0f47d494622893831497bad25919b9afb8e33e9521b8963fccde611ced81613134565b600360019054906101000a900460ff1615611d3d576040517f08c379a0000000000000000000000000000000000000000000000000000000008152600401611d349061543b565b60405180910390fd5b6001600360016101000a81548160ff0219169083151502179055507f6d73d6b34c378ab3bf6630206d60b7882801b91d03ee20d016ff0d5054db81e160405160405180910390a150565b5f80611d91612f40565b9050805f015f8581526020019081526020015f205f015f8473ffffffffffffffffffffffffffffffffffffffff1673ffffffffffffffffffffffffffffffffffffffff1681526020019081526020015f205f9054906101000a900460ff1691505092915050565b611e00612f67565b816005805490508110611e48576040517f08c379a0000000000000000000000000000000000000000000000000000000008152600401611e3f90614be2565b60405180910390fd5b60035f9054906101000a900460ff1615611e97576040517f08c379a0000000000000000000000000000000000000000000000000000000008152600401611e8e90614c4a565b60405180910390fd5b5f60058481548110611eac57611eab614c68565b5b905f5260205f20906007020190505f60065f8681526020019081526020015f205f3373ffffffffffffffffffffffffffffffffffffffff1673ffffffffffffffffffffffffffffffffffffffff1681526020019081526020015f20905083815f01541015611f4f576040517f08c379a0000000000000000000000000000000000000000000000000000000008152600401611f46906154a3565b60405180910390fd5b611f58856116bf565b5f8160010154670de0b6b3a76400008460030154845f0154611f7a9190614e04565b611f849190614e72565b611f8e9190614d3c565b90505f811115611fb157808260020154611fa89190614cc2565b82600201819055505b5f8511156120325784825f0154611fc89190614d3c565b825f0181905550816003016040518060400160405280878152602001856006015443611ff49190614cc2565b815250908060018154018082558091505060019003905f5260205f2090600202015f909190919091505f820151815f01556020820151816001015550505b8483600401546120429190614d3c565b8360040181905550670de0b6b3a76400008360030154835f01546120669190614e04565b6120709190614e72565b8260010181905550853373ffffffffffffffffffffffffffffffffffffffff167fc80277265097707f6f12a4ac4c09d46c9926e2eea2536f63616cb04d9fcad7d6876040516120bf91906143d3565b60405180910390a3505050505050565b5f801b81565b6120dd612f67565b5f60055f815481106120f2576120f1614c68565b5b905f5260205f20906007020190505f73ffffffffffffffffffffffffffffffffffffffff16815f015f9054906101000a900473ffffffffffffffffffffffffffffffffffffffff1673ffffffffffffffffffffffffffffffffffffffff1614612190576040517f08c379a00000000000000000000000000000000000000000000000000000000081526004016121879061550b565b60405180910390fd5b5f34905081600501548110156121db576040517f08c379a00000000000000000000000000000000000000000000000000000000081526004016121d290615573565b60405180910390fd5b6121e55f826138f3565b5050565b600360029054906101000a900473ffffffffffffffffffffffffffffffffffffffff1681565b600360019054906101000a900460ff1681565b6040518060400160405280600581526020017f352e302e3000000000000000000000000000000000000000000000000000000081525081565b7f589d473ba17c0f47d494622893831497bad25919b9afb8e33e9521b8963fccde61228581613134565b5f6005805490501115612305575f73ffffffffffffffffffffffffffffffffffffffff168673ffffffffffffffffffffffffffffffffffffffff1603612300576040517f08c379a00000000000000000000000000000000000000000000000000000000081526004016122f79061550b565b60405180910390fd5b612374565b5f73ffffffffffffffffffffffffffffffffffffffff168673ffffffffffffffffffffffffffffffffffffffff1614612373576040517f08c379a000000000000000000000000000000000000000000000000000000000815260040161236a9061550b565b60405180910390fd5b5b5f83116123b6576040517f08c379a00000000000000000000000000000000000000000000000000000000081526004016123ad906155db565b60405180910390fd5b60015443106123fa576040517f08c379a00000000000000000000000000000000000000000000000000000000081526004016123f190615643565b60405180910390fd5b811561240957612408611b5d565b5b5f80544311612419575f5461241b565b435b90508560045461242b9190614cc2565b60048190555060056040518060e001604052808973ffffffffffffffffffffffffffffffffffffffff1681526020018881526020018381526020015f81526020015f815260200187815260200186815250908060018154018082558091505060019003905f5260205f2090600702015f909190919091505f820151815f015f6101000a81548173ffffffffffffffffffffffffffffffffffffffff021916908373ffffffffffffffffffffffffffffffffffffffff1602179055506020820151816001015560408201518160020155606082015181600301556080820151816004015560a0820151816005015560c08201518160060155505080868873ffffffffffffffffffffffffffffffffffffffff167f0fa296fce13e7a0e622b3a892e66220c248337289483a3cfa4130cde0caa1346888860405161256e929190614b71565b60405180910390a450505050505050565b7fcab03bc4dbcc648cd59d6bbe9f848d1e9092f914016aa290ee92e18700d1e6f981565b5f81565b7f589d473ba17c0f47d494622893831497bad25919b9afb8e33e9521b8963fccde6125d181613134565b5f8211612613576040517f08c379a000000000000000000000000000000000000000000000000000000000815260040161260a906156ab565b60405180910390fd5b81600281905550817f4c70925b625536dd633f6bd2d615c67fddc2e7c63c31164047a981a0df3fee5460405160405180910390a25050565b7f589d473ba17c0f47d494622893831497bad25919b9afb8e33e9521b8963fccde61267581613134565b815f5411156126b9576040517f08c379a00000000000000000000000000000000000000000000000000000000081526004016126b090615739565b60405180910390fd5b81600181905550817f1132c5baccb51da3d049fabc819697dc845fa224ad59d9b555507d6446b4085060405160405180910390a25050565b6126fa82610bb3565b61270381613134565b61270d8383613247565b50505050565b7f589d473ba17c0f47d494622893831497bad25919b9afb8e33e9521b8963fccde61273d81613134565b836005805490508110612785576040517f08c379a000000000000000000000000000000000000000000000000000000000815260040161277c90614be2565b60405180910390fd5b836005868154811061279a57612799614c68565b5b905f5260205f2090600702016005018190555082600586815481106127c2576127c1614c68565b5b905f5260205f209060070201600601819055508284867f30dffdedaa3e3b4849298233f7cd71d229956e875ab09270498c96b7cf9181fd60405160405180910390a45050505050565b7f589d473ba17c0f47d494622893831497bad25919b9afb8e33e9521b8963fccde61283581613134565b600360019054906101000a900460ff16612884576040517f08c379a000000000000000000000000000000000000000000000000000000000815260040161287b906157a1565b60405180910390fd5b5f600360016101000a81548160ff0219169083151502179055507fe72cb12952f056e3e7496019725f20a13108ca420f67f1ee9c9cdab73fb8ce8560405160405180910390a150565b6128d5612f67565b81600580549050811061291d576040517f08c379a000000000000000000000000000000000000000000000000000000000815260040161291490614be2565b60405180910390fd5b5f830361295f576040517f08c379a00000000000000000000000000000000000000000000000000000000081526004016129569061582f565b60405180910390fd5b5f6005848154811061297457612973614c68565b5b905f5260205f2090600702019050806005015483116129c8576040517f08c379a00000000000000000000000000000000000000000000000000000000081526004016129bf90615573565b60405180910390fd5b5f831115612a2057612a1f333085845f015f9054906101000a900473ffffffffffffffffffffffffffffffffffffffff1673ffffffffffffffffffffffffffffffffffffffff16613d09909392919063ffffffff16565b5b612a2a84846138f3565b50505050565b7f589d473ba17c0f47d494622893831497bad25919b9afb8e33e9521b8963fccde612a5a81613134565b600154821115612a9f576040517f08c379a0000000000000000000000000000000000000000000000000000000008152600401612a9690615739565b60405180910390fd5b815f81905550817f63b90b79f11a0f132bcb2c4a4ddd44abda45c1308a83b2919318df7f5f8b7be460405160405180910390a25050565b7f589d473ba17c0f47d494622893831497bad25919b9afb8e33e9521b8963fccde612b0081613134565b81600360026101000a81548173ffffffffffffffffffffffffffffffffffffffff021916908373ffffffffffffffffffffffffffffffffffffffff160217905550600360029054906101000a900473ffffffffffffffffffffffffffffffffffffffff1673ffffffffffffffffffffffffffffffffffffffff167f153aae53b92218044bd5f43922617c6b253e50ac98a41b44c3acb5625ded348860405160405180910390a25050565b7f589d473ba17c0f47d494622893831497bad25919b9afb8e33e9521b8963fccde612bd481613134565b836005805490508110612c1c576040517f08c379a0000000000000000000000000000000000000000000000000000000008152600401612c1390614be2565b60405180910390fd5b5f8411612c5e576040517f08c379a0000000000000000000000000000000000000000000000000000000008152600401612c5590615897565b60405180910390fd5b8215612c6d57612c6c611b5d565b5b8360058681548110612c8257612c81614c68565b5b905f5260205f20906007020160010154600454612c9f9190614d3c565b612ca99190614cc2565b6004819055508360058681548110612cc457612cc3614c68565b5b905f5260205f2090600702016001018190555083857f4b8fa3d6a87cb21d1bf4978bf60628ae358a28ac7f39de1751a481c6dd957617600454604051612d0a91906143d3565b60405180910390a35050505050565b60058181548110612d28575f80fd5b905f5260205f2090600702015f91509050805f015f9054906101000a900473ffffffffffffffffffffffffffffffffffffffff16908060010154908060020154908060030154908060040154908060050154908060060154905087565b5f80836005805490508110612dcf576040517f08c379a0000000000000000000000000000000000000000000000000000000008152600401612dc690614be2565b60405180910390fd5b5f60065f8781526020019081526020015f205f8673ffffffffffffffffffffffffffffffffffffffff1673ffffffffffffffffffffffffffffffffffffffff1681526020019081526020015f2090505f5b8160030180549050811015612ecd5743826003018281548110612e4657612e45614c68565b5b905f5260205f2090600202016001015411612e8e57816003018181548110612e7157612e70614c68565b5b905f5260205f2090600202015f015484612e8b9190614cc2565b93505b816003018181548110612ea457612ea3614c68565b5b905f5260205f2090600202015f015485612ebe9190614cc2565b94508080600101915050612e20565b5050509250929050565b5f7f01ffc9a7000000000000000000000000000000000000000000000000000000007bffffffffffffffffffffffffffffffffffffffffffffffffffffffff1916827bffffffffffffffffffffffffffffffffffffffffffffffffffffffff1916149050919050565b5f7f02dd7bc7dec4dceedda775e58dd541e08a116c6c53815c0bd028192f7b626800905090565b612f6f611a79565b15612fa6576040517fd93c066500000000000000000000000000000000000000000000000000000000815260040160405180910390fd5b565b5f808373ffffffffffffffffffffffffffffffffffffffff1683604051612fce906158e2565b5f6040518083038185875af1925050503d805f8114613008576040519150601f19603f3d011682016040523d82523d5f602084013e61300d565b606091505b509150915081613052576040517f08c379a000000000000000000000000000000000000000000000000000000000815260040161304990615966565b60405180910390fd5b5f815111156130af578080602001905181019061306f9190615998565b6130ae576040517f08c379a00000000000000000000000000000000000000000000000000000000081526004016130a590615a0d565b60405180910390fd5b5b50505050565b61312f838473ffffffffffffffffffffffffffffffffffffffff1663a9059cbb85856040516024016130e8929190615a2b565b604051602081830303815290604052915060e01b6020820180517bffffffffffffffffffffffffffffffffffffffffffffffffffffffff8381831617835250505050613d8b565b505050565b61314581613140613240565b613e20565b50565b5f80613152612f40565b905061315e8484611d87565b613235576001815f015f8681526020019081526020015f205f015f8573ffffffffffffffffffffffffffffffffffffffff1673ffffffffffffffffffffffffffffffffffffffff1681526020019081526020015f205f6101000a81548160ff0219169083151502179055506131d1613240565b73ffffffffffffffffffffffffffffffffffffffff168373ffffffffffffffffffffffffffffffffffffffff16857f2f8788117e7eff1d82e926ec794901d17c78024a50270940304540a733656f0d60405160405180910390a4600191505061323a565b5f9150505b92915050565b5f33905090565b5f80613251612f40565b905061325d8484611d87565b15613334575f815f015f8681526020019081526020015f205f015f8573ffffffffffffffffffffffffffffffffffffffff1673ffffffffffffffffffffffffffffffffffffffff1681526020019081526020015f205f6101000a81548160ff0219169083151502179055506132d0613240565b73ffffffffffffffffffffffffffffffffffffffff168373ffffffffffffffffffffffffffffffffffffffff16857ff6391f5c32d9c69d2a47ea670b442974b53935d1edc7fd64eb21e047a839171b60405160405180910390a46001915050613339565b5f9150505b92915050565b5f600360029054906101000a900473ffffffffffffffffffffffffffffffffffffffff1673ffffffffffffffffffffffffffffffffffffffff166370a08231306040518263ffffffff1660e01b815260040161339b9190615a52565b602060405180830381865afa1580156133b6573d5f803e3d5ffd5b505050506040513d601f19601f820116820180604052508101906133da9190615a7f565b90508082111561348757600360029054906101000a900473ffffffffffffffffffffffffffffffffffffffff1673ffffffffffffffffffffffffffffffffffffffff1663a9059cbb84836040518363ffffffff1660e01b8152600401613441929190615a2b565b6020604051808303815f875af115801561345d573d5f803e3d5ffd5b505050506040513d601f19601f820116820180604052508101906134819190615998565b50613526565b600360029054906101000a900473ffffffffffffffffffffffffffffffffffffffff1673ffffffffffffffffffffffffffffffffffffffff1663a9059cbb84846040518363ffffffff1660e01b81526004016134e4929190615a2b565b6020604051808303815f875af1158015613500573d5f803e3d5ffd5b505050506040513d601f19601f820116820180604052508101906135249190615998565b505b505050565b5f7ff0c57e16840df040f15088dc2f81fe391c3923bec73e23a9662efc9c229c6a00905090565b61355a613e71565b565b613564613e71565b565b7f000000000000000000000000000000000000000000000000000000000000000073ffffffffffffffffffffffffffffffffffffffff163073ffffffffffffffffffffffffffffffffffffffff16148061361357507f000000000000000000000000000000000000000000000000000000000000000073ffffffffffffffffffffffffffffffffffffffff166135fa613eb1565b73ffffffffffffffffffffffffffffffffffffffff1614155b1561364a576040517fe07c8dba00000000000000000000000000000000000000000000000000000000815260040160405180910390fd5b565b7fcab03bc4dbcc648cd59d6bbe9f848d1e9092f914016aa290ee92e18700d1e6f961367681613134565b5050565b8173ffffffffffffffffffffffffffffffffffffffff166352d1902d6040518163ffffffff1660e01b8152600401602060405180830381865afa9250505080156136e257506040513d601f19601f820116820180604052508101906136df9190615abe565b60015b61372357816040517f4c9c8ce300000000000000000000000000000000000000000000000000000000815260040161371a9190615a52565b60405180910390fd5b7f360894a13ba1a3210667c828492db98dca3e2076cc3735a920a3ca505d382bbc5f1b811461378957806040517faa1d49a4000000000000000000000000000000000000000000000000000000008152600401613780919061451b565b60405180910390fd5b6137938383613f04565b505050565b5f805f84036137ad5760015f915091506137df565b5f8385029050838582816137c4576137c3614e45565b5b04146137d6575f8092509250506137df565b60018192509250505b9250929050565b5f805f83036137fa575f8091509150613812565b600183858161380c5761380b614e45565b5b04915091505b9250929050565b5f805f838501905084811015613835575f80925092505061383e565b60018192509250505b9250929050565b7f000000000000000000000000000000000000000000000000000000000000000073ffffffffffffffffffffffffffffffffffffffff163073ffffffffffffffffffffffffffffffffffffffff16146138ca576040517fe07c8dba00000000000000000000000000000000000000000000000000000000815260040160405180910390fd5b565b5f7fcd5ed15c6e187e77e9aee88184c21f4f2182ab5827cb3b7e07fbedcd63f03300905090565b5f6005838154811061390857613907614c68565b5b905f5260205f20906007020190505f60065f8581526020019081526020015f205f3373ffffffffffffffffffffffffffffffffffffffff1673ffffffffffffffffffffffffffffffffffffffff1681526020019081526020015f20905061396e846116bf565b5f815f01541115613b0f575f806139958460030154845f015461379890919063ffffffff16565b91509150816139d9576040517f08c379a00000000000000000000000000000000000000000000000000000000081526004016139d090615b59565b60405180910390fd5b6139f4670de0b6b3a7640000826137e690919063ffffffff16565b809250819350505081613a3c576040517f08c379a0000000000000000000000000000000000000000000000000000000008152600401613a3390615bc1565b60405180910390fd5b5f80613a55856001015484613f7690919063ffffffff16565b9150915081613a99576040517f08c379a0000000000000000000000000000000000000000000000000000000008152600401613a9090615c29565b60405180910390fd5b5f811115613b0a575f80613aba83886002015461381990919063ffffffff16565b9150915081613afe576040517f08c379a0000000000000000000000000000000000000000000000000000000008152600401613af590615c91565b60405180910390fd5b80876002018190555050505b505050505b5f831115613b7e575f80613b2f85845f015461381990919063ffffffff16565b9150915081613b73576040517f08c379a0000000000000000000000000000000000000000000000000000000008152600401613b6a90615cf9565b60405180910390fd5b80835f018190555050505b5f80613b9785856004015461381990919063ffffffff16565b9150915081613bdb576040517f08c379a0000000000000000000000000000000000000000000000000000000008152600401613bd290615d61565b60405180910390fd5b8084600401819055505f80613c008660030154865f015461379890919063ffffffff16565b9150915081613c44576040517f08c379a0000000000000000000000000000000000000000000000000000000008152600401613c3b90615b59565b60405180910390fd5b613c5f670de0b6b3a7640000826137e690919063ffffffff16565b809250819350505081613ca7576040517f08c379a0000000000000000000000000000000000000000000000000000000008152600401613c9e90615dc9565b60405180910390fd5b808560010181905550873373ffffffffffffffffffffffffffffffffffffffff167f90890809c654f11d6e72a28fa60149770a0d11ec6c92319d6ceb2bb0a4ea1a1589604051613cf791906143d3565b60405180910390a35050505050505050565b613d85848573ffffffffffffffffffffffffffffffffffffffff166323b872dd868686604051602401613d3e93929190615de7565b604051602081830303815290604052915060e01b6020820180517bffffffffffffffffffffffffffffffffffffffffffffffffffffffff8381831617835250505050613d8b565b50505050565b5f613db5828473ffffffffffffffffffffffffffffffffffffffff16613f9c90919063ffffffff16565b90505f815114158015613dd9575080806020019051810190613dd79190615998565b155b15613e1b57826040517f5274afe7000000000000000000000000000000000000000000000000000000008152600401613e129190615a52565b60405180910390fd5b505050565b613e2a8282611d87565b613e6d5780826040517fe2517d3f000000000000000000000000000000000000000000000000000000008152600401613e64929190615e1c565b60405180910390fd5b5050565b613e79613fb1565b613eaf576040517fd7e6bcf800000000000000000000000000000000000000000000000000000000815260040160405180910390fd5b565b5f613edd7f360894a13ba1a3210667c828492db98dca3e2076cc3735a920a3ca505d382bbc5f1b613fcf565b5f015f9054906101000a900473ffffffffffffffffffffffffffffffffffffffff16905090565b613f0d82613fd8565b8173ffffffffffffffffffffffffffffffffffffffff167fbc7cd75a20ee27fd9adebab32041f755214dbc6bffa90cc0225b39da2e5c2d3b60405160405180910390a25f81511115613f6957613f6382826140a1565b50613f72565b613f71614121565b5b5050565b5f8083831115613f8b575f8091509150613f95565b6001838503915091505b9250929050565b6060613fa983835f61415d565b905092915050565b5f613fba61352b565b5f0160089054906101000a900460ff16905090565b5f819050919050565b5f8173ffffffffffffffffffffffffffffffffffffffff163b0361403357806040517f4c9c8ce300000000000000000000000000000000000000000000000000000000815260040161402a9190615a52565b60405180910390fd5b8061405f7f360894a13ba1a3210667c828492db98dca3e2076cc3735a920a3ca505d382bbc5f1b613fcf565b5f015f6101000a81548173ffffffffffffffffffffffffffffffffffffffff021916908373ffffffffffffffffffffffffffffffffffffffff16021790555050565b60605f808473ffffffffffffffffffffffffffffffffffffffff16846040516140ca9190615e7d565b5f60405180830381855af49150503d805f8114614102576040519150601f19603f3d011682016040523d82523d5f602084013e614107565b606091505b5091509150614117858383614226565b9250505092915050565b5f34111561415b576040517fb398979f00000000000000000000000000000000000000000000000000000000815260040160405180910390fd5b565b6060814710156141a457306040517fcd78605900000000000000000000000000000000000000000000000000000000815260040161419b9190615a52565b60405180910390fd5b5f808573ffffffffffffffffffffffffffffffffffffffff1684866040516141cc9190615e7d565b5f6040518083038185875af1925050503d805f8114614206576040519150601f19603f3d011682016040523d82523d5f602084013e61420b565b606091505b509150915061421b868383614226565b925050509392505050565b60608261423b57614236826142b3565b6142ab565b5f825114801561426157505f8473ffffffffffffffffffffffffffffffffffffffff163b145b156142a357836040517f9996b31500000000000000000000000000000000000000000000000000000000815260040161429a9190615a52565b60405180910390fd5b8190506142ac565b5b9392505050565b5f815111156142c55780518082602001fd5b6040517f1425ea4200000000000000000000000000000000000000000000000000000000815260040160405180910390fd5b5f604051905090565b5f80fd5b5f80fd5b5f7fffffffff0000000000000000000000000000000000000000000000000000000082169050919050565b61433c81614308565b8114614346575f80fd5b50565b5f8135905061435781614333565b92915050565b5f6020828403121561437257614371614300565b5b5f61437f84828501614349565b91505092915050565b5f8115159050919050565b61439c81614388565b82525050565b5f6020820190506143b55f830184614393565b92915050565b5f819050919050565b6143cd816143bb565b82525050565b5f6020820190506143e65f8301846143c4565b92915050565b6143f5816143bb565b81146143ff575f80fd5b50565b5f81359050614410816143ec565b92915050565b5f73ffffffffffffffffffffffffffffffffffffffff82169050919050565b5f61443f82614416565b9050919050565b61444f81614435565b8114614459575f80fd5b50565b5f8135905061446a81614446565b92915050565b5f806040838503121561448657614485614300565b5b5f61449385828601614402565b92505060206144a48582860161445c565b9150509250929050565b5f819050919050565b6144c0816144ae565b81146144ca575f80fd5b50565b5f813590506144db816144b7565b92915050565b5f602082840312156144f6576144f5614300565b5b5f614503848285016144cd565b91505092915050565b614515816144ae565b82525050565b5f60208201905061452e5f83018461450c565b92915050565b5f6020828403121561454957614548614300565b5b5f61455684828501614402565b91505092915050565b5f806040838503121561457557614574614300565b5b5f614582858286016144cd565b92505060206145938582860161445c565b9150509250929050565b5f6060820190506145b05f8301866143c4565b6145bd60208301856143c4565b6145ca60408301846143c4565b949350505050565b5f805f606084860312156145e9576145e8614300565b5b5f6145f686828701614402565b93505060206146078682870161445c565b925050604061461886828701614402565b9150509250925092565b5f61462c82614435565b9050919050565b61463c81614622565b8114614646575f80fd5b50565b5f8135905061465781614633565b92915050565b5f805f806080858703121561467557614674614300565b5b5f61468287828801614649565b945050602061469387828801614402565b93505060406146a487828801614402565b92505060606146b587828801614402565b91505092959194509250565b5f80fd5b5f80fd5b5f601f19601f8301169050919050565b7f4e487b71000000000000000000000000000000000000000000000000000000005f52604160045260245ffd5b61470f826146c9565b810181811067ffffffffffffffff8211171561472e5761472d6146d9565b5b80604052505050565b5f6147406142f7565b905061474c8282614706565b919050565b5f67ffffffffffffffff82111561476b5761476a6146d9565b5b614774826146c9565b9050602081019050919050565b828183375f83830152505050565b5f6147a161479c84614751565b614737565b9050828152602081018484840111156147bd576147bc6146c5565b5b6147c8848285614781565b509392505050565b5f82601f8301126147e4576147e36146c1565b5b81356147f484826020860161478f565b91505092915050565b5f806040838503121561481357614812614300565b5b5f6148208582860161445c565b925050602083013567ffffffffffffffff81111561484157614840614304565b5b61484d858286016147d0565b9150509250929050565b5f806040838503121561486d5761486c614300565b5b5f61487a85828601614402565b925050602061488b85828601614402565b9150509250929050565b5f819050919050565b5f6148b86148b36148ae84614416565b614895565b614416565b9050919050565b5f6148c98261489e565b9050919050565b5f6148da826148bf565b9050919050565b6148ea816148d0565b82525050565b5f6020820190506149035f8301846148e1565b92915050565b5f81519050919050565b5f82825260208201905092915050565b8281835e5f83830152505050565b5f61493b82614909565b6149458185614913565b9350614955818560208601614923565b61495e816146c9565b840191505092915050565b5f6020820190508181035f8301526149818184614931565b905092915050565b61499281614388565b811461499c575f80fd5b50565b5f813590506149ad81614989565b92915050565b5f805f805f60a086880312156149cc576149cb614300565b5b5f6149d98882890161445c565b95505060206149ea88828901614402565b94505060406149fb88828901614402565b9350506060614a0c88828901614402565b9250506080614a1d8882890161499f565b9150509295509295909350565b5f805f60608486031215614a4157614a40614300565b5b5f614a4e86828701614402565b9350506020614a5f86828701614402565b9250506040614a7086828701614402565b9150509250925092565b5f60208284031215614a8f57614a8e614300565b5b5f614a9c84828501614649565b91505092915050565b5f805f60608486031215614abc57614abb614300565b5b5f614ac986828701614402565b9350506020614ada86828701614402565b9250506040614aeb8682870161499f565b9150509250925092565b614afe81614435565b82525050565b5f60e082019050614b175f83018a614af5565b614b2460208301896143c4565b614b3160408301886143c4565b614b3e60608301876143c4565b614b4b60808301866143c4565b614b5860a08301856143c4565b614b6560c08301846143c4565b98975050505050505050565b5f604082019050614b845f8301856143c4565b614b9160208301846143c4565b9392505050565b7f696e76616c6964207069640000000000000000000000000000000000000000005f82015250565b5f614bcc600b83614913565b9150614bd782614b98565b602082019050919050565b5f6020820190508181035f830152614bf981614bc0565b9050919050565b7f77697468647261772069732070617573656400000000000000000000000000005f82015250565b5f614c34601283614913565b9150614c3f82614c00565b602082019050919050565b5f6020820190508181035f830152614c6181614c28565b9050919050565b7f4e487b71000000000000000000000000000000000000000000000000000000005f52603260045260245ffd5b7f4e487b71000000000000000000000000000000000000000000000000000000005f52601160045260245ffd5b5f614ccc826143bb565b9150614cd7836143bb565b9250828201905080821115614cef57614cee614c95565b5b92915050565b5f614cff826143bb565b91507fffffffffffffffffffffffffffffffffffffffffffffffffffffffffffffffff8203614d3157614d30614c95565b5b600182019050919050565b5f614d46826143bb565b9150614d51836143bb565b9250828203905081811115614d6957614d68614c95565b5b92915050565b7f4e487b71000000000000000000000000000000000000000000000000000000005f52603160045260245ffd5b7f636c61696d2069732070617573656400000000000000000000000000000000005f82015250565b5f614dd0600f83614913565b9150614ddb82614d9c565b602082019050919050565b5f6020820190508181035f830152614dfd81614dc4565b9050919050565b5f614e0e826143bb565b9150614e19836143bb565b9250828202614e27816143bb565b91508282048414831517614e3e57614e3d614c95565b5b5092915050565b7f4e487b71000000000000000000000000000000000000000000000000000000005f52601260045260245ffd5b5f614e7c826143bb565b9150614e87836143bb565b925082614e9757614e96614e45565b5b828204905092915050565b7f696e76616c696420706172616d657465727300000000000000000000000000005f82015250565b5f614ed6601283614913565b9150614ee182614ea2565b602082019050919050565b5f6020820190508181035f830152614f0381614eca565b9050919050565b5f819050919050565b5f67ffffffffffffffff82169050919050565b5f614f40614f3b614f3684614f0a565b614895565b614f13565b9050919050565b614f5081614f26565b82525050565b5f602082019050614f695f830184614f47565b92915050565b7f746f74616c524343206d756c20706f6f6c576569676874206f766572666c6f775f82015250565b5f614fa3602083614913565b9150614fae82614f6f565b602082019050919050565b5f6020820190508181035f830152614fd081614f97565b9050919050565b7f746f74616c5243432064697620746f74616c506f6f6c576569676874206f76655f8201527f72666c6f77000000000000000000000000000000000000000000000000000000602082015250565b5f615031602583614913565b915061503c82614fd7565b604082019050919050565b5f6020820190508181035f83015261505e81615025565b9050919050565b7f746f74616c524343206d756c2031206574686572206f766572666c6f770000005f82015250565b5f615099601d83614913565b91506150a482615065565b602082019050919050565b5f6020820190508181035f8301526150c68161508d565b9050919050565b7f746f74616c52434320646976207374537570706c79206f766572666c6f7700005f82015250565b5f615101601e83614913565b915061510c826150cd565b602082019050919050565b5f6020820190508181035f83015261512e816150f5565b9050919050565b7f706f6f6c206163635243435065725354206f766572666c6f77000000000000005f82015250565b5f615169601983614913565b915061517482615135565b602082019050919050565b5f6020820190508181035f8301526151968161515d565b9050919050565b7f776974686472617720686173206265656e20616c726561647920756e706175735f8201527f6564000000000000000000000000000000000000000000000000000000000000602082015250565b5f6151f7602283614913565b91506152028261519d565b604082019050919050565b5f6020820190508181035f830152615224816151eb565b9050919050565b7f776974686472617720686173206265656e20616c7265616479207061757365645f82015250565b5f61525f602083614913565b915061526a8261522b565b602082019050919050565b5f6020820190508181035f83015261528c81615253565b9050919050565b7f696e76616c696420626c6f636b2072616e6765000000000000000000000000005f82015250565b5f6152c7601383614913565b91506152d282615293565b602082019050919050565b5f6020820190508181035f8301526152f4816152bb565b9050919050565b7f656e6420626c6f636b206d7573742062652067726561746572207468616e20735f8201527f7461727420626c6f636b00000000000000000000000000000000000000000000602082015250565b5f615355602a83614913565b9150615360826152fb565b604082019050919050565b5f6020820190508181035f83015261538281615349565b9050919050565b7f6d756c7469706c696572206f766572666c6f77000000000000000000000000005f82015250565b5f6153bd601383614913565b91506153c882615389565b602082019050919050565b5f6020820190508181035f8301526153ea816153b1565b9050919050565b7f636c61696d20686173206265656e20616c7265616479207061757365640000005f82015250565b5f615425601d83614913565b9150615430826153f1565b602082019050919050565b5f6020820190508181035f83015261545281615419565b9050919050565b7f4e6f7420656e6f756768207374616b696e6720746f6b656e2062616c616e63655f82015250565b5f61548d602083614913565b915061549882615459565b602082019050919050565b5f6020820190508181035f8301526154ba81615481565b9050919050565b7f696e76616c6964207374616b696e6720746f6b656e20616464726573730000005f82015250565b5f6154f5601d83614913565b9150615500826154c1565b602082019050919050565b5f6020820190508181035f830152615522816154e9565b9050919050565b7f6465706f73697420616d6f756e7420697320746f6f20736d616c6c00000000005f82015250565b5f61555d601b83614913565b915061556882615529565b602082019050919050565b5f6020820190508181035f83015261558a81615551565b9050919050565b7f696e76616c6964207769746864726177206c6f636b656420626c6f636b7300005f82015250565b5f6155c5601e83614913565b91506155d082615591565b602082019050919050565b5f6020820190508181035f8301526155f2816155b9565b9050919050565b7f416c726561647920656e646564000000000000000000000000000000000000005f82015250565b5f61562d600d83614913565b9150615638826155f9565b602082019050919050565b5f6020820190508181035f83015261565a81615621565b9050919050565b7f696e76616c696420706172616d657465720000000000000000000000000000005f82015250565b5f615695601183614913565b91506156a082615661565b602082019050919050565b5f6020820190508181035f8301526156c281615689565b9050919050565b7f737461727420626c6f636b206d75737420626520736d616c6c6572207468616e5f8201527f20656e6420626c6f636b00000000000000000000000000000000000000000000602082015250565b5f615723602a83614913565b915061572e826156c9565b604082019050919050565b5f6020820190508181035f83015261575081615717565b9050919050565b7f636c61696d20686173206265656e20616c726561647920756e706175736564005f82015250565b5f61578b601f83614913565b915061579682615757565b602082019050919050565b5f6020820190508181035f8301526157b88161577f565b9050919050565b7f6465706f736974206e6f7420737570706f7274206e617469766543757272656e5f8201527f6379207374616b696e6700000000000000000000000000000000000000000000602082015250565b5f615819602a83614913565b9150615824826157bf565b604082019050919050565b5f6020820190508181035f8301526158468161580d565b9050919050565b7f696e76616c696420706f6f6c20776569676874000000000000000000000000005f82015250565b5f615881601383614913565b915061588c8261584d565b602082019050919050565b5f6020820190508181035f8301526158ae81615875565b9050919050565b5f81905092915050565b50565b5f6158cd5f836158b5565b91506158d8826158bf565b5f82019050919050565b5f6158ec826158c2565b9150819050919050565b7f6e617469766543757272656e6379207472616e736665722063616c6c206661695f8201527f6c65640000000000000000000000000000000000000000000000000000000000602082015250565b5f615950602383614913565b915061595b826158f6565b604082019050919050565b5f6020820190508181035f83015261597d81615944565b9050919050565b5f8151905061599281614989565b92915050565b5f602082840312156159ad576159ac614300565b5b5f6159ba84828501615984565b91505092915050565b7f6661696c000000000000000000000000000000000000000000000000000000005f82015250565b5f6159f7600483614913565b9150615a02826159c3565b602082019050919050565b5f6020820190508181035f830152615a24816159eb565b9050919050565b5f604082019050615a3e5f830185614af5565b615a4b60208301846143c4565b9392505050565b5f602082019050615a655f830184614af5565b92915050565b5f81519050615a79816143ec565b92915050565b5f60208284031215615a9457615a93614300565b5b5f615aa184828501615a6b565b91505092915050565b5f81519050615ab8816144b7565b92915050565b5f60208284031215615ad357615ad2614300565b5b5f615ae084828501615aaa565b91505092915050565b7f75736572207374416d6f756e74206d756c206163635243435065725354206f765f8201527f6572666c6f770000000000000000000000000000000000000000000000000000602082015250565b5f615b43602683614913565b9150615b4e82615ae9565b604082019050919050565b5f6020820190508181035f830152615b7081615b37565b9050919050565b7f6163635354206469762031206574686572206f766572666c6f770000000000005f82015250565b5f615bab601a83614913565b9150615bb682615b77565b602082019050919050565b5f6020820190508181035f830152615bd881615b9f565b9050919050565b7f6163635354207375622066696e6973686564524343206f766572666c6f7700005f82015250565b5f615c13601e83614913565b9150615c1e82615bdf565b602082019050919050565b5f6020820190508181035f830152615c4081615c07565b9050919050565b7f757365722070656e64696e67524343206f766572666c6f7700000000000000005f82015250565b5f615c7b601883614913565b9150615c8682615c47565b602082019050919050565b5f6020820190508181035f830152615ca881615c6f565b9050919050565b7f75736572207374416d6f756e74206f766572666c6f77000000000000000000005f82015250565b5f615ce3601683614913565b9150615cee82615caf565b602082019050919050565b5f6020820190508181035f830152615d1081615cd7565b9050919050565b7f706f6f6c207374546f6b656e416d6f756e74206f766572666c6f7700000000005f82015250565b5f615d4b601b83614913565b9150615d5682615d17565b602082019050919050565b5f6020820190508181035f830152615d7881615d3f565b9050919050565b7f66696e6973686564524343206469762031206574686572206f766572666c6f775f82015250565b5f615db3602083614913565b9150615dbe82615d7f565b602082019050919050565b5f6020820190508181035f830152615de081615da7565b9050919050565b5f606082019050615dfa5f830186614af5565b615e076020830185614af5565b615e1460408301846143c4565b949350505050565b5f604082019050615e2f5f830185614af5565b615e3c602083018461450c565b9392505050565b5f81519050919050565b5f615e5782615e43565b615e6181856158b5565b9350615e71818560208601614923565b80840191505092915050565b5f615e888284615e4d565b91508190509291505056fea26469706673582212201d5077c7bb5bd95dfffbcf9567e426671af37c761143bff2bb4485ba24257f8864736f6c63430008190033",
			"opcodes": "PUSH1 0xA0 PUSH1 0x40 MSTORE ADDRESS PUSH20 0xFFFFFFFFFFFFFFFFFFFFFFFFFFFFFFFFFFFFFFFF AND PUSH1 0x80 SWAP1 PUSH20 0xFFFFFFFFFFFFFFFFFFFFFFFFFFFFFFFFFFFFFFFF AND DUP2 MSTORE POP CALLVALUE DUP1 ISZERO PUSH1 0x41 JUMPI PUSH0 DUP1 REVERT JUMPDEST POP PUSH1 0x80 MLOAD PUSH2 0x5EC9 PUSH2 0x68 PUSH0 CODECOPY PUSH0 DUP2 DUP2 PUSH2 0x3568 ADD MSTORE DUP2 DUP2 PUSH2 0x35BD ADD MSTORE PUSH2 0x3847 ADD MSTORE PUSH2 0x5EC9 PUSH0 RETURN INVALID PUSH1 0x80 PUSH1 0x40 MSTORE PUSH1 0x4 CALLDATASIZE LT PUSH2 0x292 JUMPI PUSH0 CALLDATALOAD PUSH1 0xE0 SHR DUP1 PUSH4 0x75B238FC GT PUSH2 0x159 JUMPI DUP1 PUSH4 0xB9D49C2A GT PUSH2 0xC0 JUMPI DUP1 PUSH4 0xE2BBB158 GT PUSH2 0x79 JUMPI DUP1 PUSH4 0xE2BBB158 EQ PUSH2 0x962 JUMPI DUP1 PUSH4 0xF35E4A6E EQ PUSH2 0x98A JUMPI DUP1 PUSH4 0xF5485D32 EQ PUSH2 0x9B2 JUMPI DUP1 PUSH4 0xFAD07ECE EQ PUSH2 0x9DA JUMPI DUP1 PUSH4 0xFE313112 EQ PUSH2 0xA02 JUMPI DUP1 PUSH4 0xFF423357 EQ PUSH2 0xA44 JUMPI PUSH2 0x292 JUMP JUMPDEST DUP1 PUSH4 0xB9D49C2A EQ PUSH2 0x882 JUMPI DUP1 PUSH4 0xBED66C08 EQ PUSH2 0x8AC JUMPI DUP1 PUSH4 0xC713AA94 EQ PUSH2 0x8D4 JUMPI DUP1 PUSH4 0xD547741F EQ PUSH2 0x8FC JUMPI DUP1 PUSH4 0xD86C0444 EQ PUSH2 0x924 JUMPI DUP1 PUSH4 0xDE065CAA EQ PUSH2 0x94C JUMPI PUSH2 0x292 JUMP JUMPDEST DUP1 PUSH4 0xA6707EE4 GT PUSH2 0x112 JUMPI DUP1 PUSH4 0xA6707EE4 EQ PUSH2 0x7A8 JUMPI DUP1 PUSH4 0xA72D5BF4 EQ PUSH2 0x7B2 JUMPI DUP1 PUSH4 0xAB5E124A EQ PUSH2 0x7DC JUMPI DUP1 PUSH4 0xAD3CB1CC EQ PUSH2 0x806 JUMPI DUP1 PUSH4 0xB6D9D919 EQ PUSH2 0x830 JUMPI DUP1 PUSH4 0xB908AFA8 EQ PUSH2 0x858 JUMPI PUSH2 0x292 JUMP JUMPDEST DUP1 PUSH4 0x75B238FC EQ PUSH2 0x69E JUMPI DUP1 PUSH4 0x8DBB1E3A EQ PUSH2 0x6C8 JUMPI DUP1 PUSH4 0x8FF095F9 EQ PUSH2 0x704 JUMPI DUP1 PUSH4 0x91D14854 EQ PUSH2 0x71A JUMPI DUP1 PUSH4 0x9E2C8A5B EQ PUSH2 0x756 JUMPI DUP1 PUSH4 0xA217FDDF EQ PUSH2 0x77E JUMPI PUSH2 0x292 JUMP JUMPDEST DUP1 PUSH4 0x386BE144 GT PUSH2 0x1FD JUMPI DUP1 PUSH4 0x51EB05A6 GT PUSH2 0x1B6 JUMPI DUP1 PUSH4 0x51EB05A6 EQ PUSH2 0x5E0 JUMPI DUP1 PUSH4 0x52D1902D EQ PUSH2 0x608 JUMPI DUP1 PUSH4 0x5BB6D007 EQ PUSH2 0x632 JUMPI DUP1 PUSH4 0x5C975ABB EQ PUSH2 0x648 JUMPI DUP1 PUSH4 0x6155E3DE EQ PUSH2 0x672 JUMPI DUP1 PUSH4 0x630B5BA1 EQ PUSH2 0x688 JUMPI PUSH2 0x292 JUMP JUMPDEST DUP1 PUSH4 0x386BE144 EQ PUSH2 0x4D0 JUMPI DUP1 PUSH4 0x3B82783E EQ PUSH2 0x4FA JUMPI DUP1 PUSH4 0x41721AB7 EQ PUSH2 0x536 JUMPI DUP1 PUSH4 0x48CD4CB1 EQ PUSH2 0x572 JUMPI DUP1 PUSH4 0x4EC81AF1 EQ PUSH2 0x59C JUMPI DUP1 PUSH4 0x4F1EF286 EQ PUSH2 0x5C4 JUMPI PUSH2 0x292 JUMP JUMPDEST DUP1 PUSH4 0x2E1A7D4D GT PUSH2 0x24F JUMPI DUP1 PUSH4 0x2E1A7D4D EQ PUSH2 0x3C8 JUMPI DUP1 PUSH4 0x2F2FF15D EQ PUSH2 0x3F0 JUMPI DUP1 PUSH4 0x2F3FFB9F EQ PUSH2 0x418 JUMPI DUP1 PUSH4 0x36568ABE EQ PUSH2 0x442 JUMPI DUP1 PUSH4 0x37849B3C EQ PUSH2 0x46A JUMPI DUP1 PUSH4 0x379607F5 EQ PUSH2 0x4A8 JUMPI PUSH2 0x292 JUMP JUMPDEST DUP1 PUSH4 0x1FFC9A7 EQ PUSH2 0x296 JUMPI DUP1 PUSH4 0x2559004 EQ PUSH2 0x2D2 JUMPI DUP1 PUSH4 0x81E3EDA EQ PUSH2 0x2FC JUMPI DUP1 PUSH4 0x83C6323 EQ PUSH2 0x326 JUMPI DUP1 PUSH4 0x11548234 EQ PUSH2 0x350 JUMPI DUP1 PUSH4 0x248A9CA3 EQ PUSH2 0x38C JUMPI JUMPDEST PUSH0 DUP1 REVERT JUMPDEST CALLVALUE DUP1 ISZERO PUSH2 0x2A1 JUMPI PUSH0 DUP1 REVERT JUMPDEST POP PUSH2 0x2BC PUSH1 0x4 DUP1 CALLDATASIZE SUB DUP2 ADD SWAP1 PUSH2 0x2B7 SWAP2 SWAP1 PUSH2 0x435D JUMP JUMPDEST PUSH2 0xA81 JUMP JUMPDEST PUSH1 0x40 MLOAD PUSH2 0x2C9 SWAP2 SWAP1 PUSH2 0x43A2 JUMP JUMPDEST PUSH1 0x40 MLOAD DUP1 SWAP2 SUB SWAP1 RETURN JUMPDEST CALLVALUE DUP1 ISZERO PUSH2 0x2DD JUMPI PUSH0 DUP1 REVERT JUMPDEST POP PUSH2 0x2E6 PUSH2 0xAFA JUMP JUMPDEST PUSH1 0x40 MLOAD PUSH2 0x2F3 SWAP2 SWAP1 PUSH2 0x43D3 JUMP JUMPDEST PUSH1 0x40 MLOAD DUP1 SWAP2 SUB SWAP1 RETURN JUMPDEST CALLVALUE DUP1 ISZERO PUSH2 0x307 JUMPI PUSH0 DUP1 REVERT JUMPDEST POP PUSH2 0x310 PUSH2 0xB00 JUMP JUMPDEST PUSH1 0x40 MLOAD PUSH2 0x31D SWAP2 SWAP1 PUSH2 0x43D3 JUMP JUMPDEST PUSH1 0x40 MLOAD DUP1 SWAP2 SUB SWAP1 RETURN JUMPDEST CALLVALUE DUP1 ISZERO PUSH2 0x331 JUMPI PUSH0 DUP1 REVERT JUMPDEST POP PUSH2 0x33A PUSH2 0xB0C JUMP JUMPDEST PUSH1 0x40 MLOAD PUSH2 0x347 SWAP2 SWAP1 PUSH2 0x43D3 JUMP JUMPDEST PUSH1 0x40 MLOAD DUP1 SWAP2 SUB SWAP1 RETURN JUMPDEST CALLVALUE DUP1 ISZERO PUSH2 0x35B JUMPI PUSH0 DUP1 REVERT JUMPDEST POP PUSH2 0x376 PUSH1 0x4 DUP1 CALLDATASIZE SUB DUP2 ADD SWAP1 PUSH2 0x371 SWAP2 SWAP1 PUSH2 0x4470 JUMP JUMPDEST PUSH2 0xB12 JUMP JUMPDEST PUSH1 0x40 MLOAD PUSH2 0x383 SWAP2 SWAP1 PUSH2 0x43D3 JUMP JUMPDEST PUSH1 0x40 MLOAD DUP1 SWAP2 SUB SWAP1 RETURN JUMPDEST CALLVALUE DUP1 ISZERO PUSH2 0x397 JUMPI PUSH0 DUP1 REVERT JUMPDEST POP PUSH2 0x3B2 PUSH1 0x4 DUP1 CALLDATASIZE SUB DUP2 ADD SWAP1 PUSH2 0x3AD SWAP2 SWAP1 PUSH2 0x44E1 JUMP JUMPDEST PUSH2 0xBB3 JUMP JUMPDEST PUSH1 0x40 MLOAD PUSH2 0x3BF SWAP2 SWAP1 PUSH2 0x451B JUMP JUMPDEST PUSH1 0x40 MLOAD DUP1 SWAP2 SUB SWAP1 RETURN JUMPDEST CALLVALUE DUP1 ISZERO PUSH2 0x3D3 JUMPI PUSH0 DUP1 REVERT JUMPDEST POP PUSH2 0x3EE PUSH1 0x4 DUP1 CALLDATASIZE SUB DUP2 ADD SWAP1 PUSH2 0x3E9 SWAP2 SWAP1 PUSH2 0x4534 JUMP JUMPDEST PUSH2 0xBDD JUMP JUMPDEST STOP JUMPDEST CALLVALUE DUP1 ISZERO PUSH2 0x3FB JUMPI PUSH0 DUP1 REVERT JUMPDEST POP PUSH2 0x416 PUSH1 0x4 DUP1 CALLDATASIZE SUB DUP2 ADD SWAP1 PUSH2 0x411 SWAP2 SWAP1 PUSH2 0x455F JUMP JUMPDEST PUSH2 0xF6C JUMP JUMPDEST STOP JUMPDEST CALLVALUE DUP1 ISZERO PUSH2 0x423 JUMPI PUSH0 DUP1 REVERT JUMPDEST POP PUSH2 0x42C PUSH2 0xF8E JUMP JUMPDEST PUSH1 0x40 MLOAD PUSH2 0x439 SWAP2 SWAP1 PUSH2 0x43A2 JUMP JUMPDEST PUSH1 0x40 MLOAD DUP1 SWAP2 SUB SWAP1 RETURN JUMPDEST CALLVALUE DUP1 ISZERO PUSH2 0x44D JUMPI PUSH0 DUP1 REVERT JUMPDEST POP PUSH2 0x468 PUSH1 0x4 DUP1 CALLDATASIZE SUB DUP2 ADD SWAP1 PUSH2 0x463 SWAP2 SWAP1 PUSH2 0x455F JUMP JUMPDEST PUSH2 0xFA0 JUMP JUMPDEST STOP JUMPDEST CALLVALUE DUP1 ISZERO PUSH2 0x475 JUMPI PUSH0 DUP1 REVERT JUMPDEST POP PUSH2 0x490 PUSH1 0x4 DUP1 CALLDATASIZE SUB DUP2 ADD SWAP1 PUSH2 0x48B SWAP2 SWAP1 PUSH2 0x4470 JUMP JUMPDEST PUSH2 0x101B JUMP JUMPDEST PUSH1 0x40 MLOAD PUSH2 0x49F SWAP4 SWAP3 SWAP2 SWAP1 PUSH2 0x459D JUMP JUMPDEST PUSH1 0x40 MLOAD DUP1 SWAP2 SUB SWAP1 RETURN JUMPDEST CALLVALUE DUP1 ISZERO PUSH2 0x4B3 JUMPI PUSH0 DUP1 REVERT JUMPDEST POP PUSH2 0x4CE PUSH1 0x4 DUP1 CALLDATASIZE SUB DUP2 ADD SWAP1 PUSH2 0x4C9 SWAP2 SWAP1 PUSH2 0x4534 JUMP JUMPDEST PUSH2 0x104C JUMP JUMPDEST STOP JUMPDEST CALLVALUE DUP1 ISZERO PUSH2 0x4DB JUMPI PUSH0 DUP1 REVERT JUMPDEST POP PUSH2 0x4E4 PUSH2 0x124E JUMP JUMPDEST PUSH1 0x40 MLOAD PUSH2 0x4F1 SWAP2 SWAP1 PUSH2 0x43D3 JUMP JUMPDEST PUSH1 0x40 MLOAD DUP1 SWAP2 SUB SWAP1 RETURN JUMPDEST CALLVALUE DUP1 ISZERO PUSH2 0x505 JUMPI PUSH0 DUP1 REVERT JUMPDEST POP PUSH2 0x520 PUSH1 0x4 DUP1 CALLDATASIZE SUB DUP2 ADD SWAP1 PUSH2 0x51B SWAP2 SWAP1 PUSH2 0x4470 JUMP JUMPDEST PUSH2 0x1254 JUMP JUMPDEST PUSH1 0x40 MLOAD PUSH2 0x52D SWAP2 SWAP1 PUSH2 0x43D3 JUMP JUMPDEST PUSH1 0x40 MLOAD DUP1 SWAP2 SUB SWAP1 RETURN JUMPDEST CALLVALUE DUP1 ISZERO PUSH2 0x541 JUMPI PUSH0 DUP1 REVERT JUMPDEST POP PUSH2 0x55C PUSH1 0x4 DUP1 CALLDATASIZE SUB DUP2 ADD SWAP1 PUSH2 0x557 SWAP2 SWAP1 PUSH2 0x45D2 JUMP JUMPDEST PUSH2 0x12B1 JUMP JUMPDEST PUSH1 0x40 MLOAD PUSH2 0x569 SWAP2 SWAP1 PUSH2 0x43D3 JUMP JUMPDEST PUSH1 0x40 MLOAD DUP1 SWAP2 SUB SWAP1 RETURN JUMPDEST CALLVALUE DUP1 ISZERO PUSH2 0x57D JUMPI PUSH0 DUP1 REVERT JUMPDEST POP PUSH2 0x586 PUSH2 0x1442 JUMP JUMPDEST PUSH1 0x40 MLOAD PUSH2 0x593 SWAP2 SWAP1 PUSH2 0x43D3 JUMP JUMPDEST PUSH1 0x40 MLOAD DUP1 SWAP2 SUB SWAP1 RETURN JUMPDEST CALLVALUE DUP1 ISZERO PUSH2 0x5A7 JUMPI PUSH0 DUP1 REVERT JUMPDEST POP PUSH2 0x5C2 PUSH1 0x4 DUP1 CALLDATASIZE SUB DUP2 ADD SWAP1 PUSH2 0x5BD SWAP2 SWAP1 PUSH2 0x465D JUMP JUMPDEST PUSH2 0x1447 JUMP JUMPDEST STOP JUMPDEST PUSH2 0x5DE PUSH1 0x4 DUP1 CALLDATASIZE SUB DUP2 ADD SWAP1 PUSH2 0x5D9 SWAP2 SWAP1 PUSH2 0x47FD JUMP JUMPDEST PUSH2 0x16A0 JUMP JUMPDEST STOP JUMPDEST CALLVALUE DUP1 ISZERO PUSH2 0x5EB JUMPI PUSH0 DUP1 REVERT JUMPDEST POP PUSH2 0x606 PUSH1 0x4 DUP1 CALLDATASIZE SUB DUP2 ADD SWAP1 PUSH2 0x601 SWAP2 SWAP1 PUSH2 0x4534 JUMP JUMPDEST PUSH2 0x16BF JUMP JUMPDEST STOP JUMPDEST CALLVALUE DUP1 ISZERO PUSH2 0x613 JUMPI PUSH0 DUP1 REVERT JUMPDEST POP PUSH2 0x61C PUSH2 0x1988 JUMP JUMPDEST PUSH1 0x40 MLOAD PUSH2 0x629 SWAP2 SWAP1 PUSH2 0x451B JUMP JUMPDEST PUSH1 0x40 MLOAD DUP1 SWAP2 SUB SWAP1 RETURN JUMPDEST CALLVALUE DUP1 ISZERO PUSH2 0x63D JUMPI PUSH0 DUP1 REVERT JUMPDEST POP PUSH2 0x646 PUSH2 0x19B9 JUMP JUMPDEST STOP JUMPDEST CALLVALUE DUP1 ISZERO PUSH2 0x653 JUMPI PUSH0 DUP1 REVERT JUMPDEST POP PUSH2 0x65C PUSH2 0x1A79 JUMP JUMPDEST PUSH1 0x40 MLOAD PUSH2 0x669 SWAP2 SWAP1 PUSH2 0x43A2 JUMP JUMPDEST PUSH1 0x40 MLOAD DUP1 SWAP2 SUB SWAP1 RETURN JUMPDEST CALLVALUE DUP1 ISZERO PUSH2 0x67D JUMPI PUSH0 DUP1 REVERT JUMPDEST POP PUSH2 0x686 PUSH2 0x1A9B JUMP JUMPDEST STOP JUMPDEST CALLVALUE DUP1 ISZERO PUSH2 0x693 JUMPI PUSH0 DUP1 REVERT JUMPDEST POP PUSH2 0x69C PUSH2 0x1B5D JUMP JUMPDEST STOP JUMPDEST CALLVALUE DUP1 ISZERO PUSH2 0x6A9 JUMPI PUSH0 DUP1 REVERT JUMPDEST POP PUSH2 0x6B2 PUSH2 0x1B8A JUMP JUMPDEST PUSH1 0x40 MLOAD PUSH2 0x6BF SWAP2 SWAP1 PUSH2 0x451B JUMP JUMPDEST PUSH1 0x40 MLOAD DUP1 SWAP2 SUB SWAP1 RETURN JUMPDEST CALLVALUE DUP1 ISZERO PUSH2 0x6D3 JUMPI PUSH0 DUP1 REVERT JUMPDEST POP PUSH2 0x6EE PUSH1 0x4 DUP1 CALLDATASIZE SUB DUP2 ADD SWAP1 PUSH2 0x6E9 SWAP2 SWAP1 PUSH2 0x4857 JUMP JUMPDEST PUSH2 0x1BAE JUMP JUMPDEST PUSH1 0x40 MLOAD PUSH2 0x6FB SWAP2 SWAP1 PUSH2 0x43D3 JUMP JUMPDEST PUSH1 0x40 MLOAD DUP1 SWAP2 SUB SWAP1 RETURN JUMPDEST CALLVALUE DUP1 ISZERO PUSH2 0x70F JUMPI PUSH0 DUP1 REVERT JUMPDEST POP PUSH2 0x718 PUSH2 0x1CC3 JUMP JUMPDEST STOP JUMPDEST CALLVALUE DUP1 ISZERO PUSH2 0x725 JUMPI PUSH0 DUP1 REVERT JUMPDEST POP PUSH2 0x740 PUSH1 0x4 DUP1 CALLDATASIZE SUB DUP2 ADD SWAP1 PUSH2 0x73B SWAP2 SWAP1 PUSH2 0x455F JUMP JUMPDEST PUSH2 0x1D87 JUMP JUMPDEST PUSH1 0x40 MLOAD PUSH2 0x74D SWAP2 SWAP1 PUSH2 0x43A2 JUMP JUMPDEST PUSH1 0x40 MLOAD DUP1 SWAP2 SUB SWAP1 RETURN JUMPDEST CALLVALUE DUP1 ISZERO PUSH2 0x761 JUMPI PUSH0 DUP1 REVERT JUMPDEST POP PUSH2 0x77C PUSH1 0x4 DUP1 CALLDATASIZE SUB DUP2 ADD SWAP1 PUSH2 0x777 SWAP2 SWAP1 PUSH2 0x4857 JUMP JUMPDEST PUSH2 0x1DF8 JUMP JUMPDEST STOP JUMPDEST CALLVALUE DUP1 ISZERO PUSH2 0x789 JUMPI PUSH0 DUP1 REVERT JUMPDEST POP PUSH2 0x792 PUSH2 0x20CF JUMP JUMPDEST PUSH1 0x40 MLOAD PUSH2 0x79F SWAP2 SWAP1 PUSH2 0x451B JUMP JUMPDEST PUSH1 0x40 MLOAD DUP1 SWAP2 SUB SWAP1 RETURN JUMPDEST PUSH2 0x7B0 PUSH2 0x20D5 JUMP JUMPDEST STOP JUMPDEST CALLVALUE DUP1 ISZERO PUSH2 0x7BD JUMPI PUSH0 DUP1 REVERT JUMPDEST POP PUSH2 0x7C6 PUSH2 0x21E9 JUMP JUMPDEST PUSH1 0x40 MLOAD PUSH2 0x7D3 SWAP2 SWAP1 PUSH2 0x48F0 JUMP JUMPDEST PUSH1 0x40 MLOAD DUP1 SWAP2 SUB SWAP1 RETURN JUMPDEST CALLVALUE DUP1 ISZERO PUSH2 0x7E7 JUMPI PUSH0 DUP1 REVERT JUMPDEST POP PUSH2 0x7F0 PUSH2 0x220F JUMP JUMPDEST PUSH1 0x40 MLOAD PUSH2 0x7FD SWAP2 SWAP1 PUSH2 0x43A2 JUMP JUMPDEST PUSH1 0x40 MLOAD DUP1 SWAP2 SUB SWAP1 RETURN JUMPDEST CALLVALUE DUP1 ISZERO PUSH2 0x811 JUMPI PUSH0 DUP1 REVERT JUMPDEST POP PUSH2 0x81A PUSH2 0x2222 JUMP JUMPDEST PUSH1 0x40 MLOAD PUSH2 0x827 SWAP2 SWAP1 PUSH2 0x4969 JUMP JUMPDEST PUSH1 0x40 MLOAD DUP1 SWAP2 SUB SWAP1 RETURN JUMPDEST CALLVALUE DUP1 ISZERO PUSH2 0x83B JUMPI PUSH0 DUP1 REVERT JUMPDEST POP PUSH2 0x856 PUSH1 0x4 DUP1 CALLDATASIZE SUB DUP2 ADD SWAP1 PUSH2 0x851 SWAP2 SWAP1 PUSH2 0x49B3 JUMP JUMPDEST PUSH2 0x225B JUMP JUMPDEST STOP JUMPDEST CALLVALUE DUP1 ISZERO PUSH2 0x863 JUMPI PUSH0 DUP1 REVERT JUMPDEST POP PUSH2 0x86C PUSH2 0x257F JUMP JUMPDEST PUSH1 0x40 MLOAD PUSH2 0x879 SWAP2 SWAP1 PUSH2 0x451B JUMP JUMPDEST PUSH1 0x40 MLOAD DUP1 SWAP2 SUB SWAP1 RETURN JUMPDEST CALLVALUE DUP1 ISZERO PUSH2 0x88D JUMPI PUSH0 DUP1 REVERT JUMPDEST POP PUSH2 0x896 PUSH2 0x25A3 JUMP JUMPDEST PUSH1 0x40 MLOAD PUSH2 0x8A3 SWAP2 SWAP1 PUSH2 0x43D3 JUMP JUMPDEST PUSH1 0x40 MLOAD DUP1 SWAP2 SUB SWAP1 RETURN JUMPDEST CALLVALUE DUP1 ISZERO PUSH2 0x8B7 JUMPI PUSH0 DUP1 REVERT JUMPDEST POP PUSH2 0x8D2 PUSH1 0x4 DUP1 CALLDATASIZE SUB DUP2 ADD SWAP1 PUSH2 0x8CD SWAP2 SWAP1 PUSH2 0x4534 JUMP JUMPDEST PUSH2 0x25A7 JUMP JUMPDEST STOP JUMPDEST CALLVALUE DUP1 ISZERO PUSH2 0x8DF JUMPI PUSH0 DUP1 REVERT JUMPDEST POP PUSH2 0x8FA PUSH1 0x4 DUP1 CALLDATASIZE SUB DUP2 ADD SWAP1 PUSH2 0x8F5 SWAP2 SWAP1 PUSH2 0x4534 JUMP JUMPDEST PUSH2 0x264B JUMP JUMPDEST STOP JUMPDEST CALLVALUE DUP1 ISZERO PUSH2 0x907 JUMPI PUSH0 DUP1 REVERT JUMPDEST POP PUSH2 0x922 PUSH1 0x4 DUP1 CALLDATASIZE SUB DUP2 ADD SWAP1 PUSH2 0x91D SWAP2 SWAP1 PUSH2 0x455F JUMP JUMPDEST PUSH2 0x26F1 JUMP JUMPDEST STOP JUMPDEST CALLVALUE DUP1 ISZERO PUSH2 0x92F JUMPI PUSH0 DUP1 REVERT JUMPDEST POP PUSH2 0x94A PUSH1 0x4 DUP1 CALLDATASIZE SUB DUP2 ADD SWAP1 PUSH2 0x945 SWAP2 SWAP1 PUSH2 0x4A2A JUMP JUMPDEST PUSH2 0x2713 JUMP JUMPDEST STOP JUMPDEST CALLVALUE DUP1 ISZERO PUSH2 0x957 JUMPI PUSH0 DUP1 REVERT JUMPDEST POP PUSH2 0x960 PUSH2 0x280B JUMP JUMPDEST STOP JUMPDEST CALLVALUE DUP1 ISZERO PUSH2 0x96D JUMPI PUSH0 DUP1 REVERT JUMPDEST POP PUSH2 0x988 PUSH1 0x4 DUP1 CALLDATASIZE SUB DUP2 ADD SWAP1 PUSH2 0x983 SWAP2 SWAP1 PUSH2 0x4857 JUMP JUMPDEST PUSH2 0x28CD JUMP JUMPDEST STOP JUMPDEST CALLVALUE DUP1 ISZERO PUSH2 0x995 JUMPI PUSH0 DUP1 REVERT JUMPDEST POP PUSH2 0x9B0 PUSH1 0x4 DUP1 CALLDATASIZE SUB DUP2 ADD SWAP1 PUSH2 0x9AB SWAP2 SWAP1 PUSH2 0x4534 JUMP JUMPDEST PUSH2 0x2A30 JUMP JUMPDEST STOP JUMPDEST CALLVALUE DUP1 ISZERO PUSH2 0x9BD JUMPI PUSH0 DUP1 REVERT JUMPDEST POP PUSH2 0x9D8 PUSH1 0x4 DUP1 CALLDATASIZE SUB DUP2 ADD SWAP1 PUSH2 0x9D3 SWAP2 SWAP1 PUSH2 0x4A7A JUMP JUMPDEST PUSH2 0x2AD6 JUMP JUMPDEST STOP JUMPDEST CALLVALUE DUP1 ISZERO PUSH2 0x9E5 JUMPI PUSH0 DUP1 REVERT JUMPDEST POP PUSH2 0xA00 PUSH1 0x4 DUP1 CALLDATASIZE SUB DUP2 ADD SWAP1 PUSH2 0x9FB SWAP2 SWAP1 PUSH2 0x4AA5 JUMP JUMPDEST PUSH2 0x2BAA JUMP JUMPDEST STOP JUMPDEST CALLVALUE DUP1 ISZERO PUSH2 0xA0D JUMPI PUSH0 DUP1 REVERT JUMPDEST POP PUSH2 0xA28 PUSH1 0x4 DUP1 CALLDATASIZE SUB DUP2 ADD SWAP1 PUSH2 0xA23 SWAP2 SWAP1 PUSH2 0x4534 JUMP JUMPDEST PUSH2 0x2D19 JUMP JUMPDEST PUSH1 0x40 MLOAD PUSH2 0xA3B SWAP8 SWAP7 SWAP6 SWAP5 SWAP4 SWAP3 SWAP2 SWAP1 PUSH2 0x4B04 JUMP JUMPDEST PUSH1 0x40 MLOAD DUP1 SWAP2 SUB SWAP1 RETURN JUMPDEST CALLVALUE DUP1 ISZERO PUSH2 0xA4F JUMPI PUSH0 DUP1 REVERT JUMPDEST POP PUSH2 0xA6A PUSH1 0x4 DUP1 CALLDATASIZE SUB DUP2 ADD SWAP1 PUSH2 0xA65 SWAP2 SWAP1 PUSH2 0x4470 JUMP JUMPDEST PUSH2 0x2D85 JUMP JUMPDEST PUSH1 0x40 MLOAD PUSH2 0xA78 SWAP3 SWAP2 SWAP1 PUSH2 0x4B71 JUMP JUMPDEST PUSH1 0x40 MLOAD DUP1 SWAP2 SUB SWAP1 RETURN JUMPDEST PUSH0 PUSH32 0x7965DB0B00000000000000000000000000000000000000000000000000000000 PUSH28 0xFFFFFFFFFFFFFFFFFFFFFFFFFFFFFFFFFFFFFFFFFFFFFFFFFFFFFFFF NOT AND DUP3 PUSH28 0xFFFFFFFFFFFFFFFFFFFFFFFFFFFFFFFFFFFFFFFFFFFFFFFFFFFFFFFF NOT AND EQ DUP1 PUSH2 0xAF3 JUMPI POP PUSH2 0xAF2 DUP3 PUSH2 0x2ED7 JUMP JUMPDEST JUMPDEST SWAP1 POP SWAP2 SWAP1 POP JUMP JUMPDEST PUSH1 0x4 SLOAD DUP2 JUMP JUMPDEST PUSH0 PUSH1 0x5 DUP1 SLOAD SWAP1 POP SWAP1 POP SWAP1 JUMP JUMPDEST PUSH1 0x1 SLOAD DUP2 JUMP JUMPDEST PUSH0 DUP3 PUSH1 0x5 DUP1 SLOAD SWAP1 POP DUP2 LT PUSH2 0xB5B JUMPI PUSH1 0x40 MLOAD PUSH32 0x8C379A000000000000000000000000000000000000000000000000000000000 DUP2 MSTORE PUSH1 0x4 ADD PUSH2 0xB52 SWAP1 PUSH2 0x4BE2 JUMP JUMPDEST PUSH1 0x40 MLOAD DUP1 SWAP2 SUB SWAP1 REVERT JUMPDEST PUSH1 0x6 PUSH0 DUP6 DUP2 MSTORE PUSH1 0x20 ADD SWAP1 DUP2 MSTORE PUSH1 0x20 ADD PUSH0 KECCAK256 PUSH0 DUP5 PUSH20 0xFFFFFFFFFFFFFFFFFFFFFFFFFFFFFFFFFFFFFFFF AND PUSH20 0xFFFFFFFFFFFFFFFFFFFFFFFFFFFFFFFFFFFFFFFF AND DUP2 MSTORE PUSH1 0x20 ADD SWAP1 DUP2 MSTORE PUSH1 0x20 ADD PUSH0 KECCAK256 PUSH0 ADD SLOAD SWAP2 POP POP SWAP3 SWAP2 POP POP JUMP JUMPDEST PUSH0 DUP1 PUSH2 0xBBD PUSH2 0x2F40 JUMP JUMPDEST SWAP1 POP DUP1 PUSH0 ADD PUSH0 DUP5 DUP2 MSTORE PUSH1 0x20 ADD SWAP1 DUP2 MSTORE PUSH1 0x20 ADD PUSH0 KECCAK256 PUSH1 0x1 ADD SLOAD SWAP2 POP POP SWAP2 SWAP1 POP JUMP JUMPDEST PUSH2 0xBE5 PUSH2 0x2F67 JUMP JUMPDEST DUP1 PUSH1 0x5 DUP1 SLOAD SWAP1 POP DUP2 LT PUSH2 0xC2D JUMPI PUSH1 0x40 MLOAD PUSH32 0x8C379A000000000000000000000000000000000000000000000000000000000 DUP2 MSTORE PUSH1 0x4 ADD PUSH2 0xC24 SWAP1 PUSH2 0x4BE2 JUMP JUMPDEST PUSH1 0x40 MLOAD DUP1 SWAP2 SUB SWAP1 REVERT JUMPDEST PUSH1 0x3 PUSH0 SWAP1 SLOAD SWAP1 PUSH2 0x100 EXP SWAP1 DIV PUSH1 0xFF AND ISZERO PUSH2 0xC7C JUMPI PUSH1 0x40 MLOAD PUSH32 0x8C379A000000000000000000000000000000000000000000000000000000000 DUP2 MSTORE PUSH1 0x4 ADD PUSH2 0xC73 SWAP1 PUSH2 0x4C4A JUMP JUMPDEST PUSH1 0x40 MLOAD DUP1 SWAP2 SUB SWAP1 REVERT JUMPDEST PUSH0 PUSH1 0x5 DUP4 DUP2 SLOAD DUP2 LT PUSH2 0xC91 JUMPI PUSH2 0xC90 PUSH2 0x4C68 JUMP JUMPDEST JUMPDEST SWAP1 PUSH0 MSTORE PUSH1 0x20 PUSH0 KECCAK256 SWAP1 PUSH1 0x7 MUL ADD SWAP1 POP PUSH0 PUSH1 0x6 PUSH0 DUP6 DUP2 MSTORE PUSH1 0x20 ADD SWAP1 DUP2 MSTORE PUSH1 0x20 ADD PUSH0 KECCAK256 PUSH0 CALLER PUSH20 0xFFFFFFFFFFFFFFFFFFFFFFFFFFFFFFFFFFFFFFFF AND PUSH20 0xFFFFFFFFFFFFFFFFFFFFFFFFFFFFFFFFFFFFFFFF AND DUP2 MSTORE PUSH1 0x20 ADD SWAP1 DUP2 MSTORE PUSH1 0x20 ADD PUSH0 KECCAK256 SWAP1 POP PUSH0 DUP1 PUSH0 JUMPDEST DUP4 PUSH1 0x3 ADD DUP1 SLOAD SWAP1 POP DUP2 LT ISZERO PUSH2 0xD7A JUMPI NUMBER DUP5 PUSH1 0x3 ADD DUP3 DUP2 SLOAD DUP2 LT PUSH2 0xD18 JUMPI PUSH2 0xD17 PUSH2 0x4C68 JUMP JUMPDEST JUMPDEST SWAP1 PUSH0 MSTORE PUSH1 0x20 PUSH0 KECCAK256 SWAP1 PUSH1 0x2 MUL ADD PUSH1 0x1 ADD SLOAD GT PUSH2 0xD7A JUMPI DUP4 PUSH1 0x3 ADD DUP2 DUP2 SLOAD DUP2 LT PUSH2 0xD43 JUMPI PUSH2 0xD42 PUSH2 0x4C68 JUMP JUMPDEST JUMPDEST SWAP1 PUSH0 MSTORE PUSH1 0x20 PUSH0 KECCAK256 SWAP1 PUSH1 0x2 MUL ADD PUSH0 ADD SLOAD DUP4 PUSH2 0xD5D SWAP2 SWAP1 PUSH2 0x4CC2 JUMP JUMPDEST SWAP3 POP DUP2 DUP1 PUSH2 0xD6A SWAP1 PUSH2 0x4CF5 JUMP JUMPDEST SWAP3 POP POP DUP1 DUP1 PUSH1 0x1 ADD SWAP2 POP POP PUSH2 0xCF2 JUMP JUMPDEST POP PUSH0 JUMPDEST DUP2 DUP5 PUSH1 0x3 ADD DUP1 SLOAD SWAP1 POP PUSH2 0xD90 SWAP2 SWAP1 PUSH2 0x4D3C JUMP JUMPDEST DUP2 LT ISZERO PUSH2 0xE08 JUMPI DUP4 PUSH1 0x3 ADD DUP3 DUP3 PUSH2 0xDA7 SWAP2 SWAP1 PUSH2 0x4CC2 JUMP JUMPDEST DUP2 SLOAD DUP2 LT PUSH2 0xDB8 JUMPI PUSH2 0xDB7 PUSH2 0x4C68 JUMP JUMPDEST JUMPDEST SWAP1 PUSH0 MSTORE PUSH1 0x20 PUSH0 KECCAK256 SWAP1 PUSH1 0x2 MUL ADD DUP5 PUSH1 0x3 ADD DUP3 DUP2 SLOAD DUP2 LT PUSH2 0xDDA JUMPI PUSH2 0xDD9 PUSH2 0x4C68 JUMP JUMPDEST JUMPDEST SWAP1 PUSH0 MSTORE PUSH1 0x20 PUSH0 KECCAK256 SWAP1 PUSH1 0x2 MUL ADD PUSH0 DUP3 ADD SLOAD DUP2 PUSH0 ADD SSTORE PUSH1 0x1 DUP3 ADD SLOAD DUP2 PUSH1 0x1 ADD SSTORE SWAP1 POP POP DUP1 DUP1 PUSH1 0x1 ADD SWAP2 POP POP PUSH2 0xD7D JUMP JUMPDEST POP PUSH0 JUMPDEST DUP2 DUP2 LT ISZERO PUSH2 0xE58 JUMPI DUP4 PUSH1 0x3 ADD DUP1 SLOAD DUP1 PUSH2 0xE27 JUMPI PUSH2 0xE26 PUSH2 0x4D6F JUMP JUMPDEST JUMPDEST PUSH1 0x1 SWAP1 SUB DUP2 DUP2 SWAP1 PUSH0 MSTORE PUSH1 0x20 PUSH0 KECCAK256 SWAP1 PUSH1 0x2 MUL ADD PUSH0 DUP1 DUP3 ADD PUSH0 SWAP1 SSTORE PUSH1 0x1 DUP3 ADD PUSH0 SWAP1 SSTORE POP POP SWAP1 SSTORE DUP1 DUP1 PUSH1 0x1 ADD SWAP2 POP POP PUSH2 0xE0B JUMP JUMPDEST POP PUSH0 DUP3 GT ISZERO PUSH2 0xF14 JUMPI PUSH0 PUSH20 0xFFFFFFFFFFFFFFFFFFFFFFFFFFFFFFFFFFFFFFFF AND DUP5 PUSH0 ADD PUSH0 SWAP1 SLOAD SWAP1 PUSH2 0x100 EXP SWAP1 DIV PUSH20 0xFFFFFFFFFFFFFFFFFFFFFFFFFFFFFFFFFFFFFFFF AND PUSH20 0xFFFFFFFFFFFFFFFFFFFFFFFFFFFFFFFFFFFFFFFF AND SUB PUSH2 0xEC5 JUMPI PUSH2 0xEC0 CALLER DUP4 PUSH2 0x2FA8 JUMP JUMPDEST PUSH2 0xF13 JUMP JUMPDEST PUSH2 0xF12 CALLER DUP4 DUP7 PUSH0 ADD PUSH0 SWAP1 SLOAD SWAP1 PUSH2 0x100 EXP SWAP1 DIV PUSH20 0xFFFFFFFFFFFFFFFFFFFFFFFFFFFFFFFFFFFFFFFF AND PUSH20 0xFFFFFFFFFFFFFFFFFFFFFFFFFFFFFFFFFFFFFFFF AND PUSH2 0x30B5 SWAP1 SWAP3 SWAP2 SWAP1 PUSH4 0xFFFFFFFF AND JUMP JUMPDEST JUMPDEST JUMPDEST NUMBER DUP7 CALLER PUSH20 0xFFFFFFFFFFFFFFFFFFFFFFFFFFFFFFFFFFFFFFFF AND PUSH32 0x2F25270A4D87BEA75DB541CDFE559334A275B4A233520ED6C0A2429667CCA94 DUP6 PUSH1 0x40 MLOAD PUSH2 0xF5C SWAP2 SWAP1 PUSH2 0x43D3 JUMP JUMPDEST PUSH1 0x40 MLOAD DUP1 SWAP2 SUB SWAP1 LOG4 POP POP POP POP POP POP JUMP JUMPDEST PUSH2 0xF75 DUP3 PUSH2 0xBB3 JUMP JUMPDEST PUSH2 0xF7E DUP2 PUSH2 0x3134 JUMP JUMPDEST PUSH2 0xF88 DUP4 DUP4 PUSH2 0x3148 JUMP JUMPDEST POP POP POP POP JUMP JUMPDEST PUSH1 0x3 PUSH0 SWAP1 SLOAD SWAP1 PUSH2 0x100 EXP SWAP1 DIV PUSH1 0xFF AND DUP2 JUMP JUMPDEST PUSH2 0xFA8 PUSH2 0x3240 JUMP JUMPDEST PUSH20 0xFFFFFFFFFFFFFFFFFFFFFFFFFFFFFFFFFFFFFFFF AND DUP2 PUSH20 0xFFFFFFFFFFFFFFFFFFFFFFFFFFFFFFFFFFFFFFFF AND EQ PUSH2 0x100C JUMPI PUSH1 0x40 MLOAD PUSH32 0x6697B23200000000000000000000000000000000000000000000000000000000 DUP2 MSTORE PUSH1 0x4 ADD PUSH1 0x40 MLOAD DUP1 SWAP2 SUB SWAP1 REVERT JUMPDEST PUSH2 0x1016 DUP3 DUP3 PUSH2 0x3247 JUMP JUMPDEST POP POP POP JUMP JUMPDEST PUSH1 0x6 PUSH1 0x20 MSTORE DUP2 PUSH0 MSTORE PUSH1 0x40 PUSH0 KECCAK256 PUSH1 0x20 MSTORE DUP1 PUSH0 MSTORE PUSH1 0x40 PUSH0 KECCAK256 PUSH0 SWAP2 POP SWAP2 POP POP DUP1 PUSH0 ADD SLOAD SWAP1 DUP1 PUSH1 0x1 ADD SLOAD SWAP1 DUP1 PUSH1 0x2 ADD SLOAD SWAP1 POP DUP4 JUMP JUMPDEST PUSH2 0x1054 PUSH2 0x2F67 JUMP JUMPDEST DUP1 PUSH1 0x5 DUP1 SLOAD SWAP1 POP DUP2 LT PUSH2 0x109C JUMPI PUSH1 0x40 MLOAD PUSH32 0x8C379A000000000000000000000000000000000000000000000000000000000 DUP2 MSTORE PUSH1 0x4 ADD PUSH2 0x1093 SWAP1 PUSH2 0x4BE2 JUMP JUMPDEST PUSH1 0x40 MLOAD DUP1 SWAP2 SUB SWAP1 REVERT JUMPDEST PUSH1 0x3 PUSH1 0x1 SWAP1 SLOAD SWAP1 PUSH2 0x100 EXP SWAP1 DIV PUSH1 0xFF AND ISZERO PUSH2 0x10EC JUMPI PUSH1 0x40 MLOAD PUSH32 0x8C379A000000000000000000000000000000000000000000000000000000000 DUP2 MSTORE PUSH1 0x4 ADD PUSH2 0x10E3 SWAP1 PUSH2 0x4DE6 JUMP JUMPDEST PUSH1 0x40 MLOAD DUP1 SWAP2 SUB SWAP1 REVERT JUMPDEST PUSH0 PUSH1 0x5 DUP4 DUP2 SLOAD DUP2 LT PUSH2 0x1101 JUMPI PUSH2 0x1100 PUSH2 0x4C68 JUMP JUMPDEST JUMPDEST SWAP1 PUSH0 MSTORE PUSH1 0x20 PUSH0 KECCAK256 SWAP1 PUSH1 0x7 MUL ADD SWAP1 POP PUSH0 PUSH1 0x6 PUSH0 DUP6 DUP2 MSTORE PUSH1 0x20 ADD SWAP1 DUP2 MSTORE PUSH1 0x20 ADD PUSH0 KECCAK256 PUSH0 CALLER PUSH20 0xFFFFFFFFFFFFFFFFFFFFFFFFFFFFFFFFFFFFFFFF AND PUSH20 0xFFFFFFFFFFFFFFFFFFFFFFFFFFFFFFFFFFFFFFFF AND DUP2 MSTORE PUSH1 0x20 ADD SWAP1 DUP2 MSTORE PUSH1 0x20 ADD PUSH0 KECCAK256 SWAP1 POP PUSH2 0x1167 DUP5 PUSH2 0x16BF JUMP JUMPDEST PUSH0 DUP2 PUSH1 0x2 ADD SLOAD DUP3 PUSH1 0x1 ADD SLOAD PUSH8 0xDE0B6B3A7640000 DUP6 PUSH1 0x3 ADD SLOAD DUP6 PUSH0 ADD SLOAD PUSH2 0x118E SWAP2 SWAP1 PUSH2 0x4E04 JUMP JUMPDEST PUSH2 0x1198 SWAP2 SWAP1 PUSH2 0x4E72 JUMP JUMPDEST PUSH2 0x11A2 SWAP2 SWAP1 PUSH2 0x4D3C JUMP JUMPDEST PUSH2 0x11AC SWAP2 SWAP1 PUSH2 0x4CC2 JUMP JUMPDEST SWAP1 POP PUSH0 DUP2 GT ISZERO PUSH2 0x11CA JUMPI PUSH0 DUP3 PUSH1 0x2 ADD DUP2 SWAP1 SSTORE POP PUSH2 0x11C9 CALLER DUP3 PUSH2 0x333F JUMP JUMPDEST JUMPDEST PUSH8 0xDE0B6B3A7640000 DUP4 PUSH1 0x3 ADD SLOAD DUP4 PUSH0 ADD SLOAD PUSH2 0x11E6 SWAP2 SWAP1 PUSH2 0x4E04 JUMP JUMPDEST PUSH2 0x11F0 SWAP2 SWAP1 PUSH2 0x4E72 JUMP JUMPDEST DUP3 PUSH1 0x1 ADD DUP2 SWAP1 SSTORE POP DUP5 CALLER PUSH20 0xFFFFFFFFFFFFFFFFFFFFFFFFFFFFFFFFFFFFFFFF AND PUSH32 0x34FCBAC0073D7C3D388E51312FAF357774904998EEB8FCA628B9E6F65EE1CBF7 DUP4 PUSH1 0x40 MLOAD PUSH2 0x123F SWAP2 SWAP1 PUSH2 0x43D3 JUMP JUMPDEST PUSH1 0x40 MLOAD DUP1 SWAP2 SUB SWAP1 LOG3 POP POP POP POP POP JUMP JUMPDEST PUSH1 0x2 SLOAD DUP2 JUMP JUMPDEST PUSH0 DUP3 PUSH1 0x5 DUP1 SLOAD SWAP1 POP DUP2 LT PUSH2 0x129D JUMPI PUSH1 0x40 MLOAD PUSH32 0x8C379A000000000000000000000000000000000000000000000000000000000 DUP2 MSTORE PUSH1 0x4 ADD PUSH2 0x1294 SWAP1 PUSH2 0x4BE2 JUMP JUMPDEST PUSH1 0x40 MLOAD DUP1 SWAP2 SUB SWAP1 REVERT JUMPDEST PUSH2 0x12A8 DUP5 DUP5 NUMBER PUSH2 0x12B1 JUMP JUMPDEST SWAP2 POP POP SWAP3 SWAP2 POP POP JUMP JUMPDEST PUSH0 DUP4 PUSH1 0x5 DUP1 SLOAD SWAP1 POP DUP2 LT PUSH2 0x12FA JUMPI PUSH1 0x40 MLOAD PUSH32 0x8C379A000000000000000000000000000000000000000000000000000000000 DUP2 MSTORE PUSH1 0x4 ADD PUSH2 0x12F1 SWAP1 PUSH2 0x4BE2 JUMP JUMPDEST PUSH1 0x40 MLOAD DUP1 SWAP2 SUB SWAP1 REVERT JUMPDEST PUSH0 PUSH1 0x5 DUP7 DUP2 SLOAD DUP2 LT PUSH2 0x130F JUMPI PUSH2 0x130E PUSH2 0x4C68 JUMP JUMPDEST JUMPDEST SWAP1 PUSH0 MSTORE PUSH1 0x20 PUSH0 KECCAK256 SWAP1 PUSH1 0x7 MUL ADD SWAP1 POP PUSH0 PUSH1 0x6 PUSH0 DUP9 DUP2 MSTORE PUSH1 0x20 ADD SWAP1 DUP2 MSTORE PUSH1 0x20 ADD PUSH0 KECCAK256 PUSH0 DUP8 PUSH20 0xFFFFFFFFFFFFFFFFFFFFFFFFFFFFFFFFFFFFFFFF AND PUSH20 0xFFFFFFFFFFFFFFFFFFFFFFFFFFFFFFFFFFFFFFFF AND DUP2 MSTORE PUSH1 0x20 ADD SWAP1 DUP2 MSTORE PUSH1 0x20 ADD PUSH0 KECCAK256 SWAP1 POP PUSH0 DUP3 PUSH1 0x3 ADD SLOAD SWAP1 POP PUSH0 DUP4 PUSH1 0x4 ADD SLOAD SWAP1 POP DUP4 PUSH1 0x2 ADD SLOAD DUP8 GT DUP1 ISZERO PUSH2 0x138F JUMPI POP PUSH0 DUP2 EQ ISZERO JUMPDEST ISZERO PUSH2 0x13F4 JUMPI PUSH0 PUSH2 0x13A3 DUP6 PUSH1 0x2 ADD SLOAD DUP10 PUSH2 0x1BAE JUMP JUMPDEST SWAP1 POP PUSH0 PUSH1 0x4 SLOAD DUP7 PUSH1 0x1 ADD SLOAD DUP4 PUSH2 0x13B9 SWAP2 SWAP1 PUSH2 0x4E04 JUMP JUMPDEST PUSH2 0x13C3 SWAP2 SWAP1 PUSH2 0x4E72 JUMP JUMPDEST SWAP1 POP DUP3 PUSH8 0xDE0B6B3A7640000 DUP3 PUSH2 0x13DA SWAP2 SWAP1 PUSH2 0x4E04 JUMP JUMPDEST PUSH2 0x13E4 SWAP2 SWAP1 PUSH2 0x4E72 JUMP JUMPDEST DUP5 PUSH2 0x13EF SWAP2 SWAP1 PUSH2 0x4CC2 JUMP JUMPDEST SWAP4 POP POP POP JUMPDEST DUP3 PUSH1 0x2 ADD SLOAD DUP4 PUSH1 0x1 ADD SLOAD PUSH8 0xDE0B6B3A7640000 DUP5 DUP7 PUSH0 ADD SLOAD PUSH2 0x1416 SWAP2 SWAP1 PUSH2 0x4E04 JUMP JUMPDEST PUSH2 0x1420 SWAP2 SWAP1 PUSH2 0x4E72 JUMP JUMPDEST PUSH2 0x142A SWAP2 SWAP1 PUSH2 0x4D3C JUMP JUMPDEST PUSH2 0x1434 SWAP2 SWAP1 PUSH2 0x4CC2 JUMP JUMPDEST SWAP6 POP POP POP POP POP POP SWAP4 SWAP3 POP POP POP JUMP JUMPDEST PUSH0 SLOAD DUP2 JUMP JUMPDEST PUSH0 PUSH2 0x1450 PUSH2 0x352B JUMP JUMPDEST SWAP1 POP PUSH0 DUP2 PUSH0 ADD PUSH1 0x8 SWAP1 SLOAD SWAP1 PUSH2 0x100 EXP SWAP1 DIV PUSH1 0xFF AND ISZERO SWAP1 POP PUSH0 DUP3 PUSH0 ADD PUSH0 SWAP1 SLOAD SWAP1 PUSH2 0x100 EXP SWAP1 DIV PUSH8 0xFFFFFFFFFFFFFFFF AND SWAP1 POP PUSH0 DUP1 DUP3 PUSH8 0xFFFFFFFFFFFFFFFF AND EQ DUP1 ISZERO PUSH2 0x1498 JUMPI POP DUP3 JUMPDEST SWAP1 POP PUSH0 PUSH1 0x1 DUP4 PUSH8 0xFFFFFFFFFFFFFFFF AND EQ DUP1 ISZERO PUSH2 0x14CB JUMPI POP PUSH0 ADDRESS PUSH20 0xFFFFFFFFFFFFFFFFFFFFFFFFFFFFFFFFFFFFFFFF AND EXTCODESIZE EQ JUMPDEST SWAP1 POP DUP2 ISZERO DUP1 ISZERO PUSH2 0x14D9 JUMPI POP DUP1 ISZERO JUMPDEST ISZERO PUSH2 0x1510 JUMPI PUSH1 0x40 MLOAD PUSH32 0xF92EE8A900000000000000000000000000000000000000000000000000000000 DUP2 MSTORE PUSH1 0x4 ADD PUSH1 0x40 MLOAD DUP1 SWAP2 SUB SWAP1 REVERT JUMPDEST PUSH1 0x1 DUP6 PUSH0 ADD PUSH0 PUSH2 0x100 EXP DUP2 SLOAD DUP2 PUSH8 0xFFFFFFFFFFFFFFFF MUL NOT AND SWAP1 DUP4 PUSH8 0xFFFFFFFFFFFFFFFF AND MUL OR SWAP1 SSTORE POP DUP4 ISZERO PUSH2 0x155D JUMPI PUSH1 0x1 DUP6 PUSH0 ADD PUSH1 0x8 PUSH2 0x100 EXP DUP2 SLOAD DUP2 PUSH1 0xFF MUL NOT AND SWAP1 DUP4 ISZERO ISZERO MUL OR SWAP1 SSTORE POP JUMPDEST DUP7 DUP9 GT ISZERO DUP1 ISZERO PUSH2 0x156C JUMPI POP PUSH0 DUP7 GT JUMPDEST PUSH2 0x15AB JUMPI PUSH1 0x40 MLOAD PUSH32 0x8C379A000000000000000000000000000000000000000000000000000000000 DUP2 MSTORE PUSH1 0x4 ADD PUSH2 0x15A2 SWAP1 PUSH2 0x4EEC JUMP JUMPDEST PUSH1 0x40 MLOAD DUP1 SWAP2 SUB SWAP1 REVERT JUMPDEST PUSH2 0x15B3 PUSH2 0x3552 JUMP JUMPDEST PUSH2 0x15BB PUSH2 0x355C JUMP JUMPDEST PUSH2 0x15C7 PUSH0 DUP1 SHL CALLER PUSH2 0x3148 JUMP JUMPDEST POP PUSH2 0x15F2 PUSH32 0xCAB03BC4DBCC648CD59D6BBE9F848D1E9092F914016AA290EE92E18700D1E6F9 CALLER PUSH2 0x3148 JUMP JUMPDEST POP PUSH2 0x161D PUSH32 0x589D473BA17C0F47D494622893831497BAD25919B9AFB8E33E9521B8963FCCDE CALLER PUSH2 0x3148 JUMP JUMPDEST POP PUSH2 0x1627 DUP10 PUSH2 0x2AD6 JUMP JUMPDEST DUP8 PUSH0 DUP2 SWAP1 SSTORE POP DUP7 PUSH1 0x1 DUP2 SWAP1 SSTORE POP DUP6 PUSH1 0x2 DUP2 SWAP1 SSTORE POP DUP4 ISZERO PUSH2 0x1695 JUMPI PUSH0 DUP6 PUSH0 ADD PUSH1 0x8 PUSH2 0x100 EXP DUP2 SLOAD DUP2 PUSH1 0xFF MUL NOT AND SWAP1 DUP4 ISZERO ISZERO MUL OR SWAP1 SSTORE POP PUSH32 0xC7F505B2F371AE2175EE4913F4499E1F2633A7B5936321EED1CDAEB6115181D2 PUSH1 0x1 PUSH1 0x40 MLOAD PUSH2 0x168C SWAP2 SWAP1 PUSH2 0x4F56 JUMP JUMPDEST PUSH1 0x40 MLOAD DUP1 SWAP2 SUB SWAP1 LOG1 JUMPDEST POP POP POP POP POP POP POP POP POP JUMP JUMPDEST PUSH2 0x16A8 PUSH2 0x3566 JUMP JUMPDEST PUSH2 0x16B1 DUP3 PUSH2 0x364C JUMP JUMPDEST PUSH2 0x16BB DUP3 DUP3 PUSH2 0x367A JUMP JUMPDEST POP POP JUMP JUMPDEST DUP1 PUSH1 0x5 DUP1 SLOAD SWAP1 POP DUP2 LT PUSH2 0x1707 JUMPI PUSH1 0x40 MLOAD PUSH32 0x8C379A000000000000000000000000000000000000000000000000000000000 DUP2 MSTORE PUSH1 0x4 ADD PUSH2 0x16FE SWAP1 PUSH2 0x4BE2 JUMP JUMPDEST PUSH1 0x40 MLOAD DUP1 SWAP2 SUB SWAP1 REVERT JUMPDEST PUSH0 PUSH1 0x5 DUP4 DUP2 SLOAD DUP2 LT PUSH2 0x171C JUMPI PUSH2 0x171B PUSH2 0x4C68 JUMP JUMPDEST JUMPDEST SWAP1 PUSH0 MSTORE PUSH1 0x20 PUSH0 KECCAK256 SWAP1 PUSH1 0x7 MUL ADD SWAP1 POP DUP1 PUSH1 0x2 ADD SLOAD NUMBER GT PUSH2 0x173B JUMPI POP PUSH2 0x1984 JUMP JUMPDEST PUSH0 DUP1 PUSH2 0x1761 DUP4 PUSH1 0x1 ADD SLOAD PUSH2 0x1753 DUP6 PUSH1 0x2 ADD SLOAD NUMBER PUSH2 0x1BAE JUMP JUMPDEST PUSH2 0x3798 SWAP1 SWAP2 SWAP1 PUSH4 0xFFFFFFFF AND JUMP JUMPDEST SWAP2 POP SWAP2 POP DUP2 PUSH2 0x17A5 JUMPI PUSH1 0x40 MLOAD PUSH32 0x8C379A000000000000000000000000000000000000000000000000000000000 DUP2 MSTORE PUSH1 0x4 ADD PUSH2 0x179C SWAP1 PUSH2 0x4FB9 JUMP JUMPDEST PUSH1 0x40 MLOAD DUP1 SWAP2 SUB SWAP1 REVERT JUMPDEST PUSH2 0x17BA PUSH1 0x4 SLOAD DUP3 PUSH2 0x37E6 SWAP1 SWAP2 SWAP1 PUSH4 0xFFFFFFFF AND JUMP JUMPDEST DUP1 SWAP3 POP DUP2 SWAP4 POP POP POP DUP2 PUSH2 0x1802 JUMPI PUSH1 0x40 MLOAD PUSH32 0x8C379A000000000000000000000000000000000000000000000000000000000 DUP2 MSTORE PUSH1 0x4 ADD PUSH2 0x17F9 SWAP1 PUSH2 0x5047 JUMP JUMPDEST PUSH1 0x40 MLOAD DUP1 SWAP2 SUB SWAP1 REVERT JUMPDEST PUSH0 DUP4 PUSH1 0x4 ADD SLOAD SWAP1 POP PUSH0 DUP2 GT ISZERO PUSH2 0x1939 JUMPI PUSH0 DUP1 PUSH2 0x182F PUSH8 0xDE0B6B3A7640000 DUP6 PUSH2 0x3798 SWAP1 SWAP2 SWAP1 PUSH4 0xFFFFFFFF AND JUMP JUMPDEST SWAP2 POP SWAP2 POP DUP2 PUSH2 0x1873 JUMPI PUSH1 0x40 MLOAD PUSH32 0x8C379A000000000000000000000000000000000000000000000000000000000 DUP2 MSTORE PUSH1 0x4 ADD PUSH2 0x186A SWAP1 PUSH2 0x50AF JUMP JUMPDEST PUSH1 0x40 MLOAD DUP1 SWAP2 SUB SWAP1 REVERT JUMPDEST PUSH2 0x1886 DUP4 DUP3 PUSH2 0x37E6 SWAP1 SWAP2 SWAP1 PUSH4 0xFFFFFFFF AND JUMP JUMPDEST DUP1 SWAP3 POP DUP2 SWAP4 POP POP POP DUP2 PUSH2 0x18CE JUMPI PUSH1 0x40 MLOAD PUSH32 0x8C379A000000000000000000000000000000000000000000000000000000000 DUP2 MSTORE PUSH1 0x4 ADD PUSH2 0x18C5 SWAP1 PUSH2 0x5117 JUMP JUMPDEST PUSH1 0x40 MLOAD DUP1 SWAP2 SUB SWAP1 REVERT JUMPDEST PUSH0 DUP1 PUSH2 0x18E7 DUP4 DUP10 PUSH1 0x3 ADD SLOAD PUSH2 0x3819 SWAP1 SWAP2 SWAP1 PUSH4 0xFFFFFFFF AND JUMP JUMPDEST SWAP2 POP SWAP2 POP DUP2 PUSH2 0x192B JUMPI PUSH1 0x40 MLOAD PUSH32 0x8C379A000000000000000000000000000000000000000000000000000000000 DUP2 MSTORE PUSH1 0x4 ADD PUSH2 0x1922 SWAP1 PUSH2 0x517F JUMP JUMPDEST PUSH1 0x40 MLOAD DUP1 SWAP2 SUB SWAP1 REVERT JUMPDEST DUP1 DUP9 PUSH1 0x3 ADD DUP2 SWAP1 SSTORE POP POP POP POP POP JUMPDEST NUMBER DUP5 PUSH1 0x2 ADD DUP2 SWAP1 SSTORE POP DUP4 PUSH1 0x2 ADD SLOAD DUP7 PUSH32 0xF5D2D72D9B25D6853AFD7D0554A113B705234B6A68BB36B7F143662994632411 DUP5 PUSH1 0x40 MLOAD PUSH2 0x1977 SWAP2 SWAP1 PUSH2 0x43D3 JUMP JUMPDEST PUSH1 0x40 MLOAD DUP1 SWAP2 SUB SWAP1 LOG3 POP POP POP POP JUMPDEST POP POP JUMP JUMPDEST PUSH0 PUSH2 0x1991 PUSH2 0x3845 JUMP JUMPDEST PUSH32 0x360894A13BA1A3210667C828492DB98DCA3E2076CC3735A920A3CA505D382BBC PUSH0 SHL SWAP1 POP SWAP1 JUMP JUMPDEST PUSH32 0x589D473BA17C0F47D494622893831497BAD25919B9AFB8E33E9521B8963FCCDE PUSH2 0x19E3 DUP2 PUSH2 0x3134 JUMP JUMPDEST PUSH1 0x3 PUSH0 SWAP1 SLOAD SWAP1 PUSH2 0x100 EXP SWAP1 DIV PUSH1 0xFF AND PUSH2 0x1A31 JUMPI PUSH1 0x40 MLOAD PUSH32 0x8C379A000000000000000000000000000000000000000000000000000000000 DUP2 MSTORE PUSH1 0x4 ADD PUSH2 0x1A28 SWAP1 PUSH2 0x520D JUMP JUMPDEST PUSH1 0x40 MLOAD DUP1 SWAP2 SUB SWAP1 REVERT JUMPDEST PUSH0 PUSH1 0x3 PUSH0 PUSH2 0x100 EXP DUP2 SLOAD DUP2 PUSH1 0xFF MUL NOT AND SWAP1 DUP4 ISZERO ISZERO MUL OR SWAP1 SSTORE POP PUSH32 0x1C84BCAEAD48B692CC46B9B12E9A068951A59C99A2E2BF10B00B60B403CF12E2 PUSH1 0x40 MLOAD PUSH1 0x40 MLOAD DUP1 SWAP2 SUB SWAP1 LOG1 POP JUMP JUMPDEST PUSH0 DUP1 PUSH2 0x1A83 PUSH2 0x38CC JUMP JUMPDEST SWAP1 POP DUP1 PUSH0 ADD PUSH0 SWAP1 SLOAD SWAP1 PUSH2 0x100 EXP SWAP1 DIV PUSH1 0xFF AND SWAP2 POP POP SWAP1 JUMP JUMPDEST PUSH32 0x589D473BA17C0F47D494622893831497BAD25919B9AFB8E33E9521B8963FCCDE PUSH2 0x1AC5 DUP2 PUSH2 0x3134 JUMP JUMPDEST PUSH1 0x3 PUSH0 SWAP1 SLOAD SWAP1 PUSH2 0x100 EXP SWAP1 DIV PUSH1 0xFF AND ISZERO PUSH2 0x1B14 JUMPI PUSH1 0x40 MLOAD PUSH32 0x8C379A000000000000000000000000000000000000000000000000000000000 DUP2 MSTORE PUSH1 0x4 ADD PUSH2 0x1B0B SWAP1 PUSH2 0x5275 JUMP JUMPDEST PUSH1 0x40 MLOAD DUP1 SWAP2 SUB SWAP1 REVERT JUMPDEST PUSH1 0x1 PUSH1 0x3 PUSH0 PUSH2 0x100 EXP DUP2 SLOAD DUP2 PUSH1 0xFF MUL NOT AND SWAP1 DUP4 ISZERO ISZERO MUL OR SWAP1 SSTORE POP PUSH32 0x8099F593A6AAECD68B6494933CD71F703376AC3975BE83692E1B7D800ABF6837 PUSH1 0x40 MLOAD PUSH1 0x40 MLOAD DUP1 SWAP2 SUB SWAP1 LOG1 POP JUMP JUMPDEST PUSH0 PUSH1 0x5 DUP1 SLOAD SWAP1 POP SWAP1 POP PUSH0 JUMPDEST DUP2 DUP2 LT ISZERO PUSH2 0x1B86 JUMPI PUSH2 0x1B79 DUP2 PUSH2 0x16BF JUMP JUMPDEST DUP1 DUP1 PUSH1 0x1 ADD SWAP2 POP POP PUSH2 0x1B68 JUMP JUMPDEST POP POP JUMP JUMPDEST PUSH32 0x589D473BA17C0F47D494622893831497BAD25919B9AFB8E33E9521B8963FCCDE DUP2 JUMP JUMPDEST PUSH0 DUP2 DUP4 GT ISZERO PUSH2 0x1BF2 JUMPI PUSH1 0x40 MLOAD PUSH32 0x8C379A000000000000000000000000000000000000000000000000000000000 DUP2 MSTORE PUSH1 0x4 ADD PUSH2 0x1BE9 SWAP1 PUSH2 0x52DD JUMP JUMPDEST PUSH1 0x40 MLOAD DUP1 SWAP2 SUB SWAP1 REVERT JUMPDEST PUSH0 SLOAD DUP4 LT ISZERO PUSH2 0x1C00 JUMPI PUSH0 SLOAD SWAP3 POP JUMPDEST PUSH1 0x1 SLOAD DUP3 GT ISZERO PUSH2 0x1C10 JUMPI PUSH1 0x1 SLOAD SWAP2 POP JUMPDEST DUP2 DUP4 GT ISZERO PUSH2 0x1C53 JUMPI PUSH1 0x40 MLOAD PUSH32 0x8C379A000000000000000000000000000000000000000000000000000000000 DUP2 MSTORE PUSH1 0x4 ADD PUSH2 0x1C4A SWAP1 PUSH2 0x536B JUMP JUMPDEST PUSH1 0x40 MLOAD DUP1 SWAP2 SUB SWAP1 REVERT JUMPDEST PUSH0 PUSH2 0x1C74 PUSH1 0x2 SLOAD DUP6 DUP6 PUSH2 0x1C66 SWAP2 SWAP1 PUSH2 0x4D3C JUMP JUMPDEST PUSH2 0x3798 SWAP1 SWAP2 SWAP1 PUSH4 0xFFFFFFFF AND JUMP JUMPDEST DUP1 SWAP4 POP DUP2 SWAP3 POP POP POP DUP1 PUSH2 0x1CBC JUMPI PUSH1 0x40 MLOAD PUSH32 0x8C379A000000000000000000000000000000000000000000000000000000000 DUP2 MSTORE PUSH1 0x4 ADD PUSH2 0x1CB3 SWAP1 PUSH2 0x53D3 JUMP JUMPDEST PUSH1 0x40 MLOAD DUP1 SWAP2 SUB SWAP1 REVERT JUMPDEST POP SWAP3 SWAP2 POP POP JUMP JUMPDEST PUSH32 0x589D473BA17C0F47D494622893831497BAD25919B9AFB8E33E9521B8963FCCDE PUSH2 0x1CED DUP2 PUSH2 0x3134 JUMP JUMPDEST PUSH1 0x3 PUSH1 0x1 SWAP1 SLOAD SWAP1 PUSH2 0x100 EXP SWAP1 DIV PUSH1 0xFF AND ISZERO PUSH2 0x1D3D JUMPI PUSH1 0x40 MLOAD PUSH32 0x8C379A000000000000000000000000000000000000000000000000000000000 DUP2 MSTORE PUSH1 0x4 ADD PUSH2 0x1D34 SWAP1 PUSH2 0x543B JUMP JUMPDEST PUSH1 0x40 MLOAD DUP1 SWAP2 SUB SWAP1 REVERT JUMPDEST PUSH1 0x1 PUSH1 0x3 PUSH1 0x1 PUSH2 0x100 EXP DUP2 SLOAD DUP2 PUSH1 0xFF MUL NOT AND SWAP1 DUP4 ISZERO ISZERO MUL OR SWAP1 SSTORE POP PUSH32 0x6D73D6B34C378AB3BF6630206D60B7882801B91D03EE20D016FF0D5054DB81E1 PUSH1 0x40 MLOAD PUSH1 0x40 MLOAD DUP1 SWAP2 SUB SWAP1 LOG1 POP JUMP JUMPDEST PUSH0 DUP1 PUSH2 0x1D91 PUSH2 0x2F40 JUMP JUMPDEST SWAP1 POP DUP1 PUSH0 ADD PUSH0 DUP6 DUP2 MSTORE PUSH1 0x20 ADD SWAP1 DUP2 MSTORE PUSH1 0x20 ADD PUSH0 KECCAK256 PUSH0 ADD PUSH0 DUP5 PUSH20 0xFFFFFFFFFFFFFFFFFFFFFFFFFFFFFFFFFFFFFFFF AND PUSH20 0xFFFFFFFFFFFFFFFFFFFFFFFFFFFFFFFFFFFFFFFF AND DUP2 MSTORE PUSH1 0x20 ADD SWAP1 DUP2 MSTORE PUSH1 0x20 ADD PUSH0 KECCAK256 PUSH0 SWAP1 SLOAD SWAP1 PUSH2 0x100 EXP SWAP1 DIV PUSH1 0xFF AND SWAP2 POP POP SWAP3 SWAP2 POP POP JUMP JUMPDEST PUSH2 0x1E00 PUSH2 0x2F67 JUMP JUMPDEST DUP2 PUSH1 0x5 DUP1 SLOAD SWAP1 POP DUP2 LT PUSH2 0x1E48 JUMPI PUSH1 0x40 MLOAD PUSH32 0x8C379A000000000000000000000000000000000000000000000000000000000 DUP2 MSTORE PUSH1 0x4 ADD PUSH2 0x1E3F SWAP1 PUSH2 0x4BE2 JUMP JUMPDEST PUSH1 0x40 MLOAD DUP1 SWAP2 SUB SWAP1 REVERT JUMPDEST PUSH1 0x3 PUSH0 SWAP1 SLOAD SWAP1 PUSH2 0x100 EXP SWAP1 DIV PUSH1 0xFF AND ISZERO PUSH2 0x1E97 JUMPI PUSH1 0x40 MLOAD PUSH32 0x8C379A000000000000000000000000000000000000000000000000000000000 DUP2 MSTORE PUSH1 0x4 ADD PUSH2 0x1E8E SWAP1 PUSH2 0x4C4A JUMP JUMPDEST PUSH1 0x40 MLOAD DUP1 SWAP2 SUB SWAP1 REVERT JUMPDEST PUSH0 PUSH1 0x5 DUP5 DUP2 SLOAD DUP2 LT PUSH2 0x1EAC JUMPI PUSH2 0x1EAB PUSH2 0x4C68 JUMP JUMPDEST JUMPDEST SWAP1 PUSH0 MSTORE PUSH1 0x20 PUSH0 KECCAK256 SWAP1 PUSH1 0x7 MUL ADD SWAP1 POP PUSH0 PUSH1 0x6 PUSH0 DUP7 DUP2 MSTORE PUSH1 0x20 ADD SWAP1 DUP2 MSTORE PUSH1 0x20 ADD PUSH0 KECCAK256 PUSH0 CALLER PUSH20 0xFFFFFFFFFFFFFFFFFFFFFFFFFFFFFFFFFFFFFFFF AND PUSH20 0xFFFFFFFFFFFFFFFFFFFFFFFFFFFFFFFFFFFFFFFF AND DUP2 MSTORE PUSH1 0x20 ADD SWAP1 DUP2 MSTORE PUSH1 0x20 ADD PUSH0 KECCAK256 SWAP1 POP DUP4 DUP2 PUSH0 ADD SLOAD LT ISZERO PUSH2 0x1F4F JUMPI PUSH1 0x40 MLOAD PUSH32 0x8C379A000000000000000000000000000000000000000000000000000000000 DUP2 MSTORE PUSH1 0x4 ADD PUSH2 0x1F46 SWAP1 PUSH2 0x54A3 JUMP JUMPDEST PUSH1 0x40 MLOAD DUP1 SWAP2 SUB SWAP1 REVERT JUMPDEST PUSH2 0x1F58 DUP6 PUSH2 0x16BF JUMP JUMPDEST PUSH0 DUP2 PUSH1 0x1 ADD SLOAD PUSH8 0xDE0B6B3A7640000 DUP5 PUSH1 0x3 ADD SLOAD DUP5 PUSH0 ADD SLOAD PUSH2 0x1F7A SWAP2 SWAP1 PUSH2 0x4E04 JUMP JUMPDEST PUSH2 0x1F84 SWAP2 SWAP1 PUSH2 0x4E72 JUMP JUMPDEST PUSH2 0x1F8E SWAP2 SWAP1 PUSH2 0x4D3C JUMP JUMPDEST SWAP1 POP PUSH0 DUP2 GT ISZERO PUSH2 0x1FB1 JUMPI DUP1 DUP3 PUSH1 0x2 ADD SLOAD PUSH2 0x1FA8 SWAP2 SWAP1 PUSH2 0x4CC2 JUMP JUMPDEST DUP3 PUSH1 0x2 ADD DUP2 SWAP1 SSTORE POP JUMPDEST PUSH0 DUP6 GT ISZERO PUSH2 0x2032 JUMPI DUP5 DUP3 PUSH0 ADD SLOAD PUSH2 0x1FC8 SWAP2 SWAP1 PUSH2 0x4D3C JUMP JUMPDEST DUP3 PUSH0 ADD DUP2 SWAP1 SSTORE POP DUP2 PUSH1 0x3 ADD PUSH1 0x40 MLOAD DUP1 PUSH1 0x40 ADD PUSH1 0x40 MSTORE DUP1 DUP8 DUP2 MSTORE PUSH1 0x20 ADD DUP6 PUSH1 0x6 ADD SLOAD NUMBER PUSH2 0x1FF4 SWAP2 SWAP1 PUSH2 0x4CC2 JUMP JUMPDEST DUP2 MSTORE POP SWAP1 DUP1 PUSH1 0x1 DUP2 SLOAD ADD DUP1 DUP3 SSTORE DUP1 SWAP2 POP POP PUSH1 0x1 SWAP1 SUB SWAP1 PUSH0 MSTORE PUSH1 0x20 PUSH0 KECCAK256 SWAP1 PUSH1 0x2 MUL ADD PUSH0 SWAP1 SWAP2 SWAP1 SWAP2 SWAP1 SWAP2 POP PUSH0 DUP3 ADD MLOAD DUP2 PUSH0 ADD SSTORE PUSH1 0x20 DUP3 ADD MLOAD DUP2 PUSH1 0x1 ADD SSTORE POP POP JUMPDEST DUP5 DUP4 PUSH1 0x4 ADD SLOAD PUSH2 0x2042 SWAP2 SWAP1 PUSH2 0x4D3C JUMP JUMPDEST DUP4 PUSH1 0x4 ADD DUP2 SWAP1 SSTORE POP PUSH8 0xDE0B6B3A7640000 DUP4 PUSH1 0x3 ADD SLOAD DUP4 PUSH0 ADD SLOAD PUSH2 0x2066 SWAP2 SWAP1 PUSH2 0x4E04 JUMP JUMPDEST PUSH2 0x2070 SWAP2 SWAP1 PUSH2 0x4E72 JUMP JUMPDEST DUP3 PUSH1 0x1 ADD DUP2 SWAP1 SSTORE POP DUP6 CALLER PUSH20 0xFFFFFFFFFFFFFFFFFFFFFFFFFFFFFFFFFFFFFFFF AND PUSH32 0xC80277265097707F6F12A4AC4C09D46C9926E2EEA2536F63616CB04D9FCAD7D6 DUP8 PUSH1 0x40 MLOAD PUSH2 0x20BF SWAP2 SWAP1 PUSH2 0x43D3 JUMP JUMPDEST PUSH1 0x40 MLOAD DUP1 SWAP2 SUB SWAP1 LOG3 POP POP POP POP POP POP JUMP JUMPDEST PUSH0 DUP1 SHL DUP2 JUMP JUMPDEST PUSH2 0x20DD PUSH2 0x2F67 JUMP JUMPDEST PUSH0 PUSH1 0x5 PUSH0 DUP2 SLOAD DUP2 LT PUSH2 0x20F2 JUMPI PUSH2 0x20F1 PUSH2 0x4C68 JUMP JUMPDEST JUMPDEST SWAP1 PUSH0 MSTORE PUSH1 0x20 PUSH0 KECCAK256 SWAP1 PUSH1 0x7 MUL ADD SWAP1 POP PUSH0 PUSH20 0xFFFFFFFFFFFFFFFFFFFFFFFFFFFFFFFFFFFFFFFF AND DUP2 PUSH0 ADD PUSH0 SWAP1 SLOAD SWAP1 PUSH2 0x100 EXP SWAP1 DIV PUSH20 0xFFFFFFFFFFFFFFFFFFFFFFFFFFFFFFFFFFFFFFFF AND PUSH20 0xFFFFFFFFFFFFFFFFFFFFFFFFFFFFFFFFFFFFFFFF AND EQ PUSH2 0x2190 JUMPI PUSH1 0x40 MLOAD PUSH32 0x8C379A000000000000000000000000000000000000000000000000000000000 DUP2 MSTORE PUSH1 0x4 ADD PUSH2 0x2187 SWAP1 PUSH2 0x550B JUMP JUMPDEST PUSH1 0x40 MLOAD DUP1 SWAP2 SUB SWAP1 REVERT JUMPDEST PUSH0 CALLVALUE SWAP1 POP DUP2 PUSH1 0x5 ADD SLOAD DUP2 LT ISZERO PUSH2 0x21DB JUMPI PUSH1 0x40 MLOAD PUSH32 0x8C379A000000000000000000000000000000000000000000000000000000000 DUP2 MSTORE PUSH1 0x4 ADD PUSH2 0x21D2 SWAP1 PUSH2 0x5573 JUMP JUMPDEST PUSH1 0x40 MLOAD DUP1 SWAP2 SUB SWAP1 REVERT JUMPDEST PUSH2 0x21E5 PUSH0 DUP3 PUSH2 0x38F3 JUMP JUMPDEST POP POP JUMP JUMPDEST PUSH1 0x3 PUSH1 0x2 SWAP1 SLOAD SWAP1 PUSH2 0x100 EXP SWAP1 DIV PUSH20 0xFFFFFFFFFFFFFFFFFFFFFFFFFFFFFFFFFFFFFFFF AND DUP2 JUMP JUMPDEST PUSH1 0x3 PUSH1 0x1 SWAP1 SLOAD SWAP1 PUSH2 0x100 EXP SWAP1 DIV PUSH1 0xFF AND DUP2 JUMP JUMPDEST PUSH1 0x40 MLOAD DUP1 PUSH1 0x40 ADD PUSH1 0x40 MSTORE DUP1 PUSH1 0x5 DUP2 MSTORE PUSH1 0x20 ADD PUSH32 0x352E302E30000000000000000000000000000000000000000000000000000000 DUP2 MSTORE POP DUP2 JUMP JUMPDEST PUSH32 0x589D473BA17C0F47D494622893831497BAD25919B9AFB8E33E9521B8963FCCDE PUSH2 0x2285 DUP2 PUSH2 0x3134 JUMP JUMPDEST PUSH0 PUSH1 0x5 DUP1 SLOAD SWAP1 POP GT ISZERO PUSH2 0x2305 JUMPI PUSH0 PUSH20 0xFFFFFFFFFFFFFFFFFFFFFFFFFFFFFFFFFFFFFFFF AND DUP7 PUSH20 0xFFFFFFFFFFFFFFFFFFFFFFFFFFFFFFFFFFFFFFFF AND SUB PUSH2 0x2300 JUMPI PUSH1 0x40 MLOAD PUSH32 0x8C379A000000000000000000000000000000000000000000000000000000000 DUP2 MSTORE PUSH1 0x4 ADD PUSH2 0x22F7 SWAP1 PUSH2 0x550B JUMP JUMPDEST PUSH1 0x40 MLOAD DUP1 SWAP2 SUB SWAP1 REVERT JUMPDEST PUSH2 0x2374 JUMP JUMPDEST PUSH0 PUSH20 0xFFFFFFFFFFFFFFFFFFFFFFFFFFFFFFFFFFFFFFFF AND DUP7 PUSH20 0xFFFFFFFFFFFFFFFFFFFFFFFFFFFFFFFFFFFFFFFF AND EQ PUSH2 0x2373 JUMPI PUSH1 0x40 MLOAD PUSH32 0x8C379A000000000000000000000000000000000000000000000000000000000 DUP2 MSTORE PUSH1 0x4 ADD PUSH2 0x236A SWAP1 PUSH2 0x550B JUMP JUMPDEST PUSH1 0x40 MLOAD DUP1 SWAP2 SUB SWAP1 REVERT JUMPDEST JUMPDEST PUSH0 DUP4 GT PUSH2 0x23B6 JUMPI PUSH1 0x40 MLOAD PUSH32 0x8C379A000000000000000000000000000000000000000000000000000000000 DUP2 MSTORE PUSH1 0x4 ADD PUSH2 0x23AD SWAP1 PUSH2 0x55DB JUMP JUMPDEST PUSH1 0x40 MLOAD DUP1 SWAP2 SUB SWAP1 REVERT JUMPDEST PUSH1 0x1 SLOAD NUMBER LT PUSH2 0x23FA JUMPI PUSH1 0x40 MLOAD PUSH32 0x8C379A000000000000000000000000000000000000000000000000000000000 DUP2 MSTORE PUSH1 0x4 ADD PUSH2 0x23F1 SWAP1 PUSH2 0x5643 JUMP JUMPDEST PUSH1 0x40 MLOAD DUP1 SWAP2 SUB SWAP1 REVERT JUMPDEST DUP2 ISZERO PUSH2 0x2409 JUMPI PUSH2 0x2408 PUSH2 0x1B5D JUMP JUMPDEST JUMPDEST PUSH0 DUP1 SLOAD NUMBER GT PUSH2 0x2419 JUMPI PUSH0 SLOAD PUSH2 0x241B JUMP JUMPDEST NUMBER JUMPDEST SWAP1 POP DUP6 PUSH1 0x4 SLOAD PUSH2 0x242B SWAP2 SWAP1 PUSH2 0x4CC2 JUMP JUMPDEST PUSH1 0x4 DUP2 SWAP1 SSTORE POP PUSH1 0x5 PUSH1 0x40 MLOAD DUP1 PUSH1 0xE0 ADD PUSH1 0x40 MSTORE DUP1 DUP10 PUSH20 0xFFFFFFFFFFFFFFFFFFFFFFFFFFFFFFFFFFFFFFFF AND DUP2 MSTORE PUSH1 0x20 ADD DUP9 DUP2 MSTORE PUSH1 0x20 ADD DUP4 DUP2 MSTORE PUSH1 0x20 ADD PUSH0 DUP2 MSTORE PUSH1 0x20 ADD PUSH0 DUP2 MSTORE PUSH1 0x20 ADD DUP8 DUP2 MSTORE PUSH1 0x20 ADD DUP7 DUP2 MSTORE POP SWAP1 DUP1 PUSH1 0x1 DUP2 SLOAD ADD DUP1 DUP3 SSTORE DUP1 SWAP2 POP POP PUSH1 0x1 SWAP1 SUB SWAP1 PUSH0 MSTORE PUSH1 0x20 PUSH0 KECCAK256 SWAP1 PUSH1 0x7 MUL ADD PUSH0 SWAP1 SWAP2 SWAP1 SWAP2 SWAP1 SWAP2 POP PUSH0 DUP3 ADD MLOAD DUP2 PUSH0 ADD PUSH0 PUSH2 0x100 EXP DUP2 SLOAD DUP2 PUSH20 0xFFFFFFFFFFFFFFFFFFFFFFFFFFFFFFFFFFFFFFFF MUL NOT AND SWAP1 DUP4 PUSH20 0xFFFFFFFFFFFFFFFFFFFFFFFFFFFFFFFFFFFFFFFF AND MUL OR SWAP1 SSTORE POP PUSH1 0x20 DUP3 ADD MLOAD DUP2 PUSH1 0x1 ADD SSTORE PUSH1 0x40 DUP3 ADD MLOAD DUP2 PUSH1 0x2 ADD SSTORE PUSH1 0x60 DUP3 ADD MLOAD DUP2 PUSH1 0x3 ADD SSTORE PUSH1 0x80 DUP3 ADD MLOAD DUP2 PUSH1 0x4 ADD SSTORE PUSH1 0xA0 DUP3 ADD MLOAD DUP2 PUSH1 0x5 ADD SSTORE PUSH1 0xC0 DUP3 ADD MLOAD DUP2 PUSH1 0x6 ADD SSTORE POP POP DUP1 DUP7 DUP9 PUSH20 0xFFFFFFFFFFFFFFFFFFFFFFFFFFFFFFFFFFFFFFFF AND PUSH32 0xFA296FCE13E7A0E622B3A892E66220C248337289483A3CFA4130CDE0CAA1346 DUP9 DUP9 PUSH1 0x40 MLOAD PUSH2 0x256E SWAP3 SWAP2 SWAP1 PUSH2 0x4B71 JUMP JUMPDEST PUSH1 0x40 MLOAD DUP1 SWAP2 SUB SWAP1 LOG4 POP POP POP POP POP POP POP JUMP JUMPDEST PUSH32 0xCAB03BC4DBCC648CD59D6BBE9F848D1E9092F914016AA290EE92E18700D1E6F9 DUP2 JUMP JUMPDEST PUSH0 DUP2 JUMP JUMPDEST PUSH32 0x589D473BA17C0F47D494622893831497BAD25919B9AFB8E33E9521B8963FCCDE PUSH2 0x25D1 DUP2 PUSH2 0x3134 JUMP JUMPDEST PUSH0 DUP3 GT PUSH2 0x2613 JUMPI PUSH1 0x40 MLOAD PUSH32 0x8C379A000000000000000000000000000000000000000000000000000000000 DUP2 MSTORE PUSH1 0x4 ADD PUSH2 0x260A SWAP1 PUSH2 0x56AB JUMP JUMPDEST PUSH1 0x40 MLOAD DUP1 SWAP2 SUB SWAP1 REVERT JUMPDEST DUP2 PUSH1 0x2 DUP2 SWAP1 SSTORE POP DUP2 PUSH32 0x4C70925B625536DD633F6BD2D615C67FDDC2E7C63C31164047A981A0DF3FEE54 PUSH1 0x40 MLOAD PUSH1 0x40 MLOAD DUP1 SWAP2 SUB SWAP1 LOG2 POP POP JUMP JUMPDEST PUSH32 0x589D473BA17C0F47D494622893831497BAD25919B9AFB8E33E9521B8963FCCDE PUSH2 0x2675 DUP2 PUSH2 0x3134 JUMP JUMPDEST DUP2 PUSH0 SLOAD GT ISZERO PUSH2 0x26B9 JUMPI PUSH1 0x40 MLOAD PUSH32 0x8C379A000000000000000000000000000000000000000000000000000000000 DUP2 MSTORE PUSH1 0x4 ADD PUSH2 0x26B0 SWAP1 PUSH2 0x5739 JUMP JUMPDEST PUSH1 0x40 MLOAD DUP1 SWAP2 SUB SWAP1 REVERT JUMPDEST DUP2 PUSH1 0x1 DUP2 SWAP1 SSTORE POP DUP2 PUSH32 0x1132C5BACCB51DA3D049FABC819697DC845FA224AD59D9B555507D6446B40850 PUSH1 0x40 MLOAD PUSH1 0x40 MLOAD DUP1 SWAP2 SUB SWAP1 LOG2 POP POP JUMP JUMPDEST PUSH2 0x26FA DUP3 PUSH2 0xBB3 JUMP JUMPDEST PUSH2 0x2703 DUP2 PUSH2 0x3134 JUMP JUMPDEST PUSH2 0x270D DUP4 DUP4 PUSH2 0x3247 JUMP JUMPDEST POP POP POP POP JUMP JUMPDEST PUSH32 0x589D473BA17C0F47D494622893831497BAD25919B9AFB8E33E9521B8963FCCDE PUSH2 0x273D DUP2 PUSH2 0x3134 JUMP JUMPDEST DUP4 PUSH1 0x5 DUP1 SLOAD SWAP1 POP DUP2 LT PUSH2 0x2785 JUMPI PUSH1 0x40 MLOAD PUSH32 0x8C379A000000000000000000000000000000000000000000000000000000000 DUP2 MSTORE PUSH1 0x4 ADD PUSH2 0x277C SWAP1 PUSH2 0x4BE2 JUMP JUMPDEST PUSH1 0x40 MLOAD DUP1 SWAP2 SUB SWAP1 REVERT JUMPDEST DUP4 PUSH1 0x5 DUP7 DUP2 SLOAD DUP2 LT PUSH2 0x279A JUMPI PUSH2 0x2799 PUSH2 0x4C68 JUMP JUMPDEST JUMPDEST SWAP1 PUSH0 MSTORE PUSH1 0x20 PUSH0 KECCAK256 SWAP1 PUSH1 0x7 MUL ADD PUSH1 0x5 ADD DUP2 SWAP1 SSTORE POP DUP3 PUSH1 0x5 DUP7 DUP2 SLOAD DUP2 LT PUSH2 0x27C2 JUMPI PUSH2 0x27C1 PUSH2 0x4C68 JUMP JUMPDEST JUMPDEST SWAP1 PUSH0 MSTORE PUSH1 0x20 PUSH0 KECCAK256 SWAP1 PUSH1 0x7 MUL ADD PUSH1 0x6 ADD DUP2 SWAP1 SSTORE POP DUP3 DUP5 DUP7 PUSH32 0x30DFFDEDAA3E3B4849298233F7CD71D229956E875AB09270498C96B7CF9181FD PUSH1 0x40 MLOAD PUSH1 0x40 MLOAD DUP1 SWAP2 SUB SWAP1 LOG4 POP POP POP POP POP JUMP JUMPDEST PUSH32 0x589D473BA17C0F47D494622893831497BAD25919B9AFB8E33E9521B8963FCCDE PUSH2 0x2835 DUP2 PUSH2 0x3134 JUMP JUMPDEST PUSH1 0x3 PUSH1 0x1 SWAP1 SLOAD SWAP1 PUSH2 0x100 EXP SWAP1 DIV PUSH1 0xFF AND PUSH2 0x2884 JUMPI PUSH1 0x40 MLOAD PUSH32 0x8C379A000000000000000000000000000000000000000000000000000000000 DUP2 MSTORE PUSH1 0x4 ADD PUSH2 0x287B SWAP1 PUSH2 0x57A1 JUMP JUMPDEST PUSH1 0x40 MLOAD DUP1 SWAP2 SUB SWAP1 REVERT JUMPDEST PUSH0 PUSH1 0x3 PUSH1 0x1 PUSH2 0x100 EXP DUP2 SLOAD DUP2 PUSH1 0xFF MUL NOT AND SWAP1 DUP4 ISZERO ISZERO MUL OR SWAP1 SSTORE POP PUSH32 0xE72CB12952F056E3E7496019725F20A13108CA420F67F1EE9C9CDAB73FB8CE85 PUSH1 0x40 MLOAD PUSH1 0x40 MLOAD DUP1 SWAP2 SUB SWAP1 LOG1 POP JUMP JUMPDEST PUSH2 0x28D5 PUSH2 0x2F67 JUMP JUMPDEST DUP2 PUSH1 0x5 DUP1 SLOAD SWAP1 POP DUP2 LT PUSH2 0x291D JUMPI PUSH1 0x40 MLOAD PUSH32 0x8C379A000000000000000000000000000000000000000000000000000000000 DUP2 MSTORE PUSH1 0x4 ADD PUSH2 0x2914 SWAP1 PUSH2 0x4BE2 JUMP JUMPDEST PUSH1 0x40 MLOAD DUP1 SWAP2 SUB SWAP1 REVERT JUMPDEST PUSH0 DUP4 SUB PUSH2 0x295F JUMPI PUSH1 0x40 MLOAD PUSH32 0x8C379A000000000000000000000000000000000000000000000000000000000 DUP2 MSTORE PUSH1 0x4 ADD PUSH2 0x2956 SWAP1 PUSH2 0x582F JUMP JUMPDEST PUSH1 0x40 MLOAD DUP1 SWAP2 SUB SWAP1 REVERT JUMPDEST PUSH0 PUSH1 0x5 DUP5 DUP2 SLOAD DUP2 LT PUSH2 0x2974 JUMPI PUSH2 0x2973 PUSH2 0x4C68 JUMP JUMPDEST JUMPDEST SWAP1 PUSH0 MSTORE PUSH1 0x20 PUSH0 KECCAK256 SWAP1 PUSH1 0x7 MUL ADD SWAP1 POP DUP1 PUSH1 0x5 ADD SLOAD DUP4 GT PUSH2 0x29C8 JUMPI PUSH1 0x40 MLOAD PUSH32 0x8C379A000000000000000000000000000000000000000000000000000000000 DUP2 MSTORE PUSH1 0x4 ADD PUSH2 0x29BF SWAP1 PUSH2 0x5573 JUMP JUMPDEST PUSH1 0x40 MLOAD DUP1 SWAP2 SUB SWAP1 REVERT JUMPDEST PUSH0 DUP4 GT ISZERO PUSH2 0x2A20 JUMPI PUSH2 0x2A1F CALLER ADDRESS DUP6 DUP5 PUSH0 ADD PUSH0 SWAP1 SLOAD SWAP1 PUSH2 0x100 EXP SWAP1 DIV PUSH20 0xFFFFFFFFFFFFFFFFFFFFFFFFFFFFFFFFFFFFFFFF AND PUSH20 0xFFFFFFFFFFFFFFFFFFFFFFFFFFFFFFFFFFFFFFFF AND PUSH2 0x3D09 SWAP1 SWAP4 SWAP3 SWAP2 SWAP1 PUSH4 0xFFFFFFFF AND JUMP JUMPDEST JUMPDEST PUSH2 0x2A2A DUP5 DUP5 PUSH2 0x38F3 JUMP JUMPDEST POP POP POP POP JUMP JUMPDEST PUSH32 0x589D473BA17C0F47D494622893831497BAD25919B9AFB8E33E9521B8963FCCDE PUSH2 0x2A5A DUP2 PUSH2 0x3134 JUMP JUMPDEST PUSH1 0x1 SLOAD DUP3 GT ISZERO PUSH2 0x2A9F JUMPI PUSH1 0x40 MLOAD PUSH32 0x8C379A000000000000000000000000000000000000000000000000000000000 DUP2 MSTORE PUSH1 0x4 ADD PUSH2 0x2A96 SWAP1 PUSH2 0x5739 JUMP JUMPDEST PUSH1 0x40 MLOAD DUP1 SWAP2 SUB SWAP1 REVERT JUMPDEST DUP2 PUSH0 DUP2 SWAP1 SSTORE POP DUP2 PUSH32 0x63B90B79F11A0F132BCB2C4A4DDD44ABDA45C1308A83B2919318DF7F5F8B7BE4 PUSH1 0x40 MLOAD PUSH1 0x40 MLOAD DUP1 SWAP2 SUB SWAP1 LOG2 POP POP JUMP JUMPDEST PUSH32 0x589D473BA17C0F47D494622893831497BAD25919B9AFB8E33E9521B8963FCCDE PUSH2 0x2B00 DUP2 PUSH2 0x3134 JUMP JUMPDEST DUP2 PUSH1 0x3 PUSH1 0x2 PUSH2 0x100 EXP DUP2 SLOAD DUP2 PUSH20 0xFFFFFFFFFFFFFFFFFFFFFFFFFFFFFFFFFFFFFFFF MUL NOT AND SWAP1 DUP4 PUSH20 0xFFFFFFFFFFFFFFFFFFFFFFFFFFFFFFFFFFFFFFFF AND MUL OR SWAP1 SSTORE POP PUSH1 0x3 PUSH1 0x2 SWAP1 SLOAD SWAP1 PUSH2 0x100 EXP SWAP1 DIV PUSH20 0xFFFFFFFFFFFFFFFFFFFFFFFFFFFFFFFFFFFFFFFF AND PUSH20 0xFFFFFFFFFFFFFFFFFFFFFFFFFFFFFFFFFFFFFFFF AND PUSH32 0x153AAE53B92218044BD5F43922617C6B253E50AC98A41B44C3ACB5625DED3488 PUSH1 0x40 MLOAD PUSH1 0x40 MLOAD DUP1 SWAP2 SUB SWAP1 LOG2 POP POP JUMP JUMPDEST PUSH32 0x589D473BA17C0F47D494622893831497BAD25919B9AFB8E33E9521B8963FCCDE PUSH2 0x2BD4 DUP2 PUSH2 0x3134 JUMP JUMPDEST DUP4 PUSH1 0x5 DUP1 SLOAD SWAP1 POP DUP2 LT PUSH2 0x2C1C JUMPI PUSH1 0x40 MLOAD PUSH32 0x8C379A000000000000000000000000000000000000000000000000000000000 DUP2 MSTORE PUSH1 0x4 ADD PUSH2 0x2C13 SWAP1 PUSH2 0x4BE2 JUMP JUMPDEST PUSH1 0x40 MLOAD DUP1 SWAP2 SUB SWAP1 REVERT JUMPDEST PUSH0 DUP5 GT PUSH2 0x2C5E JUMPI PUSH1 0x40 MLOAD PUSH32 0x8C379A000000000000000000000000000000000000000000000000000000000 DUP2 MSTORE PUSH1 0x4 ADD PUSH2 0x2C55 SWAP1 PUSH2 0x5897 JUMP JUMPDEST PUSH1 0x40 MLOAD DUP1 SWAP2 SUB SWAP1 REVERT JUMPDEST DUP3 ISZERO PUSH2 0x2C6D JUMPI PUSH2 0x2C6C PUSH2 0x1B5D JUMP JUMPDEST JUMPDEST DUP4 PUSH1 0x5 DUP7 DUP2 SLOAD DUP2 LT PUSH2 0x2C82 JUMPI PUSH2 0x2C81 PUSH2 0x4C68 JUMP JUMPDEST JUMPDEST SWAP1 PUSH0 MSTORE PUSH1 0x20 PUSH0 KECCAK256 SWAP1 PUSH1 0x7 MUL ADD PUSH1 0x1 ADD SLOAD PUSH1 0x4 SLOAD PUSH2 0x2C9F SWAP2 SWAP1 PUSH2 0x4D3C JUMP JUMPDEST PUSH2 0x2CA9 SWAP2 SWAP1 PUSH2 0x4CC2 JUMP JUMPDEST PUSH1 0x4 DUP2 SWAP1 SSTORE POP DUP4 PUSH1 0x5 DUP7 DUP2 SLOAD DUP2 LT PUSH2 0x2CC4 JUMPI PUSH2 0x2CC3 PUSH2 0x4C68 JUMP JUMPDEST JUMPDEST SWAP1 PUSH0 MSTORE PUSH1 0x20 PUSH0 KECCAK256 SWAP1 PUSH1 0x7 MUL ADD PUSH1 0x1 ADD DUP2 SWAP1 SSTORE POP DUP4 DUP6 PUSH32 0x4B8FA3D6A87CB21D1BF4978BF60628AE358A28AC7F39DE1751A481C6DD957617 PUSH1 0x4 SLOAD PUSH1 0x40 MLOAD PUSH2 0x2D0A SWAP2 SWAP1 PUSH2 0x43D3 JUMP JUMPDEST PUSH1 0x40 MLOAD DUP1 SWAP2 SUB SWAP1 LOG3 POP POP POP POP POP JUMP JUMPDEST PUSH1 0x5 DUP2 DUP2 SLOAD DUP2 LT PUSH2 0x2D28 JUMPI PUSH0 DUP1 REVERT JUMPDEST SWAP1 PUSH0 MSTORE PUSH1 0x20 PUSH0 KECCAK256 SWAP1 PUSH1 0x7 MUL ADD PUSH0 SWAP2 POP SWAP1 POP DUP1 PUSH0 ADD PUSH0 SWAP1 SLOAD SWAP1 PUSH2 0x100 EXP SWAP1 DIV PUSH20 0xFFFFFFFFFFFFFFFFFFFFFFFFFFFFFFFFFFFFFFFF AND SWAP1 DUP1 PUSH1 0x1 ADD SLOAD SWAP1 DUP1 PUSH1 0x2 ADD SLOAD SWAP1 DUP1 PUSH1 0x3 ADD SLOAD SWAP1 DUP1 PUSH1 0x4 ADD SLOAD SWAP1 DUP1 PUSH1 0x5 ADD SLOAD SWAP1 DUP1 PUSH1 0x6 ADD SLOAD SWAP1 POP DUP8 JUMP JUMPDEST PUSH0 DUP1 DUP4 PUSH1 0x5 DUP1 SLOAD SWAP1 POP DUP2 LT PUSH2 0x2DCF JUMPI PUSH1 0x40 MLOAD PUSH32 0x8C379A000000000000000000000000000000000000000000000000000000000 DUP2 MSTORE PUSH1 0x4 ADD PUSH2 0x2DC6 SWAP1 PUSH2 0x4BE2 JUMP JUMPDEST PUSH1 0x40 MLOAD DUP1 SWAP2 SUB SWAP1 REVERT JUMPDEST PUSH0 PUSH1 0x6 PUSH0 DUP8 DUP2 MSTORE PUSH1 0x20 ADD SWAP1 DUP2 MSTORE PUSH1 0x20 ADD PUSH0 KECCAK256 PUSH0 DUP7 PUSH20 0xFFFFFFFFFFFFFFFFFFFFFFFFFFFFFFFFFFFFFFFF AND PUSH20 0xFFFFFFFFFFFFFFFFFFFFFFFFFFFFFFFFFFFFFFFF AND DUP2 MSTORE PUSH1 0x20 ADD SWAP1 DUP2 MSTORE PUSH1 0x20 ADD PUSH0 KECCAK256 SWAP1 POP PUSH0 JUMPDEST DUP2 PUSH1 0x3 ADD DUP1 SLOAD SWAP1 POP DUP2 LT ISZERO PUSH2 0x2ECD JUMPI NUMBER DUP3 PUSH1 0x3 ADD DUP3 DUP2 SLOAD DUP2 LT PUSH2 0x2E46 JUMPI PUSH2 0x2E45 PUSH2 0x4C68 JUMP JUMPDEST JUMPDEST SWAP1 PUSH0 MSTORE PUSH1 0x20 PUSH0 KECCAK256 SWAP1 PUSH1 0x2 MUL ADD PUSH1 0x1 ADD SLOAD GT PUSH2 0x2E8E JUMPI DUP2 PUSH1 0x3 ADD DUP2 DUP2 SLOAD DUP2 LT PUSH2 0x2E71 JUMPI PUSH2 0x2E70 PUSH2 0x4C68 JUMP JUMPDEST JUMPDEST SWAP1 PUSH0 MSTORE PUSH1 0x20 PUSH0 KECCAK256 SWAP1 PUSH1 0x2 MUL ADD PUSH0 ADD SLOAD DUP5 PUSH2 0x2E8B SWAP2 SWAP1 PUSH2 0x4CC2 JUMP JUMPDEST SWAP4 POP JUMPDEST DUP2 PUSH1 0x3 ADD DUP2 DUP2 SLOAD DUP2 LT PUSH2 0x2EA4 JUMPI PUSH2 0x2EA3 PUSH2 0x4C68 JUMP JUMPDEST JUMPDEST SWAP1 PUSH0 MSTORE PUSH1 0x20 PUSH0 KECCAK256 SWAP1 PUSH1 0x2 MUL ADD PUSH0 ADD SLOAD DUP6 PUSH2 0x2EBE SWAP2 SWAP1 PUSH2 0x4CC2 JUMP JUMPDEST SWAP5 POP DUP1 DUP1 PUSH1 0x1 ADD SWAP2 POP POP PUSH2 0x2E20 JUMP JUMPDEST POP POP POP SWAP3 POP SWAP3 SWAP1 POP JUMP JUMPDEST PUSH0 PUSH32 0x1FFC9A700000000000000000000000000000000000000000000000000000000 PUSH28 0xFFFFFFFFFFFFFFFFFFFFFFFFFFFFFFFFFFFFFFFFFFFFFFFFFFFFFFFF NOT AND DUP3 PUSH28 0xFFFFFFFFFFFFFFFFFFFFFFFFFFFFFFFFFFFFFFFFFFFFFFFFFFFFFFFF NOT AND EQ SWAP1 POP SWAP2 SWAP1 POP JUMP JUMPDEST PUSH0 PUSH32 0x2DD7BC7DEC4DCEEDDA775E58DD541E08A116C6C53815C0BD028192F7B626800 SWAP1 POP SWAP1 JUMP JUMPDEST PUSH2 0x2F6F PUSH2 0x1A79 JUMP JUMPDEST ISZERO PUSH2 0x2FA6 JUMPI PUSH1 0x40 MLOAD PUSH32 0xD93C066500000000000000000000000000000000000000000000000000000000 DUP2 MSTORE PUSH1 0x4 ADD PUSH1 0x40 MLOAD DUP1 SWAP2 SUB SWAP1 REVERT JUMPDEST JUMP JUMPDEST PUSH0 DUP1 DUP4 PUSH20 0xFFFFFFFFFFFFFFFFFFFFFFFFFFFFFFFFFFFFFFFF AND DUP4 PUSH1 0x40 MLOAD PUSH2 0x2FCE SWAP1 PUSH2 0x58E2 JUMP JUMPDEST PUSH0 PUSH1 0x40 MLOAD DUP1 DUP4 SUB DUP2 DUP6 DUP8 GAS CALL SWAP3 POP POP POP RETURNDATASIZE DUP1 PUSH0 DUP2 EQ PUSH2 0x3008 JUMPI PUSH1 0x40 MLOAD SWAP2 POP PUSH1 0x1F NOT PUSH1 0x3F RETURNDATASIZE ADD AND DUP3 ADD PUSH1 0x40 MSTORE RETURNDATASIZE DUP3 MSTORE RETURNDATASIZE PUSH0 PUSH1 0x20 DUP5 ADD RETURNDATACOPY PUSH2 0x300D JUMP JUMPDEST PUSH1 0x60 SWAP2 POP JUMPDEST POP SWAP2 POP SWAP2 POP DUP2 PUSH2 0x3052 JUMPI PUSH1 0x40 MLOAD PUSH32 0x8C379A000000000000000000000000000000000000000000000000000000000 DUP2 MSTORE PUSH1 0x4 ADD PUSH2 0x3049 SWAP1 PUSH2 0x5966 JUMP JUMPDEST PUSH1 0x40 MLOAD DUP1 SWAP2 SUB SWAP1 REVERT JUMPDEST PUSH0 DUP2 MLOAD GT ISZERO PUSH2 0x30AF JUMPI DUP1 DUP1 PUSH1 0x20 ADD SWAP1 MLOAD DUP2 ADD SWAP1 PUSH2 0x306F SWAP2 SWAP1 PUSH2 0x5998 JUMP JUMPDEST PUSH2 0x30AE JUMPI PUSH1 0x40 MLOAD PUSH32 0x8C379A000000000000000000000000000000000000000000000000000000000 DUP2 MSTORE PUSH1 0x4 ADD PUSH2 0x30A5 SWAP1 PUSH2 0x5A0D JUMP JUMPDEST PUSH1 0x40 MLOAD DUP1 SWAP2 SUB SWAP1 REVERT JUMPDEST JUMPDEST POP POP POP POP JUMP JUMPDEST PUSH2 0x312F DUP4 DUP5 PUSH20 0xFFFFFFFFFFFFFFFFFFFFFFFFFFFFFFFFFFFFFFFF AND PUSH4 0xA9059CBB DUP6 DUP6 PUSH1 0x40 MLOAD PUSH1 0x24 ADD PUSH2 0x30E8 SWAP3 SWAP2 SWAP1 PUSH2 0x5A2B JUMP JUMPDEST PUSH1 0x40 MLOAD PUSH1 0x20 DUP2 DUP4 SUB SUB DUP2 MSTORE SWAP1 PUSH1 0x40 MSTORE SWAP2 POP PUSH1 0xE0 SHL PUSH1 0x20 DUP3 ADD DUP1 MLOAD PUSH28 0xFFFFFFFFFFFFFFFFFFFFFFFFFFFFFFFFFFFFFFFFFFFFFFFFFFFFFFFF DUP4 DUP2 DUP4 AND OR DUP4 MSTORE POP POP POP POP PUSH2 0x3D8B JUMP JUMPDEST POP POP POP JUMP JUMPDEST PUSH2 0x3145 DUP2 PUSH2 0x3140 PUSH2 0x3240 JUMP JUMPDEST PUSH2 0x3E20 JUMP JUMPDEST POP JUMP JUMPDEST PUSH0 DUP1 PUSH2 0x3152 PUSH2 0x2F40 JUMP JUMPDEST SWAP1 POP PUSH2 0x315E DUP5 DUP5 PUSH2 0x1D87 JUMP JUMPDEST PUSH2 0x3235 JUMPI PUSH1 0x1 DUP2 PUSH0 ADD PUSH0 DUP7 DUP2 MSTORE PUSH1 0x20 ADD SWAP1 DUP2 MSTORE PUSH1 0x20 ADD PUSH0 KECCAK256 PUSH0 ADD PUSH0 DUP6 PUSH20 0xFFFFFFFFFFFFFFFFFFFFFFFFFFFFFFFFFFFFFFFF AND PUSH20 0xFFFFFFFFFFFFFFFFFFFFFFFFFFFFFFFFFFFFFFFF AND DUP2 MSTORE PUSH1 0x20 ADD SWAP1 DUP2 MSTORE PUSH1 0x20 ADD PUSH0 KECCAK256 PUSH0 PUSH2 0x100 EXP DUP2 SLOAD DUP2 PUSH1 0xFF MUL NOT AND SWAP1 DUP4 ISZERO ISZERO MUL OR SWAP1 SSTORE POP PUSH2 0x31D1 PUSH2 0x3240 JUMP JUMPDEST PUSH20 0xFFFFFFFFFFFFFFFFFFFFFFFFFFFFFFFFFFFFFFFF AND DUP4 PUSH20 0xFFFFFFFFFFFFFFFFFFFFFFFFFFFFFFFFFFFFFFFF AND DUP6 PUSH32 0x2F8788117E7EFF1D82E926EC794901D17C78024A50270940304540A733656F0D PUSH1 0x40 MLOAD PUSH1 0x40 MLOAD DUP1 SWAP2 SUB SWAP1 LOG4 PUSH1 0x1 SWAP2 POP POP PUSH2 0x323A JUMP JUMPDEST PUSH0 SWAP2 POP POP JUMPDEST SWAP3 SWAP2 POP POP JUMP JUMPDEST PUSH0 CALLER SWAP1 POP SWAP1 JUMP JUMPDEST PUSH0 DUP1 PUSH2 0x3251 PUSH2 0x2F40 JUMP JUMPDEST SWAP1 POP PUSH2 0x325D DUP5 DUP5 PUSH2 0x1D87 JUMP JUMPDEST ISZERO PUSH2 0x3334 JUMPI PUSH0 DUP2 PUSH0 ADD PUSH0 DUP7 DUP2 MSTORE PUSH1 0x20 ADD SWAP1 DUP2 MSTORE PUSH1 0x20 ADD PUSH0 KECCAK256 PUSH0 ADD PUSH0 DUP6 PUSH20 0xFFFFFFFFFFFFFFFFFFFFFFFFFFFFFFFFFFFFFFFF AND PUSH20 0xFFFFFFFFFFFFFFFFFFFFFFFFFFFFFFFFFFFFFFFF AND DUP2 MSTORE PUSH1 0x20 ADD SWAP1 DUP2 MSTORE PUSH1 0x20 ADD PUSH0 KECCAK256 PUSH0 PUSH2 0x100 EXP DUP2 SLOAD DUP2 PUSH1 0xFF MUL NOT AND SWAP1 DUP4 ISZERO ISZERO MUL OR SWAP1 SSTORE POP PUSH2 0x32D0 PUSH2 0x3240 JUMP JUMPDEST PUSH20 0xFFFFFFFFFFFFFFFFFFFFFFFFFFFFFFFFFFFFFFFF AND DUP4 PUSH20 0xFFFFFFFFFFFFFFFFFFFFFFFFFFFFFFFFFFFFFFFF AND DUP6 PUSH32 0xF6391F5C32D9C69D2A47EA670B442974B53935D1EDC7FD64EB21E047A839171B PUSH1 0x40 MLOAD PUSH1 0x40 MLOAD DUP1 SWAP2 SUB SWAP1 LOG4 PUSH1 0x1 SWAP2 POP POP PUSH2 0x3339 JUMP JUMPDEST PUSH0 SWAP2 POP POP JUMPDEST SWAP3 SWAP2 POP POP JUMP JUMPDEST PUSH0 PUSH1 0x3 PUSH1 0x2 SWAP1 SLOAD SWAP1 PUSH2 0x100 EXP SWAP1 DIV PUSH20 0xFFFFFFFFFFFFFFFFFFFFFFFFFFFFFFFFFFFFFFFF AND PUSH20 0xFFFFFFFFFFFFFFFFFFFFFFFFFFFFFFFFFFFFFFFF AND PUSH4 0x70A08231 ADDRESS PUSH1 0x40 MLOAD DUP3 PUSH4 0xFFFFFFFF AND PUSH1 0xE0 SHL DUP2 MSTORE PUSH1 0x4 ADD PUSH2 0x339B SWAP2 SWAP1 PUSH2 0x5A52 JUMP JUMPDEST PUSH1 0x20 PUSH1 0x40 MLOAD DUP1 DUP4 SUB DUP2 DUP7 GAS STATICCALL ISZERO DUP1 ISZERO PUSH2 0x33B6 JUMPI RETURNDATASIZE PUSH0 DUP1 RETURNDATACOPY RETURNDATASIZE PUSH0 REVERT JUMPDEST POP POP POP POP PUSH1 0x40 MLOAD RETURNDATASIZE PUSH1 0x1F NOT PUSH1 0x1F DUP3 ADD AND DUP3 ADD DUP1 PUSH1 0x40 MSTORE POP DUP2 ADD SWAP1 PUSH2 0x33DA SWAP2 SWAP1 PUSH2 0x5A7F JUMP JUMPDEST SWAP1 POP DUP1 DUP3 GT ISZERO PUSH2 0x3487 JUMPI PUSH1 0x3 PUSH1 0x2 SWAP1 SLOAD SWAP1 PUSH2 0x100 EXP SWAP1 DIV PUSH20 0xFFFFFFFFFFFFFFFFFFFFFFFFFFFFFFFFFFFFFFFF AND PUSH20 0xFFFFFFFFFFFFFFFFFFFFFFFFFFFFFFFFFFFFFFFF AND PUSH4 0xA9059CBB DUP5 DUP4 PUSH1 0x40 MLOAD DUP4 PUSH4 0xFFFFFFFF AND PUSH1 0xE0 SHL DUP2 MSTORE PUSH1 0x4 ADD PUSH2 0x3441 SWAP3 SWAP2 SWAP1 PUSH2 0x5A2B JUMP JUMPDEST PUSH1 0x20 PUSH1 0x40 MLOAD DUP1 DUP4 SUB DUP2 PUSH0 DUP8 GAS CALL ISZERO DUP1 ISZERO PUSH2 0x345D JUMPI RETURNDATASIZE PUSH0 DUP1 RETURNDATACOPY RETURNDATASIZE PUSH0 REVERT JUMPDEST POP POP POP POP PUSH1 0x40 MLOAD RETURNDATASIZE PUSH1 0x1F NOT PUSH1 0x1F DUP3 ADD AND DUP3 ADD DUP1 PUSH1 0x40 MSTORE POP DUP2 ADD SWAP1 PUSH2 0x3481 SWAP2 SWAP1 PUSH2 0x5998 JUMP JUMPDEST POP PUSH2 0x3526 JUMP JUMPDEST PUSH1 0x3 PUSH1 0x2 SWAP1 SLOAD SWAP1 PUSH2 0x100 EXP SWAP1 DIV PUSH20 0xFFFFFFFFFFFFFFFFFFFFFFFFFFFFFFFFFFFFFFFF AND PUSH20 0xFFFFFFFFFFFFFFFFFFFFFFFFFFFFFFFFFFFFFFFF AND PUSH4 0xA9059CBB DUP5 DUP5 PUSH1 0x40 MLOAD DUP4 PUSH4 0xFFFFFFFF AND PUSH1 0xE0 SHL DUP2 MSTORE PUSH1 0x4 ADD PUSH2 0x34E4 SWAP3 SWAP2 SWAP1 PUSH2 0x5A2B JUMP JUMPDEST PUSH1 0x20 PUSH1 0x40 MLOAD DUP1 DUP4 SUB DUP2 PUSH0 DUP8 GAS CALL ISZERO DUP1 ISZERO PUSH2 0x3500 JUMPI RETURNDATASIZE PUSH0 DUP1 RETURNDATACOPY RETURNDATASIZE PUSH0 REVERT JUMPDEST POP POP POP POP PUSH1 0x40 MLOAD RETURNDATASIZE PUSH1 0x1F NOT PUSH1 0x1F DUP3 ADD AND DUP3 ADD DUP1 PUSH1 0x40 MSTORE POP DUP2 ADD SWAP1 PUSH2 0x3524 SWAP2 SWAP1 PUSH2 0x5998 JUMP JUMPDEST POP JUMPDEST POP POP POP JUMP JUMPDEST PUSH0 PUSH32 0xF0C57E16840DF040F15088DC2F81FE391C3923BEC73E23A9662EFC9C229C6A00 SWAP1 POP SWAP1 JUMP JUMPDEST PUSH2 0x355A PUSH2 0x3E71 JUMP JUMPDEST JUMP JUMPDEST PUSH2 0x3564 PUSH2 0x3E71 JUMP JUMPDEST JUMP JUMPDEST PUSH32 0x0 PUSH20 0xFFFFFFFFFFFFFFFFFFFFFFFFFFFFFFFFFFFFFFFF AND ADDRESS PUSH20 0xFFFFFFFFFFFFFFFFFFFFFFFFFFFFFFFFFFFFFFFF AND EQ DUP1 PUSH2 0x3613 JUMPI POP PUSH32 0x0 PUSH20 0xFFFFFFFFFFFFFFFFFFFFFFFFFFFFFFFFFFFFFFFF AND PUSH2 0x35FA PUSH2 0x3EB1 JUMP JUMPDEST PUSH20 0xFFFFFFFFFFFFFFFFFFFFFFFFFFFFFFFFFFFFFFFF AND EQ ISZERO JUMPDEST ISZERO PUSH2 0x364A JUMPI PUSH1 0x40 MLOAD PUSH32 0xE07C8DBA00000000000000000000000000000000000000000000000000000000 DUP2 MSTORE PUSH1 0x4 ADD PUSH1 0x40 MLOAD DUP1 SWAP2 SUB SWAP1 REVERT JUMPDEST JUMP JUMPDEST PUSH32 0xCAB03BC4DBCC648CD59D6BBE9F848D1E9092F914016AA290EE92E18700D1E6F9 PUSH2 0x3676 DUP2 PUSH2 0x3134 JUMP JUMPDEST POP POP JUMP JUMPDEST DUP2 PUSH20 0xFFFFFFFFFFFFFFFFFFFFFFFFFFFFFFFFFFFFFFFF AND PUSH4 0x52D1902D PUSH1 0x40 MLOAD DUP2 PUSH4 0xFFFFFFFF AND PUSH1 0xE0 SHL DUP2 MSTORE PUSH1 0x4 ADD PUSH1 0x20 PUSH1 0x40 MLOAD DUP1 DUP4 SUB DUP2 DUP7 GAS STATICCALL SWAP3 POP POP POP DUP1 ISZERO PUSH2 0x36E2 JUMPI POP PUSH1 0x40 MLOAD RETURNDATASIZE PUSH1 0x1F NOT PUSH1 0x1F DUP3 ADD AND DUP3 ADD DUP1 PUSH1 0x40 MSTORE POP DUP2 ADD SWAP1 PUSH2 0x36DF SWAP2 SWAP1 PUSH2 0x5ABE JUMP JUMPDEST PUSH1 0x1 JUMPDEST PUSH2 0x3723 JUMPI DUP2 PUSH1 0x40 MLOAD PUSH32 0x4C9C8CE300000000000000000000000000000000000000000000000000000000 DUP2 MSTORE PUSH1 0x4 ADD PUSH2 0x371A SWAP2 SWAP1 PUSH2 0x5A52 JUMP JUMPDEST PUSH1 0x40 MLOAD DUP1 SWAP2 SUB SWAP1 REVERT JUMPDEST PUSH32 0x360894A13BA1A3210667C828492DB98DCA3E2076CC3735A920A3CA505D382BBC PUSH0 SHL DUP2 EQ PUSH2 0x3789 JUMPI DUP1 PUSH1 0x40 MLOAD PUSH32 0xAA1D49A400000000000000000000000000000000000000000000000000000000 DUP2 MSTORE PUSH1 0x4 ADD PUSH2 0x3780 SWAP2 SWAP1 PUSH2 0x451B JUMP JUMPDEST PUSH1 0x40 MLOAD DUP1 SWAP2 SUB SWAP1 REVERT JUMPDEST PUSH2 0x3793 DUP4 DUP4 PUSH2 0x3F04 JUMP JUMPDEST POP POP POP JUMP JUMPDEST PUSH0 DUP1 PUSH0 DUP5 SUB PUSH2 0x37AD JUMPI PUSH1 0x1 PUSH0 SWAP2 POP SWAP2 POP PUSH2 0x37DF JUMP JUMPDEST PUSH0 DUP4 DUP6 MUL SWAP1 POP DUP4 DUP6 DUP3 DUP2 PUSH2 0x37C4 JUMPI PUSH2 0x37C3 PUSH2 0x4E45 JUMP JUMPDEST JUMPDEST DIV EQ PUSH2 0x37D6 JUMPI PUSH0 DUP1 SWAP3 POP SWAP3 POP POP PUSH2 0x37DF JUMP JUMPDEST PUSH1 0x1 DUP2 SWAP3 POP SWAP3 POP POP JUMPDEST SWAP3 POP SWAP3 SWAP1 POP JUMP JUMPDEST PUSH0 DUP1 PUSH0 DUP4 SUB PUSH2 0x37FA JUMPI PUSH0 DUP1 SWAP2 POP SWAP2 POP PUSH2 0x3812 JUMP JUMPDEST PUSH1 0x1 DUP4 DUP6 DUP2 PUSH2 0x380C JUMPI PUSH2 0x380B PUSH2 0x4E45 JUMP JUMPDEST JUMPDEST DIV SWAP2 POP SWAP2 POP JUMPDEST SWAP3 POP SWAP3 SWAP1 POP JUMP JUMPDEST PUSH0 DUP1 PUSH0 DUP4 DUP6 ADD SWAP1 POP DUP5 DUP2 LT ISZERO PUSH2 0x3835 JUMPI PUSH0 DUP1 SWAP3 POP SWAP3 POP POP PUSH2 0x383E JUMP JUMPDEST PUSH1 0x1 DUP2 SWAP3 POP SWAP3 POP POP JUMPDEST SWAP3 POP SWAP3 SWAP1 POP JUMP JUMPDEST PUSH32 0x0 PUSH20 0xFFFFFFFFFFFFFFFFFFFFFFFFFFFFFFFFFFFFFFFF AND ADDRESS PUSH20 0xFFFFFFFFFFFFFFFFFFFFFFFFFFFFFFFFFFFFFFFF AND EQ PUSH2 0x38CA JUMPI PUSH1 0x40 MLOAD PUSH32 0xE07C8DBA00000000000000000000000000000000000000000000000000000000 DUP2 MSTORE PUSH1 0x4 ADD PUSH1 0x40 MLOAD DUP1 SWAP2 SUB SWAP1 REVERT JUMPDEST JUMP JUMPDEST PUSH0 PUSH32 0xCD5ED15C6E187E77E9AEE88184C21F4F2182AB5827CB3B7E07FBEDCD63F03300 SWAP1 POP SWAP1 JUMP JUMPDEST PUSH0 PUSH1 0x5 DUP4 DUP2 SLOAD DUP2 LT PUSH2 0x3908 JUMPI PUSH2 0x3907 PUSH2 0x4C68 JUMP JUMPDEST JUMPDEST SWAP1 PUSH0 MSTORE PUSH1 0x20 PUSH0 KECCAK256 SWAP1 PUSH1 0x7 MUL ADD SWAP1 POP PUSH0 PUSH1 0x6 PUSH0 DUP6 DUP2 MSTORE PUSH1 0x20 ADD SWAP1 DUP2 MSTORE PUSH1 0x20 ADD PUSH0 KECCAK256 PUSH0 CALLER PUSH20 0xFFFFFFFFFFFFFFFFFFFFFFFFFFFFFFFFFFFFFFFF AND PUSH20 0xFFFFFFFFFFFFFFFFFFFFFFFFFFFFFFFFFFFFFFFF AND DUP2 MSTORE PUSH1 0x20 ADD SWAP1 DUP2 MSTORE PUSH1 0x20 ADD PUSH0 KECCAK256 SWAP1 POP PUSH2 0x396E DUP5 PUSH2 0x16BF JUMP JUMPDEST PUSH0 DUP2 PUSH0 ADD SLOAD GT ISZERO PUSH2 0x3B0F JUMPI PUSH0 DUP1 PUSH2 0x3995 DUP5 PUSH1 0x3 ADD SLOAD DUP5 PUSH0 ADD SLOAD PUSH2 0x3798 SWAP1 SWAP2 SWAP1 PUSH4 0xFFFFFFFF AND JUMP JUMPDEST SWAP2 POP SWAP2 POP DUP2 PUSH2 0x39D9 JUMPI PUSH1 0x40 MLOAD PUSH32 0x8C379A000000000000000000000000000000000000000000000000000000000 DUP2 MSTORE PUSH1 0x4 ADD PUSH2 0x39D0 SWAP1 PUSH2 0x5B59 JUMP JUMPDEST PUSH1 0x40 MLOAD DUP1 SWAP2 SUB SWAP1 REVERT JUMPDEST PUSH2 0x39F4 PUSH8 0xDE0B6B3A7640000 DUP3 PUSH2 0x37E6 SWAP1 SWAP2 SWAP1 PUSH4 0xFFFFFFFF AND JUMP JUMPDEST DUP1 SWAP3 POP DUP2 SWAP4 POP POP POP DUP2 PUSH2 0x3A3C JUMPI PUSH1 0x40 MLOAD PUSH32 0x8C379A000000000000000000000000000000000000000000000000000000000 DUP2 MSTORE PUSH1 0x4 ADD PUSH2 0x3A33 SWAP1 PUSH2 0x5BC1 JUMP JUMPDEST PUSH1 0x40 MLOAD DUP1 SWAP2 SUB SWAP1 REVERT JUMPDEST PUSH0 DUP1 PUSH2 0x3A55 DUP6 PUSH1 0x1 ADD SLOAD DUP5 PUSH2 0x3F76 SWAP1 SWAP2 SWAP1 PUSH4 0xFFFFFFFF AND JUMP JUMPDEST SWAP2 POP SWAP2 POP DUP2 PUSH2 0x3A99 JUMPI PUSH1 0x40 MLOAD PUSH32 0x8C379A000000000000000000000000000000000000000000000000000000000 DUP2 MSTORE PUSH1 0x4 ADD PUSH2 0x3A90 SWAP1 PUSH2 0x5C29 JUMP JUMPDEST PUSH1 0x40 MLOAD DUP1 SWAP2 SUB SWAP1 REVERT JUMPDEST PUSH0 DUP2 GT ISZERO PUSH2 0x3B0A JUMPI PUSH0 DUP1 PUSH2 0x3ABA DUP4 DUP9 PUSH1 0x2 ADD SLOAD PUSH2 0x3819 SWAP1 SWAP2 SWAP1 PUSH4 0xFFFFFFFF AND JUMP JUMPDEST SWAP2 POP SWAP2 POP DUP2 PUSH2 0x3AFE JUMPI PUSH1 0x40 MLOAD PUSH32 0x8C379A000000000000000000000000000000000000000000000000000000000 DUP2 MSTORE PUSH1 0x4 ADD PUSH2 0x3AF5 SWAP1 PUSH2 0x5C91 JUMP JUMPDEST PUSH1 0x40 MLOAD DUP1 SWAP2 SUB SWAP1 REVERT JUMPDEST DUP1 DUP8 PUSH1 0x2 ADD DUP2 SWAP1 SSTORE POP POP POP JUMPDEST POP POP POP POP JUMPDEST PUSH0 DUP4 GT ISZERO PUSH2 0x3B7E JUMPI PUSH0 DUP1 PUSH2 0x3B2F DUP6 DUP5 PUSH0 ADD SLOAD PUSH2 0x3819 SWAP1 SWAP2 SWAP1 PUSH4 0xFFFFFFFF AND JUMP JUMPDEST SWAP2 POP SWAP2 POP DUP2 PUSH2 0x3B73 JUMPI PUSH1 0x40 MLOAD PUSH32 0x8C379A000000000000000000000000000000000000000000000000000000000 DUP2 MSTORE PUSH1 0x4 ADD PUSH2 0x3B6A SWAP1 PUSH2 0x5CF9 JUMP JUMPDEST PUSH1 0x40 MLOAD DUP1 SWAP2 SUB SWAP1 REVERT JUMPDEST DUP1 DUP4 PUSH0 ADD DUP2 SWAP1 SSTORE POP POP POP JUMPDEST PUSH0 DUP1 PUSH2 0x3B97 DUP6 DUP6 PUSH1 0x4 ADD SLOAD PUSH2 0x3819 SWAP1 SWAP2 SWAP1 PUSH4 0xFFFFFFFF AND JUMP JUMPDEST SWAP2 POP SWAP2 POP DUP2 PUSH2 0x3BDB JUMPI PUSH1 0x40 MLOAD PUSH32 0x8C379A000000000000000000000000000000000000000000000000000000000 DUP2 MSTORE PUSH1 0x4 ADD PUSH2 0x3BD2 SWAP1 PUSH2 0x5D61 JUMP JUMPDEST PUSH1 0x40 MLOAD DUP1 SWAP2 SUB SWAP1 REVERT JUMPDEST DUP1 DUP5 PUSH1 0x4 ADD DUP2 SWAP1 SSTORE POP PUSH0 DUP1 PUSH2 0x3C00 DUP7 PUSH1 0x3 ADD SLOAD DUP7 PUSH0 ADD SLOAD PUSH2 0x3798 SWAP1 SWAP2 SWAP1 PUSH4 0xFFFFFFFF AND JUMP JUMPDEST SWAP2 POP SWAP2 POP DUP2 PUSH2 0x3C44 JUMPI PUSH1 0x40 MLOAD PUSH32 0x8C379A000000000000000000000000000000000000000000000000000000000 DUP2 MSTORE PUSH1 0x4 ADD PUSH2 0x3C3B SWAP1 PUSH2 0x5B59 JUMP JUMPDEST PUSH1 0x40 MLOAD DUP1 SWAP2 SUB SWAP1 REVERT JUMPDEST PUSH2 0x3C5F PUSH8 0xDE0B6B3A7640000 DUP3 PUSH2 0x37E6 SWAP1 SWAP2 SWAP1 PUSH4 0xFFFFFFFF AND JUMP JUMPDEST DUP1 SWAP3 POP DUP2 SWAP4 POP POP POP DUP2 PUSH2 0x3CA7 JUMPI PUSH1 0x40 MLOAD PUSH32 0x8C379A000000000000000000000000000000000000000000000000000000000 DUP2 MSTORE PUSH1 0x4 ADD PUSH2 0x3C9E SWAP1 PUSH2 0x5DC9 JUMP JUMPDEST PUSH1 0x40 MLOAD DUP1 SWAP2 SUB SWAP1 REVERT JUMPDEST DUP1 DUP6 PUSH1 0x1 ADD DUP2 SWAP1 SSTORE POP DUP8 CALLER PUSH20 0xFFFFFFFFFFFFFFFFFFFFFFFFFFFFFFFFFFFFFFFF AND PUSH32 0x90890809C654F11D6E72A28FA60149770A0D11EC6C92319D6CEB2BB0A4EA1A15 DUP10 PUSH1 0x40 MLOAD PUSH2 0x3CF7 SWAP2 SWAP1 PUSH2 0x43D3 JUMP JUMPDEST PUSH1 0x40 MLOAD DUP1 SWAP2 SUB SWAP1 LOG3 POP POP POP POP POP POP POP POP JUMP JUMPDEST PUSH2 0x3D85 DUP5 DUP6 PUSH20 0xFFFFFFFFFFFFFFFFFFFFFFFFFFFFFFFFFFFFFFFF AND PUSH4 0x23B872DD DUP7 DUP7 DUP7 PUSH1 0x40 MLOAD PUSH1 0x24 ADD PUSH2 0x3D3E SWAP4 SWAP3 SWAP2 SWAP1 PUSH2 0x5DE7 JUMP JUMPDEST PUSH1 0x40 MLOAD PUSH1 0x20 DUP2 DUP4 SUB SUB DUP2 MSTORE SWAP1 PUSH1 0x40 MSTORE SWAP2 POP PUSH1 0xE0 SHL PUSH1 0x20 DUP3 ADD DUP1 MLOAD PUSH28 0xFFFFFFFFFFFFFFFFFFFFFFFFFFFFFFFFFFFFFFFFFFFFFFFFFFFFFFFF DUP4 DUP2 DUP4 AND OR DUP4 MSTORE POP POP POP POP PUSH2 0x3D8B JUMP JUMPDEST POP POP POP POP JUMP JUMPDEST PUSH0 PUSH2 0x3DB5 DUP3 DUP5 PUSH20 0xFFFFFFFFFFFFFFFFFFFFFFFFFFFFFFFFFFFFFFFF AND PUSH2 0x3F9C SWAP1 SWAP2 SWAP1 PUSH4 0xFFFFFFFF AND JUMP JUMPDEST SWAP1 POP PUSH0 DUP2 MLOAD EQ ISZERO DUP1 ISZERO PUSH2 0x3DD9 JUMPI POP DUP1 DUP1 PUSH1 0x20 ADD SWAP1 MLOAD DUP2 ADD SWAP1 PUSH2 0x3DD7 SWAP2 SWAP1 PUSH2 0x5998 JUMP JUMPDEST ISZERO JUMPDEST ISZERO PUSH2 0x3E1B JUMPI DUP3 PUSH1 0x40 MLOAD PUSH32 0x5274AFE700000000000000000000000000000000000000000000000000000000 DUP2 MSTORE PUSH1 0x4 ADD PUSH2 0x3E12 SWAP2 SWAP1 PUSH2 0x5A52 JUMP JUMPDEST PUSH1 0x40 MLOAD DUP1 SWAP2 SUB SWAP1 REVERT JUMPDEST POP POP POP JUMP JUMPDEST PUSH2 0x3E2A DUP3 DUP3 PUSH2 0x1D87 JUMP JUMPDEST PUSH2 0x3E6D JUMPI DUP1 DUP3 PUSH1 0x40 MLOAD PUSH32 0xE2517D3F00000000000000000000000000000000000000000000000000000000 DUP2 MSTORE PUSH1 0x4 ADD PUSH2 0x3E64 SWAP3 SWAP2 SWAP1 PUSH2 0x5E1C JUMP JUMPDEST PUSH1 0x40 MLOAD DUP1 SWAP2 SUB SWAP1 REVERT JUMPDEST POP POP JUMP JUMPDEST PUSH2 0x3E79 PUSH2 0x3FB1 JUMP JUMPDEST PUSH2 0x3EAF JUMPI PUSH1 0x40 MLOAD PUSH32 0xD7E6BCF800000000000000000000000000000000000000000000000000000000 DUP2 MSTORE PUSH1 0x4 ADD PUSH1 0x40 MLOAD DUP1 SWAP2 SUB SWAP1 REVERT JUMPDEST JUMP JUMPDEST PUSH0 PUSH2 0x3EDD PUSH32 0x360894A13BA1A3210667C828492DB98DCA3E2076CC3735A920A3CA505D382BBC PUSH0 SHL PUSH2 0x3FCF JUMP JUMPDEST PUSH0 ADD PUSH0 SWAP1 SLOAD SWAP1 PUSH2 0x100 EXP SWAP1 DIV PUSH20 0xFFFFFFFFFFFFFFFFFFFFFFFFFFFFFFFFFFFFFFFF AND SWAP1 POP SWAP1 JUMP JUMPDEST PUSH2 0x3F0D DUP3 PUSH2 0x3FD8 JUMP JUMPDEST DUP2 PUSH20 0xFFFFFFFFFFFFFFFFFFFFFFFFFFFFFFFFFFFFFFFF AND PUSH32 0xBC7CD75A20EE27FD9ADEBAB32041F755214DBC6BFFA90CC0225B39DA2E5C2D3B PUSH1 0x40 MLOAD PUSH1 0x40 MLOAD DUP1 SWAP2 SUB SWAP1 LOG2 PUSH0 DUP2 MLOAD GT ISZERO PUSH2 0x3F69 JUMPI PUSH2 0x3F63 DUP3 DUP3 PUSH2 0x40A1 JUMP JUMPDEST POP PUSH2 0x3F72 JUMP JUMPDEST PUSH2 0x3F71 PUSH2 0x4121 JUMP JUMPDEST JUMPDEST POP POP JUMP JUMPDEST PUSH0 DUP1 DUP4 DUP4 GT ISZERO PUSH2 0x3F8B JUMPI PUSH0 DUP1 SWAP2 POP SWAP2 POP PUSH2 0x3F95 JUMP JUMPDEST PUSH1 0x1 DUP4 DUP6 SUB SWAP2 POP SWAP2 POP JUMPDEST SWAP3 POP SWAP3 SWAP1 POP JUMP JUMPDEST PUSH1 0x60 PUSH2 0x3FA9 DUP4 DUP4 PUSH0 PUSH2 0x415D JUMP JUMPDEST SWAP1 POP SWAP3 SWAP2 POP POP JUMP JUMPDEST PUSH0 PUSH2 0x3FBA PUSH2 0x352B JUMP JUMPDEST PUSH0 ADD PUSH1 0x8 SWAP1 SLOAD SWAP1 PUSH2 0x100 EXP SWAP1 DIV PUSH1 0xFF AND SWAP1 POP SWAP1 JUMP JUMPDEST PUSH0 DUP2 SWAP1 POP SWAP2 SWAP1 POP JUMP JUMPDEST PUSH0 DUP2 PUSH20 0xFFFFFFFFFFFFFFFFFFFFFFFFFFFFFFFFFFFFFFFF AND EXTCODESIZE SUB PUSH2 0x4033 JUMPI DUP1 PUSH1 0x40 MLOAD PUSH32 0x4C9C8CE300000000000000000000000000000000000000000000000000000000 DUP2 MSTORE PUSH1 0x4 ADD PUSH2 0x402A SWAP2 SWAP1 PUSH2 0x5A52 JUMP JUMPDEST PUSH1 0x40 MLOAD DUP1 SWAP2 SUB SWAP1 REVERT JUMPDEST DUP1 PUSH2 0x405F PUSH32 0x360894A13BA1A3210667C828492DB98DCA3E2076CC3735A920A3CA505D382BBC PUSH0 SHL PUSH2 0x3FCF JUMP JUMPDEST PUSH0 ADD PUSH0 PUSH2 0x100 EXP DUP2 SLOAD DUP2 PUSH20 0xFFFFFFFFFFFFFFFFFFFFFFFFFFFFFFFFFFFFFFFF MUL NOT AND SWAP1 DUP4 PUSH20 0xFFFFFFFFFFFFFFFFFFFFFFFFFFFFFFFFFFFFFFFF AND MUL OR SWAP1 SSTORE POP POP JUMP JUMPDEST PUSH1 0x60 PUSH0 DUP1 DUP5 PUSH20 0xFFFFFFFFFFFFFFFFFFFFFFFFFFFFFFFFFFFFFFFF AND DUP5 PUSH1 0x40 MLOAD PUSH2 0x40CA SWAP2 SWAP1 PUSH2 0x5E7D JUMP JUMPDEST PUSH0 PUSH1 0x40 MLOAD DUP1 DUP4 SUB DUP2 DUP6 GAS DELEGATECALL SWAP2 POP POP RETURNDATASIZE DUP1 PUSH0 DUP2 EQ PUSH2 0x4102 JUMPI PUSH1 0x40 MLOAD SWAP2 POP PUSH1 0x1F NOT PUSH1 0x3F RETURNDATASIZE ADD AND DUP3 ADD PUSH1 0x40 MSTORE RETURNDATASIZE DUP3 MSTORE RETURNDATASIZE PUSH0 PUSH1 0x20 DUP5 ADD RETURNDATACOPY PUSH2 0x4107 JUMP JUMPDEST PUSH1 0x60 SWAP2 POP JUMPDEST POP SWAP2 POP SWAP2 POP PUSH2 0x4117 DUP6 DUP4 DUP4 PUSH2 0x4226 JUMP JUMPDEST SWAP3 POP POP POP SWAP3 SWAP2 POP POP JUMP JUMPDEST PUSH0 CALLVALUE GT ISZERO PUSH2 0x415B JUMPI PUSH1 0x40 MLOAD PUSH32 0xB398979F00000000000000000000000000000000000000000000000000000000 DUP2 MSTORE PUSH1 0x4 ADD PUSH1 0x40 MLOAD DUP1 SWAP2 SUB SWAP1 REVERT JUMPDEST JUMP JUMPDEST PUSH1 0x60 DUP2 SELFBALANCE LT ISZERO PUSH2 0x41A4 JUMPI ADDRESS PUSH1 0x40 MLOAD PUSH32 0xCD78605900000000000000000000000000000000000000000000000000000000 DUP2 MSTORE PUSH1 0x4 ADD PUSH2 0x419B SWAP2 SWAP1 PUSH2 0x5A52 JUMP JUMPDEST PUSH1 0x40 MLOAD DUP1 SWAP2 SUB SWAP1 REVERT JUMPDEST PUSH0 DUP1 DUP6 PUSH20 0xFFFFFFFFFFFFFFFFFFFFFFFFFFFFFFFFFFFFFFFF AND DUP5 DUP7 PUSH1 0x40 MLOAD PUSH2 0x41CC SWAP2 SWAP1 PUSH2 0x5E7D JUMP JUMPDEST PUSH0 PUSH1 0x40 MLOAD DUP1 DUP4 SUB DUP2 DUP6 DUP8 GAS CALL SWAP3 POP POP POP RETURNDATASIZE DUP1 PUSH0 DUP2 EQ PUSH2 0x4206 JUMPI PUSH1 0x40 MLOAD SWAP2 POP PUSH1 0x1F NOT PUSH1 0x3F RETURNDATASIZE ADD AND DUP3 ADD PUSH1 0x40 MSTORE RETURNDATASIZE DUP3 MSTORE RETURNDATASIZE PUSH0 PUSH1 0x20 DUP5 ADD RETURNDATACOPY PUSH2 0x420B JUMP JUMPDEST PUSH1 0x60 SWAP2 POP JUMPDEST POP SWAP2 POP SWAP2 POP PUSH2 0x421B DUP7 DUP4 DUP4 PUSH2 0x4226 JUMP JUMPDEST SWAP3 POP POP POP SWAP4 SWAP3 POP POP POP JUMP JUMPDEST PUSH1 0x60 DUP3 PUSH2 0x423B JUMPI PUSH2 0x4236 DUP3 PUSH2 0x42B3 JUMP JUMPDEST PUSH2 0x42AB JUMP JUMPDEST PUSH0 DUP3 MLOAD EQ DUP1 ISZERO PUSH2 0x4261 JUMPI POP PUSH0 DUP5 PUSH20 0xFFFFFFFFFFFFFFFFFFFFFFFFFFFFFFFFFFFFFFFF AND EXTCODESIZE EQ JUMPDEST ISZERO PUSH2 0x42A3 JUMPI DUP4 PUSH1 0x40 MLOAD PUSH32 0x9996B31500000000000000000000000000000000000000000000000000000000 DUP2 MSTORE PUSH1 0x4 ADD PUSH2 0x429A SWAP2 SWAP1 PUSH2 0x5A52 JUMP JUMPDEST PUSH1 0x40 MLOAD DUP1 SWAP2 SUB SWAP1 REVERT JUMPDEST DUP2 SWAP1 POP PUSH2 0x42AC JUMP JUMPDEST JUMPDEST SWAP4 SWAP3 POP POP POP JUMP JUMPDEST PUSH0 DUP2 MLOAD GT ISZERO PUSH2 0x42C5 JUMPI DUP1 MLOAD DUP1 DUP3 PUSH1 0x20 ADD REVERT JUMPDEST PUSH1 0x40 MLOAD PUSH32 0x1425EA4200000000000000000000000000000000000000000000000000000000 DUP2 MSTORE PUSH1 0x4 ADD PUSH1 0x40 MLOAD DUP1 SWAP2 SUB SWAP1 REVERT JUMPDEST PUSH0 PUSH1 0x40 MLOAD SWAP1 POP SWAP1 JUMP JUMPDEST PUSH0 DUP1 REVERT JUMPDEST PUSH0 DUP1 REVERT JUMPDEST PUSH0 PUSH32 0xFFFFFFFF00000000000000000000000000000000000000000000000000000000 DUP3 AND SWAP1 POP SWAP2 SWAP1 POP JUMP JUMPDEST PUSH2 0x433C DUP2 PUSH2 0x4308 JUMP JUMPDEST DUP2 EQ PUSH2 0x4346 JUMPI PUSH0 DUP1 REVERT JUMPDEST POP JUMP JUMPDEST PUSH0 DUP2 CALLDATALOAD SWAP1 POP PUSH2 0x4357 DUP2 PUSH2 0x4333 JUMP JUMPDEST SWAP3 SWAP2 POP POP JUMP JUMPDEST PUSH0 PUSH1 0x20 DUP3 DUP5 SUB SLT ISZERO PUSH2 0x4372 JUMPI PUSH2 0x4371 PUSH2 0x4300 JUMP JUMPDEST JUMPDEST PUSH0 PUSH2 0x437F DUP5 DUP3 DUP6 ADD PUSH2 0x4349 JUMP JUMPDEST SWAP2 POP POP SWAP3 SWAP2 POP POP JUMP JUMPDEST PUSH0 DUP2 ISZERO ISZERO SWAP1 POP SWAP2 SWAP1 POP JUMP JUMPDEST PUSH2 0x439C DUP2 PUSH2 0x4388 JUMP JUMPDEST DUP3 MSTORE POP POP JUMP JUMPDEST PUSH0 PUSH1 0x20 DUP3 ADD SWAP1 POP PUSH2 0x43B5 PUSH0 DUP4 ADD DUP5 PUSH2 0x4393 JUMP JUMPDEST SWAP3 SWAP2 POP POP JUMP JUMPDEST PUSH0 DUP2 SWAP1 POP SWAP2 SWAP1 POP JUMP JUMPDEST PUSH2 0x43CD DUP2 PUSH2 0x43BB JUMP JUMPDEST DUP3 MSTORE POP POP JUMP JUMPDEST PUSH0 PUSH1 0x20 DUP3 ADD SWAP1 POP PUSH2 0x43E6 PUSH0 DUP4 ADD DUP5 PUSH2 0x43C4 JUMP JUMPDEST SWAP3 SWAP2 POP POP JUMP JUMPDEST PUSH2 0x43F5 DUP2 PUSH2 0x43BB JUMP JUMPDEST DUP2 EQ PUSH2 0x43FF JUMPI PUSH0 DUP1 REVERT JUMPDEST POP JUMP JUMPDEST PUSH0 DUP2 CALLDATALOAD SWAP1 POP PUSH2 0x4410 DUP2 PUSH2 0x43EC JUMP JUMPDEST SWAP3 SWAP2 POP POP JUMP JUMPDEST PUSH0 PUSH20 0xFFFFFFFFFFFFFFFFFFFFFFFFFFFFFFFFFFFFFFFF DUP3 AND SWAP1 POP SWAP2 SWAP1 POP JUMP JUMPDEST PUSH0 PUSH2 0x443F DUP3 PUSH2 0x4416 JUMP JUMPDEST SWAP1 POP SWAP2 SWAP1 POP JUMP JUMPDEST PUSH2 0x444F DUP2 PUSH2 0x4435 JUMP JUMPDEST DUP2 EQ PUSH2 0x4459 JUMPI PUSH0 DUP1 REVERT JUMPDEST POP JUMP JUMPDEST PUSH0 DUP2 CALLDATALOAD SWAP1 POP PUSH2 0x446A DUP2 PUSH2 0x4446 JUMP JUMPDEST SWAP3 SWAP2 POP POP JUMP JUMPDEST PUSH0 DUP1 PUSH1 0x40 DUP4 DUP6 SUB SLT ISZERO PUSH2 0x4486 JUMPI PUSH2 0x4485 PUSH2 0x4300 JUMP JUMPDEST JUMPDEST PUSH0 PUSH2 0x4493 DUP6 DUP3 DUP7 ADD PUSH2 0x4402 JUMP JUMPDEST SWAP3 POP POP PUSH1 0x20 PUSH2 0x44A4 DUP6 DUP3 DUP7 ADD PUSH2 0x445C JUMP JUMPDEST SWAP2 POP POP SWAP3 POP SWAP3 SWAP1 POP JUMP JUMPDEST PUSH0 DUP2 SWAP1 POP SWAP2 SWAP1 POP JUMP JUMPDEST PUSH2 0x44C0 DUP2 PUSH2 0x44AE JUMP JUMPDEST DUP2 EQ PUSH2 0x44CA JUMPI PUSH0 DUP1 REVERT JUMPDEST POP JUMP JUMPDEST PUSH0 DUP2 CALLDATALOAD SWAP1 POP PUSH2 0x44DB DUP2 PUSH2 0x44B7 JUMP JUMPDEST SWAP3 SWAP2 POP POP JUMP JUMPDEST PUSH0 PUSH1 0x20 DUP3 DUP5 SUB SLT ISZERO PUSH2 0x44F6 JUMPI PUSH2 0x44F5 PUSH2 0x4300 JUMP JUMPDEST JUMPDEST PUSH0 PUSH2 0x4503 DUP5 DUP3 DUP6 ADD PUSH2 0x44CD JUMP JUMPDEST SWAP2 POP POP SWAP3 SWAP2 POP POP JUMP JUMPDEST PUSH2 0x4515 DUP2 PUSH2 0x44AE JUMP JUMPDEST DUP3 MSTORE POP POP JUMP JUMPDEST PUSH0 PUSH1 0x20 DUP3 ADD SWAP1 POP PUSH2 0x452E PUSH0 DUP4 ADD DUP5 PUSH2 0x450C JUMP JUMPDEST SWAP3 SWAP2 POP POP JUMP JUMPDEST PUSH0 PUSH1 0x20 DUP3 DUP5 SUB SLT ISZERO PUSH2 0x4549 JUMPI PUSH2 0x4548 PUSH2 0x4300 JUMP JUMPDEST JUMPDEST PUSH0 PUSH2 0x4556 DUP5 DUP3 DUP6 ADD PUSH2 0x4402 JUMP JUMPDEST SWAP2 POP POP SWAP3 SWAP2 POP POP JUMP JUMPDEST PUSH0 DUP1 PUSH1 0x40 DUP4 DUP6 SUB SLT ISZERO PUSH2 0x4575 JUMPI PUSH2 0x4574 PUSH2 0x4300 JUMP JUMPDEST JUMPDEST PUSH0 PUSH2 0x4582 DUP6 DUP3 DUP7 ADD PUSH2 0x44CD JUMP JUMPDEST SWAP3 POP POP PUSH1 0x20 PUSH2 0x4593 DUP6 DUP3 DUP7 ADD PUSH2 0x445C JUMP JUMPDEST SWAP2 POP POP SWAP3 POP SWAP3 SWAP1 POP JUMP JUMPDEST PUSH0 PUSH1 0x60 DUP3 ADD SWAP1 POP PUSH2 0x45B0 PUSH0 DUP4 ADD DUP7 PUSH2 0x43C4 JUMP JUMPDEST PUSH2 0x45BD PUSH1 0x20 DUP4 ADD DUP6 PUSH2 0x43C4 JUMP JUMPDEST PUSH2 0x45CA PUSH1 0x40 DUP4 ADD DUP5 PUSH2 0x43C4 JUMP JUMPDEST SWAP5 SWAP4 POP POP POP POP JUMP JUMPDEST PUSH0 DUP1 PUSH0 PUSH1 0x60 DUP5 DUP7 SUB SLT ISZERO PUSH2 0x45E9 JUMPI PUSH2 0x45E8 PUSH2 0x4300 JUMP JUMPDEST JUMPDEST PUSH0 PUSH2 0x45F6 DUP7 DUP3 DUP8 ADD PUSH2 0x4402 JUMP JUMPDEST SWAP4 POP POP PUSH1 0x20 PUSH2 0x4607 DUP7 DUP3 DUP8 ADD PUSH2 0x445C JUMP JUMPDEST SWAP3 POP POP PUSH1 0x40 PUSH2 0x4618 DUP7 DUP3 DUP8 ADD PUSH2 0x4402 JUMP JUMPDEST SWAP2 POP POP SWAP3 POP SWAP3 POP SWAP3 JUMP JUMPDEST PUSH0 PUSH2 0x462C DUP3 PUSH2 0x4435 JUMP JUMPDEST SWAP1 POP SWAP2 SWAP1 POP JUMP JUMPDEST PUSH2 0x463C DUP2 PUSH2 0x4622 JUMP JUMPDEST DUP2 EQ PUSH2 0x4646 JUMPI PUSH0 DUP1 REVERT JUMPDEST POP JUMP JUMPDEST PUSH0 DUP2 CALLDATALOAD SWAP1 POP PUSH2 0x4657 DUP2 PUSH2 0x4633 JUMP JUMPDEST SWAP3 SWAP2 POP POP JUMP JUMPDEST PUSH0 DUP1 PUSH0 DUP1 PUSH1 0x80 DUP6 DUP8 SUB SLT ISZERO PUSH2 0x4675 JUMPI PUSH2 0x4674 PUSH2 0x4300 JUMP JUMPDEST JUMPDEST PUSH0 PUSH2 0x4682 DUP8 DUP3 DUP9 ADD PUSH2 0x4649 JUMP JUMPDEST SWAP5 POP POP PUSH1 0x20 PUSH2 0x4693 DUP8 DUP3 DUP9 ADD PUSH2 0x4402 JUMP JUMPDEST SWAP4 POP POP PUSH1 0x40 PUSH2 0x46A4 DUP8 DUP3 DUP9 ADD PUSH2 0x4402 JUMP JUMPDEST SWAP3 POP POP PUSH1 0x60 PUSH2 0x46B5 DUP8 DUP3 DUP9 ADD PUSH2 0x4402 JUMP JUMPDEST SWAP2 POP POP SWAP3 SWAP6 SWAP2 SWAP5 POP SWAP3 POP JUMP JUMPDEST PUSH0 DUP1 REVERT JUMPDEST PUSH0 DUP1 REVERT JUMPDEST PUSH0 PUSH1 0x1F NOT PUSH1 0x1F DUP4 ADD AND SWAP1 POP SWAP2 SWAP1 POP JUMP JUMPDEST PUSH32 0x4E487B7100000000000000000000000000000000000000000000000000000000 PUSH0 MSTORE PUSH1 0x41 PUSH1 0x4 MSTORE PUSH1 0x24 PUSH0 REVERT JUMPDEST PUSH2 0x470F DUP3 PUSH2 0x46C9 JUMP JUMPDEST DUP2 ADD DUP2 DUP2 LT PUSH8 0xFFFFFFFFFFFFFFFF DUP3 GT OR ISZERO PUSH2 0x472E JUMPI PUSH2 0x472D PUSH2 0x46D9 JUMP JUMPDEST JUMPDEST DUP1 PUSH1 0x40 MSTORE POP POP POP JUMP JUMPDEST PUSH0 PUSH2 0x4740 PUSH2 0x42F7 JUMP JUMPDEST SWAP1 POP PUSH2 0x474C DUP3 DUP3 PUSH2 0x4706 JUMP JUMPDEST SWAP2 SWAP1 POP JUMP JUMPDEST PUSH0 PUSH8 0xFFFFFFFFFFFFFFFF DUP3 GT ISZERO PUSH2 0x476B JUMPI PUSH2 0x476A PUSH2 0x46D9 JUMP JUMPDEST JUMPDEST PUSH2 0x4774 DUP3 PUSH2 0x46C9 JUMP JUMPDEST SWAP1 POP PUSH1 0x20 DUP2 ADD SWAP1 POP SWAP2 SWAP1 POP JUMP JUMPDEST DUP3 DUP2 DUP4 CALLDATACOPY PUSH0 DUP4 DUP4 ADD MSTORE POP POP POP JUMP JUMPDEST PUSH0 PUSH2 0x47A1 PUSH2 0x479C DUP5 PUSH2 0x4751 JUMP JUMPDEST PUSH2 0x4737 JUMP JUMPDEST SWAP1 POP DUP3 DUP2 MSTORE PUSH1 0x20 DUP2 ADD DUP5 DUP5 DUP5 ADD GT ISZERO PUSH2 0x47BD JUMPI PUSH2 0x47BC PUSH2 0x46C5 JUMP JUMPDEST JUMPDEST PUSH2 0x47C8 DUP5 DUP3 DUP6 PUSH2 0x4781 JUMP JUMPDEST POP SWAP4 SWAP3 POP POP POP JUMP JUMPDEST PUSH0 DUP3 PUSH1 0x1F DUP4 ADD SLT PUSH2 0x47E4 JUMPI PUSH2 0x47E3 PUSH2 0x46C1 JUMP JUMPDEST JUMPDEST DUP2 CALLDATALOAD PUSH2 0x47F4 DUP5 DUP3 PUSH1 0x20 DUP7 ADD PUSH2 0x478F JUMP JUMPDEST SWAP2 POP POP SWAP3 SWAP2 POP POP JUMP JUMPDEST PUSH0 DUP1 PUSH1 0x40 DUP4 DUP6 SUB SLT ISZERO PUSH2 0x4813 JUMPI PUSH2 0x4812 PUSH2 0x4300 JUMP JUMPDEST JUMPDEST PUSH0 PUSH2 0x4820 DUP6 DUP3 DUP7 ADD PUSH2 0x445C JUMP JUMPDEST SWAP3 POP POP PUSH1 0x20 DUP4 ADD CALLDATALOAD PUSH8 0xFFFFFFFFFFFFFFFF DUP2 GT ISZERO PUSH2 0x4841 JUMPI PUSH2 0x4840 PUSH2 0x4304 JUMP JUMPDEST JUMPDEST PUSH2 0x484D DUP6 DUP3 DUP7 ADD PUSH2 0x47D0 JUMP JUMPDEST SWAP2 POP POP SWAP3 POP SWAP3 SWAP1 POP JUMP JUMPDEST PUSH0 DUP1 PUSH1 0x40 DUP4 DUP6 SUB SLT ISZERO PUSH2 0x486D JUMPI PUSH2 0x486C PUSH2 0x4300 JUMP JUMPDEST JUMPDEST PUSH0 PUSH2 0x487A DUP6 DUP3 DUP7 ADD PUSH2 0x4402 JUMP JUMPDEST SWAP3 POP POP PUSH1 0x20 PUSH2 0x488B DUP6 DUP3 DUP7 ADD PUSH2 0x4402 JUMP JUMPDEST SWAP2 POP POP SWAP3 POP SWAP3 SWAP1 POP JUMP JUMPDEST PUSH0 DUP2 SWAP1 POP SWAP2 SWAP1 POP JUMP JUMPDEST PUSH0 PUSH2 0x48B8 PUSH2 0x48B3 PUSH2 0x48AE DUP5 PUSH2 0x4416 JUMP JUMPDEST PUSH2 0x4895 JUMP JUMPDEST PUSH2 0x4416 JUMP JUMPDEST SWAP1 POP SWAP2 SWAP1 POP JUMP JUMPDEST PUSH0 PUSH2 0x48C9 DUP3 PUSH2 0x489E JUMP JUMPDEST SWAP1 POP SWAP2 SWAP1 POP JUMP JUMPDEST PUSH0 PUSH2 0x48DA DUP3 PUSH2 0x48BF JUMP JUMPDEST SWAP1 POP SWAP2 SWAP1 POP JUMP JUMPDEST PUSH2 0x48EA DUP2 PUSH2 0x48D0 JUMP JUMPDEST DUP3 MSTORE POP POP JUMP JUMPDEST PUSH0 PUSH1 0x20 DUP3 ADD SWAP1 POP PUSH2 0x4903 PUSH0 DUP4 ADD DUP5 PUSH2 0x48E1 JUMP JUMPDEST SWAP3 SWAP2 POP POP JUMP JUMPDEST PUSH0 DUP2 MLOAD SWAP1 POP SWAP2 SWAP1 POP JUMP JUMPDEST PUSH0 DUP3 DUP3 MSTORE PUSH1 0x20 DUP3 ADD SWAP1 POP SWAP3 SWAP2 POP POP JUMP JUMPDEST DUP3 DUP2 DUP4 MCOPY PUSH0 DUP4 DUP4 ADD MSTORE POP POP POP JUMP JUMPDEST PUSH0 PUSH2 0x493B DUP3 PUSH2 0x4909 JUMP JUMPDEST PUSH2 0x4945 DUP2 DUP6 PUSH2 0x4913 JUMP JUMPDEST SWAP4 POP PUSH2 0x4955 DUP2 DUP6 PUSH1 0x20 DUP7 ADD PUSH2 0x4923 JUMP JUMPDEST PUSH2 0x495E DUP2 PUSH2 0x46C9 JUMP JUMPDEST DUP5 ADD SWAP2 POP POP SWAP3 SWAP2 POP POP JUMP JUMPDEST PUSH0 PUSH1 0x20 DUP3 ADD SWAP1 POP DUP2 DUP2 SUB PUSH0 DUP4 ADD MSTORE PUSH2 0x4981 DUP2 DUP5 PUSH2 0x4931 JUMP JUMPDEST SWAP1 POP SWAP3 SWAP2 POP POP JUMP JUMPDEST PUSH2 0x4992 DUP2 PUSH2 0x4388 JUMP JUMPDEST DUP2 EQ PUSH2 0x499C JUMPI PUSH0 DUP1 REVERT JUMPDEST POP JUMP JUMPDEST PUSH0 DUP2 CALLDATALOAD SWAP1 POP PUSH2 0x49AD DUP2 PUSH2 0x4989 JUMP JUMPDEST SWAP3 SWAP2 POP POP JUMP JUMPDEST PUSH0 DUP1 PUSH0 DUP1 PUSH0 PUSH1 0xA0 DUP7 DUP9 SUB SLT ISZERO PUSH2 0x49CC JUMPI PUSH2 0x49CB PUSH2 0x4300 JUMP JUMPDEST JUMPDEST PUSH0 PUSH2 0x49D9 DUP9 DUP3 DUP10 ADD PUSH2 0x445C JUMP JUMPDEST SWAP6 POP POP PUSH1 0x20 PUSH2 0x49EA DUP9 DUP3 DUP10 ADD PUSH2 0x4402 JUMP JUMPDEST SWAP5 POP POP PUSH1 0x40 PUSH2 0x49FB DUP9 DUP3 DUP10 ADD PUSH2 0x4402 JUMP JUMPDEST SWAP4 POP POP PUSH1 0x60 PUSH2 0x4A0C DUP9 DUP3 DUP10 ADD PUSH2 0x4402 JUMP JUMPDEST SWAP3 POP POP PUSH1 0x80 PUSH2 0x4A1D DUP9 DUP3 DUP10 ADD PUSH2 0x499F JUMP JUMPDEST SWAP2 POP POP SWAP3 SWAP6 POP SWAP3 SWAP6 SWAP1 SWAP4 POP JUMP JUMPDEST PUSH0 DUP1 PUSH0 PUSH1 0x60 DUP5 DUP7 SUB SLT ISZERO PUSH2 0x4A41 JUMPI PUSH2 0x4A40 PUSH2 0x4300 JUMP JUMPDEST JUMPDEST PUSH0 PUSH2 0x4A4E DUP7 DUP3 DUP8 ADD PUSH2 0x4402 JUMP JUMPDEST SWAP4 POP POP PUSH1 0x20 PUSH2 0x4A5F DUP7 DUP3 DUP8 ADD PUSH2 0x4402 JUMP JUMPDEST SWAP3 POP POP PUSH1 0x40 PUSH2 0x4A70 DUP7 DUP3 DUP8 ADD PUSH2 0x4402 JUMP JUMPDEST SWAP2 POP POP SWAP3 POP SWAP3 POP SWAP3 JUMP JUMPDEST PUSH0 PUSH1 0x20 DUP3 DUP5 SUB SLT ISZERO PUSH2 0x4A8F JUMPI PUSH2 0x4A8E PUSH2 0x4300 JUMP JUMPDEST JUMPDEST PUSH0 PUSH2 0x4A9C DUP5 DUP3 DUP6 ADD PUSH2 0x4649 JUMP JUMPDEST SWAP2 POP POP SWAP3 SWAP2 POP POP JUMP JUMPDEST PUSH0 DUP1 PUSH0 PUSH1 0x60 DUP5 DUP7 SUB SLT ISZERO PUSH2 0x4ABC JUMPI PUSH2 0x4ABB PUSH2 0x4300 JUMP JUMPDEST JUMPDEST PUSH0 PUSH2 0x4AC9 DUP7 DUP3 DUP8 ADD PUSH2 0x4402 JUMP JUMPDEST SWAP4 POP POP PUSH1 0x20 PUSH2 0x4ADA DUP7 DUP3 DUP8 ADD PUSH2 0x4402 JUMP JUMPDEST SWAP3 POP POP PUSH1 0x40 PUSH2 0x4AEB DUP7 DUP3 DUP8 ADD PUSH2 0x499F JUMP JUMPDEST SWAP2 POP POP SWAP3 POP SWAP3 POP SWAP3 JUMP JUMPDEST PUSH2 0x4AFE DUP2 PUSH2 0x4435 JUMP JUMPDEST DUP3 MSTORE POP POP JUMP JUMPDEST PUSH0 PUSH1 0xE0 DUP3 ADD SWAP1 POP PUSH2 0x4B17 PUSH0 DUP4 ADD DUP11 PUSH2 0x4AF5 JUMP JUMPDEST PUSH2 0x4B24 PUSH1 0x20 DUP4 ADD DUP10 PUSH2 0x43C4 JUMP JUMPDEST PUSH2 0x4B31 PUSH1 0x40 DUP4 ADD DUP9 PUSH2 0x43C4 JUMP JUMPDEST PUSH2 0x4B3E PUSH1 0x60 DUP4 ADD DUP8 PUSH2 0x43C4 JUMP JUMPDEST PUSH2 0x4B4B PUSH1 0x80 DUP4 ADD DUP7 PUSH2 0x43C4 JUMP JUMPDEST PUSH2 0x4B58 PUSH1 0xA0 DUP4 ADD DUP6 PUSH2 0x43C4 JUMP JUMPDEST PUSH2 0x4B65 PUSH1 0xC0 DUP4 ADD DUP5 PUSH2 0x43C4 JUMP JUMPDEST SWAP9 SWAP8 POP POP POP POP POP POP POP POP JUMP JUMPDEST PUSH0 PUSH1 0x40 DUP3 ADD SWAP1 POP PUSH2 0x4B84 PUSH0 DUP4 ADD DUP6 PUSH2 0x43C4 JUMP JUMPDEST PUSH2 0x4B91 PUSH1 0x20 DUP4 ADD DUP5 PUSH2 0x43C4 JUMP JUMPDEST SWAP4 SWAP3 POP POP POP JUMP JUMPDEST PUSH32 0x696E76616C696420706964000000000000000000000000000000000000000000 PUSH0 DUP3 ADD MSTORE POP JUMP JUMPDEST PUSH0 PUSH2 0x4BCC PUSH1 0xB DUP4 PUSH2 0x4913 JUMP JUMPDEST SWAP2 POP PUSH2 0x4BD7 DUP3 PUSH2 0x4B98 JUMP JUMPDEST PUSH1 0x20 DUP3 ADD SWAP1 POP SWAP2 SWAP1 POP JUMP JUMPDEST PUSH0 PUSH1 0x20 DUP3 ADD SWAP1 POP DUP2 DUP2 SUB PUSH0 DUP4 ADD MSTORE PUSH2 0x4BF9 DUP2 PUSH2 0x4BC0 JUMP JUMPDEST SWAP1 POP SWAP2 SWAP1 POP JUMP JUMPDEST PUSH32 0x7769746864726177206973207061757365640000000000000000000000000000 PUSH0 DUP3 ADD MSTORE POP JUMP JUMPDEST PUSH0 PUSH2 0x4C34 PUSH1 0x12 DUP4 PUSH2 0x4913 JUMP JUMPDEST SWAP2 POP PUSH2 0x4C3F DUP3 PUSH2 0x4C00 JUMP JUMPDEST PUSH1 0x20 DUP3 ADD SWAP1 POP SWAP2 SWAP1 POP JUMP JUMPDEST PUSH0 PUSH1 0x20 DUP3 ADD SWAP1 POP DUP2 DUP2 SUB PUSH0 DUP4 ADD MSTORE PUSH2 0x4C61 DUP2 PUSH2 0x4C28 JUMP JUMPDEST SWAP1 POP SWAP2 SWAP1 POP JUMP JUMPDEST PUSH32 0x4E487B7100000000000000000000000000000000000000000000000000000000 PUSH0 MSTORE PUSH1 0x32 PUSH1 0x4 MSTORE PUSH1 0x24 PUSH0 REVERT JUMPDEST PUSH32 0x4E487B7100000000000000000000000000000000000000000000000000000000 PUSH0 MSTORE PUSH1 0x11 PUSH1 0x4 MSTORE PUSH1 0x24 PUSH0 REVERT JUMPDEST PUSH0 PUSH2 0x4CCC DUP3 PUSH2 0x43BB JUMP JUMPDEST SWAP2 POP PUSH2 0x4CD7 DUP4 PUSH2 0x43BB JUMP JUMPDEST SWAP3 POP DUP3 DUP3 ADD SWAP1 POP DUP1 DUP3 GT ISZERO PUSH2 0x4CEF JUMPI PUSH2 0x4CEE PUSH2 0x4C95 JUMP JUMPDEST JUMPDEST SWAP3 SWAP2 POP POP JUMP JUMPDEST PUSH0 PUSH2 0x4CFF DUP3 PUSH2 0x43BB JUMP JUMPDEST SWAP2 POP PUSH32 0xFFFFFFFFFFFFFFFFFFFFFFFFFFFFFFFFFFFFFFFFFFFFFFFFFFFFFFFFFFFFFFFF DUP3 SUB PUSH2 0x4D31 JUMPI PUSH2 0x4D30 PUSH2 0x4C95 JUMP JUMPDEST JUMPDEST PUSH1 0x1 DUP3 ADD SWAP1 POP SWAP2 SWAP1 POP JUMP JUMPDEST PUSH0 PUSH2 0x4D46 DUP3 PUSH2 0x43BB JUMP JUMPDEST SWAP2 POP PUSH2 0x4D51 DUP4 PUSH2 0x43BB JUMP JUMPDEST SWAP3 POP DUP3 DUP3 SUB SWAP1 POP DUP2 DUP2 GT ISZERO PUSH2 0x4D69 JUMPI PUSH2 0x4D68 PUSH2 0x4C95 JUMP JUMPDEST JUMPDEST SWAP3 SWAP2 POP POP JUMP JUMPDEST PUSH32 0x4E487B7100000000000000000000000000000000000000000000000000000000 PUSH0 MSTORE PUSH1 0x31 PUSH1 0x4 MSTORE PUSH1 0x24 PUSH0 REVERT JUMPDEST PUSH32 0x636C61696D206973207061757365640000000000000000000000000000000000 PUSH0 DUP3 ADD MSTORE POP JUMP JUMPDEST PUSH0 PUSH2 0x4DD0 PUSH1 0xF DUP4 PUSH2 0x4913 JUMP JUMPDEST SWAP2 POP PUSH2 0x4DDB DUP3 PUSH2 0x4D9C JUMP JUMPDEST PUSH1 0x20 DUP3 ADD SWAP1 POP SWAP2 SWAP1 POP JUMP JUMPDEST PUSH0 PUSH1 0x20 DUP3 ADD SWAP1 POP DUP2 DUP2 SUB PUSH0 DUP4 ADD MSTORE PUSH2 0x4DFD DUP2 PUSH2 0x4DC4 JUMP JUMPDEST SWAP1 POP SWAP2 SWAP1 POP JUMP JUMPDEST PUSH0 PUSH2 0x4E0E DUP3 PUSH2 0x43BB JUMP JUMPDEST SWAP2 POP PUSH2 0x4E19 DUP4 PUSH2 0x43BB JUMP JUMPDEST SWAP3 POP DUP3 DUP3 MUL PUSH2 0x4E27 DUP2 PUSH2 0x43BB JUMP JUMPDEST SWAP2 POP DUP3 DUP3 DIV DUP5 EQ DUP4 ISZERO OR PUSH2 0x4E3E JUMPI PUSH2 0x4E3D PUSH2 0x4C95 JUMP JUMPDEST JUMPDEST POP SWAP3 SWAP2 POP POP JUMP JUMPDEST PUSH32 0x4E487B7100000000000000000000000000000000000000000000000000000000 PUSH0 MSTORE PUSH1 0x12 PUSH1 0x4 MSTORE PUSH1 0x24 PUSH0 REVERT JUMPDEST PUSH0 PUSH2 0x4E7C DUP3 PUSH2 0x43BB JUMP JUMPDEST SWAP2 POP PUSH2 0x4E87 DUP4 PUSH2 0x43BB JUMP JUMPDEST SWAP3 POP DUP3 PUSH2 0x4E97 JUMPI PUSH2 0x4E96 PUSH2 0x4E45 JUMP JUMPDEST JUMPDEST DUP3 DUP3 DIV SWAP1 POP SWAP3 SWAP2 POP POP JUMP JUMPDEST PUSH32 0x696E76616C696420706172616D65746572730000000000000000000000000000 PUSH0 DUP3 ADD MSTORE POP JUMP JUMPDEST PUSH0 PUSH2 0x4ED6 PUSH1 0x12 DUP4 PUSH2 0x4913 JUMP JUMPDEST SWAP2 POP PUSH2 0x4EE1 DUP3 PUSH2 0x4EA2 JUMP JUMPDEST PUSH1 0x20 DUP3 ADD SWAP1 POP SWAP2 SWAP1 POP JUMP JUMPDEST PUSH0 PUSH1 0x20 DUP3 ADD SWAP1 POP DUP2 DUP2 SUB PUSH0 DUP4 ADD MSTORE PUSH2 0x4F03 DUP2 PUSH2 0x4ECA JUMP JUMPDEST SWAP1 POP SWAP2 SWAP1 POP JUMP JUMPDEST PUSH0 DUP2 SWAP1 POP SWAP2 SWAP1 POP JUMP JUMPDEST PUSH0 PUSH8 0xFFFFFFFFFFFFFFFF DUP3 AND SWAP1 POP SWAP2 SWAP1 POP JUMP JUMPDEST PUSH0 PUSH2 0x4F40 PUSH2 0x4F3B PUSH2 0x4F36 DUP5 PUSH2 0x4F0A JUMP JUMPDEST PUSH2 0x4895 JUMP JUMPDEST PUSH2 0x4F13 JUMP JUMPDEST SWAP1 POP SWAP2 SWAP1 POP JUMP JUMPDEST PUSH2 0x4F50 DUP2 PUSH2 0x4F26 JUMP JUMPDEST DUP3 MSTORE POP POP JUMP JUMPDEST PUSH0 PUSH1 0x20 DUP3 ADD SWAP1 POP PUSH2 0x4F69 PUSH0 DUP4 ADD DUP5 PUSH2 0x4F47 JUMP JUMPDEST SWAP3 SWAP2 POP POP JUMP JUMPDEST PUSH32 0x746F74616C524343206D756C20706F6F6C576569676874206F766572666C6F77 PUSH0 DUP3 ADD MSTORE POP JUMP JUMPDEST PUSH0 PUSH2 0x4FA3 PUSH1 0x20 DUP4 PUSH2 0x4913 JUMP JUMPDEST SWAP2 POP PUSH2 0x4FAE DUP3 PUSH2 0x4F6F JUMP JUMPDEST PUSH1 0x20 DUP3 ADD SWAP1 POP SWAP2 SWAP1 POP JUMP JUMPDEST PUSH0 PUSH1 0x20 DUP3 ADD SWAP1 POP DUP2 DUP2 SUB PUSH0 DUP4 ADD MSTORE PUSH2 0x4FD0 DUP2 PUSH2 0x4F97 JUMP JUMPDEST SWAP1 POP SWAP2 SWAP1 POP JUMP JUMPDEST PUSH32 0x746F74616C5243432064697620746F74616C506F6F6C576569676874206F7665 PUSH0 DUP3 ADD MSTORE PUSH32 0x72666C6F77000000000000000000000000000000000000000000000000000000 PUSH1 0x20 DUP3 ADD MSTORE POP JUMP JUMPDEST PUSH0 PUSH2 0x5031 PUSH1 0x25 DUP4 PUSH2 0x4913 JUMP JUMPDEST SWAP2 POP PUSH2 0x503C DUP3 PUSH2 0x4FD7 JUMP JUMPDEST PUSH1 0x40 DUP3 ADD SWAP1 POP SWAP2 SWAP1 POP JUMP JUMPDEST PUSH0 PUSH1 0x20 DUP3 ADD SWAP1 POP DUP2 DUP2 SUB PUSH0 DUP4 ADD MSTORE PUSH2 0x505E DUP2 PUSH2 0x5025 JUMP JUMPDEST SWAP1 POP SWAP2 SWAP1 POP JUMP JUMPDEST PUSH32 0x746F74616C524343206D756C2031206574686572206F766572666C6F77000000 PUSH0 DUP3 ADD MSTORE POP JUMP JUMPDEST PUSH0 PUSH2 0x5099 PUSH1 0x1D DUP4 PUSH2 0x4913 JUMP JUMPDEST SWAP2 POP PUSH2 0x50A4 DUP3 PUSH2 0x5065 JUMP JUMPDEST PUSH1 0x20 DUP3 ADD SWAP1 POP SWAP2 SWAP1 POP JUMP JUMPDEST PUSH0 PUSH1 0x20 DUP3 ADD SWAP1 POP DUP2 DUP2 SUB PUSH0 DUP4 ADD MSTORE PUSH2 0x50C6 DUP2 PUSH2 0x508D JUMP JUMPDEST SWAP1 POP SWAP2 SWAP1 POP JUMP JUMPDEST PUSH32 0x746F74616C52434320646976207374537570706C79206F766572666C6F770000 PUSH0 DUP3 ADD MSTORE POP JUMP JUMPDEST PUSH0 PUSH2 0x5101 PUSH1 0x1E DUP4 PUSH2 0x4913 JUMP JUMPDEST SWAP2 POP PUSH2 0x510C DUP3 PUSH2 0x50CD JUMP JUMPDEST PUSH1 0x20 DUP3 ADD SWAP1 POP SWAP2 SWAP1 POP JUMP JUMPDEST PUSH0 PUSH1 0x20 DUP3 ADD SWAP1 POP DUP2 DUP2 SUB PUSH0 DUP4 ADD MSTORE PUSH2 0x512E DUP2 PUSH2 0x50F5 JUMP JUMPDEST SWAP1 POP SWAP2 SWAP1 POP JUMP JUMPDEST PUSH32 0x706F6F6C206163635243435065725354206F766572666C6F7700000000000000 PUSH0 DUP3 ADD MSTORE POP JUMP JUMPDEST PUSH0 PUSH2 0x5169 PUSH1 0x19 DUP4 PUSH2 0x4913 JUMP JUMPDEST SWAP2 POP PUSH2 0x5174 DUP3 PUSH2 0x5135 JUMP JUMPDEST PUSH1 0x20 DUP3 ADD SWAP1 POP SWAP2 SWAP1 POP JUMP JUMPDEST PUSH0 PUSH1 0x20 DUP3 ADD SWAP1 POP DUP2 DUP2 SUB PUSH0 DUP4 ADD MSTORE PUSH2 0x5196 DUP2 PUSH2 0x515D JUMP JUMPDEST SWAP1 POP SWAP2 SWAP1 POP JUMP JUMPDEST PUSH32 0x776974686472617720686173206265656E20616C726561647920756E70617573 PUSH0 DUP3 ADD MSTORE PUSH32 0x6564000000000000000000000000000000000000000000000000000000000000 PUSH1 0x20 DUP3 ADD MSTORE POP JUMP JUMPDEST PUSH0 PUSH2 0x51F7 PUSH1 0x22 DUP4 PUSH2 0x4913 JUMP JUMPDEST SWAP2 POP PUSH2 0x5202 DUP3 PUSH2 0x519D JUMP JUMPDEST PUSH1 0x40 DUP3 ADD SWAP1 POP SWAP2 SWAP1 POP JUMP JUMPDEST PUSH0 PUSH1 0x20 DUP3 ADD SWAP1 POP DUP2 DUP2 SUB PUSH0 DUP4 ADD MSTORE PUSH2 0x5224 DUP2 PUSH2 0x51EB JUMP JUMPDEST SWAP1 POP SWAP2 SWAP1 POP JUMP JUMPDEST PUSH32 0x776974686472617720686173206265656E20616C726561647920706175736564 PUSH0 DUP3 ADD MSTORE POP JUMP JUMPDEST PUSH0 PUSH2 0x525F PUSH1 0x20 DUP4 PUSH2 0x4913 JUMP JUMPDEST SWAP2 POP PUSH2 0x526A DUP3 PUSH2 0x522B JUMP JUMPDEST PUSH1 0x20 DUP3 ADD SWAP1 POP SWAP2 SWAP1 POP JUMP JUMPDEST PUSH0 PUSH1 0x20 DUP3 ADD SWAP1 POP DUP2 DUP2 SUB PUSH0 DUP4 ADD MSTORE PUSH2 0x528C DUP2 PUSH2 0x5253 JUMP JUMPDEST SWAP1 POP SWAP2 SWAP1 POP JUMP JUMPDEST PUSH32 0x696E76616C696420626C6F636B2072616E676500000000000000000000000000 PUSH0 DUP3 ADD MSTORE POP JUMP JUMPDEST PUSH0 PUSH2 0x52C7 PUSH1 0x13 DUP4 PUSH2 0x4913 JUMP JUMPDEST SWAP2 POP PUSH2 0x52D2 DUP3 PUSH2 0x5293 JUMP JUMPDEST PUSH1 0x20 DUP3 ADD SWAP1 POP SWAP2 SWAP1 POP JUMP JUMPDEST PUSH0 PUSH1 0x20 DUP3 ADD SWAP1 POP DUP2 DUP2 SUB PUSH0 DUP4 ADD MSTORE PUSH2 0x52F4 DUP2 PUSH2 0x52BB JUMP JUMPDEST SWAP1 POP SWAP2 SWAP1 POP JUMP JUMPDEST PUSH32 0x656E6420626C6F636B206D7573742062652067726561746572207468616E2073 PUSH0 DUP3 ADD MSTORE PUSH32 0x7461727420626C6F636B00000000000000000000000000000000000000000000 PUSH1 0x20 DUP3 ADD MSTORE POP JUMP JUMPDEST PUSH0 PUSH2 0x5355 PUSH1 0x2A DUP4 PUSH2 0x4913 JUMP JUMPDEST SWAP2 POP PUSH2 0x5360 DUP3 PUSH2 0x52FB JUMP JUMPDEST PUSH1 0x40 DUP3 ADD SWAP1 POP SWAP2 SWAP1 POP JUMP JUMPDEST PUSH0 PUSH1 0x20 DUP3 ADD SWAP1 POP DUP2 DUP2 SUB PUSH0 DUP4 ADD MSTORE PUSH2 0x5382 DUP2 PUSH2 0x5349 JUMP JUMPDEST SWAP1 POP SWAP2 SWAP1 POP JUMP JUMPDEST PUSH32 0x6D756C7469706C696572206F766572666C6F7700000000000000000000000000 PUSH0 DUP3 ADD MSTORE POP JUMP JUMPDEST PUSH0 PUSH2 0x53BD PUSH1 0x13 DUP4 PUSH2 0x4913 JUMP JUMPDEST SWAP2 POP PUSH2 0x53C8 DUP3 PUSH2 0x5389 JUMP JUMPDEST PUSH1 0x20 DUP3 ADD SWAP1 POP SWAP2 SWAP1 POP JUMP JUMPDEST PUSH0 PUSH1 0x20 DUP3 ADD SWAP1 POP DUP2 DUP2 SUB PUSH0 DUP4 ADD MSTORE PUSH2 0x53EA DUP2 PUSH2 0x53B1 JUMP JUMPDEST SWAP1 POP SWAP2 SWAP1 POP JUMP JUMPDEST PUSH32 0x636C61696D20686173206265656E20616C726561647920706175736564000000 PUSH0 DUP3 ADD MSTORE POP JUMP JUMPDEST PUSH0 PUSH2 0x5425 PUSH1 0x1D DUP4 PUSH2 0x4913 JUMP JUMPDEST SWAP2 POP PUSH2 0x5430 DUP3 PUSH2 0x53F1 JUMP JUMPDEST PUSH1 0x20 DUP3 ADD SWAP1 POP SWAP2 SWAP1 POP JUMP JUMPDEST PUSH0 PUSH1 0x20 DUP3 ADD SWAP1 POP DUP2 DUP2 SUB PUSH0 DUP4 ADD MSTORE PUSH2 0x5452 DUP2 PUSH2 0x5419 JUMP JUMPDEST SWAP1 POP SWAP2 SWAP1 POP JUMP JUMPDEST PUSH32 0x4E6F7420656E6F756768207374616B696E6720746F6B656E2062616C616E6365 PUSH0 DUP3 ADD MSTORE POP JUMP JUMPDEST PUSH0 PUSH2 0x548D PUSH1 0x20 DUP4 PUSH2 0x4913 JUMP JUMPDEST SWAP2 POP PUSH2 0x5498 DUP3 PUSH2 0x5459 JUMP JUMPDEST PUSH1 0x20 DUP3 ADD SWAP1 POP SWAP2 SWAP1 POP JUMP JUMPDEST PUSH0 PUSH1 0x20 DUP3 ADD SWAP1 POP DUP2 DUP2 SUB PUSH0 DUP4 ADD MSTORE PUSH2 0x54BA DUP2 PUSH2 0x5481 JUMP JUMPDEST SWAP1 POP SWAP2 SWAP1 POP JUMP JUMPDEST PUSH32 0x696E76616C6964207374616B696E6720746F6B656E2061646472657373000000 PUSH0 DUP3 ADD MSTORE POP JUMP JUMPDEST PUSH0 PUSH2 0x54F5 PUSH1 0x1D DUP4 PUSH2 0x4913 JUMP JUMPDEST SWAP2 POP PUSH2 0x5500 DUP3 PUSH2 0x54C1 JUMP JUMPDEST PUSH1 0x20 DUP3 ADD SWAP1 POP SWAP2 SWAP1 POP JUMP JUMPDEST PUSH0 PUSH1 0x20 DUP3 ADD SWAP1 POP DUP2 DUP2 SUB PUSH0 DUP4 ADD MSTORE PUSH2 0x5522 DUP2 PUSH2 0x54E9 JUMP JUMPDEST SWAP1 POP SWAP2 SWAP1 POP JUMP JUMPDEST PUSH32 0x6465706F73697420616D6F756E7420697320746F6F20736D616C6C0000000000 PUSH0 DUP3 ADD MSTORE POP JUMP JUMPDEST PUSH0 PUSH2 0x555D PUSH1 0x1B DUP4 PUSH2 0x4913 JUMP JUMPDEST SWAP2 POP PUSH2 0x5568 DUP3 PUSH2 0x5529 JUMP JUMPDEST PUSH1 0x20 DUP3 ADD SWAP1 POP SWAP2 SWAP1 POP JUMP JUMPDEST PUSH0 PUSH1 0x20 DUP3 ADD SWAP1 POP DUP2 DUP2 SUB PUSH0 DUP4 ADD MSTORE PUSH2 0x558A DUP2 PUSH2 0x5551 JUMP JUMPDEST SWAP1 POP SWAP2 SWAP1 POP JUMP JUMPDEST PUSH32 0x696E76616C6964207769746864726177206C6F636B656420626C6F636B730000 PUSH0 DUP3 ADD MSTORE POP JUMP JUMPDEST PUSH0 PUSH2 0x55C5 PUSH1 0x1E DUP4 PUSH2 0x4913 JUMP JUMPDEST SWAP2 POP PUSH2 0x55D0 DUP3 PUSH2 0x5591 JUMP JUMPDEST PUSH1 0x20 DUP3 ADD SWAP1 POP SWAP2 SWAP1 POP JUMP JUMPDEST PUSH0 PUSH1 0x20 DUP3 ADD SWAP1 POP DUP2 DUP2 SUB PUSH0 DUP4 ADD MSTORE PUSH2 0x55F2 DUP2 PUSH2 0x55B9 JUMP JUMPDEST SWAP1 POP SWAP2 SWAP1 POP JUMP JUMPDEST PUSH32 0x416C726561647920656E64656400000000000000000000000000000000000000 PUSH0 DUP3 ADD MSTORE POP JUMP JUMPDEST PUSH0 PUSH2 0x562D PUSH1 0xD DUP4 PUSH2 0x4913 JUMP JUMPDEST SWAP2 POP PUSH2 0x5638 DUP3 PUSH2 0x55F9 JUMP JUMPDEST PUSH1 0x20 DUP3 ADD SWAP1 POP SWAP2 SWAP1 POP JUMP JUMPDEST PUSH0 PUSH1 0x20 DUP3 ADD SWAP1 POP DUP2 DUP2 SUB PUSH0 DUP4 ADD MSTORE PUSH2 0x565A DUP2 PUSH2 0x5621 JUMP JUMPDEST SWAP1 POP SWAP2 SWAP1 POP JUMP JUMPDEST PUSH32 0x696E76616C696420706172616D65746572000000000000000000000000000000 PUSH0 DUP3 ADD MSTORE POP JUMP JUMPDEST PUSH0 PUSH2 0x5695 PUSH1 0x11 DUP4 PUSH2 0x4913 JUMP JUMPDEST SWAP2 POP PUSH2 0x56A0 DUP3 PUSH2 0x5661 JUMP JUMPDEST PUSH1 0x20 DUP3 ADD SWAP1 POP SWAP2 SWAP1 POP JUMP JUMPDEST PUSH0 PUSH1 0x20 DUP3 ADD SWAP1 POP DUP2 DUP2 SUB PUSH0 DUP4 ADD MSTORE PUSH2 0x56C2 DUP2 PUSH2 0x5689 JUMP JUMPDEST SWAP1 POP SWAP2 SWAP1 POP JUMP JUMPDEST PUSH32 0x737461727420626C6F636B206D75737420626520736D616C6C6572207468616E PUSH0 DUP3 ADD MSTORE PUSH32 0x20656E6420626C6F636B00000000000000000000000000000000000000000000 PUSH1 0x20 DUP3 ADD MSTORE POP JUMP JUMPDEST PUSH0 PUSH2 0x5723 PUSH1 0x2A DUP4 PUSH2 0x4913 JUMP JUMPDEST SWAP2 POP PUSH2 0x572E DUP3 PUSH2 0x56C9 JUMP JUMPDEST PUSH1 0x40 DUP3 ADD SWAP1 POP SWAP2 SWAP1 POP JUMP JUMPDEST PUSH0 PUSH1 0x20 DUP3 ADD SWAP1 POP DUP2 DUP2 SUB PUSH0 DUP4 ADD MSTORE PUSH2 0x5750 DUP2 PUSH2 0x5717 JUMP JUMPDEST SWAP1 POP SWAP2 SWAP1 POP JUMP JUMPDEST PUSH32 0x636C61696D20686173206265656E20616C726561647920756E70617573656400 PUSH0 DUP3 ADD MSTORE POP JUMP JUMPDEST PUSH0 PUSH2 0x578B PUSH1 0x1F DUP4 PUSH2 0x4913 JUMP JUMPDEST SWAP2 POP PUSH2 0x5796 DUP3 PUSH2 0x5757 JUMP JUMPDEST PUSH1 0x20 DUP3 ADD SWAP1 POP SWAP2 SWAP1 POP JUMP JUMPDEST PUSH0 PUSH1 0x20 DUP3 ADD SWAP1 POP DUP2 DUP2 SUB PUSH0 DUP4 ADD MSTORE PUSH2 0x57B8 DUP2 PUSH2 0x577F JUMP JUMPDEST SWAP1 POP SWAP2 SWAP1 POP JUMP JUMPDEST PUSH32 0x6465706F736974206E6F7420737570706F7274206E617469766543757272656E PUSH0 DUP3 ADD MSTORE PUSH32 0x6379207374616B696E6700000000000000000000000000000000000000000000 PUSH1 0x20 DUP3 ADD MSTORE POP JUMP JUMPDEST PUSH0 PUSH2 0x5819 PUSH1 0x2A DUP4 PUSH2 0x4913 JUMP JUMPDEST SWAP2 POP PUSH2 0x5824 DUP3 PUSH2 0x57BF JUMP JUMPDEST PUSH1 0x40 DUP3 ADD SWAP1 POP SWAP2 SWAP1 POP JUMP JUMPDEST PUSH0 PUSH1 0x20 DUP3 ADD SWAP1 POP DUP2 DUP2 SUB PUSH0 DUP4 ADD MSTORE PUSH2 0x5846 DUP2 PUSH2 0x580D JUMP JUMPDEST SWAP1 POP SWAP2 SWAP1 POP JUMP JUMPDEST PUSH32 0x696E76616C696420706F6F6C2077656967687400000000000000000000000000 PUSH0 DUP3 ADD MSTORE POP JUMP JUMPDEST PUSH0 PUSH2 0x5881 PUSH1 0x13 DUP4 PUSH2 0x4913 JUMP JUMPDEST SWAP2 POP PUSH2 0x588C DUP3 PUSH2 0x584D JUMP JUMPDEST PUSH1 0x20 DUP3 ADD SWAP1 POP SWAP2 SWAP1 POP JUMP JUMPDEST PUSH0 PUSH1 0x20 DUP3 ADD SWAP1 POP DUP2 DUP2 SUB PUSH0 DUP4 ADD MSTORE PUSH2 0x58AE DUP2 PUSH2 0x5875 JUMP JUMPDEST SWAP1 POP SWAP2 SWAP1 POP JUMP JUMPDEST PUSH0 DUP2 SWAP1 POP SWAP3 SWAP2 POP POP JUMP JUMPDEST POP JUMP JUMPDEST PUSH0 PUSH2 0x58CD PUSH0 DUP4 PUSH2 0x58B5 JUMP JUMPDEST SWAP2 POP PUSH2 0x58D8 DUP3 PUSH2 0x58BF JUMP JUMPDEST PUSH0 DUP3 ADD SWAP1 POP SWAP2 SWAP1 POP JUMP JUMPDEST PUSH0 PUSH2 0x58EC DUP3 PUSH2 0x58C2 JUMP JUMPDEST SWAP2 POP DUP2 SWAP1 POP SWAP2 SWAP1 POP JUMP JUMPDEST PUSH32 0x6E617469766543757272656E6379207472616E736665722063616C6C20666169 PUSH0 DUP3 ADD MSTORE PUSH32 0x6C65640000000000000000000000000000000000000000000000000000000000 PUSH1 0x20 DUP3 ADD MSTORE POP JUMP JUMPDEST PUSH0 PUSH2 0x5950 PUSH1 0x23 DUP4 PUSH2 0x4913 JUMP JUMPDEST SWAP2 POP PUSH2 0x595B DUP3 PUSH2 0x58F6 JUMP JUMPDEST PUSH1 0x40 DUP3 ADD SWAP1 POP SWAP2 SWAP1 POP JUMP JUMPDEST PUSH0 PUSH1 0x20 DUP3 ADD SWAP1 POP DUP2 DUP2 SUB PUSH0 DUP4 ADD MSTORE PUSH2 0x597D DUP2 PUSH2 0x5944 JUMP JUMPDEST SWAP1 POP SWAP2 SWAP1 POP JUMP JUMPDEST PUSH0 DUP2 MLOAD SWAP1 POP PUSH2 0x5992 DUP2 PUSH2 0x4989 JUMP JUMPDEST SWAP3 SWAP2 POP POP JUMP JUMPDEST PUSH0 PUSH1 0x20 DUP3 DUP5 SUB SLT ISZERO PUSH2 0x59AD JUMPI PUSH2 0x59AC PUSH2 0x4300 JUMP JUMPDEST JUMPDEST PUSH0 PUSH2 0x59BA DUP5 DUP3 DUP6 ADD PUSH2 0x5984 JUMP JUMPDEST SWAP2 POP POP SWAP3 SWAP2 POP POP JUMP JUMPDEST PUSH32 0x6661696C00000000000000000000000000000000000000000000000000000000 PUSH0 DUP3 ADD MSTORE POP JUMP JUMPDEST PUSH0 PUSH2 0x59F7 PUSH1 0x4 DUP4 PUSH2 0x4913 JUMP JUMPDEST SWAP2 POP PUSH2 0x5A02 DUP3 PUSH2 0x59C3 JUMP JUMPDEST PUSH1 0x20 DUP3 ADD SWAP1 POP SWAP2 SWAP1 POP JUMP JUMPDEST PUSH0 PUSH1 0x20 DUP3 ADD SWAP1 POP DUP2 DUP2 SUB PUSH0 DUP4 ADD MSTORE PUSH2 0x5A24 DUP2 PUSH2 0x59EB JUMP JUMPDEST SWAP1 POP SWAP2 SWAP1 POP JUMP JUMPDEST PUSH0 PUSH1 0x40 DUP3 ADD SWAP1 POP PUSH2 0x5A3E PUSH0 DUP4 ADD DUP6 PUSH2 0x4AF5 JUMP JUMPDEST PUSH2 0x5A4B PUSH1 0x20 DUP4 ADD DUP5 PUSH2 0x43C4 JUMP JUMPDEST SWAP4 SWAP3 POP POP POP JUMP JUMPDEST PUSH0 PUSH1 0x20 DUP3 ADD SWAP1 POP PUSH2 0x5A65 PUSH0 DUP4 ADD DUP5 PUSH2 0x4AF5 JUMP JUMPDEST SWAP3 SWAP2 POP POP JUMP JUMPDEST PUSH0 DUP2 MLOAD SWAP1 POP PUSH2 0x5A79 DUP2 PUSH2 0x43EC JUMP JUMPDEST SWAP3 SWAP2 POP POP JUMP JUMPDEST PUSH0 PUSH1 0x20 DUP3 DUP5 SUB SLT ISZERO PUSH2 0x5A94 JUMPI PUSH2 0x5A93 PUSH2 0x4300 JUMP JUMPDEST JUMPDEST PUSH0 PUSH2 0x5AA1 DUP5 DUP3 DUP6 ADD PUSH2 0x5A6B JUMP JUMPDEST SWAP2 POP POP SWAP3 SWAP2 POP POP JUMP JUMPDEST PUSH0 DUP2 MLOAD SWAP1 POP PUSH2 0x5AB8 DUP2 PUSH2 0x44B7 JUMP JUMPDEST SWAP3 SWAP2 POP POP JUMP JUMPDEST PUSH0 PUSH1 0x20 DUP3 DUP5 SUB SLT ISZERO PUSH2 0x5AD3 JUMPI PUSH2 0x5AD2 PUSH2 0x4300 JUMP JUMPDEST JUMPDEST PUSH0 PUSH2 0x5AE0 DUP5 DUP3 DUP6 ADD PUSH2 0x5AAA JUMP JUMPDEST SWAP2 POP POP SWAP3 SWAP2 POP POP JUMP JUMPDEST PUSH32 0x75736572207374416D6F756E74206D756C206163635243435065725354206F76 PUSH0 DUP3 ADD MSTORE PUSH32 0x6572666C6F770000000000000000000000000000000000000000000000000000 PUSH1 0x20 DUP3 ADD MSTORE POP JUMP JUMPDEST PUSH0 PUSH2 0x5B43 PUSH1 0x26 DUP4 PUSH2 0x4913 JUMP JUMPDEST SWAP2 POP PUSH2 0x5B4E DUP3 PUSH2 0x5AE9 JUMP JUMPDEST PUSH1 0x40 DUP3 ADD SWAP1 POP SWAP2 SWAP1 POP JUMP JUMPDEST PUSH0 PUSH1 0x20 DUP3 ADD SWAP1 POP DUP2 DUP2 SUB PUSH0 DUP4 ADD MSTORE PUSH2 0x5B70 DUP2 PUSH2 0x5B37 JUMP JUMPDEST SWAP1 POP SWAP2 SWAP1 POP JUMP JUMPDEST PUSH32 0x6163635354206469762031206574686572206F766572666C6F77000000000000 PUSH0 DUP3 ADD MSTORE POP JUMP JUMPDEST PUSH0 PUSH2 0x5BAB PUSH1 0x1A DUP4 PUSH2 0x4913 JUMP JUMPDEST SWAP2 POP PUSH2 0x5BB6 DUP3 PUSH2 0x5B77 JUMP JUMPDEST PUSH1 0x20 DUP3 ADD SWAP1 POP SWAP2 SWAP1 POP JUMP JUMPDEST PUSH0 PUSH1 0x20 DUP3 ADD SWAP1 POP DUP2 DUP2 SUB PUSH0 DUP4 ADD MSTORE PUSH2 0x5BD8 DUP2 PUSH2 0x5B9F JUMP JUMPDEST SWAP1 POP SWAP2 SWAP1 POP JUMP JUMPDEST PUSH32 0x6163635354207375622066696E6973686564524343206F766572666C6F770000 PUSH0 DUP3 ADD MSTORE POP JUMP JUMPDEST PUSH0 PUSH2 0x5C13 PUSH1 0x1E DUP4 PUSH2 0x4913 JUMP JUMPDEST SWAP2 POP PUSH2 0x5C1E DUP3 PUSH2 0x5BDF JUMP JUMPDEST PUSH1 0x20 DUP3 ADD SWAP1 POP SWAP2 SWAP1 POP JUMP JUMPDEST PUSH0 PUSH1 0x20 DUP3 ADD SWAP1 POP DUP2 DUP2 SUB PUSH0 DUP4 ADD MSTORE PUSH2 0x5C40 DUP2 PUSH2 0x5C07 JUMP JUMPDEST SWAP1 POP SWAP2 SWAP1 POP JUMP JUMPDEST PUSH32 0x757365722070656E64696E67524343206F766572666C6F770000000000000000 PUSH0 DUP3 ADD MSTORE POP JUMP JUMPDEST PUSH0 PUSH2 0x5C7B PUSH1 0x18 DUP4 PUSH2 0x4913 JUMP JUMPDEST SWAP2 POP PUSH2 0x5C86 DUP3 PUSH2 0x5C47 JUMP JUMPDEST PUSH1 0x20 DUP3 ADD SWAP1 POP SWAP2 SWAP1 POP JUMP JUMPDEST PUSH0 PUSH1 0x20 DUP3 ADD SWAP1 POP DUP2 DUP2 SUB PUSH0 DUP4 ADD MSTORE PUSH2 0x5CA8 DUP2 PUSH2 0x5C6F JUMP JUMPDEST SWAP1 POP SWAP2 SWAP1 POP JUMP JUMPDEST PUSH32 0x75736572207374416D6F756E74206F766572666C6F7700000000000000000000 PUSH0 DUP3 ADD MSTORE POP JUMP JUMPDEST PUSH0 PUSH2 0x5CE3 PUSH1 0x16 DUP4 PUSH2 0x4913 JUMP JUMPDEST SWAP2 POP PUSH2 0x5CEE DUP3 PUSH2 0x5CAF JUMP JUMPDEST PUSH1 0x20 DUP3 ADD SWAP1 POP SWAP2 SWAP1 POP JUMP JUMPDEST PUSH0 PUSH1 0x20 DUP3 ADD SWAP1 POP DUP2 DUP2 SUB PUSH0 DUP4 ADD MSTORE PUSH2 0x5D10 DUP2 PUSH2 0x5CD7 JUMP JUMPDEST SWAP1 POP SWAP2 SWAP1 POP JUMP JUMPDEST PUSH32 0x706F6F6C207374546F6B656E416D6F756E74206F766572666C6F770000000000 PUSH0 DUP3 ADD MSTORE POP JUMP JUMPDEST PUSH0 PUSH2 0x5D4B PUSH1 0x1B DUP4 PUSH2 0x4913 JUMP JUMPDEST SWAP2 POP PUSH2 0x5D56 DUP3 PUSH2 0x5D17 JUMP JUMPDEST PUSH1 0x20 DUP3 ADD SWAP1 POP SWAP2 SWAP1 POP JUMP JUMPDEST PUSH0 PUSH1 0x20 DUP3 ADD SWAP1 POP DUP2 DUP2 SUB PUSH0 DUP4 ADD MSTORE PUSH2 0x5D78 DUP2 PUSH2 0x5D3F JUMP JUMPDEST SWAP1 POP SWAP2 SWAP1 POP JUMP JUMPDEST PUSH32 0x66696E6973686564524343206469762031206574686572206F766572666C6F77 PUSH0 DUP3 ADD MSTORE POP JUMP JUMPDEST PUSH0 PUSH2 0x5DB3 PUSH1 0x20 DUP4 PUSH2 0x4913 JUMP JUMPDEST SWAP2 POP PUSH2 0x5DBE DUP3 PUSH2 0x5D7F JUMP JUMPDEST PUSH1 0x20 DUP3 ADD SWAP1 POP SWAP2 SWAP1 POP JUMP JUMPDEST PUSH0 PUSH1 0x20 DUP3 ADD SWAP1 POP DUP2 DUP2 SUB PUSH0 DUP4 ADD MSTORE PUSH2 0x5DE0 DUP2 PUSH2 0x5DA7 JUMP JUMPDEST SWAP1 POP SWAP2 SWAP1 POP JUMP JUMPDEST PUSH0 PUSH1 0x60 DUP3 ADD SWAP1 POP PUSH2 0x5DFA PUSH0 DUP4 ADD DUP7 PUSH2 0x4AF5 JUMP JUMPDEST PUSH2 0x5E07 PUSH1 0x20 DUP4 ADD DUP6 PUSH2 0x4AF5 JUMP JUMPDEST PUSH2 0x5E14 PUSH1 0x40 DUP4 ADD DUP5 PUSH2 0x43C4 JUMP JUMPDEST SWAP5 SWAP4 POP POP POP POP JUMP JUMPDEST PUSH0 PUSH1 0x40 DUP3 ADD SWAP1 POP PUSH2 0x5E2F PUSH0 DUP4 ADD DUP6 PUSH2 0x4AF5 JUMP JUMPDEST PUSH2 0x5E3C PUSH1 0x20 DUP4 ADD DUP5 PUSH2 0x450C JUMP JUMPDEST SWAP4 SWAP3 POP POP POP JUMP JUMPDEST PUSH0 DUP2 MLOAD SWAP1 POP SWAP2 SWAP1 POP JUMP JUMPDEST PUSH0 PUSH2 0x5E57 DUP3 PUSH2 0x5E43 JUMP JUMPDEST PUSH2 0x5E61 DUP2 DUP6 PUSH2 0x58B5 JUMP JUMPDEST SWAP4 POP PUSH2 0x5E71 DUP2 DUP6 PUSH1 0x20 DUP7 ADD PUSH2 0x4923 JUMP JUMPDEST DUP1 DUP5 ADD SWAP2 POP POP SWAP3 SWAP2 POP POP JUMP JUMPDEST PUSH0 PUSH2 0x5E88 DUP3 DUP5 PUSH2 0x5E4D JUMP JUMPDEST SWAP2 POP DUP2 SWAP1 POP SWAP3 SWAP2 POP POP JUMP INVALID LOG2 PUSH5 0x6970667358 0x22 SLT KECCAK256 SAR POP PUSH24 0xC7BB5BD95DFFFBCF9567E426671AF37C761143BFF2BB4485 0xBA 0x24 0x25 PUSH32 0x8864736F6C634300081900330000000000000000000000000000000000000000 "
		},
		"gasEstimates": {
			"creation": {
				"codeDepositCost": "4853000",
				"executionCost": "infinite",
				"totalCost": "infinite"
			},
			"external": {
				"ADMIN_ROLE()": "371",
				"DEFAULT_ADMIN_ROLE()": "486",
				"RCC()": "infinite",
				"RCCPerBlock()": "2471",
				"UPGRADE_INTERFACE_VERSION()": "infinite",
				"UPGRADE_ROLE()": "480",
				"addPool(address,uint256,uint256,uint256,bool)": "infinite",
				"claim(uint256)": "infinite",
				"claimPaused()": "2606",
				"deposit(uint256,uint256)": "infinite",
				"depositnativeCurrency()": "infinite",
				"endBlock()": "2538",
				"getMultiplier(uint256,uint256)": "infinite",
				"getRoleAdmin(bytes32)": "infinite",
				"grantRole(bytes32,address)": "infinite",
				"hasRole(bytes32,address)": "3286",
				"initialize(address,uint256,uint256,uint256)": "infinite",
				"massUpdatePools()": "infinite",
				"nativeCurrency_PID()": "369",
				"pauseClaim()": "30054",
				"pauseWithdraw()": "29995",
				"paused()": "2636",
				"pendingRCC(uint256,address)": "infinite",
				"pendingRCCByBlockNumber(uint256,address,uint256)": "infinite",
				"pool(uint256)": "infinite",
				"poolLength()": "2531",
				"proxiableUUID()": "infinite",
				"renounceRole(bytes32,address)": "infinite",
				"revokeRole(bytes32,address)": "infinite",
				"setEndBlock(uint256)": "28405",
				"setPoolWeight(uint256,uint256,bool)": "infinite",
				"setRCC(address)": "infinite",
				"setRCCPerBlock(uint256)": "26280",
				"setStartBlock(uint256)": "28382",
				"stakingBalance(uint256,address)": "infinite",
				"startBlock()": "2536",
				"supportsInterface(bytes4)": "764",
				"totalPoolWeight()": "2494",
				"unpauseClaim()": "30115",
				"unpauseWithdraw()": "29947",
				"unstake(uint256,uint256)": "infinite",
				"updatePool(uint256)": "infinite",
				"updatePool(uint256,uint256,uint256)": "infinite",
				"upgradeToAndCall(address,bytes)": "infinite",
				"user(uint256,address)": "infinite",
				"withdraw(uint256)": "infinite",
				"withdrawAmount(uint256,address)": "infinite",
				"withdrawPaused()": "2556"
			},
			"internal": {
				"_authorizeUpgrade(address)": "infinite",
				"_deposit(uint256,uint256)": "infinite",
				"_safeRCCTransfer(address,uint256)": "infinite",
				"_safenativeCurrencyTransfer(address,uint256)": "infinite"
			}
		},
		"methodIdentifiers": {
			"ADMIN_ROLE()": "75b238fc",
			"DEFAULT_ADMIN_ROLE()": "a217fddf",
			"RCC()": "a72d5bf4",
			"RCCPerBlock()": "386be144",
			"UPGRADE_INTERFACE_VERSION()": "ad3cb1cc",
			"UPGRADE_ROLE()": "b908afa8",
			"addPool(address,uint256,uint256,uint256,bool)": "b6d9d919",
			"claim(uint256)": "379607f5",
			"claimPaused()": "ab5e124a",
			"deposit(uint256,uint256)": "e2bbb158",
			"depositnativeCurrency()": "a6707ee4",
			"endBlock()": "083c6323",
			"getMultiplier(uint256,uint256)": "8dbb1e3a",
			"getRoleAdmin(bytes32)": "248a9ca3",
			"grantRole(bytes32,address)": "2f2ff15d",
			"hasRole(bytes32,address)": "91d14854",
			"initialize(address,uint256,uint256,uint256)": "4ec81af1",
			"massUpdatePools()": "630b5ba1",
			"nativeCurrency_PID()": "b9d49c2a",
			"pauseClaim()": "8ff095f9",
			"pauseWithdraw()": "6155e3de",
			"paused()": "5c975abb",
			"pendingRCC(uint256,address)": "3b82783e",
			"pendingRCCByBlockNumber(uint256,address,uint256)": "41721ab7",
			"pool(uint256)": "fe313112",
			"poolLength()": "081e3eda",
			"proxiableUUID()": "52d1902d",
			"renounceRole(bytes32,address)": "36568abe",
			"revokeRole(bytes32,address)": "d547741f",
			"setEndBlock(uint256)": "c713aa94",
			"setPoolWeight(uint256,uint256,bool)": "fad07ece",
			"setRCC(address)": "f5485d32",
			"setRCCPerBlock(uint256)": "bed66c08",
			"setStartBlock(uint256)": "f35e4a6e",
			"stakingBalance(uint256,address)": "11548234",
			"startBlock()": "48cd4cb1",
			"supportsInterface(bytes4)": "01ffc9a7",
			"totalPoolWeight()": "02559004",
			"unpauseClaim()": "de065caa",
			"unpauseWithdraw()": "5bb6d007",
			"unstake(uint256,uint256)": "9e2c8a5b",
			"updatePool(uint256)": "51eb05a6",
			"updatePool(uint256,uint256,uint256)": "d86c0444",
			"upgradeToAndCall(address,bytes)": "4f1ef286",
			"user(uint256,address)": "37849b3c",
			"withdraw(uint256)": "2e1a7d4d",
			"withdrawAmount(uint256,address)": "ff423357",
			"withdrawPaused()": "2f3ffb9f"
		}
	},
	"abi": [
		{
			"inputs": [],
			"name": "AccessControlBadConfirmation",
			"type": "error"
		},
		{
			"inputs": [
				{
					"internalType": "address",
					"name": "account",
					"type": "address"
				},
				{
					"internalType": "bytes32",
					"name": "neededRole",
					"type": "bytes32"
				}
			],
			"name": "AccessControlUnauthorizedAccount",
			"type": "error"
		},
		{
			"inputs": [
				{
					"internalType": "address",
					"name": "target",
					"type": "address"
				}
			],
			"name": "AddressEmptyCode",
			"type": "error"
		},
		{
			"inputs": [
				{
					"internalType": "address",
					"name": "account",
					"type": "address"
				}
			],
			"name": "AddressInsufficientBalance",
			"type": "error"
		},
		{
			"inputs": [
				{
					"internalType": "address",
					"name": "implementation",
					"type": "address"
				}
			],
			"name": "ERC1967InvalidImplementation",
			"type": "error"
		},
		{
			"inputs": [],
			"name": "ERC1967NonPayable",
			"type": "error"
		},
		{
			"inputs": [],
			"name": "EnforcedPause",
			"type": "error"
		},
		{
			"inputs": [],
			"name": "ExpectedPause",
			"type": "error"
		},
		{
			"inputs": [],
			"name": "FailedInnerCall",
			"type": "error"
		},
		{
			"inputs": [],
			"name": "InvalidInitialization",
			"type": "error"
		},
		{
			"inputs": [],
			"name": "NotInitializing",
			"type": "error"
		},
		{
			"inputs": [
				{
					"internalType": "address",
					"name": "token",
					"type": "address"
				}
			],
			"name": "SafeERC20FailedOperation",
			"type": "error"
		},
		{
			"inputs": [],
			"name": "UUPSUnauthorizedCallContext",
			"type": "error"
		},
		{
			"inputs": [
				{
					"internalType": "bytes32",
					"name": "slot",
					"type": "bytes32"
				}
			],
			"name": "UUPSUnsupportedProxiableUUID",
			"type": "error"
		},
		{
			"anonymous": false,
			"inputs": [
				{
					"indexed": true,
					"internalType": "address",
					"name": "stTokenAddress",
					"type": "address"
				},
				{
					"indexed": true,
					"internalType": "uint256",
					"name": "poolWeight",
					"type": "uint256"
				},
				{
					"indexed": true,
					"internalType": "uint256",
					"name": "lastRewardBlock",
					"type": "uint256"
				},
				{
					"indexed": false,
					"internalType": "uint256",
					"name": "minDepositAmount",
					"type": "uint256"
				},
				{
					"indexed": false,
					"internalType": "uint256",
					"name": "unstakeLockedBlocks",
					"type": "uint256"
				}
			],
			"name": "AddPool",
			"type": "event"
		},
		{
			"anonymous": false,
			"inputs": [
				{
					"indexed": true,
					"internalType": "address",
					"name": "user",
					"type": "address"
				},
				{
					"indexed": true,
					"internalType": "uint256",
					"name": "poolId",
					"type": "uint256"
				},
				{
					"indexed": false,
					"internalType": "uint256",
					"name": "RCCReward",
					"type": "uint256"
				}
			],
			"name": "Claim",
			"type": "event"
		},
		{
			"anonymous": false,
			"inputs": [
				{
					"indexed": true,
					"internalType": "address",
					"name": "user",
					"type": "address"
				},
				{
					"indexed": true,
					"internalType": "uint256",
					"name": "poolId",
					"type": "uint256"
				},
				{
					"indexed": false,
					"internalType": "uint256",
					"name": "amount",
					"type": "uint256"
				}
			],
			"name": "Deposit",
			"type": "event"
		},
		{
			"anonymous": false,
			"inputs": [
				{
					"indexed": false,
					"internalType": "uint64",
					"name": "version",
					"type": "uint64"
				}
			],
			"name": "Initialized",
			"type": "event"
		},
		{
			"anonymous": false,
			"inputs": [],
			"name": "PauseClaim",
			"type": "event"
		},
		{
			"anonymous": false,
			"inputs": [],
			"name": "PauseWithdraw",
			"type": "event"
		},
		{
			"anonymous": false,
			"inputs": [
				{
					"indexed": false,
					"internalType": "address",
					"name": "account",
					"type": "address"
				}
			],
			"name": "Paused",
			"type": "event"
		},
		{
			"anonymous": false,
			"inputs": [
				{
					"indexed": true,
					"internalType": "address",
					"name": "user",
					"type": "address"
				},
				{
					"indexed": true,
					"internalType": "uint256",
					"name": "poolId",
					"type": "uint256"
				},
				{
					"indexed": false,
					"internalType": "uint256",
					"name": "amount",
					"type": "uint256"
				}
			],
			"name": "RequestUnstake",
			"type": "event"
		},
		{
			"anonymous": false,
			"inputs": [
				{
					"indexed": true,
					"internalType": "bytes32",
					"name": "role",
					"type": "bytes32"
				},
				{
					"indexed": true,
					"internalType": "bytes32",
					"name": "previousAdminRole",
					"type": "bytes32"
				},
				{
					"indexed": true,
					"internalType": "bytes32",
					"name": "newAdminRole",
					"type": "bytes32"
				}
			],
			"name": "RoleAdminChanged",
			"type": "event"
		},
		{
			"anonymous": false,
			"inputs": [
				{
					"indexed": true,
					"internalType": "bytes32",
					"name": "role",
					"type": "bytes32"
				},
				{
					"indexed": true,
					"internalType": "address",
					"name": "account",
					"type": "address"
				},
				{
					"indexed": true,
					"internalType": "address",
					"name": "sender",
					"type": "address"
				}
			],
			"name": "RoleGranted",
			"type": "event"
		},
		{
			"anonymous": false,
			"inputs": [
				{
					"indexed": true,
					"internalType": "bytes32",
					"name": "role",
					"type": "bytes32"
				},
				{
					"indexed": true,
					"internalType": "address",
					"name": "account",
					"type": "address"
				},
				{
					"indexed": true,
					"internalType": "address",
					"name": "sender",
					"type": "address"
				}
			],
			"name": "RoleRevoked",
			"type": "event"
		},
		{
			"anonymous": false,
			"inputs": [
				{
					"indexed": true,
					"internalType": "uint256",
					"name": "endBlock",
					"type": "uint256"
				}
			],
			"name": "SetEndBlock",
			"type": "event"
		},
		{
			"anonymous": false,
			"inputs": [
				{
					"indexed": true,
					"internalType": "uint256",
					"name": "poolId",
					"type": "uint256"
				},
				{
					"indexed": true,
					"internalType": "uint256",
					"name": "poolWeight",
					"type": "uint256"
				},
				{
					"indexed": false,
					"internalType": "uint256",
					"name": "totalPoolWeight",
					"type": "uint256"
				}
			],
			"name": "SetPoolWeight",
			"type": "event"
		},
		{
			"anonymous": false,
			"inputs": [
				{
					"indexed": true,
					"internalType": "contract IERC20",
					"name": "RCC",
					"type": "address"
				}
			],
			"name": "SetRCC",
			"type": "event"
		},
		{
			"anonymous": false,
			"inputs": [
				{
					"indexed": true,
					"internalType": "uint256",
					"name": "RCCPerBlock",
					"type": "uint256"
				}
			],
			"name": "SetRCCPerBlock",
			"type": "event"
		},
		{
			"anonymous": false,
			"inputs": [
				{
					"indexed": true,
					"internalType": "uint256",
					"name": "startBlock",
					"type": "uint256"
				}
			],
			"name": "SetStartBlock",
			"type": "event"
		},
		{
			"anonymous": false,
			"inputs": [],
			"name": "UnpauseClaim",
			"type": "event"
		},
		{
			"anonymous": false,
			"inputs": [],
			"name": "UnpauseWithdraw",
			"type": "event"
		},
		{
			"anonymous": false,
			"inputs": [
				{
					"indexed": false,
					"internalType": "address",
					"name": "account",
					"type": "address"
				}
			],
			"name": "Unpaused",
			"type": "event"
		},
		{
			"anonymous": false,
			"inputs": [
				{
					"indexed": true,
					"internalType": "uint256",
					"name": "poolId",
					"type": "uint256"
				},
				{
					"indexed": true,
					"internalType": "uint256",
					"name": "lastRewardBlock",
					"type": "uint256"
				},
				{
					"indexed": false,
					"internalType": "uint256",
					"name": "totalRCC",
					"type": "uint256"
				}
			],
			"name": "UpdatePool",
			"type": "event"
		},
		{
			"anonymous": false,
			"inputs": [
				{
					"indexed": true,
					"internalType": "uint256",
					"name": "poolId",
					"type": "uint256"
				},
				{
					"indexed": true,
					"internalType": "uint256",
					"name": "minDepositAmount",
					"type": "uint256"
				},
				{
					"indexed": true,
					"internalType": "uint256",
					"name": "unstakeLockedBlocks",
					"type": "uint256"
				}
			],
			"name": "UpdatePoolInfo",
			"type": "event"
		},
		{
			"anonymous": false,
			"inputs": [
				{
					"indexed": true,
					"internalType": "address",
					"name": "implementation",
					"type": "address"
				}
			],
			"name": "Upgraded",
			"type": "event"
		},
		{
			"anonymous": false,
			"inputs": [
				{
					"indexed": true,
					"internalType": "address",
					"name": "user",
					"type": "address"
				},
				{
					"indexed": true,
					"internalType": "uint256",
					"name": "poolId",
					"type": "uint256"
				},
				{
					"indexed": false,
					"internalType": "uint256",
					"name": "amount",
					"type": "uint256"
				},
				{
					"indexed": true,
					"internalType": "uint256",
					"name": "blockNumber",
					"type": "uint256"
				}
			],
			"name": "Withdraw",
			"type": "event"
		},
		{
			"inputs": [],
			"name": "ADMIN_ROLE",
			"outputs": [
				{
					"internalType": "bytes32",
					"name": "",
					"type": "bytes32"
				}
			],
			"stateMutability": "view",
			"type": "function"
		},
		{
			"inputs": [],
			"name": "DEFAULT_ADMIN_ROLE",
			"outputs": [
				{
					"internalType": "bytes32",
					"name": "",
					"type": "bytes32"
				}
			],
			"stateMutability": "view",
			"type": "function"
		},
		{
			"inputs": [],
			"name": "RCC",
			"outputs": [
				{
					"internalType": "contract IERC20",
					"name": "",
					"type": "address"
				}
			],
			"stateMutability": "view",
			"type": "function"
		},
		{
			"inputs": [],
			"name": "RCCPerBlock",
			"outputs": [
				{
					"internalType": "uint256",
					"name": "",
					"type": "uint256"
				}
			],
			"stateMutability": "view",
			"type": "function"
		},
		{
			"inputs": [],
			"name": "UPGRADE_INTERFACE_VERSION",
			"outputs": [
				{
					"internalType": "string",
					"name": "",
					"type": "string"
				}
			],
			"stateMutability": "view",
			"type": "function"
		},
		{
			"inputs": [],
			"name": "UPGRADE_ROLE",
			"outputs": [
				{
					"internalType": "bytes32",
					"name": "",
					"type": "bytes32"
				}
			],
			"stateMutability": "view",
			"type": "function"
		},
		{
			"inputs": [
				{
					"internalType": "address",
					"name": "_stTokenAddress",
					"type": "address"
				},
				{
					"internalType": "uint256",
					"name": "_poolWeight",
					"type": "uint256"
				},
				{
					"internalType": "uint256",
					"name": "_minDepositAmount",
					"type": "uint256"
				},
				{
					"internalType": "uint256",
					"name": "_unstakeLockedBlocks",
					"type": "uint256"
				},
				{
					"internalType": "bool",
					"name": "_withUpdate",
					"type": "bool"
				}
			],
			"name": "addPool",
			"outputs": [],
			"stateMutability": "nonpayable",
			"type": "function"
		},
		{
			"inputs": [
				{
					"internalType": "uint256",
					"name": "_pid",
					"type": "uint256"
				}
			],
			"name": "claim",
			"outputs": [],
			"stateMutability": "nonpayable",
			"type": "function"
		},
		{
			"inputs": [],
			"name": "claimPaused",
			"outputs": [
				{
					"internalType": "bool",
					"name": "",
					"type": "bool"
				}
			],
			"stateMutability": "view",
			"type": "function"
		},
		{
			"inputs": [
				{
					"internalType": "uint256",
					"name": "_pid",
					"type": "uint256"
				},
				{
					"internalType": "uint256",
					"name": "_amount",
					"type": "uint256"
				}
			],
			"name": "deposit",
			"outputs": [],
			"stateMutability": "nonpayable",
			"type": "function"
		},
		{
			"inputs": [],
			"name": "depositnativeCurrency",
			"outputs": [],
			"stateMutability": "payable",
			"type": "function"
		},
		{
			"inputs": [],
			"name": "endBlock",
			"outputs": [
				{
					"internalType": "uint256",
					"name": "",
					"type": "uint256"
				}
			],
			"stateMutability": "view",
			"type": "function"
		},
		{
			"inputs": [
				{
					"internalType": "uint256",
					"name": "_from",
					"type": "uint256"
				},
				{
					"internalType": "uint256",
					"name": "_to",
					"type": "uint256"
				}
			],
			"name": "getMultiplier",
			"outputs": [
				{
					"internalType": "uint256",
					"name": "multiplier",
					"type": "uint256"
				}
			],
			"stateMutability": "view",
			"type": "function"
		},
		{
			"inputs": [
				{
					"internalType": "bytes32",
					"name": "role",
					"type": "bytes32"
				}
			],
			"name": "getRoleAdmin",
			"outputs": [
				{
					"internalType": "bytes32",
					"name": "",
					"type": "bytes32"
				}
			],
			"stateMutability": "view",
			"type": "function"
		},
		{
			"inputs": [
				{
					"internalType": "bytes32",
					"name": "role",
					"type": "bytes32"
				},
				{
					"internalType": "address",
					"name": "account",
					"type": "address"
				}
			],
			"name": "grantRole",
			"outputs": [],
			"stateMutability": "nonpayable",
			"type": "function"
		},
		{
			"inputs": [
				{
					"internalType": "bytes32",
					"name": "role",
					"type": "bytes32"
				},
				{
					"internalType": "address",
					"name": "account",
					"type": "address"
				}
			],
			"name": "hasRole",
			"outputs": [
				{
					"internalType": "bool",
					"name": "",
					"type": "bool"
				}
			],
			"stateMutability": "view",
			"type": "function"
		},
		{
			"inputs": [
				{
					"internalType": "contract IERC20",
					"name": "_RCC",
					"type": "address"
				},
				{
					"internalType": "uint256",
					"name": "_startBlock",
					"type": "uint256"
				},
				{
					"internalType": "uint256",
					"name": "_endBlock",
					"type": "uint256"
				},
				{
					"internalType": "uint256",
					"name": "_RCCPerBlock",
					"type": "uint256"
				}
			],
			"name": "initialize",
			"outputs": [],
			"stateMutability": "nonpayable",
			"type": "function"
		},
		{
			"inputs": [],
			"name": "massUpdatePools",
			"outputs": [],
			"stateMutability": "nonpayable",
			"type": "function"
		},
		{
			"inputs": [],
			"name": "nativeCurrency_PID",
			"outputs": [
				{
					"internalType": "uint256",
					"name": "",
					"type": "uint256"
				}
			],
			"stateMutability": "view",
			"type": "function"
		},
		{
			"inputs": [],
			"name": "pauseClaim",
			"outputs": [],
			"stateMutability": "nonpayable",
			"type": "function"
		},
		{
			"inputs": [],
			"name": "pauseWithdraw",
			"outputs": [],
			"stateMutability": "nonpayable",
			"type": "function"
		},
		{
			"inputs": [],
			"name": "paused",
			"outputs": [
				{
					"internalType": "bool",
					"name": "",
					"type": "bool"
				}
			],
			"stateMutability": "view",
			"type": "function"
		},
		{
			"inputs": [
				{
					"internalType": "uint256",
					"name": "_pid",
					"type": "uint256"
				},
				{
					"internalType": "address",
					"name": "_user",
					"type": "address"
				}
			],
			"name": "pendingRCC",
			"outputs": [
				{
					"internalType": "uint256",
					"name": "",
					"type": "uint256"
				}
			],
			"stateMutability": "view",
			"type": "function"
		},
		{
			"inputs": [
				{
					"internalType": "uint256",
					"name": "_pid",
					"type": "uint256"
				},
				{
					"internalType": "address",
					"name": "_user",
					"type": "address"
				},
				{
					"internalType": "uint256",
					"name": "_blockNumber",
					"type": "uint256"
				}
			],
			"name": "pendingRCCByBlockNumber",
			"outputs": [
				{
					"internalType": "uint256",
					"name": "",
					"type": "uint256"
				}
			],
			"stateMutability": "view",
			"type": "function"
		},
		{
			"inputs": [
				{
					"internalType": "uint256",
					"name": "",
					"type": "uint256"
				}
			],
			"name": "pool",
			"outputs": [
				{
					"internalType": "address",
					"name": "stTokenAddress",
					"type": "address"
				},
				{
					"internalType": "uint256",
					"name": "poolWeight",
					"type": "uint256"
				},
				{
					"internalType": "uint256",
					"name": "lastRewardBlock",
					"type": "uint256"
				},
				{
					"internalType": "uint256",
					"name": "accRCCPerST",
					"type": "uint256"
				},
				{
					"internalType": "uint256",
					"name": "stTokenAmount",
					"type": "uint256"
				},
				{
					"internalType": "uint256",
					"name": "minDepositAmount",
					"type": "uint256"
				},
				{
					"internalType": "uint256",
					"name": "unstakeLockedBlocks",
					"type": "uint256"
				}
			],
			"stateMutability": "view",
			"type": "function"
		},
		{
			"inputs": [],
			"name": "poolLength",
			"outputs": [
				{
					"internalType": "uint256",
					"name": "",
					"type": "uint256"
				}
			],
			"stateMutability": "view",
			"type": "function"
		},
		{
			"inputs": [],
			"name": "proxiableUUID",
			"outputs": [
				{
					"internalType": "bytes32",
					"name": "",
					"type": "bytes32"
				}
			],
			"stateMutability": "view",
			"type": "function"
		},
		{
			"inputs": [
				{
					"internalType": "bytes32",
					"name": "role",
					"type": "bytes32"
				},
				{
					"internalType": "address",
					"name": "callerConfirmation",
					"type": "address"
				}
			],
			"name": "renounceRole",
			"outputs": [],
			"stateMutability": "nonpayable",
			"type": "function"
		},
		{
			"inputs": [
				{
					"internalType": "bytes32",
					"name": "role",
					"type": "bytes32"
				},
				{
					"internalType": "address",
					"name": "account",
					"type": "address"
				}
			],
			"name": "revokeRole",
			"outputs": [],
			"stateMutability": "nonpayable",
			"type": "function"
		},
		{
			"inputs": [
				{
					"internalType": "uint256",
					"name": "_endBlock",
					"type": "uint256"
				}
			],
			"name": "setEndBlock",
			"outputs": [],
			"stateMutability": "nonpayable",
			"type": "function"
		},
		{
			"inputs": [
				{
					"internalType": "uint256",
					"name": "_pid",
					"type": "uint256"
				},
				{
					"internalType": "uint256",
					"name": "_poolWeight",
					"type": "uint256"
				},
				{
					"internalType": "bool",
					"name": "_withUpdate",
					"type": "bool"
				}
			],
			"name": "setPoolWeight",
			"outputs": [],
			"stateMutability": "nonpayable",
			"type": "function"
		},
		{
			"inputs": [
				{
					"internalType": "contract IERC20",
					"name": "_RCC",
					"type": "address"
				}
			],
			"name": "setRCC",
			"outputs": [],
			"stateMutability": "nonpayable",
			"type": "function"
		},
		{
			"inputs": [
				{
					"internalType": "uint256",
					"name": "_RCCPerBlock",
					"type": "uint256"
				}
			],
			"name": "setRCCPerBlock",
			"outputs": [],
			"stateMutability": "nonpayable",
			"type": "function"
		},
		{
			"inputs": [
				{
					"internalType": "uint256",
					"name": "_startBlock",
					"type": "uint256"
				}
			],
			"name": "setStartBlock",
			"outputs": [],
			"stateMutability": "nonpayable",
			"type": "function"
		},
		{
			"inputs": [
				{
					"internalType": "uint256",
					"name": "_pid",
					"type": "uint256"
				},
				{
					"internalType": "address",
					"name": "_user",
					"type": "address"
				}
			],
			"name": "stakingBalance",
			"outputs": [
				{
					"internalType": "uint256",
					"name": "",
					"type": "uint256"
				}
			],
			"stateMutability": "view",
			"type": "function"
		},
		{
			"inputs": [],
			"name": "startBlock",
			"outputs": [
				{
					"internalType": "uint256",
					"name": "",
					"type": "uint256"
				}
			],
			"stateMutability": "view",
			"type": "function"
		},
		{
			"inputs": [
				{
					"internalType": "bytes4",
					"name": "interfaceId",
					"type": "bytes4"
				}
			],
			"name": "supportsInterface",
			"outputs": [
				{
					"internalType": "bool",
					"name": "",
					"type": "bool"
				}
			],
			"stateMutability": "view",
			"type": "function"
		},
		{
			"inputs": [],
			"name": "totalPoolWeight",
			"outputs": [
				{
					"internalType": "uint256",
					"name": "",
					"type": "uint256"
				}
			],
			"stateMutability": "view",
			"type": "function"
		},
		{
			"inputs": [],
			"name": "unpauseClaim",
			"outputs": [],
			"stateMutability": "nonpayable",
			"type": "function"
		},
		{
			"inputs": [],
			"name": "unpauseWithdraw",
			"outputs": [],
			"stateMutability": "nonpayable",
			"type": "function"
		},
		{
			"inputs": [
				{
					"internalType": "uint256",
					"name": "_pid",
					"type": "uint256"
				},
				{
					"internalType": "uint256",
					"name": "_amount",
					"type": "uint256"
				}
			],
			"name": "unstake",
			"outputs": [],
			"stateMutability": "nonpayable",
			"type": "function"
		},
		{
			"inputs": [
				{
					"internalType": "uint256",
					"name": "_pid",
					"type": "uint256"
				}
			],
			"name": "updatePool",
			"outputs": [],
			"stateMutability": "nonpayable",
			"type": "function"
		},
		{
			"inputs": [
				{
					"internalType": "uint256",
					"name": "_pid",
					"type": "uint256"
				},
				{
					"internalType": "uint256",
					"name": "_minDepositAmount",
					"type": "uint256"
				},
				{
					"internalType": "uint256",
					"name": "_unstakeLockedBlocks",
					"type": "uint256"
				}
			],
			"name": "updatePool",
			"outputs": [],
			"stateMutability": "nonpayable",
			"type": "function"
		},
		{
			"inputs": [
				{
					"internalType": "address",
					"name": "newImplementation",
					"type": "address"
				},
				{
					"internalType": "bytes",
					"name": "data",
					"type": "bytes"
				}
			],
			"name": "upgradeToAndCall",
			"outputs": [],
			"stateMutability": "payable",
			"type": "function"
		},
		{
			"inputs": [
				{
					"internalType": "uint256",
					"name": "",
					"type": "uint256"
				},
				{
					"internalType": "address",
					"name": "",
					"type": "address"
				}
			],
			"name": "user",
			"outputs": [
				{
					"internalType": "uint256",
					"name": "stAmount",
					"type": "uint256"
				},
				{
					"internalType": "uint256",
					"name": "finishedRCC",
					"type": "uint256"
				},
				{
					"internalType": "uint256",
					"name": "pendingRCC",
					"type": "uint256"
				}
			],
			"stateMutability": "view",
			"type": "function"
		},
		{
			"inputs": [
				{
					"internalType": "uint256",
					"name": "_pid",
					"type": "uint256"
				}
			],
			"name": "withdraw",
			"outputs": [],
			"stateMutability": "nonpayable",
			"type": "function"
		},
		{
			"inputs": [
				{
					"internalType": "uint256",
					"name": "_pid",
					"type": "uint256"
				},
				{
					"internalType": "address",
					"name": "_user",
					"type": "address"
				}
			],
			"name": "withdrawAmount",
			"outputs": [
				{
					"internalType": "uint256",
					"name": "requestAmount",
					"type": "uint256"
				},
				{
					"internalType": "uint256",
					"name": "pendingWithdrawAmount",
					"type": "uint256"
				}
			],
			"stateMutability": "view",
			"type": "function"
		},
		{
			"inputs": [],
			"name": "withdrawPaused",
			"outputs": [
				{
					"internalType": "bool",
					"name": "",
					"type": "bool"
				}
			],
			"stateMutability": "view",
			"type": "function"
		}
	]
}