{
	"L3/RccStake.sol": {
		"RccStake": {
			"abi": [
				{
					"inputs": [
						{
							"internalType": "uint256",
							"name": "_pid",
							"type": "uint256"
						}
					],
					"name": "claim",
					"outputs": [],
					"stateMutability": "view",
					"type": "function"
				},
				{
					"inputs": [
						{
							"internalType": "uint256",
							"name": "_pid",
							"type": "uint256"
						},
						{
							"internalType": "uint256",
							"name": "_amount",
							"type": "uint256"
						}
					],
					"name": "releasStake",
					"outputs": [],
					"stateMutability": "nonpayable",
					"type": "function"
				},
				{
					"inputs": [
						{
							"internalType": "uint256",
							"name": "_pid",
							"type": "uint256"
						},
						{
							"internalType": "uint256",
							"name": "_amount",
							"type": "uint256"
						}
					],
					"name": "stake",
					"outputs": [],
					"stateMutability": "nonpayable",
					"type": "function"
				}
			],
			"devdoc": {
				"kind": "dev",
				"methods": {},
				"version": 1
			},
			"evm": {
				"assembly": "    /* \"L3/RccStake.sol\":58:4305  contract RccStake {... */\n  mstore(0x40, 0x80)\n    /* \"L3/RccStake.sol\":405:408  100 */\n  0x64\n    /* \"L3/RccStake.sol\":384:408  uint256 _miniStake = 100 */\n  0x03\n  sstore\n    /* \"L3/RccStake.sol\":58:4305  contract RccStake {... */\n  callvalue\n  dup1\n  iszero\n  tag_1\n  jumpi\n  0x00\n  dup1\n  revert\ntag_1:\n  pop\n  dataSize(sub_0)\n  dup1\n  dataOffset(sub_0)\n  0x00\n  codecopy\n  0x00\n  return\nstop\n\nsub_0: assembly {\n        /* \"L3/RccStake.sol\":58:4305  contract RccStake {... */\n      mstore(0x40, 0x80)\n      callvalue\n      dup1\n      iszero\n      tag_1\n      jumpi\n      0x00\n      dup1\n      revert\n    tag_1:\n      pop\n      jumpi(tag_2, lt(calldatasize, 0x04))\n      shr(0xe0, calldataload(0x00))\n      dup1\n      0x379607f5\n      eq\n      tag_3\n      jumpi\n      dup1\n      0x5ab78f1a\n      eq\n      tag_4\n      jumpi\n      dup1\n      0x7b0472f0\n      eq\n      tag_5\n      jumpi\n    tag_2:\n      0x00\n      dup1\n      revert\n        /* \"L3/RccStake.sol\":3928:4303  function claim(uint256 _pid) public view {... */\n    tag_3:\n      tag_6\n      0x04\n      dup1\n      calldatasize\n      sub\n      dup2\n      add\n      swap1\n      tag_7\n      swap2\n      swap1\n      tag_8\n      jump\t// in\n    tag_7:\n      tag_9\n      jump\t// in\n    tag_6:\n      stop\n        /* \"L3/RccStake.sol\":3186:3648  function releasStake(uint256 _pid, uint256 _amount) public {... */\n    tag_4:\n      tag_10\n      0x04\n      dup1\n      calldatasize\n      sub\n      dup2\n      add\n      swap1\n      tag_11\n      swap2\n      swap1\n      tag_12\n      jump\t// in\n    tag_11:\n      tag_13\n      jump\t// in\n    tag_10:\n      stop\n        /* \"L3/RccStake.sol\":2198:2805  function stake(uint256 _pid, uint256 _amount) public  {... */\n    tag_5:\n      tag_14\n      0x04\n      dup1\n      calldatasize\n      sub\n      dup2\n      add\n      swap1\n      tag_15\n      swap2\n      swap1\n      tag_12\n      jump\t// in\n    tag_15:\n      tag_16\n      jump\t// in\n    tag_14:\n      stop\n        /* \"L3/RccStake.sol\":3928:4303  function claim(uint256 _pid) public view {... */\n    tag_9:\n        /* \"L3/RccStake.sol\":3979:3995  Pool memory pool */\n      0x00\n        /* \"L3/RccStake.sol\":3998:4004  _Pools */\n      0x04\n        /* \"L3/RccStake.sol\":3998:4010  _Pools[_pid] */\n      0x00\n        /* \"L3/RccStake.sol\":4005:4009  _pid */\n      dup4\n        /* \"L3/RccStake.sol\":3998:4010  _Pools[_pid] */\n      dup2\n      mstore\n      0x20\n      add\n      swap1\n      dup2\n      mstore\n      0x20\n      add\n      0x00\n      keccak256\n        /* \"L3/RccStake.sol\":3979:4010  Pool memory pool = _Pools[_pid] */\n      mload(0x40)\n      dup1\n      0xe0\n      add\n      0x40\n      mstore\n      swap1\n      dup2\n      0x00\n      dup3\n      add\n      0x00\n      swap1\n      sload\n      swap1\n      0x0100\n      exp\n      swap1\n      div\n      0xffffffffffffffffffffffffffffffffffffffff\n      and\n      0xffffffffffffffffffffffffffffffffffffffff\n      and\n      0xffffffffffffffffffffffffffffffffffffffff\n      and\n      dup2\n      mstore\n      0x20\n      add\n      0x01\n      dup3\n      add\n      sload\n      dup2\n      mstore\n      0x20\n      add\n      0x02\n      dup3\n      add\n      sload\n      dup2\n      mstore\n      0x20\n      add\n      0x03\n      dup3\n      add\n      sload\n      dup2\n      mstore\n      0x20\n      add\n      0x04\n      dup3\n      add\n      sload\n      dup2\n      mstore\n      0x20\n      add\n      0x05\n      dup3\n      add\n      sload\n      dup2\n      mstore\n      0x20\n      add\n      0x06\n      dup3\n      add\n      sload\n      dup2\n      mstore\n      pop\n      pop\n      swap1\n      pop\n        /* \"L3/RccStake.sol\":4020:4036  User memory user */\n      0x00\n        /* \"L3/RccStake.sol\":4039:4045  _Users */\n      0x05\n        /* \"L3/RccStake.sol\":4039:4066  _Users[address(msg.sender)] */\n      0x00\n        /* \"L3/RccStake.sol\":4054:4064  msg.sender */\n      caller\n        /* \"L3/RccStake.sol\":4039:4066  _Users[address(msg.sender)] */\n      0xffffffffffffffffffffffffffffffffffffffff\n      and\n      0xffffffffffffffffffffffffffffffffffffffff\n      and\n      dup2\n      mstore\n      0x20\n      add\n      swap1\n      dup2\n      mstore\n      0x20\n      add\n      0x00\n      keccak256\n        /* \"L3/RccStake.sol\":4020:4066  User memory user = _Users[address(msg.sender)] */\n      mload(0x40)\n      dup1\n      0x80\n      add\n      0x40\n      mstore\n      swap1\n      dup2\n      0x00\n      dup3\n      add\n      sload\n      dup2\n      mstore\n      0x20\n      add\n      0x01\n      dup3\n      add\n      sload\n      dup2\n      mstore\n      0x20\n      add\n      0x02\n      dup3\n      add\n      sload\n      dup2\n      mstore\n      0x20\n      add\n      0x03\n      dup3\n      add\n      dup1\n      sload\n      dup1\n      0x20\n      mul\n      0x20\n      add\n      mload(0x40)\n      swap1\n      dup2\n      add\n      0x40\n      mstore\n      dup1\n      swap3\n      swap2\n      swap1\n      dup2\n      dup2\n      mstore\n      0x20\n      add\n      0x00\n      swap1\n    tag_18:\n      dup3\n      dup3\n      lt\n      iszero\n      tag_19\n      jumpi\n      dup4\n      dup3\n      swap1\n      0x00\n      mstore\n      keccak256(0x00, 0x20)\n      swap1\n      0x02\n      mul\n      add\n      mload(0x40)\n      dup1\n      0x40\n      add\n      0x40\n      mstore\n      swap1\n      dup2\n      0x00\n      dup3\n      add\n      sload\n      dup2\n      mstore\n      0x20\n      add\n      0x01\n      dup3\n      add\n      sload\n      dup2\n      mstore\n      pop\n      pop\n      dup2\n      mstore\n      0x20\n      add\n      swap1\n      0x01\n      add\n      swap1\n      jump(tag_18)\n    tag_19:\n      pop\n      pop\n      pop\n      pop\n      dup2\n      mstore\n      pop\n      pop\n      swap1\n      pop\n        /* \"L3/RccStake.sol\":4077:4090  uint256 bonus */\n      0x00\n        /* \"L3/RccStake.sol\":4171:4175  user */\n      dup2\n        /* \"L3/RccStake.sol\":4171:4186  user.pendingRCC */\n      0x40\n      add\n      mload\n        /* \"L3/RccStake.sol\":4140:4144  user */\n      dup3\n        /* \"L3/RccStake.sol\":4140:4156  user.finishedRCC */\n      0x20\n      add\n      mload\n        /* \"L3/RccStake.sol\":4112:4116  user */\n      dup4\n        /* \"L3/RccStake.sol\":4112:4125  user.stAmount */\n      0x00\n      add\n      mload\n        /* \"L3/RccStake.sol\":4093:4097  pool */\n      dup6\n        /* \"L3/RccStake.sol\":4093:4109  pool.accRCCPerST */\n      0x60\n      add\n      mload\n        /* \"L3/RccStake.sol\":4093:4125  pool.accRCCPerST * user.stAmount */\n      tag_21\n      swap2\n      swap1\n      tag_22\n      jump\t// in\n    tag_21:\n        /* \"L3/RccStake.sol\":4093:4156  pool.accRCCPerST * user.stAmount -... */\n      tag_23\n      swap2\n      swap1\n      tag_24\n      jump\t// in\n    tag_23:\n        /* \"L3/RccStake.sol\":4093:4186  pool.accRCCPerST * user.stAmount -... */\n      tag_25\n      swap2\n      swap1\n      tag_26\n      jump\t// in\n    tag_25:\n        /* \"L3/RccStake.sol\":4077:4186  uint256 bonus = pool.accRCCPerST * user.stAmount -... */\n      swap1\n      pop\n        /* \"L3/RccStake.sol\":4213:4214  0 */\n      0x00\n        /* \"L3/RccStake.sol\":4205:4210  bonus */\n      dup2\n        /* \"L3/RccStake.sol\":4205:4214  bonus > 0 */\n      gt\n        /* \"L3/RccStake.sol\":4197:4235  require(bonus > 0, \"nothing to claim\") */\n      tag_27\n      jumpi\n      mload(0x40)\n      0x08c379a000000000000000000000000000000000000000000000000000000000\n      dup2\n      mstore\n      0x04\n      add\n      tag_28\n      swap1\n      tag_29\n      jump\t// in\n    tag_28:\n      mload(0x40)\n      dup1\n      swap2\n      sub\n      swap1\n      revert\n    tag_27:\n        /* \"L3/RccStake.sol\":4283:4287  user */\n      dup2\n        /* \"L3/RccStake.sol\":4283:4296  user.stAmount */\n      0x00\n      add\n      mload\n        /* \"L3/RccStake.sol\":4264:4268  pool */\n      dup4\n        /* \"L3/RccStake.sol\":4264:4280  pool.accRCCPerST */\n      0x60\n      add\n      mload\n        /* \"L3/RccStake.sol\":4264:4296  pool.accRCCPerST * user.stAmount */\n      tag_30\n      swap2\n      swap1\n      tag_22\n      jump\t// in\n    tag_30:\n        /* \"L3/RccStake.sol\":4245:4249  user */\n      dup3\n        /* \"L3/RccStake.sol\":4245:4261  user.finishedRCC */\n      0x20\n      add\n        /* \"L3/RccStake.sol\":4245:4296  user.finishedRCC = pool.accRCCPerST * user.stAmount */\n      dup2\n      dup2\n      mstore\n      pop\n      pop\n        /* \"L3/RccStake.sol\":3969:4303  {... */\n      pop\n      pop\n      pop\n        /* \"L3/RccStake.sol\":3928:4303  function claim(uint256 _pid) public view {... */\n      pop\n      jump\t// out\n        /* \"L3/RccStake.sol\":3186:3648  function releasStake(uint256 _pid, uint256 _amount) public {... */\n    tag_13:\n        /* \"L3/RccStake.sol\":3255:3272  Pool storage pool */\n      0x00\n        /* \"L3/RccStake.sol\":3275:3281  _Pools */\n      0x04\n        /* \"L3/RccStake.sol\":3275:3287  _Pools[_pid] */\n      0x00\n        /* \"L3/RccStake.sol\":3282:3286  _pid */\n      dup5\n        /* \"L3/RccStake.sol\":3275:3287  _Pools[_pid] */\n      dup2\n      mstore\n      0x20\n      add\n      swap1\n      dup2\n      mstore\n      0x20\n      add\n      0x00\n      keccak256\n        /* \"L3/RccStake.sol\":3255:3287  Pool storage pool = _Pools[_pid] */\n      swap1\n      pop\n        /* \"L3/RccStake.sol\":3297:3314  uint256 userStake */\n      0x00\n        /* \"L3/RccStake.sol\":3317:3327  _userStake */\n      0x01\n        /* \"L3/RccStake.sol\":3317:3333  _userStake[_pid] */\n      0x00\n        /* \"L3/RccStake.sol\":3328:3332  _pid */\n      dup6\n        /* \"L3/RccStake.sol\":3317:3333  _userStake[_pid] */\n      dup2\n      mstore\n      0x20\n      add\n      swap1\n      dup2\n      mstore\n      0x20\n      add\n      0x00\n      keccak256\n        /* \"L3/RccStake.sol\":3317:3354  _userStake[_pid][address(msg.sender)] */\n      0x00\n        /* \"L3/RccStake.sol\":3342:3352  msg.sender */\n      caller\n        /* \"L3/RccStake.sol\":3317:3354  _userStake[_pid][address(msg.sender)] */\n      0xffffffffffffffffffffffffffffffffffffffff\n      and\n      0xffffffffffffffffffffffffffffffffffffffff\n      and\n      dup2\n      mstore\n      0x20\n      add\n      swap1\n      dup2\n      mstore\n      0x20\n      add\n      0x00\n      keccak256\n      sload\n        /* \"L3/RccStake.sol\":3297:3354  uint256 userStake = _userStake[_pid][address(msg.sender)] */\n      swap1\n      pop\n        /* \"L3/RccStake.sol\":3385:3392  _amount */\n      dup3\n        /* \"L3/RccStake.sol\":3372:3381  userStake */\n      dup2\n        /* \"L3/RccStake.sol\":3372:3392  userStake >= _amount */\n      lt\n      iszero\n        /* \"L3/RccStake.sol\":3364:3417  require(userStake >= _amount, \"userStake not enough\") */\n      tag_32\n      jumpi\n      mload(0x40)\n      0x08c379a000000000000000000000000000000000000000000000000000000000\n      dup2\n      mstore\n      0x04\n      add\n      tag_33\n      swap1\n      tag_34\n      jump\t// in\n    tag_33:\n      mload(0x40)\n      dup1\n      swap2\n      sub\n      swap1\n      revert\n    tag_32:\n        /* \"L3/RccStake.sol\":3480:3496  User memory user */\n      0x00\n        /* \"L3/RccStake.sol\":3499:3505  _Users */\n      0x05\n        /* \"L3/RccStake.sol\":3499:3526  _Users[address(msg.sender)] */\n      0x00\n        /* \"L3/RccStake.sol\":3514:3524  msg.sender */\n      caller\n        /* \"L3/RccStake.sol\":3499:3526  _Users[address(msg.sender)] */\n      0xffffffffffffffffffffffffffffffffffffffff\n      and\n      0xffffffffffffffffffffffffffffffffffffffff\n      and\n      dup2\n      mstore\n      0x20\n      add\n      swap1\n      dup2\n      mstore\n      0x20\n      add\n      0x00\n      keccak256\n        /* \"L3/RccStake.sol\":3480:3526  User memory user = _Users[address(msg.sender)] */\n      mload(0x40)\n      dup1\n      0x80\n      add\n      0x40\n      mstore\n      swap1\n      dup2\n      0x00\n      dup3\n      add\n      sload\n      dup2\n      mstore\n      0x20\n      add\n      0x01\n      dup3\n      add\n      sload\n      dup2\n      mstore\n      0x20\n      add\n      0x02\n      dup3\n      add\n      sload\n      dup2\n      mstore\n      0x20\n      add\n      0x03\n      dup3\n      add\n      dup1\n      sload\n      dup1\n      0x20\n      mul\n      0x20\n      add\n      mload(0x40)\n      swap1\n      dup2\n      add\n      0x40\n      mstore\n      dup1\n      swap3\n      swap2\n      swap1\n      dup2\n      dup2\n      mstore\n      0x20\n      add\n      0x00\n      swap1\n    tag_35:\n      dup3\n      dup3\n      lt\n      iszero\n      tag_36\n      jumpi\n      dup4\n      dup3\n      swap1\n      0x00\n      mstore\n      keccak256(0x00, 0x20)\n      swap1\n      0x02\n      mul\n      add\n      mload(0x40)\n      dup1\n      0x40\n      add\n      0x40\n      mstore\n      swap1\n      dup2\n      0x00\n      dup3\n      add\n      sload\n      dup2\n      mstore\n      0x20\n      add\n      0x01\n      dup3\n      add\n      sload\n      dup2\n      mstore\n      pop\n      pop\n      dup2\n      mstore\n      0x20\n      add\n      swap1\n      0x01\n      add\n      swap1\n      jump(tag_35)\n    tag_36:\n      pop\n      pop\n      pop\n      pop\n      dup2\n      mstore\n      pop\n      pop\n      swap1\n      pop\n        /* \"L3/RccStake.sol\":3553:3560  _amount */\n      dup4\n        /* \"L3/RccStake.sol\":3536:3540  user */\n      dup2\n        /* \"L3/RccStake.sol\":3536:3549  user.stAmount */\n      0x00\n      add\n        /* \"L3/RccStake.sol\":3536:3560  user.stAmount -= _amount */\n      dup2\n      dup2\n      mload\n      tag_38\n      swap2\n      swap1\n      tag_24\n      jump\t// in\n    tag_38:\n      swap2\n      pop\n      dup2\n      dup2\n      mstore\n      pop\n      pop\n        /* \"L3/RccStake.sol\":3634:3641  _amount */\n      dup4\n        /* \"L3/RccStake.sol\":3612:3616  pool */\n      dup4\n        /* \"L3/RccStake.sol\":3612:3630  pool.stTokenAmount */\n      0x04\n      add\n      0x00\n        /* \"L3/RccStake.sol\":3612:3641  pool.stTokenAmount -= _amount */\n      dup3\n      dup3\n      sload\n      tag_39\n      swap2\n      swap1\n      tag_24\n      jump\t// in\n    tag_39:\n      swap3\n      pop\n      pop\n      dup2\n      swap1\n      sstore\n      pop\n        /* \"L3/RccStake.sol\":3245:3648  {... */\n      pop\n      pop\n      pop\n        /* \"L3/RccStake.sol\":3186:3648  function releasStake(uint256 _pid, uint256 _amount) public {... */\n      pop\n      pop\n      jump\t// out\n        /* \"L3/RccStake.sol\":2198:2805  function stake(uint256 _pid, uint256 _amount) public  {... */\n    tag_16:\n        /* \"L3/RccStake.sol\":2262:2279  Pool storage pool */\n      0x00\n        /* \"L3/RccStake.sol\":2282:2288  _Pools */\n      0x04\n        /* \"L3/RccStake.sol\":2282:2294  _Pools[_pid] */\n      0x00\n        /* \"L3/RccStake.sol\":2289:2293  _pid */\n      dup5\n        /* \"L3/RccStake.sol\":2282:2294  _Pools[_pid] */\n      dup2\n      mstore\n      0x20\n      add\n      swap1\n      dup2\n      mstore\n      0x20\n      add\n      0x00\n      keccak256\n        /* \"L3/RccStake.sol\":2262:2294  Pool storage pool = _Pools[_pid] */\n      swap1\n      pop\n        /* \"L3/RccStake.sol\":2322:2339  User storage user */\n      0x00\n        /* \"L3/RccStake.sol\":2342:2348  _Users */\n      0x05\n        /* \"L3/RccStake.sol\":2342:2369  _Users[address(msg.sender)] */\n      0x00\n        /* \"L3/RccStake.sol\":2357:2367  msg.sender */\n      caller\n        /* \"L3/RccStake.sol\":2342:2369  _Users[address(msg.sender)] */\n      0xffffffffffffffffffffffffffffffffffffffff\n      and\n      0xffffffffffffffffffffffffffffffffffffffff\n      and\n      dup2\n      mstore\n      0x20\n      add\n      swap1\n      dup2\n      mstore\n      0x20\n      add\n      0x00\n      keccak256\n        /* \"L3/RccStake.sol\":2322:2369  User storage user = _Users[address(msg.sender)] */\n      swap1\n      pop\n        /* \"L3/RccStake.sol\":2380:2397  uint256 allowance */\n      0x00\n        /* \"L3/RccStake.sol\":2400:2411  _allowances */\n      dup1\n        /* \"L3/RccStake.sol\":2400:2432  _allowances[address(msg.sender)] */\n      0x00\n        /* \"L3/RccStake.sol\":2420:2430  msg.sender */\n      caller\n        /* \"L3/RccStake.sol\":2400:2432  _allowances[address(msg.sender)] */\n      0xffffffffffffffffffffffffffffffffffffffff\n      and\n      0xffffffffffffffffffffffffffffffffffffffff\n      and\n      dup2\n      mstore\n      0x20\n      add\n      swap1\n      dup2\n      mstore\n      0x20\n      add\n      0x00\n      keccak256\n        /* \"L3/RccStake.sol\":2400:2447  _allowances[address(msg.sender)][address(this)] */\n      0x00\n        /* \"L3/RccStake.sol\":2441:2445  this */\n      address\n        /* \"L3/RccStake.sol\":2400:2447  _allowances[address(msg.sender)][address(this)] */\n      0xffffffffffffffffffffffffffffffffffffffff\n      and\n      0xffffffffffffffffffffffffffffffffffffffff\n      and\n      dup2\n      mstore\n      0x20\n      add\n      swap1\n      dup2\n      mstore\n      0x20\n      add\n      0x00\n      keccak256\n      sload\n        /* \"L3/RccStake.sol\":2380:2447  uint256 allowance = _allowances[address(msg.sender)][address(this)] */\n      swap1\n      pop\n        /* \"L3/RccStake.sol\":2478:2485  _amount */\n      dup4\n        /* \"L3/RccStake.sol\":2465:2474  allowance */\n      dup2\n        /* \"L3/RccStake.sol\":2465:2485  allowance >= _amount */\n      lt\n      iszero\n        /* \"L3/RccStake.sol\":2457:2510  require(allowance >= _amount, \"allowance not enough\") */\n      tag_41\n      jumpi\n      mload(0x40)\n      0x08c379a000000000000000000000000000000000000000000000000000000000\n      dup2\n      mstore\n      0x04\n      add\n      tag_42\n      swap1\n      tag_43\n      jump\t// in\n    tag_42:\n      mload(0x40)\n      dup1\n      swap2\n      sub\n      swap1\n      revert\n    tag_41:\n        /* \"L3/RccStake.sol\":2539:2543  pool */\n      dup3\n        /* \"L3/RccStake.sol\":2539:2560  pool.minDepositAmount */\n      0x05\n      add\n      sload\n        /* \"L3/RccStake.sol\":2528:2535  _amount */\n      dup5\n        /* \"L3/RccStake.sol\":2528:2560  _amount >= pool.minDepositAmount */\n      lt\n      iszero\n        /* \"L3/RccStake.sol\":2520:2588  require(_amount >= pool.minDepositAmount, \"stake amount not enough\") */\n      tag_44\n      jumpi\n      mload(0x40)\n      0x08c379a000000000000000000000000000000000000000000000000000000000\n      dup2\n      mstore\n      0x04\n      add\n      tag_45\n      swap1\n      tag_46\n      jump\t// in\n    tag_45:\n      mload(0x40)\n      dup1\n      swap2\n      sub\n      swap1\n      revert\n    tag_44:\n        /* \"L3/RccStake.sol\":2668:2675  _amount */\n      dup4\n        /* \"L3/RccStake.sol\":2651:2655  user */\n      dup3\n        /* \"L3/RccStake.sol\":2651:2664  user.stAmount */\n      0x00\n      add\n      0x00\n        /* \"L3/RccStake.sol\":2651:2675  user.stAmount += _amount */\n      dup3\n      dup3\n      sload\n      tag_47\n      swap2\n      swap1\n      tag_26\n      jump\t// in\n    tag_47:\n      swap3\n      pop\n      pop\n      dup2\n      swap1\n      sstore\n      pop\n        /* \"L3/RccStake.sol\":2749:2756  _amount */\n      dup4\n        /* \"L3/RccStake.sol\":2727:2731  pool */\n      dup4\n        /* \"L3/RccStake.sol\":2727:2745  pool.stTokenAmount */\n      0x04\n      add\n      0x00\n        /* \"L3/RccStake.sol\":2727:2756  pool.stTokenAmount += _amount */\n      dup3\n      dup3\n      sload\n      tag_48\n      swap2\n      swap1\n      tag_26\n      jump\t// in\n    tag_48:\n      swap3\n      pop\n      pop\n      dup2\n      swap1\n      sstore\n      pop\n        /* \"L3/RccStake.sol\":2252:2805  {... */\n      pop\n      pop\n      pop\n        /* \"L3/RccStake.sol\":2198:2805  function stake(uint256 _pid, uint256 _amount) public  {... */\n      pop\n      pop\n      jump\t// out\n        /* \"#utility.yul\":88:205   */\n    tag_50:\n        /* \"#utility.yul\":197:198   */\n      0x00\n        /* \"#utility.yul\":194:195   */\n      dup1\n        /* \"#utility.yul\":187:199   */\n      revert\n        /* \"#utility.yul\":334:411   */\n    tag_52:\n        /* \"#utility.yul\":371:378   */\n      0x00\n        /* \"#utility.yul\":400:405   */\n      dup2\n        /* \"#utility.yul\":389:405   */\n      swap1\n      pop\n        /* \"#utility.yul\":334:411   */\n      swap2\n      swap1\n      pop\n      jump\t// out\n        /* \"#utility.yul\":417:539   */\n    tag_53:\n        /* \"#utility.yul\":490:514   */\n      tag_71\n        /* \"#utility.yul\":508:513   */\n      dup2\n        /* \"#utility.yul\":490:514   */\n      tag_52\n      jump\t// in\n    tag_71:\n        /* \"#utility.yul\":483:488   */\n      dup2\n        /* \"#utility.yul\":480:515   */\n      eq\n        /* \"#utility.yul\":470:533   */\n      tag_72\n      jumpi\n        /* \"#utility.yul\":529:530   */\n      0x00\n        /* \"#utility.yul\":526:527   */\n      dup1\n        /* \"#utility.yul\":519:531   */\n      revert\n        /* \"#utility.yul\":470:533   */\n    tag_72:\n        /* \"#utility.yul\":417:539   */\n      pop\n      jump\t// out\n        /* \"#utility.yul\":545:684   */\n    tag_54:\n        /* \"#utility.yul\":591:596   */\n      0x00\n        /* \"#utility.yul\":629:635   */\n      dup2\n        /* \"#utility.yul\":616:636   */\n      calldataload\n        /* \"#utility.yul\":607:636   */\n      swap1\n      pop\n        /* \"#utility.yul\":645:678   */\n      tag_74\n        /* \"#utility.yul\":672:677   */\n      dup2\n        /* \"#utility.yul\":645:678   */\n      tag_53\n      jump\t// in\n    tag_74:\n        /* \"#utility.yul\":545:684   */\n      swap3\n      swap2\n      pop\n      pop\n      jump\t// out\n        /* \"#utility.yul\":690:1019   */\n    tag_8:\n        /* \"#utility.yul\":749:755   */\n      0x00\n        /* \"#utility.yul\":798:800   */\n      0x20\n        /* \"#utility.yul\":786:795   */\n      dup3\n        /* \"#utility.yul\":777:784   */\n      dup5\n        /* \"#utility.yul\":773:796   */\n      sub\n        /* \"#utility.yul\":769:801   */\n      slt\n        /* \"#utility.yul\":766:885   */\n      iszero\n      tag_76\n      jumpi\n        /* \"#utility.yul\":804:883   */\n      tag_77\n      tag_50\n      jump\t// in\n    tag_77:\n        /* \"#utility.yul\":766:885   */\n    tag_76:\n        /* \"#utility.yul\":924:925   */\n      0x00\n        /* \"#utility.yul\":949:1002   */\n      tag_78\n        /* \"#utility.yul\":994:1001   */\n      dup5\n        /* \"#utility.yul\":985:991   */\n      dup3\n        /* \"#utility.yul\":974:983   */\n      dup6\n        /* \"#utility.yul\":970:992   */\n      add\n        /* \"#utility.yul\":949:1002   */\n      tag_54\n      jump\t// in\n    tag_78:\n        /* \"#utility.yul\":939:1002   */\n      swap2\n      pop\n        /* \"#utility.yul\":895:1012   */\n      pop\n        /* \"#utility.yul\":690:1019   */\n      swap3\n      swap2\n      pop\n      pop\n      jump\t// out\n        /* \"#utility.yul\":1025:1499   */\n    tag_12:\n        /* \"#utility.yul\":1093:1099   */\n      0x00\n        /* \"#utility.yul\":1101:1107   */\n      dup1\n        /* \"#utility.yul\":1150:1152   */\n      0x40\n        /* \"#utility.yul\":1138:1147   */\n      dup4\n        /* \"#utility.yul\":1129:1136   */\n      dup6\n        /* \"#utility.yul\":1125:1148   */\n      sub\n        /* \"#utility.yul\":1121:1153   */\n      slt\n        /* \"#utility.yul\":1118:1237   */\n      iszero\n      tag_80\n      jumpi\n        /* \"#utility.yul\":1156:1235   */\n      tag_81\n      tag_50\n      jump\t// in\n    tag_81:\n        /* \"#utility.yul\":1118:1237   */\n    tag_80:\n        /* \"#utility.yul\":1276:1277   */\n      0x00\n        /* \"#utility.yul\":1301:1354   */\n      tag_82\n        /* \"#utility.yul\":1346:1353   */\n      dup6\n        /* \"#utility.yul\":1337:1343   */\n      dup3\n        /* \"#utility.yul\":1326:1335   */\n      dup7\n        /* \"#utility.yul\":1322:1344   */\n      add\n        /* \"#utility.yul\":1301:1354   */\n      tag_54\n      jump\t// in\n    tag_82:\n        /* \"#utility.yul\":1291:1354   */\n      swap3\n      pop\n        /* \"#utility.yul\":1247:1364   */\n      pop\n        /* \"#utility.yul\":1403:1405   */\n      0x20\n        /* \"#utility.yul\":1429:1482   */\n      tag_83\n        /* \"#utility.yul\":1474:1481   */\n      dup6\n        /* \"#utility.yul\":1465:1471   */\n      dup3\n        /* \"#utility.yul\":1454:1463   */\n      dup7\n        /* \"#utility.yul\":1450:1472   */\n      add\n        /* \"#utility.yul\":1429:1482   */\n      tag_54\n      jump\t// in\n    tag_83:\n        /* \"#utility.yul\":1419:1482   */\n      swap2\n      pop\n        /* \"#utility.yul\":1374:1492   */\n      pop\n        /* \"#utility.yul\":1025:1499   */\n      swap3\n      pop\n      swap3\n      swap1\n      pop\n      jump\t// out\n        /* \"#utility.yul\":1505:1685   */\n    tag_55:\n        /* \"#utility.yul\":1553:1630   */\n      0x4e487b7100000000000000000000000000000000000000000000000000000000\n        /* \"#utility.yul\":1550:1551   */\n      0x00\n        /* \"#utility.yul\":1543:1631   */\n      mstore\n        /* \"#utility.yul\":1650:1654   */\n      0x11\n        /* \"#utility.yul\":1647:1648   */\n      0x04\n        /* \"#utility.yul\":1640:1655   */\n      mstore\n        /* \"#utility.yul\":1674:1678   */\n      0x24\n        /* \"#utility.yul\":1671:1672   */\n      0x00\n        /* \"#utility.yul\":1664:1679   */\n      revert\n        /* \"#utility.yul\":1691:2101   */\n    tag_22:\n        /* \"#utility.yul\":1731:1738   */\n      0x00\n        /* \"#utility.yul\":1754:1774   */\n      tag_86\n        /* \"#utility.yul\":1772:1773   */\n      dup3\n        /* \"#utility.yul\":1754:1774   */\n      tag_52\n      jump\t// in\n    tag_86:\n        /* \"#utility.yul\":1749:1774   */\n      swap2\n      pop\n        /* \"#utility.yul\":1788:1808   */\n      tag_87\n        /* \"#utility.yul\":1806:1807   */\n      dup4\n        /* \"#utility.yul\":1788:1808   */\n      tag_52\n      jump\t// in\n    tag_87:\n        /* \"#utility.yul\":1783:1808   */\n      swap3\n      pop\n        /* \"#utility.yul\":1843:1844   */\n      dup3\n        /* \"#utility.yul\":1840:1841   */\n      dup3\n        /* \"#utility.yul\":1836:1845   */\n      mul\n        /* \"#utility.yul\":1865:1895   */\n      tag_88\n        /* \"#utility.yul\":1883:1894   */\n      dup2\n        /* \"#utility.yul\":1865:1895   */\n      tag_52\n      jump\t// in\n    tag_88:\n        /* \"#utility.yul\":1854:1895   */\n      swap2\n      pop\n        /* \"#utility.yul\":2044:2045   */\n      dup3\n        /* \"#utility.yul\":2035:2042   */\n      dup3\n        /* \"#utility.yul\":2031:2046   */\n      div\n        /* \"#utility.yul\":2028:2029   */\n      dup5\n        /* \"#utility.yul\":2025:2047   */\n      eq\n        /* \"#utility.yul\":2005:2006   */\n      dup4\n        /* \"#utility.yul\":1998:2007   */\n      iszero\n        /* \"#utility.yul\":1978:2061   */\n      or\n        /* \"#utility.yul\":1955:2094   */\n      tag_89\n      jumpi\n        /* \"#utility.yul\":2074:2092   */\n      tag_90\n      tag_55\n      jump\t// in\n    tag_90:\n        /* \"#utility.yul\":1955:2094   */\n    tag_89:\n        /* \"#utility.yul\":1739:2101   */\n      pop\n        /* \"#utility.yul\":1691:2101   */\n      swap3\n      swap2\n      pop\n      pop\n      jump\t// out\n        /* \"#utility.yul\":2107:2301   */\n    tag_24:\n        /* \"#utility.yul\":2147:2151   */\n      0x00\n        /* \"#utility.yul\":2167:2187   */\n      tag_92\n        /* \"#utility.yul\":2185:2186   */\n      dup3\n        /* \"#utility.yul\":2167:2187   */\n      tag_52\n      jump\t// in\n    tag_92:\n        /* \"#utility.yul\":2162:2187   */\n      swap2\n      pop\n        /* \"#utility.yul\":2201:2221   */\n      tag_93\n        /* \"#utility.yul\":2219:2220   */\n      dup4\n        /* \"#utility.yul\":2201:2221   */\n      tag_52\n      jump\t// in\n    tag_93:\n        /* \"#utility.yul\":2196:2221   */\n      swap3\n      pop\n        /* \"#utility.yul\":2245:2246   */\n      dup3\n        /* \"#utility.yul\":2242:2243   */\n      dup3\n        /* \"#utility.yul\":2238:2247   */\n      sub\n        /* \"#utility.yul\":2230:2247   */\n      swap1\n      pop\n        /* \"#utility.yul\":2269:2270   */\n      dup2\n        /* \"#utility.yul\":2263:2267   */\n      dup2\n        /* \"#utility.yul\":2260:2271   */\n      gt\n        /* \"#utility.yul\":2257:2294   */\n      iszero\n      tag_94\n      jumpi\n        /* \"#utility.yul\":2274:2292   */\n      tag_95\n      tag_55\n      jump\t// in\n    tag_95:\n        /* \"#utility.yul\":2257:2294   */\n    tag_94:\n        /* \"#utility.yul\":2107:2301   */\n      swap3\n      swap2\n      pop\n      pop\n      jump\t// out\n        /* \"#utility.yul\":2307:2498   */\n    tag_26:\n        /* \"#utility.yul\":2347:2350   */\n      0x00\n        /* \"#utility.yul\":2366:2386   */\n      tag_97\n        /* \"#utility.yul\":2384:2385   */\n      dup3\n        /* \"#utility.yul\":2366:2386   */\n      tag_52\n      jump\t// in\n    tag_97:\n        /* \"#utility.yul\":2361:2386   */\n      swap2\n      pop\n        /* \"#utility.yul\":2400:2420   */\n      tag_98\n        /* \"#utility.yul\":2418:2419   */\n      dup4\n        /* \"#utility.yul\":2400:2420   */\n      tag_52\n      jump\t// in\n    tag_98:\n        /* \"#utility.yul\":2395:2420   */\n      swap3\n      pop\n        /* \"#utility.yul\":2443:2444   */\n      dup3\n        /* \"#utility.yul\":2440:2441   */\n      dup3\n        /* \"#utility.yul\":2436:2445   */\n      add\n        /* \"#utility.yul\":2429:2445   */\n      swap1\n      pop\n        /* \"#utility.yul\":2464:2467   */\n      dup1\n        /* \"#utility.yul\":2461:2462   */\n      dup3\n        /* \"#utility.yul\":2458:2468   */\n      gt\n        /* \"#utility.yul\":2455:2491   */\n      iszero\n      tag_99\n      jumpi\n        /* \"#utility.yul\":2471:2489   */\n      tag_100\n      tag_55\n      jump\t// in\n    tag_100:\n        /* \"#utility.yul\":2455:2491   */\n    tag_99:\n        /* \"#utility.yul\":2307:2498   */\n      swap3\n      swap2\n      pop\n      pop\n      jump\t// out\n        /* \"#utility.yul\":2504:2673   */\n    tag_56:\n        /* \"#utility.yul\":2588:2599   */\n      0x00\n        /* \"#utility.yul\":2622:2628   */\n      dup3\n        /* \"#utility.yul\":2617:2620   */\n      dup3\n        /* \"#utility.yul\":2610:2629   */\n      mstore\n        /* \"#utility.yul\":2662:2666   */\n      0x20\n        /* \"#utility.yul\":2657:2660   */\n      dup3\n        /* \"#utility.yul\":2653:2667   */\n      add\n        /* \"#utility.yul\":2638:2667   */\n      swap1\n      pop\n        /* \"#utility.yul\":2504:2673   */\n      swap3\n      swap2\n      pop\n      pop\n      jump\t// out\n        /* \"#utility.yul\":2679:2845   */\n    tag_57:\n        /* \"#utility.yul\":2819:2837   */\n      0x6e6f7468696e6720746f20636c61696d00000000000000000000000000000000\n        /* \"#utility.yul\":2815:2816   */\n      0x00\n        /* \"#utility.yul\":2807:2813   */\n      dup3\n        /* \"#utility.yul\":2803:2817   */\n      add\n        /* \"#utility.yul\":2796:2838   */\n      mstore\n        /* \"#utility.yul\":2679:2845   */\n      pop\n      jump\t// out\n        /* \"#utility.yul\":2851:3217   */\n    tag_58:\n        /* \"#utility.yul\":2993:2996   */\n      0x00\n        /* \"#utility.yul\":3014:3081   */\n      tag_104\n        /* \"#utility.yul\":3078:3080   */\n      0x10\n        /* \"#utility.yul\":3073:3076   */\n      dup4\n        /* \"#utility.yul\":3014:3081   */\n      tag_56\n      jump\t// in\n    tag_104:\n        /* \"#utility.yul\":3007:3081   */\n      swap2\n      pop\n        /* \"#utility.yul\":3090:3183   */\n      tag_105\n        /* \"#utility.yul\":3179:3182   */\n      dup3\n        /* \"#utility.yul\":3090:3183   */\n      tag_57\n      jump\t// in\n    tag_105:\n        /* \"#utility.yul\":3208:3210   */\n      0x20\n        /* \"#utility.yul\":3203:3206   */\n      dup3\n        /* \"#utility.yul\":3199:3211   */\n      add\n        /* \"#utility.yul\":3192:3211   */\n      swap1\n      pop\n        /* \"#utility.yul\":2851:3217   */\n      swap2\n      swap1\n      pop\n      jump\t// out\n        /* \"#utility.yul\":3223:3642   */\n    tag_29:\n        /* \"#utility.yul\":3389:3393   */\n      0x00\n        /* \"#utility.yul\":3427:3429   */\n      0x20\n        /* \"#utility.yul\":3416:3425   */\n      dup3\n        /* \"#utility.yul\":3412:3430   */\n      add\n        /* \"#utility.yul\":3404:3430   */\n      swap1\n      pop\n        /* \"#utility.yul\":3476:3485   */\n      dup2\n        /* \"#utility.yul\":3470:3474   */\n      dup2\n        /* \"#utility.yul\":3466:3486   */\n      sub\n        /* \"#utility.yul\":3462:3463   */\n      0x00\n        /* \"#utility.yul\":3451:3460   */\n      dup4\n        /* \"#utility.yul\":3447:3464   */\n      add\n        /* \"#utility.yul\":3440:3487   */\n      mstore\n        /* \"#utility.yul\":3504:3635   */\n      tag_107\n        /* \"#utility.yul\":3630:3634   */\n      dup2\n        /* \"#utility.yul\":3504:3635   */\n      tag_58\n      jump\t// in\n    tag_107:\n        /* \"#utility.yul\":3496:3635   */\n      swap1\n      pop\n        /* \"#utility.yul\":3223:3642   */\n      swap2\n      swap1\n      pop\n      jump\t// out\n        /* \"#utility.yul\":3648:3818   */\n    tag_59:\n        /* \"#utility.yul\":3788:3810   */\n      0x757365725374616b65206e6f7420656e6f756768000000000000000000000000\n        /* \"#utility.yul\":3784:3785   */\n      0x00\n        /* \"#utility.yul\":3776:3782   */\n      dup3\n        /* \"#utility.yul\":3772:3786   */\n      add\n        /* \"#utility.yul\":3765:3811   */\n      mstore\n        /* \"#utility.yul\":3648:3818   */\n      pop\n      jump\t// out\n        /* \"#utility.yul\":3824:4190   */\n    tag_60:\n        /* \"#utility.yul\":3966:3969   */\n      0x00\n        /* \"#utility.yul\":3987:4054   */\n      tag_110\n        /* \"#utility.yul\":4051:4053   */\n      0x14\n        /* \"#utility.yul\":4046:4049   */\n      dup4\n        /* \"#utility.yul\":3987:4054   */\n      tag_56\n      jump\t// in\n    tag_110:\n        /* \"#utility.yul\":3980:4054   */\n      swap2\n      pop\n        /* \"#utility.yul\":4063:4156   */\n      tag_111\n        /* \"#utility.yul\":4152:4155   */\n      dup3\n        /* \"#utility.yul\":4063:4156   */\n      tag_59\n      jump\t// in\n    tag_111:\n        /* \"#utility.yul\":4181:4183   */\n      0x20\n        /* \"#utility.yul\":4176:4179   */\n      dup3\n        /* \"#utility.yul\":4172:4184   */\n      add\n        /* \"#utility.yul\":4165:4184   */\n      swap1\n      pop\n        /* \"#utility.yul\":3824:4190   */\n      swap2\n      swap1\n      pop\n      jump\t// out\n        /* \"#utility.yul\":4196:4615   */\n    tag_34:\n        /* \"#utility.yul\":4362:4366   */\n      0x00\n        /* \"#utility.yul\":4400:4402   */\n      0x20\n        /* \"#utility.yul\":4389:4398   */\n      dup3\n        /* \"#utility.yul\":4385:4403   */\n      add\n        /* \"#utility.yul\":4377:4403   */\n      swap1\n      pop\n        /* \"#utility.yul\":4449:4458   */\n      dup2\n        /* \"#utility.yul\":4443:4447   */\n      dup2\n        /* \"#utility.yul\":4439:4459   */\n      sub\n        /* \"#utility.yul\":4435:4436   */\n      0x00\n        /* \"#utility.yul\":4424:4433   */\n      dup4\n        /* \"#utility.yul\":4420:4437   */\n      add\n        /* \"#utility.yul\":4413:4460   */\n      mstore\n        /* \"#utility.yul\":4477:4608   */\n      tag_113\n        /* \"#utility.yul\":4603:4607   */\n      dup2\n        /* \"#utility.yul\":4477:4608   */\n      tag_60\n      jump\t// in\n    tag_113:\n        /* \"#utility.yul\":4469:4608   */\n      swap1\n      pop\n        /* \"#utility.yul\":4196:4615   */\n      swap2\n      swap1\n      pop\n      jump\t// out\n        /* \"#utility.yul\":4621:4791   */\n    tag_61:\n        /* \"#utility.yul\":4761:4783   */\n      0x616c6c6f77616e6365206e6f7420656e6f756768000000000000000000000000\n        /* \"#utility.yul\":4757:4758   */\n      0x00\n        /* \"#utility.yul\":4749:4755   */\n      dup3\n        /* \"#utility.yul\":4745:4759   */\n      add\n        /* \"#utility.yul\":4738:4784   */\n      mstore\n        /* \"#utility.yul\":4621:4791   */\n      pop\n      jump\t// out\n        /* \"#utility.yul\":4797:5163   */\n    tag_62:\n        /* \"#utility.yul\":4939:4942   */\n      0x00\n        /* \"#utility.yul\":4960:5027   */\n      tag_116\n        /* \"#utility.yul\":5024:5026   */\n      0x14\n        /* \"#utility.yul\":5019:5022   */\n      dup4\n        /* \"#utility.yul\":4960:5027   */\n      tag_56\n      jump\t// in\n    tag_116:\n        /* \"#utility.yul\":4953:5027   */\n      swap2\n      pop\n        /* \"#utility.yul\":5036:5129   */\n      tag_117\n        /* \"#utility.yul\":5125:5128   */\n      dup3\n        /* \"#utility.yul\":5036:5129   */\n      tag_61\n      jump\t// in\n    tag_117:\n        /* \"#utility.yul\":5154:5156   */\n      0x20\n        /* \"#utility.yul\":5149:5152   */\n      dup3\n        /* \"#utility.yul\":5145:5157   */\n      add\n        /* \"#utility.yul\":5138:5157   */\n      swap1\n      pop\n        /* \"#utility.yul\":4797:5163   */\n      swap2\n      swap1\n      pop\n      jump\t// out\n        /* \"#utility.yul\":5169:5588   */\n    tag_43:\n        /* \"#utility.yul\":5335:5339   */\n      0x00\n        /* \"#utility.yul\":5373:5375   */\n      0x20\n        /* \"#utility.yul\":5362:5371   */\n      dup3\n        /* \"#utility.yul\":5358:5376   */\n      add\n        /* \"#utility.yul\":5350:5376   */\n      swap1\n      pop\n        /* \"#utility.yul\":5422:5431   */\n      dup2\n        /* \"#utility.yul\":5416:5420   */\n      dup2\n        /* \"#utility.yul\":5412:5432   */\n      sub\n        /* \"#utility.yul\":5408:5409   */\n      0x00\n        /* \"#utility.yul\":5397:5406   */\n      dup4\n        /* \"#utility.yul\":5393:5410   */\n      add\n        /* \"#utility.yul\":5386:5433   */\n      mstore\n        /* \"#utility.yul\":5450:5581   */\n      tag_119\n        /* \"#utility.yul\":5576:5580   */\n      dup2\n        /* \"#utility.yul\":5450:5581   */\n      tag_62\n      jump\t// in\n    tag_119:\n        /* \"#utility.yul\":5442:5581   */\n      swap1\n      pop\n        /* \"#utility.yul\":5169:5588   */\n      swap2\n      swap1\n      pop\n      jump\t// out\n        /* \"#utility.yul\":5594:5767   */\n    tag_63:\n        /* \"#utility.yul\":5734:5759   */\n      0x7374616b6520616d6f756e74206e6f7420656e6f756768000000000000000000\n        /* \"#utility.yul\":5730:5731   */\n      0x00\n        /* \"#utility.yul\":5722:5728   */\n      dup3\n        /* \"#utility.yul\":5718:5732   */\n      add\n        /* \"#utility.yul\":5711:5760   */\n      mstore\n        /* \"#utility.yul\":5594:5767   */\n      pop\n      jump\t// out\n        /* \"#utility.yul\":5773:6139   */\n    tag_64:\n        /* \"#utility.yul\":5915:5918   */\n      0x00\n        /* \"#utility.yul\":5936:6003   */\n      tag_122\n        /* \"#utility.yul\":6000:6002   */\n      0x17\n        /* \"#utility.yul\":5995:5998   */\n      dup4\n        /* \"#utility.yul\":5936:6003   */\n      tag_56\n      jump\t// in\n    tag_122:\n        /* \"#utility.yul\":5929:6003   */\n      swap2\n      pop\n        /* \"#utility.yul\":6012:6105   */\n      tag_123\n        /* \"#utility.yul\":6101:6104   */\n      dup3\n        /* \"#utility.yul\":6012:6105   */\n      tag_63\n      jump\t// in\n    tag_123:\n        /* \"#utility.yul\":6130:6132   */\n      0x20\n        /* \"#utility.yul\":6125:6128   */\n      dup3\n        /* \"#utility.yul\":6121:6133   */\n      add\n        /* \"#utility.yul\":6114:6133   */\n      swap1\n      pop\n        /* \"#utility.yul\":5773:6139   */\n      swap2\n      swap1\n      pop\n      jump\t// out\n        /* \"#utility.yul\":6145:6564   */\n    tag_46:\n        /* \"#utility.yul\":6311:6315   */\n      0x00\n        /* \"#utility.yul\":6349:6351   */\n      0x20\n        /* \"#utility.yul\":6338:6347   */\n      dup3\n        /* \"#utility.yul\":6334:6352   */\n      add\n        /* \"#utility.yul\":6326:6352   */\n      swap1\n      pop\n        /* \"#utility.yul\":6398:6407   */\n      dup2\n        /* \"#utility.yul\":6392:6396   */\n      dup2\n        /* \"#utility.yul\":6388:6408   */\n      sub\n        /* \"#utility.yul\":6384:6385   */\n      0x00\n        /* \"#utility.yul\":6373:6382   */\n      dup4\n        /* \"#utility.yul\":6369:6386   */\n      add\n        /* \"#utility.yul\":6362:6409   */\n      mstore\n        /* \"#utility.yul\":6426:6557   */\n      tag_125\n        /* \"#utility.yul\":6552:6556   */\n      dup2\n        /* \"#utility.yul\":6426:6557   */\n      tag_64\n      jump\t// in\n    tag_125:\n        /* \"#utility.yul\":6418:6557   */\n      swap1\n      pop\n        /* \"#utility.yul\":6145:6564   */\n      swap2\n      swap1\n      pop\n      jump\t// out\n\n    auxdata: 0xa26469706673582212204acbb193ec8b90777f79ff9794cc01cb34aeba3fa6610c3ce98a8feae5129bbc64736f6c63430008190033\n}\n",
				"bytecode": {
					"linkReferences": {},
					"object": "608060405260646003553480156013575f80fd5b50610959806100215f395ff3fe608060405234801561000f575f80fd5b506004361061003f575f3560e01c8063379607f5146100435780635ab78f1a1461005f5780637b0472f01461007b575b5f80fd5b61005d60048036038101906100589190610636565b610097565b005b61007960048036038101906100749190610661565b6102b5565b005b61009560048036038101906100909190610661565b61046c565b005b5f60045f8381526020019081526020015f206040518060e00160405290815f82015f9054906101000a900473ffffffffffffffffffffffffffffffffffffffff1673ffffffffffffffffffffffffffffffffffffffff1673ffffffffffffffffffffffffffffffffffffffff168152602001600182015481526020016002820154815260200160038201548152602001600482015481526020016005820154815260200160068201548152505090505f60055f3373ffffffffffffffffffffffffffffffffffffffff1673ffffffffffffffffffffffffffffffffffffffff1681526020019081526020015f206040518060800160405290815f8201548152602001600182015481526020016002820154815260200160038201805480602002602001604051908101604052809291908181526020015f905b82821015610213578382905f5260205f2090600202016040518060400160405290815f8201548152602001600182015481525050815260200190600101906101d0565b505050508152505090505f81604001518260200151835f0151856060015161023b91906106cc565b610245919061070d565b61024f9190610740565b90505f8111610293576040517f08c379a000000000000000000000000000000000000000000000000000000000815260040161028a906107cd565b60405180910390fd5b815f015183606001516102a691906106cc565b82602001818152505050505050565b5f60045f8481526020019081526020015f2090505f60015f8581526020019081526020015f205f3373ffffffffffffffffffffffffffffffffffffffff1673ffffffffffffffffffffffffffffffffffffffff1681526020019081526020015f205490508281101561035c576040517f08c379a000000000000000000000000000000000000000000000000000000000815260040161035390610835565b60405180910390fd5b5f60055f3373ffffffffffffffffffffffffffffffffffffffff1673ffffffffffffffffffffffffffffffffffffffff1681526020019081526020015f206040518060800160405290815f8201548152602001600182015481526020016002820154815260200160038201805480602002602001604051908101604052809291908181526020015f905b82821015610429578382905f5260205f2090600202016040518060400160405290815f8201548152602001600182015481525050815260200190600101906103e6565b5050505081525050905083815f01818151610444919061070d565b9150818152505083836004015f82825461045e919061070d565b925050819055505050505050565b5f60045f8481526020019081526020015f2090505f60055f3373ffffffffffffffffffffffffffffffffffffffff1673ffffffffffffffffffffffffffffffffffffffff1681526020019081526020015f2090505f805f3373ffffffffffffffffffffffffffffffffffffffff1673ffffffffffffffffffffffffffffffffffffffff1681526020019081526020015f205f3073ffffffffffffffffffffffffffffffffffffffff1673ffffffffffffffffffffffffffffffffffffffff1681526020019081526020015f205490508381101561057e576040517f08c379a00000000000000000000000000000000000000000000000000000000081526004016105759061089d565b60405180910390fd5b82600501548410156105c5576040517f08c379a00000000000000000000000000000000000000000000000000000000081526004016105bc90610905565b60405180910390fd5b83825f015f8282546105d79190610740565b9250508190555083836004015f8282546105f19190610740565b925050819055505050505050565b5f80fd5b5f819050919050565b61061581610603565b811461061f575f80fd5b50565b5f813590506106308161060c565b92915050565b5f6020828403121561064b5761064a6105ff565b5b5f61065884828501610622565b91505092915050565b5f8060408385031215610677576106766105ff565b5b5f61068485828601610622565b925050602061069585828601610622565b9150509250929050565b7f4e487b71000000000000000000000000000000000000000000000000000000005f52601160045260245ffd5b5f6106d682610603565b91506106e183610603565b92508282026106ef81610603565b915082820484148315176107065761070561069f565b5b5092915050565b5f61071782610603565b915061072283610603565b925082820390508181111561073a5761073961069f565b5b92915050565b5f61074a82610603565b915061075583610603565b925082820190508082111561076d5761076c61069f565b5b92915050565b5f82825260208201905092915050565b7f6e6f7468696e6720746f20636c61696d000000000000000000000000000000005f82015250565b5f6107b7601083610773565b91506107c282610783565b602082019050919050565b5f6020820190508181035f8301526107e4816107ab565b9050919050565b7f757365725374616b65206e6f7420656e6f7567680000000000000000000000005f82015250565b5f61081f601483610773565b915061082a826107eb565b602082019050919050565b5f6020820190508181035f83015261084c81610813565b9050919050565b7f616c6c6f77616e6365206e6f7420656e6f7567680000000000000000000000005f82015250565b5f610887601483610773565b915061089282610853565b602082019050919050565b5f6020820190508181035f8301526108b48161087b565b9050919050565b7f7374616b6520616d6f756e74206e6f7420656e6f7567680000000000000000005f82015250565b5f6108ef601783610773565b91506108fa826108bb565b602082019050919050565b5f6020820190508181035f83015261091c816108e3565b905091905056fea26469706673582212204acbb193ec8b90777f79ff9794cc01cb34aeba3fa6610c3ce98a8feae5129bbc64736f6c63430008190033",
					"opcodes": "PUSH1 0x80 PUSH1 0x40 MSTORE PUSH1 0x64 PUSH1 0x3 SSTORE CALLVALUE DUP1 ISZERO PUSH1 0x13 JUMPI PUSH0 DUP1 REVERT JUMPDEST POP PUSH2 0x959 DUP1 PUSH2 0x21 PUSH0 CODECOPY PUSH0 RETURN INVALID PUSH1 0x80 PUSH1 0x40 MSTORE CALLVALUE DUP1 ISZERO PUSH2 0xF JUMPI PUSH0 DUP1 REVERT JUMPDEST POP PUSH1 0x4 CALLDATASIZE LT PUSH2 0x3F JUMPI PUSH0 CALLDATALOAD PUSH1 0xE0 SHR DUP1 PUSH4 0x379607F5 EQ PUSH2 0x43 JUMPI DUP1 PUSH4 0x5AB78F1A EQ PUSH2 0x5F JUMPI DUP1 PUSH4 0x7B0472F0 EQ PUSH2 0x7B JUMPI JUMPDEST PUSH0 DUP1 REVERT JUMPDEST PUSH2 0x5D PUSH1 0x4 DUP1 CALLDATASIZE SUB DUP2 ADD SWAP1 PUSH2 0x58 SWAP2 SWAP1 PUSH2 0x636 JUMP JUMPDEST PUSH2 0x97 JUMP JUMPDEST STOP JUMPDEST PUSH2 0x79 PUSH1 0x4 DUP1 CALLDATASIZE SUB DUP2 ADD SWAP1 PUSH2 0x74 SWAP2 SWAP1 PUSH2 0x661 JUMP JUMPDEST PUSH2 0x2B5 JUMP JUMPDEST STOP JUMPDEST PUSH2 0x95 PUSH1 0x4 DUP1 CALLDATASIZE SUB DUP2 ADD SWAP1 PUSH2 0x90 SWAP2 SWAP1 PUSH2 0x661 JUMP JUMPDEST PUSH2 0x46C JUMP JUMPDEST STOP JUMPDEST PUSH0 PUSH1 0x4 PUSH0 DUP4 DUP2 MSTORE PUSH1 0x20 ADD SWAP1 DUP2 MSTORE PUSH1 0x20 ADD PUSH0 KECCAK256 PUSH1 0x40 MLOAD DUP1 PUSH1 0xE0 ADD PUSH1 0x40 MSTORE SWAP1 DUP2 PUSH0 DUP3 ADD PUSH0 SWAP1 SLOAD SWAP1 PUSH2 0x100 EXP SWAP1 DIV PUSH20 0xFFFFFFFFFFFFFFFFFFFFFFFFFFFFFFFFFFFFFFFF AND PUSH20 0xFFFFFFFFFFFFFFFFFFFFFFFFFFFFFFFFFFFFFFFF AND PUSH20 0xFFFFFFFFFFFFFFFFFFFFFFFFFFFFFFFFFFFFFFFF AND DUP2 MSTORE PUSH1 0x20 ADD PUSH1 0x1 DUP3 ADD SLOAD DUP2 MSTORE PUSH1 0x20 ADD PUSH1 0x2 DUP3 ADD SLOAD DUP2 MSTORE PUSH1 0x20 ADD PUSH1 0x3 DUP3 ADD SLOAD DUP2 MSTORE PUSH1 0x20 ADD PUSH1 0x4 DUP3 ADD SLOAD DUP2 MSTORE PUSH1 0x20 ADD PUSH1 0x5 DUP3 ADD SLOAD DUP2 MSTORE PUSH1 0x20 ADD PUSH1 0x6 DUP3 ADD SLOAD DUP2 MSTORE POP POP SWAP1 POP PUSH0 PUSH1 0x5 PUSH0 CALLER PUSH20 0xFFFFFFFFFFFFFFFFFFFFFFFFFFFFFFFFFFFFFFFF AND PUSH20 0xFFFFFFFFFFFFFFFFFFFFFFFFFFFFFFFFFFFFFFFF AND DUP2 MSTORE PUSH1 0x20 ADD SWAP1 DUP2 MSTORE PUSH1 0x20 ADD PUSH0 KECCAK256 PUSH1 0x40 MLOAD DUP1 PUSH1 0x80 ADD PUSH1 0x40 MSTORE SWAP1 DUP2 PUSH0 DUP3 ADD SLOAD DUP2 MSTORE PUSH1 0x20 ADD PUSH1 0x1 DUP3 ADD SLOAD DUP2 MSTORE PUSH1 0x20 ADD PUSH1 0x2 DUP3 ADD SLOAD DUP2 MSTORE PUSH1 0x20 ADD PUSH1 0x3 DUP3 ADD DUP1 SLOAD DUP1 PUSH1 0x20 MUL PUSH1 0x20 ADD PUSH1 0x40 MLOAD SWAP1 DUP2 ADD PUSH1 0x40 MSTORE DUP1 SWAP3 SWAP2 SWAP1 DUP2 DUP2 MSTORE PUSH1 0x20 ADD PUSH0 SWAP1 JUMPDEST DUP3 DUP3 LT ISZERO PUSH2 0x213 JUMPI DUP4 DUP3 SWAP1 PUSH0 MSTORE PUSH1 0x20 PUSH0 KECCAK256 SWAP1 PUSH1 0x2 MUL ADD PUSH1 0x40 MLOAD DUP1 PUSH1 0x40 ADD PUSH1 0x40 MSTORE SWAP1 DUP2 PUSH0 DUP3 ADD SLOAD DUP2 MSTORE PUSH1 0x20 ADD PUSH1 0x1 DUP3 ADD SLOAD DUP2 MSTORE POP POP DUP2 MSTORE PUSH1 0x20 ADD SWAP1 PUSH1 0x1 ADD SWAP1 PUSH2 0x1D0 JUMP JUMPDEST POP POP POP POP DUP2 MSTORE POP POP SWAP1 POP PUSH0 DUP2 PUSH1 0x40 ADD MLOAD DUP3 PUSH1 0x20 ADD MLOAD DUP4 PUSH0 ADD MLOAD DUP6 PUSH1 0x60 ADD MLOAD PUSH2 0x23B SWAP2 SWAP1 PUSH2 0x6CC JUMP JUMPDEST PUSH2 0x245 SWAP2 SWAP1 PUSH2 0x70D JUMP JUMPDEST PUSH2 0x24F SWAP2 SWAP1 PUSH2 0x740 JUMP JUMPDEST SWAP1 POP PUSH0 DUP2 GT PUSH2 0x293 JUMPI PUSH1 0x40 MLOAD PUSH32 0x8C379A000000000000000000000000000000000000000000000000000000000 DUP2 MSTORE PUSH1 0x4 ADD PUSH2 0x28A SWAP1 PUSH2 0x7CD JUMP JUMPDEST PUSH1 0x40 MLOAD DUP1 SWAP2 SUB SWAP1 REVERT JUMPDEST DUP2 PUSH0 ADD MLOAD DUP4 PUSH1 0x60 ADD MLOAD PUSH2 0x2A6 SWAP2 SWAP1 PUSH2 0x6CC JUMP JUMPDEST DUP3 PUSH1 0x20 ADD DUP2 DUP2 MSTORE POP POP POP POP POP POP JUMP JUMPDEST PUSH0 PUSH1 0x4 PUSH0 DUP5 DUP2 MSTORE PUSH1 0x20 ADD SWAP1 DUP2 MSTORE PUSH1 0x20 ADD PUSH0 KECCAK256 SWAP1 POP PUSH0 PUSH1 0x1 PUSH0 DUP6 DUP2 MSTORE PUSH1 0x20 ADD SWAP1 DUP2 MSTORE PUSH1 0x20 ADD PUSH0 KECCAK256 PUSH0 CALLER PUSH20 0xFFFFFFFFFFFFFFFFFFFFFFFFFFFFFFFFFFFFFFFF AND PUSH20 0xFFFFFFFFFFFFFFFFFFFFFFFFFFFFFFFFFFFFFFFF AND DUP2 MSTORE PUSH1 0x20 ADD SWAP1 DUP2 MSTORE PUSH1 0x20 ADD PUSH0 KECCAK256 SLOAD SWAP1 POP DUP3 DUP2 LT ISZERO PUSH2 0x35C JUMPI PUSH1 0x40 MLOAD PUSH32 0x8C379A000000000000000000000000000000000000000000000000000000000 DUP2 MSTORE PUSH1 0x4 ADD PUSH2 0x353 SWAP1 PUSH2 0x835 JUMP JUMPDEST PUSH1 0x40 MLOAD DUP1 SWAP2 SUB SWAP1 REVERT JUMPDEST PUSH0 PUSH1 0x5 PUSH0 CALLER PUSH20 0xFFFFFFFFFFFFFFFFFFFFFFFFFFFFFFFFFFFFFFFF AND PUSH20 0xFFFFFFFFFFFFFFFFFFFFFFFFFFFFFFFFFFFFFFFF AND DUP2 MSTORE PUSH1 0x20 ADD SWAP1 DUP2 MSTORE PUSH1 0x20 ADD PUSH0 KECCAK256 PUSH1 0x40 MLOAD DUP1 PUSH1 0x80 ADD PUSH1 0x40 MSTORE SWAP1 DUP2 PUSH0 DUP3 ADD SLOAD DUP2 MSTORE PUSH1 0x20 ADD PUSH1 0x1 DUP3 ADD SLOAD DUP2 MSTORE PUSH1 0x20 ADD PUSH1 0x2 DUP3 ADD SLOAD DUP2 MSTORE PUSH1 0x20 ADD PUSH1 0x3 DUP3 ADD DUP1 SLOAD DUP1 PUSH1 0x20 MUL PUSH1 0x20 ADD PUSH1 0x40 MLOAD SWAP1 DUP2 ADD PUSH1 0x40 MSTORE DUP1 SWAP3 SWAP2 SWAP1 DUP2 DUP2 MSTORE PUSH1 0x20 ADD PUSH0 SWAP1 JUMPDEST DUP3 DUP3 LT ISZERO PUSH2 0x429 JUMPI DUP4 DUP3 SWAP1 PUSH0 MSTORE PUSH1 0x20 PUSH0 KECCAK256 SWAP1 PUSH1 0x2 MUL ADD PUSH1 0x40 MLOAD DUP1 PUSH1 0x40 ADD PUSH1 0x40 MSTORE SWAP1 DUP2 PUSH0 DUP3 ADD SLOAD DUP2 MSTORE PUSH1 0x20 ADD PUSH1 0x1 DUP3 ADD SLOAD DUP2 MSTORE POP POP DUP2 MSTORE PUSH1 0x20 ADD SWAP1 PUSH1 0x1 ADD SWAP1 PUSH2 0x3E6 JUMP JUMPDEST POP POP POP POP DUP2 MSTORE POP POP SWAP1 POP DUP4 DUP2 PUSH0 ADD DUP2 DUP2 MLOAD PUSH2 0x444 SWAP2 SWAP1 PUSH2 0x70D JUMP JUMPDEST SWAP2 POP DUP2 DUP2 MSTORE POP POP DUP4 DUP4 PUSH1 0x4 ADD PUSH0 DUP3 DUP3 SLOAD PUSH2 0x45E SWAP2 SWAP1 PUSH2 0x70D JUMP JUMPDEST SWAP3 POP POP DUP2 SWAP1 SSTORE POP POP POP POP POP POP JUMP JUMPDEST PUSH0 PUSH1 0x4 PUSH0 DUP5 DUP2 MSTORE PUSH1 0x20 ADD SWAP1 DUP2 MSTORE PUSH1 0x20 ADD PUSH0 KECCAK256 SWAP1 POP PUSH0 PUSH1 0x5 PUSH0 CALLER PUSH20 0xFFFFFFFFFFFFFFFFFFFFFFFFFFFFFFFFFFFFFFFF AND PUSH20 0xFFFFFFFFFFFFFFFFFFFFFFFFFFFFFFFFFFFFFFFF AND DUP2 MSTORE PUSH1 0x20 ADD SWAP1 DUP2 MSTORE PUSH1 0x20 ADD PUSH0 KECCAK256 SWAP1 POP PUSH0 DUP1 PUSH0 CALLER PUSH20 0xFFFFFFFFFFFFFFFFFFFFFFFFFFFFFFFFFFFFFFFF AND PUSH20 0xFFFFFFFFFFFFFFFFFFFFFFFFFFFFFFFFFFFFFFFF AND DUP2 MSTORE PUSH1 0x20 ADD SWAP1 DUP2 MSTORE PUSH1 0x20 ADD PUSH0 KECCAK256 PUSH0 ADDRESS PUSH20 0xFFFFFFFFFFFFFFFFFFFFFFFFFFFFFFFFFFFFFFFF AND PUSH20 0xFFFFFFFFFFFFFFFFFFFFFFFFFFFFFFFFFFFFFFFF AND DUP2 MSTORE PUSH1 0x20 ADD SWAP1 DUP2 MSTORE PUSH1 0x20 ADD PUSH0 KECCAK256 SLOAD SWAP1 POP DUP4 DUP2 LT ISZERO PUSH2 0x57E JUMPI PUSH1 0x40 MLOAD PUSH32 0x8C379A000000000000000000000000000000000000000000000000000000000 DUP2 MSTORE PUSH1 0x4 ADD PUSH2 0x575 SWAP1 PUSH2 0x89D JUMP JUMPDEST PUSH1 0x40 MLOAD DUP1 SWAP2 SUB SWAP1 REVERT JUMPDEST DUP3 PUSH1 0x5 ADD SLOAD DUP5 LT ISZERO PUSH2 0x5C5 JUMPI PUSH1 0x40 MLOAD PUSH32 0x8C379A000000000000000000000000000000000000000000000000000000000 DUP2 MSTORE PUSH1 0x4 ADD PUSH2 0x5BC SWAP1 PUSH2 0x905 JUMP JUMPDEST PUSH1 0x40 MLOAD DUP1 SWAP2 SUB SWAP1 REVERT JUMPDEST DUP4 DUP3 PUSH0 ADD PUSH0 DUP3 DUP3 SLOAD PUSH2 0x5D7 SWAP2 SWAP1 PUSH2 0x740 JUMP JUMPDEST SWAP3 POP POP DUP2 SWAP1 SSTORE POP DUP4 DUP4 PUSH1 0x4 ADD PUSH0 DUP3 DUP3 SLOAD PUSH2 0x5F1 SWAP2 SWAP1 PUSH2 0x740 JUMP JUMPDEST SWAP3 POP POP DUP2 SWAP1 SSTORE POP POP POP POP POP POP JUMP JUMPDEST PUSH0 DUP1 REVERT JUMPDEST PUSH0 DUP2 SWAP1 POP SWAP2 SWAP1 POP JUMP JUMPDEST PUSH2 0x615 DUP2 PUSH2 0x603 JUMP JUMPDEST DUP2 EQ PUSH2 0x61F JUMPI PUSH0 DUP1 REVERT JUMPDEST POP JUMP JUMPDEST PUSH0 DUP2 CALLDATALOAD SWAP1 POP PUSH2 0x630 DUP2 PUSH2 0x60C JUMP JUMPDEST SWAP3 SWAP2 POP POP JUMP JUMPDEST PUSH0 PUSH1 0x20 DUP3 DUP5 SUB SLT ISZERO PUSH2 0x64B JUMPI PUSH2 0x64A PUSH2 0x5FF JUMP JUMPDEST JUMPDEST PUSH0 PUSH2 0x658 DUP5 DUP3 DUP6 ADD PUSH2 0x622 JUMP JUMPDEST SWAP2 POP POP SWAP3 SWAP2 POP POP JUMP JUMPDEST PUSH0 DUP1 PUSH1 0x40 DUP4 DUP6 SUB SLT ISZERO PUSH2 0x677 JUMPI PUSH2 0x676 PUSH2 0x5FF JUMP JUMPDEST JUMPDEST PUSH0 PUSH2 0x684 DUP6 DUP3 DUP7 ADD PUSH2 0x622 JUMP JUMPDEST SWAP3 POP POP PUSH1 0x20 PUSH2 0x695 DUP6 DUP3 DUP7 ADD PUSH2 0x622 JUMP JUMPDEST SWAP2 POP POP SWAP3 POP SWAP3 SWAP1 POP JUMP JUMPDEST PUSH32 0x4E487B7100000000000000000000000000000000000000000000000000000000 PUSH0 MSTORE PUSH1 0x11 PUSH1 0x4 MSTORE PUSH1 0x24 PUSH0 REVERT JUMPDEST PUSH0 PUSH2 0x6D6 DUP3 PUSH2 0x603 JUMP JUMPDEST SWAP2 POP PUSH2 0x6E1 DUP4 PUSH2 0x603 JUMP JUMPDEST SWAP3 POP DUP3 DUP3 MUL PUSH2 0x6EF DUP2 PUSH2 0x603 JUMP JUMPDEST SWAP2 POP DUP3 DUP3 DIV DUP5 EQ DUP4 ISZERO OR PUSH2 0x706 JUMPI PUSH2 0x705 PUSH2 0x69F JUMP JUMPDEST JUMPDEST POP SWAP3 SWAP2 POP POP JUMP JUMPDEST PUSH0 PUSH2 0x717 DUP3 PUSH2 0x603 JUMP JUMPDEST SWAP2 POP PUSH2 0x722 DUP4 PUSH2 0x603 JUMP JUMPDEST SWAP3 POP DUP3 DUP3 SUB SWAP1 POP DUP2 DUP2 GT ISZERO PUSH2 0x73A JUMPI PUSH2 0x739 PUSH2 0x69F JUMP JUMPDEST JUMPDEST SWAP3 SWAP2 POP POP JUMP JUMPDEST PUSH0 PUSH2 0x74A DUP3 PUSH2 0x603 JUMP JUMPDEST SWAP2 POP PUSH2 0x755 DUP4 PUSH2 0x603 JUMP JUMPDEST SWAP3 POP DUP3 DUP3 ADD SWAP1 POP DUP1 DUP3 GT ISZERO PUSH2 0x76D JUMPI PUSH2 0x76C PUSH2 0x69F JUMP JUMPDEST JUMPDEST SWAP3 SWAP2 POP POP JUMP JUMPDEST PUSH0 DUP3 DUP3 MSTORE PUSH1 0x20 DUP3 ADD SWAP1 POP SWAP3 SWAP2 POP POP JUMP JUMPDEST PUSH32 0x6E6F7468696E6720746F20636C61696D00000000000000000000000000000000 PUSH0 DUP3 ADD MSTORE POP JUMP JUMPDEST PUSH0 PUSH2 0x7B7 PUSH1 0x10 DUP4 PUSH2 0x773 JUMP JUMPDEST SWAP2 POP PUSH2 0x7C2 DUP3 PUSH2 0x783 JUMP JUMPDEST PUSH1 0x20 DUP3 ADD SWAP1 POP SWAP2 SWAP1 POP JUMP JUMPDEST PUSH0 PUSH1 0x20 DUP3 ADD SWAP1 POP DUP2 DUP2 SUB PUSH0 DUP4 ADD MSTORE PUSH2 0x7E4 DUP2 PUSH2 0x7AB JUMP JUMPDEST SWAP1 POP SWAP2 SWAP1 POP JUMP JUMPDEST PUSH32 0x757365725374616B65206E6F7420656E6F756768000000000000000000000000 PUSH0 DUP3 ADD MSTORE POP JUMP JUMPDEST PUSH0 PUSH2 0x81F PUSH1 0x14 DUP4 PUSH2 0x773 JUMP JUMPDEST SWAP2 POP PUSH2 0x82A DUP3 PUSH2 0x7EB JUMP JUMPDEST PUSH1 0x20 DUP3 ADD SWAP1 POP SWAP2 SWAP1 POP JUMP JUMPDEST PUSH0 PUSH1 0x20 DUP3 ADD SWAP1 POP DUP2 DUP2 SUB PUSH0 DUP4 ADD MSTORE PUSH2 0x84C DUP2 PUSH2 0x813 JUMP JUMPDEST SWAP1 POP SWAP2 SWAP1 POP JUMP JUMPDEST PUSH32 0x616C6C6F77616E6365206E6F7420656E6F756768000000000000000000000000 PUSH0 DUP3 ADD MSTORE POP JUMP JUMPDEST PUSH0 PUSH2 0x887 PUSH1 0x14 DUP4 PUSH2 0x773 JUMP JUMPDEST SWAP2 POP PUSH2 0x892 DUP3 PUSH2 0x853 JUMP JUMPDEST PUSH1 0x20 DUP3 ADD SWAP1 POP SWAP2 SWAP1 POP JUMP JUMPDEST PUSH0 PUSH1 0x20 DUP3 ADD SWAP1 POP DUP2 DUP2 SUB PUSH0 DUP4 ADD MSTORE PUSH2 0x8B4 DUP2 PUSH2 0x87B JUMP JUMPDEST SWAP1 POP SWAP2 SWAP1 POP JUMP JUMPDEST PUSH32 0x7374616B6520616D6F756E74206E6F7420656E6F756768000000000000000000 PUSH0 DUP3 ADD MSTORE POP JUMP JUMPDEST PUSH0 PUSH2 0x8EF PUSH1 0x17 DUP4 PUSH2 0x773 JUMP JUMPDEST SWAP2 POP PUSH2 0x8FA DUP3 PUSH2 0x8BB JUMP JUMPDEST PUSH1 0x20 DUP3 ADD SWAP1 POP SWAP2 SWAP1 POP JUMP JUMPDEST PUSH0 PUSH1 0x20 DUP3 ADD SWAP1 POP DUP2 DUP2 SUB PUSH0 DUP4 ADD MSTORE PUSH2 0x91C DUP2 PUSH2 0x8E3 JUMP JUMPDEST SWAP1 POP SWAP2 SWAP1 POP JUMP INVALID LOG2 PUSH5 0x6970667358 0x22 SLT KECCAK256 BLOBBASEFEE 0xCB 0xB1 SWAP4 0xEC DUP12 SWAP1 PUSH24 0x7F79FF9794CC01CB34AEBA3FA6610C3CE98A8FEAE5129BBC PUSH5 0x736F6C6343 STOP ADDMOD NOT STOP CALLER "
				},
				"gasEstimates": {
					"creation": {
						"codeDepositCost": "478600",
						"executionCost": "22615",
						"totalCost": "501215"
					},
					"external": {
						"claim(uint256)": "infinite",
						"releasStake(uint256,uint256)": "infinite",
						"stake(uint256,uint256)": "infinite"
					}
				},
				"methodIdentifiers": {
					"claim(uint256)": "379607f5",
					"releasStake(uint256,uint256)": "5ab78f1a",
					"stake(uint256,uint256)": "7b0472f0"
				}
			},
			"storageLayout": {
				"storage": [
					{
						"astId": 7,
						"contract": "L3/RccStake.sol:RccStake",
						"label": "_allowances",
						"offset": 0,
						"slot": "0",
						"type": "t_mapping(t_address,t_mapping(t_address,t_uint256))"
					},
					{
						"astId": 13,
						"contract": "L3/RccStake.sol:RccStake",
						"label": "_userStake",
						"offset": 0,
						"slot": "1",
						"type": "t_mapping(t_uint256,t_mapping(t_address,t_uint256))"
					},
					{
						"astId": 17,
						"contract": "L3/RccStake.sol:RccStake",
						"label": "_totalStake",
						"offset": 0,
						"slot": "2",
						"type": "t_mapping(t_uint256,t_uint256)"
					},
					{
						"astId": 20,
						"contract": "L3/RccStake.sol:RccStake",
						"label": "_miniStake",
						"offset": 0,
						"slot": "3",
						"type": "t_uint256"
					},
					{
						"astId": 25,
						"contract": "L3/RccStake.sol:RccStake",
						"label": "_Pools",
						"offset": 0,
						"slot": "4",
						"type": "t_mapping(t_uint256,t_struct(Pool)45_storage)"
					},
					{
						"astId": 30,
						"contract": "L3/RccStake.sol:RccStake",
						"label": "_Users",
						"offset": 0,
						"slot": "5",
						"type": "t_mapping(t_address,t_struct(User)56_storage)"
					}
				],
				"types": {
					"t_address": {
						"encoding": "inplace",
						"label": "address",
						"numberOfBytes": "20"
					},
					"t_array(t_struct(ReleaseStakeRequest)61_storage)dyn_storage": {
						"base": "t_struct(ReleaseStakeRequest)61_storage",
						"encoding": "dynamic_array",
						"label": "struct RccStake.ReleaseStakeRequest[]",
						"numberOfBytes": "32"
					},
					"t_mapping(t_address,t_mapping(t_address,t_uint256))": {
						"encoding": "mapping",
						"key": "t_address",
						"label": "mapping(address => mapping(address => uint256))",
						"numberOfBytes": "32",
						"value": "t_mapping(t_address,t_uint256)"
					},
					"t_mapping(t_address,t_struct(User)56_storage)": {
						"encoding": "mapping",
						"key": "t_address",
						"label": "mapping(address => struct RccStake.User)",
						"numberOfBytes": "32",
						"value": "t_struct(User)56_storage"
					},
					"t_mapping(t_address,t_uint256)": {
						"encoding": "mapping",
						"key": "t_address",
						"label": "mapping(address => uint256)",
						"numberOfBytes": "32",
						"value": "t_uint256"
					},
					"t_mapping(t_uint256,t_mapping(t_address,t_uint256))": {
						"encoding": "mapping",
						"key": "t_uint256",
						"label": "mapping(uint256 => mapping(address => uint256))",
						"numberOfBytes": "32",
						"value": "t_mapping(t_address,t_uint256)"
					},
					"t_mapping(t_uint256,t_struct(Pool)45_storage)": {
						"encoding": "mapping",
						"key": "t_uint256",
						"label": "mapping(uint256 => struct RccStake.Pool)",
						"numberOfBytes": "32",
						"value": "t_struct(Pool)45_storage"
					},
					"t_mapping(t_uint256,t_uint256)": {
						"encoding": "mapping",
						"key": "t_uint256",
						"label": "mapping(uint256 => uint256)",
						"numberOfBytes": "32",
						"value": "t_uint256"
					},
					"t_struct(Pool)45_storage": {
						"encoding": "inplace",
						"label": "struct RccStake.Pool",
						"members": [
							{
								"astId": 32,
								"contract": "L3/RccStake.sol:RccStake",
								"label": "stTokenAddress",
								"offset": 0,
								"slot": "0",
								"type": "t_address"
							},
							{
								"astId": 34,
								"contract": "L3/RccStake.sol:RccStake",
								"label": "poolWeight",
								"offset": 0,
								"slot": "1",
								"type": "t_uint256"
							},
							{
								"astId": 36,
								"contract": "L3/RccStake.sol:RccStake",
								"label": "lastRewardBlock",
								"offset": 0,
								"slot": "2",
								"type": "t_uint256"
							},
							{
								"astId": 38,
								"contract": "L3/RccStake.sol:RccStake",
								"label": "accRCCPerST",
								"offset": 0,
								"slot": "3",
								"type": "t_uint256"
							},
							{
								"astId": 40,
								"contract": "L3/RccStake.sol:RccStake",
								"label": "stTokenAmount",
								"offset": 0,
								"slot": "4",
								"type": "t_uint256"
							},
							{
								"astId": 42,
								"contract": "L3/RccStake.sol:RccStake",
								"label": "minDepositAmount",
								"offset": 0,
								"slot": "5",
								"type": "t_uint256"
							},
							{
								"astId": 44,
								"contract": "L3/RccStake.sol:RccStake",
								"label": "unstakeLockedBlocks",
								"offset": 0,
								"slot": "6",
								"type": "t_uint256"
							}
						],
						"numberOfBytes": "224"
					},
					"t_struct(ReleaseStakeRequest)61_storage": {
						"encoding": "inplace",
						"label": "struct RccStake.ReleaseStakeRequest",
						"members": [
							{
								"astId": 58,
								"contract": "L3/RccStake.sol:RccStake",
								"label": "stAmount",
								"offset": 0,
								"slot": "0",
								"type": "t_uint256"
							},
							{
								"astId": 60,
								"contract": "L3/RccStake.sol:RccStake",
								"label": "blockId",
								"offset": 0,
								"slot": "1",
								"type": "t_uint256"
							}
						],
						"numberOfBytes": "64"
					},
					"t_struct(User)56_storage": {
						"encoding": "inplace",
						"label": "struct RccStake.User",
						"members": [
							{
								"astId": 47,
								"contract": "L3/RccStake.sol:RccStake",
								"label": "stAmount",
								"offset": 0,
								"slot": "0",
								"type": "t_uint256"
							},
							{
								"astId": 49,
								"contract": "L3/RccStake.sol:RccStake",
								"label": "finishedRCC",
								"offset": 0,
								"slot": "1",
								"type": "t_uint256"
							},
							{
								"astId": 51,
								"contract": "L3/RccStake.sol:RccStake",
								"label": "pendingRCC",
								"offset": 0,
								"slot": "2",
								"type": "t_uint256"
							},
							{
								"astId": 55,
								"contract": "L3/RccStake.sol:RccStake",
								"label": "requests",
								"offset": 0,
								"slot": "3",
								"type": "t_array(t_struct(ReleaseStakeRequest)61_storage)dyn_storage"
							}
						],
						"numberOfBytes": "128"
					},
					"t_uint256": {
						"encoding": "inplace",
						"label": "uint256",
						"numberOfBytes": "32"
					}
				}
			},
			"userdoc": {
				"kind": "user",
				"methods": {},
				"version": 1
			}
		}
	}
}