{
	"L3/pledge.sol": {
		"pledge": {
			"abi": [
				{
					"inputs": [],
					"stateMutability": "nonpayable",
					"type": "constructor"
				},
				{
					"inputs": [],
					"name": "AccessControlBadConfirmation",
					"type": "error"
				},
				{
					"inputs": [
						{
							"internalType": "address",
							"name": "account",
							"type": "address"
						},
						{
							"internalType": "bytes32",
							"name": "neededRole",
							"type": "bytes32"
						}
					],
					"name": "AccessControlUnauthorizedAccount",
					"type": "error"
				},
				{
					"inputs": [],
					"name": "InvalidInitialization",
					"type": "error"
				},
				{
					"inputs": [],
					"name": "NotInitializing",
					"type": "error"
				},
				{
					"anonymous": false,
					"inputs": [
						{
							"indexed": false,
							"internalType": "uint64",
							"name": "version",
							"type": "uint64"
						}
					],
					"name": "Initialized",
					"type": "event"
				},
				{
					"anonymous": false,
					"inputs": [
						{
							"indexed": true,
							"internalType": "bytes32",
							"name": "role",
							"type": "bytes32"
						},
						{
							"indexed": true,
							"internalType": "bytes32",
							"name": "previousAdminRole",
							"type": "bytes32"
						},
						{
							"indexed": true,
							"internalType": "bytes32",
							"name": "newAdminRole",
							"type": "bytes32"
						}
					],
					"name": "RoleAdminChanged",
					"type": "event"
				},
				{
					"anonymous": false,
					"inputs": [
						{
							"indexed": true,
							"internalType": "bytes32",
							"name": "role",
							"type": "bytes32"
						},
						{
							"indexed": true,
							"internalType": "address",
							"name": "account",
							"type": "address"
						},
						{
							"indexed": true,
							"internalType": "address",
							"name": "sender",
							"type": "address"
						}
					],
					"name": "RoleGranted",
					"type": "event"
				},
				{
					"anonymous": false,
					"inputs": [
						{
							"indexed": true,
							"internalType": "bytes32",
							"name": "role",
							"type": "bytes32"
						},
						{
							"indexed": true,
							"internalType": "address",
							"name": "account",
							"type": "address"
						},
						{
							"indexed": true,
							"internalType": "address",
							"name": "sender",
							"type": "address"
						}
					],
					"name": "RoleRevoked",
					"type": "event"
				},
				{
					"inputs": [],
					"name": "ADMIN_ROLE",
					"outputs": [
						{
							"internalType": "bytes32",
							"name": "",
							"type": "bytes32"
						}
					],
					"stateMutability": "view",
					"type": "function"
				},
				{
					"inputs": [],
					"name": "DEFAULT_ADMIN_ROLE",
					"outputs": [
						{
							"internalType": "bytes32",
							"name": "",
							"type": "bytes32"
						}
					],
					"stateMutability": "view",
					"type": "function"
				},
				{
					"inputs": [],
					"name": "claimBorrow",
					"outputs": [],
					"stateMutability": "nonpayable",
					"type": "function"
				},
				{
					"inputs": [],
					"name": "claimLend",
					"outputs": [],
					"stateMutability": "nonpayable",
					"type": "function"
				},
				{
					"inputs": [
						{
							"internalType": "uint256",
							"name": "_settleTime",
							"type": "uint256"
						},
						{
							"internalType": "uint256",
							"name": "_endTime",
							"type": "uint256"
						},
						{
							"internalType": "uint256",
							"name": "_interestRate",
							"type": "uint256"
						},
						{
							"internalType": "uint256",
							"name": "_maxSupply",
							"type": "uint256"
						},
						{
							"internalType": "uint256",
							"name": "_lendSupply",
							"type": "uint256"
						},
						{
							"internalType": "uint256",
							"name": "_martgageRate",
							"type": "uint256"
						},
						{
							"internalType": "address",
							"name": "_lendToken",
							"type": "address"
						},
						{
							"internalType": "address",
							"name": "_borrowToken",
							"type": "address"
						},
						{
							"internalType": "address",
							"name": "_spToken",
							"type": "address"
						},
						{
							"internalType": "address",
							"name": "_jpToken",
							"type": "address"
						},
						{
							"internalType": "uint256",
							"name": "_autoLiquidateThreshold",
							"type": "uint256"
						}
					],
					"name": "createPoolInfo",
					"outputs": [],
					"stateMutability": "nonpayable",
					"type": "function"
				},
				{
					"inputs": [
						{
							"internalType": "uint256",
							"name": "pid",
							"type": "uint256"
						},
						{
							"internalType": "uint256",
							"name": "stakeAmount",
							"type": "uint256"
						}
					],
					"name": "depositBorrow",
					"outputs": [],
					"stateMutability": "nonpayable",
					"type": "function"
				},
				{
					"inputs": [
						{
							"internalType": "uint256",
							"name": "pid",
							"type": "uint256"
						},
						{
							"internalType": "uint256",
							"name": "stakeAmount",
							"type": "uint256"
						}
					],
					"name": "depositLend",
					"outputs": [],
					"stateMutability": "nonpayable",
					"type": "function"
				},
				{
					"inputs": [],
					"name": "feeAddress",
					"outputs": [
						{
							"internalType": "address payable",
							"name": "",
							"type": "address"
						}
					],
					"stateMutability": "view",
					"type": "function"
				},
				{
					"inputs": [
						{
							"internalType": "bytes32",
							"name": "role",
							"type": "bytes32"
						}
					],
					"name": "getRoleAdmin",
					"outputs": [
						{
							"internalType": "bytes32",
							"name": "",
							"type": "bytes32"
						}
					],
					"stateMutability": "view",
					"type": "function"
				},
				{
					"inputs": [
						{
							"internalType": "bytes32",
							"name": "role",
							"type": "bytes32"
						},
						{
							"internalType": "address",
							"name": "account",
							"type": "address"
						}
					],
					"name": "grantRole",
					"outputs": [],
					"stateMutability": "nonpayable",
					"type": "function"
				},
				{
					"inputs": [
						{
							"internalType": "bytes32",
							"name": "role",
							"type": "bytes32"
						},
						{
							"internalType": "address",
							"name": "account",
							"type": "address"
						}
					],
					"name": "hasRole",
					"outputs": [
						{
							"internalType": "bool",
							"name": "",
							"type": "bool"
						}
					],
					"stateMutability": "view",
					"type": "function"
				},
				{
					"inputs": [
						{
							"internalType": "uint256",
							"name": "",
							"type": "uint256"
						}
					],
					"name": "poolBaseInfo",
					"outputs": [
						{
							"internalType": "uint256",
							"name": "settleTime",
							"type": "uint256"
						},
						{
							"internalType": "uint256",
							"name": "endTime",
							"type": "uint256"
						},
						{
							"internalType": "uint256",
							"name": "interestRate",
							"type": "uint256"
						},
						{
							"internalType": "uint256",
							"name": "maxSupply",
							"type": "uint256"
						},
						{
							"internalType": "uint256",
							"name": "lendSupply",
							"type": "uint256"
						},
						{
							"internalType": "uint256",
							"name": "martgageRate",
							"type": "uint256"
						},
						{
							"internalType": "address",
							"name": "lendToken",
							"type": "address"
						},
						{
							"internalType": "address",
							"name": "borrowToken",
							"type": "address"
						},
						{
							"internalType": "address",
							"name": "spToken",
							"type": "address"
						},
						{
							"internalType": "address",
							"name": "jpToken",
							"type": "address"
						},
						{
							"internalType": "uint256",
							"name": "autoLiquidateThreshold",
							"type": "uint256"
						}
					],
					"stateMutability": "view",
					"type": "function"
				},
				{
					"inputs": [
						{
							"internalType": "uint256",
							"name": "",
							"type": "uint256"
						}
					],
					"name": "poolDataInfo",
					"outputs": [
						{
							"internalType": "uint256",
							"name": "settleAmountLend",
							"type": "uint256"
						},
						{
							"internalType": "uint256",
							"name": "settleAmountBorrow",
							"type": "uint256"
						},
						{
							"internalType": "uint256",
							"name": "finishAmountLend",
							"type": "uint256"
						},
						{
							"internalType": "uint256",
							"name": "finishAmountBorrow",
							"type": "uint256"
						},
						{
							"internalType": "uint256",
							"name": "liquidationAmounLend",
							"type": "uint256"
						},
						{
							"internalType": "uint256",
							"name": "liquidationAmounBorrow",
							"type": "uint256"
						}
					],
					"stateMutability": "view",
					"type": "function"
				},
				{
					"inputs": [],
					"name": "refundBorrow",
					"outputs": [],
					"stateMutability": "nonpayable",
					"type": "function"
				},
				{
					"inputs": [],
					"name": "refundLend",
					"outputs": [],
					"stateMutability": "nonpayable",
					"type": "function"
				},
				{
					"inputs": [
						{
							"internalType": "bytes32",
							"name": "role",
							"type": "bytes32"
						},
						{
							"internalType": "address",
							"name": "callerConfirmation",
							"type": "address"
						}
					],
					"name": "renounceRole",
					"outputs": [],
					"stateMutability": "nonpayable",
					"type": "function"
				},
				{
					"inputs": [
						{
							"internalType": "bytes32",
							"name": "role",
							"type": "bytes32"
						},
						{
							"internalType": "address",
							"name": "account",
							"type": "address"
						}
					],
					"name": "revokeRole",
					"outputs": [],
					"stateMutability": "nonpayable",
					"type": "function"
				},
				{
					"inputs": [
						{
							"internalType": "uint256",
							"name": "_lendFee",
							"type": "uint256"
						},
						{
							"internalType": "uint256",
							"name": "_borrowFee",
							"type": "uint256"
						}
					],
					"name": "setFee",
					"outputs": [],
					"stateMutability": "nonpayable",
					"type": "function"
				},
				{
					"inputs": [
						{
							"internalType": "address payable",
							"name": "_feeAddress",
							"type": "address"
						}
					],
					"name": "setFee",
					"outputs": [],
					"stateMutability": "nonpayable",
					"type": "function"
				},
				{
					"inputs": [
						{
							"internalType": "uint256",
							"name": "_minAmount",
							"type": "uint256"
						}
					],
					"name": "setMinAmount",
					"outputs": [],
					"stateMutability": "nonpayable",
					"type": "function"
				},
				{
					"inputs": [
						{
							"internalType": "address",
							"name": "_swapRouterAddres",
							"type": "address"
						}
					],
					"name": "setSwapRouterAddress",
					"outputs": [],
					"stateMutability": "nonpayable",
					"type": "function"
				},
				{
					"inputs": [
						{
							"internalType": "bytes4",
							"name": "interfaceId",
							"type": "bytes4"
						}
					],
					"name": "supportsInterface",
					"outputs": [
						{
							"internalType": "bool",
							"name": "",
							"type": "bool"
						}
					],
					"stateMutability": "view",
					"type": "function"
				},
				{
					"inputs": [],
					"name": "withdrawBorrow",
					"outputs": [],
					"stateMutability": "nonpayable",
					"type": "function"
				},
				{
					"inputs": [
						{
							"internalType": "uint256",
							"name": "pid",
							"type": "uint256"
						},
						{
							"internalType": "uint256",
							"name": "spAmount",
							"type": "uint256"
						}
					],
					"name": "withdrawLend",
					"outputs": [],
					"stateMutability": "nonpayable",
					"type": "function"
				}
			],
			"devdoc": {
				"errors": {
					"AccessControlBadConfirmation()": [
						{
							"details": "The caller of a function is not the expected one. NOTE: Don't confuse with {AccessControlUnauthorizedAccount}."
						}
					],
					"AccessControlUnauthorizedAccount(address,bytes32)": [
						{
							"details": "The `account` is missing a role."
						}
					],
					"InvalidInitialization()": [
						{
							"details": "The contract is already initialized."
						}
					],
					"NotInitializing()": [
						{
							"details": "The contract is not initializing."
						}
					]
				},
				"events": {
					"Initialized(uint64)": {
						"details": "Triggered when the contract has been initialized or reinitialized."
					},
					"RoleAdminChanged(bytes32,bytes32,bytes32)": {
						"details": "Emitted when `newAdminRole` is set as ``role``'s admin role, replacing `previousAdminRole` `DEFAULT_ADMIN_ROLE` is the starting admin for all roles, despite {RoleAdminChanged} not being emitted signaling this."
					},
					"RoleGranted(bytes32,address,address)": {
						"details": "Emitted when `account` is granted `role`. `sender` is the account that originated the contract call, an admin role bearer except when using {AccessControl-_setupRole}."
					},
					"RoleRevoked(bytes32,address,address)": {
						"details": "Emitted when `account` is revoked `role`. `sender` is the account that originated the contract call:   - if using `revokeRole`, it is the admin role bearer   - if using `renounceRole`, it is the role bearer (i.e. `account`)"
					}
				},
				"kind": "dev",
				"methods": {
					"getRoleAdmin(bytes32)": {
						"details": "Returns the admin role that controls `role`. See {grantRole} and {revokeRole}. To change a role's admin, use {_setRoleAdmin}."
					},
					"grantRole(bytes32,address)": {
						"details": "Grants `role` to `account`. If `account` had not been already granted `role`, emits a {RoleGranted} event. Requirements: - the caller must have ``role``'s admin role. May emit a {RoleGranted} event."
					},
					"hasRole(bytes32,address)": {
						"details": "Returns `true` if `account` has been granted `role`."
					},
					"renounceRole(bytes32,address)": {
						"details": "Revokes `role` from the calling account. Roles are often managed via {grantRole} and {revokeRole}: this function's purpose is to provide a mechanism for accounts to lose their privileges if they are compromised (such as when a trusted device is misplaced). If the calling account had been revoked `role`, emits a {RoleRevoked} event. Requirements: - the caller must be `callerConfirmation`. May emit a {RoleRevoked} event."
					},
					"revokeRole(bytes32,address)": {
						"details": "Revokes `role` from `account`. If `account` had been granted `role`, emits a {RoleRevoked} event. Requirements: - the caller must have ``role``'s admin role. May emit a {RoleRevoked} event."
					},
					"supportsInterface(bytes4)": {
						"details": "See {IERC165-supportsInterface}."
					}
				},
				"version": 1
			},
			"evm": {
				"assembly": "    /* \"L3/pledge.sol\":140:5863  contract pledge is AccessControlUpgradeable {... */\n  mstore(0x40, 0x80)\n    /* \"L3/pledge.sol\":1825:1922  constructor() {... */\n  callvalue\n  dup1\n  iszero\n  tag_1\n  jumpi\n  0x00\n  dup1\n  revert\ntag_1:\n  pop\n    /* \"L3/pledge.sol\":1849:1871  __AccessControl_init() */\n  tag_4\n    /* \"L3/pledge.sol\":1849:1869  __AccessControl_init */\n  shl(0x20, tag_5)\n    /* \"L3/pledge.sol\":1849:1871  __AccessControl_init() */\n  0x20\n  shr\n  jump\t// in\ntag_4:\n    /* \"L3/pledge.sol\":1881:1915  _grantRole(ADMIN_ROLE, msg.sender) */\n  tag_6\n    /* \"L3/pledge.sol\":918:941  keccak256(\"admin_role\") */\n  0x589d473ba17c0f47d494622893831497bad25919b9afb8e33e9521b8963fccde\n    /* \"L3/pledge.sol\":1904:1914  msg.sender */\n  caller\n    /* \"L3/pledge.sol\":1881:1891  _grantRole */\n  shl(0x20, tag_7)\n    /* \"L3/pledge.sol\":1881:1915  _grantRole(ADMIN_ROLE, msg.sender) */\n  0x20\n  shr\n  jump\t// in\ntag_6:\n  pop\n    /* \"L3/pledge.sol\":140:5863  contract pledge is AccessControlUpgradeable {... */\n  jump(tag_8)\n    /* \"@openzeppelin/contracts-upgradeable/access/AccessControlUpgradeable.sol\":3231:3296  function __AccessControl_init() internal onlyInitializing {... */\ntag_5:\n    /* \"@openzeppelin/contracts-upgradeable/proxy/utils/Initializable.sol\":6931:6951  _checkInitializing() */\n  tag_10\n    /* \"@openzeppelin/contracts-upgradeable/proxy/utils/Initializable.sol\":6931:6949  _checkInitializing */\n  shl(0x20, tag_11)\n    /* \"@openzeppelin/contracts-upgradeable/proxy/utils/Initializable.sol\":6931:6951  _checkInitializing() */\n  0x20\n  shr\n  jump\t// in\ntag_10:\n    /* \"@openzeppelin/contracts-upgradeable/access/AccessControlUpgradeable.sol\":3231:3296  function __AccessControl_init() internal onlyInitializing {... */\n  jump\t// out\n    /* \"@openzeppelin/contracts-upgradeable/access/AccessControlUpgradeable.sol\":7270:7657  function _grantRole(bytes32 role, address account) internal virtual returns (bool) {... */\ntag_7:\n    /* \"@openzeppelin/contracts-upgradeable/access/AccessControlUpgradeable.sol\":7347:7351  bool */\n  0x00\n    /* \"@openzeppelin/contracts-upgradeable/access/AccessControlUpgradeable.sol\":7363:7393  AccessControlStorage storage $ */\n  dup1\n    /* \"@openzeppelin/contracts-upgradeable/access/AccessControlUpgradeable.sol\":7396:7422  _getAccessControlStorage() */\n  tag_14\n    /* \"@openzeppelin/contracts-upgradeable/access/AccessControlUpgradeable.sol\":7396:7420  _getAccessControlStorage */\n  shl(0x20, tag_15)\n    /* \"@openzeppelin/contracts-upgradeable/access/AccessControlUpgradeable.sol\":7396:7422  _getAccessControlStorage() */\n  0x20\n  shr\n  jump\t// in\ntag_14:\n    /* \"@openzeppelin/contracts-upgradeable/access/AccessControlUpgradeable.sol\":7363:7422  AccessControlStorage storage $ = _getAccessControlStorage() */\n  swap1\n  pop\n    /* \"@openzeppelin/contracts-upgradeable/access/AccessControlUpgradeable.sol\":7437:7459  hasRole(role, account) */\n  tag_16\n    /* \"@openzeppelin/contracts-upgradeable/access/AccessControlUpgradeable.sol\":7445:7449  role */\n  dup5\n    /* \"@openzeppelin/contracts-upgradeable/access/AccessControlUpgradeable.sol\":7451:7458  account */\n  dup5\n    /* \"@openzeppelin/contracts-upgradeable/access/AccessControlUpgradeable.sol\":7437:7444  hasRole */\n  shl(0x20, tag_17)\n    /* \"@openzeppelin/contracts-upgradeable/access/AccessControlUpgradeable.sol\":7437:7459  hasRole(role, account) */\n  0x20\n  shr\n  jump\t// in\ntag_16:\n    /* \"@openzeppelin/contracts-upgradeable/access/AccessControlUpgradeable.sol\":7432:7651  if (!hasRole(role, account)) {... */\n  tag_18\n  jumpi\n    /* \"@openzeppelin/contracts-upgradeable/access/AccessControlUpgradeable.sol\":7509:7513  true */\n  0x01\n    /* \"@openzeppelin/contracts-upgradeable/access/AccessControlUpgradeable.sol\":7475:7476  $ */\n  dup2\n    /* \"@openzeppelin/contracts-upgradeable/access/AccessControlUpgradeable.sol\":7475:7483  $._roles */\n  0x00\n  add\n    /* \"@openzeppelin/contracts-upgradeable/access/AccessControlUpgradeable.sol\":7475:7489  $._roles[role] */\n  0x00\n    /* \"@openzeppelin/contracts-upgradeable/access/AccessControlUpgradeable.sol\":7484:7488  role */\n  dup7\n    /* \"@openzeppelin/contracts-upgradeable/access/AccessControlUpgradeable.sol\":7475:7489  $._roles[role] */\n  dup2\n  mstore\n  0x20\n  add\n  swap1\n  dup2\n  mstore\n  0x20\n  add\n  0x00\n  keccak256\n    /* \"@openzeppelin/contracts-upgradeable/access/AccessControlUpgradeable.sol\":7475:7497  $._roles[role].hasRole */\n  0x00\n  add\n    /* \"@openzeppelin/contracts-upgradeable/access/AccessControlUpgradeable.sol\":7475:7506  $._roles[role].hasRole[account] */\n  0x00\n    /* \"@openzeppelin/contracts-upgradeable/access/AccessControlUpgradeable.sol\":7498:7505  account */\n  dup6\n    /* \"@openzeppelin/contracts-upgradeable/access/AccessControlUpgradeable.sol\":7475:7506  $._roles[role].hasRole[account] */\n  0xffffffffffffffffffffffffffffffffffffffff\n  and\n  0xffffffffffffffffffffffffffffffffffffffff\n  and\n  dup2\n  mstore\n  0x20\n  add\n  swap1\n  dup2\n  mstore\n  0x20\n  add\n  0x00\n  keccak256\n  0x00\n    /* \"@openzeppelin/contracts-upgradeable/access/AccessControlUpgradeable.sol\":7475:7513  $._roles[role].hasRole[account] = true */\n  0x0100\n  exp\n  dup2\n  sload\n  dup2\n  0xff\n  mul\n  not\n  and\n  swap1\n  dup4\n  iszero\n  iszero\n  mul\n  or\n  swap1\n  sstore\n  pop\n    /* \"@openzeppelin/contracts-upgradeable/access/AccessControlUpgradeable.sol\":7559:7571  _msgSender() */\n  tag_19\n    /* \"@openzeppelin/contracts-upgradeable/access/AccessControlUpgradeable.sol\":7559:7569  _msgSender */\n  shl(0x20, tag_20)\n    /* \"@openzeppelin/contracts-upgradeable/access/AccessControlUpgradeable.sol\":7559:7571  _msgSender() */\n  0x20\n  shr\n  jump\t// in\ntag_19:\n    /* \"@openzeppelin/contracts-upgradeable/access/AccessControlUpgradeable.sol\":7532:7572  RoleGranted(role, account, _msgSender()) */\n  0xffffffffffffffffffffffffffffffffffffffff\n  and\n    /* \"@openzeppelin/contracts-upgradeable/access/AccessControlUpgradeable.sol\":7550:7557  account */\n  dup4\n    /* \"@openzeppelin/contracts-upgradeable/access/AccessControlUpgradeable.sol\":7532:7572  RoleGranted(role, account, _msgSender()) */\n  0xffffffffffffffffffffffffffffffffffffffff\n  and\n    /* \"@openzeppelin/contracts-upgradeable/access/AccessControlUpgradeable.sol\":7544:7548  role */\n  dup6\n    /* \"@openzeppelin/contracts-upgradeable/access/AccessControlUpgradeable.sol\":7532:7572  RoleGranted(role, account, _msgSender()) */\n  0x2f8788117e7eff1d82e926ec794901d17c78024a50270940304540a733656f0d\n  mload(0x40)\n  mload(0x40)\n  dup1\n  swap2\n  sub\n  swap1\n  log4\n    /* \"@openzeppelin/contracts-upgradeable/access/AccessControlUpgradeable.sol\":7593:7597  true */\n  0x01\n    /* \"@openzeppelin/contracts-upgradeable/access/AccessControlUpgradeable.sol\":7586:7597  return true */\n  swap2\n  pop\n  pop\n  jump(tag_13)\n    /* \"@openzeppelin/contracts-upgradeable/access/AccessControlUpgradeable.sol\":7432:7651  if (!hasRole(role, account)) {... */\ntag_18:\n    /* \"@openzeppelin/contracts-upgradeable/access/AccessControlUpgradeable.sol\":7635:7640  false */\n  0x00\n    /* \"@openzeppelin/contracts-upgradeable/access/AccessControlUpgradeable.sol\":7628:7640  return false */\n  swap2\n  pop\n  pop\n    /* \"@openzeppelin/contracts-upgradeable/access/AccessControlUpgradeable.sol\":7270:7657  function _grantRole(bytes32 role, address account) internal virtual returns (bool) {... */\ntag_13:\n  swap3\n  swap2\n  pop\n  pop\n  jump\t// out\n    /* \"@openzeppelin/contracts-upgradeable/proxy/utils/Initializable.sol\":7084:7225  function _checkInitializing() internal view virtual {... */\ntag_11:\n    /* \"@openzeppelin/contracts-upgradeable/proxy/utils/Initializable.sol\":7151:7168  _isInitializing() */\n  tag_23\n    /* \"@openzeppelin/contracts-upgradeable/proxy/utils/Initializable.sol\":7151:7166  _isInitializing */\n  shl(0x20, tag_24)\n    /* \"@openzeppelin/contracts-upgradeable/proxy/utils/Initializable.sol\":7151:7168  _isInitializing() */\n  0x20\n  shr\n  jump\t// in\ntag_23:\n    /* \"@openzeppelin/contracts-upgradeable/proxy/utils/Initializable.sol\":7146:7219  if (!_isInitializing()) {... */\n  tag_25\n  jumpi\n    /* \"@openzeppelin/contracts-upgradeable/proxy/utils/Initializable.sol\":7191:7208  NotInitializing() */\n  mload(0x40)\n  0xd7e6bcf800000000000000000000000000000000000000000000000000000000\n  dup2\n  mstore\n  0x04\n  add\n  mload(0x40)\n  dup1\n  swap2\n  sub\n  swap1\n  revert\n    /* \"@openzeppelin/contracts-upgradeable/proxy/utils/Initializable.sol\":7146:7219  if (!_isInitializing()) {... */\ntag_25:\n    /* \"@openzeppelin/contracts-upgradeable/proxy/utils/Initializable.sol\":7084:7225  function _checkInitializing() internal view virtual {... */\n  jump\t// out\n    /* \"@openzeppelin/contracts-upgradeable/access/AccessControlUpgradeable.sol\":2787:2964  function _getAccessControlStorage() private pure returns (AccessControlStorage storage $) {... */\ntag_15:\n    /* \"@openzeppelin/contracts-upgradeable/access/AccessControlUpgradeable.sol\":2845:2875  AccessControlStorage storage $ */\n  0x00\n    /* \"@openzeppelin/contracts-upgradeable/access/AccessControlUpgradeable.sol\":2920:2948  AccessControlStorageLocation */\n  0x02dd7bc7dec4dceedda775e58dd541e08a116c6c53815c0bd028192f7b626800\n    /* \"@openzeppelin/contracts-upgradeable/access/AccessControlUpgradeable.sol\":2910:2948  $.slot := AccessControlStorageLocation */\n  swap1\n  pop\n    /* \"@openzeppelin/contracts-upgradeable/access/AccessControlUpgradeable.sol\":2787:2964  function _getAccessControlStorage() private pure returns (AccessControlStorage storage $) {... */\n  swap1\n  jump\t// out\n    /* \"@openzeppelin/contracts-upgradeable/access/AccessControlUpgradeable.sol\":3732:3939  function hasRole(bytes32 role, address account) public view virtual returns (bool) {... */\ntag_17:\n    /* \"@openzeppelin/contracts-upgradeable/access/AccessControlUpgradeable.sol\":3809:3813  bool */\n  0x00\n    /* \"@openzeppelin/contracts-upgradeable/access/AccessControlUpgradeable.sol\":3825:3855  AccessControlStorage storage $ */\n  dup1\n    /* \"@openzeppelin/contracts-upgradeable/access/AccessControlUpgradeable.sol\":3858:3884  _getAccessControlStorage() */\n  tag_28\n    /* \"@openzeppelin/contracts-upgradeable/access/AccessControlUpgradeable.sol\":3858:3882  _getAccessControlStorage */\n  shl(0x20, tag_15)\n    /* \"@openzeppelin/contracts-upgradeable/access/AccessControlUpgradeable.sol\":3858:3884  _getAccessControlStorage() */\n  0x20\n  shr\n  jump\t// in\ntag_28:\n    /* \"@openzeppelin/contracts-upgradeable/access/AccessControlUpgradeable.sol\":3825:3884  AccessControlStorage storage $ = _getAccessControlStorage() */\n  swap1\n  pop\n    /* \"@openzeppelin/contracts-upgradeable/access/AccessControlUpgradeable.sol\":3901:3902  $ */\n  dup1\n    /* \"@openzeppelin/contracts-upgradeable/access/AccessControlUpgradeable.sol\":3901:3909  $._roles */\n  0x00\n  add\n    /* \"@openzeppelin/contracts-upgradeable/access/AccessControlUpgradeable.sol\":3901:3915  $._roles[role] */\n  0x00\n    /* \"@openzeppelin/contracts-upgradeable/access/AccessControlUpgradeable.sol\":3910:3914  role */\n  dup6\n    /* \"@openzeppelin/contracts-upgradeable/access/AccessControlUpgradeable.sol\":3901:3915  $._roles[role] */\n  dup2\n  mstore\n  0x20\n  add\n  swap1\n  dup2\n  mstore\n  0x20\n  add\n  0x00\n  keccak256\n    /* \"@openzeppelin/contracts-upgradeable/access/AccessControlUpgradeable.sol\":3901:3923  $._roles[role].hasRole */\n  0x00\n  add\n    /* \"@openzeppelin/contracts-upgradeable/access/AccessControlUpgradeable.sol\":3901:3932  $._roles[role].hasRole[account] */\n  0x00\n    /* \"@openzeppelin/contracts-upgradeable/access/AccessControlUpgradeable.sol\":3924:3931  account */\n  dup5\n    /* \"@openzeppelin/contracts-upgradeable/access/AccessControlUpgradeable.sol\":3901:3932  $._roles[role].hasRole[account] */\n  0xffffffffffffffffffffffffffffffffffffffff\n  and\n  0xffffffffffffffffffffffffffffffffffffffff\n  and\n  dup2\n  mstore\n  0x20\n  add\n  swap1\n  dup2\n  mstore\n  0x20\n  add\n  0x00\n  keccak256\n  0x00\n  swap1\n  sload\n  swap1\n  0x0100\n  exp\n  swap1\n  div\n  0xff\n  and\n    /* \"@openzeppelin/contracts-upgradeable/access/AccessControlUpgradeable.sol\":3894:3932  return $._roles[role].hasRole[account] */\n  swap2\n  pop\n  pop\n    /* \"@openzeppelin/contracts-upgradeable/access/AccessControlUpgradeable.sol\":3732:3939  function hasRole(bytes32 role, address account) public view virtual returns (bool) {... */\n  swap3\n  swap2\n  pop\n  pop\n  jump\t// out\n    /* \"@openzeppelin/contracts-upgradeable/utils/ContextUpgradeable.sol\":887:983  function _msgSender() internal view virtual returns (address) {... */\ntag_20:\n    /* \"@openzeppelin/contracts-upgradeable/utils/ContextUpgradeable.sol\":940:947  address */\n  0x00\n    /* \"@openzeppelin/contracts-upgradeable/utils/ContextUpgradeable.sol\":966:976  msg.sender */\n  caller\n    /* \"@openzeppelin/contracts-upgradeable/utils/ContextUpgradeable.sol\":959:976  return msg.sender */\n  swap1\n  pop\n    /* \"@openzeppelin/contracts-upgradeable/utils/ContextUpgradeable.sol\":887:983  function _msgSender() internal view virtual returns (address) {... */\n  swap1\n  jump\t// out\n    /* \"@openzeppelin/contracts-upgradeable/proxy/utils/Initializable.sol\":8487:8607  function _isInitializing() internal view returns (bool) {... */\ntag_24:\n    /* \"@openzeppelin/contracts-upgradeable/proxy/utils/Initializable.sol\":8537:8541  bool */\n  0x00\n    /* \"@openzeppelin/contracts-upgradeable/proxy/utils/Initializable.sol\":8560:8586  _getInitializableStorage() */\n  tag_31\n    /* \"@openzeppelin/contracts-upgradeable/proxy/utils/Initializable.sol\":8560:8584  _getInitializableStorage */\n  shl(0x20, tag_32)\n    /* \"@openzeppelin/contracts-upgradeable/proxy/utils/Initializable.sol\":8560:8586  _getInitializableStorage() */\n  0x20\n  shr\n  jump\t// in\ntag_31:\n    /* \"@openzeppelin/contracts-upgradeable/proxy/utils/Initializable.sol\":8560:8600  _getInitializableStorage()._initializing */\n  0x00\n  add\n  0x08\n  swap1\n  sload\n  swap1\n  0x0100\n  exp\n  swap1\n  div\n  0xff\n  and\n    /* \"@openzeppelin/contracts-upgradeable/proxy/utils/Initializable.sol\":8553:8600  return _getInitializableStorage()._initializing */\n  swap1\n  pop\n    /* \"@openzeppelin/contracts-upgradeable/proxy/utils/Initializable.sol\":8487:8607  function _isInitializing() internal view returns (bool) {... */\n  swap1\n  jump\t// out\n    /* \"@openzeppelin/contracts-upgradeable/proxy/utils/Initializable.sol\":8737:8907  function _getInitializableStorage() private pure returns (InitializableStorage storage $) {... */\ntag_32:\n    /* \"@openzeppelin/contracts-upgradeable/proxy/utils/Initializable.sol\":8795:8825  InitializableStorage storage $ */\n  0x00\n    /* \"@openzeppelin/contracts-upgradeable/proxy/utils/Initializable.sol\":8870:8891  INITIALIZABLE_STORAGE */\n  0xf0c57e16840df040f15088dc2f81fe391c3923bec73e23a9662efc9c229c6a00\n    /* \"@openzeppelin/contracts-upgradeable/proxy/utils/Initializable.sol\":8860:8891  $.slot := INITIALIZABLE_STORAGE */\n  swap1\n  pop\n    /* \"@openzeppelin/contracts-upgradeable/proxy/utils/Initializable.sol\":8737:8907  function _getInitializableStorage() private pure returns (InitializableStorage storage $) {... */\n  swap1\n  jump\t// out\n    /* \"L3/pledge.sol\":140:5863  contract pledge is AccessControlUpgradeable {... */\ntag_8:\n  dataSize(sub_0)\n  dup1\n  dataOffset(sub_0)\n  0x00\n  codecopy\n  0x00\n  return\nstop\n\nsub_0: assembly {\n        /* \"L3/pledge.sol\":140:5863  contract pledge is AccessControlUpgradeable {... */\n      mstore(0x40, 0x80)\n      callvalue\n      dup1\n      iszero\n      tag_1\n      jumpi\n      0x00\n      dup1\n      revert\n    tag_1:\n      pop\n      jumpi(tag_2, lt(calldatasize, 0x04))\n      shr(0xe0, calldataload(0x00))\n      dup1\n      0x5a5a971e\n      gt\n      tag_27\n      jumpi\n      dup1\n      0x91d14854\n      gt\n      tag_28\n      jumpi\n      dup1\n      0x91d14854\n      eq\n      tag_21\n      jumpi\n      dup1\n      0x9867e965\n      eq\n      tag_22\n      jumpi\n      dup1\n      0xa217fddf\n      eq\n      tag_23\n      jumpi\n      dup1\n      0xd547741f\n      eq\n      tag_24\n      jumpi\n      dup1\n      0xdbd3291c\n      eq\n      tag_25\n      jumpi\n      dup1\n      0xff514961\n      eq\n      tag_26\n      jumpi\n      jump(tag_2)\n    tag_28:\n      dup1\n      0x5a5a971e\n      eq\n      tag_15\n      jumpi\n      dup1\n      0x6ab55c17\n      eq\n      tag_16\n      jumpi\n      dup1\n      0x75b238fc\n      eq\n      tag_17\n      jumpi\n      dup1\n      0x7917fb9f\n      eq\n      tag_18\n      jumpi\n      dup1\n      0x897b0637\n      eq\n      tag_19\n      jumpi\n      dup1\n      0x90590da0\n      eq\n      tag_20\n      jumpi\n      jump(tag_2)\n    tag_27:\n      dup1\n      0x2f2ff15d\n      gt\n      tag_29\n      jumpi\n      dup1\n      0x2f2ff15d\n      eq\n      tag_9\n      jumpi\n      dup1\n      0x36568abe\n      eq\n      tag_10\n      jumpi\n      dup1\n      0x38f2aa76\n      eq\n      tag_11\n      jumpi\n      dup1\n      0x41275358\n      eq\n      tag_12\n      jumpi\n      dup1\n      0x5249961b\n      eq\n      tag_13\n      jumpi\n      dup1\n      0x52f7c988\n      eq\n      tag_14\n      jumpi\n      jump(tag_2)\n    tag_29:\n      dup1\n      0x0177b68c\n      eq\n      tag_3\n      jumpi\n      dup1\n      0x01ffc9a7\n      eq\n      tag_4\n      jumpi\n      dup1\n      0x09ae3f83\n      eq\n      tag_5\n      jumpi\n      dup1\n      0x16f941b5\n      eq\n      tag_6\n      jumpi\n      dup1\n      0x1af0a28d\n      eq\n      tag_7\n      jumpi\n      dup1\n      0x248a9ca3\n      eq\n      tag_8\n      jumpi\n    tag_2:\n      0x00\n      dup1\n      revert\n        /* \"L3/pledge.sol\":658:692  PoolDataInfo[] public poolDataInfo */\n    tag_3:\n      tag_30\n      0x04\n      dup1\n      calldatasize\n      sub\n      dup2\n      add\n      swap1\n      tag_31\n      swap2\n      swap1\n      tag_32\n      jump\t// in\n    tag_31:\n      tag_33\n      jump\t// in\n    tag_30:\n      mload(0x40)\n      tag_34\n      swap7\n      swap6\n      swap5\n      swap4\n      swap3\n      swap2\n      swap1\n      tag_35\n      jump\t// in\n    tag_34:\n      mload(0x40)\n      dup1\n      swap2\n      sub\n      swap1\n      return\n        /* \"@openzeppelin/contracts-upgradeable/access/AccessControlUpgradeable.sol\":3443:3645  function supportsInterface(bytes4 interfaceId) public view virtual override returns (bool) {... */\n    tag_4:\n      tag_36\n      0x04\n      dup1\n      calldatasize\n      sub\n      dup2\n      add\n      swap1\n      tag_37\n      swap2\n      swap1\n      tag_38\n      jump\t// in\n    tag_37:\n      tag_39\n      jump\t// in\n    tag_36:\n      mload(0x40)\n      tag_40\n      swap2\n      swap1\n      tag_41\n      jump\t// in\n    tag_40:\n      mload(0x40)\n      dup1\n      swap2\n      sub\n      swap1\n      return\n        /* \"L3/pledge.sol\":5068:5098  function claimLend() public {} */\n    tag_5:\n      tag_42\n      tag_43\n      jump\t// in\n    tag_42:\n      stop\n        /* \"L3/pledge.sol\":4499:5039  function depositBorrow(uint256 pid, uint256 stakeAmount) public {... */\n    tag_6:\n      tag_44\n      0x04\n      dup1\n      calldatasize\n      sub\n      dup2\n      add\n      swap1\n      tag_45\n      swap2\n      swap1\n      tag_46\n      jump\t// in\n    tag_45:\n      tag_47\n      jump\t// in\n    tag_44:\n      stop\n        /* \"L3/pledge.sol\":5125:5157  function claimBorrow() public {} */\n    tag_7:\n      tag_48\n      tag_49\n      jump\t// in\n    tag_48:\n      stop\n        /* \"@openzeppelin/contracts-upgradeable/access/AccessControlUpgradeable.sol\":4759:4950  function getRoleAdmin(bytes32 role) public view virtual returns (bytes32) {... */\n    tag_8:\n      tag_50\n      0x04\n      dup1\n      calldatasize\n      sub\n      dup2\n      add\n      swap1\n      tag_51\n      swap2\n      swap1\n      tag_52\n      jump\t// in\n    tag_51:\n      tag_53\n      jump\t// in\n    tag_50:\n      mload(0x40)\n      tag_54\n      swap2\n      swap1\n      tag_55\n      jump\t// in\n    tag_54:\n      mload(0x40)\n      dup1\n      swap2\n      sub\n      swap1\n      return\n        /* \"@openzeppelin/contracts-upgradeable/access/AccessControlUpgradeable.sol\":5246:5382  function grantRole(bytes32 role, address account) public virtual onlyRole(getRoleAdmin(role)) {... */\n    tag_9:\n      tag_56\n      0x04\n      dup1\n      calldatasize\n      sub\n      dup2\n      add\n      swap1\n      tag_57\n      swap2\n      swap1\n      tag_58\n      jump\t// in\n    tag_57:\n      tag_59\n      jump\t// in\n    tag_56:\n      stop\n        /* \"@openzeppelin/contracts-upgradeable/access/AccessControlUpgradeable.sol\":6348:6593  function renounceRole(bytes32 role, address callerConfirmation) public virtual {... */\n    tag_10:\n      tag_60\n      0x04\n      dup1\n      calldatasize\n      sub\n      dup2\n      add\n      swap1\n      tag_61\n      swap2\n      swap1\n      tag_58\n      jump\t// in\n    tag_61:\n      tag_62\n      jump\t// in\n    tag_60:\n      stop\n        /* \"L3/pledge.sol\":5184:5684  function withdrawLend(uint256 pid, uint256 spAmount) public {... */\n    tag_11:\n      tag_63\n      0x04\n      dup1\n      calldatasize\n      sub\n      dup2\n      add\n      swap1\n      tag_64\n      swap2\n      swap1\n      tag_46\n      jump\t// in\n    tag_64:\n      tag_65\n      jump\t// in\n    tag_63:\n      stop\n        /* \"L3/pledge.sol\":511:544  address payable public feeAddress */\n    tag_12:\n      tag_66\n      tag_67\n      jump\t// in\n    tag_66:\n      mload(0x40)\n      tag_68\n      swap2\n      swap1\n      tag_69\n      jump\t// in\n    tag_68:\n      mload(0x40)\n      dup1\n      swap2\n      sub\n      swap1\n      return\n        /* \"L3/pledge.sol\":3201:3433  function setSwapRouterAddress(address _swapRouterAddres)... */\n    tag_13:\n      tag_70\n      0x04\n      dup1\n      calldatasize\n      sub\n      dup2\n      add\n      swap1\n      tag_71\n      swap2\n      swap1\n      tag_72\n      jump\t// in\n    tag_71:\n      tag_73\n      jump\t// in\n    tag_70:\n      stop\n        /* \"L3/pledge.sol\":2992:3161  function setFee(uint256 _lendFee, uint256 _borrowFee)... */\n    tag_14:\n      tag_74\n      0x04\n      dup1\n      calldatasize\n      sub\n      dup2\n      add\n      swap1\n      tag_75\n      swap2\n      swap1\n      tag_46\n      jump\t// in\n    tag_75:\n      tag_76\n      jump\t// in\n    tag_74:\n      stop\n        /* \"L3/pledge.sol\":597:631  PoolBaseInfo[] public poolBaseInfo */\n    tag_15:\n      tag_77\n      0x04\n      dup1\n      calldatasize\n      sub\n      dup2\n      add\n      swap1\n      tag_78\n      swap2\n      swap1\n      tag_32\n      jump\t// in\n    tag_78:\n      tag_79\n      jump\t// in\n    tag_77:\n      mload(0x40)\n      tag_80\n      swap12\n      swap11\n      swap10\n      swap9\n      swap8\n      swap7\n      swap6\n      swap5\n      swap4\n      swap3\n      swap2\n      swap1\n      tag_81\n      jump\t// in\n    tag_80:\n      mload(0x40)\n      dup1\n      swap2\n      sub\n      swap1\n      return\n        /* \"L3/pledge.sol\":1928:2967  function createPoolInfo(... */\n    tag_16:\n      tag_82\n      0x04\n      dup1\n      calldatasize\n      sub\n      dup2\n      add\n      swap1\n      tag_83\n      swap2\n      swap1\n      tag_84\n      jump\t// in\n    tag_83:\n      tag_85\n      jump\t// in\n    tag_82:\n      stop\n        /* \"L3/pledge.sol\":881:941  bytes32 public constant ADMIN_ROLE = keccak256(\"admin_role\") */\n    tag_17:\n      tag_86\n      tag_87\n      jump\t// in\n    tag_86:\n      mload(0x40)\n      tag_88\n      swap2\n      swap1\n      tag_55\n      jump\t// in\n    tag_88:\n      mload(0x40)\n      dup1\n      swap2\n      sub\n      swap1\n      return\n        /* \"L3/pledge.sol\":3473:3655  function setFee(address payable _feeAddress) public onlyRole(ADMIN_ROLE) {... */\n    tag_18:\n      tag_89\n      0x04\n      dup1\n      calldatasize\n      sub\n      dup2\n      add\n      swap1\n      tag_90\n      swap2\n      swap1\n      tag_91\n      jump\t// in\n    tag_90:\n      tag_92\n      jump\t// in\n    tag_89:\n      stop\n        /* \"L3/pledge.sol\":3686:3774  function setMinAmount(uint256 _minAmount) public {... */\n    tag_19:\n      tag_93\n      0x04\n      dup1\n      calldatasize\n      sub\n      dup2\n      add\n      swap1\n      tag_94\n      swap2\n      swap1\n      tag_32\n      jump\t// in\n    tag_94:\n      tag_95\n      jump\t// in\n    tag_93:\n      stop\n        /* \"L3/pledge.sol\":3801:4472  function depositLend(uint256 pid, uint256 stakeAmount) public {... */\n    tag_20:\n      tag_96\n      0x04\n      dup1\n      calldatasize\n      sub\n      dup2\n      add\n      swap1\n      tag_97\n      swap2\n      swap1\n      tag_46\n      jump\t// in\n    tag_97:\n      tag_98\n      jump\t// in\n    tag_96:\n      stop\n        /* \"@openzeppelin/contracts-upgradeable/access/AccessControlUpgradeable.sol\":3732:3939  function hasRole(bytes32 role, address account) public view virtual returns (bool) {... */\n    tag_21:\n      tag_99\n      0x04\n      dup1\n      calldatasize\n      sub\n      dup2\n      add\n      swap1\n      tag_100\n      swap2\n      swap1\n      tag_58\n      jump\t// in\n    tag_100:\n      tag_101\n      jump\t// in\n    tag_99:\n      mload(0x40)\n      tag_102\n      swap2\n      swap1\n      tag_41\n      jump\t// in\n    tag_102:\n      mload(0x40)\n      dup1\n      swap2\n      sub\n      swap1\n      return\n        /* \"L3/pledge.sol\":5772:5803  function refundLend() public {} */\n    tag_22:\n      tag_103\n      tag_104\n      jump\t// in\n    tag_103:\n      stop\n        /* \"@openzeppelin/contracts-upgradeable/access/AccessControlUpgradeable.sol\":2317:2366  bytes32 public constant DEFAULT_ADMIN_ROLE = 0x00 */\n    tag_23:\n      tag_105\n      tag_106\n      jump\t// in\n    tag_105:\n      mload(0x40)\n      tag_107\n      swap2\n      swap1\n      tag_55\n      jump\t// in\n    tag_107:\n      mload(0x40)\n      dup1\n      swap2\n      sub\n      swap1\n      return\n        /* \"@openzeppelin/contracts-upgradeable/access/AccessControlUpgradeable.sol\":5662:5800  function revokeRole(bytes32 role, address account) public virtual onlyRole(getRoleAdmin(role)) {... */\n    tag_24:\n      tag_108\n      0x04\n      dup1\n      calldatasize\n      sub\n      dup2\n      add\n      swap1\n      tag_109\n      swap2\n      swap1\n      tag_58\n      jump\t// in\n    tag_109:\n      tag_110\n      jump\t// in\n    tag_108:\n      stop\n        /* \"L3/pledge.sol\":5828:5861  function refundBorrow() public {} */\n    tag_25:\n      tag_111\n      tag_112\n      jump\t// in\n    tag_111:\n      stop\n        /* \"L3/pledge.sol\":5712:5747  function withdrawBorrow() public {} */\n    tag_26:\n      tag_113\n      tag_114\n      jump\t// in\n    tag_113:\n      stop\n        /* \"L3/pledge.sol\":658:692  PoolDataInfo[] public poolDataInfo */\n    tag_33:\n      0x1c\n      dup2\n      dup2\n      sload\n      dup2\n      lt\n      tag_115\n      jumpi\n      0x00\n      dup1\n      revert\n    tag_115:\n      swap1\n      0x00\n      mstore\n      keccak256(0x00, 0x20)\n      swap1\n      0x06\n      mul\n      add\n      0x00\n      swap2\n      pop\n      swap1\n      pop\n      dup1\n      0x00\n      add\n      sload\n      swap1\n      dup1\n      0x01\n      add\n      sload\n      swap1\n      dup1\n      0x02\n      add\n      sload\n      swap1\n      dup1\n      0x03\n      add\n      sload\n      swap1\n      dup1\n      0x04\n      add\n      sload\n      swap1\n      dup1\n      0x05\n      add\n      sload\n      swap1\n      pop\n      dup7\n      jump\t// out\n        /* \"@openzeppelin/contracts-upgradeable/access/AccessControlUpgradeable.sol\":3443:3645  function supportsInterface(bytes4 interfaceId) public view virtual override returns (bool) {... */\n    tag_39:\n        /* \"@openzeppelin/contracts-upgradeable/access/AccessControlUpgradeable.sol\":3528:3532  bool */\n      0x00\n        /* \"@openzeppelin/contracts-upgradeable/access/AccessControlUpgradeable.sol\":3566:3598  type(IAccessControl).interfaceId */\n      0x7965db0b00000000000000000000000000000000000000000000000000000000\n        /* \"@openzeppelin/contracts-upgradeable/access/AccessControlUpgradeable.sol\":3551:3598  interfaceId == type(IAccessControl).interfaceId */\n      not(0xffffffffffffffffffffffffffffffffffffffffffffffffffffffff)\n      and\n        /* \"@openzeppelin/contracts-upgradeable/access/AccessControlUpgradeable.sol\":3551:3562  interfaceId */\n      dup3\n        /* \"@openzeppelin/contracts-upgradeable/access/AccessControlUpgradeable.sol\":3551:3598  interfaceId == type(IAccessControl).interfaceId */\n      not(0xffffffffffffffffffffffffffffffffffffffffffffffffffffffff)\n      and\n      eq\n        /* \"@openzeppelin/contracts-upgradeable/access/AccessControlUpgradeable.sol\":3551:3638  interfaceId == type(IAccessControl).interfaceId || super.supportsInterface(interfaceId) */\n      dup1\n      tag_118\n      jumpi\n      pop\n        /* \"@openzeppelin/contracts-upgradeable/access/AccessControlUpgradeable.sol\":3602:3638  super.supportsInterface(interfaceId) */\n      tag_119\n        /* \"@openzeppelin/contracts-upgradeable/access/AccessControlUpgradeable.sol\":3626:3637  interfaceId */\n      dup3\n        /* \"@openzeppelin/contracts-upgradeable/access/AccessControlUpgradeable.sol\":3602:3625  super.supportsInterface */\n      tag_120\n        /* \"@openzeppelin/contracts-upgradeable/access/AccessControlUpgradeable.sol\":3602:3638  super.supportsInterface(interfaceId) */\n      jump\t// in\n    tag_119:\n        /* \"@openzeppelin/contracts-upgradeable/access/AccessControlUpgradeable.sol\":3551:3638  interfaceId == type(IAccessControl).interfaceId || super.supportsInterface(interfaceId) */\n    tag_118:\n        /* \"@openzeppelin/contracts-upgradeable/access/AccessControlUpgradeable.sol\":3544:3638  return interfaceId == type(IAccessControl).interfaceId || super.supportsInterface(interfaceId) */\n      swap1\n      pop\n        /* \"@openzeppelin/contracts-upgradeable/access/AccessControlUpgradeable.sol\":3443:3645  function supportsInterface(bytes4 interfaceId) public view virtual override returns (bool) {... */\n      swap2\n      swap1\n      pop\n      jump\t// out\n        /* \"L3/pledge.sol\":5068:5098  function claimLend() public {} */\n    tag_43:\n      jump\t// out\n        /* \"L3/pledge.sol\":4499:5039  function depositBorrow(uint256 pid, uint256 stakeAmount) public {... */\n    tag_47:\n        /* \"L3/pledge.sol\":4572:4598  PoolBaseInfo storage mPool */\n      0x00\n        /* \"L3/pledge.sol\":4601:4613  poolBaseInfo */\n      0x1a\n        /* \"L3/pledge.sol\":4614:4617  pid */\n      dup4\n        /* \"L3/pledge.sol\":4601:4618  poolBaseInfo[pid] */\n      dup2\n      sload\n      dup2\n      lt\n      tag_123\n      jumpi\n      tag_124\n      tag_125\n      jump\t// in\n    tag_124:\n    tag_123:\n      swap1\n      0x00\n      mstore\n      keccak256(0x00, 0x20)\n      swap1\n      0x0b\n      mul\n      add\n        /* \"L3/pledge.sol\":4572:4618  PoolBaseInfo storage mPool = poolBaseInfo[pid] */\n      swap1\n      pop\n        /* \"L3/pledge.sol\":4628:4654  LendInfo storage mLendInfo */\n      0x00\n        /* \"L3/pledge.sol\":4657:4669  userLendInfo */\n      0x1d\n        /* \"L3/pledge.sol\":4657:4681  userLendInfo[msg.sender] */\n      0x00\n        /* \"L3/pledge.sol\":4670:4680  msg.sender */\n      caller\n        /* \"L3/pledge.sol\":4657:4681  userLendInfo[msg.sender] */\n      0xffffffffffffffffffffffffffffffffffffffff\n      and\n      0xffffffffffffffffffffffffffffffffffffffff\n      and\n      dup2\n      mstore\n      0x20\n      add\n      swap1\n      dup2\n      mstore\n      0x20\n      add\n      0x00\n      keccak256\n        /* \"L3/pledge.sol\":4657:4686  userLendInfo[msg.sender][pid] */\n      0x00\n        /* \"L3/pledge.sol\":4682:4685  pid */\n      dup6\n        /* \"L3/pledge.sol\":4657:4686  userLendInfo[msg.sender][pid] */\n      dup2\n      mstore\n      0x20\n      add\n      swap1\n      dup2\n      mstore\n      0x20\n      add\n      0x00\n      keccak256\n        /* \"L3/pledge.sol\":4628:4686  LendInfo storage mLendInfo = userLendInfo[msg.sender][pid] */\n      swap1\n      pop\n        /* \"L3/pledge.sol\":4721:4726  mPool */\n      dup2\n        /* \"L3/pledge.sol\":4721:4737  mPool.settleTime */\n      0x00\n      add\n      sload\n        /* \"L3/pledge.sol\":4705:4720  block.timestamp */\n      timestamp\n        /* \"L3/pledge.sol\":4705:4737  block.timestamp<mPool.settleTime */\n      lt\n        /* \"L3/pledge.sol\":4697:4768  require(block.timestamp<mPool.settleTime,\"time later than settle time\") */\n      tag_127\n      jumpi\n      mload(0x40)\n      0x08c379a000000000000000000000000000000000000000000000000000000000\n      dup2\n      mstore\n      0x04\n      add\n      tag_128\n      swap1\n      tag_129\n      jump\t// in\n    tag_128:\n      mload(0x40)\n      dup1\n      swap2\n      sub\n      swap1\n      revert\n    tag_127:\n        /* \"L3/pledge.sol\":4795:4810  PoolState.MATCH */\n      0x00\n        /* \"L3/pledge.sol\":4786:4810  state == PoolState.MATCH */\n      0x04\n      dup2\n      gt\n      iszero\n      tag_130\n      jumpi\n      tag_131\n      tag_132\n      jump\t// in\n    tag_131:\n    tag_130:\n        /* \"L3/pledge.sol\":4786:4791  state */\n      0x1b\n      0x00\n      swap1\n      sload\n      swap1\n      0x0100\n      exp\n      swap1\n      div\n      0xff\n      and\n        /* \"L3/pledge.sol\":4786:4810  state == PoolState.MATCH */\n      0x04\n      dup2\n      gt\n      iszero\n      tag_133\n      jumpi\n      tag_134\n      tag_132\n      jump\t// in\n    tag_134:\n    tag_133:\n      eq\n        /* \"L3/pledge.sol\":4778:4830  require(state == PoolState.MATCH, \"state not match\") */\n      tag_135\n      jumpi\n      mload(0x40)\n      0x08c379a000000000000000000000000000000000000000000000000000000000\n      dup2\n      mstore\n      0x04\n      add\n      tag_136\n      swap1\n      tag_137\n      jump\t// in\n    tag_136:\n      mload(0x40)\n      dup1\n      swap2\n      sub\n      swap1\n      revert\n    tag_135:\n        /* \"L3/pledge.sol\":4884:4885  0 */\n      0x00\n        /* \"L3/pledge.sol\":4870:4881  stakeAmount */\n      dup4\n        /* \"L3/pledge.sol\":4870:4885  stakeAmount > 0 */\n      gt\n        /* \"L3/pledge.sol\":4849:4943  require(... */\n      tag_138\n      jumpi\n      mload(0x40)\n      0x08c379a000000000000000000000000000000000000000000000000000000000\n      dup2\n      mstore\n      0x04\n      add\n      tag_139\n      swap1\n      tag_140\n      jump\t// in\n    tag_139:\n      mload(0x40)\n      dup1\n      swap2\n      sub\n      swap1\n      revert\n    tag_138:\n        /* \"L3/pledge.sol\":4974:4985  stakeAmount */\n      dup3\n        /* \"L3/pledge.sol\":4954:4959  mPool */\n      dup3\n        /* \"L3/pledge.sol\":4954:4970  mPool.lendSupply */\n      0x04\n      add\n      0x00\n        /* \"L3/pledge.sol\":4954:4985  mPool.lendSupply -= stakeAmount */\n      dup3\n      dup3\n      sload\n      tag_141\n      swap2\n      swap1\n      tag_142\n      jump\t// in\n    tag_141:\n      swap3\n      pop\n      pop\n      dup2\n      swap1\n      sstore\n      pop\n        /* \"L3/pledge.sol\":5020:5031  stakeAmount */\n      dup3\n        /* \"L3/pledge.sol\":4995:5004  mLendInfo */\n      dup2\n        /* \"L3/pledge.sol\":4995:5016  mLendInfo.stakeAmount */\n      0x00\n      add\n      0x00\n        /* \"L3/pledge.sol\":4995:5031  mLendInfo.stakeAmount += stakeAmount */\n      dup3\n      dup3\n      sload\n      tag_143\n      swap2\n      swap1\n      tag_144\n      jump\t// in\n    tag_143:\n      swap3\n      pop\n      pop\n      dup2\n      swap1\n      sstore\n      pop\n        /* \"L3/pledge.sol\":4563:5039  {... */\n      pop\n      pop\n        /* \"L3/pledge.sol\":4499:5039  function depositBorrow(uint256 pid, uint256 stakeAmount) public {... */\n      pop\n      pop\n      jump\t// out\n        /* \"L3/pledge.sol\":5125:5157  function claimBorrow() public {} */\n    tag_49:\n      jump\t// out\n        /* \"@openzeppelin/contracts-upgradeable/access/AccessControlUpgradeable.sol\":4759:4950  function getRoleAdmin(bytes32 role) public view virtual returns (bytes32) {... */\n    tag_53:\n        /* \"@openzeppelin/contracts-upgradeable/access/AccessControlUpgradeable.sol\":4824:4831  bytes32 */\n      0x00\n        /* \"@openzeppelin/contracts-upgradeable/access/AccessControlUpgradeable.sol\":4843:4873  AccessControlStorage storage $ */\n      dup1\n        /* \"@openzeppelin/contracts-upgradeable/access/AccessControlUpgradeable.sol\":4876:4902  _getAccessControlStorage() */\n      tag_147\n        /* \"@openzeppelin/contracts-upgradeable/access/AccessControlUpgradeable.sol\":4876:4900  _getAccessControlStorage */\n      tag_148\n        /* \"@openzeppelin/contracts-upgradeable/access/AccessControlUpgradeable.sol\":4876:4902  _getAccessControlStorage() */\n      jump\t// in\n    tag_147:\n        /* \"@openzeppelin/contracts-upgradeable/access/AccessControlUpgradeable.sol\":4843:4902  AccessControlStorage storage $ = _getAccessControlStorage() */\n      swap1\n      pop\n        /* \"@openzeppelin/contracts-upgradeable/access/AccessControlUpgradeable.sol\":4919:4920  $ */\n      dup1\n        /* \"@openzeppelin/contracts-upgradeable/access/AccessControlUpgradeable.sol\":4919:4927  $._roles */\n      0x00\n      add\n        /* \"@openzeppelin/contracts-upgradeable/access/AccessControlUpgradeable.sol\":4919:4933  $._roles[role] */\n      0x00\n        /* \"@openzeppelin/contracts-upgradeable/access/AccessControlUpgradeable.sol\":4928:4932  role */\n      dup5\n        /* \"@openzeppelin/contracts-upgradeable/access/AccessControlUpgradeable.sol\":4919:4933  $._roles[role] */\n      dup2\n      mstore\n      0x20\n      add\n      swap1\n      dup2\n      mstore\n      0x20\n      add\n      0x00\n      keccak256\n        /* \"@openzeppelin/contracts-upgradeable/access/AccessControlUpgradeable.sol\":4919:4943  $._roles[role].adminRole */\n      0x01\n      add\n      sload\n        /* \"@openzeppelin/contracts-upgradeable/access/AccessControlUpgradeable.sol\":4912:4943  return $._roles[role].adminRole */\n      swap2\n      pop\n      pop\n        /* \"@openzeppelin/contracts-upgradeable/access/AccessControlUpgradeable.sol\":4759:4950  function getRoleAdmin(bytes32 role) public view virtual returns (bytes32) {... */\n      swap2\n      swap1\n      pop\n      jump\t// out\n        /* \"@openzeppelin/contracts-upgradeable/access/AccessControlUpgradeable.sol\":5246:5382  function grantRole(bytes32 role, address account) public virtual onlyRole(getRoleAdmin(role)) {... */\n    tag_59:\n        /* \"@openzeppelin/contracts-upgradeable/access/AccessControlUpgradeable.sol\":5320:5338  getRoleAdmin(role) */\n      tag_149\n        /* \"@openzeppelin/contracts-upgradeable/access/AccessControlUpgradeable.sol\":5333:5337  role */\n      dup3\n        /* \"@openzeppelin/contracts-upgradeable/access/AccessControlUpgradeable.sol\":5320:5332  getRoleAdmin */\n      tag_53\n        /* \"@openzeppelin/contracts-upgradeable/access/AccessControlUpgradeable.sol\":5320:5338  getRoleAdmin(role) */\n      jump\t// in\n    tag_149:\n        /* \"@openzeppelin/contracts-upgradeable/access/AccessControlUpgradeable.sol\":3191:3207  _checkRole(role) */\n      tag_151\n        /* \"@openzeppelin/contracts-upgradeable/access/AccessControlUpgradeable.sol\":3202:3206  role */\n      dup2\n        /* \"@openzeppelin/contracts-upgradeable/access/AccessControlUpgradeable.sol\":3191:3201  _checkRole */\n      tag_152\n        /* \"@openzeppelin/contracts-upgradeable/access/AccessControlUpgradeable.sol\":3191:3207  _checkRole(role) */\n      jump\t// in\n    tag_151:\n        /* \"@openzeppelin/contracts-upgradeable/access/AccessControlUpgradeable.sol\":5350:5375  _grantRole(role, account) */\n      tag_154\n        /* \"@openzeppelin/contracts-upgradeable/access/AccessControlUpgradeable.sol\":5361:5365  role */\n      dup4\n        /* \"@openzeppelin/contracts-upgradeable/access/AccessControlUpgradeable.sol\":5367:5374  account */\n      dup4\n        /* \"@openzeppelin/contracts-upgradeable/access/AccessControlUpgradeable.sol\":5350:5360  _grantRole */\n      tag_155\n        /* \"@openzeppelin/contracts-upgradeable/access/AccessControlUpgradeable.sol\":5350:5375  _grantRole(role, account) */\n      jump\t// in\n    tag_154:\n      pop\n        /* \"@openzeppelin/contracts-upgradeable/access/AccessControlUpgradeable.sol\":5246:5382  function grantRole(bytes32 role, address account) public virtual onlyRole(getRoleAdmin(role)) {... */\n      pop\n      pop\n      pop\n      jump\t// out\n        /* \"@openzeppelin/contracts-upgradeable/access/AccessControlUpgradeable.sol\":6348:6593  function renounceRole(bytes32 role, address callerConfirmation) public virtual {... */\n    tag_62:\n        /* \"@openzeppelin/contracts-upgradeable/access/AccessControlUpgradeable.sol\":6463:6475  _msgSender() */\n      tag_157\n        /* \"@openzeppelin/contracts-upgradeable/access/AccessControlUpgradeable.sol\":6463:6473  _msgSender */\n      tag_158\n        /* \"@openzeppelin/contracts-upgradeable/access/AccessControlUpgradeable.sol\":6463:6475  _msgSender() */\n      jump\t// in\n    tag_157:\n        /* \"@openzeppelin/contracts-upgradeable/access/AccessControlUpgradeable.sol\":6441:6475  callerConfirmation != _msgSender() */\n      0xffffffffffffffffffffffffffffffffffffffff\n      and\n        /* \"@openzeppelin/contracts-upgradeable/access/AccessControlUpgradeable.sol\":6441:6459  callerConfirmation */\n      dup2\n        /* \"@openzeppelin/contracts-upgradeable/access/AccessControlUpgradeable.sol\":6441:6475  callerConfirmation != _msgSender() */\n      0xffffffffffffffffffffffffffffffffffffffff\n      and\n      eq\n        /* \"@openzeppelin/contracts-upgradeable/access/AccessControlUpgradeable.sol\":6437:6539  if (callerConfirmation != _msgSender()) {... */\n      tag_159\n      jumpi\n        /* \"@openzeppelin/contracts-upgradeable/access/AccessControlUpgradeable.sol\":6498:6528  AccessControlBadConfirmation() */\n      mload(0x40)\n      0x6697b23200000000000000000000000000000000000000000000000000000000\n      dup2\n      mstore\n      0x04\n      add\n      mload(0x40)\n      dup1\n      swap2\n      sub\n      swap1\n      revert\n        /* \"@openzeppelin/contracts-upgradeable/access/AccessControlUpgradeable.sol\":6437:6539  if (callerConfirmation != _msgSender()) {... */\n    tag_159:\n        /* \"@openzeppelin/contracts-upgradeable/access/AccessControlUpgradeable.sol\":6549:6586  _revokeRole(role, callerConfirmation) */\n      tag_160\n        /* \"@openzeppelin/contracts-upgradeable/access/AccessControlUpgradeable.sol\":6561:6565  role */\n      dup3\n        /* \"@openzeppelin/contracts-upgradeable/access/AccessControlUpgradeable.sol\":6567:6585  callerConfirmation */\n      dup3\n        /* \"@openzeppelin/contracts-upgradeable/access/AccessControlUpgradeable.sol\":6549:6560  _revokeRole */\n      tag_161\n        /* \"@openzeppelin/contracts-upgradeable/access/AccessControlUpgradeable.sol\":6549:6586  _revokeRole(role, callerConfirmation) */\n      jump\t// in\n    tag_160:\n      pop\n        /* \"@openzeppelin/contracts-upgradeable/access/AccessControlUpgradeable.sol\":6348:6593  function renounceRole(bytes32 role, address callerConfirmation) public virtual {... */\n      pop\n      pop\n      jump\t// out\n        /* \"L3/pledge.sol\":5184:5684  function withdrawLend(uint256 pid, uint256 spAmount) public {... */\n    tag_65:\n        /* \"L3/pledge.sol\":5284:5300  PoolState.FINISH */\n      0x02\n        /* \"L3/pledge.sol\":5275:5300  state == PoolState.FINISH */\n      0x04\n      dup2\n      gt\n      iszero\n      tag_163\n      jumpi\n      tag_164\n      tag_132\n      jump\t// in\n    tag_164:\n    tag_163:\n        /* \"L3/pledge.sol\":5275:5280  state */\n      0x1b\n      0x00\n      swap1\n      sload\n      swap1\n      0x0100\n      exp\n      swap1\n      div\n      0xff\n      and\n        /* \"L3/pledge.sol\":5275:5300  state == PoolState.FINISH */\n      0x04\n      dup2\n      gt\n      iszero\n      tag_165\n      jumpi\n      tag_166\n      tag_132\n      jump\t// in\n    tag_166:\n    tag_165:\n      eq\n        /* \"L3/pledge.sol\":5275:5334  state == PoolState.FINISH || state == PoolState.LIQUIDATION */\n      dup1\n      tag_167\n      jumpi\n      pop\n        /* \"L3/pledge.sol\":5313:5334  PoolState.LIQUIDATION */\n      0x03\n        /* \"L3/pledge.sol\":5304:5334  state == PoolState.LIQUIDATION */\n      0x04\n      dup2\n      gt\n      iszero\n      tag_168\n      jumpi\n      tag_169\n      tag_132\n      jump\t// in\n    tag_169:\n    tag_168:\n        /* \"L3/pledge.sol\":5304:5309  state */\n      0x1b\n      0x00\n      swap1\n      sload\n      swap1\n      0x0100\n      exp\n      swap1\n      div\n      0xff\n      and\n        /* \"L3/pledge.sol\":5304:5334  state == PoolState.LIQUIDATION */\n      0x04\n      dup2\n      gt\n      iszero\n      tag_170\n      jumpi\n      tag_171\n      tag_132\n      jump\t// in\n    tag_171:\n    tag_170:\n      eq\n        /* \"L3/pledge.sol\":5275:5334  state == PoolState.FINISH || state == PoolState.LIQUIDATION */\n    tag_167:\n        /* \"L3/pledge.sol\":5254:5391  require(... */\n      tag_172\n      jumpi\n      mload(0x40)\n      0x08c379a000000000000000000000000000000000000000000000000000000000\n      dup2\n      mstore\n      0x04\n      add\n      tag_173\n      swap1\n      tag_174\n      jump\t// in\n    tag_173:\n      mload(0x40)\n      dup1\n      swap2\n      sub\n      swap1\n      revert\n    tag_172:\n        /* \"L3/pledge.sol\":5421:5422  0 */\n      0x00\n        /* \"L3/pledge.sol\":5410:5418  spAmount */\n      dup2\n        /* \"L3/pledge.sol\":5410:5422  spAmount > 0 */\n      gt\n        /* \"L3/pledge.sol\":5402:5446  require(spAmount > 0, \"spAmount not enough\") */\n      tag_175\n      jumpi\n      mload(0x40)\n      0x08c379a000000000000000000000000000000000000000000000000000000000\n      dup2\n      mstore\n      0x04\n      add\n      tag_176\n      swap1\n      tag_177\n      jump\t// in\n    tag_176:\n      mload(0x40)\n      dup1\n      swap2\n      sub\n      swap1\n      revert\n    tag_175:\n        /* \"L3/pledge.sol\":5456:5482  LendInfo storage mLendInfo */\n      0x00\n        /* \"L3/pledge.sol\":5485:5497  userLendInfo */\n      0x1d\n        /* \"L3/pledge.sol\":5485:5509  userLendInfo[msg.sender] */\n      0x00\n        /* \"L3/pledge.sol\":5498:5508  msg.sender */\n      caller\n        /* \"L3/pledge.sol\":5485:5509  userLendInfo[msg.sender] */\n      0xffffffffffffffffffffffffffffffffffffffff\n      and\n      0xffffffffffffffffffffffffffffffffffffffff\n      and\n      dup2\n      mstore\n      0x20\n      add\n      swap1\n      dup2\n      mstore\n      0x20\n      add\n      0x00\n      keccak256\n        /* \"L3/pledge.sol\":5485:5514  userLendInfo[msg.sender][pid] */\n      0x00\n        /* \"L3/pledge.sol\":5510:5513  pid */\n      dup5\n        /* \"L3/pledge.sol\":5485:5514  userLendInfo[msg.sender][pid] */\n      dup2\n      mstore\n      0x20\n      add\n      swap1\n      dup2\n      mstore\n      0x20\n      add\n      0x00\n      keccak256\n        /* \"L3/pledge.sol\":5456:5514  LendInfo storage mLendInfo = userLendInfo[msg.sender][pid] */\n      swap1\n      pop\n        /* \"L3/pledge.sol\":5554:5562  spAmount */\n      dup2\n        /* \"L3/pledge.sol\":5529:5538  mLendInfo */\n      dup2\n        /* \"L3/pledge.sol\":5529:5550  mLendInfo.stakeAmount */\n      0x00\n      add\n      sload\n        /* \"L3/pledge.sol\":5529:5562  mLendInfo.stakeAmount >= spAmount */\n      lt\n        /* \"L3/pledge.sol\":5525:5678  if (mLendInfo.stakeAmount >= spAmount) {... */\n      tag_178\n      jumpi\n        /* \"L3/pledge.sol\":5603:5611  spAmount */\n      dup2\n        /* \"L3/pledge.sol\":5578:5587  mLendInfo */\n      dup2\n        /* \"L3/pledge.sol\":5578:5599  mLendInfo.stakeAmount */\n      0x00\n      add\n      0x00\n        /* \"L3/pledge.sol\":5578:5611  mLendInfo.stakeAmount -= spAmount */\n      dup3\n      dup3\n      sload\n      tag_179\n      swap2\n      swap1\n      tag_142\n      jump\t// in\n    tag_179:\n      swap3\n      pop\n      pop\n      dup2\n      swap1\n      sstore\n      pop\n        /* \"L3/pledge.sol\":5525:5678  if (mLendInfo.stakeAmount >= spAmount) {... */\n      jump(tag_180)\n    tag_178:\n        /* \"L3/pledge.sol\":5666:5667  0 */\n      0x00\n        /* \"L3/pledge.sol\":5642:5651  mLendInfo */\n      dup2\n        /* \"L3/pledge.sol\":5642:5663  mLendInfo.stakeAmount */\n      0x00\n      add\n        /* \"L3/pledge.sol\":5642:5667  mLendInfo.stakeAmount = 0 */\n      dup2\n      swap1\n      sstore\n      pop\n        /* \"L3/pledge.sol\":5525:5678  if (mLendInfo.stakeAmount >= spAmount) {... */\n    tag_180:\n        /* \"L3/pledge.sol\":5244:5684  {... */\n      pop\n        /* \"L3/pledge.sol\":5184:5684  function withdrawLend(uint256 pid, uint256 spAmount) public {... */\n      pop\n      pop\n      jump\t// out\n        /* \"L3/pledge.sol\":511:544  address payable public feeAddress */\n    tag_67:\n      0x0d\n      0x00\n      swap1\n      sload\n      swap1\n      0x0100\n      exp\n      swap1\n      div\n      0xffffffffffffffffffffffffffffffffffffffff\n      and\n      dup2\n      jump\t// out\n        /* \"L3/pledge.sol\":3201:3433  function setSwapRouterAddress(address _swapRouterAddres)... */\n    tag_73:\n        /* \"L3/pledge.sol\":918:941  keccak256(\"admin_role\") */\n      0x589d473ba17c0f47d494622893831497bad25919b9afb8e33e9521b8963fccde\n        /* \"@openzeppelin/contracts-upgradeable/access/AccessControlUpgradeable.sol\":3191:3207  _checkRole(role) */\n      tag_182\n        /* \"@openzeppelin/contracts-upgradeable/access/AccessControlUpgradeable.sol\":3202:3206  role */\n      dup2\n        /* \"@openzeppelin/contracts-upgradeable/access/AccessControlUpgradeable.sol\":3191:3201  _checkRole */\n      tag_152\n        /* \"@openzeppelin/contracts-upgradeable/access/AccessControlUpgradeable.sol\":3191:3207  _checkRole(role) */\n      jump\t// in\n    tag_182:\n        /* \"L3/pledge.sol\":3353:3354  0 */\n      0x00\n        /* \"L3/pledge.sol\":3324:3355  _swapRouterAddres != address(0) */\n      0xffffffffffffffffffffffffffffffffffffffff\n      and\n        /* \"L3/pledge.sol\":3324:3341  _swapRouterAddres */\n      dup3\n        /* \"L3/pledge.sol\":3324:3355  _swapRouterAddres != address(0) */\n      0xffffffffffffffffffffffffffffffffffffffff\n      and\n      sub\n        /* \"L3/pledge.sol\":3316:3379  require(_swapRouterAddres != address(0), \"address not be zero\") */\n      tag_184\n      jumpi\n      mload(0x40)\n      0x08c379a000000000000000000000000000000000000000000000000000000000\n      dup2\n      mstore\n      0x04\n      add\n      tag_185\n      swap1\n      tag_186\n      jump\t// in\n    tag_185:\n      mload(0x40)\n      dup1\n      swap2\n      sub\n      swap1\n      revert\n    tag_184:\n        /* \"L3/pledge.sol\":3409:3426  _swapRouterAddres */\n      dup2\n        /* \"L3/pledge.sol\":3390:3406  swapRouterAddres */\n      0x0c\n      0x00\n        /* \"L3/pledge.sol\":3390:3426  swapRouterAddres = _swapRouterAddres */\n      0x0100\n      exp\n      dup2\n      sload\n      dup2\n      0xffffffffffffffffffffffffffffffffffffffff\n      mul\n      not\n      and\n      swap1\n      dup4\n      0xffffffffffffffffffffffffffffffffffffffff\n      and\n      mul\n      or\n      swap1\n      sstore\n      pop\n        /* \"L3/pledge.sol\":3201:3433  function setSwapRouterAddress(address _swapRouterAddres)... */\n      pop\n      pop\n      jump\t// out\n        /* \"L3/pledge.sol\":2992:3161  function setFee(uint256 _lendFee, uint256 _borrowFee)... */\n    tag_76:\n        /* \"L3/pledge.sol\":918:941  keccak256(\"admin_role\") */\n      0x589d473ba17c0f47d494622893831497bad25919b9afb8e33e9521b8963fccde\n        /* \"@openzeppelin/contracts-upgradeable/access/AccessControlUpgradeable.sol\":3191:3207  _checkRole(role) */\n      tag_188\n        /* \"@openzeppelin/contracts-upgradeable/access/AccessControlUpgradeable.sol\":3202:3206  role */\n      dup2\n        /* \"@openzeppelin/contracts-upgradeable/access/AccessControlUpgradeable.sol\":3191:3201  _checkRole */\n      tag_152\n        /* \"@openzeppelin/contracts-upgradeable/access/AccessControlUpgradeable.sol\":3191:3207  _checkRole(role) */\n      jump\t// in\n    tag_188:\n        /* \"L3/pledge.sol\":3114:3122  _lendFee */\n      dup3\n        /* \"L3/pledge.sol\":3104:3111  lendFee */\n      0x0a\n        /* \"L3/pledge.sol\":3104:3122  lendFee = _lendFee */\n      dup2\n      swap1\n      sstore\n      pop\n        /* \"L3/pledge.sol\":3144:3154  _borrowFee */\n      dup2\n        /* \"L3/pledge.sol\":3132:3141  borrowFee */\n      0x0b\n        /* \"L3/pledge.sol\":3132:3154  borrowFee = _borrowFee */\n      dup2\n      swap1\n      sstore\n      pop\n        /* \"L3/pledge.sol\":2992:3161  function setFee(uint256 _lendFee, uint256 _borrowFee)... */\n      pop\n      pop\n      pop\n      jump\t// out\n        /* \"L3/pledge.sol\":597:631  PoolBaseInfo[] public poolBaseInfo */\n    tag_79:\n      0x1a\n      dup2\n      dup2\n      sload\n      dup2\n      lt\n      tag_190\n      jumpi\n      0x00\n      dup1\n      revert\n    tag_190:\n      swap1\n      0x00\n      mstore\n      keccak256(0x00, 0x20)\n      swap1\n      0x0b\n      mul\n      add\n      0x00\n      swap2\n      pop\n      swap1\n      pop\n      dup1\n      0x00\n      add\n      sload\n      swap1\n      dup1\n      0x01\n      add\n      sload\n      swap1\n      dup1\n      0x02\n      add\n      sload\n      swap1\n      dup1\n      0x03\n      add\n      sload\n      swap1\n      dup1\n      0x04\n      add\n      sload\n      swap1\n      dup1\n      0x05\n      add\n      sload\n      swap1\n      dup1\n      0x06\n      add\n      0x00\n      swap1\n      sload\n      swap1\n      0x0100\n      exp\n      swap1\n      div\n      0xffffffffffffffffffffffffffffffffffffffff\n      and\n      swap1\n      dup1\n      0x07\n      add\n      0x00\n      swap1\n      sload\n      swap1\n      0x0100\n      exp\n      swap1\n      div\n      0xffffffffffffffffffffffffffffffffffffffff\n      and\n      swap1\n      dup1\n      0x08\n      add\n      0x00\n      swap1\n      sload\n      swap1\n      0x0100\n      exp\n      swap1\n      div\n      0xffffffffffffffffffffffffffffffffffffffff\n      and\n      swap1\n      dup1\n      0x09\n      add\n      0x00\n      swap1\n      sload\n      swap1\n      0x0100\n      exp\n      swap1\n      div\n      0xffffffffffffffffffffffffffffffffffffffff\n      and\n      swap1\n      dup1\n      0x0a\n      add\n      sload\n      swap1\n      pop\n      dup12\n      jump\t// out\n        /* \"L3/pledge.sol\":1928:2967  function createPoolInfo(... */\n    tag_85:\n        /* \"L3/pledge.sol\":2319:2330  _settleTime */\n      dup11\n        /* \"L3/pledge.sol\":2308:2316  _endTime */\n      dup11\n        /* \"L3/pledge.sol\":2308:2330  _endTime > _settleTime */\n      gt\n        /* \"L3/pledge.sol\":2300:2346  require(_endTime > _settleTime, \"project end\") */\n      tag_193\n      jumpi\n      mload(0x40)\n      0x08c379a000000000000000000000000000000000000000000000000000000000\n      dup2\n      mstore\n      0x04\n      add\n      tag_194\n      swap1\n      tag_195\n      jump\t// in\n    tag_194:\n      mload(0x40)\n      dup1\n      swap2\n      sub\n      swap1\n      revert\n    tag_193:\n        /* \"L3/pledge.sol\":2397:2398  0 */\n      0x00\n        /* \"L3/pledge.sol\":2377:2399  _spToken == address(0) */\n      0xffffffffffffffffffffffffffffffffffffffff\n      and\n        /* \"L3/pledge.sol\":2377:2385  _spToken */\n      dup4\n        /* \"L3/pledge.sol\":2377:2399  _spToken == address(0) */\n      0xffffffffffffffffffffffffffffffffffffffff\n      and\n      eq\n        /* \"L3/pledge.sol\":2377:2425  _spToken == address(0) || _jpToken == address(0) */\n      dup1\n      tag_196\n      jumpi\n      pop\n        /* \"L3/pledge.sol\":2423:2424  0 */\n      0x00\n        /* \"L3/pledge.sol\":2403:2425  _jpToken == address(0) */\n      0xffffffffffffffffffffffffffffffffffffffff\n      and\n        /* \"L3/pledge.sol\":2403:2411  _jpToken */\n      dup3\n        /* \"L3/pledge.sol\":2403:2425  _jpToken == address(0) */\n      0xffffffffffffffffffffffffffffffffffffffff\n      and\n      eq\n        /* \"L3/pledge.sol\":2377:2425  _spToken == address(0) || _jpToken == address(0) */\n    tag_196:\n        /* \"L3/pledge.sol\":2356:2466  require(... */\n      tag_197\n      jumpi\n      mload(0x40)\n      0x08c379a000000000000000000000000000000000000000000000000000000000\n      dup2\n      mstore\n      0x04\n      add\n      tag_198\n      swap1\n      tag_199\n      jump\t// in\n    tag_198:\n      mload(0x40)\n      dup1\n      swap2\n      sub\n      swap1\n      revert\n    tag_197:\n        /* \"L3/pledge.sol\":2484:2927  PoolBaseInfo({... */\n      mload(0x40)\n      dup1\n      0x0160\n      add\n      0x40\n      mstore\n      dup1\n        /* \"L3/pledge.sol\":2523:2534  _settleTime */\n      dup13\n        /* \"L3/pledge.sol\":2484:2927  PoolBaseInfo({... */\n      dup2\n      mstore\n      0x20\n      add\n        /* \"L3/pledge.sol\":2557:2565  _endTime */\n      dup12\n        /* \"L3/pledge.sol\":2484:2927  PoolBaseInfo({... */\n      dup2\n      mstore\n      0x20\n      add\n        /* \"L3/pledge.sol\":2593:2606  _interestRate */\n      dup11\n        /* \"L3/pledge.sol\":2484:2927  PoolBaseInfo({... */\n      dup2\n      mstore\n      0x20\n      add\n        /* \"L3/pledge.sol\":2631:2641  _maxSupply */\n      dup10\n        /* \"L3/pledge.sol\":2484:2927  PoolBaseInfo({... */\n      dup2\n      mstore\n      0x20\n      add\n        /* \"L3/pledge.sol\":2667:2678  _lendSupply */\n      dup9\n        /* \"L3/pledge.sol\":2484:2927  PoolBaseInfo({... */\n      dup2\n      mstore\n      0x20\n      add\n        /* \"L3/pledge.sol\":2706:2719  _martgageRate */\n      dup8\n        /* \"L3/pledge.sol\":2484:2927  PoolBaseInfo({... */\n      dup2\n      mstore\n      0x20\n      add\n        /* \"L3/pledge.sol\":2744:2754  _lendToken */\n      dup7\n        /* \"L3/pledge.sol\":2484:2927  PoolBaseInfo({... */\n      0xffffffffffffffffffffffffffffffffffffffff\n      and\n      dup2\n      mstore\n      0x20\n      add\n        /* \"L3/pledge.sol\":2781:2793  _borrowToken */\n      dup6\n        /* \"L3/pledge.sol\":2484:2927  PoolBaseInfo({... */\n      0xffffffffffffffffffffffffffffffffffffffff\n      and\n      dup2\n      mstore\n      0x20\n      add\n        /* \"L3/pledge.sol\":2816:2824  _spToken */\n      dup5\n        /* \"L3/pledge.sol\":2484:2927  PoolBaseInfo({... */\n      0xffffffffffffffffffffffffffffffffffffffff\n      and\n      dup2\n      mstore\n      0x20\n      add\n        /* \"L3/pledge.sol\":2847:2855  _jpToken */\n      dup4\n        /* \"L3/pledge.sol\":2484:2927  PoolBaseInfo({... */\n      0xffffffffffffffffffffffffffffffffffffffff\n      and\n      dup2\n      mstore\n      0x20\n      add\n        /* \"L3/pledge.sol\":2893:2916  _autoLiquidateThreshold */\n      dup3\n        /* \"L3/pledge.sol\":2484:2927  PoolBaseInfo({... */\n      dup2\n      mstore\n      pop\n        /* \"L3/pledge.sol\":2477:2481  pool */\n      0x0f\n        /* \"L3/pledge.sol\":2477:2927  pool = PoolBaseInfo({... */\n      0x00\n      dup3\n      add\n      mload\n      dup2\n      0x00\n      add\n      sstore\n      0x20\n      dup3\n      add\n      mload\n      dup2\n      0x01\n      add\n      sstore\n      0x40\n      dup3\n      add\n      mload\n      dup2\n      0x02\n      add\n      sstore\n      0x60\n      dup3\n      add\n      mload\n      dup2\n      0x03\n      add\n      sstore\n      0x80\n      dup3\n      add\n      mload\n      dup2\n      0x04\n      add\n      sstore\n      0xa0\n      dup3\n      add\n      mload\n      dup2\n      0x05\n      add\n      sstore\n      0xc0\n      dup3\n      add\n      mload\n      dup2\n      0x06\n      add\n      exp(0x0100, 0x00)\n      dup2\n      sload\n      dup2\n      0xffffffffffffffffffffffffffffffffffffffff\n      mul\n      not\n      and\n      swap1\n      dup4\n      0xffffffffffffffffffffffffffffffffffffffff\n      and\n      mul\n      or\n      swap1\n      sstore\n      pop\n      0xe0\n      dup3\n      add\n      mload\n      dup2\n      0x07\n      add\n      exp(0x0100, 0x00)\n      dup2\n      sload\n      dup2\n      0xffffffffffffffffffffffffffffffffffffffff\n      mul\n      not\n      and\n      swap1\n      dup4\n      0xffffffffffffffffffffffffffffffffffffffff\n      and\n      mul\n      or\n      swap1\n      sstore\n      pop\n      0x0100\n      dup3\n      add\n      mload\n      dup2\n      0x08\n      add\n      exp(0x0100, 0x00)\n      dup2\n      sload\n      dup2\n      0xffffffffffffffffffffffffffffffffffffffff\n      mul\n      not\n      and\n      swap1\n      dup4\n      0xffffffffffffffffffffffffffffffffffffffff\n      and\n      mul\n      or\n      swap1\n      sstore\n      pop\n      0x0120\n      dup3\n      add\n      mload\n      dup2\n      0x09\n      add\n      exp(0x0100, 0x00)\n      dup2\n      sload\n      dup2\n      0xffffffffffffffffffffffffffffffffffffffff\n      mul\n      not\n      and\n      swap1\n      dup4\n      0xffffffffffffffffffffffffffffffffffffffff\n      and\n      mul\n      or\n      swap1\n      sstore\n      pop\n      0x0140\n      dup3\n      add\n      mload\n      dup2\n      0x0a\n      add\n      sstore\n      swap1\n      pop\n      pop\n        /* \"L3/pledge.sol\":2937:2949  poolBaseInfo */\n      0x1a\n        /* \"L3/pledge.sol\":2955:2959  pool */\n      0x0f\n        /* \"L3/pledge.sol\":2937:2960  poolBaseInfo.push(pool) */\n      swap1\n      dup1\n      0x01\n      dup2\n      sload\n      add\n      dup1\n      dup3\n      sstore\n      dup1\n      swap2\n      pop\n      pop\n      0x01\n      swap1\n      sub\n      swap1\n      0x00\n      mstore\n      keccak256(0x00, 0x20)\n      swap1\n      0x0b\n      mul\n      add\n      0x00\n      swap1\n      swap2\n      swap1\n      swap2\n      swap1\n      swap2\n      pop\n      0x00\n      dup3\n      add\n      sload\n      dup2\n      0x00\n      add\n      sstore\n      0x01\n      dup3\n      add\n      sload\n      dup2\n      0x01\n      add\n      sstore\n      0x02\n      dup3\n      add\n      sload\n      dup2\n      0x02\n      add\n      sstore\n      0x03\n      dup3\n      add\n      sload\n      dup2\n      0x03\n      add\n      sstore\n      0x04\n      dup3\n      add\n      sload\n      dup2\n      0x04\n      add\n      sstore\n      0x05\n      dup3\n      add\n      sload\n      dup2\n      0x05\n      add\n      sstore\n      0x06\n      dup3\n      add\n      0x00\n      swap1\n      sload\n      swap1\n      0x0100\n      exp\n      swap1\n      div\n      0xffffffffffffffffffffffffffffffffffffffff\n      and\n      dup2\n      0x06\n      add\n      exp(0x0100, 0x00)\n      dup2\n      sload\n      dup2\n      0xffffffffffffffffffffffffffffffffffffffff\n      mul\n      not\n      and\n      swap1\n      dup4\n      0xffffffffffffffffffffffffffffffffffffffff\n      and\n      mul\n      or\n      swap1\n      sstore\n      pop\n      0x07\n      dup3\n      add\n      0x00\n      swap1\n      sload\n      swap1\n      0x0100\n      exp\n      swap1\n      div\n      0xffffffffffffffffffffffffffffffffffffffff\n      and\n      dup2\n      0x07\n      add\n      exp(0x0100, 0x00)\n      dup2\n      sload\n      dup2\n      0xffffffffffffffffffffffffffffffffffffffff\n      mul\n      not\n      and\n      swap1\n      dup4\n      0xffffffffffffffffffffffffffffffffffffffff\n      and\n      mul\n      or\n      swap1\n      sstore\n      pop\n      0x08\n      dup3\n      add\n      0x00\n      swap1\n      sload\n      swap1\n      0x0100\n      exp\n      swap1\n      div\n      0xffffffffffffffffffffffffffffffffffffffff\n      and\n      dup2\n      0x08\n      add\n      exp(0x0100, 0x00)\n      dup2\n      sload\n      dup2\n      0xffffffffffffffffffffffffffffffffffffffff\n      mul\n      not\n      and\n      swap1\n      dup4\n      0xffffffffffffffffffffffffffffffffffffffff\n      and\n      mul\n      or\n      swap1\n      sstore\n      pop\n      0x09\n      dup3\n      add\n      0x00\n      swap1\n      sload\n      swap1\n      0x0100\n      exp\n      swap1\n      div\n      0xffffffffffffffffffffffffffffffffffffffff\n      and\n      dup2\n      0x09\n      add\n      exp(0x0100, 0x00)\n      dup2\n      sload\n      dup2\n      0xffffffffffffffffffffffffffffffffffffffff\n      mul\n      not\n      and\n      swap1\n      dup4\n      0xffffffffffffffffffffffffffffffffffffffff\n      and\n      mul\n      or\n      swap1\n      sstore\n      pop\n      0x0a\n      dup3\n      add\n      sload\n      dup2\n      0x0a\n      add\n      sstore\n      pop\n      pop\n        /* \"L3/pledge.sol\":1928:2967  function createPoolInfo(... */\n      pop\n      pop\n      pop\n      pop\n      pop\n      pop\n      pop\n      pop\n      pop\n      pop\n      pop\n      jump\t// out\n        /* \"L3/pledge.sol\":881:941  bytes32 public constant ADMIN_ROLE = keccak256(\"admin_role\") */\n    tag_87:\n        /* \"L3/pledge.sol\":918:941  keccak256(\"admin_role\") */\n      0x589d473ba17c0f47d494622893831497bad25919b9afb8e33e9521b8963fccde\n        /* \"L3/pledge.sol\":881:941  bytes32 public constant ADMIN_ROLE = keccak256(\"admin_role\") */\n      dup2\n      jump\t// out\n        /* \"L3/pledge.sol\":3473:3655  function setFee(address payable _feeAddress) public onlyRole(ADMIN_ROLE) {... */\n    tag_92:\n        /* \"L3/pledge.sol\":918:941  keccak256(\"admin_role\") */\n      0x589d473ba17c0f47d494622893831497bad25919b9afb8e33e9521b8963fccde\n        /* \"@openzeppelin/contracts-upgradeable/access/AccessControlUpgradeable.sol\":3191:3207  _checkRole(role) */\n      tag_202\n        /* \"@openzeppelin/contracts-upgradeable/access/AccessControlUpgradeable.sol\":3202:3206  role */\n      dup2\n        /* \"@openzeppelin/contracts-upgradeable/access/AccessControlUpgradeable.sol\":3191:3201  _checkRole */\n      tag_152\n        /* \"@openzeppelin/contracts-upgradeable/access/AccessControlUpgradeable.sol\":3191:3207  _checkRole(role) */\n      jump\t// in\n    tag_202:\n        /* \"L3/pledge.sol\":3587:3588  0 */\n      0x00\n        /* \"L3/pledge.sol\":3564:3589  _feeAddress != address(0) */\n      0xffffffffffffffffffffffffffffffffffffffff\n      and\n        /* \"L3/pledge.sol\":3564:3575  _feeAddress */\n      dup3\n        /* \"L3/pledge.sol\":3564:3589  _feeAddress != address(0) */\n      0xffffffffffffffffffffffffffffffffffffffff\n      and\n      sub\n        /* \"L3/pledge.sol\":3556:3614  require(_feeAddress != address(0), \"address not be blank\") */\n      tag_204\n      jumpi\n      mload(0x40)\n      0x08c379a000000000000000000000000000000000000000000000000000000000\n      dup2\n      mstore\n      0x04\n      add\n      tag_205\n      swap1\n      tag_206\n      jump\t// in\n    tag_205:\n      mload(0x40)\n      dup1\n      swap2\n      sub\n      swap1\n      revert\n    tag_204:\n        /* \"L3/pledge.sol\":3637:3648  _feeAddress */\n      dup2\n        /* \"L3/pledge.sol\":3624:3634  feeAddress */\n      0x0d\n      0x00\n        /* \"L3/pledge.sol\":3624:3648  feeAddress = _feeAddress */\n      0x0100\n      exp\n      dup2\n      sload\n      dup2\n      0xffffffffffffffffffffffffffffffffffffffff\n      mul\n      not\n      and\n      swap1\n      dup4\n      0xffffffffffffffffffffffffffffffffffffffff\n      and\n      mul\n      or\n      swap1\n      sstore\n      pop\n        /* \"L3/pledge.sol\":3473:3655  function setFee(address payable _feeAddress) public onlyRole(ADMIN_ROLE) {... */\n      pop\n      pop\n      jump\t// out\n        /* \"L3/pledge.sol\":3686:3774  function setMinAmount(uint256 _minAmount) public {... */\n    tag_95:\n        /* \"L3/pledge.sol\":3757:3767  _minAmount */\n      dup1\n        /* \"L3/pledge.sol\":3745:3754  minAmount */\n      0x0e\n        /* \"L3/pledge.sol\":3745:3767  minAmount = _minAmount */\n      dup2\n      swap1\n      sstore\n      pop\n        /* \"L3/pledge.sol\":3686:3774  function setMinAmount(uint256 _minAmount) public {... */\n      pop\n      jump\t// out\n        /* \"L3/pledge.sol\":3801:4472  function depositLend(uint256 pid, uint256 stakeAmount) public {... */\n    tag_98:\n        /* \"L3/pledge.sol\":3873:3899  PoolBaseInfo storage mPool */\n      0x00\n        /* \"L3/pledge.sol\":3902:3914  poolBaseInfo */\n      0x1a\n        /* \"L3/pledge.sol\":3915:3918  pid */\n      dup4\n        /* \"L3/pledge.sol\":3902:3919  poolBaseInfo[pid] */\n      dup2\n      sload\n      dup2\n      lt\n      tag_209\n      jumpi\n      tag_210\n      tag_125\n      jump\t// in\n    tag_210:\n    tag_209:\n      swap1\n      0x00\n      mstore\n      keccak256(0x00, 0x20)\n      swap1\n      0x0b\n      mul\n      add\n        /* \"L3/pledge.sol\":3873:3919  PoolBaseInfo storage mPool = poolBaseInfo[pid] */\n      swap1\n      pop\n        /* \"L3/pledge.sol\":3929:3955  LendInfo storage mLendInfo */\n      0x00\n        /* \"L3/pledge.sol\":3958:3970  userLendInfo */\n      0x1d\n        /* \"L3/pledge.sol\":3958:3982  userLendInfo[msg.sender] */\n      0x00\n        /* \"L3/pledge.sol\":3971:3981  msg.sender */\n      caller\n        /* \"L3/pledge.sol\":3958:3982  userLendInfo[msg.sender] */\n      0xffffffffffffffffffffffffffffffffffffffff\n      and\n      0xffffffffffffffffffffffffffffffffffffffff\n      and\n      dup2\n      mstore\n      0x20\n      add\n      swap1\n      dup2\n      mstore\n      0x20\n      add\n      0x00\n      keccak256\n        /* \"L3/pledge.sol\":3958:3987  userLendInfo[msg.sender][pid] */\n      0x00\n        /* \"L3/pledge.sol\":3983:3986  pid */\n      dup6\n        /* \"L3/pledge.sol\":3958:3987  userLendInfo[msg.sender][pid] */\n      dup2\n      mstore\n      0x20\n      add\n      swap1\n      dup2\n      mstore\n      0x20\n      add\n      0x00\n      keccak256\n        /* \"L3/pledge.sol\":3929:3987  LendInfo storage mLendInfo = userLendInfo[msg.sender][pid] */\n      swap1\n      pop\n        /* \"L3/pledge.sol\":4022:4027  mPool */\n      dup2\n        /* \"L3/pledge.sol\":4022:4038  mPool.settleTime */\n      0x00\n      add\n      sload\n        /* \"L3/pledge.sol\":4006:4021  block.timestamp */\n      timestamp\n        /* \"L3/pledge.sol\":4006:4038  block.timestamp<mPool.settleTime */\n      lt\n        /* \"L3/pledge.sol\":3998:4069  require(block.timestamp<mPool.settleTime,\"time later than settle time\") */\n      tag_212\n      jumpi\n      mload(0x40)\n      0x08c379a000000000000000000000000000000000000000000000000000000000\n      dup2\n      mstore\n      0x04\n      add\n      tag_213\n      swap1\n      tag_129\n      jump\t// in\n    tag_213:\n      mload(0x40)\n      dup1\n      swap2\n      sub\n      swap1\n      revert\n    tag_212:\n        /* \"L3/pledge.sol\":4096:4111  PoolState.MATCH */\n      0x00\n        /* \"L3/pledge.sol\":4087:4111  state == PoolState.MATCH */\n      0x04\n      dup2\n      gt\n      iszero\n      tag_214\n      jumpi\n      tag_215\n      tag_132\n      jump\t// in\n    tag_215:\n    tag_214:\n        /* \"L3/pledge.sol\":4087:4092  state */\n      0x1b\n      0x00\n      swap1\n      sload\n      swap1\n      0x0100\n      exp\n      swap1\n      div\n      0xff\n      and\n        /* \"L3/pledge.sol\":4087:4111  state == PoolState.MATCH */\n      0x04\n      dup2\n      gt\n      iszero\n      tag_216\n      jumpi\n      tag_217\n      tag_132\n      jump\t// in\n    tag_217:\n    tag_216:\n      eq\n        /* \"L3/pledge.sol\":4079:4131  require(state == PoolState.MATCH, \"state not match\") */\n      tag_218\n      jumpi\n      mload(0x40)\n      0x08c379a000000000000000000000000000000000000000000000000000000000\n      dup2\n      mstore\n      0x04\n      add\n      tag_219\n      swap1\n      tag_137\n      jump\t// in\n    tag_219:\n      mload(0x40)\n      dup1\n      swap2\n      sub\n      swap1\n      revert\n    tag_218:\n        /* \"L3/pledge.sol\":4195:4200  mPool */\n      dup2\n        /* \"L3/pledge.sol\":4195:4211  mPool.lendSupply */\n      0x04\n      add\n      sload\n        /* \"L3/pledge.sol\":4177:4182  mPool */\n      dup3\n        /* \"L3/pledge.sol\":4177:4192  mPool.maxSupply */\n      0x03\n      add\n      sload\n        /* \"L3/pledge.sol\":4177:4211  mPool.maxSupply - mPool.lendSupply */\n      tag_220\n      swap2\n      swap1\n      tag_142\n      jump\t// in\n    tag_220:\n        /* \"L3/pledge.sol\":4162:4173  stakeAmount */\n      dup4\n        /* \"L3/pledge.sol\":4162:4211  stakeAmount <= mPool.maxSupply - mPool.lendSupply */\n      gt\n      iszero\n        /* \"L3/pledge.sol\":4141:4257  require(... */\n      tag_221\n      jumpi\n      mload(0x40)\n      0x08c379a000000000000000000000000000000000000000000000000000000000\n      dup2\n      mstore\n      0x04\n      add\n      tag_222\n      swap1\n      tag_223\n      jump\t// in\n    tag_222:\n      mload(0x40)\n      dup1\n      swap2\n      sub\n      swap1\n      revert\n    tag_221:\n        /* \"L3/pledge.sol\":4302:4311  minAmount */\n      sload(0x0e)\n        /* \"L3/pledge.sol\":4288:4299  stakeAmount */\n      dup4\n        /* \"L3/pledge.sol\":4288:4311  stakeAmount > minAmount */\n      gt\n        /* \"L3/pledge.sol\":4267:4377  require(... */\n      tag_224\n      jumpi\n      mload(0x40)\n      0x08c379a000000000000000000000000000000000000000000000000000000000\n      dup2\n      mstore\n      0x04\n      add\n      tag_225\n      swap1\n      tag_226\n      jump\t// in\n    tag_225:\n      mload(0x40)\n      dup1\n      swap2\n      sub\n      swap1\n      revert\n    tag_224:\n        /* \"L3/pledge.sol\":4408:4419  stakeAmount */\n      dup3\n        /* \"L3/pledge.sol\":4388:4393  mPool */\n      dup3\n        /* \"L3/pledge.sol\":4388:4404  mPool.lendSupply */\n      0x04\n      add\n      0x00\n        /* \"L3/pledge.sol\":4388:4419  mPool.lendSupply -= stakeAmount */\n      dup3\n      dup3\n      sload\n      tag_227\n      swap2\n      swap1\n      tag_142\n      jump\t// in\n    tag_227:\n      swap3\n      pop\n      pop\n      dup2\n      swap1\n      sstore\n      pop\n        /* \"L3/pledge.sol\":4454:4465  stakeAmount */\n      dup3\n        /* \"L3/pledge.sol\":4429:4438  mLendInfo */\n      dup2\n        /* \"L3/pledge.sol\":4429:4450  mLendInfo.stakeAmount */\n      0x00\n      add\n      0x00\n        /* \"L3/pledge.sol\":4429:4465  mLendInfo.stakeAmount += stakeAmount */\n      dup3\n      dup3\n      sload\n      tag_228\n      swap2\n      swap1\n      tag_144\n      jump\t// in\n    tag_228:\n      swap3\n      pop\n      pop\n      dup2\n      swap1\n      sstore\n      pop\n        /* \"L3/pledge.sol\":3863:4472  {... */\n      pop\n      pop\n        /* \"L3/pledge.sol\":3801:4472  function depositLend(uint256 pid, uint256 stakeAmount) public {... */\n      pop\n      pop\n      jump\t// out\n        /* \"@openzeppelin/contracts-upgradeable/access/AccessControlUpgradeable.sol\":3732:3939  function hasRole(bytes32 role, address account) public view virtual returns (bool) {... */\n    tag_101:\n        /* \"@openzeppelin/contracts-upgradeable/access/AccessControlUpgradeable.sol\":3809:3813  bool */\n      0x00\n        /* \"@openzeppelin/contracts-upgradeable/access/AccessControlUpgradeable.sol\":3825:3855  AccessControlStorage storage $ */\n      dup1\n        /* \"@openzeppelin/contracts-upgradeable/access/AccessControlUpgradeable.sol\":3858:3884  _getAccessControlStorage() */\n      tag_230\n        /* \"@openzeppelin/contracts-upgradeable/access/AccessControlUpgradeable.sol\":3858:3882  _getAccessControlStorage */\n      tag_148\n        /* \"@openzeppelin/contracts-upgradeable/access/AccessControlUpgradeable.sol\":3858:3884  _getAccessControlStorage() */\n      jump\t// in\n    tag_230:\n        /* \"@openzeppelin/contracts-upgradeable/access/AccessControlUpgradeable.sol\":3825:3884  AccessControlStorage storage $ = _getAccessControlStorage() */\n      swap1\n      pop\n        /* \"@openzeppelin/contracts-upgradeable/access/AccessControlUpgradeable.sol\":3901:3902  $ */\n      dup1\n        /* \"@openzeppelin/contracts-upgradeable/access/AccessControlUpgradeable.sol\":3901:3909  $._roles */\n      0x00\n      add\n        /* \"@openzeppelin/contracts-upgradeable/access/AccessControlUpgradeable.sol\":3901:3915  $._roles[role] */\n      0x00\n        /* \"@openzeppelin/contracts-upgradeable/access/AccessControlUpgradeable.sol\":3910:3914  role */\n      dup6\n        /* \"@openzeppelin/contracts-upgradeable/access/AccessControlUpgradeable.sol\":3901:3915  $._roles[role] */\n      dup2\n      mstore\n      0x20\n      add\n      swap1\n      dup2\n      mstore\n      0x20\n      add\n      0x00\n      keccak256\n        /* \"@openzeppelin/contracts-upgradeable/access/AccessControlUpgradeable.sol\":3901:3923  $._roles[role].hasRole */\n      0x00\n      add\n        /* \"@openzeppelin/contracts-upgradeable/access/AccessControlUpgradeable.sol\":3901:3932  $._roles[role].hasRole[account] */\n      0x00\n        /* \"@openzeppelin/contracts-upgradeable/access/AccessControlUpgradeable.sol\":3924:3931  account */\n      dup5\n        /* \"@openzeppelin/contracts-upgradeable/access/AccessControlUpgradeable.sol\":3901:3932  $._roles[role].hasRole[account] */\n      0xffffffffffffffffffffffffffffffffffffffff\n      and\n      0xffffffffffffffffffffffffffffffffffffffff\n      and\n      dup2\n      mstore\n      0x20\n      add\n      swap1\n      dup2\n      mstore\n      0x20\n      add\n      0x00\n      keccak256\n      0x00\n      swap1\n      sload\n      swap1\n      0x0100\n      exp\n      swap1\n      div\n      0xff\n      and\n        /* \"@openzeppelin/contracts-upgradeable/access/AccessControlUpgradeable.sol\":3894:3932  return $._roles[role].hasRole[account] */\n      swap2\n      pop\n      pop\n        /* \"@openzeppelin/contracts-upgradeable/access/AccessControlUpgradeable.sol\":3732:3939  function hasRole(bytes32 role, address account) public view virtual returns (bool) {... */\n      swap3\n      swap2\n      pop\n      pop\n      jump\t// out\n        /* \"L3/pledge.sol\":5772:5803  function refundLend() public {} */\n    tag_104:\n      jump\t// out\n        /* \"@openzeppelin/contracts-upgradeable/access/AccessControlUpgradeable.sol\":2317:2366  bytes32 public constant DEFAULT_ADMIN_ROLE = 0x00 */\n    tag_106:\n        /* \"@openzeppelin/contracts-upgradeable/access/AccessControlUpgradeable.sol\":2362:2366  0x00 */\n      0x00\n        /* \"@openzeppelin/contracts-upgradeable/access/AccessControlUpgradeable.sol\":2317:2366  bytes32 public constant DEFAULT_ADMIN_ROLE = 0x00 */\n      dup1\n      shl\n      dup2\n      jump\t// out\n        /* \"@openzeppelin/contracts-upgradeable/access/AccessControlUpgradeable.sol\":5662:5800  function revokeRole(bytes32 role, address account) public virtual onlyRole(getRoleAdmin(role)) {... */\n    tag_110:\n        /* \"@openzeppelin/contracts-upgradeable/access/AccessControlUpgradeable.sol\":5737:5755  getRoleAdmin(role) */\n      tag_232\n        /* \"@openzeppelin/contracts-upgradeable/access/AccessControlUpgradeable.sol\":5750:5754  role */\n      dup3\n        /* \"@openzeppelin/contracts-upgradeable/access/AccessControlUpgradeable.sol\":5737:5749  getRoleAdmin */\n      tag_53\n        /* \"@openzeppelin/contracts-upgradeable/access/AccessControlUpgradeable.sol\":5737:5755  getRoleAdmin(role) */\n      jump\t// in\n    tag_232:\n        /* \"@openzeppelin/contracts-upgradeable/access/AccessControlUpgradeable.sol\":3191:3207  _checkRole(role) */\n      tag_234\n        /* \"@openzeppelin/contracts-upgradeable/access/AccessControlUpgradeable.sol\":3202:3206  role */\n      dup2\n        /* \"@openzeppelin/contracts-upgradeable/access/AccessControlUpgradeable.sol\":3191:3201  _checkRole */\n      tag_152\n        /* \"@openzeppelin/contracts-upgradeable/access/AccessControlUpgradeable.sol\":3191:3207  _checkRole(role) */\n      jump\t// in\n    tag_234:\n        /* \"@openzeppelin/contracts-upgradeable/access/AccessControlUpgradeable.sol\":5767:5793  _revokeRole(role, account) */\n      tag_236\n        /* \"@openzeppelin/contracts-upgradeable/access/AccessControlUpgradeable.sol\":5779:5783  role */\n      dup4\n        /* \"@openzeppelin/contracts-upgradeable/access/AccessControlUpgradeable.sol\":5785:5792  account */\n      dup4\n        /* \"@openzeppelin/contracts-upgradeable/access/AccessControlUpgradeable.sol\":5767:5778  _revokeRole */\n      tag_161\n        /* \"@openzeppelin/contracts-upgradeable/access/AccessControlUpgradeable.sol\":5767:5793  _revokeRole(role, account) */\n      jump\t// in\n    tag_236:\n      pop\n        /* \"@openzeppelin/contracts-upgradeable/access/AccessControlUpgradeable.sol\":5662:5800  function revokeRole(bytes32 role, address account) public virtual onlyRole(getRoleAdmin(role)) {... */\n      pop\n      pop\n      pop\n      jump\t// out\n        /* \"L3/pledge.sol\":5828:5861  function refundBorrow() public {} */\n    tag_112:\n      jump\t// out\n        /* \"L3/pledge.sol\":5712:5747  function withdrawBorrow() public {} */\n    tag_114:\n      jump\t// out\n        /* \"@openzeppelin/contracts-upgradeable/utils/introspection/ERC165Upgradeable.sol\":1034:1180  function supportsInterface(bytes4 interfaceId) public view virtual returns (bool) {... */\n    tag_120:\n        /* \"@openzeppelin/contracts-upgradeable/utils/introspection/ERC165Upgradeable.sol\":1110:1114  bool */\n      0x00\n        /* \"@openzeppelin/contracts-upgradeable/utils/introspection/ERC165Upgradeable.sol\":1148:1173  type(IERC165).interfaceId */\n      0x01ffc9a700000000000000000000000000000000000000000000000000000000\n        /* \"@openzeppelin/contracts-upgradeable/utils/introspection/ERC165Upgradeable.sol\":1133:1173  interfaceId == type(IERC165).interfaceId */\n      not(0xffffffffffffffffffffffffffffffffffffffffffffffffffffffff)\n      and\n        /* \"@openzeppelin/contracts-upgradeable/utils/introspection/ERC165Upgradeable.sol\":1133:1144  interfaceId */\n      dup3\n        /* \"@openzeppelin/contracts-upgradeable/utils/introspection/ERC165Upgradeable.sol\":1133:1173  interfaceId == type(IERC165).interfaceId */\n      not(0xffffffffffffffffffffffffffffffffffffffffffffffffffffffff)\n      and\n      eq\n        /* \"@openzeppelin/contracts-upgradeable/utils/introspection/ERC165Upgradeable.sol\":1126:1173  return interfaceId == type(IERC165).interfaceId */\n      swap1\n      pop\n        /* \"@openzeppelin/contracts-upgradeable/utils/introspection/ERC165Upgradeable.sol\":1034:1180  function supportsInterface(bytes4 interfaceId) public view virtual returns (bool) {... */\n      swap2\n      swap1\n      pop\n      jump\t// out\n        /* \"@openzeppelin/contracts-upgradeable/access/AccessControlUpgradeable.sol\":2787:2964  function _getAccessControlStorage() private pure returns (AccessControlStorage storage $) {... */\n    tag_148:\n        /* \"@openzeppelin/contracts-upgradeable/access/AccessControlUpgradeable.sol\":2845:2875  AccessControlStorage storage $ */\n      0x00\n        /* \"@openzeppelin/contracts-upgradeable/access/AccessControlUpgradeable.sol\":2920:2948  AccessControlStorageLocation */\n      0x02dd7bc7dec4dceedda775e58dd541e08a116c6c53815c0bd028192f7b626800\n        /* \"@openzeppelin/contracts-upgradeable/access/AccessControlUpgradeable.sol\":2910:2948  $.slot := AccessControlStorageLocation */\n      swap1\n      pop\n        /* \"@openzeppelin/contracts-upgradeable/access/AccessControlUpgradeable.sol\":2787:2964  function _getAccessControlStorage() private pure returns (AccessControlStorage storage $) {... */\n      swap1\n      jump\t// out\n        /* \"@openzeppelin/contracts-upgradeable/access/AccessControlUpgradeable.sol\":4148:4251  function _checkRole(bytes32 role) internal view virtual {... */\n    tag_152:\n        /* \"@openzeppelin/contracts-upgradeable/access/AccessControlUpgradeable.sol\":4214:4244  _checkRole(role, _msgSender()) */\n      tag_242\n        /* \"@openzeppelin/contracts-upgradeable/access/AccessControlUpgradeable.sol\":4225:4229  role */\n      dup2\n        /* \"@openzeppelin/contracts-upgradeable/access/AccessControlUpgradeable.sol\":4231:4243  _msgSender() */\n      tag_243\n        /* \"@openzeppelin/contracts-upgradeable/access/AccessControlUpgradeable.sol\":4231:4241  _msgSender */\n      tag_158\n        /* \"@openzeppelin/contracts-upgradeable/access/AccessControlUpgradeable.sol\":4231:4243  _msgSender() */\n      jump\t// in\n    tag_243:\n        /* \"@openzeppelin/contracts-upgradeable/access/AccessControlUpgradeable.sol\":4214:4224  _checkRole */\n      tag_244\n        /* \"@openzeppelin/contracts-upgradeable/access/AccessControlUpgradeable.sol\":4214:4244  _checkRole(role, _msgSender()) */\n      jump\t// in\n    tag_242:\n        /* \"@openzeppelin/contracts-upgradeable/access/AccessControlUpgradeable.sol\":4148:4251  function _checkRole(bytes32 role) internal view virtual {... */\n      pop\n      jump\t// out\n        /* \"@openzeppelin/contracts-upgradeable/access/AccessControlUpgradeable.sol\":7270:7657  function _grantRole(bytes32 role, address account) internal virtual returns (bool) {... */\n    tag_155:\n        /* \"@openzeppelin/contracts-upgradeable/access/AccessControlUpgradeable.sol\":7347:7351  bool */\n      0x00\n        /* \"@openzeppelin/contracts-upgradeable/access/AccessControlUpgradeable.sol\":7363:7393  AccessControlStorage storage $ */\n      dup1\n        /* \"@openzeppelin/contracts-upgradeable/access/AccessControlUpgradeable.sol\":7396:7422  _getAccessControlStorage() */\n      tag_246\n        /* \"@openzeppelin/contracts-upgradeable/access/AccessControlUpgradeable.sol\":7396:7420  _getAccessControlStorage */\n      tag_148\n        /* \"@openzeppelin/contracts-upgradeable/access/AccessControlUpgradeable.sol\":7396:7422  _getAccessControlStorage() */\n      jump\t// in\n    tag_246:\n        /* \"@openzeppelin/contracts-upgradeable/access/AccessControlUpgradeable.sol\":7363:7422  AccessControlStorage storage $ = _getAccessControlStorage() */\n      swap1\n      pop\n        /* \"@openzeppelin/contracts-upgradeable/access/AccessControlUpgradeable.sol\":7437:7459  hasRole(role, account) */\n      tag_247\n        /* \"@openzeppelin/contracts-upgradeable/access/AccessControlUpgradeable.sol\":7445:7449  role */\n      dup5\n        /* \"@openzeppelin/contracts-upgradeable/access/AccessControlUpgradeable.sol\":7451:7458  account */\n      dup5\n        /* \"@openzeppelin/contracts-upgradeable/access/AccessControlUpgradeable.sol\":7437:7444  hasRole */\n      tag_101\n        /* \"@openzeppelin/contracts-upgradeable/access/AccessControlUpgradeable.sol\":7437:7459  hasRole(role, account) */\n      jump\t// in\n    tag_247:\n        /* \"@openzeppelin/contracts-upgradeable/access/AccessControlUpgradeable.sol\":7432:7651  if (!hasRole(role, account)) {... */\n      tag_248\n      jumpi\n        /* \"@openzeppelin/contracts-upgradeable/access/AccessControlUpgradeable.sol\":7509:7513  true */\n      0x01\n        /* \"@openzeppelin/contracts-upgradeable/access/AccessControlUpgradeable.sol\":7475:7476  $ */\n      dup2\n        /* \"@openzeppelin/contracts-upgradeable/access/AccessControlUpgradeable.sol\":7475:7483  $._roles */\n      0x00\n      add\n        /* \"@openzeppelin/contracts-upgradeable/access/AccessControlUpgradeable.sol\":7475:7489  $._roles[role] */\n      0x00\n        /* \"@openzeppelin/contracts-upgradeable/access/AccessControlUpgradeable.sol\":7484:7488  role */\n      dup7\n        /* \"@openzeppelin/contracts-upgradeable/access/AccessControlUpgradeable.sol\":7475:7489  $._roles[role] */\n      dup2\n      mstore\n      0x20\n      add\n      swap1\n      dup2\n      mstore\n      0x20\n      add\n      0x00\n      keccak256\n        /* \"@openzeppelin/contracts-upgradeable/access/AccessControlUpgradeable.sol\":7475:7497  $._roles[role].hasRole */\n      0x00\n      add\n        /* \"@openzeppelin/contracts-upgradeable/access/AccessControlUpgradeable.sol\":7475:7506  $._roles[role].hasRole[account] */\n      0x00\n        /* \"@openzeppelin/contracts-upgradeable/access/AccessControlUpgradeable.sol\":7498:7505  account */\n      dup6\n        /* \"@openzeppelin/contracts-upgradeable/access/AccessControlUpgradeable.sol\":7475:7506  $._roles[role].hasRole[account] */\n      0xffffffffffffffffffffffffffffffffffffffff\n      and\n      0xffffffffffffffffffffffffffffffffffffffff\n      and\n      dup2\n      mstore\n      0x20\n      add\n      swap1\n      dup2\n      mstore\n      0x20\n      add\n      0x00\n      keccak256\n      0x00\n        /* \"@openzeppelin/contracts-upgradeable/access/AccessControlUpgradeable.sol\":7475:7513  $._roles[role].hasRole[account] = true */\n      0x0100\n      exp\n      dup2\n      sload\n      dup2\n      0xff\n      mul\n      not\n      and\n      swap1\n      dup4\n      iszero\n      iszero\n      mul\n      or\n      swap1\n      sstore\n      pop\n        /* \"@openzeppelin/contracts-upgradeable/access/AccessControlUpgradeable.sol\":7559:7571  _msgSender() */\n      tag_249\n        /* \"@openzeppelin/contracts-upgradeable/access/AccessControlUpgradeable.sol\":7559:7569  _msgSender */\n      tag_158\n        /* \"@openzeppelin/contracts-upgradeable/access/AccessControlUpgradeable.sol\":7559:7571  _msgSender() */\n      jump\t// in\n    tag_249:\n        /* \"@openzeppelin/contracts-upgradeable/access/AccessControlUpgradeable.sol\":7532:7572  RoleGranted(role, account, _msgSender()) */\n      0xffffffffffffffffffffffffffffffffffffffff\n      and\n        /* \"@openzeppelin/contracts-upgradeable/access/AccessControlUpgradeable.sol\":7550:7557  account */\n      dup4\n        /* \"@openzeppelin/contracts-upgradeable/access/AccessControlUpgradeable.sol\":7532:7572  RoleGranted(role, account, _msgSender()) */\n      0xffffffffffffffffffffffffffffffffffffffff\n      and\n        /* \"@openzeppelin/contracts-upgradeable/access/AccessControlUpgradeable.sol\":7544:7548  role */\n      dup6\n        /* \"@openzeppelin/contracts-upgradeable/access/AccessControlUpgradeable.sol\":7532:7572  RoleGranted(role, account, _msgSender()) */\n      0x2f8788117e7eff1d82e926ec794901d17c78024a50270940304540a733656f0d\n      mload(0x40)\n      mload(0x40)\n      dup1\n      swap2\n      sub\n      swap1\n      log4\n        /* \"@openzeppelin/contracts-upgradeable/access/AccessControlUpgradeable.sol\":7593:7597  true */\n      0x01\n        /* \"@openzeppelin/contracts-upgradeable/access/AccessControlUpgradeable.sol\":7586:7597  return true */\n      swap2\n      pop\n      pop\n      jump(tag_245)\n        /* \"@openzeppelin/contracts-upgradeable/access/AccessControlUpgradeable.sol\":7432:7651  if (!hasRole(role, account)) {... */\n    tag_248:\n        /* \"@openzeppelin/contracts-upgradeable/access/AccessControlUpgradeable.sol\":7635:7640  false */\n      0x00\n        /* \"@openzeppelin/contracts-upgradeable/access/AccessControlUpgradeable.sol\":7628:7640  return false */\n      swap2\n      pop\n      pop\n        /* \"@openzeppelin/contracts-upgradeable/access/AccessControlUpgradeable.sol\":7270:7657  function _grantRole(bytes32 role, address account) internal virtual returns (bool) {... */\n    tag_245:\n      swap3\n      swap2\n      pop\n      pop\n      jump\t// out\n        /* \"@openzeppelin/contracts-upgradeable/utils/ContextUpgradeable.sol\":887:983  function _msgSender() internal view virtual returns (address) {... */\n    tag_158:\n        /* \"@openzeppelin/contracts-upgradeable/utils/ContextUpgradeable.sol\":940:947  address */\n      0x00\n        /* \"@openzeppelin/contracts-upgradeable/utils/ContextUpgradeable.sol\":966:976  msg.sender */\n      caller\n        /* \"@openzeppelin/contracts-upgradeable/utils/ContextUpgradeable.sol\":959:976  return msg.sender */\n      swap1\n      pop\n        /* \"@openzeppelin/contracts-upgradeable/utils/ContextUpgradeable.sol\":887:983  function _msgSender() internal view virtual returns (address) {... */\n      swap1\n      jump\t// out\n        /* \"@openzeppelin/contracts-upgradeable/access/AccessControlUpgradeable.sol\":7892:8280  function _revokeRole(bytes32 role, address account) internal virtual returns (bool) {... */\n    tag_161:\n        /* \"@openzeppelin/contracts-upgradeable/access/AccessControlUpgradeable.sol\":7970:7974  bool */\n      0x00\n        /* \"@openzeppelin/contracts-upgradeable/access/AccessControlUpgradeable.sol\":7986:8016  AccessControlStorage storage $ */\n      dup1\n        /* \"@openzeppelin/contracts-upgradeable/access/AccessControlUpgradeable.sol\":8019:8045  _getAccessControlStorage() */\n      tag_253\n        /* \"@openzeppelin/contracts-upgradeable/access/AccessControlUpgradeable.sol\":8019:8043  _getAccessControlStorage */\n      tag_148\n        /* \"@openzeppelin/contracts-upgradeable/access/AccessControlUpgradeable.sol\":8019:8045  _getAccessControlStorage() */\n      jump\t// in\n    tag_253:\n        /* \"@openzeppelin/contracts-upgradeable/access/AccessControlUpgradeable.sol\":7986:8045  AccessControlStorage storage $ = _getAccessControlStorage() */\n      swap1\n      pop\n        /* \"@openzeppelin/contracts-upgradeable/access/AccessControlUpgradeable.sol\":8059:8081  hasRole(role, account) */\n      tag_254\n        /* \"@openzeppelin/contracts-upgradeable/access/AccessControlUpgradeable.sol\":8067:8071  role */\n      dup5\n        /* \"@openzeppelin/contracts-upgradeable/access/AccessControlUpgradeable.sol\":8073:8080  account */\n      dup5\n        /* \"@openzeppelin/contracts-upgradeable/access/AccessControlUpgradeable.sol\":8059:8066  hasRole */\n      tag_101\n        /* \"@openzeppelin/contracts-upgradeable/access/AccessControlUpgradeable.sol\":8059:8081  hasRole(role, account) */\n      jump\t// in\n    tag_254:\n        /* \"@openzeppelin/contracts-upgradeable/access/AccessControlUpgradeable.sol\":8055:8274  if (hasRole(role, account)) {... */\n      iszero\n      tag_255\n      jumpi\n        /* \"@openzeppelin/contracts-upgradeable/access/AccessControlUpgradeable.sol\":8131:8136  false */\n      0x00\n        /* \"@openzeppelin/contracts-upgradeable/access/AccessControlUpgradeable.sol\":8097:8098  $ */\n      dup2\n        /* \"@openzeppelin/contracts-upgradeable/access/AccessControlUpgradeable.sol\":8097:8105  $._roles */\n      0x00\n      add\n        /* \"@openzeppelin/contracts-upgradeable/access/AccessControlUpgradeable.sol\":8097:8111  $._roles[role] */\n      0x00\n        /* \"@openzeppelin/contracts-upgradeable/access/AccessControlUpgradeable.sol\":8106:8110  role */\n      dup7\n        /* \"@openzeppelin/contracts-upgradeable/access/AccessControlUpgradeable.sol\":8097:8111  $._roles[role] */\n      dup2\n      mstore\n      0x20\n      add\n      swap1\n      dup2\n      mstore\n      0x20\n      add\n      0x00\n      keccak256\n        /* \"@openzeppelin/contracts-upgradeable/access/AccessControlUpgradeable.sol\":8097:8119  $._roles[role].hasRole */\n      0x00\n      add\n        /* \"@openzeppelin/contracts-upgradeable/access/AccessControlUpgradeable.sol\":8097:8128  $._roles[role].hasRole[account] */\n      0x00\n        /* \"@openzeppelin/contracts-upgradeable/access/AccessControlUpgradeable.sol\":8120:8127  account */\n      dup6\n        /* \"@openzeppelin/contracts-upgradeable/access/AccessControlUpgradeable.sol\":8097:8128  $._roles[role].hasRole[account] */\n      0xffffffffffffffffffffffffffffffffffffffff\n      and\n      0xffffffffffffffffffffffffffffffffffffffff\n      and\n      dup2\n      mstore\n      0x20\n      add\n      swap1\n      dup2\n      mstore\n      0x20\n      add\n      0x00\n      keccak256\n      0x00\n        /* \"@openzeppelin/contracts-upgradeable/access/AccessControlUpgradeable.sol\":8097:8136  $._roles[role].hasRole[account] = false */\n      0x0100\n      exp\n      dup2\n      sload\n      dup2\n      0xff\n      mul\n      not\n      and\n      swap1\n      dup4\n      iszero\n      iszero\n      mul\n      or\n      swap1\n      sstore\n      pop\n        /* \"@openzeppelin/contracts-upgradeable/access/AccessControlUpgradeable.sol\":8182:8194  _msgSender() */\n      tag_256\n        /* \"@openzeppelin/contracts-upgradeable/access/AccessControlUpgradeable.sol\":8182:8192  _msgSender */\n      tag_158\n        /* \"@openzeppelin/contracts-upgradeable/access/AccessControlUpgradeable.sol\":8182:8194  _msgSender() */\n      jump\t// in\n    tag_256:\n        /* \"@openzeppelin/contracts-upgradeable/access/AccessControlUpgradeable.sol\":8155:8195  RoleRevoked(role, account, _msgSender()) */\n      0xffffffffffffffffffffffffffffffffffffffff\n      and\n        /* \"@openzeppelin/contracts-upgradeable/access/AccessControlUpgradeable.sol\":8173:8180  account */\n      dup4\n        /* \"@openzeppelin/contracts-upgradeable/access/AccessControlUpgradeable.sol\":8155:8195  RoleRevoked(role, account, _msgSender()) */\n      0xffffffffffffffffffffffffffffffffffffffff\n      and\n        /* \"@openzeppelin/contracts-upgradeable/access/AccessControlUpgradeable.sol\":8167:8171  role */\n      dup6\n        /* \"@openzeppelin/contracts-upgradeable/access/AccessControlUpgradeable.sol\":8155:8195  RoleRevoked(role, account, _msgSender()) */\n      0xf6391f5c32d9c69d2a47ea670b442974b53935d1edc7fd64eb21e047a839171b\n      mload(0x40)\n      mload(0x40)\n      dup1\n      swap2\n      sub\n      swap1\n      log4\n        /* \"@openzeppelin/contracts-upgradeable/access/AccessControlUpgradeable.sol\":8216:8220  true */\n      0x01\n        /* \"@openzeppelin/contracts-upgradeable/access/AccessControlUpgradeable.sol\":8209:8220  return true */\n      swap2\n      pop\n      pop\n      jump(tag_252)\n        /* \"@openzeppelin/contracts-upgradeable/access/AccessControlUpgradeable.sol\":8055:8274  if (hasRole(role, account)) {... */\n    tag_255:\n        /* \"@openzeppelin/contracts-upgradeable/access/AccessControlUpgradeable.sol\":8258:8263  false */\n      0x00\n        /* \"@openzeppelin/contracts-upgradeable/access/AccessControlUpgradeable.sol\":8251:8263  return false */\n      swap2\n      pop\n      pop\n        /* \"@openzeppelin/contracts-upgradeable/access/AccessControlUpgradeable.sol\":7892:8280  function _revokeRole(bytes32 role, address account) internal virtual returns (bool) {... */\n    tag_252:\n      swap3\n      swap2\n      pop\n      pop\n      jump\t// out\n        /* \"@openzeppelin/contracts-upgradeable/access/AccessControlUpgradeable.sol\":4381:4578  function _checkRole(bytes32 role, address account) internal view virtual {... */\n    tag_244:\n        /* \"@openzeppelin/contracts-upgradeable/access/AccessControlUpgradeable.sol\":4469:4491  hasRole(role, account) */\n      tag_259\n        /* \"@openzeppelin/contracts-upgradeable/access/AccessControlUpgradeable.sol\":4477:4481  role */\n      dup3\n        /* \"@openzeppelin/contracts-upgradeable/access/AccessControlUpgradeable.sol\":4483:4490  account */\n      dup3\n        /* \"@openzeppelin/contracts-upgradeable/access/AccessControlUpgradeable.sol\":4469:4476  hasRole */\n      tag_101\n        /* \"@openzeppelin/contracts-upgradeable/access/AccessControlUpgradeable.sol\":4469:4491  hasRole(role, account) */\n      jump\t// in\n    tag_259:\n        /* \"@openzeppelin/contracts-upgradeable/access/AccessControlUpgradeable.sol\":4464:4572  if (!hasRole(role, account)) {... */\n      tag_260\n      jumpi\n        /* \"@openzeppelin/contracts-upgradeable/access/AccessControlUpgradeable.sol\":4547:4554  account */\n      dup1\n        /* \"@openzeppelin/contracts-upgradeable/access/AccessControlUpgradeable.sol\":4556:4560  role */\n      dup3\n        /* \"@openzeppelin/contracts-upgradeable/access/AccessControlUpgradeable.sol\":4514:4561  AccessControlUnauthorizedAccount(account, role) */\n      mload(0x40)\n      0xe2517d3f00000000000000000000000000000000000000000000000000000000\n      dup2\n      mstore\n      0x04\n      add\n      tag_261\n      swap3\n      swap2\n      swap1\n      tag_262\n      jump\t// in\n    tag_261:\n      mload(0x40)\n      dup1\n      swap2\n      sub\n      swap1\n      revert\n        /* \"@openzeppelin/contracts-upgradeable/access/AccessControlUpgradeable.sol\":4464:4572  if (!hasRole(role, account)) {... */\n    tag_260:\n        /* \"@openzeppelin/contracts-upgradeable/access/AccessControlUpgradeable.sol\":4381:4578  function _checkRole(bytes32 role, address account) internal view virtual {... */\n      pop\n      pop\n      jump\t// out\n        /* \"#utility.yul\":88:205   */\n    tag_264:\n        /* \"#utility.yul\":197:198   */\n      0x00\n        /* \"#utility.yul\":194:195   */\n      dup1\n        /* \"#utility.yul\":187:199   */\n      revert\n        /* \"#utility.yul\":334:411   */\n    tag_266:\n        /* \"#utility.yul\":371:378   */\n      0x00\n        /* \"#utility.yul\":400:405   */\n      dup2\n        /* \"#utility.yul\":389:405   */\n      swap1\n      pop\n        /* \"#utility.yul\":334:411   */\n      swap2\n      swap1\n      pop\n      jump\t// out\n        /* \"#utility.yul\":417:539   */\n    tag_267:\n        /* \"#utility.yul\":490:514   */\n      tag_318\n        /* \"#utility.yul\":508:513   */\n      dup2\n        /* \"#utility.yul\":490:514   */\n      tag_266\n      jump\t// in\n    tag_318:\n        /* \"#utility.yul\":483:488   */\n      dup2\n        /* \"#utility.yul\":480:515   */\n      eq\n        /* \"#utility.yul\":470:533   */\n      tag_319\n      jumpi\n        /* \"#utility.yul\":529:530   */\n      0x00\n        /* \"#utility.yul\":526:527   */\n      dup1\n        /* \"#utility.yul\":519:531   */\n      revert\n        /* \"#utility.yul\":470:533   */\n    tag_319:\n        /* \"#utility.yul\":417:539   */\n      pop\n      jump\t// out\n        /* \"#utility.yul\":545:684   */\n    tag_268:\n        /* \"#utility.yul\":591:596   */\n      0x00\n        /* \"#utility.yul\":629:635   */\n      dup2\n        /* \"#utility.yul\":616:636   */\n      calldataload\n        /* \"#utility.yul\":607:636   */\n      swap1\n      pop\n        /* \"#utility.yul\":645:678   */\n      tag_321\n        /* \"#utility.yul\":672:677   */\n      dup2\n        /* \"#utility.yul\":645:678   */\n      tag_267\n      jump\t// in\n    tag_321:\n        /* \"#utility.yul\":545:684   */\n      swap3\n      swap2\n      pop\n      pop\n      jump\t// out\n        /* \"#utility.yul\":690:1019   */\n    tag_32:\n        /* \"#utility.yul\":749:755   */\n      0x00\n        /* \"#utility.yul\":798:800   */\n      0x20\n        /* \"#utility.yul\":786:795   */\n      dup3\n        /* \"#utility.yul\":777:784   */\n      dup5\n        /* \"#utility.yul\":773:796   */\n      sub\n        /* \"#utility.yul\":769:801   */\n      slt\n        /* \"#utility.yul\":766:885   */\n      iszero\n      tag_323\n      jumpi\n        /* \"#utility.yul\":804:883   */\n      tag_324\n      tag_264\n      jump\t// in\n    tag_324:\n        /* \"#utility.yul\":766:885   */\n    tag_323:\n        /* \"#utility.yul\":924:925   */\n      0x00\n        /* \"#utility.yul\":949:1002   */\n      tag_325\n        /* \"#utility.yul\":994:1001   */\n      dup5\n        /* \"#utility.yul\":985:991   */\n      dup3\n        /* \"#utility.yul\":974:983   */\n      dup6\n        /* \"#utility.yul\":970:992   */\n      add\n        /* \"#utility.yul\":949:1002   */\n      tag_268\n      jump\t// in\n    tag_325:\n        /* \"#utility.yul\":939:1002   */\n      swap2\n      pop\n        /* \"#utility.yul\":895:1012   */\n      pop\n        /* \"#utility.yul\":690:1019   */\n      swap3\n      swap2\n      pop\n      pop\n      jump\t// out\n        /* \"#utility.yul\":1025:1143   */\n    tag_269:\n        /* \"#utility.yul\":1112:1136   */\n      tag_327\n        /* \"#utility.yul\":1130:1135   */\n      dup2\n        /* \"#utility.yul\":1112:1136   */\n      tag_266\n      jump\t// in\n    tag_327:\n        /* \"#utility.yul\":1107:1110   */\n      dup3\n        /* \"#utility.yul\":1100:1137   */\n      mstore\n        /* \"#utility.yul\":1025:1143   */\n      pop\n      pop\n      jump\t// out\n        /* \"#utility.yul\":1149:1924   */\n    tag_35:\n        /* \"#utility.yul\":1382:1386   */\n      0x00\n        /* \"#utility.yul\":1420:1423   */\n      0xc0\n        /* \"#utility.yul\":1409:1418   */\n      dup3\n        /* \"#utility.yul\":1405:1424   */\n      add\n        /* \"#utility.yul\":1397:1424   */\n      swap1\n      pop\n        /* \"#utility.yul\":1434:1505   */\n      tag_329\n        /* \"#utility.yul\":1502:1503   */\n      0x00\n        /* \"#utility.yul\":1491:1500   */\n      dup4\n        /* \"#utility.yul\":1487:1504   */\n      add\n        /* \"#utility.yul\":1478:1484   */\n      dup10\n        /* \"#utility.yul\":1434:1505   */\n      tag_269\n      jump\t// in\n    tag_329:\n        /* \"#utility.yul\":1515:1587   */\n      tag_330\n        /* \"#utility.yul\":1583:1585   */\n      0x20\n        /* \"#utility.yul\":1572:1581   */\n      dup4\n        /* \"#utility.yul\":1568:1586   */\n      add\n        /* \"#utility.yul\":1559:1565   */\n      dup9\n        /* \"#utility.yul\":1515:1587   */\n      tag_269\n      jump\t// in\n    tag_330:\n        /* \"#utility.yul\":1597:1669   */\n      tag_331\n        /* \"#utility.yul\":1665:1667   */\n      0x40\n        /* \"#utility.yul\":1654:1663   */\n      dup4\n        /* \"#utility.yul\":1650:1668   */\n      add\n        /* \"#utility.yul\":1641:1647   */\n      dup8\n        /* \"#utility.yul\":1597:1669   */\n      tag_269\n      jump\t// in\n    tag_331:\n        /* \"#utility.yul\":1679:1751   */\n      tag_332\n        /* \"#utility.yul\":1747:1749   */\n      0x60\n        /* \"#utility.yul\":1736:1745   */\n      dup4\n        /* \"#utility.yul\":1732:1750   */\n      add\n        /* \"#utility.yul\":1723:1729   */\n      dup7\n        /* \"#utility.yul\":1679:1751   */\n      tag_269\n      jump\t// in\n    tag_332:\n        /* \"#utility.yul\":1761:1834   */\n      tag_333\n        /* \"#utility.yul\":1829:1832   */\n      0x80\n        /* \"#utility.yul\":1818:1827   */\n      dup4\n        /* \"#utility.yul\":1814:1833   */\n      add\n        /* \"#utility.yul\":1805:1811   */\n      dup6\n        /* \"#utility.yul\":1761:1834   */\n      tag_269\n      jump\t// in\n    tag_333:\n        /* \"#utility.yul\":1844:1917   */\n      tag_334\n        /* \"#utility.yul\":1912:1915   */\n      0xa0\n        /* \"#utility.yul\":1901:1910   */\n      dup4\n        /* \"#utility.yul\":1897:1916   */\n      add\n        /* \"#utility.yul\":1888:1894   */\n      dup5\n        /* \"#utility.yul\":1844:1917   */\n      tag_269\n      jump\t// in\n    tag_334:\n        /* \"#utility.yul\":1149:1924   */\n      swap8\n      swap7\n      pop\n      pop\n      pop\n      pop\n      pop\n      pop\n      pop\n      jump\t// out\n        /* \"#utility.yul\":1930:2079   */\n    tag_270:\n        /* \"#utility.yul\":1966:1973   */\n      0x00\n        /* \"#utility.yul\":2006:2072   */\n      0xffffffff00000000000000000000000000000000000000000000000000000000\n        /* \"#utility.yul\":1999:2004   */\n      dup3\n        /* \"#utility.yul\":1995:2073   */\n      and\n        /* \"#utility.yul\":1984:2073   */\n      swap1\n      pop\n        /* \"#utility.yul\":1930:2079   */\n      swap2\n      swap1\n      pop\n      jump\t// out\n        /* \"#utility.yul\":2085:2205   */\n    tag_271:\n        /* \"#utility.yul\":2157:2180   */\n      tag_337\n        /* \"#utility.yul\":2174:2179   */\n      dup2\n        /* \"#utility.yul\":2157:2180   */\n      tag_270\n      jump\t// in\n    tag_337:\n        /* \"#utility.yul\":2150:2155   */\n      dup2\n        /* \"#utility.yul\":2147:2181   */\n      eq\n        /* \"#utility.yul\":2137:2199   */\n      tag_338\n      jumpi\n        /* \"#utility.yul\":2195:2196   */\n      0x00\n        /* \"#utility.yul\":2192:2193   */\n      dup1\n        /* \"#utility.yul\":2185:2197   */\n      revert\n        /* \"#utility.yul\":2137:2199   */\n    tag_338:\n        /* \"#utility.yul\":2085:2205   */\n      pop\n      jump\t// out\n        /* \"#utility.yul\":2211:2348   */\n    tag_272:\n        /* \"#utility.yul\":2256:2261   */\n      0x00\n        /* \"#utility.yul\":2294:2300   */\n      dup2\n        /* \"#utility.yul\":2281:2301   */\n      calldataload\n        /* \"#utility.yul\":2272:2301   */\n      swap1\n      pop\n        /* \"#utility.yul\":2310:2342   */\n      tag_340\n        /* \"#utility.yul\":2336:2341   */\n      dup2\n        /* \"#utility.yul\":2310:2342   */\n      tag_271\n      jump\t// in\n    tag_340:\n        /* \"#utility.yul\":2211:2348   */\n      swap3\n      swap2\n      pop\n      pop\n      jump\t// out\n        /* \"#utility.yul\":2354:2681   */\n    tag_38:\n        /* \"#utility.yul\":2412:2418   */\n      0x00\n        /* \"#utility.yul\":2461:2463   */\n      0x20\n        /* \"#utility.yul\":2449:2458   */\n      dup3\n        /* \"#utility.yul\":2440:2447   */\n      dup5\n        /* \"#utility.yul\":2436:2459   */\n      sub\n        /* \"#utility.yul\":2432:2464   */\n      slt\n        /* \"#utility.yul\":2429:2548   */\n      iszero\n      tag_342\n      jumpi\n        /* \"#utility.yul\":2467:2546   */\n      tag_343\n      tag_264\n      jump\t// in\n    tag_343:\n        /* \"#utility.yul\":2429:2548   */\n    tag_342:\n        /* \"#utility.yul\":2587:2588   */\n      0x00\n        /* \"#utility.yul\":2612:2664   */\n      tag_344\n        /* \"#utility.yul\":2656:2663   */\n      dup5\n        /* \"#utility.yul\":2647:2653   */\n      dup3\n        /* \"#utility.yul\":2636:2645   */\n      dup6\n        /* \"#utility.yul\":2632:2654   */\n      add\n        /* \"#utility.yul\":2612:2664   */\n      tag_272\n      jump\t// in\n    tag_344:\n        /* \"#utility.yul\":2602:2664   */\n      swap2\n      pop\n        /* \"#utility.yul\":2558:2674   */\n      pop\n        /* \"#utility.yul\":2354:2681   */\n      swap3\n      swap2\n      pop\n      pop\n      jump\t// out\n        /* \"#utility.yul\":2687:2777   */\n    tag_273:\n        /* \"#utility.yul\":2721:2728   */\n      0x00\n        /* \"#utility.yul\":2764:2769   */\n      dup2\n        /* \"#utility.yul\":2757:2770   */\n      iszero\n        /* \"#utility.yul\":2750:2771   */\n      iszero\n        /* \"#utility.yul\":2739:2771   */\n      swap1\n      pop\n        /* \"#utility.yul\":2687:2777   */\n      swap2\n      swap1\n      pop\n      jump\t// out\n        /* \"#utility.yul\":2783:2892   */\n    tag_274:\n        /* \"#utility.yul\":2864:2885   */\n      tag_347\n        /* \"#utility.yul\":2879:2884   */\n      dup2\n        /* \"#utility.yul\":2864:2885   */\n      tag_273\n      jump\t// in\n    tag_347:\n        /* \"#utility.yul\":2859:2862   */\n      dup3\n        /* \"#utility.yul\":2852:2886   */\n      mstore\n        /* \"#utility.yul\":2783:2892   */\n      pop\n      pop\n      jump\t// out\n        /* \"#utility.yul\":2898:3108   */\n    tag_41:\n        /* \"#utility.yul\":2985:2989   */\n      0x00\n        /* \"#utility.yul\":3023:3025   */\n      0x20\n        /* \"#utility.yul\":3012:3021   */\n      dup3\n        /* \"#utility.yul\":3008:3026   */\n      add\n        /* \"#utility.yul\":3000:3026   */\n      swap1\n      pop\n        /* \"#utility.yul\":3036:3101   */\n      tag_349\n        /* \"#utility.yul\":3098:3099   */\n      0x00\n        /* \"#utility.yul\":3087:3096   */\n      dup4\n        /* \"#utility.yul\":3083:3100   */\n      add\n        /* \"#utility.yul\":3074:3080   */\n      dup5\n        /* \"#utility.yul\":3036:3101   */\n      tag_274\n      jump\t// in\n    tag_349:\n        /* \"#utility.yul\":2898:3108   */\n      swap3\n      swap2\n      pop\n      pop\n      jump\t// out\n        /* \"#utility.yul\":3114:3588   */\n    tag_46:\n        /* \"#utility.yul\":3182:3188   */\n      0x00\n        /* \"#utility.yul\":3190:3196   */\n      dup1\n        /* \"#utility.yul\":3239:3241   */\n      0x40\n        /* \"#utility.yul\":3227:3236   */\n      dup4\n        /* \"#utility.yul\":3218:3225   */\n      dup6\n        /* \"#utility.yul\":3214:3237   */\n      sub\n        /* \"#utility.yul\":3210:3242   */\n      slt\n        /* \"#utility.yul\":3207:3326   */\n      iszero\n      tag_351\n      jumpi\n        /* \"#utility.yul\":3245:3324   */\n      tag_352\n      tag_264\n      jump\t// in\n    tag_352:\n        /* \"#utility.yul\":3207:3326   */\n    tag_351:\n        /* \"#utility.yul\":3365:3366   */\n      0x00\n        /* \"#utility.yul\":3390:3443   */\n      tag_353\n        /* \"#utility.yul\":3435:3442   */\n      dup6\n        /* \"#utility.yul\":3426:3432   */\n      dup3\n        /* \"#utility.yul\":3415:3424   */\n      dup7\n        /* \"#utility.yul\":3411:3433   */\n      add\n        /* \"#utility.yul\":3390:3443   */\n      tag_268\n      jump\t// in\n    tag_353:\n        /* \"#utility.yul\":3380:3443   */\n      swap3\n      pop\n        /* \"#utility.yul\":3336:3453   */\n      pop\n        /* \"#utility.yul\":3492:3494   */\n      0x20\n        /* \"#utility.yul\":3518:3571   */\n      tag_354\n        /* \"#utility.yul\":3563:3570   */\n      dup6\n        /* \"#utility.yul\":3554:3560   */\n      dup3\n        /* \"#utility.yul\":3543:3552   */\n      dup7\n        /* \"#utility.yul\":3539:3561   */\n      add\n        /* \"#utility.yul\":3518:3571   */\n      tag_268\n      jump\t// in\n    tag_354:\n        /* \"#utility.yul\":3508:3571   */\n      swap2\n      pop\n        /* \"#utility.yul\":3463:3581   */\n      pop\n        /* \"#utility.yul\":3114:3588   */\n      swap3\n      pop\n      swap3\n      swap1\n      pop\n      jump\t// out\n        /* \"#utility.yul\":3594:3671   */\n    tag_275:\n        /* \"#utility.yul\":3631:3638   */\n      0x00\n        /* \"#utility.yul\":3660:3665   */\n      dup2\n        /* \"#utility.yul\":3649:3665   */\n      swap1\n      pop\n        /* \"#utility.yul\":3594:3671   */\n      swap2\n      swap1\n      pop\n      jump\t// out\n        /* \"#utility.yul\":3677:3799   */\n    tag_276:\n        /* \"#utility.yul\":3750:3774   */\n      tag_357\n        /* \"#utility.yul\":3768:3773   */\n      dup2\n        /* \"#utility.yul\":3750:3774   */\n      tag_275\n      jump\t// in\n    tag_357:\n        /* \"#utility.yul\":3743:3748   */\n      dup2\n        /* \"#utility.yul\":3740:3775   */\n      eq\n        /* \"#utility.yul\":3730:3793   */\n      tag_358\n      jumpi\n        /* \"#utility.yul\":3789:3790   */\n      0x00\n        /* \"#utility.yul\":3786:3787   */\n      dup1\n        /* \"#utility.yul\":3779:3791   */\n      revert\n        /* \"#utility.yul\":3730:3793   */\n    tag_358:\n        /* \"#utility.yul\":3677:3799   */\n      pop\n      jump\t// out\n        /* \"#utility.yul\":3805:3944   */\n    tag_277:\n        /* \"#utility.yul\":3851:3856   */\n      0x00\n        /* \"#utility.yul\":3889:3895   */\n      dup2\n        /* \"#utility.yul\":3876:3896   */\n      calldataload\n        /* \"#utility.yul\":3867:3896   */\n      swap1\n      pop\n        /* \"#utility.yul\":3905:3938   */\n      tag_360\n        /* \"#utility.yul\":3932:3937   */\n      dup2\n        /* \"#utility.yul\":3905:3938   */\n      tag_276\n      jump\t// in\n    tag_360:\n        /* \"#utility.yul\":3805:3944   */\n      swap3\n      swap2\n      pop\n      pop\n      jump\t// out\n        /* \"#utility.yul\":3950:4279   */\n    tag_52:\n        /* \"#utility.yul\":4009:4015   */\n      0x00\n        /* \"#utility.yul\":4058:4060   */\n      0x20\n        /* \"#utility.yul\":4046:4055   */\n      dup3\n        /* \"#utility.yul\":4037:4044   */\n      dup5\n        /* \"#utility.yul\":4033:4056   */\n      sub\n        /* \"#utility.yul\":4029:4061   */\n      slt\n        /* \"#utility.yul\":4026:4145   */\n      iszero\n      tag_362\n      jumpi\n        /* \"#utility.yul\":4064:4143   */\n      tag_363\n      tag_264\n      jump\t// in\n    tag_363:\n        /* \"#utility.yul\":4026:4145   */\n    tag_362:\n        /* \"#utility.yul\":4184:4185   */\n      0x00\n        /* \"#utility.yul\":4209:4262   */\n      tag_364\n        /* \"#utility.yul\":4254:4261   */\n      dup5\n        /* \"#utility.yul\":4245:4251   */\n      dup3\n        /* \"#utility.yul\":4234:4243   */\n      dup6\n        /* \"#utility.yul\":4230:4252   */\n      add\n        /* \"#utility.yul\":4209:4262   */\n      tag_277\n      jump\t// in\n    tag_364:\n        /* \"#utility.yul\":4199:4262   */\n      swap2\n      pop\n        /* \"#utility.yul\":4155:4272   */\n      pop\n        /* \"#utility.yul\":3950:4279   */\n      swap3\n      swap2\n      pop\n      pop\n      jump\t// out\n        /* \"#utility.yul\":4285:4403   */\n    tag_278:\n        /* \"#utility.yul\":4372:4396   */\n      tag_366\n        /* \"#utility.yul\":4390:4395   */\n      dup2\n        /* \"#utility.yul\":4372:4396   */\n      tag_275\n      jump\t// in\n    tag_366:\n        /* \"#utility.yul\":4367:4370   */\n      dup3\n        /* \"#utility.yul\":4360:4397   */\n      mstore\n        /* \"#utility.yul\":4285:4403   */\n      pop\n      pop\n      jump\t// out\n        /* \"#utility.yul\":4409:4631   */\n    tag_55:\n        /* \"#utility.yul\":4502:4506   */\n      0x00\n        /* \"#utility.yul\":4540:4542   */\n      0x20\n        /* \"#utility.yul\":4529:4538   */\n      dup3\n        /* \"#utility.yul\":4525:4543   */\n      add\n        /* \"#utility.yul\":4517:4543   */\n      swap1\n      pop\n        /* \"#utility.yul\":4553:4624   */\n      tag_368\n        /* \"#utility.yul\":4621:4622   */\n      0x00\n        /* \"#utility.yul\":4610:4619   */\n      dup4\n        /* \"#utility.yul\":4606:4623   */\n      add\n        /* \"#utility.yul\":4597:4603   */\n      dup5\n        /* \"#utility.yul\":4553:4624   */\n      tag_278\n      jump\t// in\n    tag_368:\n        /* \"#utility.yul\":4409:4631   */\n      swap3\n      swap2\n      pop\n      pop\n      jump\t// out\n        /* \"#utility.yul\":4637:4763   */\n    tag_279:\n        /* \"#utility.yul\":4674:4681   */\n      0x00\n        /* \"#utility.yul\":4714:4756   */\n      0xffffffffffffffffffffffffffffffffffffffff\n        /* \"#utility.yul\":4707:4712   */\n      dup3\n        /* \"#utility.yul\":4703:4757   */\n      and\n        /* \"#utility.yul\":4692:4757   */\n      swap1\n      pop\n        /* \"#utility.yul\":4637:4763   */\n      swap2\n      swap1\n      pop\n      jump\t// out\n        /* \"#utility.yul\":4769:4865   */\n    tag_280:\n        /* \"#utility.yul\":4806:4813   */\n      0x00\n        /* \"#utility.yul\":4835:4859   */\n      tag_371\n        /* \"#utility.yul\":4853:4858   */\n      dup3\n        /* \"#utility.yul\":4835:4859   */\n      tag_279\n      jump\t// in\n    tag_371:\n        /* \"#utility.yul\":4824:4859   */\n      swap1\n      pop\n        /* \"#utility.yul\":4769:4865   */\n      swap2\n      swap1\n      pop\n      jump\t// out\n        /* \"#utility.yul\":4871:4993   */\n    tag_281:\n        /* \"#utility.yul\":4944:4968   */\n      tag_373\n        /* \"#utility.yul\":4962:4967   */\n      dup2\n        /* \"#utility.yul\":4944:4968   */\n      tag_280\n      jump\t// in\n    tag_373:\n        /* \"#utility.yul\":4937:4942   */\n      dup2\n        /* \"#utility.yul\":4934:4969   */\n      eq\n        /* \"#utility.yul\":4924:4987   */\n      tag_374\n      jumpi\n        /* \"#utility.yul\":4983:4984   */\n      0x00\n        /* \"#utility.yul\":4980:4981   */\n      dup1\n        /* \"#utility.yul\":4973:4985   */\n      revert\n        /* \"#utility.yul\":4924:4987   */\n    tag_374:\n        /* \"#utility.yul\":4871:4993   */\n      pop\n      jump\t// out\n        /* \"#utility.yul\":4999:5138   */\n    tag_282:\n        /* \"#utility.yul\":5045:5050   */\n      0x00\n        /* \"#utility.yul\":5083:5089   */\n      dup2\n        /* \"#utility.yul\":5070:5090   */\n      calldataload\n        /* \"#utility.yul\":5061:5090   */\n      swap1\n      pop\n        /* \"#utility.yul\":5099:5132   */\n      tag_376\n        /* \"#utility.yul\":5126:5131   */\n      dup2\n        /* \"#utility.yul\":5099:5132   */\n      tag_281\n      jump\t// in\n    tag_376:\n        /* \"#utility.yul\":4999:5138   */\n      swap3\n      swap2\n      pop\n      pop\n      jump\t// out\n        /* \"#utility.yul\":5144:5618   */\n    tag_58:\n        /* \"#utility.yul\":5212:5218   */\n      0x00\n        /* \"#utility.yul\":5220:5226   */\n      dup1\n        /* \"#utility.yul\":5269:5271   */\n      0x40\n        /* \"#utility.yul\":5257:5266   */\n      dup4\n        /* \"#utility.yul\":5248:5255   */\n      dup6\n        /* \"#utility.yul\":5244:5267   */\n      sub\n        /* \"#utility.yul\":5240:5272   */\n      slt\n        /* \"#utility.yul\":5237:5356   */\n      iszero\n      tag_378\n      jumpi\n        /* \"#utility.yul\":5275:5354   */\n      tag_379\n      tag_264\n      jump\t// in\n    tag_379:\n        /* \"#utility.yul\":5237:5356   */\n    tag_378:\n        /* \"#utility.yul\":5395:5396   */\n      0x00\n        /* \"#utility.yul\":5420:5473   */\n      tag_380\n        /* \"#utility.yul\":5465:5472   */\n      dup6\n        /* \"#utility.yul\":5456:5462   */\n      dup3\n        /* \"#utility.yul\":5445:5454   */\n      dup7\n        /* \"#utility.yul\":5441:5463   */\n      add\n        /* \"#utility.yul\":5420:5473   */\n      tag_277\n      jump\t// in\n    tag_380:\n        /* \"#utility.yul\":5410:5473   */\n      swap3\n      pop\n        /* \"#utility.yul\":5366:5483   */\n      pop\n        /* \"#utility.yul\":5522:5524   */\n      0x20\n        /* \"#utility.yul\":5548:5601   */\n      tag_381\n        /* \"#utility.yul\":5593:5600   */\n      dup6\n        /* \"#utility.yul\":5584:5590   */\n      dup3\n        /* \"#utility.yul\":5573:5582   */\n      dup7\n        /* \"#utility.yul\":5569:5591   */\n      add\n        /* \"#utility.yul\":5548:5601   */\n      tag_282\n      jump\t// in\n    tag_381:\n        /* \"#utility.yul\":5538:5601   */\n      swap2\n      pop\n        /* \"#utility.yul\":5493:5611   */\n      pop\n        /* \"#utility.yul\":5144:5618   */\n      swap3\n      pop\n      swap3\n      swap1\n      pop\n      jump\t// out\n        /* \"#utility.yul\":5624:5728   */\n    tag_283:\n        /* \"#utility.yul\":5669:5676   */\n      0x00\n        /* \"#utility.yul\":5698:5722   */\n      tag_383\n        /* \"#utility.yul\":5716:5721   */\n      dup3\n        /* \"#utility.yul\":5698:5722   */\n      tag_279\n      jump\t// in\n    tag_383:\n        /* \"#utility.yul\":5687:5722   */\n      swap1\n      pop\n        /* \"#utility.yul\":5624:5728   */\n      swap2\n      swap1\n      pop\n      jump\t// out\n        /* \"#utility.yul\":5734:5876   */\n    tag_284:\n        /* \"#utility.yul\":5837:5869   */\n      tag_385\n        /* \"#utility.yul\":5863:5868   */\n      dup2\n        /* \"#utility.yul\":5837:5869   */\n      tag_283\n      jump\t// in\n    tag_385:\n        /* \"#utility.yul\":5832:5835   */\n      dup3\n        /* \"#utility.yul\":5825:5870   */\n      mstore\n        /* \"#utility.yul\":5734:5876   */\n      pop\n      pop\n      jump\t// out\n        /* \"#utility.yul\":5882:6136   */\n    tag_69:\n        /* \"#utility.yul\":5991:5995   */\n      0x00\n        /* \"#utility.yul\":6029:6031   */\n      0x20\n        /* \"#utility.yul\":6018:6027   */\n      dup3\n        /* \"#utility.yul\":6014:6032   */\n      add\n        /* \"#utility.yul\":6006:6032   */\n      swap1\n      pop\n        /* \"#utility.yul\":6042:6129   */\n      tag_387\n        /* \"#utility.yul\":6126:6127   */\n      0x00\n        /* \"#utility.yul\":6115:6124   */\n      dup4\n        /* \"#utility.yul\":6111:6128   */\n      add\n        /* \"#utility.yul\":6102:6108   */\n      dup5\n        /* \"#utility.yul\":6042:6129   */\n      tag_284\n      jump\t// in\n    tag_387:\n        /* \"#utility.yul\":5882:6136   */\n      swap3\n      swap2\n      pop\n      pop\n      jump\t// out\n        /* \"#utility.yul\":6142:6471   */\n    tag_72:\n        /* \"#utility.yul\":6201:6207   */\n      0x00\n        /* \"#utility.yul\":6250:6252   */\n      0x20\n        /* \"#utility.yul\":6238:6247   */\n      dup3\n        /* \"#utility.yul\":6229:6236   */\n      dup5\n        /* \"#utility.yul\":6225:6248   */\n      sub\n        /* \"#utility.yul\":6221:6253   */\n      slt\n        /* \"#utility.yul\":6218:6337   */\n      iszero\n      tag_389\n      jumpi\n        /* \"#utility.yul\":6256:6335   */\n      tag_390\n      tag_264\n      jump\t// in\n    tag_390:\n        /* \"#utility.yul\":6218:6337   */\n    tag_389:\n        /* \"#utility.yul\":6376:6377   */\n      0x00\n        /* \"#utility.yul\":6401:6454   */\n      tag_391\n        /* \"#utility.yul\":6446:6453   */\n      dup5\n        /* \"#utility.yul\":6437:6443   */\n      dup3\n        /* \"#utility.yul\":6426:6435   */\n      dup6\n        /* \"#utility.yul\":6422:6444   */\n      add\n        /* \"#utility.yul\":6401:6454   */\n      tag_282\n      jump\t// in\n    tag_391:\n        /* \"#utility.yul\":6391:6454   */\n      swap2\n      pop\n        /* \"#utility.yul\":6347:6464   */\n      pop\n        /* \"#utility.yul\":6142:6471   */\n      swap3\n      swap2\n      pop\n      pop\n      jump\t// out\n        /* \"#utility.yul\":6477:6595   */\n    tag_285:\n        /* \"#utility.yul\":6564:6588   */\n      tag_393\n        /* \"#utility.yul\":6582:6587   */\n      dup2\n        /* \"#utility.yul\":6564:6588   */\n      tag_280\n      jump\t// in\n    tag_393:\n        /* \"#utility.yul\":6559:6562   */\n      dup3\n        /* \"#utility.yul\":6552:6589   */\n      mstore\n        /* \"#utility.yul\":6477:6595   */\n      pop\n      pop\n      jump\t// out\n        /* \"#utility.yul\":6601:7933   */\n    tag_81:\n        /* \"#utility.yul\":6975:6979   */\n      0x00\n        /* \"#utility.yul\":7013:7016   */\n      0x0160\n        /* \"#utility.yul\":7002:7011   */\n      dup3\n        /* \"#utility.yul\":6998:7017   */\n      add\n        /* \"#utility.yul\":6990:7017   */\n      swap1\n      pop\n        /* \"#utility.yul\":7027:7098   */\n      tag_395\n        /* \"#utility.yul\":7095:7096   */\n      0x00\n        /* \"#utility.yul\":7084:7093   */\n      dup4\n        /* \"#utility.yul\":7080:7097   */\n      add\n        /* \"#utility.yul\":7071:7077   */\n      dup15\n        /* \"#utility.yul\":7027:7098   */\n      tag_269\n      jump\t// in\n    tag_395:\n        /* \"#utility.yul\":7108:7180   */\n      tag_396\n        /* \"#utility.yul\":7176:7178   */\n      0x20\n        /* \"#utility.yul\":7165:7174   */\n      dup4\n        /* \"#utility.yul\":7161:7179   */\n      add\n        /* \"#utility.yul\":7152:7158   */\n      dup14\n        /* \"#utility.yul\":7108:7180   */\n      tag_269\n      jump\t// in\n    tag_396:\n        /* \"#utility.yul\":7190:7262   */\n      tag_397\n        /* \"#utility.yul\":7258:7260   */\n      0x40\n        /* \"#utility.yul\":7247:7256   */\n      dup4\n        /* \"#utility.yul\":7243:7261   */\n      add\n        /* \"#utility.yul\":7234:7240   */\n      dup13\n        /* \"#utility.yul\":7190:7262   */\n      tag_269\n      jump\t// in\n    tag_397:\n        /* \"#utility.yul\":7272:7344   */\n      tag_398\n        /* \"#utility.yul\":7340:7342   */\n      0x60\n        /* \"#utility.yul\":7329:7338   */\n      dup4\n        /* \"#utility.yul\":7325:7343   */\n      add\n        /* \"#utility.yul\":7316:7322   */\n      dup12\n        /* \"#utility.yul\":7272:7344   */\n      tag_269\n      jump\t// in\n    tag_398:\n        /* \"#utility.yul\":7354:7427   */\n      tag_399\n        /* \"#utility.yul\":7422:7425   */\n      0x80\n        /* \"#utility.yul\":7411:7420   */\n      dup4\n        /* \"#utility.yul\":7407:7426   */\n      add\n        /* \"#utility.yul\":7398:7404   */\n      dup11\n        /* \"#utility.yul\":7354:7427   */\n      tag_269\n      jump\t// in\n    tag_399:\n        /* \"#utility.yul\":7437:7510   */\n      tag_400\n        /* \"#utility.yul\":7505:7508   */\n      0xa0\n        /* \"#utility.yul\":7494:7503   */\n      dup4\n        /* \"#utility.yul\":7490:7509   */\n      add\n        /* \"#utility.yul\":7481:7487   */\n      dup10\n        /* \"#utility.yul\":7437:7510   */\n      tag_269\n      jump\t// in\n    tag_400:\n        /* \"#utility.yul\":7520:7593   */\n      tag_401\n        /* \"#utility.yul\":7588:7591   */\n      0xc0\n        /* \"#utility.yul\":7577:7586   */\n      dup4\n        /* \"#utility.yul\":7573:7592   */\n      add\n        /* \"#utility.yul\":7564:7570   */\n      dup9\n        /* \"#utility.yul\":7520:7593   */\n      tag_285\n      jump\t// in\n    tag_401:\n        /* \"#utility.yul\":7603:7676   */\n      tag_402\n        /* \"#utility.yul\":7671:7674   */\n      0xe0\n        /* \"#utility.yul\":7660:7669   */\n      dup4\n        /* \"#utility.yul\":7656:7675   */\n      add\n        /* \"#utility.yul\":7647:7653   */\n      dup8\n        /* \"#utility.yul\":7603:7676   */\n      tag_285\n      jump\t// in\n    tag_402:\n        /* \"#utility.yul\":7686:7759   */\n      tag_403\n        /* \"#utility.yul\":7754:7757   */\n      0x0100\n        /* \"#utility.yul\":7743:7752   */\n      dup4\n        /* \"#utility.yul\":7739:7758   */\n      add\n        /* \"#utility.yul\":7730:7736   */\n      dup7\n        /* \"#utility.yul\":7686:7759   */\n      tag_285\n      jump\t// in\n    tag_403:\n        /* \"#utility.yul\":7769:7842   */\n      tag_404\n        /* \"#utility.yul\":7837:7840   */\n      0x0120\n        /* \"#utility.yul\":7826:7835   */\n      dup4\n        /* \"#utility.yul\":7822:7841   */\n      add\n        /* \"#utility.yul\":7813:7819   */\n      dup6\n        /* \"#utility.yul\":7769:7842   */\n      tag_285\n      jump\t// in\n    tag_404:\n        /* \"#utility.yul\":7852:7926   */\n      tag_405\n        /* \"#utility.yul\":7921:7924   */\n      0x0140\n        /* \"#utility.yul\":7910:7919   */\n      dup4\n        /* \"#utility.yul\":7906:7925   */\n      add\n        /* \"#utility.yul\":7896:7903   */\n      dup5\n        /* \"#utility.yul\":7852:7926   */\n      tag_269\n      jump\t// in\n    tag_405:\n        /* \"#utility.yul\":6601:7933   */\n      swap13\n      swap12\n      pop\n      pop\n      pop\n      pop\n      pop\n      pop\n      pop\n      pop\n      pop\n      pop\n      pop\n      pop\n      jump\t// out\n        /* \"#utility.yul\":7939:9728   */\n    tag_84:\n        /* \"#utility.yul\":8088:8094   */\n      0x00\n        /* \"#utility.yul\":8096:8102   */\n      dup1\n        /* \"#utility.yul\":8104:8110   */\n      0x00\n        /* \"#utility.yul\":8112:8118   */\n      dup1\n        /* \"#utility.yul\":8120:8126   */\n      0x00\n        /* \"#utility.yul\":8128:8134   */\n      dup1\n        /* \"#utility.yul\":8136:8142   */\n      0x00\n        /* \"#utility.yul\":8144:8150   */\n      dup1\n        /* \"#utility.yul\":8152:8158   */\n      0x00\n        /* \"#utility.yul\":8160:8166   */\n      dup1\n        /* \"#utility.yul\":8168:8175   */\n      0x00\n        /* \"#utility.yul\":8218:8221   */\n      0x0160\n        /* \"#utility.yul\":8206:8215   */\n      dup13\n        /* \"#utility.yul\":8197:8204   */\n      dup15\n        /* \"#utility.yul\":8193:8216   */\n      sub\n        /* \"#utility.yul\":8189:8222   */\n      slt\n        /* \"#utility.yul\":8186:8306   */\n      iszero\n      tag_407\n      jumpi\n        /* \"#utility.yul\":8225:8304   */\n      tag_408\n      tag_264\n      jump\t// in\n    tag_408:\n        /* \"#utility.yul\":8186:8306   */\n    tag_407:\n        /* \"#utility.yul\":8345:8346   */\n      0x00\n        /* \"#utility.yul\":8370:8423   */\n      tag_409\n        /* \"#utility.yul\":8415:8422   */\n      dup15\n        /* \"#utility.yul\":8406:8412   */\n      dup3\n        /* \"#utility.yul\":8395:8404   */\n      dup16\n        /* \"#utility.yul\":8391:8413   */\n      add\n        /* \"#utility.yul\":8370:8423   */\n      tag_268\n      jump\t// in\n    tag_409:\n        /* \"#utility.yul\":8360:8423   */\n      swap12\n      pop\n        /* \"#utility.yul\":8316:8433   */\n      pop\n        /* \"#utility.yul\":8472:8474   */\n      0x20\n        /* \"#utility.yul\":8498:8551   */\n      tag_410\n        /* \"#utility.yul\":8543:8550   */\n      dup15\n        /* \"#utility.yul\":8534:8540   */\n      dup3\n        /* \"#utility.yul\":8523:8532   */\n      dup16\n        /* \"#utility.yul\":8519:8541   */\n      add\n        /* \"#utility.yul\":8498:8551   */\n      tag_268\n      jump\t// in\n    tag_410:\n        /* \"#utility.yul\":8488:8551   */\n      swap11\n      pop\n        /* \"#utility.yul\":8443:8561   */\n      pop\n        /* \"#utility.yul\":8600:8602   */\n      0x40\n        /* \"#utility.yul\":8626:8679   */\n      tag_411\n        /* \"#utility.yul\":8671:8678   */\n      dup15\n        /* \"#utility.yul\":8662:8668   */\n      dup3\n        /* \"#utility.yul\":8651:8660   */\n      dup16\n        /* \"#utility.yul\":8647:8669   */\n      add\n        /* \"#utility.yul\":8626:8679   */\n      tag_268\n      jump\t// in\n    tag_411:\n        /* \"#utility.yul\":8616:8679   */\n      swap10\n      pop\n        /* \"#utility.yul\":8571:8689   */\n      pop\n        /* \"#utility.yul\":8728:8730   */\n      0x60\n        /* \"#utility.yul\":8754:8807   */\n      tag_412\n        /* \"#utility.yul\":8799:8806   */\n      dup15\n        /* \"#utility.yul\":8790:8796   */\n      dup3\n        /* \"#utility.yul\":8779:8788   */\n      dup16\n        /* \"#utility.yul\":8775:8797   */\n      add\n        /* \"#utility.yul\":8754:8807   */\n      tag_268\n      jump\t// in\n    tag_412:\n        /* \"#utility.yul\":8744:8807   */\n      swap9\n      pop\n        /* \"#utility.yul\":8699:8817   */\n      pop\n        /* \"#utility.yul\":8856:8859   */\n      0x80\n        /* \"#utility.yul\":8883:8936   */\n      tag_413\n        /* \"#utility.yul\":8928:8935   */\n      dup15\n        /* \"#utility.yul\":8919:8925   */\n      dup3\n        /* \"#utility.yul\":8908:8917   */\n      dup16\n        /* \"#utility.yul\":8904:8926   */\n      add\n        /* \"#utility.yul\":8883:8936   */\n      tag_268\n      jump\t// in\n    tag_413:\n        /* \"#utility.yul\":8873:8936   */\n      swap8\n      pop\n        /* \"#utility.yul\":8827:8946   */\n      pop\n        /* \"#utility.yul\":8985:8988   */\n      0xa0\n        /* \"#utility.yul\":9012:9065   */\n      tag_414\n        /* \"#utility.yul\":9057:9064   */\n      dup15\n        /* \"#utility.yul\":9048:9054   */\n      dup3\n        /* \"#utility.yul\":9037:9046   */\n      dup16\n        /* \"#utility.yul\":9033:9055   */\n      add\n        /* \"#utility.yul\":9012:9065   */\n      tag_268\n      jump\t// in\n    tag_414:\n        /* \"#utility.yul\":9002:9065   */\n      swap7\n      pop\n        /* \"#utility.yul\":8956:9075   */\n      pop\n        /* \"#utility.yul\":9114:9117   */\n      0xc0\n        /* \"#utility.yul\":9141:9194   */\n      tag_415\n        /* \"#utility.yul\":9186:9193   */\n      dup15\n        /* \"#utility.yul\":9177:9183   */\n      dup3\n        /* \"#utility.yul\":9166:9175   */\n      dup16\n        /* \"#utility.yul\":9162:9184   */\n      add\n        /* \"#utility.yul\":9141:9194   */\n      tag_282\n      jump\t// in\n    tag_415:\n        /* \"#utility.yul\":9131:9194   */\n      swap6\n      pop\n        /* \"#utility.yul\":9085:9204   */\n      pop\n        /* \"#utility.yul\":9243:9246   */\n      0xe0\n        /* \"#utility.yul\":9270:9323   */\n      tag_416\n        /* \"#utility.yul\":9315:9322   */\n      dup15\n        /* \"#utility.yul\":9306:9312   */\n      dup3\n        /* \"#utility.yul\":9295:9304   */\n      dup16\n        /* \"#utility.yul\":9291:9313   */\n      add\n        /* \"#utility.yul\":9270:9323   */\n      tag_282\n      jump\t// in\n    tag_416:\n        /* \"#utility.yul\":9260:9323   */\n      swap5\n      pop\n        /* \"#utility.yul\":9214:9333   */\n      pop\n        /* \"#utility.yul\":9372:9375   */\n      0x0100\n        /* \"#utility.yul\":9399:9452   */\n      tag_417\n        /* \"#utility.yul\":9444:9451   */\n      dup15\n        /* \"#utility.yul\":9435:9441   */\n      dup3\n        /* \"#utility.yul\":9424:9433   */\n      dup16\n        /* \"#utility.yul\":9420:9442   */\n      add\n        /* \"#utility.yul\":9399:9452   */\n      tag_282\n      jump\t// in\n    tag_417:\n        /* \"#utility.yul\":9389:9452   */\n      swap4\n      pop\n        /* \"#utility.yul\":9343:9462   */\n      pop\n        /* \"#utility.yul\":9501:9504   */\n      0x0120\n        /* \"#utility.yul\":9528:9581   */\n      tag_418\n        /* \"#utility.yul\":9573:9580   */\n      dup15\n        /* \"#utility.yul\":9564:9570   */\n      dup3\n        /* \"#utility.yul\":9553:9562   */\n      dup16\n        /* \"#utility.yul\":9549:9571   */\n      add\n        /* \"#utility.yul\":9528:9581   */\n      tag_282\n      jump\t// in\n    tag_418:\n        /* \"#utility.yul\":9518:9581   */\n      swap3\n      pop\n        /* \"#utility.yul\":9472:9591   */\n      pop\n        /* \"#utility.yul\":9630:9633   */\n      0x0140\n        /* \"#utility.yul\":9658:9711   */\n      tag_419\n        /* \"#utility.yul\":9703:9710   */\n      dup15\n        /* \"#utility.yul\":9694:9700   */\n      dup3\n        /* \"#utility.yul\":9683:9692   */\n      dup16\n        /* \"#utility.yul\":9679:9701   */\n      add\n        /* \"#utility.yul\":9658:9711   */\n      tag_268\n      jump\t// in\n    tag_419:\n        /* \"#utility.yul\":9647:9711   */\n      swap2\n      pop\n        /* \"#utility.yul\":9601:9721   */\n      pop\n        /* \"#utility.yul\":7939:9728   */\n      swap3\n      swap6\n      swap9\n      swap12\n      pop\n      swap3\n      swap6\n      swap9\n      swap12\n      swap1\n      swap4\n      swap7\n      swap10\n      pop\n      jump\t// out\n        /* \"#utility.yul\":9734:9872   */\n    tag_286:\n        /* \"#utility.yul\":9815:9847   */\n      tag_421\n        /* \"#utility.yul\":9841:9846   */\n      dup2\n        /* \"#utility.yul\":9815:9847   */\n      tag_283\n      jump\t// in\n    tag_421:\n        /* \"#utility.yul\":9808:9813   */\n      dup2\n        /* \"#utility.yul\":9805:9848   */\n      eq\n        /* \"#utility.yul\":9795:9866   */\n      tag_422\n      jumpi\n        /* \"#utility.yul\":9862:9863   */\n      0x00\n        /* \"#utility.yul\":9859:9860   */\n      dup1\n        /* \"#utility.yul\":9852:9864   */\n      revert\n        /* \"#utility.yul\":9795:9866   */\n    tag_422:\n        /* \"#utility.yul\":9734:9872   */\n      pop\n      jump\t// out\n        /* \"#utility.yul\":9878:10033   */\n    tag_287:\n        /* \"#utility.yul\":9932:9937   */\n      0x00\n        /* \"#utility.yul\":9970:9976   */\n      dup2\n        /* \"#utility.yul\":9957:9977   */\n      calldataload\n        /* \"#utility.yul\":9948:9977   */\n      swap1\n      pop\n        /* \"#utility.yul\":9986:10027   */\n      tag_424\n        /* \"#utility.yul\":10021:10026   */\n      dup2\n        /* \"#utility.yul\":9986:10027   */\n      tag_286\n      jump\t// in\n    tag_424:\n        /* \"#utility.yul\":9878:10033   */\n      swap3\n      swap2\n      pop\n      pop\n      jump\t// out\n        /* \"#utility.yul\":10039:10384   */\n    tag_91:\n        /* \"#utility.yul\":10106:10112   */\n      0x00\n        /* \"#utility.yul\":10155:10157   */\n      0x20\n        /* \"#utility.yul\":10143:10152   */\n      dup3\n        /* \"#utility.yul\":10134:10141   */\n      dup5\n        /* \"#utility.yul\":10130:10153   */\n      sub\n        /* \"#utility.yul\":10126:10158   */\n      slt\n        /* \"#utility.yul\":10123:10242   */\n      iszero\n      tag_426\n      jumpi\n        /* \"#utility.yul\":10161:10240   */\n      tag_427\n      tag_264\n      jump\t// in\n    tag_427:\n        /* \"#utility.yul\":10123:10242   */\n    tag_426:\n        /* \"#utility.yul\":10281:10282   */\n      0x00\n        /* \"#utility.yul\":10306:10367   */\n      tag_428\n        /* \"#utility.yul\":10359:10366   */\n      dup5\n        /* \"#utility.yul\":10350:10356   */\n      dup3\n        /* \"#utility.yul\":10339:10348   */\n      dup6\n        /* \"#utility.yul\":10335:10357   */\n      add\n        /* \"#utility.yul\":10306:10367   */\n      tag_287\n      jump\t// in\n    tag_428:\n        /* \"#utility.yul\":10296:10367   */\n      swap2\n      pop\n        /* \"#utility.yul\":10252:10377   */\n      pop\n        /* \"#utility.yul\":10039:10384   */\n      swap3\n      swap2\n      pop\n      pop\n      jump\t// out\n        /* \"#utility.yul\":10390:10570   */\n    tag_125:\n        /* \"#utility.yul\":10438:10515   */\n      0x4e487b7100000000000000000000000000000000000000000000000000000000\n        /* \"#utility.yul\":10435:10436   */\n      0x00\n        /* \"#utility.yul\":10428:10516   */\n      mstore\n        /* \"#utility.yul\":10535:10539   */\n      0x32\n        /* \"#utility.yul\":10532:10533   */\n      0x04\n        /* \"#utility.yul\":10525:10540   */\n      mstore\n        /* \"#utility.yul\":10559:10563   */\n      0x24\n        /* \"#utility.yul\":10556:10557   */\n      0x00\n        /* \"#utility.yul\":10549:10564   */\n      revert\n        /* \"#utility.yul\":10576:10745   */\n    tag_288:\n        /* \"#utility.yul\":10660:10671   */\n      0x00\n        /* \"#utility.yul\":10694:10700   */\n      dup3\n        /* \"#utility.yul\":10689:10692   */\n      dup3\n        /* \"#utility.yul\":10682:10701   */\n      mstore\n        /* \"#utility.yul\":10734:10738   */\n      0x20\n        /* \"#utility.yul\":10729:10732   */\n      dup3\n        /* \"#utility.yul\":10725:10739   */\n      add\n        /* \"#utility.yul\":10710:10739   */\n      swap1\n      pop\n        /* \"#utility.yul\":10576:10745   */\n      swap3\n      swap2\n      pop\n      pop\n      jump\t// out\n        /* \"#utility.yul\":10751:10928   */\n    tag_289:\n        /* \"#utility.yul\":10891:10920   */\n      0x74696d65206c61746572207468616e20736574746c652074696d650000000000\n        /* \"#utility.yul\":10887:10888   */\n      0x00\n        /* \"#utility.yul\":10879:10885   */\n      dup3\n        /* \"#utility.yul\":10875:10889   */\n      add\n        /* \"#utility.yul\":10868:10921   */\n      mstore\n        /* \"#utility.yul\":10751:10928   */\n      pop\n      jump\t// out\n        /* \"#utility.yul\":10934:11300   */\n    tag_290:\n        /* \"#utility.yul\":11076:11079   */\n      0x00\n        /* \"#utility.yul\":11097:11164   */\n      tag_433\n        /* \"#utility.yul\":11161:11163   */\n      0x1b\n        /* \"#utility.yul\":11156:11159   */\n      dup4\n        /* \"#utility.yul\":11097:11164   */\n      tag_288\n      jump\t// in\n    tag_433:\n        /* \"#utility.yul\":11090:11164   */\n      swap2\n      pop\n        /* \"#utility.yul\":11173:11266   */\n      tag_434\n        /* \"#utility.yul\":11262:11265   */\n      dup3\n        /* \"#utility.yul\":11173:11266   */\n      tag_289\n      jump\t// in\n    tag_434:\n        /* \"#utility.yul\":11291:11293   */\n      0x20\n        /* \"#utility.yul\":11286:11289   */\n      dup3\n        /* \"#utility.yul\":11282:11294   */\n      add\n        /* \"#utility.yul\":11275:11294   */\n      swap1\n      pop\n        /* \"#utility.yul\":10934:11300   */\n      swap2\n      swap1\n      pop\n      jump\t// out\n        /* \"#utility.yul\":11306:11725   */\n    tag_129:\n        /* \"#utility.yul\":11472:11476   */\n      0x00\n        /* \"#utility.yul\":11510:11512   */\n      0x20\n        /* \"#utility.yul\":11499:11508   */\n      dup3\n        /* \"#utility.yul\":11495:11513   */\n      add\n        /* \"#utility.yul\":11487:11513   */\n      swap1\n      pop\n        /* \"#utility.yul\":11559:11568   */\n      dup2\n        /* \"#utility.yul\":11553:11557   */\n      dup2\n        /* \"#utility.yul\":11549:11569   */\n      sub\n        /* \"#utility.yul\":11545:11546   */\n      0x00\n        /* \"#utility.yul\":11534:11543   */\n      dup4\n        /* \"#utility.yul\":11530:11547   */\n      add\n        /* \"#utility.yul\":11523:11570   */\n      mstore\n        /* \"#utility.yul\":11587:11718   */\n      tag_436\n        /* \"#utility.yul\":11713:11717   */\n      dup2\n        /* \"#utility.yul\":11587:11718   */\n      tag_290\n      jump\t// in\n    tag_436:\n        /* \"#utility.yul\":11579:11718   */\n      swap1\n      pop\n        /* \"#utility.yul\":11306:11725   */\n      swap2\n      swap1\n      pop\n      jump\t// out\n        /* \"#utility.yul\":11731:11911   */\n    tag_132:\n        /* \"#utility.yul\":11779:11856   */\n      0x4e487b7100000000000000000000000000000000000000000000000000000000\n        /* \"#utility.yul\":11776:11777   */\n      0x00\n        /* \"#utility.yul\":11769:11857   */\n      mstore\n        /* \"#utility.yul\":11876:11880   */\n      0x21\n        /* \"#utility.yul\":11873:11874   */\n      0x04\n        /* \"#utility.yul\":11866:11881   */\n      mstore\n        /* \"#utility.yul\":11900:11904   */\n      0x24\n        /* \"#utility.yul\":11897:11898   */\n      0x00\n        /* \"#utility.yul\":11890:11905   */\n      revert\n        /* \"#utility.yul\":11917:12082   */\n    tag_291:\n        /* \"#utility.yul\":12057:12074   */\n      0x7374617465206e6f74206d617463680000000000000000000000000000000000\n        /* \"#utility.yul\":12053:12054   */\n      0x00\n        /* \"#utility.yul\":12045:12051   */\n      dup3\n        /* \"#utility.yul\":12041:12055   */\n      add\n        /* \"#utility.yul\":12034:12075   */\n      mstore\n        /* \"#utility.yul\":11917:12082   */\n      pop\n      jump\t// out\n        /* \"#utility.yul\":12088:12454   */\n    tag_292:\n        /* \"#utility.yul\":12230:12233   */\n      0x00\n        /* \"#utility.yul\":12251:12318   */\n      tag_440\n        /* \"#utility.yul\":12315:12317   */\n      0x0f\n        /* \"#utility.yul\":12310:12313   */\n      dup4\n        /* \"#utility.yul\":12251:12318   */\n      tag_288\n      jump\t// in\n    tag_440:\n        /* \"#utility.yul\":12244:12318   */\n      swap2\n      pop\n        /* \"#utility.yul\":12327:12420   */\n      tag_441\n        /* \"#utility.yul\":12416:12419   */\n      dup3\n        /* \"#utility.yul\":12327:12420   */\n      tag_291\n      jump\t// in\n    tag_441:\n        /* \"#utility.yul\":12445:12447   */\n      0x20\n        /* \"#utility.yul\":12440:12443   */\n      dup3\n        /* \"#utility.yul\":12436:12448   */\n      add\n        /* \"#utility.yul\":12429:12448   */\n      swap1\n      pop\n        /* \"#utility.yul\":12088:12454   */\n      swap2\n      swap1\n      pop\n      jump\t// out\n        /* \"#utility.yul\":12460:12879   */\n    tag_137:\n        /* \"#utility.yul\":12626:12630   */\n      0x00\n        /* \"#utility.yul\":12664:12666   */\n      0x20\n        /* \"#utility.yul\":12653:12662   */\n      dup3\n        /* \"#utility.yul\":12649:12667   */\n      add\n        /* \"#utility.yul\":12641:12667   */\n      swap1\n      pop\n        /* \"#utility.yul\":12713:12722   */\n      dup2\n        /* \"#utility.yul\":12707:12711   */\n      dup2\n        /* \"#utility.yul\":12703:12723   */\n      sub\n        /* \"#utility.yul\":12699:12700   */\n      0x00\n        /* \"#utility.yul\":12688:12697   */\n      dup4\n        /* \"#utility.yul\":12684:12701   */\n      add\n        /* \"#utility.yul\":12677:12724   */\n      mstore\n        /* \"#utility.yul\":12741:12872   */\n      tag_443\n        /* \"#utility.yul\":12867:12871   */\n      dup2\n        /* \"#utility.yul\":12741:12872   */\n      tag_292\n      jump\t// in\n    tag_443:\n        /* \"#utility.yul\":12733:12872   */\n      swap1\n      pop\n        /* \"#utility.yul\":12460:12879   */\n      swap2\n      swap1\n      pop\n      jump\t// out\n        /* \"#utility.yul\":12885:13067   */\n    tag_293:\n        /* \"#utility.yul\":13025:13059   */\n      0x7374616b65416d6f756e742073686f756c6420686967686572207468616e2030\n        /* \"#utility.yul\":13021:13022   */\n      0x00\n        /* \"#utility.yul\":13013:13019   */\n      dup3\n        /* \"#utility.yul\":13009:13023   */\n      add\n        /* \"#utility.yul\":13002:13060   */\n      mstore\n        /* \"#utility.yul\":12885:13067   */\n      pop\n      jump\t// out\n        /* \"#utility.yul\":13073:13439   */\n    tag_294:\n        /* \"#utility.yul\":13215:13218   */\n      0x00\n        /* \"#utility.yul\":13236:13303   */\n      tag_446\n        /* \"#utility.yul\":13300:13302   */\n      0x20\n        /* \"#utility.yul\":13295:13298   */\n      dup4\n        /* \"#utility.yul\":13236:13303   */\n      tag_288\n      jump\t// in\n    tag_446:\n        /* \"#utility.yul\":13229:13303   */\n      swap2\n      pop\n        /* \"#utility.yul\":13312:13405   */\n      tag_447\n        /* \"#utility.yul\":13401:13404   */\n      dup3\n        /* \"#utility.yul\":13312:13405   */\n      tag_293\n      jump\t// in\n    tag_447:\n        /* \"#utility.yul\":13430:13432   */\n      0x20\n        /* \"#utility.yul\":13425:13428   */\n      dup3\n        /* \"#utility.yul\":13421:13433   */\n      add\n        /* \"#utility.yul\":13414:13433   */\n      swap1\n      pop\n        /* \"#utility.yul\":13073:13439   */\n      swap2\n      swap1\n      pop\n      jump\t// out\n        /* \"#utility.yul\":13445:13864   */\n    tag_140:\n        /* \"#utility.yul\":13611:13615   */\n      0x00\n        /* \"#utility.yul\":13649:13651   */\n      0x20\n        /* \"#utility.yul\":13638:13647   */\n      dup3\n        /* \"#utility.yul\":13634:13652   */\n      add\n        /* \"#utility.yul\":13626:13652   */\n      swap1\n      pop\n        /* \"#utility.yul\":13698:13707   */\n      dup2\n        /* \"#utility.yul\":13692:13696   */\n      dup2\n        /* \"#utility.yul\":13688:13708   */\n      sub\n        /* \"#utility.yul\":13684:13685   */\n      0x00\n        /* \"#utility.yul\":13673:13682   */\n      dup4\n        /* \"#utility.yul\":13669:13686   */\n      add\n        /* \"#utility.yul\":13662:13709   */\n      mstore\n        /* \"#utility.yul\":13726:13857   */\n      tag_449\n        /* \"#utility.yul\":13852:13856   */\n      dup2\n        /* \"#utility.yul\":13726:13857   */\n      tag_294\n      jump\t// in\n    tag_449:\n        /* \"#utility.yul\":13718:13857   */\n      swap1\n      pop\n        /* \"#utility.yul\":13445:13864   */\n      swap2\n      swap1\n      pop\n      jump\t// out\n        /* \"#utility.yul\":13870:14050   */\n    tag_295:\n        /* \"#utility.yul\":13918:13995   */\n      0x4e487b7100000000000000000000000000000000000000000000000000000000\n        /* \"#utility.yul\":13915:13916   */\n      0x00\n        /* \"#utility.yul\":13908:13996   */\n      mstore\n        /* \"#utility.yul\":14015:14019   */\n      0x11\n        /* \"#utility.yul\":14012:14013   */\n      0x04\n        /* \"#utility.yul\":14005:14020   */\n      mstore\n        /* \"#utility.yul\":14039:14043   */\n      0x24\n        /* \"#utility.yul\":14036:14037   */\n      0x00\n        /* \"#utility.yul\":14029:14044   */\n      revert\n        /* \"#utility.yul\":14056:14250   */\n    tag_142:\n        /* \"#utility.yul\":14096:14100   */\n      0x00\n        /* \"#utility.yul\":14116:14136   */\n      tag_452\n        /* \"#utility.yul\":14134:14135   */\n      dup3\n        /* \"#utility.yul\":14116:14136   */\n      tag_266\n      jump\t// in\n    tag_452:\n        /* \"#utility.yul\":14111:14136   */\n      swap2\n      pop\n        /* \"#utility.yul\":14150:14170   */\n      tag_453\n        /* \"#utility.yul\":14168:14169   */\n      dup4\n        /* \"#utility.yul\":14150:14170   */\n      tag_266\n      jump\t// in\n    tag_453:\n        /* \"#utility.yul\":14145:14170   */\n      swap3\n      pop\n        /* \"#utility.yul\":14194:14195   */\n      dup3\n        /* \"#utility.yul\":14191:14192   */\n      dup3\n        /* \"#utility.yul\":14187:14196   */\n      sub\n        /* \"#utility.yul\":14179:14196   */\n      swap1\n      pop\n        /* \"#utility.yul\":14218:14219   */\n      dup2\n        /* \"#utility.yul\":14212:14216   */\n      dup2\n        /* \"#utility.yul\":14209:14220   */\n      gt\n        /* \"#utility.yul\":14206:14243   */\n      iszero\n      tag_454\n      jumpi\n        /* \"#utility.yul\":14223:14241   */\n      tag_455\n      tag_295\n      jump\t// in\n    tag_455:\n        /* \"#utility.yul\":14206:14243   */\n    tag_454:\n        /* \"#utility.yul\":14056:14250   */\n      swap3\n      swap2\n      pop\n      pop\n      jump\t// out\n        /* \"#utility.yul\":14256:14447   */\n    tag_144:\n        /* \"#utility.yul\":14296:14299   */\n      0x00\n        /* \"#utility.yul\":14315:14335   */\n      tag_457\n        /* \"#utility.yul\":14333:14334   */\n      dup3\n        /* \"#utility.yul\":14315:14335   */\n      tag_266\n      jump\t// in\n    tag_457:\n        /* \"#utility.yul\":14310:14335   */\n      swap2\n      pop\n        /* \"#utility.yul\":14349:14369   */\n      tag_458\n        /* \"#utility.yul\":14367:14368   */\n      dup4\n        /* \"#utility.yul\":14349:14369   */\n      tag_266\n      jump\t// in\n    tag_458:\n        /* \"#utility.yul\":14344:14369   */\n      swap3\n      pop\n        /* \"#utility.yul\":14392:14393   */\n      dup3\n        /* \"#utility.yul\":14389:14390   */\n      dup3\n        /* \"#utility.yul\":14385:14394   */\n      add\n        /* \"#utility.yul\":14378:14394   */\n      swap1\n      pop\n        /* \"#utility.yul\":14413:14416   */\n      dup1\n        /* \"#utility.yul\":14410:14411   */\n      dup3\n        /* \"#utility.yul\":14407:14417   */\n      gt\n        /* \"#utility.yul\":14404:14440   */\n      iszero\n      tag_459\n      jumpi\n        /* \"#utility.yul\":14420:14438   */\n      tag_460\n      tag_295\n      jump\t// in\n    tag_460:\n        /* \"#utility.yul\":14404:14440   */\n    tag_459:\n        /* \"#utility.yul\":14256:14447   */\n      swap3\n      swap2\n      pop\n      pop\n      jump\t// out\n        /* \"#utility.yul\":14453:14634   */\n    tag_296:\n        /* \"#utility.yul\":14593:14626   */\n      0x7374617465206e6f742046494e495348206f72204c49515549444154494f4e00\n        /* \"#utility.yul\":14589:14590   */\n      0x00\n        /* \"#utility.yul\":14581:14587   */\n      dup3\n        /* \"#utility.yul\":14577:14591   */\n      add\n        /* \"#utility.yul\":14570:14627   */\n      mstore\n        /* \"#utility.yul\":14453:14634   */\n      pop\n      jump\t// out\n        /* \"#utility.yul\":14640:15006   */\n    tag_297:\n        /* \"#utility.yul\":14782:14785   */\n      0x00\n        /* \"#utility.yul\":14803:14870   */\n      tag_463\n        /* \"#utility.yul\":14867:14869   */\n      0x1f\n        /* \"#utility.yul\":14862:14865   */\n      dup4\n        /* \"#utility.yul\":14803:14870   */\n      tag_288\n      jump\t// in\n    tag_463:\n        /* \"#utility.yul\":14796:14870   */\n      swap2\n      pop\n        /* \"#utility.yul\":14879:14972   */\n      tag_464\n        /* \"#utility.yul\":14968:14971   */\n      dup3\n        /* \"#utility.yul\":14879:14972   */\n      tag_296\n      jump\t// in\n    tag_464:\n        /* \"#utility.yul\":14997:14999   */\n      0x20\n        /* \"#utility.yul\":14992:14995   */\n      dup3\n        /* \"#utility.yul\":14988:15000   */\n      add\n        /* \"#utility.yul\":14981:15000   */\n      swap1\n      pop\n        /* \"#utility.yul\":14640:15006   */\n      swap2\n      swap1\n      pop\n      jump\t// out\n        /* \"#utility.yul\":15012:15431   */\n    tag_174:\n        /* \"#utility.yul\":15178:15182   */\n      0x00\n        /* \"#utility.yul\":15216:15218   */\n      0x20\n        /* \"#utility.yul\":15205:15214   */\n      dup3\n        /* \"#utility.yul\":15201:15219   */\n      add\n        /* \"#utility.yul\":15193:15219   */\n      swap1\n      pop\n        /* \"#utility.yul\":15265:15274   */\n      dup2\n        /* \"#utility.yul\":15259:15263   */\n      dup2\n        /* \"#utility.yul\":15255:15275   */\n      sub\n        /* \"#utility.yul\":15251:15252   */\n      0x00\n        /* \"#utility.yul\":15240:15249   */\n      dup4\n        /* \"#utility.yul\":15236:15253   */\n      add\n        /* \"#utility.yul\":15229:15276   */\n      mstore\n        /* \"#utility.yul\":15293:15424   */\n      tag_466\n        /* \"#utility.yul\":15419:15423   */\n      dup2\n        /* \"#utility.yul\":15293:15424   */\n      tag_297\n      jump\t// in\n    tag_466:\n        /* \"#utility.yul\":15285:15424   */\n      swap1\n      pop\n        /* \"#utility.yul\":15012:15431   */\n      swap2\n      swap1\n      pop\n      jump\t// out\n        /* \"#utility.yul\":15437:15606   */\n    tag_298:\n        /* \"#utility.yul\":15577:15598   */\n      0x7370416d6f756e74206e6f7420656e6f75676800000000000000000000000000\n        /* \"#utility.yul\":15573:15574   */\n      0x00\n        /* \"#utility.yul\":15565:15571   */\n      dup3\n        /* \"#utility.yul\":15561:15575   */\n      add\n        /* \"#utility.yul\":15554:15599   */\n      mstore\n        /* \"#utility.yul\":15437:15606   */\n      pop\n      jump\t// out\n        /* \"#utility.yul\":15612:15978   */\n    tag_299:\n        /* \"#utility.yul\":15754:15757   */\n      0x00\n        /* \"#utility.yul\":15775:15842   */\n      tag_469\n        /* \"#utility.yul\":15839:15841   */\n      0x13\n        /* \"#utility.yul\":15834:15837   */\n      dup4\n        /* \"#utility.yul\":15775:15842   */\n      tag_288\n      jump\t// in\n    tag_469:\n        /* \"#utility.yul\":15768:15842   */\n      swap2\n      pop\n        /* \"#utility.yul\":15851:15944   */\n      tag_470\n        /* \"#utility.yul\":15940:15943   */\n      dup3\n        /* \"#utility.yul\":15851:15944   */\n      tag_298\n      jump\t// in\n    tag_470:\n        /* \"#utility.yul\":15969:15971   */\n      0x20\n        /* \"#utility.yul\":15964:15967   */\n      dup3\n        /* \"#utility.yul\":15960:15972   */\n      add\n        /* \"#utility.yul\":15953:15972   */\n      swap1\n      pop\n        /* \"#utility.yul\":15612:15978   */\n      swap2\n      swap1\n      pop\n      jump\t// out\n        /* \"#utility.yul\":15984:16403   */\n    tag_177:\n        /* \"#utility.yul\":16150:16154   */\n      0x00\n        /* \"#utility.yul\":16188:16190   */\n      0x20\n        /* \"#utility.yul\":16177:16186   */\n      dup3\n        /* \"#utility.yul\":16173:16191   */\n      add\n        /* \"#utility.yul\":16165:16191   */\n      swap1\n      pop\n        /* \"#utility.yul\":16237:16246   */\n      dup2\n        /* \"#utility.yul\":16231:16235   */\n      dup2\n        /* \"#utility.yul\":16227:16247   */\n      sub\n        /* \"#utility.yul\":16223:16224   */\n      0x00\n        /* \"#utility.yul\":16212:16221   */\n      dup4\n        /* \"#utility.yul\":16208:16225   */\n      add\n        /* \"#utility.yul\":16201:16248   */\n      mstore\n        /* \"#utility.yul\":16265:16396   */\n      tag_472\n        /* \"#utility.yul\":16391:16395   */\n      dup2\n        /* \"#utility.yul\":16265:16396   */\n      tag_299\n      jump\t// in\n    tag_472:\n        /* \"#utility.yul\":16257:16396   */\n      swap1\n      pop\n        /* \"#utility.yul\":15984:16403   */\n      swap2\n      swap1\n      pop\n      jump\t// out\n        /* \"#utility.yul\":16409:16578   */\n    tag_300:\n        /* \"#utility.yul\":16549:16570   */\n      0x61646472657373206e6f74206265207a65726f00000000000000000000000000\n        /* \"#utility.yul\":16545:16546   */\n      0x00\n        /* \"#utility.yul\":16537:16543   */\n      dup3\n        /* \"#utility.yul\":16533:16547   */\n      add\n        /* \"#utility.yul\":16526:16571   */\n      mstore\n        /* \"#utility.yul\":16409:16578   */\n      pop\n      jump\t// out\n        /* \"#utility.yul\":16584:16950   */\n    tag_301:\n        /* \"#utility.yul\":16726:16729   */\n      0x00\n        /* \"#utility.yul\":16747:16814   */\n      tag_475\n        /* \"#utility.yul\":16811:16813   */\n      0x13\n        /* \"#utility.yul\":16806:16809   */\n      dup4\n        /* \"#utility.yul\":16747:16814   */\n      tag_288\n      jump\t// in\n    tag_475:\n        /* \"#utility.yul\":16740:16814   */\n      swap2\n      pop\n        /* \"#utility.yul\":16823:16916   */\n      tag_476\n        /* \"#utility.yul\":16912:16915   */\n      dup3\n        /* \"#utility.yul\":16823:16916   */\n      tag_300\n      jump\t// in\n    tag_476:\n        /* \"#utility.yul\":16941:16943   */\n      0x20\n        /* \"#utility.yul\":16936:16939   */\n      dup3\n        /* \"#utility.yul\":16932:16944   */\n      add\n        /* \"#utility.yul\":16925:16944   */\n      swap1\n      pop\n        /* \"#utility.yul\":16584:16950   */\n      swap2\n      swap1\n      pop\n      jump\t// out\n        /* \"#utility.yul\":16956:17375   */\n    tag_186:\n        /* \"#utility.yul\":17122:17126   */\n      0x00\n        /* \"#utility.yul\":17160:17162   */\n      0x20\n        /* \"#utility.yul\":17149:17158   */\n      dup3\n        /* \"#utility.yul\":17145:17163   */\n      add\n        /* \"#utility.yul\":17137:17163   */\n      swap1\n      pop\n        /* \"#utility.yul\":17209:17218   */\n      dup2\n        /* \"#utility.yul\":17203:17207   */\n      dup2\n        /* \"#utility.yul\":17199:17219   */\n      sub\n        /* \"#utility.yul\":17195:17196   */\n      0x00\n        /* \"#utility.yul\":17184:17193   */\n      dup4\n        /* \"#utility.yul\":17180:17197   */\n      add\n        /* \"#utility.yul\":17173:17220   */\n      mstore\n        /* \"#utility.yul\":17237:17368   */\n      tag_478\n        /* \"#utility.yul\":17363:17367   */\n      dup2\n        /* \"#utility.yul\":17237:17368   */\n      tag_301\n      jump\t// in\n    tag_478:\n        /* \"#utility.yul\":17229:17368   */\n      swap1\n      pop\n        /* \"#utility.yul\":16956:17375   */\n      swap2\n      swap1\n      pop\n      jump\t// out\n        /* \"#utility.yul\":17381:17542   */\n    tag_302:\n        /* \"#utility.yul\":17521:17534   */\n      0x70726f6a65637420656e64000000000000000000000000000000000000000000\n        /* \"#utility.yul\":17517:17518   */\n      0x00\n        /* \"#utility.yul\":17509:17515   */\n      dup3\n        /* \"#utility.yul\":17505:17519   */\n      add\n        /* \"#utility.yul\":17498:17535   */\n      mstore\n        /* \"#utility.yul\":17381:17542   */\n      pop\n      jump\t// out\n        /* \"#utility.yul\":17548:17914   */\n    tag_303:\n        /* \"#utility.yul\":17690:17693   */\n      0x00\n        /* \"#utility.yul\":17711:17778   */\n      tag_481\n        /* \"#utility.yul\":17775:17777   */\n      0x0b\n        /* \"#utility.yul\":17770:17773   */\n      dup4\n        /* \"#utility.yul\":17711:17778   */\n      tag_288\n      jump\t// in\n    tag_481:\n        /* \"#utility.yul\":17704:17778   */\n      swap2\n      pop\n        /* \"#utility.yul\":17787:17880   */\n      tag_482\n        /* \"#utility.yul\":17876:17879   */\n      dup3\n        /* \"#utility.yul\":17787:17880   */\n      tag_302\n      jump\t// in\n    tag_482:\n        /* \"#utility.yul\":17905:17907   */\n      0x20\n        /* \"#utility.yul\":17900:17903   */\n      dup3\n        /* \"#utility.yul\":17896:17908   */\n      add\n        /* \"#utility.yul\":17889:17908   */\n      swap1\n      pop\n        /* \"#utility.yul\":17548:17914   */\n      swap2\n      swap1\n      pop\n      jump\t// out\n        /* \"#utility.yul\":17920:18339   */\n    tag_195:\n        /* \"#utility.yul\":18086:18090   */\n      0x00\n        /* \"#utility.yul\":18124:18126   */\n      0x20\n        /* \"#utility.yul\":18113:18122   */\n      dup3\n        /* \"#utility.yul\":18109:18127   */\n      add\n        /* \"#utility.yul\":18101:18127   */\n      swap1\n      pop\n        /* \"#utility.yul\":18173:18182   */\n      dup2\n        /* \"#utility.yul\":18167:18171   */\n      dup2\n        /* \"#utility.yul\":18163:18183   */\n      sub\n        /* \"#utility.yul\":18159:18160   */\n      0x00\n        /* \"#utility.yul\":18148:18157   */\n      dup4\n        /* \"#utility.yul\":18144:18161   */\n      add\n        /* \"#utility.yul\":18137:18184   */\n      mstore\n        /* \"#utility.yul\":18201:18332   */\n      tag_484\n        /* \"#utility.yul\":18327:18331   */\n      dup2\n        /* \"#utility.yul\":18201:18332   */\n      tag_303\n      jump\t// in\n    tag_484:\n        /* \"#utility.yul\":18193:18332   */\n      swap1\n      pop\n        /* \"#utility.yul\":17920:18339   */\n      swap2\n      swap1\n      pop\n      jump\t// out\n        /* \"#utility.yul\":18345:18510   */\n    tag_304:\n        /* \"#utility.yul\":18485:18502   */\n      0x6164647265737320696e76616c69640000000000000000000000000000000000\n        /* \"#utility.yul\":18481:18482   */\n      0x00\n        /* \"#utility.yul\":18473:18479   */\n      dup3\n        /* \"#utility.yul\":18469:18483   */\n      add\n        /* \"#utility.yul\":18462:18503   */\n      mstore\n        /* \"#utility.yul\":18345:18510   */\n      pop\n      jump\t// out\n        /* \"#utility.yul\":18516:18882   */\n    tag_305:\n        /* \"#utility.yul\":18658:18661   */\n      0x00\n        /* \"#utility.yul\":18679:18746   */\n      tag_487\n        /* \"#utility.yul\":18743:18745   */\n      0x0f\n        /* \"#utility.yul\":18738:18741   */\n      dup4\n        /* \"#utility.yul\":18679:18746   */\n      tag_288\n      jump\t// in\n    tag_487:\n        /* \"#utility.yul\":18672:18746   */\n      swap2\n      pop\n        /* \"#utility.yul\":18755:18848   */\n      tag_488\n        /* \"#utility.yul\":18844:18847   */\n      dup3\n        /* \"#utility.yul\":18755:18848   */\n      tag_304\n      jump\t// in\n    tag_488:\n        /* \"#utility.yul\":18873:18875   */\n      0x20\n        /* \"#utility.yul\":18868:18871   */\n      dup3\n        /* \"#utility.yul\":18864:18876   */\n      add\n        /* \"#utility.yul\":18857:18876   */\n      swap1\n      pop\n        /* \"#utility.yul\":18516:18882   */\n      swap2\n      swap1\n      pop\n      jump\t// out\n        /* \"#utility.yul\":18888:19307   */\n    tag_199:\n        /* \"#utility.yul\":19054:19058   */\n      0x00\n        /* \"#utility.yul\":19092:19094   */\n      0x20\n        /* \"#utility.yul\":19081:19090   */\n      dup3\n        /* \"#utility.yul\":19077:19095   */\n      add\n        /* \"#utility.yul\":19069:19095   */\n      swap1\n      pop\n        /* \"#utility.yul\":19141:19150   */\n      dup2\n        /* \"#utility.yul\":19135:19139   */\n      dup2\n        /* \"#utility.yul\":19131:19151   */\n      sub\n        /* \"#utility.yul\":19127:19128   */\n      0x00\n        /* \"#utility.yul\":19116:19125   */\n      dup4\n        /* \"#utility.yul\":19112:19129   */\n      add\n        /* \"#utility.yul\":19105:19152   */\n      mstore\n        /* \"#utility.yul\":19169:19300   */\n      tag_490\n        /* \"#utility.yul\":19295:19299   */\n      dup2\n        /* \"#utility.yul\":19169:19300   */\n      tag_305\n      jump\t// in\n    tag_490:\n        /* \"#utility.yul\":19161:19300   */\n      swap1\n      pop\n        /* \"#utility.yul\":18888:19307   */\n      swap2\n      swap1\n      pop\n      jump\t// out\n        /* \"#utility.yul\":19313:19483   */\n    tag_306:\n        /* \"#utility.yul\":19453:19475   */\n      0x61646472657373206e6f7420626520626c616e6b000000000000000000000000\n        /* \"#utility.yul\":19449:19450   */\n      0x00\n        /* \"#utility.yul\":19441:19447   */\n      dup3\n        /* \"#utility.yul\":19437:19451   */\n      add\n        /* \"#utility.yul\":19430:19476   */\n      mstore\n        /* \"#utility.yul\":19313:19483   */\n      pop\n      jump\t// out\n        /* \"#utility.yul\":19489:19855   */\n    tag_307:\n        /* \"#utility.yul\":19631:19634   */\n      0x00\n        /* \"#utility.yul\":19652:19719   */\n      tag_493\n        /* \"#utility.yul\":19716:19718   */\n      0x14\n        /* \"#utility.yul\":19711:19714   */\n      dup4\n        /* \"#utility.yul\":19652:19719   */\n      tag_288\n      jump\t// in\n    tag_493:\n        /* \"#utility.yul\":19645:19719   */\n      swap2\n      pop\n        /* \"#utility.yul\":19728:19821   */\n      tag_494\n        /* \"#utility.yul\":19817:19820   */\n      dup3\n        /* \"#utility.yul\":19728:19821   */\n      tag_306\n      jump\t// in\n    tag_494:\n        /* \"#utility.yul\":19846:19848   */\n      0x20\n        /* \"#utility.yul\":19841:19844   */\n      dup3\n        /* \"#utility.yul\":19837:19849   */\n      add\n        /* \"#utility.yul\":19830:19849   */\n      swap1\n      pop\n        /* \"#utility.yul\":19489:19855   */\n      swap2\n      swap1\n      pop\n      jump\t// out\n        /* \"#utility.yul\":19861:20280   */\n    tag_206:\n        /* \"#utility.yul\":20027:20031   */\n      0x00\n        /* \"#utility.yul\":20065:20067   */\n      0x20\n        /* \"#utility.yul\":20054:20063   */\n      dup3\n        /* \"#utility.yul\":20050:20068   */\n      add\n        /* \"#utility.yul\":20042:20068   */\n      swap1\n      pop\n        /* \"#utility.yul\":20114:20123   */\n      dup2\n        /* \"#utility.yul\":20108:20112   */\n      dup2\n        /* \"#utility.yul\":20104:20124   */\n      sub\n        /* \"#utility.yul\":20100:20101   */\n      0x00\n        /* \"#utility.yul\":20089:20098   */\n      dup4\n        /* \"#utility.yul\":20085:20102   */\n      add\n        /* \"#utility.yul\":20078:20125   */\n      mstore\n        /* \"#utility.yul\":20142:20273   */\n      tag_496\n        /* \"#utility.yul\":20268:20272   */\n      dup2\n        /* \"#utility.yul\":20142:20273   */\n      tag_307\n      jump\t// in\n    tag_496:\n        /* \"#utility.yul\":20134:20273   */\n      swap1\n      pop\n        /* \"#utility.yul\":19861:20280   */\n      swap2\n      swap1\n      pop\n      jump\t// out\n        /* \"#utility.yul\":20286:20456   */\n    tag_308:\n        /* \"#utility.yul\":20426:20448   */\n      0x7374616b65416d6f756e7420746f6f2068696768000000000000000000000000\n        /* \"#utility.yul\":20422:20423   */\n      0x00\n        /* \"#utility.yul\":20414:20420   */\n      dup3\n        /* \"#utility.yul\":20410:20424   */\n      add\n        /* \"#utility.yul\":20403:20449   */\n      mstore\n        /* \"#utility.yul\":20286:20456   */\n      pop\n      jump\t// out\n        /* \"#utility.yul\":20462:20828   */\n    tag_309:\n        /* \"#utility.yul\":20604:20607   */\n      0x00\n        /* \"#utility.yul\":20625:20692   */\n      tag_499\n        /* \"#utility.yul\":20689:20691   */\n      0x14\n        /* \"#utility.yul\":20684:20687   */\n      dup4\n        /* \"#utility.yul\":20625:20692   */\n      tag_288\n      jump\t// in\n    tag_499:\n        /* \"#utility.yul\":20618:20692   */\n      swap2\n      pop\n        /* \"#utility.yul\":20701:20794   */\n      tag_500\n        /* \"#utility.yul\":20790:20793   */\n      dup3\n        /* \"#utility.yul\":20701:20794   */\n      tag_308\n      jump\t// in\n    tag_500:\n        /* \"#utility.yul\":20819:20821   */\n      0x20\n        /* \"#utility.yul\":20814:20817   */\n      dup3\n        /* \"#utility.yul\":20810:20822   */\n      add\n        /* \"#utility.yul\":20803:20822   */\n      swap1\n      pop\n        /* \"#utility.yul\":20462:20828   */\n      swap2\n      swap1\n      pop\n      jump\t// out\n        /* \"#utility.yul\":20834:21253   */\n    tag_223:\n        /* \"#utility.yul\":21000:21004   */\n      0x00\n        /* \"#utility.yul\":21038:21040   */\n      0x20\n        /* \"#utility.yul\":21027:21036   */\n      dup3\n        /* \"#utility.yul\":21023:21041   */\n      add\n        /* \"#utility.yul\":21015:21041   */\n      swap1\n      pop\n        /* \"#utility.yul\":21087:21096   */\n      dup2\n        /* \"#utility.yul\":21081:21085   */\n      dup2\n        /* \"#utility.yul\":21077:21097   */\n      sub\n        /* \"#utility.yul\":21073:21074   */\n      0x00\n        /* \"#utility.yul\":21062:21071   */\n      dup4\n        /* \"#utility.yul\":21058:21075   */\n      add\n        /* \"#utility.yul\":21051:21098   */\n      mstore\n        /* \"#utility.yul\":21115:21246   */\n      tag_502\n        /* \"#utility.yul\":21241:21245   */\n      dup2\n        /* \"#utility.yul\":21115:21246   */\n      tag_309\n      jump\t// in\n    tag_502:\n        /* \"#utility.yul\":21107:21246   */\n      swap1\n      pop\n        /* \"#utility.yul\":20834:21253   */\n      swap2\n      swap1\n      pop\n      jump\t// out\n        /* \"#utility.yul\":21259:21486   */\n    tag_310:\n        /* \"#utility.yul\":21399:21433   */\n      0x7374616b65416d6f756e742073686f756c6420686967686572207468616e206d\n        /* \"#utility.yul\":21395:21396   */\n      0x00\n        /* \"#utility.yul\":21387:21393   */\n      dup3\n        /* \"#utility.yul\":21383:21397   */\n      add\n        /* \"#utility.yul\":21376:21434   */\n      mstore\n        /* \"#utility.yul\":21468:21478   */\n      0x696e416d6f756e74000000000000000000000000000000000000000000000000\n        /* \"#utility.yul\":21463:21465   */\n      0x20\n        /* \"#utility.yul\":21455:21461   */\n      dup3\n        /* \"#utility.yul\":21451:21466   */\n      add\n        /* \"#utility.yul\":21444:21479   */\n      mstore\n        /* \"#utility.yul\":21259:21486   */\n      pop\n      jump\t// out\n        /* \"#utility.yul\":21492:21858   */\n    tag_311:\n        /* \"#utility.yul\":21634:21637   */\n      0x00\n        /* \"#utility.yul\":21655:21722   */\n      tag_505\n        /* \"#utility.yul\":21719:21721   */\n      0x28\n        /* \"#utility.yul\":21714:21717   */\n      dup4\n        /* \"#utility.yul\":21655:21722   */\n      tag_288\n      jump\t// in\n    tag_505:\n        /* \"#utility.yul\":21648:21722   */\n      swap2\n      pop\n        /* \"#utility.yul\":21731:21824   */\n      tag_506\n        /* \"#utility.yul\":21820:21823   */\n      dup3\n        /* \"#utility.yul\":21731:21824   */\n      tag_310\n      jump\t// in\n    tag_506:\n        /* \"#utility.yul\":21849:21851   */\n      0x40\n        /* \"#utility.yul\":21844:21847   */\n      dup3\n        /* \"#utility.yul\":21840:21852   */\n      add\n        /* \"#utility.yul\":21833:21852   */\n      swap1\n      pop\n        /* \"#utility.yul\":21492:21858   */\n      swap2\n      swap1\n      pop\n      jump\t// out\n        /* \"#utility.yul\":21864:22283   */\n    tag_226:\n        /* \"#utility.yul\":22030:22034   */\n      0x00\n        /* \"#utility.yul\":22068:22070   */\n      0x20\n        /* \"#utility.yul\":22057:22066   */\n      dup3\n        /* \"#utility.yul\":22053:22071   */\n      add\n        /* \"#utility.yul\":22045:22071   */\n      swap1\n      pop\n        /* \"#utility.yul\":22117:22126   */\n      dup2\n        /* \"#utility.yul\":22111:22115   */\n      dup2\n        /* \"#utility.yul\":22107:22127   */\n      sub\n        /* \"#utility.yul\":22103:22104   */\n      0x00\n        /* \"#utility.yul\":22092:22101   */\n      dup4\n        /* \"#utility.yul\":22088:22105   */\n      add\n        /* \"#utility.yul\":22081:22128   */\n      mstore\n        /* \"#utility.yul\":22145:22276   */\n      tag_508\n        /* \"#utility.yul\":22271:22275   */\n      dup2\n        /* \"#utility.yul\":22145:22276   */\n      tag_311\n      jump\t// in\n    tag_508:\n        /* \"#utility.yul\":22137:22276   */\n      swap1\n      pop\n        /* \"#utility.yul\":21864:22283   */\n      swap2\n      swap1\n      pop\n      jump\t// out\n        /* \"#utility.yul\":22289:22621   */\n    tag_262:\n        /* \"#utility.yul\":22410:22414   */\n      0x00\n        /* \"#utility.yul\":22448:22450   */\n      0x40\n        /* \"#utility.yul\":22437:22446   */\n      dup3\n        /* \"#utility.yul\":22433:22451   */\n      add\n        /* \"#utility.yul\":22425:22451   */\n      swap1\n      pop\n        /* \"#utility.yul\":22461:22532   */\n      tag_510\n        /* \"#utility.yul\":22529:22530   */\n      0x00\n        /* \"#utility.yul\":22518:22527   */\n      dup4\n        /* \"#utility.yul\":22514:22531   */\n      add\n        /* \"#utility.yul\":22505:22511   */\n      dup6\n        /* \"#utility.yul\":22461:22532   */\n      tag_285\n      jump\t// in\n    tag_510:\n        /* \"#utility.yul\":22542:22614   */\n      tag_511\n        /* \"#utility.yul\":22610:22612   */\n      0x20\n        /* \"#utility.yul\":22599:22608   */\n      dup4\n        /* \"#utility.yul\":22595:22613   */\n      add\n        /* \"#utility.yul\":22586:22592   */\n      dup5\n        /* \"#utility.yul\":22542:22614   */\n      tag_278\n      jump\t// in\n    tag_511:\n        /* \"#utility.yul\":22289:22621   */\n      swap4\n      swap3\n      pop\n      pop\n      pop\n      jump\t// out\n\n    auxdata: 0xa2646970667358221220c12ecce137c4df63d30321a4d6bec300a2b5cfff1c4a6a116eca39c9039a319d64736f6c63430008190033\n}\n",
				"bytecode": {
					"linkReferences": {},
					"object": "608060405234801561000f575f80fd5b5061001e61005460201b60201c565b61004e7f589d473ba17c0f47d494622893831497bad25919b9afb8e33e9521b8963fccde3361006460201b60201c565b506102a4565b61006261016e60201b60201c565b565b5f806100746101b460201b60201c565b905061008684846101db60201b60201c565b610163576001815f015f8681526020019081526020015f205f015f8573ffffffffffffffffffffffffffffffffffffffff1673ffffffffffffffffffffffffffffffffffffffff1681526020019081526020015f205f6101000a81548160ff0219169083151502179055506100ff61025260201b60201c565b73ffffffffffffffffffffffffffffffffffffffff168373ffffffffffffffffffffffffffffffffffffffff16857f2f8788117e7eff1d82e926ec794901d17c78024a50270940304540a733656f0d60405160405180910390a46001915050610168565b5f9150505b92915050565b61017c61025960201b60201c565b6101b2576040517fd7e6bcf800000000000000000000000000000000000000000000000000000000815260040160405180910390fd5b565b5f7f02dd7bc7dec4dceedda775e58dd541e08a116c6c53815c0bd028192f7b626800905090565b5f806101eb6101b460201b60201c565b9050805f015f8581526020019081526020015f205f015f8473ffffffffffffffffffffffffffffffffffffffff1673ffffffffffffffffffffffffffffffffffffffff1681526020019081526020015f205f9054906101000a900460ff1691505092915050565b5f33905090565b5f61026861027d60201b60201c565b5f0160089054906101000a900460ff16905090565b5f7ff0c57e16840df040f15088dc2f81fe391c3923bec73e23a9662efc9c229c6a00905090565b6121a9806102b15f395ff3fe608060405234801561000f575f80fd5b5060043610610156575f3560e01c80635a5a971e116100c157806391d148541161007a57806391d14854146103915780639867e965146103c1578063a217fddf146103cb578063d547741f146103e9578063dbd3291c14610405578063ff5149611461040f57610156565b80635a5a971e146102c95780636ab55c171461030357806375b238fc1461031f5780637917fb9f1461033d578063897b06371461035957806390590da01461037557610156565b80632f2ff15d116101135780632f2ff15d1461021f57806336568abe1461023b57806338f2aa761461025757806341275358146102735780635249961b1461029157806352f7c988146102ad57610156565b80630177b68c1461015a57806301ffc9a71461018f57806309ae3f83146101bf57806316f941b5146101c95780631af0a28d146101e5578063248a9ca3146101ef575b5f80fd5b610174600480360381019061016f91906116ab565b610419565b604051610186969594939291906116e5565b60405180910390f35b6101a960048036038101906101a49190611799565b610460565b6040516101b691906117de565b60405180910390f35b6101c76104d9565b005b6101e360048036038101906101de91906117f7565b6104db565b005b6101ed610681565b005b61020960048036038101906102049190611868565b610683565b60405161021691906118a2565b60405180910390f35b61023960048036038101906102349190611915565b6106ad565b005b61025560048036038101906102509190611915565b6106cf565b005b610271600480360381019061026c91906117f7565b61074a565b005b61027b6108c3565b6040516102889190611973565b60405180910390f35b6102ab60048036038101906102a6919061198c565b6108e8565b005b6102c760048036038101906102c291906117f7565b6109c4565b005b6102e360048036038101906102de91906116ab565b610a01565b6040516102fa9b9a999897969594939291906119c6565b60405180910390f35b61031d60048036038101906103189190611a6f565b610ae2565b005b610327610fe1565b60405161033491906118a2565b60405180910390f35b61035760048036038101906103529190611b86565b611005565b005b610373600480360381019061036e91906116ab565b6110e1565b005b61038f600480360381019061038a91906117f7565b6110eb565b005b6103ab60048036038101906103a69190611915565b6112e9565b6040516103b891906117de565b60405180910390f35b6103c961135a565b005b6103d361135c565b6040516103e091906118a2565b60405180910390f35b61040360048036038101906103fe9190611915565b611362565b005b61040d611384565b005b610417611386565b005b601c8181548110610428575f80fd5b905f5260205f2090600602015f91509050805f0154908060010154908060020154908060030154908060040154908060050154905086565b5f7f7965db0b000000000000000000000000000000000000000000000000000000007bffffffffffffffffffffffffffffffffffffffffffffffffffffffff1916827bffffffffffffffffffffffffffffffffffffffffffffffffffffffff191614806104d257506104d182611388565b5b9050919050565b565b5f601a83815481106104f0576104ef611bb1565b5b905f5260205f2090600b020190505f601d5f3373ffffffffffffffffffffffffffffffffffffffff1673ffffffffffffffffffffffffffffffffffffffff1681526020019081526020015f205f8581526020019081526020015f209050815f01544210610592576040517f08c379a000000000000000000000000000000000000000000000000000000000815260040161058990611c38565b60405180910390fd5b5f60048111156105a5576105a4611c56565b5b601b5f9054906101000a900460ff1660048111156105c6576105c5611c56565b5b14610606576040517f08c379a00000000000000000000000000000000000000000000000000000000081526004016105fd90611ccd565b60405180910390fd5b5f8311610648576040517f08c379a000000000000000000000000000000000000000000000000000000000815260040161063f90611d35565b60405180910390fd5b82826004015f82825461065b9190611d80565b9250508190555082815f015f8282546106749190611db3565b9250508190555050505050565b565b5f8061068d6113f1565b9050805f015f8481526020019081526020015f2060010154915050919050565b6106b682610683565b6106bf81611418565b6106c9838361142c565b50505050565b6106d7611524565b73ffffffffffffffffffffffffffffffffffffffff168173ffffffffffffffffffffffffffffffffffffffff161461073b576040517f6697b23200000000000000000000000000000000000000000000000000000000815260040160405180910390fd5b610745828261152b565b505050565b6002600481111561075e5761075d611c56565b5b601b5f9054906101000a900460ff16600481111561077f5761077e611c56565b5b14806107bd57506003600481111561079a57610799611c56565b5b601b5f9054906101000a900460ff1660048111156107bb576107ba611c56565b5b145b6107fc576040517f08c379a00000000000000000000000000000000000000000000000000000000081526004016107f390611e30565b60405180910390fd5b5f811161083e576040517f08c379a000000000000000000000000000000000000000000000000000000000815260040161083590611e98565b60405180910390fd5b5f601d5f3373ffffffffffffffffffffffffffffffffffffffff1673ffffffffffffffffffffffffffffffffffffffff1681526020019081526020015f205f8481526020019081526020015f20905081815f0154106108b55781815f015f8282546108a99190611d80565b925050819055506108be565b5f815f01819055505b505050565b600d5f9054906101000a900473ffffffffffffffffffffffffffffffffffffffff1681565b7f589d473ba17c0f47d494622893831497bad25919b9afb8e33e9521b8963fccde61091281611418565b5f73ffffffffffffffffffffffffffffffffffffffff168273ffffffffffffffffffffffffffffffffffffffff1603610980576040517f08c379a000000000000000000000000000000000000000000000000000000000815260040161097790611f00565b60405180910390fd5b81600c5f6101000a81548173ffffffffffffffffffffffffffffffffffffffff021916908373ffffffffffffffffffffffffffffffffffffffff1602179055505050565b7f589d473ba17c0f47d494622893831497bad25919b9afb8e33e9521b8963fccde6109ee81611418565b82600a8190555081600b81905550505050565b601a8181548110610a10575f80fd5b905f5260205f2090600b02015f91509050805f015490806001015490806002015490806003015490806004015490806005015490806006015f9054906101000a900473ffffffffffffffffffffffffffffffffffffffff1690806007015f9054906101000a900473ffffffffffffffffffffffffffffffffffffffff1690806008015f9054906101000a900473ffffffffffffffffffffffffffffffffffffffff1690806009015f9054906101000a900473ffffffffffffffffffffffffffffffffffffffff169080600a015490508b565b8a8a11610b24576040517f08c379a0000000000000000000000000000000000000000000000000000000008152600401610b1b90611f68565b60405180910390fd5b5f73ffffffffffffffffffffffffffffffffffffffff168373ffffffffffffffffffffffffffffffffffffffff161480610b8957505f73ffffffffffffffffffffffffffffffffffffffff168273ffffffffffffffffffffffffffffffffffffffff16145b610bc8576040517f08c379a0000000000000000000000000000000000000000000000000000000008152600401610bbf90611fd0565b60405180910390fd5b6040518061016001604052808c81526020018b81526020018a81526020018981526020018881526020018781526020018673ffffffffffffffffffffffffffffffffffffffff1681526020018573ffffffffffffffffffffffffffffffffffffffff1681526020018473ffffffffffffffffffffffffffffffffffffffff1681526020018373ffffffffffffffffffffffffffffffffffffffff16815260200182815250600f5f820151815f01556020820151816001015560408201518160020155606082015181600301556080820151816004015560a0820151816005015560c0820151816006015f6101000a81548173ffffffffffffffffffffffffffffffffffffffff021916908373ffffffffffffffffffffffffffffffffffffffff16021790555060e0820151816007015f6101000a81548173ffffffffffffffffffffffffffffffffffffffff021916908373ffffffffffffffffffffffffffffffffffffffff160217905550610100820151816008015f6101000a81548173ffffffffffffffffffffffffffffffffffffffff021916908373ffffffffffffffffffffffffffffffffffffffff160217905550610120820151816009015f6101000a81548173ffffffffffffffffffffffffffffffffffffffff021916908373ffffffffffffffffffffffffffffffffffffffff16021790555061014082015181600a0155905050601a600f908060018154018082558091505060019003905f5260205f2090600b02015f909190919091505f820154815f01556001820154816001015560028201548160020155600382015481600301556004820154816004015560058201548160050155600682015f9054906101000a900473ffffffffffffffffffffffffffffffffffffffff16816006015f6101000a81548173ffffffffffffffffffffffffffffffffffffffff021916908373ffffffffffffffffffffffffffffffffffffffff160217905550600782015f9054906101000a900473ffffffffffffffffffffffffffffffffffffffff16816007015f6101000a81548173ffffffffffffffffffffffffffffffffffffffff021916908373ffffffffffffffffffffffffffffffffffffffff160217905550600882015f9054906101000a900473ffffffffffffffffffffffffffffffffffffffff16816008015f6101000a81548173ffffffffffffffffffffffffffffffffffffffff021916908373ffffffffffffffffffffffffffffffffffffffff160217905550600982015f9054906101000a900473ffffffffffffffffffffffffffffffffffffffff16816009015f6101000a81548173ffffffffffffffffffffffffffffffffffffffff021916908373ffffffffffffffffffffffffffffffffffffffff160217905550600a82015481600a015550505050505050505050505050565b7f589d473ba17c0f47d494622893831497bad25919b9afb8e33e9521b8963fccde81565b7f589d473ba17c0f47d494622893831497bad25919b9afb8e33e9521b8963fccde61102f81611418565b5f73ffffffffffffffffffffffffffffffffffffffff168273ffffffffffffffffffffffffffffffffffffffff160361109d576040517f08c379a000000000000000000000000000000000000000000000000000000000815260040161109490612038565b60405180910390fd5b81600d5f6101000a81548173ffffffffffffffffffffffffffffffffffffffff021916908373ffffffffffffffffffffffffffffffffffffffff1602179055505050565b80600e8190555050565b5f601a8381548110611100576110ff611bb1565b5b905f5260205f2090600b020190505f601d5f3373ffffffffffffffffffffffffffffffffffffffff1673ffffffffffffffffffffffffffffffffffffffff1681526020019081526020015f205f8581526020019081526020015f209050815f015442106111a2576040517f08c379a000000000000000000000000000000000000000000000000000000000815260040161119990611c38565b60405180910390fd5b5f60048111156111b5576111b4611c56565b5b601b5f9054906101000a900460ff1660048111156111d6576111d5611c56565b5b14611216576040517f08c379a000000000000000000000000000000000000000000000000000000000815260040161120d90611ccd565b60405180910390fd5b8160040154826003015461122a9190611d80565b83111561126c576040517f08c379a0000000000000000000000000000000000000000000000000000000008152600401611263906120a0565b60405180910390fd5b600e5483116112b0576040517f08c379a00000000000000000000000000000000000000000000000000000000081526004016112a79061212e565b60405180910390fd5b82826004015f8282546112c39190611d80565b9250508190555082815f015f8282546112dc9190611db3565b9250508190555050505050565b5f806112f36113f1565b9050805f015f8581526020019081526020015f205f015f8473ffffffffffffffffffffffffffffffffffffffff1673ffffffffffffffffffffffffffffffffffffffff1681526020019081526020015f205f9054906101000a900460ff1691505092915050565b565b5f801b81565b61136b82610683565b61137481611418565b61137e838361152b565b50505050565b565b565b5f7f01ffc9a7000000000000000000000000000000000000000000000000000000007bffffffffffffffffffffffffffffffffffffffffffffffffffffffff1916827bffffffffffffffffffffffffffffffffffffffffffffffffffffffff1916149050919050565b5f7f02dd7bc7dec4dceedda775e58dd541e08a116c6c53815c0bd028192f7b626800905090565b61142981611424611524565b611623565b50565b5f806114366113f1565b905061144284846112e9565b611519576001815f015f8681526020019081526020015f205f015f8573ffffffffffffffffffffffffffffffffffffffff1673ffffffffffffffffffffffffffffffffffffffff1681526020019081526020015f205f6101000a81548160ff0219169083151502179055506114b5611524565b73ffffffffffffffffffffffffffffffffffffffff168373ffffffffffffffffffffffffffffffffffffffff16857f2f8788117e7eff1d82e926ec794901d17c78024a50270940304540a733656f0d60405160405180910390a4600191505061151e565b5f9150505b92915050565b5f33905090565b5f806115356113f1565b905061154184846112e9565b15611618575f815f015f8681526020019081526020015f205f015f8573ffffffffffffffffffffffffffffffffffffffff1673ffffffffffffffffffffffffffffffffffffffff1681526020019081526020015f205f6101000a81548160ff0219169083151502179055506115b4611524565b73ffffffffffffffffffffffffffffffffffffffff168373ffffffffffffffffffffffffffffffffffffffff16857ff6391f5c32d9c69d2a47ea670b442974b53935d1edc7fd64eb21e047a839171b60405160405180910390a4600191505061161d565b5f9150505b92915050565b61162d82826112e9565b6116705780826040517fe2517d3f00000000000000000000000000000000000000000000000000000000815260040161166792919061214c565b60405180910390fd5b5050565b5f80fd5b5f819050919050565b61168a81611678565b8114611694575f80fd5b50565b5f813590506116a581611681565b92915050565b5f602082840312156116c0576116bf611674565b5b5f6116cd84828501611697565b91505092915050565b6116df81611678565b82525050565b5f60c0820190506116f85f8301896116d6565b61170560208301886116d6565b61171260408301876116d6565b61171f60608301866116d6565b61172c60808301856116d6565b61173960a08301846116d6565b979650505050505050565b5f7fffffffff0000000000000000000000000000000000000000000000000000000082169050919050565b61177881611744565b8114611782575f80fd5b50565b5f813590506117938161176f565b92915050565b5f602082840312156117ae576117ad611674565b5b5f6117bb84828501611785565b91505092915050565b5f8115159050919050565b6117d8816117c4565b82525050565b5f6020820190506117f15f8301846117cf565b92915050565b5f806040838503121561180d5761180c611674565b5b5f61181a85828601611697565b925050602061182b85828601611697565b9150509250929050565b5f819050919050565b61184781611835565b8114611851575f80fd5b50565b5f813590506118628161183e565b92915050565b5f6020828403121561187d5761187c611674565b5b5f61188a84828501611854565b91505092915050565b61189c81611835565b82525050565b5f6020820190506118b55f830184611893565b92915050565b5f73ffffffffffffffffffffffffffffffffffffffff82169050919050565b5f6118e4826118bb565b9050919050565b6118f4816118da565b81146118fe575f80fd5b50565b5f8135905061190f816118eb565b92915050565b5f806040838503121561192b5761192a611674565b5b5f61193885828601611854565b925050602061194985828601611901565b9150509250929050565b5f61195d826118bb565b9050919050565b61196d81611953565b82525050565b5f6020820190506119865f830184611964565b92915050565b5f602082840312156119a1576119a0611674565b5b5f6119ae84828501611901565b91505092915050565b6119c0816118da565b82525050565b5f610160820190506119da5f83018e6116d6565b6119e7602083018d6116d6565b6119f4604083018c6116d6565b611a01606083018b6116d6565b611a0e608083018a6116d6565b611a1b60a08301896116d6565b611a2860c08301886119b7565b611a3560e08301876119b7565b611a436101008301866119b7565b611a516101208301856119b7565b611a5f6101408301846116d6565b9c9b505050505050505050505050565b5f805f805f805f805f805f6101608c8e031215611a8f57611a8e611674565b5b5f611a9c8e828f01611697565b9b50506020611aad8e828f01611697565b9a50506040611abe8e828f01611697565b9950506060611acf8e828f01611697565b9850506080611ae08e828f01611697565b97505060a0611af18e828f01611697565b96505060c0611b028e828f01611901565b95505060e0611b138e828f01611901565b945050610100611b258e828f01611901565b935050610120611b378e828f01611901565b925050610140611b498e828f01611697565b9150509295989b509295989b9093969950565b611b6581611953565b8114611b6f575f80fd5b50565b5f81359050611b8081611b5c565b92915050565b5f60208284031215611b9b57611b9a611674565b5b5f611ba884828501611b72565b91505092915050565b7f4e487b71000000000000000000000000000000000000000000000000000000005f52603260045260245ffd5b5f82825260208201905092915050565b7f74696d65206c61746572207468616e20736574746c652074696d6500000000005f82015250565b5f611c22601b83611bde565b9150611c2d82611bee565b602082019050919050565b5f6020820190508181035f830152611c4f81611c16565b9050919050565b7f4e487b71000000000000000000000000000000000000000000000000000000005f52602160045260245ffd5b7f7374617465206e6f74206d6174636800000000000000000000000000000000005f82015250565b5f611cb7600f83611bde565b9150611cc282611c83565b602082019050919050565b5f6020820190508181035f830152611ce481611cab565b9050919050565b7f7374616b65416d6f756e742073686f756c6420686967686572207468616e20305f82015250565b5f611d1f602083611bde565b9150611d2a82611ceb565b602082019050919050565b5f6020820190508181035f830152611d4c81611d13565b9050919050565b7f4e487b71000000000000000000000000000000000000000000000000000000005f52601160045260245ffd5b5f611d8a82611678565b9150611d9583611678565b9250828203905081811115611dad57611dac611d53565b5b92915050565b5f611dbd82611678565b9150611dc883611678565b9250828201905080821115611de057611ddf611d53565b5b92915050565b7f7374617465206e6f742046494e495348206f72204c49515549444154494f4e005f82015250565b5f611e1a601f83611bde565b9150611e2582611de6565b602082019050919050565b5f6020820190508181035f830152611e4781611e0e565b9050919050565b7f7370416d6f756e74206e6f7420656e6f756768000000000000000000000000005f82015250565b5f611e82601383611bde565b9150611e8d82611e4e565b602082019050919050565b5f6020820190508181035f830152611eaf81611e76565b9050919050565b7f61646472657373206e6f74206265207a65726f000000000000000000000000005f82015250565b5f611eea601383611bde565b9150611ef582611eb6565b602082019050919050565b5f6020820190508181035f830152611f1781611ede565b9050919050565b7f70726f6a65637420656e640000000000000000000000000000000000000000005f82015250565b5f611f52600b83611bde565b9150611f5d82611f1e565b602082019050919050565b5f6020820190508181035f830152611f7f81611f46565b9050919050565b7f6164647265737320696e76616c696400000000000000000000000000000000005f82015250565b5f611fba600f83611bde565b9150611fc582611f86565b602082019050919050565b5f6020820190508181035f830152611fe781611fae565b9050919050565b7f61646472657373206e6f7420626520626c616e6b0000000000000000000000005f82015250565b5f612022601483611bde565b915061202d82611fee565b602082019050919050565b5f6020820190508181035f83015261204f81612016565b9050919050565b7f7374616b65416d6f756e7420746f6f20686967680000000000000000000000005f82015250565b5f61208a601483611bde565b915061209582612056565b602082019050919050565b5f6020820190508181035f8301526120b78161207e565b9050919050565b7f7374616b65416d6f756e742073686f756c6420686967686572207468616e206d5f8201527f696e416d6f756e74000000000000000000000000000000000000000000000000602082015250565b5f612118602883611bde565b9150612123826120be565b604082019050919050565b5f6020820190508181035f8301526121458161210c565b9050919050565b5f60408201905061215f5f8301856119b7565b61216c6020830184611893565b939250505056fea2646970667358221220c12ecce137c4df63d30321a4d6bec300a2b5cfff1c4a6a116eca39c9039a319d64736f6c63430008190033",
					"opcodes": "PUSH1 0x80 PUSH1 0x40 MSTORE CALLVALUE DUP1 ISZERO PUSH2 0xF JUMPI PUSH0 DUP1 REVERT JUMPDEST POP PUSH2 0x1E PUSH2 0x54 PUSH1 0x20 SHL PUSH1 0x20 SHR JUMP JUMPDEST PUSH2 0x4E PUSH32 0x589D473BA17C0F47D494622893831497BAD25919B9AFB8E33E9521B8963FCCDE CALLER PUSH2 0x64 PUSH1 0x20 SHL PUSH1 0x20 SHR JUMP JUMPDEST POP PUSH2 0x2A4 JUMP JUMPDEST PUSH2 0x62 PUSH2 0x16E PUSH1 0x20 SHL PUSH1 0x20 SHR JUMP JUMPDEST JUMP JUMPDEST PUSH0 DUP1 PUSH2 0x74 PUSH2 0x1B4 PUSH1 0x20 SHL PUSH1 0x20 SHR JUMP JUMPDEST SWAP1 POP PUSH2 0x86 DUP5 DUP5 PUSH2 0x1DB PUSH1 0x20 SHL PUSH1 0x20 SHR JUMP JUMPDEST PUSH2 0x163 JUMPI PUSH1 0x1 DUP2 PUSH0 ADD PUSH0 DUP7 DUP2 MSTORE PUSH1 0x20 ADD SWAP1 DUP2 MSTORE PUSH1 0x20 ADD PUSH0 KECCAK256 PUSH0 ADD PUSH0 DUP6 PUSH20 0xFFFFFFFFFFFFFFFFFFFFFFFFFFFFFFFFFFFFFFFF AND PUSH20 0xFFFFFFFFFFFFFFFFFFFFFFFFFFFFFFFFFFFFFFFF AND DUP2 MSTORE PUSH1 0x20 ADD SWAP1 DUP2 MSTORE PUSH1 0x20 ADD PUSH0 KECCAK256 PUSH0 PUSH2 0x100 EXP DUP2 SLOAD DUP2 PUSH1 0xFF MUL NOT AND SWAP1 DUP4 ISZERO ISZERO MUL OR SWAP1 SSTORE POP PUSH2 0xFF PUSH2 0x252 PUSH1 0x20 SHL PUSH1 0x20 SHR JUMP JUMPDEST PUSH20 0xFFFFFFFFFFFFFFFFFFFFFFFFFFFFFFFFFFFFFFFF AND DUP4 PUSH20 0xFFFFFFFFFFFFFFFFFFFFFFFFFFFFFFFFFFFFFFFF AND DUP6 PUSH32 0x2F8788117E7EFF1D82E926EC794901D17C78024A50270940304540A733656F0D PUSH1 0x40 MLOAD PUSH1 0x40 MLOAD DUP1 SWAP2 SUB SWAP1 LOG4 PUSH1 0x1 SWAP2 POP POP PUSH2 0x168 JUMP JUMPDEST PUSH0 SWAP2 POP POP JUMPDEST SWAP3 SWAP2 POP POP JUMP JUMPDEST PUSH2 0x17C PUSH2 0x259 PUSH1 0x20 SHL PUSH1 0x20 SHR JUMP JUMPDEST PUSH2 0x1B2 JUMPI PUSH1 0x40 MLOAD PUSH32 0xD7E6BCF800000000000000000000000000000000000000000000000000000000 DUP2 MSTORE PUSH1 0x4 ADD PUSH1 0x40 MLOAD DUP1 SWAP2 SUB SWAP1 REVERT JUMPDEST JUMP JUMPDEST PUSH0 PUSH32 0x2DD7BC7DEC4DCEEDDA775E58DD541E08A116C6C53815C0BD028192F7B626800 SWAP1 POP SWAP1 JUMP JUMPDEST PUSH0 DUP1 PUSH2 0x1EB PUSH2 0x1B4 PUSH1 0x20 SHL PUSH1 0x20 SHR JUMP JUMPDEST SWAP1 POP DUP1 PUSH0 ADD PUSH0 DUP6 DUP2 MSTORE PUSH1 0x20 ADD SWAP1 DUP2 MSTORE PUSH1 0x20 ADD PUSH0 KECCAK256 PUSH0 ADD PUSH0 DUP5 PUSH20 0xFFFFFFFFFFFFFFFFFFFFFFFFFFFFFFFFFFFFFFFF AND PUSH20 0xFFFFFFFFFFFFFFFFFFFFFFFFFFFFFFFFFFFFFFFF AND DUP2 MSTORE PUSH1 0x20 ADD SWAP1 DUP2 MSTORE PUSH1 0x20 ADD PUSH0 KECCAK256 PUSH0 SWAP1 SLOAD SWAP1 PUSH2 0x100 EXP SWAP1 DIV PUSH1 0xFF AND SWAP2 POP POP SWAP3 SWAP2 POP POP JUMP JUMPDEST PUSH0 CALLER SWAP1 POP SWAP1 JUMP JUMPDEST PUSH0 PUSH2 0x268 PUSH2 0x27D PUSH1 0x20 SHL PUSH1 0x20 SHR JUMP JUMPDEST PUSH0 ADD PUSH1 0x8 SWAP1 SLOAD SWAP1 PUSH2 0x100 EXP SWAP1 DIV PUSH1 0xFF AND SWAP1 POP SWAP1 JUMP JUMPDEST PUSH0 PUSH32 0xF0C57E16840DF040F15088DC2F81FE391C3923BEC73E23A9662EFC9C229C6A00 SWAP1 POP SWAP1 JUMP JUMPDEST PUSH2 0x21A9 DUP1 PUSH2 0x2B1 PUSH0 CODECOPY PUSH0 RETURN INVALID PUSH1 0x80 PUSH1 0x40 MSTORE CALLVALUE DUP1 ISZERO PUSH2 0xF JUMPI PUSH0 DUP1 REVERT JUMPDEST POP PUSH1 0x4 CALLDATASIZE LT PUSH2 0x156 JUMPI PUSH0 CALLDATALOAD PUSH1 0xE0 SHR DUP1 PUSH4 0x5A5A971E GT PUSH2 0xC1 JUMPI DUP1 PUSH4 0x91D14854 GT PUSH2 0x7A JUMPI DUP1 PUSH4 0x91D14854 EQ PUSH2 0x391 JUMPI DUP1 PUSH4 0x9867E965 EQ PUSH2 0x3C1 JUMPI DUP1 PUSH4 0xA217FDDF EQ PUSH2 0x3CB JUMPI DUP1 PUSH4 0xD547741F EQ PUSH2 0x3E9 JUMPI DUP1 PUSH4 0xDBD3291C EQ PUSH2 0x405 JUMPI DUP1 PUSH4 0xFF514961 EQ PUSH2 0x40F JUMPI PUSH2 0x156 JUMP JUMPDEST DUP1 PUSH4 0x5A5A971E EQ PUSH2 0x2C9 JUMPI DUP1 PUSH4 0x6AB55C17 EQ PUSH2 0x303 JUMPI DUP1 PUSH4 0x75B238FC EQ PUSH2 0x31F JUMPI DUP1 PUSH4 0x7917FB9F EQ PUSH2 0x33D JUMPI DUP1 PUSH4 0x897B0637 EQ PUSH2 0x359 JUMPI DUP1 PUSH4 0x90590DA0 EQ PUSH2 0x375 JUMPI PUSH2 0x156 JUMP JUMPDEST DUP1 PUSH4 0x2F2FF15D GT PUSH2 0x113 JUMPI DUP1 PUSH4 0x2F2FF15D EQ PUSH2 0x21F JUMPI DUP1 PUSH4 0x36568ABE EQ PUSH2 0x23B JUMPI DUP1 PUSH4 0x38F2AA76 EQ PUSH2 0x257 JUMPI DUP1 PUSH4 0x41275358 EQ PUSH2 0x273 JUMPI DUP1 PUSH4 0x5249961B EQ PUSH2 0x291 JUMPI DUP1 PUSH4 0x52F7C988 EQ PUSH2 0x2AD JUMPI PUSH2 0x156 JUMP JUMPDEST DUP1 PUSH4 0x177B68C EQ PUSH2 0x15A JUMPI DUP1 PUSH4 0x1FFC9A7 EQ PUSH2 0x18F JUMPI DUP1 PUSH4 0x9AE3F83 EQ PUSH2 0x1BF JUMPI DUP1 PUSH4 0x16F941B5 EQ PUSH2 0x1C9 JUMPI DUP1 PUSH4 0x1AF0A28D EQ PUSH2 0x1E5 JUMPI DUP1 PUSH4 0x248A9CA3 EQ PUSH2 0x1EF JUMPI JUMPDEST PUSH0 DUP1 REVERT JUMPDEST PUSH2 0x174 PUSH1 0x4 DUP1 CALLDATASIZE SUB DUP2 ADD SWAP1 PUSH2 0x16F SWAP2 SWAP1 PUSH2 0x16AB JUMP JUMPDEST PUSH2 0x419 JUMP JUMPDEST PUSH1 0x40 MLOAD PUSH2 0x186 SWAP7 SWAP6 SWAP5 SWAP4 SWAP3 SWAP2 SWAP1 PUSH2 0x16E5 JUMP JUMPDEST PUSH1 0x40 MLOAD DUP1 SWAP2 SUB SWAP1 RETURN JUMPDEST PUSH2 0x1A9 PUSH1 0x4 DUP1 CALLDATASIZE SUB DUP2 ADD SWAP1 PUSH2 0x1A4 SWAP2 SWAP1 PUSH2 0x1799 JUMP JUMPDEST PUSH2 0x460 JUMP JUMPDEST PUSH1 0x40 MLOAD PUSH2 0x1B6 SWAP2 SWAP1 PUSH2 0x17DE JUMP JUMPDEST PUSH1 0x40 MLOAD DUP1 SWAP2 SUB SWAP1 RETURN JUMPDEST PUSH2 0x1C7 PUSH2 0x4D9 JUMP JUMPDEST STOP JUMPDEST PUSH2 0x1E3 PUSH1 0x4 DUP1 CALLDATASIZE SUB DUP2 ADD SWAP1 PUSH2 0x1DE SWAP2 SWAP1 PUSH2 0x17F7 JUMP JUMPDEST PUSH2 0x4DB JUMP JUMPDEST STOP JUMPDEST PUSH2 0x1ED PUSH2 0x681 JUMP JUMPDEST STOP JUMPDEST PUSH2 0x209 PUSH1 0x4 DUP1 CALLDATASIZE SUB DUP2 ADD SWAP1 PUSH2 0x204 SWAP2 SWAP1 PUSH2 0x1868 JUMP JUMPDEST PUSH2 0x683 JUMP JUMPDEST PUSH1 0x40 MLOAD PUSH2 0x216 SWAP2 SWAP1 PUSH2 0x18A2 JUMP JUMPDEST PUSH1 0x40 MLOAD DUP1 SWAP2 SUB SWAP1 RETURN JUMPDEST PUSH2 0x239 PUSH1 0x4 DUP1 CALLDATASIZE SUB DUP2 ADD SWAP1 PUSH2 0x234 SWAP2 SWAP1 PUSH2 0x1915 JUMP JUMPDEST PUSH2 0x6AD JUMP JUMPDEST STOP JUMPDEST PUSH2 0x255 PUSH1 0x4 DUP1 CALLDATASIZE SUB DUP2 ADD SWAP1 PUSH2 0x250 SWAP2 SWAP1 PUSH2 0x1915 JUMP JUMPDEST PUSH2 0x6CF JUMP JUMPDEST STOP JUMPDEST PUSH2 0x271 PUSH1 0x4 DUP1 CALLDATASIZE SUB DUP2 ADD SWAP1 PUSH2 0x26C SWAP2 SWAP1 PUSH2 0x17F7 JUMP JUMPDEST PUSH2 0x74A JUMP JUMPDEST STOP JUMPDEST PUSH2 0x27B PUSH2 0x8C3 JUMP JUMPDEST PUSH1 0x40 MLOAD PUSH2 0x288 SWAP2 SWAP1 PUSH2 0x1973 JUMP JUMPDEST PUSH1 0x40 MLOAD DUP1 SWAP2 SUB SWAP1 RETURN JUMPDEST PUSH2 0x2AB PUSH1 0x4 DUP1 CALLDATASIZE SUB DUP2 ADD SWAP1 PUSH2 0x2A6 SWAP2 SWAP1 PUSH2 0x198C JUMP JUMPDEST PUSH2 0x8E8 JUMP JUMPDEST STOP JUMPDEST PUSH2 0x2C7 PUSH1 0x4 DUP1 CALLDATASIZE SUB DUP2 ADD SWAP1 PUSH2 0x2C2 SWAP2 SWAP1 PUSH2 0x17F7 JUMP JUMPDEST PUSH2 0x9C4 JUMP JUMPDEST STOP JUMPDEST PUSH2 0x2E3 PUSH1 0x4 DUP1 CALLDATASIZE SUB DUP2 ADD SWAP1 PUSH2 0x2DE SWAP2 SWAP1 PUSH2 0x16AB JUMP JUMPDEST PUSH2 0xA01 JUMP JUMPDEST PUSH1 0x40 MLOAD PUSH2 0x2FA SWAP12 SWAP11 SWAP10 SWAP9 SWAP8 SWAP7 SWAP6 SWAP5 SWAP4 SWAP3 SWAP2 SWAP1 PUSH2 0x19C6 JUMP JUMPDEST PUSH1 0x40 MLOAD DUP1 SWAP2 SUB SWAP1 RETURN JUMPDEST PUSH2 0x31D PUSH1 0x4 DUP1 CALLDATASIZE SUB DUP2 ADD SWAP1 PUSH2 0x318 SWAP2 SWAP1 PUSH2 0x1A6F JUMP JUMPDEST PUSH2 0xAE2 JUMP JUMPDEST STOP JUMPDEST PUSH2 0x327 PUSH2 0xFE1 JUMP JUMPDEST PUSH1 0x40 MLOAD PUSH2 0x334 SWAP2 SWAP1 PUSH2 0x18A2 JUMP JUMPDEST PUSH1 0x40 MLOAD DUP1 SWAP2 SUB SWAP1 RETURN JUMPDEST PUSH2 0x357 PUSH1 0x4 DUP1 CALLDATASIZE SUB DUP2 ADD SWAP1 PUSH2 0x352 SWAP2 SWAP1 PUSH2 0x1B86 JUMP JUMPDEST PUSH2 0x1005 JUMP JUMPDEST STOP JUMPDEST PUSH2 0x373 PUSH1 0x4 DUP1 CALLDATASIZE SUB DUP2 ADD SWAP1 PUSH2 0x36E SWAP2 SWAP1 PUSH2 0x16AB JUMP JUMPDEST PUSH2 0x10E1 JUMP JUMPDEST STOP JUMPDEST PUSH2 0x38F PUSH1 0x4 DUP1 CALLDATASIZE SUB DUP2 ADD SWAP1 PUSH2 0x38A SWAP2 SWAP1 PUSH2 0x17F7 JUMP JUMPDEST PUSH2 0x10EB JUMP JUMPDEST STOP JUMPDEST PUSH2 0x3AB PUSH1 0x4 DUP1 CALLDATASIZE SUB DUP2 ADD SWAP1 PUSH2 0x3A6 SWAP2 SWAP1 PUSH2 0x1915 JUMP JUMPDEST PUSH2 0x12E9 JUMP JUMPDEST PUSH1 0x40 MLOAD PUSH2 0x3B8 SWAP2 SWAP1 PUSH2 0x17DE JUMP JUMPDEST PUSH1 0x40 MLOAD DUP1 SWAP2 SUB SWAP1 RETURN JUMPDEST PUSH2 0x3C9 PUSH2 0x135A JUMP JUMPDEST STOP JUMPDEST PUSH2 0x3D3 PUSH2 0x135C JUMP JUMPDEST PUSH1 0x40 MLOAD PUSH2 0x3E0 SWAP2 SWAP1 PUSH2 0x18A2 JUMP JUMPDEST PUSH1 0x40 MLOAD DUP1 SWAP2 SUB SWAP1 RETURN JUMPDEST PUSH2 0x403 PUSH1 0x4 DUP1 CALLDATASIZE SUB DUP2 ADD SWAP1 PUSH2 0x3FE SWAP2 SWAP1 PUSH2 0x1915 JUMP JUMPDEST PUSH2 0x1362 JUMP JUMPDEST STOP JUMPDEST PUSH2 0x40D PUSH2 0x1384 JUMP JUMPDEST STOP JUMPDEST PUSH2 0x417 PUSH2 0x1386 JUMP JUMPDEST STOP JUMPDEST PUSH1 0x1C DUP2 DUP2 SLOAD DUP2 LT PUSH2 0x428 JUMPI PUSH0 DUP1 REVERT JUMPDEST SWAP1 PUSH0 MSTORE PUSH1 0x20 PUSH0 KECCAK256 SWAP1 PUSH1 0x6 MUL ADD PUSH0 SWAP2 POP SWAP1 POP DUP1 PUSH0 ADD SLOAD SWAP1 DUP1 PUSH1 0x1 ADD SLOAD SWAP1 DUP1 PUSH1 0x2 ADD SLOAD SWAP1 DUP1 PUSH1 0x3 ADD SLOAD SWAP1 DUP1 PUSH1 0x4 ADD SLOAD SWAP1 DUP1 PUSH1 0x5 ADD SLOAD SWAP1 POP DUP7 JUMP JUMPDEST PUSH0 PUSH32 0x7965DB0B00000000000000000000000000000000000000000000000000000000 PUSH28 0xFFFFFFFFFFFFFFFFFFFFFFFFFFFFFFFFFFFFFFFFFFFFFFFFFFFFFFFF NOT AND DUP3 PUSH28 0xFFFFFFFFFFFFFFFFFFFFFFFFFFFFFFFFFFFFFFFFFFFFFFFFFFFFFFFF NOT AND EQ DUP1 PUSH2 0x4D2 JUMPI POP PUSH2 0x4D1 DUP3 PUSH2 0x1388 JUMP JUMPDEST JUMPDEST SWAP1 POP SWAP2 SWAP1 POP JUMP JUMPDEST JUMP JUMPDEST PUSH0 PUSH1 0x1A DUP4 DUP2 SLOAD DUP2 LT PUSH2 0x4F0 JUMPI PUSH2 0x4EF PUSH2 0x1BB1 JUMP JUMPDEST JUMPDEST SWAP1 PUSH0 MSTORE PUSH1 0x20 PUSH0 KECCAK256 SWAP1 PUSH1 0xB MUL ADD SWAP1 POP PUSH0 PUSH1 0x1D PUSH0 CALLER PUSH20 0xFFFFFFFFFFFFFFFFFFFFFFFFFFFFFFFFFFFFFFFF AND PUSH20 0xFFFFFFFFFFFFFFFFFFFFFFFFFFFFFFFFFFFFFFFF AND DUP2 MSTORE PUSH1 0x20 ADD SWAP1 DUP2 MSTORE PUSH1 0x20 ADD PUSH0 KECCAK256 PUSH0 DUP6 DUP2 MSTORE PUSH1 0x20 ADD SWAP1 DUP2 MSTORE PUSH1 0x20 ADD PUSH0 KECCAK256 SWAP1 POP DUP2 PUSH0 ADD SLOAD TIMESTAMP LT PUSH2 0x592 JUMPI PUSH1 0x40 MLOAD PUSH32 0x8C379A000000000000000000000000000000000000000000000000000000000 DUP2 MSTORE PUSH1 0x4 ADD PUSH2 0x589 SWAP1 PUSH2 0x1C38 JUMP JUMPDEST PUSH1 0x40 MLOAD DUP1 SWAP2 SUB SWAP1 REVERT JUMPDEST PUSH0 PUSH1 0x4 DUP2 GT ISZERO PUSH2 0x5A5 JUMPI PUSH2 0x5A4 PUSH2 0x1C56 JUMP JUMPDEST JUMPDEST PUSH1 0x1B PUSH0 SWAP1 SLOAD SWAP1 PUSH2 0x100 EXP SWAP1 DIV PUSH1 0xFF AND PUSH1 0x4 DUP2 GT ISZERO PUSH2 0x5C6 JUMPI PUSH2 0x5C5 PUSH2 0x1C56 JUMP JUMPDEST JUMPDEST EQ PUSH2 0x606 JUMPI PUSH1 0x40 MLOAD PUSH32 0x8C379A000000000000000000000000000000000000000000000000000000000 DUP2 MSTORE PUSH1 0x4 ADD PUSH2 0x5FD SWAP1 PUSH2 0x1CCD JUMP JUMPDEST PUSH1 0x40 MLOAD DUP1 SWAP2 SUB SWAP1 REVERT JUMPDEST PUSH0 DUP4 GT PUSH2 0x648 JUMPI PUSH1 0x40 MLOAD PUSH32 0x8C379A000000000000000000000000000000000000000000000000000000000 DUP2 MSTORE PUSH1 0x4 ADD PUSH2 0x63F SWAP1 PUSH2 0x1D35 JUMP JUMPDEST PUSH1 0x40 MLOAD DUP1 SWAP2 SUB SWAP1 REVERT JUMPDEST DUP3 DUP3 PUSH1 0x4 ADD PUSH0 DUP3 DUP3 SLOAD PUSH2 0x65B SWAP2 SWAP1 PUSH2 0x1D80 JUMP JUMPDEST SWAP3 POP POP DUP2 SWAP1 SSTORE POP DUP3 DUP2 PUSH0 ADD PUSH0 DUP3 DUP3 SLOAD PUSH2 0x674 SWAP2 SWAP1 PUSH2 0x1DB3 JUMP JUMPDEST SWAP3 POP POP DUP2 SWAP1 SSTORE POP POP POP POP POP JUMP JUMPDEST JUMP JUMPDEST PUSH0 DUP1 PUSH2 0x68D PUSH2 0x13F1 JUMP JUMPDEST SWAP1 POP DUP1 PUSH0 ADD PUSH0 DUP5 DUP2 MSTORE PUSH1 0x20 ADD SWAP1 DUP2 MSTORE PUSH1 0x20 ADD PUSH0 KECCAK256 PUSH1 0x1 ADD SLOAD SWAP2 POP POP SWAP2 SWAP1 POP JUMP JUMPDEST PUSH2 0x6B6 DUP3 PUSH2 0x683 JUMP JUMPDEST PUSH2 0x6BF DUP2 PUSH2 0x1418 JUMP JUMPDEST PUSH2 0x6C9 DUP4 DUP4 PUSH2 0x142C JUMP JUMPDEST POP POP POP POP JUMP JUMPDEST PUSH2 0x6D7 PUSH2 0x1524 JUMP JUMPDEST PUSH20 0xFFFFFFFFFFFFFFFFFFFFFFFFFFFFFFFFFFFFFFFF AND DUP2 PUSH20 0xFFFFFFFFFFFFFFFFFFFFFFFFFFFFFFFFFFFFFFFF AND EQ PUSH2 0x73B JUMPI PUSH1 0x40 MLOAD PUSH32 0x6697B23200000000000000000000000000000000000000000000000000000000 DUP2 MSTORE PUSH1 0x4 ADD PUSH1 0x40 MLOAD DUP1 SWAP2 SUB SWAP1 REVERT JUMPDEST PUSH2 0x745 DUP3 DUP3 PUSH2 0x152B JUMP JUMPDEST POP POP POP JUMP JUMPDEST PUSH1 0x2 PUSH1 0x4 DUP2 GT ISZERO PUSH2 0x75E JUMPI PUSH2 0x75D PUSH2 0x1C56 JUMP JUMPDEST JUMPDEST PUSH1 0x1B PUSH0 SWAP1 SLOAD SWAP1 PUSH2 0x100 EXP SWAP1 DIV PUSH1 0xFF AND PUSH1 0x4 DUP2 GT ISZERO PUSH2 0x77F JUMPI PUSH2 0x77E PUSH2 0x1C56 JUMP JUMPDEST JUMPDEST EQ DUP1 PUSH2 0x7BD JUMPI POP PUSH1 0x3 PUSH1 0x4 DUP2 GT ISZERO PUSH2 0x79A JUMPI PUSH2 0x799 PUSH2 0x1C56 JUMP JUMPDEST JUMPDEST PUSH1 0x1B PUSH0 SWAP1 SLOAD SWAP1 PUSH2 0x100 EXP SWAP1 DIV PUSH1 0xFF AND PUSH1 0x4 DUP2 GT ISZERO PUSH2 0x7BB JUMPI PUSH2 0x7BA PUSH2 0x1C56 JUMP JUMPDEST JUMPDEST EQ JUMPDEST PUSH2 0x7FC JUMPI PUSH1 0x40 MLOAD PUSH32 0x8C379A000000000000000000000000000000000000000000000000000000000 DUP2 MSTORE PUSH1 0x4 ADD PUSH2 0x7F3 SWAP1 PUSH2 0x1E30 JUMP JUMPDEST PUSH1 0x40 MLOAD DUP1 SWAP2 SUB SWAP1 REVERT JUMPDEST PUSH0 DUP2 GT PUSH2 0x83E JUMPI PUSH1 0x40 MLOAD PUSH32 0x8C379A000000000000000000000000000000000000000000000000000000000 DUP2 MSTORE PUSH1 0x4 ADD PUSH2 0x835 SWAP1 PUSH2 0x1E98 JUMP JUMPDEST PUSH1 0x40 MLOAD DUP1 SWAP2 SUB SWAP1 REVERT JUMPDEST PUSH0 PUSH1 0x1D PUSH0 CALLER PUSH20 0xFFFFFFFFFFFFFFFFFFFFFFFFFFFFFFFFFFFFFFFF AND PUSH20 0xFFFFFFFFFFFFFFFFFFFFFFFFFFFFFFFFFFFFFFFF AND DUP2 MSTORE PUSH1 0x20 ADD SWAP1 DUP2 MSTORE PUSH1 0x20 ADD PUSH0 KECCAK256 PUSH0 DUP5 DUP2 MSTORE PUSH1 0x20 ADD SWAP1 DUP2 MSTORE PUSH1 0x20 ADD PUSH0 KECCAK256 SWAP1 POP DUP2 DUP2 PUSH0 ADD SLOAD LT PUSH2 0x8B5 JUMPI DUP2 DUP2 PUSH0 ADD PUSH0 DUP3 DUP3 SLOAD PUSH2 0x8A9 SWAP2 SWAP1 PUSH2 0x1D80 JUMP JUMPDEST SWAP3 POP POP DUP2 SWAP1 SSTORE POP PUSH2 0x8BE JUMP JUMPDEST PUSH0 DUP2 PUSH0 ADD DUP2 SWAP1 SSTORE POP JUMPDEST POP POP POP JUMP JUMPDEST PUSH1 0xD PUSH0 SWAP1 SLOAD SWAP1 PUSH2 0x100 EXP SWAP1 DIV PUSH20 0xFFFFFFFFFFFFFFFFFFFFFFFFFFFFFFFFFFFFFFFF AND DUP2 JUMP JUMPDEST PUSH32 0x589D473BA17C0F47D494622893831497BAD25919B9AFB8E33E9521B8963FCCDE PUSH2 0x912 DUP2 PUSH2 0x1418 JUMP JUMPDEST PUSH0 PUSH20 0xFFFFFFFFFFFFFFFFFFFFFFFFFFFFFFFFFFFFFFFF AND DUP3 PUSH20 0xFFFFFFFFFFFFFFFFFFFFFFFFFFFFFFFFFFFFFFFF AND SUB PUSH2 0x980 JUMPI PUSH1 0x40 MLOAD PUSH32 0x8C379A000000000000000000000000000000000000000000000000000000000 DUP2 MSTORE PUSH1 0x4 ADD PUSH2 0x977 SWAP1 PUSH2 0x1F00 JUMP JUMPDEST PUSH1 0x40 MLOAD DUP1 SWAP2 SUB SWAP1 REVERT JUMPDEST DUP2 PUSH1 0xC PUSH0 PUSH2 0x100 EXP DUP2 SLOAD DUP2 PUSH20 0xFFFFFFFFFFFFFFFFFFFFFFFFFFFFFFFFFFFFFFFF MUL NOT AND SWAP1 DUP4 PUSH20 0xFFFFFFFFFFFFFFFFFFFFFFFFFFFFFFFFFFFFFFFF AND MUL OR SWAP1 SSTORE POP POP POP JUMP JUMPDEST PUSH32 0x589D473BA17C0F47D494622893831497BAD25919B9AFB8E33E9521B8963FCCDE PUSH2 0x9EE DUP2 PUSH2 0x1418 JUMP JUMPDEST DUP3 PUSH1 0xA DUP2 SWAP1 SSTORE POP DUP2 PUSH1 0xB DUP2 SWAP1 SSTORE POP POP POP POP JUMP JUMPDEST PUSH1 0x1A DUP2 DUP2 SLOAD DUP2 LT PUSH2 0xA10 JUMPI PUSH0 DUP1 REVERT JUMPDEST SWAP1 PUSH0 MSTORE PUSH1 0x20 PUSH0 KECCAK256 SWAP1 PUSH1 0xB MUL ADD PUSH0 SWAP2 POP SWAP1 POP DUP1 PUSH0 ADD SLOAD SWAP1 DUP1 PUSH1 0x1 ADD SLOAD SWAP1 DUP1 PUSH1 0x2 ADD SLOAD SWAP1 DUP1 PUSH1 0x3 ADD SLOAD SWAP1 DUP1 PUSH1 0x4 ADD SLOAD SWAP1 DUP1 PUSH1 0x5 ADD SLOAD SWAP1 DUP1 PUSH1 0x6 ADD PUSH0 SWAP1 SLOAD SWAP1 PUSH2 0x100 EXP SWAP1 DIV PUSH20 0xFFFFFFFFFFFFFFFFFFFFFFFFFFFFFFFFFFFFFFFF AND SWAP1 DUP1 PUSH1 0x7 ADD PUSH0 SWAP1 SLOAD SWAP1 PUSH2 0x100 EXP SWAP1 DIV PUSH20 0xFFFFFFFFFFFFFFFFFFFFFFFFFFFFFFFFFFFFFFFF AND SWAP1 DUP1 PUSH1 0x8 ADD PUSH0 SWAP1 SLOAD SWAP1 PUSH2 0x100 EXP SWAP1 DIV PUSH20 0xFFFFFFFFFFFFFFFFFFFFFFFFFFFFFFFFFFFFFFFF AND SWAP1 DUP1 PUSH1 0x9 ADD PUSH0 SWAP1 SLOAD SWAP1 PUSH2 0x100 EXP SWAP1 DIV PUSH20 0xFFFFFFFFFFFFFFFFFFFFFFFFFFFFFFFFFFFFFFFF AND SWAP1 DUP1 PUSH1 0xA ADD SLOAD SWAP1 POP DUP12 JUMP JUMPDEST DUP11 DUP11 GT PUSH2 0xB24 JUMPI PUSH1 0x40 MLOAD PUSH32 0x8C379A000000000000000000000000000000000000000000000000000000000 DUP2 MSTORE PUSH1 0x4 ADD PUSH2 0xB1B SWAP1 PUSH2 0x1F68 JUMP JUMPDEST PUSH1 0x40 MLOAD DUP1 SWAP2 SUB SWAP1 REVERT JUMPDEST PUSH0 PUSH20 0xFFFFFFFFFFFFFFFFFFFFFFFFFFFFFFFFFFFFFFFF AND DUP4 PUSH20 0xFFFFFFFFFFFFFFFFFFFFFFFFFFFFFFFFFFFFFFFF AND EQ DUP1 PUSH2 0xB89 JUMPI POP PUSH0 PUSH20 0xFFFFFFFFFFFFFFFFFFFFFFFFFFFFFFFFFFFFFFFF AND DUP3 PUSH20 0xFFFFFFFFFFFFFFFFFFFFFFFFFFFFFFFFFFFFFFFF AND EQ JUMPDEST PUSH2 0xBC8 JUMPI PUSH1 0x40 MLOAD PUSH32 0x8C379A000000000000000000000000000000000000000000000000000000000 DUP2 MSTORE PUSH1 0x4 ADD PUSH2 0xBBF SWAP1 PUSH2 0x1FD0 JUMP JUMPDEST PUSH1 0x40 MLOAD DUP1 SWAP2 SUB SWAP1 REVERT JUMPDEST PUSH1 0x40 MLOAD DUP1 PUSH2 0x160 ADD PUSH1 0x40 MSTORE DUP1 DUP13 DUP2 MSTORE PUSH1 0x20 ADD DUP12 DUP2 MSTORE PUSH1 0x20 ADD DUP11 DUP2 MSTORE PUSH1 0x20 ADD DUP10 DUP2 MSTORE PUSH1 0x20 ADD DUP9 DUP2 MSTORE PUSH1 0x20 ADD DUP8 DUP2 MSTORE PUSH1 0x20 ADD DUP7 PUSH20 0xFFFFFFFFFFFFFFFFFFFFFFFFFFFFFFFFFFFFFFFF AND DUP2 MSTORE PUSH1 0x20 ADD DUP6 PUSH20 0xFFFFFFFFFFFFFFFFFFFFFFFFFFFFFFFFFFFFFFFF AND DUP2 MSTORE PUSH1 0x20 ADD DUP5 PUSH20 0xFFFFFFFFFFFFFFFFFFFFFFFFFFFFFFFFFFFFFFFF AND DUP2 MSTORE PUSH1 0x20 ADD DUP4 PUSH20 0xFFFFFFFFFFFFFFFFFFFFFFFFFFFFFFFFFFFFFFFF AND DUP2 MSTORE PUSH1 0x20 ADD DUP3 DUP2 MSTORE POP PUSH1 0xF PUSH0 DUP3 ADD MLOAD DUP2 PUSH0 ADD SSTORE PUSH1 0x20 DUP3 ADD MLOAD DUP2 PUSH1 0x1 ADD SSTORE PUSH1 0x40 DUP3 ADD MLOAD DUP2 PUSH1 0x2 ADD SSTORE PUSH1 0x60 DUP3 ADD MLOAD DUP2 PUSH1 0x3 ADD SSTORE PUSH1 0x80 DUP3 ADD MLOAD DUP2 PUSH1 0x4 ADD SSTORE PUSH1 0xA0 DUP3 ADD MLOAD DUP2 PUSH1 0x5 ADD SSTORE PUSH1 0xC0 DUP3 ADD MLOAD DUP2 PUSH1 0x6 ADD PUSH0 PUSH2 0x100 EXP DUP2 SLOAD DUP2 PUSH20 0xFFFFFFFFFFFFFFFFFFFFFFFFFFFFFFFFFFFFFFFF MUL NOT AND SWAP1 DUP4 PUSH20 0xFFFFFFFFFFFFFFFFFFFFFFFFFFFFFFFFFFFFFFFF AND MUL OR SWAP1 SSTORE POP PUSH1 0xE0 DUP3 ADD MLOAD DUP2 PUSH1 0x7 ADD PUSH0 PUSH2 0x100 EXP DUP2 SLOAD DUP2 PUSH20 0xFFFFFFFFFFFFFFFFFFFFFFFFFFFFFFFFFFFFFFFF MUL NOT AND SWAP1 DUP4 PUSH20 0xFFFFFFFFFFFFFFFFFFFFFFFFFFFFFFFFFFFFFFFF AND MUL OR SWAP1 SSTORE POP PUSH2 0x100 DUP3 ADD MLOAD DUP2 PUSH1 0x8 ADD PUSH0 PUSH2 0x100 EXP DUP2 SLOAD DUP2 PUSH20 0xFFFFFFFFFFFFFFFFFFFFFFFFFFFFFFFFFFFFFFFF MUL NOT AND SWAP1 DUP4 PUSH20 0xFFFFFFFFFFFFFFFFFFFFFFFFFFFFFFFFFFFFFFFF AND MUL OR SWAP1 SSTORE POP PUSH2 0x120 DUP3 ADD MLOAD DUP2 PUSH1 0x9 ADD PUSH0 PUSH2 0x100 EXP DUP2 SLOAD DUP2 PUSH20 0xFFFFFFFFFFFFFFFFFFFFFFFFFFFFFFFFFFFFFFFF MUL NOT AND SWAP1 DUP4 PUSH20 0xFFFFFFFFFFFFFFFFFFFFFFFFFFFFFFFFFFFFFFFF AND MUL OR SWAP1 SSTORE POP PUSH2 0x140 DUP3 ADD MLOAD DUP2 PUSH1 0xA ADD SSTORE SWAP1 POP POP PUSH1 0x1A PUSH1 0xF SWAP1 DUP1 PUSH1 0x1 DUP2 SLOAD ADD DUP1 DUP3 SSTORE DUP1 SWAP2 POP POP PUSH1 0x1 SWAP1 SUB SWAP1 PUSH0 MSTORE PUSH1 0x20 PUSH0 KECCAK256 SWAP1 PUSH1 0xB MUL ADD PUSH0 SWAP1 SWAP2 SWAP1 SWAP2 SWAP1 SWAP2 POP PUSH0 DUP3 ADD SLOAD DUP2 PUSH0 ADD SSTORE PUSH1 0x1 DUP3 ADD SLOAD DUP2 PUSH1 0x1 ADD SSTORE PUSH1 0x2 DUP3 ADD SLOAD DUP2 PUSH1 0x2 ADD SSTORE PUSH1 0x3 DUP3 ADD SLOAD DUP2 PUSH1 0x3 ADD SSTORE PUSH1 0x4 DUP3 ADD SLOAD DUP2 PUSH1 0x4 ADD SSTORE PUSH1 0x5 DUP3 ADD SLOAD DUP2 PUSH1 0x5 ADD SSTORE PUSH1 0x6 DUP3 ADD PUSH0 SWAP1 SLOAD SWAP1 PUSH2 0x100 EXP SWAP1 DIV PUSH20 0xFFFFFFFFFFFFFFFFFFFFFFFFFFFFFFFFFFFFFFFF AND DUP2 PUSH1 0x6 ADD PUSH0 PUSH2 0x100 EXP DUP2 SLOAD DUP2 PUSH20 0xFFFFFFFFFFFFFFFFFFFFFFFFFFFFFFFFFFFFFFFF MUL NOT AND SWAP1 DUP4 PUSH20 0xFFFFFFFFFFFFFFFFFFFFFFFFFFFFFFFFFFFFFFFF AND MUL OR SWAP1 SSTORE POP PUSH1 0x7 DUP3 ADD PUSH0 SWAP1 SLOAD SWAP1 PUSH2 0x100 EXP SWAP1 DIV PUSH20 0xFFFFFFFFFFFFFFFFFFFFFFFFFFFFFFFFFFFFFFFF AND DUP2 PUSH1 0x7 ADD PUSH0 PUSH2 0x100 EXP DUP2 SLOAD DUP2 PUSH20 0xFFFFFFFFFFFFFFFFFFFFFFFFFFFFFFFFFFFFFFFF MUL NOT AND SWAP1 DUP4 PUSH20 0xFFFFFFFFFFFFFFFFFFFFFFFFFFFFFFFFFFFFFFFF AND MUL OR SWAP1 SSTORE POP PUSH1 0x8 DUP3 ADD PUSH0 SWAP1 SLOAD SWAP1 PUSH2 0x100 EXP SWAP1 DIV PUSH20 0xFFFFFFFFFFFFFFFFFFFFFFFFFFFFFFFFFFFFFFFF AND DUP2 PUSH1 0x8 ADD PUSH0 PUSH2 0x100 EXP DUP2 SLOAD DUP2 PUSH20 0xFFFFFFFFFFFFFFFFFFFFFFFFFFFFFFFFFFFFFFFF MUL NOT AND SWAP1 DUP4 PUSH20 0xFFFFFFFFFFFFFFFFFFFFFFFFFFFFFFFFFFFFFFFF AND MUL OR SWAP1 SSTORE POP PUSH1 0x9 DUP3 ADD PUSH0 SWAP1 SLOAD SWAP1 PUSH2 0x100 EXP SWAP1 DIV PUSH20 0xFFFFFFFFFFFFFFFFFFFFFFFFFFFFFFFFFFFFFFFF AND DUP2 PUSH1 0x9 ADD PUSH0 PUSH2 0x100 EXP DUP2 SLOAD DUP2 PUSH20 0xFFFFFFFFFFFFFFFFFFFFFFFFFFFFFFFFFFFFFFFF MUL NOT AND SWAP1 DUP4 PUSH20 0xFFFFFFFFFFFFFFFFFFFFFFFFFFFFFFFFFFFFFFFF AND MUL OR SWAP1 SSTORE POP PUSH1 0xA DUP3 ADD SLOAD DUP2 PUSH1 0xA ADD SSTORE POP POP POP POP POP POP POP POP POP POP POP POP POP JUMP JUMPDEST PUSH32 0x589D473BA17C0F47D494622893831497BAD25919B9AFB8E33E9521B8963FCCDE DUP2 JUMP JUMPDEST PUSH32 0x589D473BA17C0F47D494622893831497BAD25919B9AFB8E33E9521B8963FCCDE PUSH2 0x102F DUP2 PUSH2 0x1418 JUMP JUMPDEST PUSH0 PUSH20 0xFFFFFFFFFFFFFFFFFFFFFFFFFFFFFFFFFFFFFFFF AND DUP3 PUSH20 0xFFFFFFFFFFFFFFFFFFFFFFFFFFFFFFFFFFFFFFFF AND SUB PUSH2 0x109D JUMPI PUSH1 0x40 MLOAD PUSH32 0x8C379A000000000000000000000000000000000000000000000000000000000 DUP2 MSTORE PUSH1 0x4 ADD PUSH2 0x1094 SWAP1 PUSH2 0x2038 JUMP JUMPDEST PUSH1 0x40 MLOAD DUP1 SWAP2 SUB SWAP1 REVERT JUMPDEST DUP2 PUSH1 0xD PUSH0 PUSH2 0x100 EXP DUP2 SLOAD DUP2 PUSH20 0xFFFFFFFFFFFFFFFFFFFFFFFFFFFFFFFFFFFFFFFF MUL NOT AND SWAP1 DUP4 PUSH20 0xFFFFFFFFFFFFFFFFFFFFFFFFFFFFFFFFFFFFFFFF AND MUL OR SWAP1 SSTORE POP POP POP JUMP JUMPDEST DUP1 PUSH1 0xE DUP2 SWAP1 SSTORE POP POP JUMP JUMPDEST PUSH0 PUSH1 0x1A DUP4 DUP2 SLOAD DUP2 LT PUSH2 0x1100 JUMPI PUSH2 0x10FF PUSH2 0x1BB1 JUMP JUMPDEST JUMPDEST SWAP1 PUSH0 MSTORE PUSH1 0x20 PUSH0 KECCAK256 SWAP1 PUSH1 0xB MUL ADD SWAP1 POP PUSH0 PUSH1 0x1D PUSH0 CALLER PUSH20 0xFFFFFFFFFFFFFFFFFFFFFFFFFFFFFFFFFFFFFFFF AND PUSH20 0xFFFFFFFFFFFFFFFFFFFFFFFFFFFFFFFFFFFFFFFF AND DUP2 MSTORE PUSH1 0x20 ADD SWAP1 DUP2 MSTORE PUSH1 0x20 ADD PUSH0 KECCAK256 PUSH0 DUP6 DUP2 MSTORE PUSH1 0x20 ADD SWAP1 DUP2 MSTORE PUSH1 0x20 ADD PUSH0 KECCAK256 SWAP1 POP DUP2 PUSH0 ADD SLOAD TIMESTAMP LT PUSH2 0x11A2 JUMPI PUSH1 0x40 MLOAD PUSH32 0x8C379A000000000000000000000000000000000000000000000000000000000 DUP2 MSTORE PUSH1 0x4 ADD PUSH2 0x1199 SWAP1 PUSH2 0x1C38 JUMP JUMPDEST PUSH1 0x40 MLOAD DUP1 SWAP2 SUB SWAP1 REVERT JUMPDEST PUSH0 PUSH1 0x4 DUP2 GT ISZERO PUSH2 0x11B5 JUMPI PUSH2 0x11B4 PUSH2 0x1C56 JUMP JUMPDEST JUMPDEST PUSH1 0x1B PUSH0 SWAP1 SLOAD SWAP1 PUSH2 0x100 EXP SWAP1 DIV PUSH1 0xFF AND PUSH1 0x4 DUP2 GT ISZERO PUSH2 0x11D6 JUMPI PUSH2 0x11D5 PUSH2 0x1C56 JUMP JUMPDEST JUMPDEST EQ PUSH2 0x1216 JUMPI PUSH1 0x40 MLOAD PUSH32 0x8C379A000000000000000000000000000000000000000000000000000000000 DUP2 MSTORE PUSH1 0x4 ADD PUSH2 0x120D SWAP1 PUSH2 0x1CCD JUMP JUMPDEST PUSH1 0x40 MLOAD DUP1 SWAP2 SUB SWAP1 REVERT JUMPDEST DUP2 PUSH1 0x4 ADD SLOAD DUP3 PUSH1 0x3 ADD SLOAD PUSH2 0x122A SWAP2 SWAP1 PUSH2 0x1D80 JUMP JUMPDEST DUP4 GT ISZERO PUSH2 0x126C JUMPI PUSH1 0x40 MLOAD PUSH32 0x8C379A000000000000000000000000000000000000000000000000000000000 DUP2 MSTORE PUSH1 0x4 ADD PUSH2 0x1263 SWAP1 PUSH2 0x20A0 JUMP JUMPDEST PUSH1 0x40 MLOAD DUP1 SWAP2 SUB SWAP1 REVERT JUMPDEST PUSH1 0xE SLOAD DUP4 GT PUSH2 0x12B0 JUMPI PUSH1 0x40 MLOAD PUSH32 0x8C379A000000000000000000000000000000000000000000000000000000000 DUP2 MSTORE PUSH1 0x4 ADD PUSH2 0x12A7 SWAP1 PUSH2 0x212E JUMP JUMPDEST PUSH1 0x40 MLOAD DUP1 SWAP2 SUB SWAP1 REVERT JUMPDEST DUP3 DUP3 PUSH1 0x4 ADD PUSH0 DUP3 DUP3 SLOAD PUSH2 0x12C3 SWAP2 SWAP1 PUSH2 0x1D80 JUMP JUMPDEST SWAP3 POP POP DUP2 SWAP1 SSTORE POP DUP3 DUP2 PUSH0 ADD PUSH0 DUP3 DUP3 SLOAD PUSH2 0x12DC SWAP2 SWAP1 PUSH2 0x1DB3 JUMP JUMPDEST SWAP3 POP POP DUP2 SWAP1 SSTORE POP POP POP POP POP JUMP JUMPDEST PUSH0 DUP1 PUSH2 0x12F3 PUSH2 0x13F1 JUMP JUMPDEST SWAP1 POP DUP1 PUSH0 ADD PUSH0 DUP6 DUP2 MSTORE PUSH1 0x20 ADD SWAP1 DUP2 MSTORE PUSH1 0x20 ADD PUSH0 KECCAK256 PUSH0 ADD PUSH0 DUP5 PUSH20 0xFFFFFFFFFFFFFFFFFFFFFFFFFFFFFFFFFFFFFFFF AND PUSH20 0xFFFFFFFFFFFFFFFFFFFFFFFFFFFFFFFFFFFFFFFF AND DUP2 MSTORE PUSH1 0x20 ADD SWAP1 DUP2 MSTORE PUSH1 0x20 ADD PUSH0 KECCAK256 PUSH0 SWAP1 SLOAD SWAP1 PUSH2 0x100 EXP SWAP1 DIV PUSH1 0xFF AND SWAP2 POP POP SWAP3 SWAP2 POP POP JUMP JUMPDEST JUMP JUMPDEST PUSH0 DUP1 SHL DUP2 JUMP JUMPDEST PUSH2 0x136B DUP3 PUSH2 0x683 JUMP JUMPDEST PUSH2 0x1374 DUP2 PUSH2 0x1418 JUMP JUMPDEST PUSH2 0x137E DUP4 DUP4 PUSH2 0x152B JUMP JUMPDEST POP POP POP POP JUMP JUMPDEST JUMP JUMPDEST JUMP JUMPDEST PUSH0 PUSH32 0x1FFC9A700000000000000000000000000000000000000000000000000000000 PUSH28 0xFFFFFFFFFFFFFFFFFFFFFFFFFFFFFFFFFFFFFFFFFFFFFFFFFFFFFFFF NOT AND DUP3 PUSH28 0xFFFFFFFFFFFFFFFFFFFFFFFFFFFFFFFFFFFFFFFFFFFFFFFFFFFFFFFF NOT AND EQ SWAP1 POP SWAP2 SWAP1 POP JUMP JUMPDEST PUSH0 PUSH32 0x2DD7BC7DEC4DCEEDDA775E58DD541E08A116C6C53815C0BD028192F7B626800 SWAP1 POP SWAP1 JUMP JUMPDEST PUSH2 0x1429 DUP2 PUSH2 0x1424 PUSH2 0x1524 JUMP JUMPDEST PUSH2 0x1623 JUMP JUMPDEST POP JUMP JUMPDEST PUSH0 DUP1 PUSH2 0x1436 PUSH2 0x13F1 JUMP JUMPDEST SWAP1 POP PUSH2 0x1442 DUP5 DUP5 PUSH2 0x12E9 JUMP JUMPDEST PUSH2 0x1519 JUMPI PUSH1 0x1 DUP2 PUSH0 ADD PUSH0 DUP7 DUP2 MSTORE PUSH1 0x20 ADD SWAP1 DUP2 MSTORE PUSH1 0x20 ADD PUSH0 KECCAK256 PUSH0 ADD PUSH0 DUP6 PUSH20 0xFFFFFFFFFFFFFFFFFFFFFFFFFFFFFFFFFFFFFFFF AND PUSH20 0xFFFFFFFFFFFFFFFFFFFFFFFFFFFFFFFFFFFFFFFF AND DUP2 MSTORE PUSH1 0x20 ADD SWAP1 DUP2 MSTORE PUSH1 0x20 ADD PUSH0 KECCAK256 PUSH0 PUSH2 0x100 EXP DUP2 SLOAD DUP2 PUSH1 0xFF MUL NOT AND SWAP1 DUP4 ISZERO ISZERO MUL OR SWAP1 SSTORE POP PUSH2 0x14B5 PUSH2 0x1524 JUMP JUMPDEST PUSH20 0xFFFFFFFFFFFFFFFFFFFFFFFFFFFFFFFFFFFFFFFF AND DUP4 PUSH20 0xFFFFFFFFFFFFFFFFFFFFFFFFFFFFFFFFFFFFFFFF AND DUP6 PUSH32 0x2F8788117E7EFF1D82E926EC794901D17C78024A50270940304540A733656F0D PUSH1 0x40 MLOAD PUSH1 0x40 MLOAD DUP1 SWAP2 SUB SWAP1 LOG4 PUSH1 0x1 SWAP2 POP POP PUSH2 0x151E JUMP JUMPDEST PUSH0 SWAP2 POP POP JUMPDEST SWAP3 SWAP2 POP POP JUMP JUMPDEST PUSH0 CALLER SWAP1 POP SWAP1 JUMP JUMPDEST PUSH0 DUP1 PUSH2 0x1535 PUSH2 0x13F1 JUMP JUMPDEST SWAP1 POP PUSH2 0x1541 DUP5 DUP5 PUSH2 0x12E9 JUMP JUMPDEST ISZERO PUSH2 0x1618 JUMPI PUSH0 DUP2 PUSH0 ADD PUSH0 DUP7 DUP2 MSTORE PUSH1 0x20 ADD SWAP1 DUP2 MSTORE PUSH1 0x20 ADD PUSH0 KECCAK256 PUSH0 ADD PUSH0 DUP6 PUSH20 0xFFFFFFFFFFFFFFFFFFFFFFFFFFFFFFFFFFFFFFFF AND PUSH20 0xFFFFFFFFFFFFFFFFFFFFFFFFFFFFFFFFFFFFFFFF AND DUP2 MSTORE PUSH1 0x20 ADD SWAP1 DUP2 MSTORE PUSH1 0x20 ADD PUSH0 KECCAK256 PUSH0 PUSH2 0x100 EXP DUP2 SLOAD DUP2 PUSH1 0xFF MUL NOT AND SWAP1 DUP4 ISZERO ISZERO MUL OR SWAP1 SSTORE POP PUSH2 0x15B4 PUSH2 0x1524 JUMP JUMPDEST PUSH20 0xFFFFFFFFFFFFFFFFFFFFFFFFFFFFFFFFFFFFFFFF AND DUP4 PUSH20 0xFFFFFFFFFFFFFFFFFFFFFFFFFFFFFFFFFFFFFFFF AND DUP6 PUSH32 0xF6391F5C32D9C69D2A47EA670B442974B53935D1EDC7FD64EB21E047A839171B PUSH1 0x40 MLOAD PUSH1 0x40 MLOAD DUP1 SWAP2 SUB SWAP1 LOG4 PUSH1 0x1 SWAP2 POP POP PUSH2 0x161D JUMP JUMPDEST PUSH0 SWAP2 POP POP JUMPDEST SWAP3 SWAP2 POP POP JUMP JUMPDEST PUSH2 0x162D DUP3 DUP3 PUSH2 0x12E9 JUMP JUMPDEST PUSH2 0x1670 JUMPI DUP1 DUP3 PUSH1 0x40 MLOAD PUSH32 0xE2517D3F00000000000000000000000000000000000000000000000000000000 DUP2 MSTORE PUSH1 0x4 ADD PUSH2 0x1667 SWAP3 SWAP2 SWAP1 PUSH2 0x214C JUMP JUMPDEST PUSH1 0x40 MLOAD DUP1 SWAP2 SUB SWAP1 REVERT JUMPDEST POP POP JUMP JUMPDEST PUSH0 DUP1 REVERT JUMPDEST PUSH0 DUP2 SWAP1 POP SWAP2 SWAP1 POP JUMP JUMPDEST PUSH2 0x168A DUP2 PUSH2 0x1678 JUMP JUMPDEST DUP2 EQ PUSH2 0x1694 JUMPI PUSH0 DUP1 REVERT JUMPDEST POP JUMP JUMPDEST PUSH0 DUP2 CALLDATALOAD SWAP1 POP PUSH2 0x16A5 DUP2 PUSH2 0x1681 JUMP JUMPDEST SWAP3 SWAP2 POP POP JUMP JUMPDEST PUSH0 PUSH1 0x20 DUP3 DUP5 SUB SLT ISZERO PUSH2 0x16C0 JUMPI PUSH2 0x16BF PUSH2 0x1674 JUMP JUMPDEST JUMPDEST PUSH0 PUSH2 0x16CD DUP5 DUP3 DUP6 ADD PUSH2 0x1697 JUMP JUMPDEST SWAP2 POP POP SWAP3 SWAP2 POP POP JUMP JUMPDEST PUSH2 0x16DF DUP2 PUSH2 0x1678 JUMP JUMPDEST DUP3 MSTORE POP POP JUMP JUMPDEST PUSH0 PUSH1 0xC0 DUP3 ADD SWAP1 POP PUSH2 0x16F8 PUSH0 DUP4 ADD DUP10 PUSH2 0x16D6 JUMP JUMPDEST PUSH2 0x1705 PUSH1 0x20 DUP4 ADD DUP9 PUSH2 0x16D6 JUMP JUMPDEST PUSH2 0x1712 PUSH1 0x40 DUP4 ADD DUP8 PUSH2 0x16D6 JUMP JUMPDEST PUSH2 0x171F PUSH1 0x60 DUP4 ADD DUP7 PUSH2 0x16D6 JUMP JUMPDEST PUSH2 0x172C PUSH1 0x80 DUP4 ADD DUP6 PUSH2 0x16D6 JUMP JUMPDEST PUSH2 0x1739 PUSH1 0xA0 DUP4 ADD DUP5 PUSH2 0x16D6 JUMP JUMPDEST SWAP8 SWAP7 POP POP POP POP POP POP POP JUMP JUMPDEST PUSH0 PUSH32 0xFFFFFFFF00000000000000000000000000000000000000000000000000000000 DUP3 AND SWAP1 POP SWAP2 SWAP1 POP JUMP JUMPDEST PUSH2 0x1778 DUP2 PUSH2 0x1744 JUMP JUMPDEST DUP2 EQ PUSH2 0x1782 JUMPI PUSH0 DUP1 REVERT JUMPDEST POP JUMP JUMPDEST PUSH0 DUP2 CALLDATALOAD SWAP1 POP PUSH2 0x1793 DUP2 PUSH2 0x176F JUMP JUMPDEST SWAP3 SWAP2 POP POP JUMP JUMPDEST PUSH0 PUSH1 0x20 DUP3 DUP5 SUB SLT ISZERO PUSH2 0x17AE JUMPI PUSH2 0x17AD PUSH2 0x1674 JUMP JUMPDEST JUMPDEST PUSH0 PUSH2 0x17BB DUP5 DUP3 DUP6 ADD PUSH2 0x1785 JUMP JUMPDEST SWAP2 POP POP SWAP3 SWAP2 POP POP JUMP JUMPDEST PUSH0 DUP2 ISZERO ISZERO SWAP1 POP SWAP2 SWAP1 POP JUMP JUMPDEST PUSH2 0x17D8 DUP2 PUSH2 0x17C4 JUMP JUMPDEST DUP3 MSTORE POP POP JUMP JUMPDEST PUSH0 PUSH1 0x20 DUP3 ADD SWAP1 POP PUSH2 0x17F1 PUSH0 DUP4 ADD DUP5 PUSH2 0x17CF JUMP JUMPDEST SWAP3 SWAP2 POP POP JUMP JUMPDEST PUSH0 DUP1 PUSH1 0x40 DUP4 DUP6 SUB SLT ISZERO PUSH2 0x180D JUMPI PUSH2 0x180C PUSH2 0x1674 JUMP JUMPDEST JUMPDEST PUSH0 PUSH2 0x181A DUP6 DUP3 DUP7 ADD PUSH2 0x1697 JUMP JUMPDEST SWAP3 POP POP PUSH1 0x20 PUSH2 0x182B DUP6 DUP3 DUP7 ADD PUSH2 0x1697 JUMP JUMPDEST SWAP2 POP POP SWAP3 POP SWAP3 SWAP1 POP JUMP JUMPDEST PUSH0 DUP2 SWAP1 POP SWAP2 SWAP1 POP JUMP JUMPDEST PUSH2 0x1847 DUP2 PUSH2 0x1835 JUMP JUMPDEST DUP2 EQ PUSH2 0x1851 JUMPI PUSH0 DUP1 REVERT JUMPDEST POP JUMP JUMPDEST PUSH0 DUP2 CALLDATALOAD SWAP1 POP PUSH2 0x1862 DUP2 PUSH2 0x183E JUMP JUMPDEST SWAP3 SWAP2 POP POP JUMP JUMPDEST PUSH0 PUSH1 0x20 DUP3 DUP5 SUB SLT ISZERO PUSH2 0x187D JUMPI PUSH2 0x187C PUSH2 0x1674 JUMP JUMPDEST JUMPDEST PUSH0 PUSH2 0x188A DUP5 DUP3 DUP6 ADD PUSH2 0x1854 JUMP JUMPDEST SWAP2 POP POP SWAP3 SWAP2 POP POP JUMP JUMPDEST PUSH2 0x189C DUP2 PUSH2 0x1835 JUMP JUMPDEST DUP3 MSTORE POP POP JUMP JUMPDEST PUSH0 PUSH1 0x20 DUP3 ADD SWAP1 POP PUSH2 0x18B5 PUSH0 DUP4 ADD DUP5 PUSH2 0x1893 JUMP JUMPDEST SWAP3 SWAP2 POP POP JUMP JUMPDEST PUSH0 PUSH20 0xFFFFFFFFFFFFFFFFFFFFFFFFFFFFFFFFFFFFFFFF DUP3 AND SWAP1 POP SWAP2 SWAP1 POP JUMP JUMPDEST PUSH0 PUSH2 0x18E4 DUP3 PUSH2 0x18BB JUMP JUMPDEST SWAP1 POP SWAP2 SWAP1 POP JUMP JUMPDEST PUSH2 0x18F4 DUP2 PUSH2 0x18DA JUMP JUMPDEST DUP2 EQ PUSH2 0x18FE JUMPI PUSH0 DUP1 REVERT JUMPDEST POP JUMP JUMPDEST PUSH0 DUP2 CALLDATALOAD SWAP1 POP PUSH2 0x190F DUP2 PUSH2 0x18EB JUMP JUMPDEST SWAP3 SWAP2 POP POP JUMP JUMPDEST PUSH0 DUP1 PUSH1 0x40 DUP4 DUP6 SUB SLT ISZERO PUSH2 0x192B JUMPI PUSH2 0x192A PUSH2 0x1674 JUMP JUMPDEST JUMPDEST PUSH0 PUSH2 0x1938 DUP6 DUP3 DUP7 ADD PUSH2 0x1854 JUMP JUMPDEST SWAP3 POP POP PUSH1 0x20 PUSH2 0x1949 DUP6 DUP3 DUP7 ADD PUSH2 0x1901 JUMP JUMPDEST SWAP2 POP POP SWAP3 POP SWAP3 SWAP1 POP JUMP JUMPDEST PUSH0 PUSH2 0x195D DUP3 PUSH2 0x18BB JUMP JUMPDEST SWAP1 POP SWAP2 SWAP1 POP JUMP JUMPDEST PUSH2 0x196D DUP2 PUSH2 0x1953 JUMP JUMPDEST DUP3 MSTORE POP POP JUMP JUMPDEST PUSH0 PUSH1 0x20 DUP3 ADD SWAP1 POP PUSH2 0x1986 PUSH0 DUP4 ADD DUP5 PUSH2 0x1964 JUMP JUMPDEST SWAP3 SWAP2 POP POP JUMP JUMPDEST PUSH0 PUSH1 0x20 DUP3 DUP5 SUB SLT ISZERO PUSH2 0x19A1 JUMPI PUSH2 0x19A0 PUSH2 0x1674 JUMP JUMPDEST JUMPDEST PUSH0 PUSH2 0x19AE DUP5 DUP3 DUP6 ADD PUSH2 0x1901 JUMP JUMPDEST SWAP2 POP POP SWAP3 SWAP2 POP POP JUMP JUMPDEST PUSH2 0x19C0 DUP2 PUSH2 0x18DA JUMP JUMPDEST DUP3 MSTORE POP POP JUMP JUMPDEST PUSH0 PUSH2 0x160 DUP3 ADD SWAP1 POP PUSH2 0x19DA PUSH0 DUP4 ADD DUP15 PUSH2 0x16D6 JUMP JUMPDEST PUSH2 0x19E7 PUSH1 0x20 DUP4 ADD DUP14 PUSH2 0x16D6 JUMP JUMPDEST PUSH2 0x19F4 PUSH1 0x40 DUP4 ADD DUP13 PUSH2 0x16D6 JUMP JUMPDEST PUSH2 0x1A01 PUSH1 0x60 DUP4 ADD DUP12 PUSH2 0x16D6 JUMP JUMPDEST PUSH2 0x1A0E PUSH1 0x80 DUP4 ADD DUP11 PUSH2 0x16D6 JUMP JUMPDEST PUSH2 0x1A1B PUSH1 0xA0 DUP4 ADD DUP10 PUSH2 0x16D6 JUMP JUMPDEST PUSH2 0x1A28 PUSH1 0xC0 DUP4 ADD DUP9 PUSH2 0x19B7 JUMP JUMPDEST PUSH2 0x1A35 PUSH1 0xE0 DUP4 ADD DUP8 PUSH2 0x19B7 JUMP JUMPDEST PUSH2 0x1A43 PUSH2 0x100 DUP4 ADD DUP7 PUSH2 0x19B7 JUMP JUMPDEST PUSH2 0x1A51 PUSH2 0x120 DUP4 ADD DUP6 PUSH2 0x19B7 JUMP JUMPDEST PUSH2 0x1A5F PUSH2 0x140 DUP4 ADD DUP5 PUSH2 0x16D6 JUMP JUMPDEST SWAP13 SWAP12 POP POP POP POP POP POP POP POP POP POP POP POP JUMP JUMPDEST PUSH0 DUP1 PUSH0 DUP1 PUSH0 DUP1 PUSH0 DUP1 PUSH0 DUP1 PUSH0 PUSH2 0x160 DUP13 DUP15 SUB SLT ISZERO PUSH2 0x1A8F JUMPI PUSH2 0x1A8E PUSH2 0x1674 JUMP JUMPDEST JUMPDEST PUSH0 PUSH2 0x1A9C DUP15 DUP3 DUP16 ADD PUSH2 0x1697 JUMP JUMPDEST SWAP12 POP POP PUSH1 0x20 PUSH2 0x1AAD DUP15 DUP3 DUP16 ADD PUSH2 0x1697 JUMP JUMPDEST SWAP11 POP POP PUSH1 0x40 PUSH2 0x1ABE DUP15 DUP3 DUP16 ADD PUSH2 0x1697 JUMP JUMPDEST SWAP10 POP POP PUSH1 0x60 PUSH2 0x1ACF DUP15 DUP3 DUP16 ADD PUSH2 0x1697 JUMP JUMPDEST SWAP9 POP POP PUSH1 0x80 PUSH2 0x1AE0 DUP15 DUP3 DUP16 ADD PUSH2 0x1697 JUMP JUMPDEST SWAP8 POP POP PUSH1 0xA0 PUSH2 0x1AF1 DUP15 DUP3 DUP16 ADD PUSH2 0x1697 JUMP JUMPDEST SWAP7 POP POP PUSH1 0xC0 PUSH2 0x1B02 DUP15 DUP3 DUP16 ADD PUSH2 0x1901 JUMP JUMPDEST SWAP6 POP POP PUSH1 0xE0 PUSH2 0x1B13 DUP15 DUP3 DUP16 ADD PUSH2 0x1901 JUMP JUMPDEST SWAP5 POP POP PUSH2 0x100 PUSH2 0x1B25 DUP15 DUP3 DUP16 ADD PUSH2 0x1901 JUMP JUMPDEST SWAP4 POP POP PUSH2 0x120 PUSH2 0x1B37 DUP15 DUP3 DUP16 ADD PUSH2 0x1901 JUMP JUMPDEST SWAP3 POP POP PUSH2 0x140 PUSH2 0x1B49 DUP15 DUP3 DUP16 ADD PUSH2 0x1697 JUMP JUMPDEST SWAP2 POP POP SWAP3 SWAP6 SWAP9 SWAP12 POP SWAP3 SWAP6 SWAP9 SWAP12 SWAP1 SWAP4 SWAP7 SWAP10 POP JUMP JUMPDEST PUSH2 0x1B65 DUP2 PUSH2 0x1953 JUMP JUMPDEST DUP2 EQ PUSH2 0x1B6F JUMPI PUSH0 DUP1 REVERT JUMPDEST POP JUMP JUMPDEST PUSH0 DUP2 CALLDATALOAD SWAP1 POP PUSH2 0x1B80 DUP2 PUSH2 0x1B5C JUMP JUMPDEST SWAP3 SWAP2 POP POP JUMP JUMPDEST PUSH0 PUSH1 0x20 DUP3 DUP5 SUB SLT ISZERO PUSH2 0x1B9B JUMPI PUSH2 0x1B9A PUSH2 0x1674 JUMP JUMPDEST JUMPDEST PUSH0 PUSH2 0x1BA8 DUP5 DUP3 DUP6 ADD PUSH2 0x1B72 JUMP JUMPDEST SWAP2 POP POP SWAP3 SWAP2 POP POP JUMP JUMPDEST PUSH32 0x4E487B7100000000000000000000000000000000000000000000000000000000 PUSH0 MSTORE PUSH1 0x32 PUSH1 0x4 MSTORE PUSH1 0x24 PUSH0 REVERT JUMPDEST PUSH0 DUP3 DUP3 MSTORE PUSH1 0x20 DUP3 ADD SWAP1 POP SWAP3 SWAP2 POP POP JUMP JUMPDEST PUSH32 0x74696D65206C61746572207468616E20736574746C652074696D650000000000 PUSH0 DUP3 ADD MSTORE POP JUMP JUMPDEST PUSH0 PUSH2 0x1C22 PUSH1 0x1B DUP4 PUSH2 0x1BDE JUMP JUMPDEST SWAP2 POP PUSH2 0x1C2D DUP3 PUSH2 0x1BEE JUMP JUMPDEST PUSH1 0x20 DUP3 ADD SWAP1 POP SWAP2 SWAP1 POP JUMP JUMPDEST PUSH0 PUSH1 0x20 DUP3 ADD SWAP1 POP DUP2 DUP2 SUB PUSH0 DUP4 ADD MSTORE PUSH2 0x1C4F DUP2 PUSH2 0x1C16 JUMP JUMPDEST SWAP1 POP SWAP2 SWAP1 POP JUMP JUMPDEST PUSH32 0x4E487B7100000000000000000000000000000000000000000000000000000000 PUSH0 MSTORE PUSH1 0x21 PUSH1 0x4 MSTORE PUSH1 0x24 PUSH0 REVERT JUMPDEST PUSH32 0x7374617465206E6F74206D617463680000000000000000000000000000000000 PUSH0 DUP3 ADD MSTORE POP JUMP JUMPDEST PUSH0 PUSH2 0x1CB7 PUSH1 0xF DUP4 PUSH2 0x1BDE JUMP JUMPDEST SWAP2 POP PUSH2 0x1CC2 DUP3 PUSH2 0x1C83 JUMP JUMPDEST PUSH1 0x20 DUP3 ADD SWAP1 POP SWAP2 SWAP1 POP JUMP JUMPDEST PUSH0 PUSH1 0x20 DUP3 ADD SWAP1 POP DUP2 DUP2 SUB PUSH0 DUP4 ADD MSTORE PUSH2 0x1CE4 DUP2 PUSH2 0x1CAB JUMP JUMPDEST SWAP1 POP SWAP2 SWAP1 POP JUMP JUMPDEST PUSH32 0x7374616B65416D6F756E742073686F756C6420686967686572207468616E2030 PUSH0 DUP3 ADD MSTORE POP JUMP JUMPDEST PUSH0 PUSH2 0x1D1F PUSH1 0x20 DUP4 PUSH2 0x1BDE JUMP JUMPDEST SWAP2 POP PUSH2 0x1D2A DUP3 PUSH2 0x1CEB JUMP JUMPDEST PUSH1 0x20 DUP3 ADD SWAP1 POP SWAP2 SWAP1 POP JUMP JUMPDEST PUSH0 PUSH1 0x20 DUP3 ADD SWAP1 POP DUP2 DUP2 SUB PUSH0 DUP4 ADD MSTORE PUSH2 0x1D4C DUP2 PUSH2 0x1D13 JUMP JUMPDEST SWAP1 POP SWAP2 SWAP1 POP JUMP JUMPDEST PUSH32 0x4E487B7100000000000000000000000000000000000000000000000000000000 PUSH0 MSTORE PUSH1 0x11 PUSH1 0x4 MSTORE PUSH1 0x24 PUSH0 REVERT JUMPDEST PUSH0 PUSH2 0x1D8A DUP3 PUSH2 0x1678 JUMP JUMPDEST SWAP2 POP PUSH2 0x1D95 DUP4 PUSH2 0x1678 JUMP JUMPDEST SWAP3 POP DUP3 DUP3 SUB SWAP1 POP DUP2 DUP2 GT ISZERO PUSH2 0x1DAD JUMPI PUSH2 0x1DAC PUSH2 0x1D53 JUMP JUMPDEST JUMPDEST SWAP3 SWAP2 POP POP JUMP JUMPDEST PUSH0 PUSH2 0x1DBD DUP3 PUSH2 0x1678 JUMP JUMPDEST SWAP2 POP PUSH2 0x1DC8 DUP4 PUSH2 0x1678 JUMP JUMPDEST SWAP3 POP DUP3 DUP3 ADD SWAP1 POP DUP1 DUP3 GT ISZERO PUSH2 0x1DE0 JUMPI PUSH2 0x1DDF PUSH2 0x1D53 JUMP JUMPDEST JUMPDEST SWAP3 SWAP2 POP POP JUMP JUMPDEST PUSH32 0x7374617465206E6F742046494E495348206F72204C49515549444154494F4E00 PUSH0 DUP3 ADD MSTORE POP JUMP JUMPDEST PUSH0 PUSH2 0x1E1A PUSH1 0x1F DUP4 PUSH2 0x1BDE JUMP JUMPDEST SWAP2 POP PUSH2 0x1E25 DUP3 PUSH2 0x1DE6 JUMP JUMPDEST PUSH1 0x20 DUP3 ADD SWAP1 POP SWAP2 SWAP1 POP JUMP JUMPDEST PUSH0 PUSH1 0x20 DUP3 ADD SWAP1 POP DUP2 DUP2 SUB PUSH0 DUP4 ADD MSTORE PUSH2 0x1E47 DUP2 PUSH2 0x1E0E JUMP JUMPDEST SWAP1 POP SWAP2 SWAP1 POP JUMP JUMPDEST PUSH32 0x7370416D6F756E74206E6F7420656E6F75676800000000000000000000000000 PUSH0 DUP3 ADD MSTORE POP JUMP JUMPDEST PUSH0 PUSH2 0x1E82 PUSH1 0x13 DUP4 PUSH2 0x1BDE JUMP JUMPDEST SWAP2 POP PUSH2 0x1E8D DUP3 PUSH2 0x1E4E JUMP JUMPDEST PUSH1 0x20 DUP3 ADD SWAP1 POP SWAP2 SWAP1 POP JUMP JUMPDEST PUSH0 PUSH1 0x20 DUP3 ADD SWAP1 POP DUP2 DUP2 SUB PUSH0 DUP4 ADD MSTORE PUSH2 0x1EAF DUP2 PUSH2 0x1E76 JUMP JUMPDEST SWAP1 POP SWAP2 SWAP1 POP JUMP JUMPDEST PUSH32 0x61646472657373206E6F74206265207A65726F00000000000000000000000000 PUSH0 DUP3 ADD MSTORE POP JUMP JUMPDEST PUSH0 PUSH2 0x1EEA PUSH1 0x13 DUP4 PUSH2 0x1BDE JUMP JUMPDEST SWAP2 POP PUSH2 0x1EF5 DUP3 PUSH2 0x1EB6 JUMP JUMPDEST PUSH1 0x20 DUP3 ADD SWAP1 POP SWAP2 SWAP1 POP JUMP JUMPDEST PUSH0 PUSH1 0x20 DUP3 ADD SWAP1 POP DUP2 DUP2 SUB PUSH0 DUP4 ADD MSTORE PUSH2 0x1F17 DUP2 PUSH2 0x1EDE JUMP JUMPDEST SWAP1 POP SWAP2 SWAP1 POP JUMP JUMPDEST PUSH32 0x70726F6A65637420656E64000000000000000000000000000000000000000000 PUSH0 DUP3 ADD MSTORE POP JUMP JUMPDEST PUSH0 PUSH2 0x1F52 PUSH1 0xB DUP4 PUSH2 0x1BDE JUMP JUMPDEST SWAP2 POP PUSH2 0x1F5D DUP3 PUSH2 0x1F1E JUMP JUMPDEST PUSH1 0x20 DUP3 ADD SWAP1 POP SWAP2 SWAP1 POP JUMP JUMPDEST PUSH0 PUSH1 0x20 DUP3 ADD SWAP1 POP DUP2 DUP2 SUB PUSH0 DUP4 ADD MSTORE PUSH2 0x1F7F DUP2 PUSH2 0x1F46 JUMP JUMPDEST SWAP1 POP SWAP2 SWAP1 POP JUMP JUMPDEST PUSH32 0x6164647265737320696E76616C69640000000000000000000000000000000000 PUSH0 DUP3 ADD MSTORE POP JUMP JUMPDEST PUSH0 PUSH2 0x1FBA PUSH1 0xF DUP4 PUSH2 0x1BDE JUMP JUMPDEST SWAP2 POP PUSH2 0x1FC5 DUP3 PUSH2 0x1F86 JUMP JUMPDEST PUSH1 0x20 DUP3 ADD SWAP1 POP SWAP2 SWAP1 POP JUMP JUMPDEST PUSH0 PUSH1 0x20 DUP3 ADD SWAP1 POP DUP2 DUP2 SUB PUSH0 DUP4 ADD MSTORE PUSH2 0x1FE7 DUP2 PUSH2 0x1FAE JUMP JUMPDEST SWAP1 POP SWAP2 SWAP1 POP JUMP JUMPDEST PUSH32 0x61646472657373206E6F7420626520626C616E6B000000000000000000000000 PUSH0 DUP3 ADD MSTORE POP JUMP JUMPDEST PUSH0 PUSH2 0x2022 PUSH1 0x14 DUP4 PUSH2 0x1BDE JUMP JUMPDEST SWAP2 POP PUSH2 0x202D DUP3 PUSH2 0x1FEE JUMP JUMPDEST PUSH1 0x20 DUP3 ADD SWAP1 POP SWAP2 SWAP1 POP JUMP JUMPDEST PUSH0 PUSH1 0x20 DUP3 ADD SWAP1 POP DUP2 DUP2 SUB PUSH0 DUP4 ADD MSTORE PUSH2 0x204F DUP2 PUSH2 0x2016 JUMP JUMPDEST SWAP1 POP SWAP2 SWAP1 POP JUMP JUMPDEST PUSH32 0x7374616B65416D6F756E7420746F6F2068696768000000000000000000000000 PUSH0 DUP3 ADD MSTORE POP JUMP JUMPDEST PUSH0 PUSH2 0x208A PUSH1 0x14 DUP4 PUSH2 0x1BDE JUMP JUMPDEST SWAP2 POP PUSH2 0x2095 DUP3 PUSH2 0x2056 JUMP JUMPDEST PUSH1 0x20 DUP3 ADD SWAP1 POP SWAP2 SWAP1 POP JUMP JUMPDEST PUSH0 PUSH1 0x20 DUP3 ADD SWAP1 POP DUP2 DUP2 SUB PUSH0 DUP4 ADD MSTORE PUSH2 0x20B7 DUP2 PUSH2 0x207E JUMP JUMPDEST SWAP1 POP SWAP2 SWAP1 POP JUMP JUMPDEST PUSH32 0x7374616B65416D6F756E742073686F756C6420686967686572207468616E206D PUSH0 DUP3 ADD MSTORE PUSH32 0x696E416D6F756E74000000000000000000000000000000000000000000000000 PUSH1 0x20 DUP3 ADD MSTORE POP JUMP JUMPDEST PUSH0 PUSH2 0x2118 PUSH1 0x28 DUP4 PUSH2 0x1BDE JUMP JUMPDEST SWAP2 POP PUSH2 0x2123 DUP3 PUSH2 0x20BE JUMP JUMPDEST PUSH1 0x40 DUP3 ADD SWAP1 POP SWAP2 SWAP1 POP JUMP JUMPDEST PUSH0 PUSH1 0x20 DUP3 ADD SWAP1 POP DUP2 DUP2 SUB PUSH0 DUP4 ADD MSTORE PUSH2 0x2145 DUP2 PUSH2 0x210C JUMP JUMPDEST SWAP1 POP SWAP2 SWAP1 POP JUMP JUMPDEST PUSH0 PUSH1 0x40 DUP3 ADD SWAP1 POP PUSH2 0x215F PUSH0 DUP4 ADD DUP6 PUSH2 0x19B7 JUMP JUMPDEST PUSH2 0x216C PUSH1 0x20 DUP4 ADD DUP5 PUSH2 0x1893 JUMP JUMPDEST SWAP4 SWAP3 POP POP POP JUMP INVALID LOG2 PUSH5 0x6970667358 0x22 SLT KECCAK256 0xC1 0x2E 0xCC 0xE1 CALLDATACOPY 0xC4 0xDF PUSH4 0xD30321A4 0xD6 0xBE 0xC3 STOP LOG2 0xB5 0xCF SELFDESTRUCT SHR BLOBBASEFEE PUSH11 0x116ECA39C9039A319D6473 PUSH16 0x6C634300081900330000000000000000 "
				},
				"gasEstimates": {
					"creation": {
						"codeDepositCost": "1723400",
						"executionCost": "infinite",
						"totalCost": "infinite"
					},
					"external": {
						"ADMIN_ROLE()": "392",
						"DEFAULT_ADMIN_ROLE()": "396",
						"claimBorrow()": "255",
						"claimLend()": "211",
						"createPoolInfo(uint256,uint256,uint256,uint256,uint256,uint256,address,address,address,address,uint256)": "infinite",
						"depositBorrow(uint256,uint256)": "infinite",
						"depositLend(uint256,uint256)": "infinite",
						"feeAddress()": "2597",
						"getRoleAdmin(bytes32)": "infinite",
						"grantRole(bytes32,address)": "infinite",
						"hasRole(bytes32,address)": "3196",
						"poolBaseInfo(uint256)": "infinite",
						"poolDataInfo(uint256)": "infinite",
						"refundBorrow()": "253",
						"refundLend()": "187",
						"renounceRole(bytes32,address)": "infinite",
						"revokeRole(bytes32,address)": "infinite",
						"setFee(address)": "infinite",
						"setFee(uint256,uint256)": "infinite",
						"setMinAmount(uint256)": "22626",
						"setSwapRouterAddress(address)": "infinite",
						"supportsInterface(bytes4)": "763",
						"withdrawBorrow()": "275",
						"withdrawLend(uint256,uint256)": "infinite"
					}
				},
				"methodIdentifiers": {
					"ADMIN_ROLE()": "75b238fc",
					"DEFAULT_ADMIN_ROLE()": "a217fddf",
					"claimBorrow()": "1af0a28d",
					"claimLend()": "09ae3f83",
					"createPoolInfo(uint256,uint256,uint256,uint256,uint256,uint256,address,address,address,address,uint256)": "6ab55c17",
					"depositBorrow(uint256,uint256)": "16f941b5",
					"depositLend(uint256,uint256)": "90590da0",
					"feeAddress()": "41275358",
					"getRoleAdmin(bytes32)": "248a9ca3",
					"grantRole(bytes32,address)": "2f2ff15d",
					"hasRole(bytes32,address)": "91d14854",
					"poolBaseInfo(uint256)": "5a5a971e",
					"poolDataInfo(uint256)": "0177b68c",
					"refundBorrow()": "dbd3291c",
					"refundLend()": "9867e965",
					"renounceRole(bytes32,address)": "36568abe",
					"revokeRole(bytes32,address)": "d547741f",
					"setFee(address)": "7917fb9f",
					"setFee(uint256,uint256)": "52f7c988",
					"setMinAmount(uint256)": "897b0637",
					"setSwapRouterAddress(address)": "5249961b",
					"supportsInterface(bytes4)": "01ffc9a7",
					"withdrawBorrow()": "ff514961",
					"withdrawLend(uint256,uint256)": "38f2aa76"
				}
			},
			"storageLayout": {
				"storage": [
					{
						"astId": 804,
						"contract": "L3/pledge.sol:pledge",
						"label": "settleTime",
						"offset": 0,
						"slot": "0",
						"type": "t_uint256"
					},
					{
						"astId": 806,
						"contract": "L3/pledge.sol:pledge",
						"label": "endTime",
						"offset": 0,
						"slot": "1",
						"type": "t_uint256"
					},
					{
						"astId": 808,
						"contract": "L3/pledge.sol:pledge",
						"label": "interestRate",
						"offset": 0,
						"slot": "2",
						"type": "t_uint256"
					},
					{
						"astId": 810,
						"contract": "L3/pledge.sol:pledge",
						"label": "maxSupply",
						"offset": 0,
						"slot": "3",
						"type": "t_uint256"
					},
					{
						"astId": 812,
						"contract": "L3/pledge.sol:pledge",
						"label": "martgageRate",
						"offset": 0,
						"slot": "4",
						"type": "t_uint256"
					},
					{
						"astId": 814,
						"contract": "L3/pledge.sol:pledge",
						"label": "lendToken",
						"offset": 0,
						"slot": "5",
						"type": "t_uint256"
					},
					{
						"astId": 816,
						"contract": "L3/pledge.sol:pledge",
						"label": "borrowToken",
						"offset": 0,
						"slot": "6",
						"type": "t_uint256"
					},
					{
						"astId": 818,
						"contract": "L3/pledge.sol:pledge",
						"label": "spToken",
						"offset": 0,
						"slot": "7",
						"type": "t_address"
					},
					{
						"astId": 820,
						"contract": "L3/pledge.sol:pledge",
						"label": "jpToken",
						"offset": 0,
						"slot": "8",
						"type": "t_address"
					},
					{
						"astId": 822,
						"contract": "L3/pledge.sol:pledge",
						"label": "autoLiquidateThreshold",
						"offset": 0,
						"slot": "9",
						"type": "t_uint256"
					},
					{
						"astId": 824,
						"contract": "L3/pledge.sol:pledge",
						"label": "lendFee",
						"offset": 0,
						"slot": "10",
						"type": "t_uint256"
					},
					{
						"astId": 826,
						"contract": "L3/pledge.sol:pledge",
						"label": "borrowFee",
						"offset": 0,
						"slot": "11",
						"type": "t_uint256"
					},
					{
						"astId": 828,
						"contract": "L3/pledge.sol:pledge",
						"label": "swapRouterAddres",
						"offset": 0,
						"slot": "12",
						"type": "t_address"
					},
					{
						"astId": 830,
						"contract": "L3/pledge.sol:pledge",
						"label": "feeAddress",
						"offset": 0,
						"slot": "13",
						"type": "t_address_payable"
					},
					{
						"astId": 832,
						"contract": "L3/pledge.sol:pledge",
						"label": "minAmount",
						"offset": 0,
						"slot": "14",
						"type": "t_uint256"
					},
					{
						"astId": 835,
						"contract": "L3/pledge.sol:pledge",
						"label": "pool",
						"offset": 0,
						"slot": "15",
						"type": "t_struct(PoolBaseInfo)887_storage"
					},
					{
						"astId": 839,
						"contract": "L3/pledge.sol:pledge",
						"label": "poolBaseInfo",
						"offset": 0,
						"slot": "26",
						"type": "t_array(t_struct(PoolBaseInfo)887_storage)dyn_storage"
					},
					{
						"astId": 842,
						"contract": "L3/pledge.sol:pledge",
						"label": "state",
						"offset": 0,
						"slot": "27",
						"type": "t_enum(PoolState)859"
					},
					{
						"astId": 846,
						"contract": "L3/pledge.sol:pledge",
						"label": "poolDataInfo",
						"offset": 0,
						"slot": "28",
						"type": "t_array(t_struct(PoolDataInfo)900_storage)dyn_storage"
					},
					{
						"astId": 853,
						"contract": "L3/pledge.sol:pledge",
						"label": "userLendInfo",
						"offset": 0,
						"slot": "29",
						"type": "t_mapping(t_address,t_mapping(t_uint256,t_struct(LendInfo)918_storage))"
					}
				],
				"types": {
					"t_address": {
						"encoding": "inplace",
						"label": "address",
						"numberOfBytes": "20"
					},
					"t_address_payable": {
						"encoding": "inplace",
						"label": "address payable",
						"numberOfBytes": "20"
					},
					"t_array(t_struct(PoolBaseInfo)887_storage)dyn_storage": {
						"base": "t_struct(PoolBaseInfo)887_storage",
						"encoding": "dynamic_array",
						"label": "struct pledge.PoolBaseInfo[]",
						"numberOfBytes": "32"
					},
					"t_array(t_struct(PoolDataInfo)900_storage)dyn_storage": {
						"base": "t_struct(PoolDataInfo)900_storage",
						"encoding": "dynamic_array",
						"label": "struct pledge.PoolDataInfo[]",
						"numberOfBytes": "32"
					},
					"t_bool": {
						"encoding": "inplace",
						"label": "bool",
						"numberOfBytes": "1"
					},
					"t_enum(PoolState)859": {
						"encoding": "inplace",
						"label": "enum pledge.PoolState",
						"numberOfBytes": "1"
					},
					"t_mapping(t_address,t_mapping(t_uint256,t_struct(LendInfo)918_storage))": {
						"encoding": "mapping",
						"key": "t_address",
						"label": "mapping(address => mapping(uint256 => struct pledge.LendInfo))",
						"numberOfBytes": "32",
						"value": "t_mapping(t_uint256,t_struct(LendInfo)918_storage)"
					},
					"t_mapping(t_uint256,t_struct(LendInfo)918_storage)": {
						"encoding": "mapping",
						"key": "t_uint256",
						"label": "mapping(uint256 => struct pledge.LendInfo)",
						"numberOfBytes": "32",
						"value": "t_struct(LendInfo)918_storage"
					},
					"t_struct(LendInfo)918_storage": {
						"encoding": "inplace",
						"label": "struct pledge.LendInfo",
						"members": [
							{
								"astId": 911,
								"contract": "L3/pledge.sol:pledge",
								"label": "stakeAmount",
								"offset": 0,
								"slot": "0",
								"type": "t_uint256"
							},
							{
								"astId": 913,
								"contract": "L3/pledge.sol:pledge",
								"label": "refundAmount",
								"offset": 0,
								"slot": "1",
								"type": "t_uint256"
							},
							{
								"astId": 915,
								"contract": "L3/pledge.sol:pledge",
								"label": "hasNoRefund",
								"offset": 0,
								"slot": "2",
								"type": "t_bool"
							},
							{
								"astId": 917,
								"contract": "L3/pledge.sol:pledge",
								"label": "hasNoClaim",
								"offset": 1,
								"slot": "2",
								"type": "t_bool"
							}
						],
						"numberOfBytes": "96"
					},
					"t_struct(PoolBaseInfo)887_storage": {
						"encoding": "inplace",
						"label": "struct pledge.PoolBaseInfo",
						"members": [
							{
								"astId": 866,
								"contract": "L3/pledge.sol:pledge",
								"label": "settleTime",
								"offset": 0,
								"slot": "0",
								"type": "t_uint256"
							},
							{
								"astId": 868,
								"contract": "L3/pledge.sol:pledge",
								"label": "endTime",
								"offset": 0,
								"slot": "1",
								"type": "t_uint256"
							},
							{
								"astId": 870,
								"contract": "L3/pledge.sol:pledge",
								"label": "interestRate",
								"offset": 0,
								"slot": "2",
								"type": "t_uint256"
							},
							{
								"astId": 872,
								"contract": "L3/pledge.sol:pledge",
								"label": "maxSupply",
								"offset": 0,
								"slot": "3",
								"type": "t_uint256"
							},
							{
								"astId": 874,
								"contract": "L3/pledge.sol:pledge",
								"label": "lendSupply",
								"offset": 0,
								"slot": "4",
								"type": "t_uint256"
							},
							{
								"astId": 876,
								"contract": "L3/pledge.sol:pledge",
								"label": "martgageRate",
								"offset": 0,
								"slot": "5",
								"type": "t_uint256"
							},
							{
								"astId": 878,
								"contract": "L3/pledge.sol:pledge",
								"label": "lendToken",
								"offset": 0,
								"slot": "6",
								"type": "t_address"
							},
							{
								"astId": 880,
								"contract": "L3/pledge.sol:pledge",
								"label": "borrowToken",
								"offset": 0,
								"slot": "7",
								"type": "t_address"
							},
							{
								"astId": 882,
								"contract": "L3/pledge.sol:pledge",
								"label": "spToken",
								"offset": 0,
								"slot": "8",
								"type": "t_address"
							},
							{
								"astId": 884,
								"contract": "L3/pledge.sol:pledge",
								"label": "jpToken",
								"offset": 0,
								"slot": "9",
								"type": "t_address"
							},
							{
								"astId": 886,
								"contract": "L3/pledge.sol:pledge",
								"label": "autoLiquidateThreshold",
								"offset": 0,
								"slot": "10",
								"type": "t_uint256"
							}
						],
						"numberOfBytes": "352"
					},
					"t_struct(PoolDataInfo)900_storage": {
						"encoding": "inplace",
						"label": "struct pledge.PoolDataInfo",
						"members": [
							{
								"astId": 889,
								"contract": "L3/pledge.sol:pledge",
								"label": "settleAmountLend",
								"offset": 0,
								"slot": "0",
								"type": "t_uint256"
							},
							{
								"astId": 891,
								"contract": "L3/pledge.sol:pledge",
								"label": "settleAmountBorrow",
								"offset": 0,
								"slot": "1",
								"type": "t_uint256"
							},
							{
								"astId": 893,
								"contract": "L3/pledge.sol:pledge",
								"label": "finishAmountLend",
								"offset": 0,
								"slot": "2",
								"type": "t_uint256"
							},
							{
								"astId": 895,
								"contract": "L3/pledge.sol:pledge",
								"label": "finishAmountBorrow",
								"offset": 0,
								"slot": "3",
								"type": "t_uint256"
							},
							{
								"astId": 897,
								"contract": "L3/pledge.sol:pledge",
								"label": "liquidationAmounLend",
								"offset": 0,
								"slot": "4",
								"type": "t_uint256"
							},
							{
								"astId": 899,
								"contract": "L3/pledge.sol:pledge",
								"label": "liquidationAmounBorrow",
								"offset": 0,
								"slot": "5",
								"type": "t_uint256"
							}
						],
						"numberOfBytes": "192"
					},
					"t_uint256": {
						"encoding": "inplace",
						"label": "uint256",
						"numberOfBytes": "32"
					}
				}
			},
			"userdoc": {
				"kind": "user",
				"methods": {},
				"version": 1
			}
		}
	}
}