{
	"data": {
		"bytecode": {
			"linkReferences": {},
			"object": "6080604052348015600e575f80fd5b506103e78061001c5f395ff3fe60806040526004361061001d575f3560e01c806369b08d7d14610021575b5f80fd5b61003b60048036038101906100369190610210565b61003d565b005b5f60023461004b9190610284565b1461008b576040517f08c379a00000000000000000000000000000000000000000000000000000000081526004016100829061030e565b60405180910390fd5b5f4790508273ffffffffffffffffffffffffffffffffffffffff166108fc6002346100b6919061032c565b90811502906040515f60405180830381858888f193505050501580156100de573d5f803e3d5ffd5b508173ffffffffffffffffffffffffffffffffffffffff166108fc600234610106919061032c565b90811502906040515f60405180830381858888f1935050505015801561012e573d5f803e3d5ffd5b507f909c57d5c6ac08245cf2a6de3900e2b868513fa59099b92b27d8db823d92df9c4760405161015e919061036b565b60405180910390a17f909c57d5c6ac08245cf2a6de3900e2b868513fa59099b92b27d8db823d92df9c81604051610195919061036b565b60405180910390a18047146101ad576101ac610384565b5b505050565b5f80fd5b5f73ffffffffffffffffffffffffffffffffffffffff82169050919050565b5f6101df826101b6565b9050919050565b6101ef816101d5565b81146101f9575f80fd5b50565b5f8135905061020a816101e6565b92915050565b5f8060408385031215610226576102256101b2565b5b5f610233858286016101fc565b9250506020610244858286016101fc565b9150509250929050565b5f819050919050565b7f4e487b71000000000000000000000000000000000000000000000000000000005f52601260045260245ffd5b5f61028e8261024e565b91506102998361024e565b9250826102a9576102a8610257565b5b828206905092915050565b5f82825260208201905092915050565b7f4576656e2076616c75652072657175697265642e0000000000000000000000005f82015250565b5f6102f86014836102b4565b9150610303826102c4565b602082019050919050565b5f6020820190508181035f830152610325816102ec565b9050919050565b5f6103368261024e565b91506103418361024e565b92508261035157610350610257565b5b828204905092915050565b6103658161024e565b82525050565b5f60208201905061037e5f83018461035c565b92915050565b7f4e487b71000000000000000000000000000000000000000000000000000000005f52600160045260245ffdfea2646970667358221220fc4fac4614f55c0a5ba4d90eeb58f4e559a83d0966e3d99ae9a9501f7e5b367564736f6c63430008190033",
			"opcodes": "PUSH1 0x80 PUSH1 0x40 MSTORE CALLVALUE DUP1 ISZERO PUSH1 0xE JUMPI PUSH0 DUP1 REVERT JUMPDEST POP PUSH2 0x3E7 DUP1 PUSH2 0x1C PUSH0 CODECOPY PUSH0 RETURN INVALID PUSH1 0x80 PUSH1 0x40 MSTORE PUSH1 0x4 CALLDATASIZE LT PUSH2 0x1D JUMPI PUSH0 CALLDATALOAD PUSH1 0xE0 SHR DUP1 PUSH4 0x69B08D7D EQ PUSH2 0x21 JUMPI JUMPDEST PUSH0 DUP1 REVERT JUMPDEST PUSH2 0x3B PUSH1 0x4 DUP1 CALLDATASIZE SUB DUP2 ADD SWAP1 PUSH2 0x36 SWAP2 SWAP1 PUSH2 0x210 JUMP JUMPDEST PUSH2 0x3D JUMP JUMPDEST STOP JUMPDEST PUSH0 PUSH1 0x2 CALLVALUE PUSH2 0x4B SWAP2 SWAP1 PUSH2 0x284 JUMP JUMPDEST EQ PUSH2 0x8B JUMPI PUSH1 0x40 MLOAD PUSH32 0x8C379A000000000000000000000000000000000000000000000000000000000 DUP2 MSTORE PUSH1 0x4 ADD PUSH2 0x82 SWAP1 PUSH2 0x30E JUMP JUMPDEST PUSH1 0x40 MLOAD DUP1 SWAP2 SUB SWAP1 REVERT JUMPDEST PUSH0 SELFBALANCE SWAP1 POP DUP3 PUSH20 0xFFFFFFFFFFFFFFFFFFFFFFFFFFFFFFFFFFFFFFFF AND PUSH2 0x8FC PUSH1 0x2 CALLVALUE PUSH2 0xB6 SWAP2 SWAP1 PUSH2 0x32C JUMP JUMPDEST SWAP1 DUP2 ISZERO MUL SWAP1 PUSH1 0x40 MLOAD PUSH0 PUSH1 0x40 MLOAD DUP1 DUP4 SUB DUP2 DUP6 DUP9 DUP9 CALL SWAP4 POP POP POP POP ISZERO DUP1 ISZERO PUSH2 0xDE JUMPI RETURNDATASIZE PUSH0 DUP1 RETURNDATACOPY RETURNDATASIZE PUSH0 REVERT JUMPDEST POP DUP2 PUSH20 0xFFFFFFFFFFFFFFFFFFFFFFFFFFFFFFFFFFFFFFFF AND PUSH2 0x8FC PUSH1 0x2 CALLVALUE PUSH2 0x106 SWAP2 SWAP1 PUSH2 0x32C JUMP JUMPDEST SWAP1 DUP2 ISZERO MUL SWAP1 PUSH1 0x40 MLOAD PUSH0 PUSH1 0x40 MLOAD DUP1 DUP4 SUB DUP2 DUP6 DUP9 DUP9 CALL SWAP4 POP POP POP POP ISZERO DUP1 ISZERO PUSH2 0x12E JUMPI RETURNDATASIZE PUSH0 DUP1 RETURNDATACOPY RETURNDATASIZE PUSH0 REVERT JUMPDEST POP PUSH32 0x909C57D5C6AC08245CF2A6DE3900E2B868513FA59099B92B27D8DB823D92DF9C SELFBALANCE PUSH1 0x40 MLOAD PUSH2 0x15E SWAP2 SWAP1 PUSH2 0x36B JUMP JUMPDEST PUSH1 0x40 MLOAD DUP1 SWAP2 SUB SWAP1 LOG1 PUSH32 0x909C57D5C6AC08245CF2A6DE3900E2B868513FA59099B92B27D8DB823D92DF9C DUP2 PUSH1 0x40 MLOAD PUSH2 0x195 SWAP2 SWAP1 PUSH2 0x36B JUMP JUMPDEST PUSH1 0x40 MLOAD DUP1 SWAP2 SUB SWAP1 LOG1 DUP1 SELFBALANCE EQ PUSH2 0x1AD JUMPI PUSH2 0x1AC PUSH2 0x384 JUMP JUMPDEST JUMPDEST POP POP POP JUMP JUMPDEST PUSH0 DUP1 REVERT JUMPDEST PUSH0 PUSH20 0xFFFFFFFFFFFFFFFFFFFFFFFFFFFFFFFFFFFFFFFF DUP3 AND SWAP1 POP SWAP2 SWAP1 POP JUMP JUMPDEST PUSH0 PUSH2 0x1DF DUP3 PUSH2 0x1B6 JUMP JUMPDEST SWAP1 POP SWAP2 SWAP1 POP JUMP JUMPDEST PUSH2 0x1EF DUP2 PUSH2 0x1D5 JUMP JUMPDEST DUP2 EQ PUSH2 0x1F9 JUMPI PUSH0 DUP1 REVERT JUMPDEST POP JUMP JUMPDEST PUSH0 DUP2 CALLDATALOAD SWAP1 POP PUSH2 0x20A DUP2 PUSH2 0x1E6 JUMP JUMPDEST SWAP3 SWAP2 POP POP JUMP JUMPDEST PUSH0 DUP1 PUSH1 0x40 DUP4 DUP6 SUB SLT ISZERO PUSH2 0x226 JUMPI PUSH2 0x225 PUSH2 0x1B2 JUMP JUMPDEST JUMPDEST PUSH0 PUSH2 0x233 DUP6 DUP3 DUP7 ADD PUSH2 0x1FC JUMP JUMPDEST SWAP3 POP POP PUSH1 0x20 PUSH2 0x244 DUP6 DUP3 DUP7 ADD PUSH2 0x1FC JUMP JUMPDEST SWAP2 POP POP SWAP3 POP SWAP3 SWAP1 POP JUMP JUMPDEST PUSH0 DUP2 SWAP1 POP SWAP2 SWAP1 POP JUMP JUMPDEST PUSH32 0x4E487B7100000000000000000000000000000000000000000000000000000000 PUSH0 MSTORE PUSH1 0x12 PUSH1 0x4 MSTORE PUSH1 0x24 PUSH0 REVERT JUMPDEST PUSH0 PUSH2 0x28E DUP3 PUSH2 0x24E JUMP JUMPDEST SWAP2 POP PUSH2 0x299 DUP4 PUSH2 0x24E JUMP JUMPDEST SWAP3 POP DUP3 PUSH2 0x2A9 JUMPI PUSH2 0x2A8 PUSH2 0x257 JUMP JUMPDEST JUMPDEST DUP3 DUP3 MOD SWAP1 POP SWAP3 SWAP2 POP POP JUMP JUMPDEST PUSH0 DUP3 DUP3 MSTORE PUSH1 0x20 DUP3 ADD SWAP1 POP SWAP3 SWAP2 POP POP JUMP JUMPDEST PUSH32 0x4576656E2076616C75652072657175697265642E000000000000000000000000 PUSH0 DUP3 ADD MSTORE POP JUMP JUMPDEST PUSH0 PUSH2 0x2F8 PUSH1 0x14 DUP4 PUSH2 0x2B4 JUMP JUMPDEST SWAP2 POP PUSH2 0x303 DUP3 PUSH2 0x2C4 JUMP JUMPDEST PUSH1 0x20 DUP3 ADD SWAP1 POP SWAP2 SWAP1 POP JUMP JUMPDEST PUSH0 PUSH1 0x20 DUP3 ADD SWAP1 POP DUP2 DUP2 SUB PUSH0 DUP4 ADD MSTORE PUSH2 0x325 DUP2 PUSH2 0x2EC JUMP JUMPDEST SWAP1 POP SWAP2 SWAP1 POP JUMP JUMPDEST PUSH0 PUSH2 0x336 DUP3 PUSH2 0x24E JUMP JUMPDEST SWAP2 POP PUSH2 0x341 DUP4 PUSH2 0x24E JUMP JUMPDEST SWAP3 POP DUP3 PUSH2 0x351 JUMPI PUSH2 0x350 PUSH2 0x257 JUMP JUMPDEST JUMPDEST DUP3 DUP3 DIV SWAP1 POP SWAP3 SWAP2 POP POP JUMP JUMPDEST PUSH2 0x365 DUP2 PUSH2 0x24E JUMP JUMPDEST DUP3 MSTORE POP POP JUMP JUMPDEST PUSH0 PUSH1 0x20 DUP3 ADD SWAP1 POP PUSH2 0x37E PUSH0 DUP4 ADD DUP5 PUSH2 0x35C JUMP JUMPDEST SWAP3 SWAP2 POP POP JUMP JUMPDEST PUSH32 0x4E487B7100000000000000000000000000000000000000000000000000000000 PUSH0 MSTORE PUSH1 0x1 PUSH1 0x4 MSTORE PUSH1 0x24 PUSH0 REVERT INVALID LOG2 PUSH5 0x6970667358 0x22 SLT KECCAK256 0xFC 0x4F 0xAC CHAINID EQ CREATE2 TLOAD EXP JUMPDEST LOG4 0xD9 0xE 0xEB PC DELEGATECALL 0xE5 MSIZE 0xA8 RETURNDATASIZE MULMOD PUSH7 0xE3D99AE9A9501F PUSH31 0x5B367564736F6C634300081900330000000000000000000000000000000000 "
		},
		"gasEstimates": {
			"creation": {
				"codeDepositCost": "199800",
				"executionCost": "243",
				"totalCost": "200043"
			},
			"external": {
				"splitEther(address,address)": "infinite"
			}
		},
		"methodIdentifiers": {
			"splitEther(address,address)": "69b08d7d"
		}
	},
	"abi": [
		{
			"anonymous": false,
			"inputs": [
				{
					"indexed": false,
					"internalType": "uint256",
					"name": "",
					"type": "uint256"
				}
			],
			"name": "Log",
			"type": "event"
		},
		{
			"inputs": [
				{
					"internalType": "address payable",
					"name": "addr1",
					"type": "address"
				},
				{
					"internalType": "address payable",
					"name": "addr2",
					"type": "address"
				}
			],
			"name": "splitEther",
			"outputs": [],
			"stateMutability": "payable",
			"type": "function"
		}
	]
}